:100000000C9467020C9435240C9462240C94950291
:100010000C9495020C9495020C9495020C94E82A89
:100020000C9495020C9495020C9495020C949502F4
:100030000C949A0D0C9495020C9495020C949502D4
:100040000C948F240C9495020C9492260C94CD263B
:100050000C9495020C9495020C9495020C949502C4
:100060000C9495020C94950208000000BE9224495D
:10007000123EABAAAA2ABECDCCCC4C3E00000080DA
:10008000BEABAAAAAA3E00000000BF000000803F4D
:100090000000000000084178D3BB4387D1133D190D
:1000A0000E3CC3BD4282AD2B3E68EC8276BED98F3A
:1000B000E1A93E4C80EFFFBE01C4FF7F3F0000007E
:1000C0000000484D50532C007265626F6F740063DE
:1000D0006F6E666967007365743F74703D00736589
:1000E000743F74743D007365743F666E3D007365C4
:1000F000743F616C3D007365743F70630073657499
:100100003F706E007365743F706964007365743F7F
:10011000706F3D007365743F6C643D007365743FA0
:100120006C623D007365743F73703D00484D4C44F4
:100130002C00484D504F00484D504400484D524D02
:1001400000484D50432C00484D414C00484D464E10
:100150002C00554349442C4865617465724D6574A3
:1001600065722C323031333037333100484D504EC8
:1001700000484D53552C000A050A050A32070F1F87
:100180001F1F1F1F1F1F1F1F00000000001C1E1F1E
:100190001F1F1F1F1F1F1F1F1F1F1F0F07000000F4
:1001A00000001F1F1F1F1F1F1F1F1F1E1C1F1F1FA1
:1001B0000000001F1F1F000000001F1F1F484D4CA4
:1001C000472C302C000EF0E10006F00000008040CB
:1001D000000040400AD7A33B0000A04000327F7FD0
:1001E0007F7F460A6400FFFF090A0B003CFA507249
:1001F0006F626520200000000000000100D8FF3879
:10020000FF00002CE17139117A7839B6AE0734005D
:10021000401C46484D4C422C002D204E6F2050690A
:10022000742050726F6265202D00252D31327325A8
:100230003364DF005069743A253364DF2563202579
:100240006325337525252563005069743A25336489
:10025000DF2563204C6964253375002A2A20414C30
:1002600041524D2048494748202A2A002A2A204145
:100270004C41524D204C4F5720202A2A00000102A9
:1002800003040501022020052006060203070706D5
:100290000602070705030402202005FF06060707DC
:1002A00005000606030705010102200020000602E2
:1002B000030705000602202005022D1C05032D1C46
:1002C00005042D1C05052D1C01061D1C0009EC1B39
:1002D0000A13BB1B0A0D7D1B0A0E7D1B0A0F7D1B1B
:1002E0000A107D1B0A11551B0A122B1B0A140A1B2C
:1002F0000A16DC1A0A15A71A0A18D11914000000E8
:10030000000228030202090204040328040302096C
:100310000304020428020402090404030528020558
:100320000209050404092102090213132102130220
:100330001515210215021616210216020D0D2102B5
:100340000D020E0E21020E020F0F21020F021010DD
:1003500021021002111121021102121221021202B5
:10036000141421021402090000002533642525001D
:100370004C4344206272696768746E6573730073DE
:1003800070656564202533642525004D6178696DAD
:10039000756D206175746F2066616E0052657365BE
:1003A0007420636F6E6669673F004E6F2000596569
:1003B0007300253364207365636F6E6473004C694A
:1003C00064206F70656E2074696D657200253364FA
:1003D00025252062656C6F7720736574004C696415
:1003E000206F70656E206F6666736574004F666679
:1003F00073657420253464DF2563004D616E75617B
:100400006C2066616E206D6F646500253364DF25A6
:1004100063005365742074656D70657261747572E4
:10042000653A00484D52462C3235352C302C0000B0
:10043000000000240027002A0000000000250028FA
:10044000002B000000000023002600290004040403
:10045000040404040402020202020203030303036D
:10046000030102040810204080010204081020014A
:10047000020408102000000007000201000003042D
:1004800006000000000000000002494E46494E49A7
:1004900054594E414ECDCCCC3D0AD7233C17B7D151
:1004A0003877CC2B329595E6241FB14F0A000020F7
:1004B000410000C84200401C4620BCBE4CCA1B0E76
:1004C0005AAEC59D7400680EB01C962039281124C0
:1004D0001FBECFEFD8E0DEBFCDBF14BEE0E6F0E038
:1004E00088E18083108211E0A0E0B1E0E8E9F1E664
:1004F00002C005900D92A634B107D9F713E0A6E427
:10050000B1E001C01D92A83EB107E1F714E0CEECC6
:10051000D4E004C02297FE010E948430C63CD1077B
:10052000C9F70E94E00D0C94CA300C9400006627B5
:1005300077270C944E05FC0188279927E894219190
:100540002032E9F3293010F02E30C8F32B3241F07D
:100550002D3239F4689404C00E943803820F911D33
:10056000219120532A30C0F31EF4909581959F4F1E
:100570000895FB01DC0102C005900D9241505040EE
:10058000D8F70895FB01DC014150504030F08D91C7
:100590000590801919F40020B9F7881B990B08956C
:1005A000FB01DC0102C001900D9241505040D8F790
:1005B0000895DC0101C06D9341505040E0F708956B
:1005C000FC018191861721F08823D9F79927089596
:1005D0003197CF010895A0E0B0E0E1EFF2E00C9494
:1005E0009D307C01EB018A01690109C0CE01219691
:1005F000F6010995F70181937F0101501040011523
:100600001105A1F7CDB7DEB7E8E00C94B930A0E052
:10061000B0E0EDE0F3E00C949D30EC017B018A0149
:10062000690109C0CE012196F70161917F01F601B0
:1006300009950150104001151105A1F7CDB7DEB79E
:10064000E8E00C94B930DF92EF92FF920F931F9382
:10065000D72E7A018C01FA010995C80101966D2DFA
:10066000F70109951F910F91FF90EF90DF9008958A
:100670007AE0979F902D879F802D910D11240895EA
:10068000AEE0B0E0E6E4F3E00C94A1300D891E8901
:100690008F89988D97FF02C080E090E801979E8334
:1006A0008D831A8309838EE08C839E01255E3F4FE4
:1006B000CE010196698D7A8DA9010E9471034D8149
:1006C0005E8157FD0AC02F813885421753070CF40D
:1006D0009A01020F131FF80110822E96E4E00C9489
:1006E000BD30ABE0B0E0E7E7F3E00C9493303C01C1
:1006F0002B015A01FC0117821682838181FD03C000
:100700006FEF7FEFC6C19AE0892E1E010894211C6D
:10071000311CF3012381F20123FD859123FF819197
:100720002F01882309F4B2C1853239F423FD859164
:1007300023FF81912F01853229F490E0B3010E94BB
:10074000DC06E7CF982FFF24EE249924FFE1FF1564
:10075000D0F09B3269F09C3228F4903259F09332F9
:1007600091F40EC09D3249F0903369F441E024C009
:1007700052E0F52A84E0F82A28C098E0F92A25C03A
:10078000E0E1FE2A22C0F7FC29C0892F80538A307D
:1007900070F4F6FE05C0989C902C1124980E15C09C
:1007A000E89CE02C1124E80EF0E2FF2A0EC09E32F5
:1007B00029F4F6FC6BC140E4F42A07C09C3619F416
:1007C00050E8F52A02C0983649F4F20123FD9591CC
:1007D00023FF91912F01992309F0B8CF892F8554D8
:1007E000833018F08052833038F444E050E0A40E97
:1007F000B51E5FE359830FC0933631F0933779F01C
:10080000933509F056C020C0F5018081898342E00C
:1008100050E0A40EB51E610101E010E012C0F50128
:10082000C080D180F6FC03C06FEF7FEF02C0692D5E
:1008300070E042E050E0A40EB51EC6010E94D10651
:100840008C015FE7F52214C0F501C080D180F6FC71
:1008500003C06FEF7FEF02C0692D70E042E050E00F
:10086000A40EB51EC6010E94C6068C0150E8F52AEA
:10087000F3FE07C01AC080E290E0B3010E94DC06DC
:10088000EA948E2D90E008171907A8F30EC0F60120
:10089000F7FC8591F7FE81916F0190E0B3010E9412
:1008A000DC06E110EA94015010400115110579F7BA
:1008B000EAC0943611F0993669F5F7FE08C0F501E3
:1008C000208131814281538184E090E00AC0F501AA
:1008D000808191819C01442737FD4095542F82E00F
:1008E00090E0A80EB91E9FE6F92257FF09C0509567
:1008F0004095309521953F4F4F4F5F4FE0E8FE2ADE
:10090000CA01B901A1012AE030E00E940807D82EEF
:10091000D21840C0953729F41F2D1F7E2AE030E001
:100920001DC01F2D197F9F3661F0903720F4983538
:1009300009F0ACC00FC0903739F0983709F0A6C065
:1009400004C028E030E00AC0106114FD146020E10A
:1009500030E004C014FD166020E132E017FF08C04B
:10096000F501608171818281938144E050E008C08B
:10097000F50180819181BC0180E090E042E050E08F
:10098000A40EB51EA1010E940807D82ED2188FE729
:10099000F82EF122F6FE0BC05EEFF522D91438F4E2
:1009A000F4FE07C0F2FC05C08FEEF82202C01D2D38
:1009B00001C0192DF4FE0DC0FE01ED0DF11D808169
:1009C000803319F499EEF92208C01F5FF2FE05C0CA
:1009D00003C08F2D867809F01F5F0F2DF3FC14C024
:1009E000F0FE0FC01E1510F09D2C0BC09D2C9E0C10
:1009F000911A1E2D06C080E290E0B3010E94DC0631
:100A00001F5F1E15C0F304C01E1510F4E11A01C0CB
:100A1000EE2404FF0FC080E390E0B3010E94DC06E7
:100A200002FF1DC001FD03C088E790E00EC088E50D
:100A300090E00BC0802F867891F001FF02C08BE21E
:100A400001C080E2F7FC8DE290E0B3010E94DC0679
:100A500006C080E390E0B3010E94DC069A94D914AA
:100A6000C0F3DA94F101ED0DF11D808190E0B30146
:100A70000E94DC06DD20A9F706C080E290E0B30109
:100A80000E94DC06EA94EE20C1F743CEF3016681B2
:100A90007781CB012B96E2E10C94AF30A0E0B0E07F
:100AA000E4E5F5E00C949930EC015B01611571050A
:100AB00019F0FB0191838083F9908F2D90E00E94C3
:100AC0008830892BC9F7FDE2FF1621F4F990EE2456
:100AD000E39405C02BE2F21609F4F990EE248E019E
:100AE00001501040C8016AE874E043E050E00E9401
:100AF000AE06892B01F58E010E5F1F4FC8016DE810
:100B000074E045E050E00E94AE06892B19F48E0196
:100B1000095F1F4FA114B10419F0F501118300837F
:100B2000E0FC04C070E090E080E814C070E090E069
:100B300080E86FEF08C1C80162E974E043E050E06B
:100B40000E94AE06892B69F4A114B10429F470E067
:100B500090E080EC6FE7F7C02296F501D183C08367
:100B6000F6CF8824992440E050E060E070E0EF2D5B
:100B7000E053EA30A0F5F2E0EF2A8E2D90E09C01E0
:100B800028703070E2FE06C0232B79F50894811C92
:100B9000911C2BC0232B19F0089481089108DB01CC
:100BA000CA0112E0880F991FAA1FBB1F1A95D1F71F
:100BB000480F591F6A1F7B1F440F551F661F771F61
:100BC0004E0F511D611D711D483929E9520729E950
:100BD000620729E1720748F084E0E82A06C0EE3F88
:100BE00031F4E3FC39C098E0E92AF990C0CFE5334D
:100BF00011F0E53189F529912D3219F4E0E1EE2A61
:100C000005C02B3219F081E090E003C0299182E009
:100C100090E0E22FE053EA3018F0C81BD90B1CC05B
:100C200020E030E0FCE020383F075CF4C901880F89
:100C3000991F880F991F280F391F220F331F2E0F5E
:100C4000311DE991E053EA3068F3E4FE03C03095CA
:100C500021953F4F820E931ECE2CDD24E1FE07C06E
:100C6000A114B10421F02197F501D183C083CB01F8
:100C7000BA010E945C2E7B018C01F3E0CF22DD24BF
:100C800023E0C216D10421F417FB109517F9109533
:100C900057016801C801B70120E030E040E050E0B2
:100CA0000E94BF2D882309F44AC097FE0DC029EA8F
:100CB000E22E24E0F22E9094819491089394C0E265
:100CC000D0E000E010E012C091ECE92E94E0F92EA3
:100CD000F6CFF7012591359145915491C601B501A3
:100CE0000E94572F5B016C018C1A9D0A8C169D0681
:100CF00084F7D595C7950F5F1F4F0630110529F072
:100D00008CEF9FEFE80EF91EF1CFC501D6017C01F3
:100D10008D018C2D880F8D2D881F8F3F51F0C601BE
:100D2000B50120E030E040E050E00E94BF2D882374
:100D300031F482E290E09093E7038093E6037E2D06
:100D40009F2D802F612F272F392F482F562FB90124
:100D5000CA01CDB7DEB7ECE00C94B530FB01DC0185
:100D60004150504088F08D9181341CF08B350CF44B
:100D7000805E659161341CF06B350CF4605E861BFF
:100D8000611171F3990B0895881BFCCFFC0105904C
:100D9000615070400110D8F7809590958E0F9F1F7D
:100DA0000895FC016150704001900110D8F78095C2
:100DB00090958E0F9F1F08950F931F93CF93DF93EE
:100DC0008C01EB018B8181FF1BC082FF0DC02E8146
:100DD0003F818C819D812817390764F4E881F9816E
:100DE0000193F983E88306C0E885F985802F09958A
:100DF000892B31F48E819F8101969F838E8302C05F
:100E00000FEF1FEFC801DF91CF911F910F91089550
:100E1000FA01AA27283051F1203181F1E8946F932B
:100E20006E7F6E5F7F4F8F4F9F4FAF4FB1E03ED0D1
:100E3000B4E03CD0670F781F891F9A1FA11D680F6F
:100E4000791F8A1F911DA11D6A0F711D811D911DA2
:100E5000A11D20D009F468943F912AE0269F112417
:100E60003019305D3193DEF6CF010895462F47707B
:100E7000405D4193B3E00FD0C9F7F6CF462F4F70D6
:100E8000405D4A3318F0495D31FD4052419302D034
:100E9000A9F7EACFB4E0A6959795879577956795DA
:100EA000BA95C9F700976105710508959B01AC01DA
:100EB0000A2E06945795479537952795BA95C9F701
:100EC000620F731F841F951FA01D0895FC01808170
:100ED00091811816190674F4861797071CF481E09F
:100EE000868308C0681779072CF48681882311F05F
:100EF00081E08483228133811216130684F4C901B0
:100F00000197681779071CF481E0878308C062178E
:100F100073072CF08781882311F081E0858380910D
:100F20008A0190918B01892B11F01582148208950A
:100F3000A62FB0E0FC01EA0FFB1F168214824115B8
:100F4000510531F0AA0FBB1FA80FB91F4D935C9339
:100F50000895FC01608380E090E0A0ECBFE7868B01
:100F6000978BA08FB18F828F938FA48FB58F0895A9
:100F7000FC01648313821282118280E090E0A0EC75
:100F8000BFE7868B978BA08FB18F828F938FA48FB3
:100F9000B58F0895FC016115710519F41382128251
:100FA0000EC08181882319F47383628308C0828113
:100FB0009381009721F0860F971F9383828381810D
:100FC0008F5F81830895EF92FF920F931F93CF93CA
:100FD000DF93EC017A018B01CB01BA0120E030E014
:100FE00040EA51EC0E94BF2D181654F4C801B70115
:100FF00020E030E04AEF53E40E940E2F18164CF424
:1010000080E090E0A0ECBFE78E8B9F8BA88FB98F1C
:101010002FC080916701863499F4C801B70126E694
:1010200036E646EE5FE30E94572F20E030E040E0D6
:1010300052E40E945B2D6E8B7F8B888F998F04C04A
:10104000EE8AFF8A088F198F6D81772767FD70956B
:10105000872F972F0E945E2E9B01AC016E897F899E
:10106000888D998D0E945B2D6E8B7F8B888F998FD9
:10107000DF91CF911F910F91FF90EF900895109203
:10108000800082E08093810084E080936F00089567
:10109000DC0120E09796ED91FC919897848186176A
:1010A00009F421E09996ED91FC919A978481861735
:1010B00009F42F5F9B96ED91FC919C978481861794
:1010C00009F42F5F9D96ED91FC919E978481861780
:1010D00009F42F5F822F90E00895FC0186A182FF22
:1010E00006C08281843618F460E0862F089592A1AC
:1010F0008281989FC001112464E670E00E941E3036
:10110000F4CF1F93CF93DF93EC01E9A5FAA52689CD
:101110003789408D518DCA01B9010E94BA2F8823A9
:10112000C9F0EBA5FCA526893789408D518DCA01F0
:10113000B9010E94BA2F882369F0EDA5FEA5268982
:101140003789408D518D10E0CA01B9010E94BA2F34
:10115000882309F411E0812FDF91CF911F91089529
:10116000FC0185859685EC5BFF4F91838083E45479
:10117000F04017820895FC017187608717821286FC
:1011800080E090E0A0E0B0E0878B908FA18FB28FDD
:10119000EC5BFF4F118210820895FC0181E0828791
:1011A00077FF02C060E005C06536710514F064E6A3
:1011B00070E062830895FC01CB016E31710510F47B
:1011C0008EE190E0968785870895CF93DF93EC01B9
:1011D000E62FF0E03C96EE0FFF1FEE0FFF1FE80F2B
:1011E000F91F2083318342835383623041F480E0CE
:1011F00090E0A0E0B0E08F8B988FA98FBA8FDF913D
:10120000CF910895FC01633449F064341CF46134D7
:1012100031F404C0663411F0623509F461A3089515
:101220001F93182F80910603882351F481E0809347
:101230000603109207038FEA93E064E20E94F92705
:10124000809107038127809307038FEA93E0612F42
:101250000E94F9271F910895EF92FF920F931F9319
:10126000CF93DF938C01FC01E7A0F0A4F70126895E
:101270003789408D518DCA01B9010E94BA2F882348
:1012800009F055C0C2ECD0E0FE012196849188237C
:1012900019F00E941009F8CFE80110E04F85588935
:1012A00069897A8982E093E022E030E00E94AD2AE9
:1012B0008CE20E9410091F5F2496143079F7F70121
:1012C00066897789808D918D228D338D448D558DE2
:1012D0000E945A2DAB01BC0182E093E022E030E095
:1012E0000E94AD2A8FEA93E06AE20E94F92760919A
:1012F000070362956F706A3010F4605D01C0695C2D
:101300008FEA93E00E94F927609107036F706A30BB
:1013100010F4605D01C0695C8FEA93E00E94F927D8
:101320008FEA93E06AE00E94F92710920603DF91AA
:10133000CF911F910F91FF90EF900895BF92CF92A0
:10134000DF92EF92FF920F931F93CF93DF93EC0105
:101350006885798582E093E04AE050E00E94B329F5
:101360008CE20E941009E7E2CE2ED12CCC0EDD1EBD
:10137000BB24D601ED91FC91E688F788008D118D94
:10138000C801B701A80197010E94BA2F882349F428
:1013900082E093E0B801A70121E030E00E94AD2A8D
:1013A00003C085E50E9410098CE20E941009B394E5
:1013B00082E090E0C80ED91E94E0B916D1F682E022
:1013C00093E06A814AE050E00E9461298CE20E9429
:1013D0001009C05CDF4F69917991899199910E94C0
:1013E0002B2E9B01AC0182E093E0B9014AE050E072
:1013F0000E94B3298CE20E9410096881798182E001
:1014000093E04AE050E00E945029DF91CF911F9174
:101410000F91FF90EF90DF90CF90BF900895FC0167
:10142000842F6083418390E8938796E491A3E05CE6
:10143000FF4F20E030E040EC5FE7208331834283C0
:10144000538361E00E94AC250895AF92BF92CF9282
:10145000DF92EF92FF920F931F93CF93DF93EC01F4
:101460006981662309F489C08A819B8170E00E94AA
:101470001E301982D090670121E4D21649F480E031
:1014800090E00E945C2E6E8B7F8B888F998FF4C0CA
:101490006115710509F469C080E090E00E945C2E3E
:1014A0009B01AC0160E078EF8FEF95E40E94C32DC3
:1014B00020E030E040E85FE30E945A2D9B01AC0140
:1014C0006A897B898C899D890E94C32D7B018C014F
:1014D000F80182E5D81609F096C080916D019091CF
:1014E0006E01C817D90709F48EC0C701D8018E8BC9
:1014F0009F8BA88FB98FC0C0C801B70120E030E032
:101500004AEF53E40E940E2F18167CF126E4D216FF
:1015100099F4C801B70126E636E646EE5FE30E947D
:10152000572F20E030E040E052E40E945B2D6E8BAC
:101530007F8B888F998F04C0EE8AFF8A088F198F5E
:101540006D81772767FD7095872F972F0E945E2EFC
:101550009B01AC016E897F89888D998D0E945B2DDE
:101560006E8B7F8B888F998F08C080E090E0A0EC15
:10157000BFE78E8B9F8BA88FB98FEE88FF88088D71
:10158000198DC801B701A80197010E94BA2F8823BD
:10159000A9F5AA8CBB8CCC8CDD8CC601B501A6014B
:1015A00095010E94BA2F882329F0EA8EFB8E0C8FBA
:1015B0001D8F16C0C801B701A60195010E945A2DC2
:1015C0002AE83BE446E05DE30E94572F9B01AC0113
:1015D000C601B5010E945B2D6A8F7B8F8C8F9D8F1A
:1015E0006E897F89888D998D0E942B2E9B01AC017D
:1015F0006E96CE01B9010E9466073EC01CA21AA2D7
:101600001DA21BA239C0CF010E94172F7B018C01A4
:101610002E853F85488959890E94572FA801970137
:101620000E94572F2A853B854C855D850E945B2D46
:10163000A80197010E94572F2E813F814885598527
:101640000E945B2D9B01AC0160E070E080E89FE3AD
:101650000E94C32D23E333E948E853E40E945A2D46
:101660007B018C0120E030E040EA51EC0E94BF2D6C
:1016700018160CF07ACF40CFDF91CF911F910F91C8
:10168000FF90EF90DF90CF90BF90AF900895FF92C2
:101690000F931F93CF93DF93EC0100E010E0A0E4E1
:1016A000FA2E88810E942A259C0101978E5F934023
:1016B00068F4020F131FFA94A1F79801F3E036952E
:1016C0002795FA95E1F72115310519F41B821A8245
:1016D0000BC08981882331F08A819B81009721F09A
:1016E000280F391F3B832A8389818F5F8983DF918C
:1016F000CF911F910F91FF9008958F929F92AF927B
:10170000BF92CF92DF92EF92FF920F931F93CF93EE
:10171000DF93EC010E94D7249B01AC018B819C815B
:10172000B901681B790B6D37710508F4C0C12B83B3
:101730003C834D835E8317E2C12ED12CCC0EDD1E7F
:101740008601FF24D801ED91FC918481813019F448
:10175000CF010E94470BF3940E5F1F4FB4E0FB16BE
:1017600089F78B858F5F8B87883008F4A0C110E0E4
:10177000F601819191916F010E94250A1F5F14303B
:10178000B9F78A85882309F001C19A801A82EFA1EE
:10179000F8A5A688B788C08CD18CC601B501A60172
:1017A00095010E94BA2F882309F08CC0CC5BDF4FD3
:1017B00088819981C454D040892B09F083C0688501
:1017C0007985882777FD8095982F0E945E2EA60147
:1017D00095010E945A2D7B018C016CA97DA98EA9CF
:1017E0009FA9A80197010E94572F6B8B7C8B8D8B33
:1017F0009E8BC801B70120E030E040E050E00E943D
:101800000E2F18161CF4F3E6F91560F4C801B701A1
:1018100020E030E040E050E00E94BF2D8823B4F487
:101820009920A1F0C801B70128AD39AD4AAD5BAD33
:101830000E94572F9B01AC016F89788D898D9A8DFD
:101840000E945B2D6F8B788F898F9A8FEFA1F8A5FF
:10185000628D738D848D958DA60195010E945A2D00
:101860009B01AC016CAD7DAD8EAD9FAD0E94572F3D
:101870007B018C016B8F7C8F8D8F9E8F68A979A9DE
:101880008AA99BA96F87788B898B9A8B2B893C8936
:101890004D895E890E945B2D2F89388D498D5A8D27
:1018A0000E945B2DA80197010E945B2D0E942B2EA8
:1018B00077FF02C060E005C06536710514F064E68C
:1018C00070E06A83EFA1F8A566897789808D918D94
:1018D0000E942B2EAB01688579854617570704F1C6
:1018E0008D859E85CC5BDF4F28813981C454D040E3
:1018F000821B930B4F97A0F08F81882351F481E0D6
:101900008F8380E090E0A0E0B0E08F8B988FA98F6C
:10191000BA8FCC5BDF4F19821882C454D04036C0D6
:101920008E010C5B1F4FD8018D919C9111970097F0
:1019300021F001978D939C9329C08F81882331F1E9
:101940009B01241B350B84E690E0FC012E9FC00117
:101950002F9F900D3E9F900D11240E9432308FA535
:1019600090E06817790794F0FE01E05CFF4F60811A
:101970007181828193810E942B2E6A35710534F426
:101980008D859E85D8018D939C931F826A8170E01E
:1019900080E090E00E945C2E5B016C01B0E48B2E35
:1019A000912C8C0E9D1EF401E080F1800281138148
:1019B000C801B701A80197010E94BA2F882339F006
:1019C000D401AD92BD92CD92DC92139717C0C6019F
:1019D000B501A80197010E945A2D21E837EF47E091
:1019E0005CE30E94572F9B01AC01C801B7010E9424
:1019F0005B2DF4016083718382839383CE010E9407
:101A00006D08982F2BA1821710F01C8616C03C85FC
:101A10008AE0989FC0011124622F70E00E941E305E
:101A2000832F90E08617970708F020E0832F8F5FC1
:101A30008C878A3008F01C86922F8EA180FF03C00D
:101A40008AA1891B982F8FEF989FC001112464E60B
:101A500070E00E941E3088810E944C258EA183FF79
:101A600034C08A81882389F144E68EA181FF03C0B6
:101A700084E6841B482F2DA150E08CA190E0821BAE
:101A80009109BC01469FC001479F900D569F900D44
:101A9000112464E670E00E941E30260F84E1289F26
:101AA0009001112438A32F8F1B8681E001C080E0B4
:101AB000DF91CF911F910F91FF90EF90DF90CF902A
:101AC000BF90AF909F908F9008954A81CECFCF93D3
:101AD000DF93FC01DB011D968C911D9784831E967C
:101AE0008C911E9785839F012A5F3F4FAB014B5E10
:101AF0005F4F80E1EA010990AE01E90109929E0180
:101B00008150C1F71F968D919C91509714A212A2FB
:101B1000009711F0978F868F51966D917C91529717
:101B200015A213A26115710511F071A360A3DF91D5
:101B3000CF9108951F920F920FB60F9211242F93F9
:101B40003F934F935F936F937F938F939F93AF9345
:101B5000BF93EF93FF938091840090918500805410
:101B60009C4960F48091470160E00E94EB2580E48D
:101B70009CE990938B0080938A0011C0809147016B
:101B800061E00E94EB258091650190916601909340
:101B90008B0080938A001092850010928400FF9140
:101BA000EF91BF91AF919F918F917F916F915F91D5
:101BB0004F913F912F910F900FBE0F901F9018954E
:101BC0000E94EF240E94A5150E94D318FDCF9C010E
:101BD000F999FECF32BD21BDF89A80B508959C01D8
:101BE000F999FECF1FBA32BD21BD60BD0FB6F89482
:101BF000FA9AF99A0FBE0895982F8430D8F4E82FF6
:101C0000F0E0EE0FFF1FEA5BFE4F07A0F0A5E02D0E
:101C10006583F999FECF1FBA85E2989FC001112410
:101C2000825B90E092BD81BD60BD0FB6F894FA9AD8
:101C3000F99A0FBE08958230F1F0833030F4882392
:101C400051F0813009F03EC00EC08330E1F08430A5
:101C500009F038C028C060936901F999FECF1FBA16
:101C60008EE190E017C060936801F999FECF1FBA2A
:101C70008FE190E00FC060936B01F999FECF1FBA1E
:101C800087E290E007C060936A01F999FECF1FBA1E
:101C900088E290E092BD81BD60BD0FB6F894FA9ADB
:101CA000F99A0FBE089560936C01F999FECF1FBA9F
:101CB00080E290E092BD81BD60BD0FB6F894FA9AC3
:101CC000F99A0FBE0895882311F46093B60208951F
:101CD00089E991E065E00E94A9078FEB91E064E05B
:101CE0000E94A90785EE91E063E00E94A9078BE0BE
:101CF00092E062E00E94A90786E491E063E048E098
:101D00000E940F0A8CE891E064E042E00E940D22FC
:101D100080EB9EE0909337028093360280E88093B8
:101D20003802EBE3F2E08FEF8083399692E0EF35F3
:101D3000F907D1F781EA9EE09093710280937002D7
:101D40000895282F462F882321F489E00E94EB254F
:101D5000089521508CE891E0622F0E94BD200895E3
:101D6000BF92CF92DF92EF92FF920F931F93CF9388
:101D7000DF936C01B62E0DE611E022E7E22E22E0A1
:101D8000F22EF801C081D1818C81823071F5F7018A
:101D900090819F3721F0F6018281981731F5F4E0A8
:101DA000BF1621F4CE0160E070E01DC0F60187810E
:101DB0002081318182FF13C0B901882777FD80958A
:101DC000982F0E945E2E20E030E040E251E40E9415
:101DD000C32DAB01BC01CE010E94E30706C0220F58
:101DE000331FCE01B9010E94CA070E5F1F4F08942E
:101DF000E11CF11CF1E005371F0719F685E0B82258
:101E000021F081E392E00E94241FDF91CF911F9186
:101E10000F91FF90EF90DF90CF90BF900895EF92D9
:101E2000FF921F93CF93DF93EC017B0110E013C06F
:101E30008C3219F41F5F21960EC0CE010E949B02C6
:101E4000BC01812FF701099501C021968881882363
:101E500011F08C32D1F78881882351F7DF91CF912F
:101E60001F91FF90EF900895CF93DF93EC01FE0157
:101E700021968491882319F00E941009F8CFDF91F0
:101E8000CF9108958CE20E94100908958FEA93E0A3
:101E90006AE20E94F9276091070362956F706A30C9
:101EA00010F4605D01C0695C8FEA93E00E94F9273D
:101EB000609107036F706A3010F4605D01C0695C67
:101EC0008FEA93E00E94F9278FEA93E06AE00E948C
:101ED000F9271092060308950F931F938CE291E067
:101EE0000E94340F02E013E0C801609175014AE0DE
:101EF00050E00E9461290E94420F6091530170914D
:101F00005401C8014AE050E00E9450290E94460F47
:101F10001F910F9108950F931F93CF93DF938CE33D
:101F200091E00E94340FCDE6D1E002E712E00E947A
:101F3000420FE881F9818481823041F482E093E0AC
:101F4000F80160814AE050E00E94612922960F5F0B
:101F50001F4FF1E0C537DF0751F70E94460FDF91B1
:101F6000CF911F910F9108950F931F938CE491E0EF
:101F70000E94340F02E013E0C801609169014AE059
:101F800050E00E9461290E94420FC80160916801DF
:101F90004AE050E00E9461290E94420FC80160910E
:101FA0006B014AE050E00E9461290E94420FC80183
:101FB00060916A014AE050E00E9461290E94420F4C
:101FC000C80160916C014AE050E00E9461290E94C2
:101FD000460F1F910F910895282F80936801F9995A
:101FE000FECF1FBA8FE190E092BD81BD20BD0FB63C
:101FF000F894FA9AF99A0FBE0E94B40F0895CF93FD
:10200000DF9383E192E00E94340F82E093E06091DD
:1020100098014AE050E00E9461290E94420F82E04C
:1020200093E06091BE024AE050E00E946129CEE553
:10203000D2E00E94420F82E093E068814AE050E0E3
:102040000E946129239682E0CA36D80791F70E9440
:10205000460FDF91CF910895CF93DF9382E391E014
:102060000E94340FCDE6D1E00E94420FE991F99130
:102070006581772767FD709582E093E04AE050E044
:102080000E94B32981E0C537D80771F70E94460F37
:10209000DF91CF910895982F8430D8F4E82FF0E0A5
:1020A000EE0FFF1FEA5BFE4F07A0F0A5E02D658352
:1020B000F999FECF1FBA85E2989FC0011124825B77
:1020C00090E092BD81BD60BD0FB6F894FA9AF99A7E
:1020D0000FBE0E942C1008950F931F93CF93DF9390
:1020E00087E491E00E94340F0DE611E0F801C08111
:1020F000D1810E94420F6E8D7F8D82E093E04AE095
:1021000050E00E94B3298AA1882319F08CE40E9430
:1021100010090E94420F68A179A182E093E04AE091
:1021200050E00E94B3298BA1882319F088E40E9413
:1021300010090E5F1F4FF1E005371F07B9F60E9427
:10214000460FDF91CF911F910F910895CF93DF93A9
:1021500087E391E00E94340FC6E7D1E00E94420F6E
:10216000499159916991799182E093E028E030E0BA
:102170000E94AD2A81E0C638D80781F70E94460F39
:10218000DF91CF9108959F92AF92BF92CF92DF924D
:10219000EF92FF920F931F93CF93DF93182F81E459
:1021A00091E00E94340F82E093E0612F4AE050E01A
:1021B0000E9461290E94420FE12FF0E0EE0FFF1F05
:1021C000EA5BFE4FA7A0B0A4E501CC24EE80FF801F
:1021D000088519859924C801B70120E030E040E066
:1021E00050E00E94BF2D882334F49924939417FB68
:1021F000109517F91095DD240BC0DA94C801B701CA
:1022000020E030E040E251E40E94572F7B018C0136
:10221000C801B70120E030E040E85FE30E94BF2D35
:1022200087FDEBCF0BC0D394C801B70120E030E0AD
:1022300040E251E40E94C32D7B018C01C801B7012B
:1022400020E030E040E251E40E940E2F87FFEBCF08
:10225000992021F017FB109517F9109582E093E073
:10226000B801A70127E030E00E94AD2A85E60E9470
:1022700010096D2D772767FD709582E093E04AE0A5
:1022800050E00E94B3290E94420FC394249684E038
:10229000C81609F09BCF82E093E0F50164814AE023
:1022A00050E00E9461290E94460FDF91CF911F915B
:1022B0000F91FF90EF90DF90CF90BF90AF909F90E5
:1022C000089586E491E062E00E944808892B29F095
:1022D00081E392E063E00E94911F0895E82FF0E00F
:1022E000EE58FD4F6083F999FECF1FBA90E04996F2
:1022F00092BD81BD60BD0FB6F894FA9AF99A0FBEEF
:102300000E948B0F0E946111089582E591E00E9466
:10231000340F82E093E062E40E94B9280E94460FE5
:1023200008950F931F93DF93CF9300D0CDB7DEB7FF
:10233000AB017A836983082F0695182F1170E02F5F
:10234000F0E0EE0FFF1FEA5BFE4F87A190A54E96CF
:10235000612F0E9498070430B0F489819A81892BFB
:1023600091F0110F85E2089FC0011124180F812FF1
:10237000815B90E0BE016F5F7F4F42E050E02FEE47
:102380003DE00E9407030F900F90CF91DF911F91C6
:102390000F9108958091B80260E070E00E94911161
:1023A0000E946C10089581E791E00E94340F86E44A
:1023B00091E00E949E090E94460F0895843070F4B7
:1023C00065E2869FB0011124605C81EC92E070E0D0
:1023D0004DE050E027EE3DE00E94EB0208951F9390
:1023E0008CE691E00E94340F10E0812F0E94DE11F4
:1023F0000E94420F82E093E061EC72E00E94C629E5
:102400001F5F143091F70E94460F1F910895982F77
:10241000843060F485E2989FC0011124805C90E0D4
:102420004DE050E02FEE3DE00E9407030E94EF11C7
:102430000895CF93DF93EC011816190674F482E027
:1024400090E0BE014FEE5DE00E94230386E491E040
:10245000BE010E94BB0820E009C066277727681BE1
:10246000790B86E491E00E94CD0821E0F999FECF36
:102470001FBA87E190E092BD81BD20BD0FB6F894F0
:10248000FA9AF99A0FBEDF91CF9108958F929F9299
:10249000AF92BF92CF92DF92EF92FF920F931F9372
:1024A000CF93DF93EC01FC0101900020E9F7319715
:1024B0001E2F181B64E271E047E050E00E94C20248
:1024C000892B11F5CE0107960E949B020E941912DA
:1024D000C10FD11D2197088186E491E0602F0E94F1
:1024E0000209033419F0063409F0C9C1F999FECF85
:1024F0001FBA8DE190E092BD81BD00BD0FB6F8948A
:10250000FA9AF99A0FBEBBC1CE016CE171E047E0C7
:1025100050E00E94C202892B49F4CE01079661E97E
:1025200079E10E940F0F0E94FF0FA9C1CE0164E163
:1025300071E047E050E00E94C202892B49F4CE01CD
:1025400007966CE474E10E940F0F0E946C0F97C114
:10255000CE016CE071E047E050E00E94C202892B9E
:1025600049F4CE0107966CEF7DE00E940F0F0E94A8
:102570002C1085C1CE0164E071E047E050E00E947C
:10258000C202892B09F05CC11A3008F459C1CE018E
:1025900009960E9497029B01AC016F81643679F025
:1025A00065361CF4623609F506C0693631F06037CD
:1025B000E1F401E005C000E003C002E001C003E077
:1025C00086E491E0602F0E94E508802F90E0880F5C
:1025D000991F880F991FBC016A587E4F079644E0E7
:1025E00050E02FEE3DE00E9407030E94A61047C175
:1025F000193008F42FC18E8128968053BE010E94A5
:1026000007123DC1193008F42FC1AE8080EDA80E2D
:1026100093E09A1508F433C1289685E2A89EB02C61
:102620001124B5E58B2E8B0C9924CA2CDD24CC0CFF
:10263000DD1CEDE6F1E0CE0EDF1E31C0F3E0F91552
:1026400090F18C3229F49394219684E0880E27C06F
:10265000F601E080F180092D10E0CE010E94970282
:10266000000F111F000F111FF701E00FF11F66830C
:102670007783808791870A5F1F4FE00EF11E882DB8
:1026800090E0B70144E050E02FEE3DE00E940703E8
:1026900001C021968881882311F08C32D1F788817E
:1026A000882361F656C0CE010E949B02082FAA2DF6
:1026B000B0E087FD24C0AA0FBB1FAA5BBE4F979650
:1026C000ED91FC9198971481181709F442C0CF013D
:1026D000602F0E94B807F999FECF1FBAFDE4BF0E24
:1026E0008B2D90E092BD81BD00BD0FB6F894FA9A93
:1026F000F99A0FBE123069F58A2D6FE728C0182F9E
:102700001058FD01EE0FFF1FEA5BFE4F07A0F0A57A
:10271000E02D8481823029F4AE58BD4F8C91811711
:10272000A1F0CF0162E00E94B807F999FECF1FBA6D
:102730008DE4B80E8B2D90E092BD81BD82E080BD0E
:102740000FB6F894FA9AF99A0FBE8A2D612F0E945B
:102750006E118A2D0E94C31092C0CE01079661E9C6
:1027600071E10E940F0F0E946C1089C0CE0166EECD
:1027700070E047E050E00E94C202892B49F4CE018C
:1027800007966BE17EE00E940F0F0E94B40F77C0A6
:10279000CE016EED70E047E050E00E94C202892B4E
:1027A00039F4279682ED92E0BE010E94DD1C67C0DD
:1027B000CE0166ED70E047E050E00E94C202892B36
:1027C00039F4CE01079663E67EE00E940F0F57C0F2
:1027D000CE016FEC70E046E050E00E94C202892B0F
:1027E000D1F40E9485110E94A6100E94B40F0E948D
:1027F000EF1100E0802F0E94C3100F5F0430D1F76B
:102800000E942C100E946C0F0E94FF0F0E946C10FF
:102810000E948B0F34C0CE0168EC70E045E050E0C0
:102820000E94C202892B59F587E060E00E94EB25E7
:10283000F89488E18093600089E080936000FFCF86
:10284000CE016DEF70E046E050E00E94C202892B9D
:1028500009F4CECECE0166EF70E046E050E00E9473
:10286000C202892B09F4CECECE016EEE70E047E0B5
:1028700050E00E94C202892B09F078CF6ECFDF9121
:10288000CF911F910F91FF90EF90DF90CF90BF906D
:10289000AF909F908F900895CF93DF93482FEB01D7
:1028A00077FF02C0C0E0D0E04130B1F0413018F015
:1028B000423051F51EC02C2FC0937501F999FECFFF
:1028C0001FBA84E090E092BD81BD20BD0FB6F894A0
:1028D000FA9AF99A0FBE18C086E491E0BE010E94F0
:1028E000DB0885E090E0BE014FEE5DE00E9423032F
:1028F0000BC0CD2B29F086E491E00E94B00804C003
:1029000010928B0110928A01DF91CF910895CF939D
:10291000DF93EC01662321F08CE891E00E94AD2169
:10292000FE0121966491662329F08CE891E00E94D3
:102930003B21F6CFDF91CF910895982F87FD02C0FC
:10294000809398019F778FEF989FC001112464E6D0
:1029500070E00E941E3085E00E944C250895AF92E1
:10296000BF92CF92DF92EF92FF920F931F93DF936C
:10297000CF93CDB7DEB7C255D0400FB6F894DEBFC7
:102980000FBECDBFC82ECE01019660E070E049E2D7
:1029900050E027EE3DE00E94EB02CC2029F4898133
:1029A0009A818E50904F99F08E010F5F1F4FC80192
:1029B00065EC71E049E250E00E94B90280E090E0ED
:1029C000B80149E250E02FEE3DE00E9407036B8121
:1029D0007C8186E491E00E94BB088D818093750123
:1029E0006E817F8186E491E00E94DB08A6E7B1E07A
:1029F000FE01389680E101900D928150E1F7888DBB
:102A0000882331F086E491E060E070E00E94CD0818
:102A1000898D0E949D148A8D9B8DAC8DBD8D809378
:102A2000720290937302A0937402B09375028E8D1C
:102A3000833411F066E401C063E486E491E00E940F
:102A400002098F8D8093690188A18093680189A113
:102A500080936C018AA18093BE0288A580936B014C
:102A600089A580936A0134E2E32EF12CEC0EFD1E61
:102A700000E08EE592E0602FF70141917F010E9416
:102A80007C1D0F5F0430A9F7CE018A966EE370E0DB
:102A900042E050E027EE3DE00E94EB028AA59BA5B4
:102AA0008E50904F51F08EE390E06EE070EF4FEE5D
:102AB0005DE00E942303CC24C3942DE6A22E21E0E6
:102AC000B22E00E410E090E3D92E8AE2E82EF12C39
:102AD000EC0EFD1ECC2089F0C7016EEE71E045E2E0
:102AE00050E00E94B902D8AAC801B70145E250E0FF
:102AF0002FEE3DE00E94070308C0C701B80145E280
:102B000050E027EE3DE00E94EB02F50181919191AA
:102B10005F01B7010E94670DD394F4E3DF1619F04B
:102B20000B5D1F4FD7CFCE5ADF4F0FB6F894DEBFE5
:102B30000FBECDBFCF91DF911F910F91FF90EF900E
:102B4000DF90CF90BF90AF9008951F93CF93DF9306
:102B500089E061E00E94AC258EE592E060E042E011
:102B60000E94431D8EE592E00E94921D8FEA93E041
:102B700040E056E960E070E00E9408278FEA93E0A9
:102B80006AE00E94F9270E94851180E880BF8FE3E8
:102B900080937E008091640080688093640087E069
:102BA00061E00E94EB2587E061E00E94AC2589E9A5
:102BB00091E090936E0180936D018FEB91E0909383
:102BC000700180936F0185EE91E090937201809384
:102BD00071018BE092E0909374018093730186E41D
:102BE00091E00E943F0880E00E94AF14CDE7D1E061
:102BF00010E08CE891E0612FAE010E9403211F5F7D
:102C000028961830B1F70E94611182ED92E065E0DC
:102C10000E94FB1DDF91CF911F910895882381F0C1
:102C20008091B9028F3FB1F41092BA021092BB02A8
:102C30001092BC021092BD0285E08093B902089503
:102C40008FEF8093B90286E00E94D12A809198018B
:102C50000E949D1408954F925F926F927F929F926F
:102C6000AF92BF92CF92DF92EF92FF920F931F939A
:102C7000DF93CF93CDB7DEB761970FB6F894DEBF81
:102C80000FBECDBFD090DA028D2D8250853008F076
:102C9000DEC18CE891E060E040E00E94282186E0FF
:102CA000D81699F481E00E940E168091B80280FD3A
:102CB00003C08CE692E002C08BE592E060E00E94E7
:102CC0008714D090B802D6943AC180E00E940E16C4
:102CD000E091BE02E43008F095C0F0E0EE0FFF1F77
:102CE000EA5BFE4F07A0F0A5E02DE688F788008D8F
:102CF000118DC801B701A80197010E94BA2F88233E
:102D000009F080C0C801B70120E030E040E251E4A2
:102D10000E94572F0E942B2E77FF07C0CC24DD2462
:102D2000C61AD70AEE24E39402C06B01EE24A0E198
:102D3000FA2EC114D10419F498E09F1584F5C60148
:102D40006AE070E00E941E308C01000F111F080F16
:102D5000191F000F111F03581D4FADEFFA0E8CE81D
:102D600091E06F2D40E00E9428218CE891E0B801AD
:102D700043E00E94DC208CE891E06F2D41E00E944E
:102D800028210D5F1F4F8CE891E0B80143E00E94BD
:102D9000DC20C6016AE070E00E941E306B01FA94EC
:102DA0008CE891E06F2D40E00E9428218CE891E0B2
:102DB00060E20E943B218CE891E06F2D41E00E948F
:102DC0002821BCE0FB1631F48CE891E06EE20E9411
:102DD0003B21AFCFC114D10461F4E8E0EF154CF012
:102DE000EE2039F08CE891E061E00E943B21EE2476
:102DF00005C08CE891E060E20E943B21FF2009F0D1
:102E000098CF25C1E0916D01F0916E0166897789B7
:102E1000808D918D0E942B2E8B0140915001442377
:102E200009F003C1672B09F000C1CE01019669E1E9
:102E300072E041E150E00E94B90271C08DB79EB7C7
:102E40000C970FB6F8949EBF0FBE8DBFEDB7FEB7BF
:102E50003196CE010196ADB7BEB712969C938E9374
:102E6000119781E190E09383828389E492E09583D6
:102E700084831783068380916701992787FD909546
:102E800091878087338722870E944003EDB7FEB782
:102E90003C9640C0442319F42BE53DE502C02EE5E5
:102EA0003EE58DB79EB740970FB6F8949EBF0FBE14
:102EB0008DBFEDB7FEB73196CE010196ADB7BEB767
:102EC00012969C938E93119781E190E09383828375
:102ED00084E392E09583848317830683809167015E
:102EE000992787FD909591878087822F992787FD65
:102EF0009095938782878091480184871586832FD8
:102F0000992787FD9095978786870E944003EDB7A4
:102F1000FEB770960FB6F894FEBF0FBEEDBF8CE8FB
:102F200091E0BE016F5F7F4F0E94C6298091BE0273
:102F30008F3F21F081E073E0D72E02C0DA948D2D0F
:102F4000C82E992493945E010894A11CB11C6AE2D6
:102F5000462E62E0562E51EC652E52E0752E61C071
:102F6000F3E0FC1508F46AC0EC2CFF24EE0CFF1C07
:102F700086E491E0E80EF91ED7019796ED91FC9159
:102F8000989726893789408D518DCA01B9010E94D1
:102F9000BA2F882309F052C08C2D0E94DE11EDB7A4
:102FA000FEB73A970FB6F894FEBF0FBEEDBF0DB750
:102FB0001EB70F5F1F4FB282A18281E190E0D8015E
:102FC00013969C938E93129715965C924E9214973B
:102FD00017967C926E921697D7019796ED91FC9179
:102FE000989766897789808D918D0E942B2EF801A4
:102FF000718760870E9440038DB79EB70A960FB60F
:10300000F8949EBF0FBE8DBF8CE891E060E0492D23
:103010000E9428218CE891E0B5010E94C629C39442
:103020009394DC1408F09CCF12C020918A01309157
:103030008B012115310509F42DCF00CFC50160E2C8
:1030400070E041E150E00E94D902198ADDCF61961B
:103050000FB6F894DEBF0FBECDBFCF91DF911F91A9
:103060000F91FF90EF90DF90CF90BF90AF909F9027
:103070007F906F905F904F9008950F931F93CF9321
:10308000DF930E942B168091B7028F5F8093B70267
:1030900090E08F719070892B21F481E392E00E947F
:1030A000241F0E94D311CDE6D1E000E011E00DC055
:1030B0001093B80201E01F5F8EE592E0612F0E943D
:1030C000431D22961F5F1930A9F0E881F98142A1C2
:1030D000812F8150442319F08093B80201E08EE5DE
:1030E00092E0612F0E94431DE881F98143A14423AE
:1030F000F9F6E1CF8EE592E06EE0402F0E94431D8D
:10310000002331F00E946C1082ED92E066E007C06F
:103110008091DA02863029F482ED92E062E00E942A
:10312000FB1D8091B602882321F086E491E00E9485
:103130002C098EE592E060E040E00E94431D40E0F3
:1031400080918A0190918B01892B09F041E08EE5F5
:1031500092E06AE00E94431D40E0809148018111A5
:1031600041E08EE592E06BE00E94431D40E08091DB
:103170004801843608F041E08EE592E06DE00E945F
:10318000431D8EE592E06CE040914D010E94431D8D
:1031900081E392E0609148010E94011FDF91CF918D
:1031A0001F910F910895DF92EF92FF920F931F935B
:1031B000E6E7F2E001900020E9F73197E657F240A8
:1031C0001E2F21C08FEA93E00E94C0278A3011F0A1
:1031D0008D3059F4112391F0809176028F3269F489
:1031E00087E792E00E94461208C0E12FF0E0EA581B
:1031F000FD4F80831F5F103408F010E0E12FF0E0F6
:10320000EA58FD4F10828FEA93E00E948F27892BA6
:10321000C9F681E392E00E940420882331F08EE514
:1032200092E069E042E00E94431D82ED92E00E943C
:103230003D1E86E491E00E947D0B882311F00E94E0
:103240003D188091B9028F3F09F44EC00E94D724E7
:103250007B018C018091B902682F70E0FB01E95875
:10326000FE4FE4918091BA029091BB02A091BC0202
:10327000B091BD02A8019701281B390B4A0B5B0BCB
:103280008AE0D82EED9DC0011124A0E0B0E08217A5
:103290009307A407B50740F5E092BA02F092BB028B
:1032A0000093BC021093BD02CB01019666E070E072
:1032B0000E941E308093B902E82FF0E080FD0FC01D
:1032C000E958FE4F24912D9D9001112440E050E0DB
:1032D00086E060EA7FE00E94442B80E803C0809192
:1032E000980180680E949D148EE592E00E94921DD4
:1032F0001F910F91FF90EF90DF9008951F93182F6B
:103300000E949D14F999FECF1FBA88E190E092BD0A
:1033100081BD10BD0FB6F894FA9AF99A0FBE1F91AD
:1033200008950F931F93182F062F813051F081308D
:1033300020F0863008F032C01CC0862F0E947E1913
:103340002DC06093BE02F999FECF1FBA81E290E0D2
:1033500092BD81BD00BD0FB6F894FA9AF99A0FBEDE
:103360008091DA028250853020F48CE891E00E944E
:10337000AD2112508EE592E0612F402F0E947C1DFE
:10338000F999FECF1FBA812F90E0839692BD81BD3F
:1033900000BD0FB6F894FA9AF99A0FBE1F910F91DB
:1033A00008958038E1F48CE891E00E94A5218CE832
:1033B00091E061EE72E040E150E00E948F288CE8DD
:1033C00091E060E041E00E9428218CE891E062EF0A
:1033D00072E040E150E00E948F2881E008958091E2
:1033E000DB020895CF93DF93EB01843011F0883036
:1033F00071F420E030E08091BF029091C002892BEF
:1034000011F421E030E03093C0022093BF028CE839
:1034100091E060E041E00E942821209721F0CE0158
:1034200060E00E9487148091BF029091C002892BB6
:1034300019F48AEA93E002C08EEA93E060E00E9409
:103440008714DF91CF910895EF92FF920F931F930E
:10345000DF93CF93CDB7DEB761970FB6F894DEBF99
:103460000FBECDBF7801843039F48091BF029091B6
:10347000C002860F911D08C0883051F48091BF02B0
:103480009091C002861B91099093C0028093BF0265
:103490008091BF029091C0028417950724F4509345
:1034A000C0024093BF028091BF029091C0022817D2
:1034B000390724F43093C0022093BF028CE891E0D6
:1034C00060E041E00E9428218DB79EB70A970FB6B1
:1034D000F8949EBF0FBE8DBFEDB7FEB731968E013B
:1034E0000F5F1F4FADB7BEB712961C930E93119787
:1034F00081E190E093838283F582E4828091BF0230
:103500009091C0029783868380916701992787FDF8
:103510009095918780870E9440038DB79EB70A9649
:103520000FB6F8949EBF0FBE8DBF8CE891E0B80136
:103530000E94C62961960FB6F894DEBF0FBECDBFBC
:10354000CF91DF911F910F91FF90EF9008950F930E
:103550001F93182F803861F480E793E061E00E94A8
:103560008714809198018093BF021092C00211C00D
:10357000803479F42091BF023091C002809198018B
:1035800090E02817390729F0822F0E947E190E94A7
:10359000FF0F812F6AE040E050E024E630E00AE6C9
:1035A00013E00E94241A8091BF0280680E949D143B
:1035B00081E01F910F9108950F931F93182F80386A
:1035C00061F48BE893E061E00E94871480916801C8
:1035D0008093BF021092C0020FC0803469F4209122
:1035E000BF023091C0028091680190E0281739072E
:1035F00019F0822F0E94EC0F812F65E040E050E02F
:1036000024E630E00FE713E00E94241A81E01F91C6
:103610000F9108951F93182F803851F48CE993E08F
:1036200061E00E9487141092C0021092BF020BC08A
:10363000803449F48091BF029091C002892B19F027
:1036400081E00E94AF14812F60E070E00E94F219C7
:1036500081E01F9108950F931F93182F803871F404
:103660008EEB93E061E00E9487148091530190916A
:1036700054019093C0028093BF0209C0803439F492
:103680006091BF027091C00281E00E944C14812FB2
:103690006AE040E050E028EE33E002EB13E00E94E5
:1036A000241A81E01F910F9108950F931F93182FF3
:1036B000803861F48DED93E061E00E948714809181
:1036C00075018093BF021092C00209C0803439F4A2
:1036D0006091BF027091C00280E00E944C14812F63
:1036E00061E040E050E024E630E00DEC13E00E94A1
:1036F000241A81E01F910F9108950F931F93082FB3
:103700001091DA021D508038F9F4812F0E94DE11E9
:103710008CE891E00E94AD218CE891E061EC72E0D0
:103720000E94C629E12FF0E0EE0FFF1FEA5BFE4F7B
:1037300007A0F0A5E02D8581992787FD90959093AE
:10374000C0028093BF0209C0803439F46091BF0287
:103750007091C002812F0E944B10802F61E04CE9D4
:103760005FEF24E630E00DEE13E00E94241A81E0C2
:103770001F910F9108951F93182F803861F48BEFDC
:1037800093E061E00E948714809150018093BF0212
:103790001092C00219C08034B9F420E08091BF02B9
:1037A0009091C002892B09F021E0809150012817E7
:1037B00059F0222319F080E090E004C080914E017E
:1037C00090914F010E941912812F60E070E00E94D9
:1037D000F21981E01F9108950F931F93182F8038DD
:1037E00071F482E194E061E00E94871480914E01BF
:1037F00090914F019093C0028093BF0210C080341B
:1038000071F42091BF023091C00280914E019091DD
:103810004F012817390719F0C9010E941912812F89
:1038200065E040E050E028EE33E00BE014E00E9459
:10383000241A81E01F910F910895803819F40E9495
:103840002B1605C090E08F719070892B11F481E0E8
:1038500008950E94CA1182E00895982F803809F0D7
:1038600040C08091DA02853009F46BC086E491E0B3
:103870000E948108882309F064C085E00895E091E2
:103880006F01F091700126893789408D518DCA01F1
:10389000B9010E94BA2F882309F45EC083E008951D
:1038A000E0917101F091720126893789408D518D27
:1038B000CA01B9010E94BA2F882309F44DC084E0DF
:1038C0000895E0917301F091740126893789408D44
:1038D000518DCA01B9010E94BA2F8823E9F182E013
:1038E0000895809150018823D1F0943011F465E05F
:1038F00007C0983011F46BEF03C0913001F56FEF02
:10390000772767FD709580914801680F711D86E4E7
:1039100091E00E94CD080E942B1680E0089591301E
:1039200071F460E070E080918A0190918B01892BA5
:1039300011F461E070E082E00E944C140DC081E05F
:1039400008958091DA02823009F499CF833009F426
:10395000A7CF843009F4B5CF0E942B1681E00895DB
:1039600082ED92E069EB72E041E053E02BEB3CE149
:103970000E94F31D089580E00E942A259595879561
:1039800095958795982F8823B1F08551873210F44B
:1039900081E00895892F8D53873210F488E00895CF
:1039A000892F8D58833110F484E00895915A97320D
:1039B00010F482E0089580E00895CF92DF92EF92B4
:1039C000FF920F931F93CF93DF936C018B01CB0179
:1039D0006CE270E00E94E002EC013FE0E32EF12C8B
:1039E000EC0CFD1CC70160E270E041E250E00E9477
:1039F000D902209779F4D8010D900020E9F71197AA
:103A0000A01BB10BA132B10510F0A1E2B0E0C701DB
:103A1000B80121C09E01201B310B2131310510F06E
:103A200020E130E0C701B801A9010E94D002DE0107
:103A30000D900020E9F7AC1BBD0B1297A031B1052A
:103A400010F0A0E1B0E09601205E3F4FAE014F5F65
:103A50005F4FC901BA01AD010E94D002F601808515
:103A6000883129F0C60168E10E94FB1D03C080E88F
:103A70000E94D119DF91CF911F910F91FF90EF908C
:103A8000DF90CF900895CF92DF92EF92FF920F9345
:103A90001F93CF93DF937C01042FEC0110E0C62E1F
:103AA000DD248881682F70E0CB018F7790708C15B2
:103AB0009D05A9F409838A81823089F0023079F06A
:103AC000660F672F661F770B6027681741F06A83C0
:103AD000D7015296ED91FC915397812F09951F5F65
:103AE00023961430F1F6DF91CF911F910F91FF9043
:103AF000EF90DF90CF900895DC01862F90E0FC01DD
:103B0000EE0FFF1FE80FF91FEA0FFB1F40838281B2
:103B1000813039F45296ED91FC915397862F60E0F5
:103B200009950895EF92FF920F931F93DF93CF9320
:103B30000F92CDB7DEB78C01DC0151968C918823B2
:103B4000C9F10E94D724F80124853585468557851B
:103B5000621B730B840B950B645F71408040904037
:103B600048F539C0D80150968C9180FF07C0F70105
:103B700081818230B9F48283118208C0D701129604
:103B80008C911297823071F412961C92D801529641
:103B9000ED91FC915397892FD70112966C919983DF
:103BA000099599819F5FE3E0F0E0EE0EFF1E9430EF
:103BB000C9F611C081E0D80151968C930E94D72498
:103BC000F801648775878687978780898F5F808BE8
:103BD000780190E0C7CF0F90CF91DF911F910F91A7
:103BE000FF90EF900895FC017183608353834283BB
:103BF0003783268308951F93CF93DF93EC01162F0D
:103C0000888589872BC08C819D81009751F0FC01AC
:103C10003196259134912115310519F080E4F9018F
:103C200009951887888199819D838C8306C0888532
:103C3000981741F03496FD83EC83EC81FD819491DB
:103C40009923A9F7309779F0319625913491211570
:103C5000310521F080E8F9010995182F123018F08C
:103C60008885181781F60E94D7246B877C878D87FB
:103C70009E87DF91CF911F910895DF92EF92FF927F
:103C80000F931F93CF93DF93EC01EE81FF81099592
:103C9000D82E0E94D7247B018C018B859C85AD8515
:103CA000BE85E81AF90A0A0B1B0BDD20D9F4EC815A
:103CB000FD813097B9F03396649170E080E090E038
:103CC00028EE33E040E050E00E94F32F61157105CB
:103CD0008105910539F06E157F058007910710F475
:103CE00080E2D82E8AEFE816F1040105110508F4E8
:103CF00039C080E2D81621F0DA86DD2009F432C01E
:103D00000E94D7246B877C878D879E878C819D81BD
:103D1000009769F0FC013196259134912115310508
:103D200031F08D2DF9010995682F8130C1F4EA81B8
:103D3000FB812D2D30E00FC0961761F431968491F0
:103D4000319790E0822393238217930719F43296D8
:103D5000649105C0339694916885992369F7CE01E3
:103D60000E94FB1DDF91CF911F910F91FF90EF906B
:103D7000DF900895DF92EF92FF920F931F93CF93FE
:103D8000DF937C01EC0100E010E0DD24DA948A8509
:103D90008F3F49F10E94D7242B853C854D855E8558
:103DA000621B730B840B950B61527F4B82409040DA
:103DB000D0F0D7011596ED91FC911697309769F0E8
:103DC000C80123E0880F991F2A95E1F7800F911F02
:103DD00008968E0D9F1D64E009958A858F3F19F026
:103DE000DA86198618860F5F1F4F29960430110551
:103DF00071F6DF91CF911F910F91FF90EF90DF90BF
:103E00000895DF93CF9300D000D0CDB7DEB7FC018B
:103E10008081882391F084A58F5F84A7853068F026
:103E200014A68FE9898380EC8A836B838FE78C8368
:103E3000CE01019664E00E9475230F900F900F90C1
:103E40000F90CF91DF9108950F931F93CF93DF933E
:103E50008C01FC018081882309F45EC0C3E2D4E0B8
:103E6000FE0121968491882319F00E941009F8CF51
:103E700082E093E0F80167814AE050E00E94612906
:103E8000E80110E08A858F3FF1F08CE20E94100972
:103E900082E093E06A854AE050E00E9461298CE26A
:103EA0000E94100982E093E06F854AE050E00E9492
:103EB00061298CE20E94100982E093E068894AE05F
:103EC00050E00E9461291F5F29961430D9F68FEACD
:103ED00093E06AE20E94F9276091070362956F7090
:103EE0006A3010F4605D01C0695C8FEA93E00E9463
:103EF000F927609107036F706A3010F4605D01C0AC
:103F0000695C8FEA93E00E94F9278FEA93E06AE008
:103F10000E94F92710920603DF91CF911F910F9114
:103F20000895CF93DF93EC018881882329F4862FAD
:103F30000E94A82381E08883DF91CF9108950F9399
:103F40001F93CF93DF938C01EB010E94D724F801DC
:103F50006383748385839683898185FF02C092E0A1
:103F600001C090E08B8187FD91608F778F3709F0DA
:103F70009460F80197830E947123F80180878781FC
:103F80002A8182FF2FC02A3A11F480E038C030E045
:103F9000B9016F70707060597140898190E08F70C5
:103FA000907044E650E0FC01E49FC001E59F900D55
:103FB000F49F900D1124680F791FE4E03595279543
:103FC000EA95E1F7C90153E0880F991F5A95E1F787
:103FD000220F331F820F931F680F791FF80171831F
:103FE00060830CC0898190E08F709070982F882733
:103FF00030E0822B932BF8019183808381E0DF9165
:10400000CF911F910F910895FF920F931F93CF931C
:10401000DF938C01DC018C91882311F4FF247FC095
:10402000FF2475C00E94D724F801618372838383C3
:104030009483809108039781882309F061C09F3F92
:1040400011F09F5F97838091090390E08F709070CB
:10405000880F991F880F991F40910A034295469532
:1040600046954370482BD801F80190E0828584176B
:1040700029F09F5F39969430C9F703C09F3F79F4C8
:1040800044C090E01A968C911A978F3F19F483E000
:10409000F82E07C09F5F19969430A1F736C0B2E0A2
:1040A000FB2E292F30E0F901A3E0EE0FFF1FAA95A8
:1040B000E1F7E20FF31FE00FF11F8285841719F07B
:1040C000428711861086E901F3E0CC0FDD1FFA95D7
:1040D000E1F7C20FD31F2896C00FD11FCE0169E0B0
:1040E00073E00E949F1F882381F0D8011596ED91FF
:1040F000FC911697309749F0CE016F2D099505C0B8
:10410000992319F09150F8019783FF24F3940E94AA
:104110003723882309F086CFC8010E94BA1E8F2D4D
:10412000DF91CF911F910F91FF9008951092050399
:104130001092040384E191E09093030380930203BF
:1041400008951F93CF93DF93EC01162F8C81882362
:1041500041F481E08C831D828FEA93E064E20E9447
:10416000F9278D8181278D838FEA93E0612F0E944B
:10417000F927DF91CF911F910895DC016230D8F4C7
:1041800081E090E002C0880F991F6A95E2F71496CB
:104190002C911497442311F0282B02C080952823DA
:1041A00014962C931497ED91FC9111970084F1854E
:1041B000E02DCD0109950895EF92FF921F93CF93C3
:1041C000DF937C01EB01142F0DC0FE012196449179
:1041D000F701A081B1812D913C91C701642FF901B4
:1041E00009951150112389F7DF91CF911F91FF900D
:1041F000EF900895DC01ED91FC910480F581E02DB4
:1042000040E009950895EF92FF920F931F938C0160
:104210007A016770660F660F660F60640E94FA206D
:10422000C801B70148E00E94DC20C80160E80E9494
:10423000FA201F910F91FF90EF900895FC01668185
:10424000862F846086836C60CF010E94FA200895D7
:10425000DC0118968C911897841710F4482F415060
:10426000E42FF0E0EA5DFE4F8081680F6068CD01C9
:104270000E94FA200895DC01ED91FC910480F58103
:10428000E02D41E0099581E090E008951F93CF93E0
:10429000DF93EC011FB7F8946EBD0DB407FEFDCFA0
:1042A000EA85FB8580819985892B808381E090E078
:1042B0000E94E524EA85FB85908189858095892384
:1042C00080831FBFDF91CF911F910895FC0164810E
:1042D0000E9446210895EF92FF921F937C01162FB2
:1042E0001860612F0E944621177FC701612F0E942D
:1042F00046211F91FF90EF900895607F0E946B21EF
:1043000088E290E00E94E52408950F931F93CF93D5
:10431000DF93EC01062F411144E01C81142B602F28
:10432000607F612BCE010E946B210295007F102BD4
:10433000CE01612F0E946B2188E290E00E94E5246B
:10434000DF91CF911F910F91089562E00E94FA20B2
:1043500080ED97E00E94E524089561E00E94FA2034
:1043600080ED97E00E94E5240895CF93DF93EC0160
:10437000623018F088E0888701C0188688858D83B0
:10438000411184608D8380E090E40E94E52480E008
:1043900090E40E94E52480E090E40E94E524E88116
:1043A000F9810680F781E02DCE0160E3099584E96B
:1043B00091E10E94E524E881F9810680F781E02DF2
:1043C000CE0160E3099586E990E00E94E524E8814A
:1043D000F9810680F781E02DCE0160E30995E8813F
:1043E000F9810680F781E02DCE0160E209956D81AB
:1043F0006062CE010E94FA2084E08E83CE010E948A
:104400001E21CE010E94AD2182E08F83CE0166E0A5
:104410000E94FA20DF91CF910895EF92FF920F93BF
:104420001F938C01F62EE42EDC0113961C921E9233
:1044300012978CE191E08D939C938BE061E00E9458
:10444000AC258DE061E00E94AC258AE061E00E942D
:10445000AC258AE061E00E94EB2581E58CBD8F2DC3
:1044600090E0FC01EF59FB4FE491D8011996EC93D1
:104470001997835B9B4FFC018491E82FF0E0EE0FCE
:10448000FF1FE75CFB4F859194911B969C938E9345
:104490001A978F2D61E00E94AC25C80160E00E9450
:1044A0004621C8016E2D40E00E94B5211F910F9159
:1044B000FF90EF900895282F8CB581608CBD2A98CD
:1044C0009EBD0DB407FEFDCF8EB52EBD0DB407FE0B
:1044D000FDCF4EB5382F20E02A9A8CB58E7F8CBD4B
:1044E00050E0422B532BCA0108950F931F9380E095
:1044F00090E00E945B22192F90931703809118037C
:10450000843009F067C080E090EB0E945B22082FA6
:104510008091190363E00E9412309923A9F4812F3E
:1045200090E081709070E0911603F0E0EE0FFF1FB5
:10453000E80FF91FE65DFE4F80818093160390E03F
:10454000806A94690E945B22809119038823F1F4A8
:10455000802F90E034E0959587953A95E1F70296A3
:10456000959587958093130380911303823020F0F3
:10457000809113038B3018F082E080931303E09155
:104580001403F0911503309709F0099580911903F0
:10459000E82FF0E0E75FFC4F00838F5F8093190303
:1045A00080910803802790E021E387FF03C0880FF4
:1045B000822701C0880F9F5F9830B9F78093080366
:1045C0009091190380911303981709F04DC08DE065
:1045D00092E848C08091180387FF1EC080911303A2
:1045E000E0911803EF5FE0931803E150E80FF0E06B
:1045F000E75FFC4F808120910803282790E031E39A
:1046000027FF03C0220F232701C0220F9F5F98308E
:10461000B9F72093080323C0809118038F5F80931C
:10462000180381508230B1F083301CF4882379F074
:1046300015C0853019F0863089F402C08DE20FC0B4
:104640008091130381958093180384ED08C08091B5
:10465000080305C08DE092E80E945B228AEA90E0A0
:10466000805098440E945B221F910F910895809181
:104670001803843021F59091130380911903981742
:10468000F1F483E08093180381E0089510921903F8
:10469000109208038FEF8093130384E08093180334
:1046A000F89483E08093160383EA94E90E945B22E6
:1046B0008DED92E80E945B22789480E008958091CD
:1046C0001803833019F380E00895F89410920803DA
:1046D00085E0809318038DE392E80E945B22789432
:1046E00008958091160386950895582F792F462FA7
:1046F0006093130329E033E0C901652F50E00E9465
:10470000D0020E94652308952A9A229A8AE061E0E5
:104710000E94EB258AE061E00E94AC258BE061E01D
:104720000E94AC258CE060E00E94AC258DE061E049
:104730000E94AC2580E58CBD8DB581608DBD82E089
:1047400060E00E94AC2582E061E00E94EB250895C4
:104750001F93182F0E94842380E090E00E945B2228
:1047600085E092E80E945B2280E098EB02C080E046
:1047700090E00E945B2282E00E943F26892BB9F3E1
:10478000812F90E054E0880F991F5A95E1F7876CCC
:1047900090680E945B22123019F0133039F403C084
:1047A0008CE796EA05C080ED97EA02C080E496EABD
:1047B0000E945B2283E196EC0E945B2282EA94E9EC
:1047C0000E945B228CEA92EC0E945B2283E89AECC6
:1047D0000E945B2284ED9EEC0E945B2283E894ECB5
:1047E0000E945B2280E598E90E945B2287E79CECAF
:1047F0000E945B2280E090EE0E945B2280E098ECB9
:104800000E945B2289E490EC0E945B2283E080930B
:10481000180380E065E772E240E050E00E94122455
:104820001F910895823000F5E82FF0E0EE0FFF1F92
:10483000E65EFC4F71836083882319F08130A1F418
:1048400008C0809169008C7F842B80936900E89A6E
:10485000089580916900440F551F440F551F837FB1
:10486000842B80936900E99A08951F920F920FB6E6
:104870000F9211242F933F934F935F936F937F93E6
:104880008F939F93AF93BF93EF93FF9380911A03FE
:1048900090911B03892B29F0E0911A03F0911B03DF
:1048A0000995FF91EF91BF91AF919F918F917F916A
:1048B0006F915F914F913F912F910F900FBE0F908D
:1048C0001F9018951F920F920FB60F9211242F93DD
:1048D0003F934F935F936F937F938F939F93AF9388
:1048E000BF93EF93FF9380911C0390911D03892B3D
:1048F00029F0E0911C03F0911D030995FF91EF91C0
:10490000BF91AF919F918F917F916F915F914F91E7
:104910003F912F910F900FBE0F901F9018951F92EF
:104920000F920FB60F9211242F933F938F939F9363
:10493000AF93BF938091220390912303A09124030E
:10494000B0912503309126030196A11DB11D232F9F
:104950002D5F2D3720F02D570196A11DB11D2093FD
:1049600026038093220390932303A0932403B09300
:10497000250380911E0390911F03A0912003B09105
:1049800021030196A11DB11D80931E0390931F0367
:10499000A0932003B0932103BF91AF919F918F917A
:1049A0003F912F910F900FBE0F901F9018958FB7CA
:1049B000F8942091220330912303409124035091D5
:1049C00025038FBFB901CA010895019739F0880FF7
:1049D000991F880F991F02970197F1F7089578940E
:1049E00084B5826084BD84B5816084BD85B58260F4
:1049F00085BD85B5816085BDEEE6F0E08081816092
:104A00008083E1E8F0E01082808182608083808191
:104A100081608083E0E8F0E0808181608083E1EB69
:104A2000F0E0808184608083E0EBF0E08081816051
:104A30008083EAE7F0E08081846080838081826007
:104A400080838081816080838081806880831092F0
:104A5000C1000895982F8E3008F09E509770809175
:104A60000E018295880F880F807C892B80937C00B3
:104A700080917A00806480937A0080917A0086FD2C
:104A8000FCCF2091780040917900942F80E030E0B5
:104A9000282B392BC90108951F93CF93DF93182F2B
:104AA000EB0161E00E94AC25209709F44AC0CF3F9A
:104AB000D10509F449C0E12FF0E0EB58FB4F849198
:104AC0008330C1F0843028F4813051F08230B1F568
:104AD0000CC0863019F1873049F1843079F514C063
:104AE00084B5806884BDC7BD33C084B5806284BD91
:104AF000C8BD2EC080918000806880938000D093D4
:104B00008900C093880024C08091800080628093D7
:104B10008000D0938B00C0938A001AC08091B000AF
:104B200080688093B000C093B30012C08091B00041
:104B300080628093B000C093B4000AC0C038D10531
:104B40001CF4812F60E002C0812F61E00E94EB2500
:104B5000DF91CF911F910895CF93DF93482F50E0BD
:104B6000CA018F599B4FFC013491435B5B4FFA01A3
:104B70008491882369F190E0880F991FFC01E15D21
:104B8000FB4FA591B491FC01E75CFB4FC591D4911B
:104B9000662351F42FB7F8948C91932F9095892325
:104BA0008C93888189230BC0623061F42FB7F8940D
:104BB0008C91932F909589238C938881832B888364
:104BC0002FBF06C09FB7F8948C91832B8C939FBF07
:104BD000DF91CF910895482F50E0CA018B589B4F29
:104BE000FC012491CA018F599B4FFC019491435BB6
:104BF0005B4FFA013491332309F440C0222351F171
:104C0000233071F0243028F42130A1F0223011F546
:104C100014C02630B1F02730C1F02430D9F404C0DC
:104C2000809180008F7703C0809180008F7D80937A
:104C3000800010C084B58F7702C084B58F7D84BD9D
:104C400009C08091B0008F7703C08091B0008F7D44
:104C50008093B000E32FF0E0EE0FFF1FE75CFB4F07
:104C6000A591B4912FB7F894662321F48C91909577
:104C7000892302C08C91892B8C932FBF0895682FB4
:104C800070E0CB018B589B4FFC012491CB018F59D5
:104C90009B4FFC014491635B7B4FFB0194919923F3
:104CA00019F420E030E03CC0222351F1233071F0B0
:104CB000243028F42130A1F0223011F514C0263020
:104CC000B1F02730C1F02430D9F404C080918000C5
:104CD0008F7703C0809180008F7D8093800010C00B
:104CE00084B58F7702C084B58F7D84BD09C0809163
:104CF000B0008F7703C08091B0008F7D8093B000AB
:104D0000892F90E0880F991F8D5B9B4FFC01A59127
:104D1000B4918C9120E030E0842311F021E030E068
:104D2000C90108951F920F920FB60F9211242F936D
:104D30003F934F938F939F93EF93FF938091C00086
:104D400082FD1DC04091C600209167033091680329
:104D50002F5F3F4F2F7330708091690390916A03EA
:104D60002817390771F0E0916703F0916803E95D56
:104D7000FC4F4083309368032093670302C0809107
:104D8000C600FF91EF919F918F914F913F912F918D
:104D90000F900FBE0F901F9018951F920F920FB695
:104DA0000F9211242F933F938F939F93EF93FF9331
:104DB0002091AB033091AC038091AD039091AE0391
:104DC0002817390731F48091C1008F7D8093C1008D
:104DD00014C0E091AD03F091AE03E559FC4F208182
:104DE0008091AD039091AE0301968F739070909374
:104DF000AE038093AD032093C600FF91EF919F9186
:104E00008F913F912F910F900FBE0F901F9018958B
:104E1000AF92BF92DF92EF92FF920F931F93CF93C7
:104E2000DF93EC017A018B01DD24403081EE5807DD
:104E300080E0680780E0780711F0DD24D39491E0EA
:104E4000A92EB12CEC89FD89DD2069F0C50108A0EF
:104E500002C0880F991F0A94E2F7808360E079E02E
:104E60008DE390E005C0108260E874E88EE190E088
:104E7000A80197010E9445302150304040405040E9
:104E8000569547953795279580E12030380720F0D3
:104E9000DD2011F0DD24D6CFE889F9893083EA8955
:104EA000FB89208319A2EE89FF89408121E030E04F
:104EB000C9010C8C02C0880F991F0A94E2F7482B95
:104EC0004083EE89FF894081C9010D8C02C0880FA3
:104ED000991F0A94E2F7482B4083EE89FF894081AD
:104EE000C9010E8C02C0880F991F0A94E2F7482B63
:104EF0004083EE89FF8980810F8C02C0220F331F0F
:104F00000A94E2F7209528232083DF91CF911F9107
:104F10000F91FF90EF90DF90BF90AF900895DC016C
:104F20001C96ED91FC911D97E05CFF4F2191319112
:104F300080819181281B390B2F733070C90108952E
:104F4000DC011C96ED91FC911D97E05CFF4F2081E8
:104F50003181E054F040DF01AE5BBF4F8D919C91F9
:104F600011972817390719F42FEF3FEF07C08D91DC
:104F70009C91E80FF91F8081282F30E0C901089526
:104F8000DC011C96ED91FC911D97E05CFF4F2081A8
:104F90003181E054F040DF01AE5BBF4F8D919C91B9
:104FA00011972817390719F42FEF3FEF10C08D9193
:104FB0009C911197E80FF91F20818D919C91119779
:104FC00001968F73907011969C938E9330E0C90177
:104FD0000895DC0191968C919197882339F054962D
:104FE000ED91FC915597808186FFF9CF91961C92A7
:104FF0000895CF93DF93EC01EE85FF85E05CFF4FD2
:1050000020813181E054F0402F5F3F4F2F7330708B
:10501000DF01AE5BBF4F8D919C9111972817390727
:10502000D1F3E05CFF4F80819181E054F040E80FC4
:10503000F91F6083EE85FF85E05CFF4F318320839D
:10504000EE89FF89208181E090E00F8C02C0880FFB
:10505000991F0A94E2F7282B208381E089A3EC8929
:10506000FD8980818064808381E090E0DF91CF9131
:1050700008951092B2031092B10388EE93E0A0E07D
:10508000B0E08093B3039093B403A093B503B093BF
:10509000B6038AE391E09093B0038093AF0387E275
:1050A00093E09093BC038093BB038BE693E09093D3
:1050B000BE038093BD0385EC90E09093C003809382
:1050C000BF0384EC90E09093C2038093C10380EC13
:1050D00090E09093C4038093C30381EC90E090939D
:1050E000C6038093C50382EC90E09093C80380933D
:1050F000C70386EC90E09093CA038093C90384E0D1
:105100008093CB0383E08093CC0387E08093CD032F
:1051100085E08093CE0381E08093CF030895CF9202
:10512000DF92EF92FF920F931F93CF93DF937C0157
:105130006B018A01C0E0D0E00FC0D6016D916D0116
:10514000D701ED91FC910190F081E02DC701099507
:10515000C80FD91F015010400115110571F7CE017C
:10516000DF91CF911F910F91FF90EF90DF90CF9043
:105170000895DC01ED91FC910190F081E02D0995FD
:105180000895CF93DF93EC016115710519F420E0C8
:1051900030E00FC0DB010D900020E9F71197A61B4E
:1051A000B70BE881F9810280F381E02DAD0109950B
:1051B0009C01C901DF91CF9108954F925F927F9238
:1051C0008F929F92AF92BF92CF92DF92EF92FF9217
:1051D0000F931F93DF93CF93CDB7DEB7A1970FB691
:1051E000F894DEBF0FBECDBF2C01742ECB01223050
:1051F00008F42AE019A231E2C32ED12CCC0EDD1E18
:10520000822E9924AA24BB24672D752FA501940111
:105210000E94453079018A01C801B701A5019401B6
:105220000E94F32F472D461B0894C108D1084A302D
:1052300014F4405D01C0495CF6014083E114F104BF
:105240000105110521F07E2C5F2DC801DDCFC201C3
:10525000B6010E94C128A1960FB6F894DEBF0FBE1A
:10526000CDBFCF91DF911F910F91FF90EF90DF9015
:10527000CF90BF90AF909F908F907F905F904F9016
:105280000895DC012115310541F4ED91FC91019067
:10529000F081E02D642F099508950E94DD2808957E
:1052A000EF92FF920F931F939A017B0100E010E0B1
:1052B000B801A7010E9441291F910F91FF90EF9023
:1052C0000895EF92FF920F931F939A01E62EFF2409
:1052D00000E010E0B801A7010E9441291F910F9141
:1052E000FF90EF900895CF92DF92EF92FF920F938D
:1052F0001F93CF93DF93EC016A017B0121153105E8
:1053000041F4E881F9810190F081E02D642F099545
:105310001FC02A303105D1F477FF17C0E881F98129
:105320000190F081E02D6DE209958C01442755270D
:10533000BA014C195D096E097F09CE012AE00E946D
:10534000DD289801280F391F04C02AE00E94DD28BB
:105350009C01C901DF91CF911F910F91FF90EF90B8
:10536000DF90CF900895EF92FF920F931F937B01F0
:105370009A010027F7FC0095102FB801A7010E94A1
:1053800073291F910F91FF90EF9008950E94C128FB
:1053900008957F928F929F92AF92BF92CF92DF92A9
:1053A000EF92FF920F931F93CF93DF934C017A01FB
:1053B0008B01722ECB01BA01A80197010E94BA2F6E
:1053C000882321F0C40160E071E021C0C0E0D0E09A
:1053D00057016801E894D7F8C601B5012FEF3FEFF8
:1053E0004FE75FE70E94BA2F882351F4C601B50149
:1053F0002FEF3FEF4FE75FE70E94BF2D181614F025
:10540000C1E0D0E0219739F0C40164E071E00E946E
:10541000C128EC0193C0C801B7012FEF3FEF4FE760
:105420005FE40E940E2F181654F0C801B7012FEF49
:105430003FEF4FE75FEC0E94BF2D882324F4C401A7
:1054400068E071E0E4CFC801B70120E030E040E05F
:1054500050E00E94BF2D87FD03C0C0E0D0E00EC029
:10546000D401ED91FC910190F081E02DC4016DE239
:105470000995EC0117FB109517F9109520E030E025
:1054800040E05FE3DD240BC0CA01B90120E030E059
:1054900040E251E40E94C32D9B01AC01D394D71488
:1054A00098F3C801B7010E945B2D5B016C010E945B
:1054B000302E7B018C01C401B801A7012AE030E045
:1054C0000E944129C80FD91F772039F0C4016CE030
:1054D00071E00E94C128C80FD91FC801B7010E94FE
:1054E0005C2E9B01AC01C601B5010E945A2D24C05F
:1054F00020E030E040E251E40E94572F7B018C0114
:105500000E942B2E5B016C01CC24B7FCC094DC2CD8
:10551000C401B601A5012AE030E00E947329C80F3A
:10552000D91FC601B5010E945E2E9B01AC01C801C6
:10553000B7010E945A2D7A947720D1F6CE01DF91DF
:10554000CF911F910F91FF90EF90DF90CF90BF9080
:10555000AF909F908F907F9008950E94C9290895E1
:10556000813041F0813018F08230D1F409C01092BE
:105570006E00089580916F008D7F80936F00089575
:10558000809170008D7F8093700081E08093B000E7
:105590008091B100887F84608093B1001092B30045
:1055A00008951F93182F80910F01811711F09FEF1D
:1055B00006C0E9E8F4E094918FEF80930F01892F02
:1055C0000E94B02A812F60E00E94EB251F91089570
:1055D0001F920F920FB60F9211242F933F934F9368
:1055E0005F936F937F938F939F93AF93BF93EF934B
:1055F000FF938091DF039091E003A091E103B091CC
:10560000E2030097A105B10551F1E091E303F091A8
:10561000E40380819091E503892780838091DF03F3
:105620009091E003A091E103B091E20318161906EE
:105630001A061B06C4F48091DF039091E003A09149
:10564000E103B091E2030197A109B1098093DF035F
:105650009093E003A093E103B093E20304C0809130
:105660000F010E94D12AFF91EF91BF91AF919F91BD
:105670008F917F916F915F914F913F912F910F90FB
:105680000FBE0F901F9018952F923F925F926F92CE
:105690007F928F929F92AF92BF92CF92DF92EF92C2
:1056A000FF920F931F93DF93CF9300D000D0CDB71D
:1056B000DEB7A82F1B0129833A834B835C8380913B
:1056C0000F018A1721F4E9E8F4E0549082C08F3F7B
:1056D00009F0DAC1A0930F01E9E8F4E054902FEF4C
:1056E000521609F4D1C181E0581639F192E05916E9
:1056F00009F449C0552009F06CC014BC15BC84B530
:10570000826084BD85B5816085BD2A2F30E0F901B6
:10571000E35BFB4FE491F0E0EE0FFF1FE75CFB4F14
:10572000859194919093D6038093D5032F593B4F45
:10573000F90184918093D7034EC01092800010929B
:105740008100809181008860809381008091810038
:105750008160809381002A2F30E0F901E35BFB4FE9
:10576000E491F0E0EE0FFF1FE75CFB4F8591949111
:105770009093DD038093DC032F593B4FF901849113
:105780008093DE0328C01092B0001092B100809187
:10579000B00082608093B0008091B10081608093FE
:1057A000B1002A2F30E0F901E35BFB4FE491F0E018
:1057B000EE0FFF1FE75CFB4F859194919093E403FC
:1057C0008093E3032F593B4FF90184918093E503C4
:1057D00002C057FC59C18A2F61E00E94AC255520B8
:1057E00021F0F2E05F1609F0BEC03101882499244F
:1057F00060E072E18AE790E0A40193010E946730C3
:1058000059016A01860175010894E108F10801094E
:1058100011092FEFE216F1040105110509F008F452
:1058200099C060E472E48FE090E0A40193010E94CB
:10583000673079018A010894E108F108010911092A
:1058400082E05816C1F49FEFE916F1040105110535
:1058500009F008F484C060E970ED83E090E0A401F1
:1058600093010E94673079018A010894E108F108E8
:105870000109110983E0AFEFEA16F10401051105F2
:1058800009F008F468C068E478EE81E090E0A401D3
:1058900093010E94673079018A010894E108F108B8
:1058A00001091109552011F483E01DC0B2E05B1617
:1058B00011F084E018C0EFEFEE16F10401051105B8
:1058C00009F008F4DFC064E274EF80E090E0A40126
:1058D00093010E94673079018A010894E108F10878
:1058E0000109110985E0FFEFEF16F104010511052B
:1058F00091F188F162E17AE780E090E0A401930100
:105900000E94673079018A010894E108F1080109D1
:105910001109552011F086E001C084E02FEFE21656
:10592000F10401051105B9F0B0F0C601B50120E0A0
:1059300034E040E050E00E94673079018A01089429
:10594000E108F10801091109552011F087E008C0AC
:1059500085E003C081E0552019F485BD3AC082E09E
:105960008093B10036C05101CC24DD2460E072E1A7
:105970008AE790E0A60195010E94673079018A01CB
:105980000894E108F1080109110980E0E81680E0B7
:10599000F80681E0080780E0180710F491E010C0D5
:1059A00068E478EE81E090E0A60195010E946730FE
:1059B00079018A010894E108F1080109110993E0CD
:1059C000A1E05A1631F480918100887F982B909342
:1059D000810089819A81AB81BC810097A105B105C5
:1059E00029F48FEF9FEFAFEFBFEF13C0220C331CF2
:1059F000B10180E090E029813A814B815C810E9475
:105A0000F32F28EE33E040E050E00E944530C9011A
:105A1000DA01E1E05E16A1F0F2E05F1619F155201F
:105A200099F5E7BC8093D1039093D203A093D3035D
:105A3000B093D40380916E00826080936E0024C086
:105A4000F0928900E09288008093D8039093D90364
:105A5000A093DA03B093DB0380916F0082608093A0
:105A60006F0012C0E092B3008093DF039093E003D5
:105A7000A093E103B093E203809170008260809371
:105A8000700002C084E06CCF0F900F900F900F90C9
:105A9000CF91DF911F910F91FF90EF90DF90CF900A
:105AA000BF90AF909F908F907F906F905F903F904E
:105AB0002F9008955058BB27AA270ED075C166D1E4
:105AC00030F06BD120F031F49F3F11F41EF45BC134
:105AD0000EF4E095E7FB51C1E92F77D180F3BA17B7
