:100000000C9471020C9428210C9455210C949F029D
:100010000C949F020C949F020C949F020C949F02DC
:100020000C949F020C949F020C940D030C94691D78
:100030000C9431030C949F020C949F020C949F0229
:100040000C9482210C949F020C9474240C94A6248A
:100050000C949F020C943C030C949F020C949F02FE
:100060000C949F020C949F02850B8D0B950B9A0BA1
:100070009F0BA70BAF0B08000000BE922449123E55
:10008000ABAAAA2ABECDCCCC4C3E00000080BEABB1
:10009000AAAAAA3E00000000BF000000803F0000A6
:1000A000000000084178D3BB4387D1133D190E3CB3
:1000B000C3BD4282AD2B3E68EC8276BED98FE1A9EA
:1000C0003E4C80EFFFBE01C4FF7F3F0000000000F8
:1000D000484D50532C00484D415200484D53552C2B
:1000E00000484D50432C00484D524D00484D50445F
:1000F00000484D4C442C007265626F6F7400636F52
:100100006E666967007365743F74703D0073657453
:100110003F74743D007365743F666E3D0073657493
:100120003F616C3D007365743F7063007365743F9D
:10013000706E007365743F706964007365743F701E
:100140006F3D007365743F6C643D007365743F6C74
:10015000623D007365743F73703D00554349442C04
:100160004865617465724D657465722C3230313545
:100170003039303700484D414C00484D464E2C0038
:10018000484D4C422C00484D504E00484D504F00B9
:10019000252D313273253364DF005069743A2533DD
:1001A00064DF2563202563253375252525630050ED
:1001B00069743A253364DF2563204C6964253375FF
:1001C000002A2A20414C41524D2048494748202AC4
:1001D0002A002A2A20414C41524D204C4F572020C2
:1001E0002A2A000A050A050A3250726F6265202029
:1001F0000000000000000100D8FF38FF0000A99FA8
:100200008139F06375396A08153400401C460EF0D8
:10021000E10006F00000000000000080400AD7A3C3
:100220003C0000A04000327F7F7F7F46006410FFCB
:10023000640D0A0B0064C8000001020304050102FA
:100240002020052006060203070706060207070509
:10025000030402202005FF06060707050006060323
:100260000705010102200020000602030705000621
:1002700002202005070F1F1F1F1F1F1F1F1F1F000A
:10028000000000001C1E1F1F1F1F1F1F1F1F1F1FFE
:100290001F1F0F0700000000001F1F1F1F1F1F1F31
:1002A0001F1F1E1C1F1F1F0000001F1F1F0000001C
:1002B000001F1F1F2D204E6F205069742050726F39
:1002C0006265202D00253364DF25630053657420AB
:1002D00074656D70657261747572653A004D616E1A
:1002E00075616C2066616E206D6F6465004F666697
:1002F00073657420253464DF256300253364252568
:100300002062656C6F7720736574004C6964206FA0
:1003100070656E206F6666736574002533642073A4
:1003200065636F6E6473004C6964206F70656E2046
:1003300074696D6572004E6F200059657300484DF9
:1003400052432C5553455200526573657420636FB8
:100350006E6669673F0073706565642025336425A8
:1003600025004D6178696D756D206175746F20662B
:10037000616E002533642525004C43442062726978
:100380006768746E65737300022803020209020431
:1003900004032804030209030402042802040209D6
:1003A00004040305280205020905040409210209C1
:1003B000021313210213021515210215021616212C
:1003C0000216020D0D21020D020E0E21020E020F69
:1003D0000F21020F0210102102100211112102112F
:1003E0000212122102120214142102140209000046
:1003F00000026F1805036F1805046F1805056F18C4
:1004000001063E1800090C180A1328190A0DCA170C
:100410000A0ECA170A0FCA170A10CA170A11731749
:100420000A129E170A148D190A1643170A150C177B
:100430000A18FB181400000000484D52462C3235B3
:10044000352C302C000000000800020100000304DD
:100450000700000000000000000102040810204016
:100460008001020408102001020408102004040482
:10047000040404040402020202020203030303034D
:1004800003000000002300260029000000000025D2
:100490000028002B0000000000240027002A004E46
:1004A000414E494E495459494E46CDCCCC3D0AD7D0
:1004B000233C17B7D13877CC2B329595E6241FB162
:1004C0004F0A000020410000C84200401C4620BCEA
:1004D000BE4CCA1B0E5AAEC59D7435108319551DEE
:1004E000CC2411241FBECFEFD8E0DEBFCDBF14BE99
:1004F000E0E6F0E088E18083108211E0A0E0B1E066
:10050000E6ECFDE502C005900D92A034B107D9F7E5
:1005100023E0A0E4B1E001C01D92A13FB207E1F7E2
:1005200014E0C2EED4E004C02297FE010E94F72935
:10053000CA3DD107C9F70E943D0B0C94E12E0C94E3
:100540000000EF92FF920F931F93CF93DF931F92C0
:10055000CDB7DEB77C01415068F08B010F5F1F4FB4
:10056000CB0149830E945D2CF70181937F01B80183
:100570004981F1CF0F90DF91CF911F910F91FF90A3
:10058000EF900895EF92FF920F931F93CF93DF9315
:100590001F92CDB7DEB77C01CB01460F481761F043
:1005A000F70161917F018C010F5F1F4F49830E940A
:1005B000652CC8014981F2CF0F90DF91CF911F9137
:1005C0000F91FF90EF900895CF93DF9300D0CDB7B8
:1005D000DEB77A83698342E0BC01CE0101960E94B6
:1005E000C2020F900F90DF91CF910895CF93DF93C8
:1005F0001F92CDB7DEB7698341E0BC01CE01019601
:100600000E94C2020F90DF91CF910895DC01ED911D
:10061000FC910190F081E02D09941F920F920FB68A
:100620000F9211242F933F938F939F9320918A00D1
:1006300030918B002115310559F080913002909155
:100640003102820F931F90938B0080938A00289A27
:100650009F918F913F912F910F900FBE0F901F9000
:1006600018951F920F920FB60F92112428980F9091
:100670000FBE0F901F9018951F920F920FB60F92FA
:100680001124CF92DF92EF92FF920F931F932F933B
:100690003F934F935F936F937F938F939F93AF930A
:1006A000BF93CF93DF93EF93FF938091460188230D
:1006B00021F081508093460197C040914101415003
:1006C000409341012091780030917900809142015E
:1006D00090914301A0914401B0914501820F931F75
:1006E000A11DB11D8093420190934301A093440149
:1006F000B09345014423C1F0809147019091480196
:100700008217930720F4309348012093470180918A
:10071000490190914A012817390708F065C03093C4
:100720004A012093490160C010917C001F70009124
:100730004001173028F030936A012093690125C0E9
:10074000C12FD0E0CC0FDD1FC05CDE4FBC01CD015E
:1007500034E0660F771F881F991F3A95D1F7C02E96
:10076000D12CE12CF12CA70196010E94D3293C87C2
:100770002B87809147019091480120914901309148
:100780004A01821B930B988F8F8B10924801109215
:1007900047018FEF9FEF90934A0180934901109298
:1007A00042011092430110924401109245010093BE
:1007B00041011F5F163008F010E0E12FF0E0E05C2F
:1007C000FE4F83A1882311F080EC01C080E490915A
:1007D0007C00907C981711F090E301C093E0909317
:1007E0004601182B10937C00FF91EF91DF91CF9180
:1007F000BF91AF919F918F917F916F915F914F9139
:100800003F912F911F910F91FF90EF90DF90CF902C
:100810000F900FBE0F901F901895F894E82FF0E0FE
:10082000EE0FFF1FE05CFE4F2385348578948EE049
:1008300090E0861B9109A90102C0569547958A95BB
:10084000E2F7CA010895F894E82FF0E0EE0FFF1FD9
:10085000E05CFE4F8789908D78940895FC0180813B
:1008600091811816190664F4861797071CF481E025
:10087000868306C0681779071CF4868181111DC024
:1008800082819381181619067CF49C01215031094C
:10089000621773071CF481E0878306C06817790725
:1008A0001CF0878181110CC08091520290915302FB
:1008B000892B49F015821482089581E08483E0CF6A
:1008C00081E08583F1CF0895FC01178215826115BF
:1008D000710511F0738362830895FC0116821482FE
:1008E0006115710511F0718360830895E62FF0E0C2
:1008F000DC01AE0FBF1F16961C92169714961C9221
:100900004115510531F0EE0FFF1FE80FF91F51831C
:1009100040830895FC01608325E5228308950F93A9
:100920001F93CF93DF93EB012D85FC0121832E854F
:100930002483DC011596FB01759620E101900D9250
:100940002A95E1F78C01035E1F4F6F857889C801F6
:100950000E946D0469897A89C801DF91CF911F9146
:100960000F910C946404CF92DF92EF92FF92CF9399
:10097000DF93EC018A818F34D1F58B8181110BC01B
:100980004D895E896F89788D498F5A8F6B8F7C8FE7
:1009900081E08B831CC0C98CDA8CEB8CFC8CA701AA
:1009A00096016D897E898F89988D0E9408272AE893
:1009B0003BE446E05DE30E9405299B01AC01C701D1
:1009C000B6010E940927698F7A8F8B8F9C8F6D8962
:1009D0007E898F89988D0E94D927CE014D96DF910F
:1009E000CF91FF90EF90DF90CF900C942E041BA23C
:1009F00019A21CA21AA2DF91CF91FF90EF90DF9075
:100A0000CF900895CF92DF92EF92FF92CF93DF9332
:100A1000EC016A017B0120E030E040EA51ECC701C3
:100A2000B6010E946D27181614F08CE43CC020E03B
:100A300030E04AEF53E4C701B6010E94BC2887FDAD
:100A400002C088E430C080912302863499F426E6FF
:100A500036E646EE5FE3C701B6010E94052920E0B5
:100A600030E040E052E40E9409276D8B7E8B8F8B33
:100A7000988F04C0CD8ADE8AEF8AF88E6C81772742
:100A800067FD7095872F972F0E940C289B01AC0162
:100A90006D897E898F89988D0E9409276D8B7E8B49
:100AA0008F8B988F8FE48A83DF91CF91FF90EF90A7
:100AB000DF90CF9008958F929F92AF92BF92CF9286
:100AC000DF92EF92FF920F931F93CF93DF93EC018E
:100AD0008B01F090230280E090E021E4F21203C049
:100AE0000E940A2886C00E940A284B015C0120E06F
:100AF00030E84FE756E40E94BC2818161CF0011598
:100B0000110511F485E57AC08981833009F051C05F
:100B1000C988DA88EB88FC8820E030E048EC52E4B1
:100B2000C701B6010E946D2787FF0AC0A701960181
:100B300060E070E48EE495E40E9471276B017C0113
:100B4000E881F0E0E05CFE4F83A18823F9F081E0CA
:100B500000381E4308F080E083A360916901709122
:100B60006A0180E090E00E940A289B01AC0160E0ED
:100B700070EC8FE794E40E9471279B01AC01C701E0
:100B8000B6010E9471276B017C0106C081E0003C28
:100B9000124108F080E083A320E030EC4FE756E4F8
:100BA000C501B4010E947127A70196010E94052981
:100BB0005FC0A501940160E070EC8FE796E40E94AD
:100BC000712720E030E040E85FE30E9408279B01A6
:100BD000AC0169897A898B899C890E94712722E5F9
:100BE000F2121AC020913B0230913C02C217D30787
:100BF00099F06D8B7E8B8F8B988F8FE48A83DF913A
:100C0000CF911F910F91FF90EF90DF90CF90BF9009
:100C1000AF909F908F9008950E94C5286B017C0132
:100C20002D853E854F8558890E940529A70196018B
:100C30000E94052929853A854B855C850E940927F4
:100C4000A70196010E9405292D813E814F8158857B
:100C50000E9409279B01AC0160E070E080E89FE3FF
:100C60000E94712723E333E948E853E40E940827F0
:100C7000AB01BC01CE01DF91CF911F910F91FF908D
:100C8000EF90DF90CF90BF90AF909F908F900C949B
:100C90000205FC0185A596A596AB85AB20E030E06A
:100CA000DF01A20FB31F9D960D90BC91A02D119650
:100CB0008C911197882319F0B6ABA5AB08952E5FE0
:100CC0003F4F2830310561F70895209A20E43CE930
:100CD0003093870020938600109280002AE12093B1
:100CE000810024E220936F002EE420937C0020E416
:100CF00020937B002FEE20937A000C944906FC0190
:100D0000E60FF11DE60FF11D05A4F6A5E02D4183C8
:100D100025E5228313820C944906CF93DF931F921B
:100D2000CDB7DEB76983FC0164A3898185FD05C069
:100D3000898186FF04C080EA03C080EC01C08FEF88
:100D4000F8948093400180934101109242011092E7
:100D500043011092440110924501789483E08093FE
:100D6000B000898184FF02C081E001C085E08093EA
:100D7000B1000F90DF91CF91089520E030E040E086
:100D8000FC01E20FF31F05A4F6A5E02D51815613D7
:100D900001C04F5F2E5F3F4F2830310589F7842F08
:100DA00090E00895CF93DF93EC018FA1882319F091
:100DB0009CA194FD08C08EA36EA170E083E0DF913A
:100DC000CF910C941D2268E081E00E940D044EA199
:100DD00050E02FA130E0281B310937FF02C02F5F00
:100DE0003F4F35952795240F351F1216130644F4EF
:100DF0002F3F310519F014F02FEF30E02EA3DCCF98
:100E000021E0FCCF20E030E0FC01E20FF31F07A45B
:100E1000F0A9E02D42814F3439F02E5F3F4F26304C
:100E2000310591F780E0089581E00895FC01E45BCD
:100E3000FF4FDC011B962D913C911C973183208341
:100E400021E015962C930895FC0177836683158223
:100E50001086158A168A178A108EE45BFF4F11825E
:100E60001082089521E0FC01208777FD06C06536D9
:100E7000710524F064E670E001C060E0FC0160836D
:100E8000E45BFF4F1182108208956E31710510F4FA
:100E90006EE170E0FC017487638708952F923F92A2
:100EA0004F925F926F927F928F929F92AF92BF927A
:100EB000CF92DF92EF92FF920F931F93CF93DF9326
:100EC000CDB7DEB727970FB6F894DEBF0FBECDBF04
:100ED0009F838E830E94CC21AE81BF8111962D917C
:100EE0003C911297621B730B6D34714008F473C20E
:100EF0000E94CC21EE81FF8161837283838394837E
:100F00008185823030F48F5F8187CF010E94D206C5
:100F100062C2AE81BF8119961C9219978D01E4E0DF
:100F2000FE2ED8019D96ED91FC919E9781818D7F3B
:100F3000813009F452C2F80185A596A50E94B30438
:100F4000FA940E5F1F4FF110ECCFAE81BF8118965F
:100F50008C911897A85BBF4FBD83AC83811125C1CD
:100F6000EE81FF81F081FB83AE81BF811C92D5961B
:100F7000ED91FC91D697FA83E98382818D01045B20
:100F80001F4F16962D903C9017978F3409F0A3C0F1
:100F9000D8018D919C91892B09F09DC04588568878
:100FA0006788708CB101882777FD8095982F0E9403
:100FB0000C28A30192010E9408276B017C01EE819D
:100FC000FF8124AD35AD46AD57AD0E9405294B01DB
:100FD0005C01AE81BF8151966D937D938D939C93FF
:100FE000549720E030E0A901C701B6010E94BC2857
:100FF00018161CF4BB81B43660F020E030E0A90183
:10100000C701B6010E946D2787FF21C0EB81EE2347
:10101000F1F0EE81FF81E05CFF4F20813181428160
:101020005381C701B6010E9405299B01AC01AE8125
:10103000BF8155966D917D918D919C9158970E949D
:101040000927EE81FF81658B768B878B908FA301BB
:101050009201A981BA8159966D917D918D919C9152
:101060005C970E940827EE81FF81EC5BFF4F208197
:101070003181428153810E9405296B017C01EE81FF
:10108000FF81618F728F838F948F60AD71AD82AD60
:1010900093AD658776878787908BA50194010E9421
:1010A0000927EE81FF81258936894789508D0E9465
:1010B0000927A70196010E9409270E94D92777FDD9
:1010C00006C06536710524F064E670E001C060E09A
:1010D000AE81BF816C93E981FA81658976898789C0
:1010E000908D0E94D927621573057CF1AE81BF8176
:1010F0001B962D913C911C97F80140815181241B36
:10110000350B2F31310508F115968C91159781110A
:1011100014C020E030E040E05FE355966D917D9192
:101120008D919C9158970E940529AE81BF8155965B
:101130006D937D938D939C93589782E0EE81FF8110
:101140008583D8011D921C9230C0F8012081318125
:101150002115310529F0215031093183208325C023
:10116000AE81BF8115962C912230F9F49101261B96
:10117000370B44E6429FC001439F900D1124B101FB
:101180000E94BF29EE81FF8187A990E06817790747
:1011900064F0AC81BD816D917D918D919C910E9497
:1011A000D9276A3571050CF423C1EE81FF811081C6
:1011B000AC81BD81CD90DD90ED90FC90612F70E011
:1011C00080E090E00E940A28A70196010E9408276B
:1011D00021E837EF47E05CE30E9405299B01AC0161
:1011E000C701B6010E940927EC81FD8160837183EC
:1011F00082839383AE81BF8191968C9191971817CA
:1012000018F495961C921BC0EE81FF819581911177
:1012100002C0478D04C0AE81BF815E964C91212FE4
:1012200030E0281B3109429FC001439F900D1124DB
:1012300064E670E00E94AB29EE81FF8165A3AE8178
:10124000BF8195968C91959790962C919097821747
:1012500018F01A961C9223C0EE81FF813285FAE0C5
:101260008F9FC0011124622F70E00E94AB29832F51
:1012700090E08617970728F4AE81BF8195962C934E
:1012800003C0EE81FF8115A23F5F3A3028F4AE81A2
:10129000BF811A963C9303C0EE81FF811286AE8116
:1012A000BF8194968C91949780FF09C05E968C9133
:1012B0005E9795969C919597891B95968C93EE8158
:1012C000FF8185A1811102C017A22EC0AE81BF810E
:1012D00097962C91979794969C9194FF0DC0B7E8A0
:1012E0008B9FC001112464E670E00E94AB29625A12
:1012F000EE81FF8167A30CC0FFEF8F9FC001112417
:1013000064E670E00E94AB29AE81BF8197966C9332
:1013100021110AC06FEF70E083E00E941D2280E877
:10132000EE81FF8186A304C08E819F810E94D20638
:10133000AE81BF8194968C9194973C9183FF02C0BB
:10134000311134E6EE81FF8184A181FF03C084E680
:10135000831B382FAE81BF8193962C9193979296E1
:101360004C9150E0421B5109349FC001359F900DB4
:10137000112464E670E00E94AB29260FB4E12B9F94
:1013800090011124EE81FF8180A591A5009749F479
:1013900013A612A631A720A730938B0020938A00B2
:1013A00055C0A901481B590BCA01009771F157FF9D
:1013B00004C044275527481B590B483C510550F59C
:1013C000AE81BF819C964C919C974F5F9C964C93AD
:1013D0004A30D8F01FC080E03AC06EE080810E94A1
:1013E0000D04BC01F80185A596A50E945B05A3CD5F
:1013F000AE81BF811B968D919C911C97F8019183C2
:10140000808381E015968C93D0CE10928B00109241
:101410008A001CC062E370E00E94BF29F894AE818C
:10142000BF819B967C936E939A9798968D919C9191
:101430009997860F971F90938B0080938A007894DA
:1014400099963C932E9398979C961C9281E02796B0
:101450000FB6F894DEBF0FBECDBFDF91CF911F91C5
:101460000F91FF90EF90DF90CF90BF90AF909F9043
:101470008F907F906F905F904F903F902F90089546
:10148000633441F01CF4613439F404C0663411F063
:10149000623511F4FC01658F0895CF93C82F8091B8
:1014A0002F0381110BC081E080932F031092300332
:1014B00064E270E082E593E00E94060390913003BD
:1014C0009C27909330036C2F82E593E0CF910C948E
:1014D000AD238CE20C944D0A0F931F93CF93DF93AF
:1014E000EC016E817F814AE050E08BE293E00E9444
:1014F000F9250E94690A00E010E0FE01E00FF11FEB
:1015000005A4F6A5E02D82818F3459F445895689CA
:101510006789708D21E030E08BE293E00E9406271E
:1015200003C085E50E944D0A0E94690A0E5F1F4FA5
:101530000830110511F74AE050E068818BE293E032
:101540000E940E260E94690AFE01E85BFF4F60813F
:101550007181828193810E94D9274AE050E08BE219
:1015600093E00E94F9250E94690AFE01E45BFF4FA7
:10157000608171814AE050E08BE293E00E94152681
:101580000E94690A4AE050E06DA18BE293E0DF918E
:10159000CF911F910F910C940E26EF92FF920F9313
:1015A0001F93CF93DF937C01FC0105A916A9F801D5
:1015B00082818F3409F05AC0E0EDF0E08491EF01B0
:1015C0002196882321F00E944D0AFE01F7CFC0E04A
:1015D000D0E0F701EC0FFD1F4585568567857089C2
:1015E00022E030E08BE293E00E9406270E94690A25
:1015F0002496C031D10569F7F801218D328D438DD4
:10160000548D658976898789908D0E940827AB0162
:10161000BC0122E030E08BE293E00E9406276AE200
:1016200070E082E593E00E940603609130036295CA
:101630006F706A3010F4605D01C0695C82E593E010
:101640000E94AD23609130036F706A3010F4605DCA
:1016500001C0695C82E593E00E94AD236AE070E01E
:1016600082E593E00E94060310922F03DF91CF9151
:101670001F910F91FF90EF9008950E94E2210E9428
:10168000DC110E944413FDCF811102C060937201EE
:101690000895CF93DF93EB0177FF02C0C0E0D0E065
:1016A000813069F018F08230B1F021C0C0933D0262
:1016B0006C2F84E090E0DF91CF910C94F602BE0194
:1016C00086E092E00E944507BE0185E090E0DF9150
:1016D000CF910C94E402CD2B31F086E092E0DF91C3
:1016E000CF910C9416071092530210925202DF9180
:1016F000CF910895CF93C62F90E087309105C8F51C
:10170000FC01EC5CFF4F0C94F529653608F064E6AB
:10171000609326028EE190E029C0653608F064E609
:10172000609324028FE190E021C06093290287E258
:1017300090E01CC06093280288E290E017C086E029
:1017400092E00E948D066C2F80E290E00FC065361B
:1017500008F064E66093250282E290E007C06536F7
:1017600008F060E06093270289E290E0CF910C944A
:10177000F602CF91089562E086E092E00E94BD06F5
:10178000892B29F063E08DE891E00C94D51B089536
:10179000462F811103C089E00C94DE226FEF680FA1
:1017A0008AEF91E00C94721FFF920F931F93CF93D7
:1017B000DF938C01F12CC2ECD1E088818823A1F069
:1017C0008C3219F4F3942196F8CFCE010E940E2AA0
:1017D000BC018F2DF8010995DE01ED018D91882363
:1017E00061F38C32D1F7E9CFDF91CF911F910F9147
:1017F000FF900895843090F4E82FF0E0EE0FFF1F83
:10180000EA5FFD4F05A4F6A5E02D648395E2899F6C
:10181000802D1124825B90E00C94F60208950F93C2
:101820001F93CF93DF9300D0CDB7DEB7AB017A83A0
:101830006983182F1695082F0170E12FF0E0EE0F45
:10184000FF1FEA5FFD4F85A596A5602F4D960E946C
:101850007604143090F485E2189F102D1124115B4A
:1018600029813A81232B49F0602F660F610F70E0C8
:1018700042E0CE0101960E94C2020F900F90DF91CC
:10188000CF911F910F910895CF93DF93C82FD62F3B
:10189000843088F4462F682F86E092E00E947F060D
:1018A00085E2C89F802D1124835B6D2F90E0DF912E
:1018B000CF910C94F602DF91CF910895BF92CF9211
:1018C000DF92EF92FF920F931F93CF93DF936C0100
:1018D000B62E03E312E049E8E42E41E0F42EF801CD
:1018E000C191D1918F018981823001F5F701808109
:1018F0008F3799F1F6019281891318C02EC0F60135
:1019000087816081718182FF2EC0882777FD809555
:10191000982F0E940C2820E030E040E251E40E9421
:101920007127AB01BC01CE010E940205FFEFEF1A47
:10193000FF0A82E00B33180791F68B2D8570D9F0E2
:101940008DE891E0DF91CF911F910F91FF90EF9083
:10195000DF90CF90BF900C94E61CE4E0BE12CFCF96
:1019600060E070E004C0660F771F660F771FCE013E
:101970000E945B05DBCFDF91CF911F910F91FF900C
:10198000EF90DF90CF90BF90089587FF8093710113
:101990008F772FEF829FC001112464E670E00E94D0
:1019A000AB2985E00C941D22843058F465E2869FB3
:1019B000602D1124605C70E04DE088E193E00C94B0
:1019C000A1020895CF93DF93EC011816190664F471
:1019D000BC0182E090E00E94E402BE0186E092E059
:1019E0000E94240760E009C066277727681B790BEF
:1019F00086E092E00E94320761E087E190E0DF91AB
:101A0000CF910C94F602CF93DF931F92CDB7DEB740
:101A1000682F853608F064E6862F69830E94C50C1E
:101A2000698188E190E00F90DF91CF910C94F602EC
:101A3000CF93DF93D82FC62F813049F018F086302E
:101A400020F514C0862FDF91CF910C94030D609385
:101A5000730181E290E00E94F6028091F0028250D0
:101A6000853020F48AEF91E00E94BF1FD2504C2FA6
:101A70006D2F85E791E00E946F1A8D2F90E06C2FFB
:101A80008396DF91CF910C94F602DF91CF91089568
:101A9000CF93DF93D82FC92F662321F08AEF91E0EF
:101AA0000E94BF1FED2FFC2F6491EF01219666234A
:101AB00061F0E091FA01F091FB010190F081E02DDD
:101AC0008AEF91E00995FE01EFCFDF91CF91089564
:101AD0006F927F928F929F92AF92BF92CF92DF923E
:101AE000EF92FF920F931F93CF93DF93CDB7DEB7A3
:101AF00062970FB6F894DEBF0FBECDBFF090F00234
:101B00008EEF8F0D853008F0A9C140E060E08AEFCC
:101B100091E00E94CD1F86E0F8121FC080917001F5
:101B20008F3F59F410926C0110926D0110926E016A
:101B300010926F0185E0809370018091740160E0E4
:101B400080FD03C082ED91E002C081EC91E00E9433
:101B5000480D809174018695D8C08FEF80937001F5
:101B60000E94621D809171010E94C50CE091730179
:101B7000E43008F09DC0F0E0EE0FFF1FEA5FFD4F7C
:101B800005A4F6A5E02D82818F3409F091C020E0F4
:101B900030E040E251E4658976898789908D0E9422
:101BA00005290E94D92777FF07C000271127061BA8
:101BB000170BBB24B39402C08B01B12CA0E1DA2E29
:101BC000BAE0EB2EF12C86E0C82E0115110519F4B0
:101BD00098E09D155CF5C801B7010E94AB29962ECF
:101BE000A72EC89E8001C99E100D1124085C1D4FB0
:101BF000ADEFDA0E40E06D2D8AEF91E00E94CD1F2F
:101C000043E0B8018AEF91E00E94911F41E06D2D01
:101C10008AEF91E00E94CD1FB8016D5F7F4F43E0D6
:101C20008AEF91E00E94911F092D1A2DDA9440E06D
:101C30006D2D8AEF91E00E94CD1FE091FA01F091A5
:101C4000FB010190F081E02D60E28AEF91E00995BF
:101C500041E06D2D8AEF91E00E94CD1FE091FA01E5
:101C6000F091FB01BCE0DB1208C00190F081E02D97
:101C70006EE28AEF91E00995A8CF0115110571F484
:101C800088E08D155CF0BB2049F00190F081E02DDB
:101C900061E08AEF91E00995B12C07C00190F081D5
:101CA000E02D60E28AEF91E00995D1108ECFD6C089
:101CB000E0913B02F0913C0222812F3449F4658986
:101CC00076898789908D2A8B0E94D9272A8902C01C
:101CD00060E070E080910E028E010F5F1F4F811156
:101CE0006DC02F3409F46AC041E150E064EB72E04A
:101CF000C8010E942C2AB8018AEF91E00E944D256C
:101D0000809173018F3F19F48F0D882E03C0F3E08B
:101D10008F2E81E0982EDE0111967D0168E1C62E9E
:101D200063E0D62E70E9A72E71E0B72EE1E16E2EAA
:101D300077247394781A891408F490C0B3E0B91525
:101D400008F483C0092D10E0000F111F0A5F1D4F1A
:101D5000D8019D96ED91FC919E9782818F3409F078
:101D600074C0892D0E94D40CD8019D96ED91FC91F0
:101D70009E97658976898789908D0E94D9277F9360
:101D80006F93DF92CF92BF92AF921F926F92FF92AA
:101D9000EF920E945B2A0FB6F894DEBF0FBECDBF54
:101DA000472D490D60E08AEF91E00E94CD1FB701F9
:101DB0008AEF91E00E944D259394BDCF209152026D
:101DC000309153024091230221153105B1F03F9328
:101DD0002F93842F992787FD90959F934F937F93FF
:101DE0006F932FEA31E03F932F931F9281E18F93FE
:101DF0001F930F930E945B2A22C0882319F09EE54F
:101E00008EE502C09DE58BE51F929F93909106029F
:101E10001F929F931F928F93842F992787FD9095F0
:101E20009F934F937F936F932AE931E03F932F93D2
:101E30001F9281E18F931F930F930E945B2A0FB62D
:101E4000F894DEBF0FBECDBF56CF41E150E060E257
:101E500070E0C7010E944C2A198AA2CF62960FB681
:101E6000F894DEBF0FBECDBFDF91CF911F910F91D0
:101E7000FF90EF90DF90CF90BF90AF909F908F90AA
:101E80007F906F900895CF92DF92EF92FF920F9321
:101E90001F93CF93DF93CDB7DEB7AA970FB6F89411
:101EA000DEBF0FBECDBFD82E4AE260E070E0CE01AB
:101EB00001960E94A102D110C8C089819A818E30FA
:101EC000904F09F0C2C06B817C8186E092E00E9455
:101ED00024078D8180933D026E817F8186E092E0B0
:101EE0000E94450780E1FE013896AEE3B2E0019022
:101EF0000D928A95E1F7888D882331F060E070E0DB
:101F000086E092E00E943207898D0E94C50C4A8DBE
:101F10005B8D6C8D7D8D4093890150938A01609318
:101F20008B0170938C018E8D833411F463E401C0B6
:101F300066E486E092E00E94400A8F8D853608F0C4
:101F400084E68093260288A1853608F084E6809393
:101F500024028AA5853608F080E0809327028BA1B1
:101F6000853608F084E68093250269A186E092E038
:101F70000E948D068AA18093730188A5809329020F
:101F800089A5809328028E010C5D1F4FF12CF8016A
:101F900041918F016F2D85E791E00E946F1AF394B4
:101FA000F4E0FF12F4CF42E06EE370E0CE01019660
:101FB0000E94A10229813A812E30304F41F06EE01B
:101FC00070EF8EE390E00E94E402DD24D39423E3DB
:101FD000E22E22E0F22E30E3C32E00E410E0DD20FA
:101FE00081F045E250E069EE71E0CE0101960E9479
:101FF0002C2ACF8245E2B801CE0101960E94C2028E
:1020000006C045E2B801CE0101960E94A102BE01C0
:102010006F5F7F4FF701819191917F010E948F0443
:102020000B5D1F4FC394F4E3CF12D9CFAA960FB61E
:10203000F894DEBF0FBECDBFDF91CF911F910F91FE
:10204000FF90EF90DF90CF9008954AE250E06EE06D
:1020500072E0CE0101960E942C2A4AE260E070E014
:10206000CE0101960E94C2022ECFCF9365E083EC91
:1020700092E00E948A0464E08EE992E00E948A0461
:1020800063E089E792E00E948A0462E084E592E0DE
:102090000E948A04C0E8C0930F0286E48093230262
:1020A00042E064E08AEF91E00E9489208EE59CE0A6
:1020B0009093930180939201C09394018FEF80934A
:1020C00097018093A0018093A9018093B20188ECCD
:1020D0009BE09093880180938701CF9108951F938F
:1020E000CF93DF93EC01162F8C81811109C081E021
:1020F0008C831D8264E270E082E593E00E94060317
:102100008D8181278D83612F82E593E0DF91CF91CF
:102110001F910C94AD23CF93DF93FC016491EC01EC
:102120002196662331F08BE293E00E946F10CE017E
:10213000F4CFDF91CF9108956AE270E082E593E0F9
:102140000E9406036091300362956F706A3010F44C
:10215000605D01C0695C82E593E00E94AD236091FF
:1021600030036F706A3010F4605D01C0695C82E515
:1021700093E00E94AD236AE070E082E593E00E9464
:10218000060310922F030895CF93DF938BE891E01D
:102190000E948B10C3E3D2E00E94690AE991F99191
:1021A0006481772767FD70954AE050E08BE293E009
:1021B0000E94F92582E0CB33D80771F7DF91CF91E8
:1021C0000C949C100E94FA0B0C94C410CF9386E8D8
:1021D00091E00E948B10C0E08C2F0E94D40C0E94D2
:1021E000690A68E173E08BE293E00E944D25CF5FBE
:1021F000C43091F7CF910C949C109B01843050F423
:1022000065E2869F602D1124605C70E04DE0C9019D
:102210000E94C2020C94E610CF93DF9380E891E015
:102220000E948B104AE050E0609171018BE293E0D4
:102230000E940E260E94690A4AE050E060917301F4
:102240008BE293E00E940E26C5E7D1E00E94690A66
:102250004AE050E068818BE293E00E940E262396CC
:1022600081E0C138D80791F7DF91CF910C949C1091
:10227000CF93DF938AE791E00E948B10C6E0D2E013
:102280004AE050E068A18BE293E00E940E260E9493
:10229000690A4AE050E06E8D8BE293E00E940E26C0
:1022A0000E94690A4AE050E06BA18BE293E00E9431
:1022B0000E260E94690A4AE050E06AA18BE293E090
:1022C0000E940E260E94690A4AE050E06CA18BE24F
:1022D00093E00E940E260E94690A4AE050E06F8D4A
:1022E0008BE293E00E940E260E94690A4AE050E0C9
:1022F00069A18BE293E00E940E26DF91CF910C94AE
:102300009C10853608F084E680932402682F8FE1C4
:1023100090E00E94F6020C9438110F931F93CF9314
:10232000DF9385E791E00E948B1003E312E0F80150
:10233000C191D1918F010E94690A6D8D7E8D4AE015
:1023400050E08BE293E00E94F92589A1882329F0CF
:102350006CE48BE293E00E946F100E94690A6F8D1B
:1023600078A14AE050E08BE293E00E94F9258AA12F
:10237000882329F068E48BE293E00E946F10F2E07A
:102380000B331F07A1F6DF91CF911F910F910C9492
:102390009C1060E070E0809174010E940F0C0C941E
:1023A0008D118BE591E00E948B1062E48BE293E04B
:1023B0000E944F250C949C101F93CF93DF93219A7A
:1023C00042E060E085E791E00E94D81985E791E05E
:1023D0000E941A1A26E040E056E960E070E082E5CB
:1023E00093E00E9412246AE070E082E593E00E948C
:1023F00006030E94D11180E880BF8FE380937E00A6
:10240000809164008068809364005F9A579A0E946C
:10241000601D83EC92E090933402809333028EE946
:1024200092E0909336028093350289E792E0909390
:1024300038028093370284E592E090933A028093C9
:10244000390280E00E94430F86E092E00E94650618
:10245000C4E7D2E010E0AE01612F8AEF91E00E9464
:102460004D201F5F28961830B1F70E94BB0B65E026
:1024700088EE92E0DF91CF911F910C948D1A81EF3D
:1024800090E00E948B104AE050E060913D028BE2A8
:1024900093E00E940E260E94690A609111027091D9
:1024A00012024AE050E08BE293E00E9415260C9461
:1024B0009C10CF93DF938CEE90E00E948B10CEE3C4
:1024C000D2E00E94690A499159916991799128E075
:1024D00030E08BE293E00E94062782E0CE34D807FA
:1024E00081F7DF91CF910C949C100F931F93CF93A2
:1024F000DF9387EE90E00E948B10C3E3D2E009E8FF
:1025000011E00E94690AE991F9918181823041F4D8
:102510004AE050E0F80160818BE293E00E940E26D1
:102520000F5F1F4FF2E0CB33DF0759F7DF91CF91F9
:102530001F910F910C949C10AF92BF92CF92DF929B
:10254000EF92FF920F931F93CF93DF93C82F81EEEB
:1025500090E00E948B104AE050E06C2F8BE293E0F9
:102560000E940E260E94690AEC2FF0E0EE0FFF1F7A
:10257000EA5FFD4F05A516A5C0E0D0E0F801EC0F1D
:10258000FD1FC580D680E780F084AA24A39420E0B4
:1025900030E0A901C701B6010E946D2787FD02C086
:1025A000A12C04C0F7FAF094F7F8F094B12C20E0D5
:1025B00030E040E85FE3C701B6010E946D2787FF66
:1025C00015C020E030E0A901C701B6010E946D27C7
:1025D000882361F0BA9420E030E040E251E4C70182
:1025E000B6010E9405296B017C01E1CF20E030E0BB
:1025F00040E251E4C701B6010E94BC2887FD0CC02F
:10260000B39420E030E040E251E4C701B6010E94FB
:1026100071276B017C01EACFAA2021F0F7FAF09430
:10262000F7F8F09427E030E0B701A6018BE293E0E1
:102630000E94062765E68BE293E00E946F106B2DE7
:10264000772767FD70954AE050E08BE293E00E94A7
:10265000F9250E94690A2496C031D10509F08ECF70
:102660004AE050E0F80161818BE293E00E940E267F
:10267000DF91CF911F910F91FF90EF90DF90CF905E
:10268000BF90AF900C949C102F923F924F925F920C
:102690006F927F928F929F92AF92BF92CF92DF9272
:1026A000EF92FF920F931F93CF93DF931F92CDB7BB
:1026B000DEB7EAEBF1E001900020E9F73197EA5B41
:1026C000F1401E2F0BEBE02E01E0F02E85E2782E7C
:1026D0009FE7692E82E593E00E943D23892B09F450
:1026E00090C082E593E00E9456238A3019F08D3025
:1026F00009F076C0112309F401C28091BA018F322A
:1027000009F0FCC1D7010D900020E9F78D010C5BA9
:10271000114047E050E063E571E08BEB91E00E94EF
:10272000352A892BD9F482EC91E00E940E2A0E946E
:10273000E20CF801FF27E654FE4F1081612F86E07E
:1027400092E00E94400A133419F0163409F0D6C101
:10275000612F8DE190E00E94F602D0C147E050E089
:102760006BE471E08BEB91E00E94352A892B39F400
:1027700088E19DE00E94D40B0E940C11BFC147E08C
:1027800050E063E471E08BEB91E00E94352A892BE5
:1027900039F489E49BE00E94D40B0E943F12AEC141
:1027A00047E050E06BE371E08BEB91E00E94352A4B
:1027B000892B39F48AEF9BE00E94D40B0E94C4104D
:1027C0009DC147E050E063E371E08BEB91E00E9434
:1027D000352A892B09F07FC10A3008F04BC17BC133
:1027E00091E0910FE12FF0E0E654FE4F80839034AA
:1027F00008F084C1E92FF0E0E654FE4F1082192F53
:1028000069CF8DE891E00E946A1C882331F042E094
:1028100069E085E791E00E94D81988EE92E00E9475
:10282000EE1A86E092E00E944E07882309F4C9C0A0
:102830000E94680D80916B018F5F80936B018F7197
:1028400021F48DE891E00E94E61C8BED90E00E945F
:102850008B1086E092E00E946C0A0E949C1003E3B9
:1028600012E0F12CE12CA12CB12CDD24D394DF0C4F
:10287000D801ED91FC91EA0DFB1D41A16A2D8A2D35
:102880008F0D442321F080937401EE24E3946D0DA9
:1028900085E791E00E94D819BFEFAB1ABB0AE2E0CE
:1028A000AE16B10429F7F394F3940E5F1F4FF8E0CE
:1028B000FF12D9CF4E2D6EE085E791E00E94D81926
:1028C000EE2021F00E948D1166E005C08091F0029B
:1028D000863029F462E088EE92E00E948D1A8091A1
:1028E0007201882321F086E092E00E94CD0A809157
:1028F0006B0183708130B1F486ED90E00E948B1003
:1029000010E00E94690A812F0E942304BC014AE062
:1029100050E08BE293E00E9415261F5F163089F786
:102920000E949C1040E060E085E791E00E94D81989
:1029300041E08091520290915302892B09F440E0CA
:102940006AE085E791E00E94D81941E08091060293
:10295000811101C040E06BE085E791E00E94D81949
:1029600041E080910602843608F440E06DE085E79E
:1029700091E00E94D81941E080910B02823009F069
:1029800040E06CE085E791E00E94D81941E0809139
:102990000B02811140E06FE085E791E00E94D819B9
:1029A00041E080910B02813009F040E060E185E771
:1029B00091E00E94D819609106028DE891E00E9492
:1029C000471C809170018F3F09F43DC00E94CC21CB
:1029D000E0917001F0E0ED51FE4FE49120916C0127
:1029E00030916D01621B730B8AE0E89FF0011124A6
:1029F000E617F70740F50E94CC2160936C017093B5
:102A00006D0180936E0190936F018091700190E051
:102A1000019666E070E00E94AB298093700180FD12
:102A20000DC0FC01ED51FE4F84919AE0899FB001E9
:102A3000112486E00E94B11D80E803C080917101DD
:102A400080680E94C50C85E791E00F90DF91CF91DF
:102A50001F910F91FF90EF90DF90CF90BF90AF90BC
:102A60009F908F907F906F905F904F903F902F90AE
:102A70000C941A1A84EC91E00E940A2A2091C20157
:102A8000243611F423E005C02536ECF02936F9F49C
:102A900022E030E0F901EE0FFF1FEE0FFF1FE25CB6
:102AA000FD4F6083718382839383B901660F771F23
:102AB000660F771F695F7F4F44E0CF010E94C2021B
:102AC0000E9459121BC02236D9F720E0E2CF2037EE
:102AD000B9F721E0DECF46E050E06CE271E08BEB2D
:102AE00091E00E94352A892B59F4093048F08091F1
:102AF000C10163EC71E080530E94FD1090E07ACE3A
:102B000046E050E065E271E08BEB91E00E94352AEF
:102B1000892B09F068C0093008F465C05090C101E4
:102B2000A0ED5A0EB3E0B51548F3579C202D1124A3
:102B30002B5A412CE3EC2E2EE1E03E2E052D10E029
:102B4000000F111F0D5C1D4FD1018C91882309F4DA
:102B500046C0B3E0B41580F18C3231F44394EFEF0A
:102B60002E1A3E0A2C5FF0CFD8018D909C90B4E0D5
:102B70004B9E500111246501E5E0CE0ED11CC80C1E
:102B8000D91CC10129830E940A2AF401EA0DFB1D08
:102B900065837683878390872981622F70E044E084
:102BA000C6010E94C202F10129811F01819188237F
:102BB00059F28C32D1F7C8CFC1010E940E2A682F7A
:102BC000C52CD12C87FD9AC0F601EE0FFF1FEA5FDE
:102BD000FD4F05A4F6A5E02D1181161383C0852DA8
:102BE0000E949C128BCF47E050E06DE171E08BEBCF
:102BF00091E00E94352A892B39F48FE09CE00E94F5
:102C0000D40B0E948D117ACF47E050E065E171E06E
:102C10008BEB91E00E94352A892B39F48AE79BE0FF
:102C20000E94D40B0E94381169CF47E050E06DE05C
:102C300071E08BEB91E00E94352A892B39F462EC2C
:102C400071E088EE92E00E94581958CF47E050E0BA
:102C500065E071E08BEB91E00E94352A892B29F425
:102C600084E49BE00E94D40B49CF46E050E06EEF35
:102C700070E08BEB91E00E94352A892BF9F40E94D9
:102C8000D1110E9459120E9438110E94E61080E072
:102C90000E949C1281E00E949C1282E00E949C1281
:102CA00083E00E949C120E94C4100E943F120E9466
:102CB0000C110E948D110E94751220CF45E050E04A
:102CC00067EF70E08BEB91E00E94352A892B09F0C9
:102CD00015CF5F98F89488E18093600089E0809335
:102CE0006000FFCF852D0E94440C123009F077CF91
:102CF000F601E757FE4F60826FE718C010E8160F25
:102D0000F601EE0FFF1FEA5FFD4F05A4F6A5E02DCB
:102D100081818230A1F4F601E757FE4F8081811353
:102D20000EC0F601E757FE4F1083612FC60149968A
:102D30000E94F6020E9475120E94BB0B50CF62E007
:102D4000852D0E94440CEDCF0F931F93CF93DF93FB
:102D5000CDB7DEB761970FB6F894DEBF0FBECDBF1B
:102D6000E0912903F0912A03843019F4E60FF11D54
:102D700004C0883031F4E61BF109F0932A03E09394
:102D800029038091290390912A038417950724F43D
:102D900050932A03409329038091290390912A0399
:102DA0002817390724F430932A032093290341E09C
:102DB00060E08AEF91E00E94CD1F20912302822FD4
:102DC000992787FD90959F932F9380912A038F9346
:102DD000809129038F931F930F931F9281E18F930B
:102DE0008E010F5F1F4F1F930F930E945B2AB80144
:102DF0008AEF91E00E944D250FB6F894DEBF0FBE1A
:102E0000CDBF61960FB6F894DEBF0FBECDBFDF9188
:102E1000CF911F910F9108950F931F93CF93C82FB8
:102E2000803869F461E089E793E00E94480D2091C1
:102E3000710130E030932A032093290310C08034BD
:102E400071F48091290390912A034091710150E01F
:102E50008417950721F00E94030D0E940C1103E7CF
:102E600013E024E630E040E050E06AE08C2F0E945E
:102E7000A4168091290380680E94C50C81E0CF913F
:102E80001F910F9108950F931F93CF93C82F8038F0
:102E900069F461E082E693E00E94480D20912402EB
:102EA00030E030932A03209329030EC0803461F46C
:102EB0008091290390912A034091240250E08417C5
:102EC000950711F00E94811106E513E024E630E039
:102ED00040E050E065E08C2F0E94A41681E0CF9185
:102EE0001F910F9108950F931F93CF93C82F803890
:102EF00069F461E08BE093E00E94480D20913D026F
:102F000030E030932A032093290309C0803439F438
:102F10006091290370912A0380E00E94490B0BEF16
:102F200012E024E630E040E050E061E08C2F0E94A7
:102F3000A41681E0CF911F910F9108950F931F93D5
:102F4000CF93C82F803871F461E087E293E00E944C
:102F5000480D209111023091120230932A032093E0
:102F6000290309C0803439F46091290370912A0340
:102F700081E00E94490B0BE113E028EE33E040E0D2
:102F800050E06AE08C2F0E94A41681E0CF911F913F
:102F90000F9108950F931F93CF93DF93D82FC09174
:102FA000F002CD508038F9F48C2F0E94D40C8AEFB7
:102FB00091E00E94BF1F68E173E08AEF91E00E94F8
:102FC0004D25EC2FF0E0EE0FFF1FEA5FFD4F05A44B
:102FD000F6A5E02D2481332727FD309530932A0371
:102FE0002093290309C0803439F46091290370913A
:102FF0002A038C2F0E94E2100DEE12E024E630E04E
:103000004CE95FEF61E08D2F0E94A41681E0DF9113
:10301000CF911F910F9108950F931F93CF93C82FB6
:10302000803871F461E08CEC92E00E94480D2091B0
:103030000C0230910D0230932A03209329030FC014
:10304000803469F48091290390912A0340910C0205
:1030500050910D028417950711F00E94E20C05ECC7
:1030600012E028EE33E040E050E065E08C2F0E9453
:10307000A41681E0CF911F910F910895803819F423
:103080000E94680D06C08F7121F00E94C91182E074
:10309000089581E0089580E00E9423044197E8F4B8
:1030A00068E080E00E940D048823B9F09BEE980F41
:1030B000973268F093EC980F973258F093E7980F97
:1030C000933148F0815A873240F482E0089581E0DC
:1030D000089588E0089584E0089580E00895803898
:1030E00061F48091F0028530B9F186E092E00E94AF
:1030F0000207811131C085E0089590910E02992355
:10310000D9F0843039F0883039F0813009F049C085
:103110006FEF03C065E001C06BEF80910602772777
:1031200067FD7095680F711D86E092E00E9432077E
:103130000E94680D80E00895813099F561E070E0AB
:103140008091520290915302892B11F060E070E05F
:1031500082E00E94490B23C08091F002823049F442
:10316000E0913502F091360282818F34C1F083E024
:103170000895833049F4E0913702F091380282815A
:103180008F3469F084E00895843049F4E091390285
:10319000F0913A0282818F3411F082E008950E940A
:1031A000680D81E008958AEF91E00E94C61FE091CA
:1031B000FA01F091FB010280F381E02D40E150E043
:1031C00067EF72E08AEF91E0099541E060E08AEFF5
:1031D00091E00E94CD1FE091FA01F091FB01028085
:1031E000F381E02D40E150E067E073E08AEF91E089
:1031F000099581E00895803811F40C94D3188091DA
:10320000F1020895843011F0883071F481E090E08B
:103210002091290330912A03232B11F080E090E0C4
:1032200090932A038093290341E060E08AEF91E0C4
:103230000E94CD1F8091290390912A03892B19F0B8
:103240008AE393E002C086E393E060E00C94480DCB
:10325000CF93C82F803869F461E08DED92E00E9431
:10326000480D20910E0230E030932A032093290369
:1032700019C08034B9F481E02091290330912A03E8
:10328000232B09F480E090910E02891759F08111E7
:1032900005C080910C0290910D0202C080E090E088
:1032A0000E94E20C8C2F0E94021981E0CF910895B8
:1032B00020E040E2FB013191BF01311102C030E258
:1032C00012C02132E0F73C3231F0FC01E20FF11D77
:1032D00037872F5FEFCF203168F7FC01E20FF11D38
:1032E00047872F5FF8CFFC01213228F4E20FF11D50
:1032F00037872F5FF8CF2085283119F068E10C94CB
:103300008D1A0C94D3182BE438E148E853E061EFB0
:1033100073E088EE92E00C94851AFF920F931F934E
:10332000CF93DF93182F803851F461E088E493E065
:103330000E94480D10922A03109229032FC0803456
:1033400069F52091290330912A03232B39F181E07B
:103350000E94430FCEE3D3E0FF24F394FE010491D7
:103360000023D1F080912F0381110AC0F0922F0326
:103370001092300364E270E082E593E00E9406035D
:1033800080913003802780933003602F82E593E0A3
:103390000E94AD232196E2CF0E949C10812F0E94B3
:1033A000021981E0DF91CF911F910F91FF90089555
:1033B000CF92DF92EF92FF920F931F93CF93DF9301
:1033C0001F92CDB7DEB78C01E62E6C01F12CD60131
:1033D0009C91892F8F778E111CC011964C93119759
:1033E00012968C9112978230A1F0423091F0692FA1
:1033F000661F6627661F6427681759F012966C933C
:10340000D8015296ED91FC9153978F2D49830995E0
:103410004981F394B3E0CB0ED11CE4E0FE12D7CF88
:103420000F90DF91CF911F910F91FF90EF90DF9060
:10343000CF900895CF92DF92EF92FF920F931F9358
:10344000CF93DF93EC010E94CC21CC84DD84EE8409
:10345000FF842989222331F08B010C191D09043FB7
:103460001140A0F10E94CC216C877D878E879F87B9
:1034700081E0898B88898F5F888B00E010E0F12CD8
:103480008889DE01A00FB11F80FF0CC011968C91BE
:1034900011978230A9F412968C93129711961C9270
:1034A000119708C012968C911297823049F41296A7
:1034B0001C921297EA89FB8912966C918F2D0995BF
:1034C000F3940D5F1F4F84E0F812DACFDF91CF91B4
:1034D0001F910F91FF90EF90DF90CF900895DC0146
:1034E000862F262F30E0F901EE0FFF1FE20FF31FAA
:1034F000EA0FFB1F40839281913031F45296ED9197
:10350000FC91539760E009940895FC0171836083F6
:10351000538342833783268308950F931F93CF935A
:10352000DF931F92CDB7DEB78C01DC0118968C912A
:10353000189719968C93623008F443C0D8011896F6
:103540008C91681709F43DC0D8011496ED91FC9157
:103550001597309759F03196259134912115310501
:1035600029F080E46983F90109956981D8011896E9
:103570006C9318972D913C91119715963C932E932F
:103580001497D8011496ED91FC9115978491882396
:1035900011F0861303C03097A1F007C03496D8010C
:1035A0001596FC93EE931497ECCF319625913491B8
:1035B0002115310509F4BFCF80E8F9010995682F7D
:1035C000BACF0E94CC21F8016387748785879687DC
:1035D0000F90DF91CF911F910F910895CF92DF92BD
:1035E000EF92FF921F93CF93DF93EC01EE81FF8167
:1035F0000995182F0E94CC216B017C014B855C85BD
:103600006D857E85C41AD50AE60AF70A11111AC01B
:10361000EC81FD81309709F461C03396E4912E2F3F
:1036200030E0A8EEB3E00E94FB2961157105810529
:10363000910509F453C06C157D058E059F0508F4AE
:1036400045C04CC08AEFC816D104E104F10408F467
:103650004CC0103221F01A87112309F446C00E9491
:10366000CC216B877C878D879E87EC81FD8130978D
:1036700019F42A813B8110C031962591349121158E
:103680003105B9F3812FF90109958130A1F4F1CF0A
:10369000981741F02D5F3F4FF90194918885911162
:1036A000F7CF09C0F9013196E491E123E113F2CF9C
:1036B000F90132968491682FCE01DF91CF911F914D
:1036C000FF90EF90DF90CF900C948D1AFAEFCF1609
:1036D000D104E104F10448F010E2C1CF8AEFC8162A
:1036E000D104E104F10408F0B6CFDF91CF911F912E
:1036F000FF90EF90DF90CF900895FC0182818617B4
:1037000019F062831182108208950F931F93CF9353
:10371000DF93EC018B010E94CC216B837C838D8332
:103720009E83F801818185FD02C080E001C082E0B6
:10373000F801938197FD81609F779F3709F084603E
:103740008F830E94631F88878F81F801428182FFE7
:103750001CC04A3A21F151815F70242F30E084E08F
:10376000359527958A95E1F76AE0629FC001639FCE
:10377000900D1124F4E65F9F800D911D11244F7070
:10378000840F911D8059914006C0F80121812F704E
:10379000842F90E0922B9983888381E001C080E0A0
:1037A000DF91CF911F910F910895CF93DF93EC019B
:1037B000862F9881911104C00E94FE1E81E08883AB
:1037C000DF91CF9108958F929F92AF92BF92EF9227
:1037D000FF920F931F93CF93DF938C01EC012896F8
:1037E0007C012CE2E20EF11C8A818F3FE9F00E94FD
:1037F000CC218B809C80AD80BE80681979098A09B4
:103800009B0961327F4B8240910570F0D80115967B
:10381000ED91FC911697309719F064E0CE0109956F
:103820006FEFCE010E947D1B2996CE15DF05E1F6D4
:10383000DF91CF911F910F91FF90EF90BF90AF90CC
:103840009F908F90089520E030E040E0FC01E20F6F
:10385000F31F52855F3F39F04F5F275F3F4F443082
:10386000A9F78FEF0895842F089520E030E040E01D
:10387000FC01E20FF31F5285561739F04F5F275FA7
:103880003F4F4430A9F78FEF0895842F0895CF93C9
:10389000DF9300D000D0CDB7DEB7FC018081882354
:1038A00091F084A58F5F84A7853068F014A68FE916
:1038B000898380EC8A836B838FE78C8364E0CE01FD
:1038C00001960E94F31E0F900F900F900F90DF91C2
:1038D000CF910895CF92DF92EF92FF920F931F93B3
:1038E000CF93DF931F92CDB7DEB76C01DC018C91D3
:1038F000882309F460C010E029E0E22E0E94BB1E7C
:10390000882309F453C00E94CC21F601618372839D
:1039100083839483909142038781911140C08F3FAC
:1039200011F08F5F8783809138038F70F4E08F9F51
:10393000C0011124F0903903F294F694F69493E0C8
:10394000F922F82A6F2DC6010E94351C8F3F39F4E9
:10395000C6010E94231C8F3F39F123E001C022E001
:103960008601E89E000D111D1124085F1F4F6F2D69
:10397000C80129830E947D1B68E373E0C8010E948F
:10398000851B2981882381F0D6011596ED91FC9144
:103990001697309749F0622FC801099505C0882312
:1039A00019F08150F601878311E0A8CFC6010E946B
:1039B000E31B812F01C080E00F90DF91CF911F9119
:1039C0000F91FF90EF90DF90CF9008950F931F938A
:1039D000CF93DF93EC018881882309F461C0E9E388
:1039E000F4E084918F010F5F1F4F882321F00E9424
:1039F0004D0AF801F6CF4AE050E06F818BE293E088
:103A00000E940E262A9610E088818F3FF1F08CE20A
:103A10000E944D0A4AE050E068818BE293E00E94E8
:103A20000E268CE20E944D0A4AE050E06D818BE246
:103A300093E00E940E268CE20E944D0A4AE050E07C
:103A40006E818BE293E00E940E261F5F2996143050
:103A5000D9F66AE270E082E593E00E940603609185
:103A6000300362956F706A3010F4605D01C0695C6C
:103A700082E593E00E94AD23609130036F706A305D
:103A800010F4605D01C0695C82E593E00E94AD23A3
:103A90006AE070E082E593E00E94060310922F0333
:103AA000DF91CF911F910F91089510922E031092E4
:103AB0002D0384E091E090932C0380932B030895D1
:103AC000569A0895EFE6F0E080818D7F80835E98BE
:103AD00008951F920F920FB60F9211242F933F93C8
:103AE0004F935F936F937F938F939F93AF93BF9306
:103AF000EF93FF938091310390913203892BF1F082
:103B0000809188009091890086509F4F80342CE9E5
:103B1000920710F080E090E09093890080938800F5
:103B200080913103909132030197909332038093F7
:103B300031038BB190E489278BB902C00E94621DCA
:103B4000FF91EF91BF91AF919F918F917F916F9175
:103B50005F914F913F912F910F900FBE0F901F904B
:103B60001895CF93DF931F92CDB7DEB769830E947C
:103B7000621D698188E0689FB0011124709332034F
:103B800060933103EFE6F0E08081826080830F90E4
:103B9000DF91CF9108952CB521602CBD2A989EBD50
:103BA0000DB407FEFDCF2EB530E0322F22278EBD9B
:103BB0000DB407FEFDCF9EB52A9A8CB58E7F8CBDC5
:103BC000A901492BCA010895229A2A9A61E08BE043
:103BD0000E94A52260E08CE00E94A52261E08DE0B9
:103BE0000E94A52280E58CBD8DB581608DBD62E00F
:103BF00082E00C94A522682788E091E367FF03C068
:103C0000660F692701C0660F8150C1F7862F08959E
:103C10001F93CF93DF9380E090E00E94CB1D192F7C
:103C20009093360380914303843009F05BC080E0B9
:103C300090EB0E94CB1DEC018091440363E00E9455
:103C40009F29911113C0117080913503E12FF0E08D
:103C5000E80FF11DE80FF11DE85FFE4F80818093B2
:103C6000350390E0806A94690E94CB1D80914403E3
:103C700081111EC09E01332744E0359527954A9552
:103C8000E1F72E5F3F4F35952795209337038091BD
:103C90003703823008F467C0809137038B3008F017
:103CA00062C0E0913303F0913403309709F0099535
:103CB000E091440381E08E0F80934403F0E0E85CE0
:103CC000FC4FC083809142036C2F0E94FB1D8093A8
:103CD00042039091440380913703981348C089E0D0
:103CE00092E83CC08091430387FF15C0E091370301
:103CF0008091430391E0980F90934303E80FF0E025
:103D0000E85CFC4FC081809142036C2F0E94FB1D38
:103D10008093420320C08091430391E0980F9093D9
:103D20004303823099F02CF4811114C0C0914203F6
:103D300012C0853049F0863069F48091370381954F
:103D400080934303C4ED07C0CDE205C089E092E84B
:103D50000E94CB1DCAEA8C2F90E09854DF91CF913E
:103D60001F910C94CB1D82E0809337039ACFDF9193
:103D7000CF911F91089580914303843031F4909145
:103D80003703809144039817E9F08091430383300F
:103D9000B9F410924403109242038FEF80933703DB
:103DA00084E080934303F89483E08093350383EAAF
:103DB00094E90E94CB1D89ED92E80E94CB1D789476
:103DC00080E0089583E08093430381E00895F894B0
:103DD0001092420385E08093430389E392E80E94B6
:103DE000CB1D7894089560933703462F50E0BC01B3
:103DF00088E393E00E94432A0C94E71ECF93C82FD8
:103E00000E94E41D80E090E00E94CB1D81E092E8DA
:103E10000E94CB1D80E098EB0E94CB1D82E00E94A7
:103E20001423892B19F480E090E0F6CF20E1C29FA3
:103E3000C0011124876C90680E94CB1DC23029F00C
:103E4000C33031F483ED97EA05C08CE796EA02C0EF
:103E500080E496EA0E94CB1D83E196EC0E94CB1D84
:103E600082EA94E90E94CB1D8CEA92EC0E94CB1D61
:103E700083E89AEC0E94CB1D84ED9EEC0E94CB1D42
:103E800087EB94EC0E94CB1D80E398E90E94CB1D48
:103E900086E79CEC0E94CB1D80E090EE0E94CB1D3B
:103EA00080E098EC0E94CB1D80E090EC0E94CB1D3E
:103EB00083E08093430340E050E068E07EE180E0EF
:103EC000CF910C9408218091350386950895DC01EB
:103ED000ED91FC910480F581E02D41E0099581E0B0
:103EE00090E008956230E0F421E030E0062E01C059
:103EF000220F0A94EAF7DC0114965C91149744238C
:103F000021F0252B14962C9304C020952523FC0129
:103F10002483DC01ED91FC910084F185E02D09946E
:103F20000895EF92FF920F931F93CF93DF931F9209
:103F3000CDB7DEB78C017B01460F4E1581F0F7013E
:103F40006491D801ED91FC910190F081E02DC801C0
:103F500049830995BFEFEB1AFB0A4981EECF0F9019
:103F6000DF91CF911F910F91FF90EF900895DC01A9
:103F7000ED91FC910480F581E02D40E0099461E031
:103F80000E94B71F80ED97E00C94D82162E00E9458
:103F9000B71F80ED97E00C94D821CF93DF9300D02A
:103FA00000D0CDB7DEB7198220E42A8324E12B8329
:103FB00024E52C83FC012085241710F44FEF420FD9
:103FC000FE01E40FF11D2181260F2068622F0F9062
:103FD0000F900F900F90DF91CF910C94B71FFC01C1
:103FE0006681262F246026836C600C94B71FCF93C4
:103FF000DF93EC01623018F088E0888701C01886F2
:104000008885411184608D8380E090E40E94D821EE
:1040100080E090E40E94D82180E090E40E94D821C2
:10402000E881F9810680F781E02D60E3CE010995F2
:1040300084E991E10E94D821E881F9810680F78125
:10404000E02D60E3CE01099586E990E00E94D82139
:10405000E881F9810680F781E02D60E3CE010995C2
:10406000E881F9810680F781E02D60E2CE010995B3
:104070006D816062CE010E94B71F84E08E83CE0105
:104080000E94EF1FCE010E94BF1F82E08F8366E077
:10409000CE01DF91CF910C94B71F0F931F93CF9355
:1040A000DF93EC018A01677088E0689FB0011124FA
:1040B0006064CE010E94B71F48E0B801CE010E94A3
:1040C000911F60E8CE01DF91CF911F910F910C9469
:1040D000B71F1F93CF93DF93EC011FB7F8946EBD0A
:1040E0000DB407FEFDCFEA85FB8580819985892B7C
:1040F000808381E090E00E94D821EA85FB85908151
:1041000089858095892380831FBFDF91CF911F917F
:1041100008950F931F93CF93DF93EC01162F042F75
:104120001B821A8228E131E03983288361E08BE029
:104130000E94A52261E08DE00E94A52261E08AE054
:104140000E94A52261E08AE00E94DE2281E58CBD0A
:10415000212F30E0F901E75AFB4FE491E987F9019B
:10416000E359FB4FE491F0E0EE0FFF1FE557FB4FE3
:10417000259134913B872A8761E0812F0E94A522F7
:1041800060E0CE010E94692040E0602FCE01DF9107
:10419000CF911F910F910C94F71FFC0164810C9437
:1041A00069201F93CF93DF93EC01162F68600E9464
:1041B0006920612F677FCE01DF91CF911F910C9411
:1041C00069200F931F93CF93DF93EC01062F4111CA
:1041D00044E01C81142B602F607F612BCE010E9474
:1041E000D12080E1089FB0011124612BCE010E94F3
:1041F000D12088E290E0DF91CF911F910F910C9434
:10420000D821607F0E94D12088E290E00C94D821D0
:104210008230E8F4E82FF0E0EE0FFF1FEB5BFC4F7D
:1042200071836083813041F0809169008C7F842BA1
:1042300080936900E89A089580916900440F551FA2
:10424000440F551F837F842B80936900E99A08955A
:104250001F920F920FB60F9211242F933F934F93FB
:104260005F936F937F938F939F93AF93BF93EF93DE
:10427000FF938091450390914603892B29F0E091AB
:104280004503F09146030995FF91EF91BF91AF91DE
:104290009F918F917F916F915F914F913F912F915E
:1042A0000F900FBE0F901F9018951F920F920FB690
:1042B0000F9211242F933F934F935F936F937F93AC
:1042C0008F939F93AF93BF93EF93FF938091470397
:1042D00090914803892B29F0E0914703F09148031E
:1042E0000995FF91EF91BF91AF919F918F917F9130
:1042F0006F915F914F913F912F910F900FBE0F9053
:104300001F9018951F920F920FB60F9211242F93A2
:104310003F938F939F93AF93BF9380914A03909164
:104320004B03A0914C03B0914D033091490323E01E
:10433000230F2D3720F40196A11DB11D05C026E8DD
:10434000230F0296A11DB11D2093490380934A03B8
:1043500090934B03A0934C03B0934D0380914E0375
:1043600090914F03A0915003B09151030196A11D6C
:10437000B11D80934E0390934F03A0935003B093CD
:104380005103BF91AF919F918F913F912F910F90CA
:104390000FBE0F901F9018952FB7F89460914A03A5
:1043A00070914B0380914C0390914D032FBF089562
:1043B000019739F0880F991F880F991F029701976D
:1043C000F1F70895789484B5826084BD84B58160E6
:1043D00084BD85B5826085BD85B5816085BDEEE60D
:1043E000F0E0808181608083E1E8F0E010828081EC
:1043F00082608083808181608083E0E8F0E080815A
:1044000081608083E1EBF0E0808184608083E0EB79
:10441000F0E0808181608083EAE7F0E08081846061
:1044200080838081826080838081816080838081BD
:10443000806880831092C10008951F93CF93DF930B
:10444000182FEB0161E00E94A522209711F460E093
:1044500004C0CF3FD10539F461E0812FDF91CF91C6
:104460001F910C94DE22E12FF0E0EB5BFB4FE49117
:10447000E330F9F048F4E130B9F0E230A1F584B569
:10448000806284BDC8BD34C0E730E9F0E83019F17E
:10449000E43049F580918000806280938000D09361
:1044A0008B00C0938A0024C084B5806884BDC7BDDA
:1044B0001FC080918000806880938000D093890025
:1044C000C093880015C08091B00080688093B000D0
:1044D000C093B3000DC08091B00080628093B000A3
:1044E000C093B40005C0C038D1050CF0B5CFAFCF34
:1044F000DF91CF911F910895833081F028F48130AE
:1045000099F08230A1F008958730A9F08830B9F091
:104510008430D1F4809180008F7D03C08091800031
:104520008F7780938000089584B58F7702C084B51B
:104530008F7D84BD08958091B0008F7703C08091F6
:10454000B0008F7D8093B0000895CF93DF9390E00B
:10455000FC01E75AFB4F2491FC01E359FB4F849186
:10456000882349F190E0880F991FFC01EB56FB4F1F
:10457000A591B49185579B4FFC01C591D4919FB7EC
:10458000611108C0F8948C91209582238C938881C6
:1045900082230AC0623051F4F8948C91322F309506
:1045A00083238C938881822B888304C0F8948C9118
:1045B000822B8C939FBFDF91CF9108950F931F9310
:1045C000CF93DF931F92CDB7DEB7282F30E0F901EC
:1045D000EB5BFB4F8491F901E75AFB4F1491F90112
:1045E000E359FB4F04910023C9F0882321F069832C
:1045F0000E947C226981E02FF0E0EE0FFF1FE5575B
:10460000FB4FA591B4919FB7F8948C91611103C0B1
:104610001095812301C0812B8C939FBF0F90DF9158
:10462000CF911F910F910895CF93DF93282F30E002
:10463000F901EB5BFB4F8491F901E75AFB4FD491F1
:10464000F901E359FB4FC491CC2391F081110E94F1
:104650007C22EC2FF0E0EE0FFF1FEF57FB4FA591F0
:10466000B4912C912D2381E090E021F480E002C0F0
:1046700080E090E0DF91CF910895FC01818D228D43
:1046800090E0805C9F4F821B91098F73992708955A
:10469000FC01918D828D981731F0828DE80FF11D0C
:1046A000858D90E008958FEF9FEF0895FC01918D27
:1046B000828D981761F0828DDF01A80FB11D5D9684
:1046C0008C91928D9F5F9F73928F90E008958FEFF2
:1046D0009FEF0895FC01848DDF01A80FB11DA35A3F
:1046E000BF4F2C91848D90E001968F739927848F12
:1046F000A689B7892C93A089B1898C9180648C9309
:10470000938D848D981306C00288F389E02D8081F3
:104710008F7D80830895CF93DF93EC01888D88236C
:10472000C9F0EA89FB89808185FD05C0A889B9891E
:104730008C9186FD0FC00FB607FCF5CF808185FFF9
:10474000F2CFA889B9898C9185FFEDCFCE010E9467
:104750006A23E7CFDF91CF910895CF92DF92FF9246
:104760000F931F93CF93DF931F92CDB7DEB76C01EA
:10477000DC015B969C915B975C968C915C9798139F
:1047800007C05096ED91FC915197808185FD32C014
:10479000F601038D10E00F5F1F4F0F731127F02EEE
:1047A000F601848DF81211C00FB607FCF9CFD601BF
:1047B0005096ED91FC915197808185FFF1CFC60114
:1047C00069830E946A236981EBCF838DE80FF11D15
:1047D000E35AFF4F6083D6015B960C935B9752962A
:1047E000ED91FC91539780818062808381E058969F
:1047F0008C930DC0D6015696ED91FC91579760832E
:104800005096ED91FC91519780818064808381E086
:1048100090E00F90DF91CF911F910F91FF90DF906B
:10482000CF900895BF92CF92DF92EF92FF92CF93F5
:10483000DF93EC016A017B01B22EE889F98982E0FD
:104840008083411581EE580761057105A1F060E094
:1048500079E08DE390E0A70196010E94D3292150D1
:1048600031094109510956954795379527952115E5
:1048700080E1380798F0E889F989108260E874E8E7
:104880008EE190E0A70196010E94D32921503109C1
:10489000410951095695479537952795EC85FD8532
:1048A0003083EE85FF852083188EEC89FD89B082E8
:1048B000EA89FB89808180618083EA89FB89808124
:1048C00088608083EA89FB89808180688083EA89A7
:1048D000FB8980818F7D8083DF91CF91FF90EF9066
:1048E000DF90CF90BF9008951F920F920FB60F9256
:1048F00011242F938F939F93EF93FF93E091620383
:10490000F09163038081E0916803F091690382FD77
:1049100012C0908180916B038F5F8F7320916C0325
:10492000821751F0E0916B03F0E0EE5AFC4F958F47
:1049300080936B0301C08081FF91EF919F918F91D4
:104940002F910F900FBE0F901F9018951F920F92EE
:104950000FB60F9211242F933F934F935F936F9352
:104960007F938F939F93AF93BF93EF93FF9382E5D2
:1049700093E00E946A23FF91EF91BF91AF919F91C5
:104980008F917F916F915F914F913F912F910F90F8
:104990000FBE0F901F90189510925503109254035C
:1049A00088EE93E0A0E0B0E0809356039093570325
:1049B000A0935803B093590386E291E09093530378
:1049C0008093520385EC90E090935F0380935E03A5
:1049D00084EC90E0909361038093600380EC90E01E
:1049E000909363038093620381EC90E0909365035E
:1049F0008093640382EC90E0909367038093660356
:104A000086EC90E0909369038093680310926B03A7
:104A100010926C0310926D0310926E030895CF9262
:104A2000DF92EF92FF920F931F93CF93DF936C016E
:104A30007A01EB01E60EF71E00E010E0CE15DF056F
:104A400061F06991D601ED91FC910190F081E02D2A
:104A5000C6010995080F191FF1CFC801DF91CF9149
:104A60001F910F91FF90EF90DF90CF900895611507
:104A7000710581F0DB010D900020E9F7AD01415097
:104A80005109461B570BDC01ED91FC910280F3812B
:104A9000E02D099480E090E008950C943725DC0126
:104AA000ED91FC910190F081E02D09948F929F92FD
:104AB000AF92BF92CF92DF92EF92FF920F931F932C
:104AC000CF93DF93CDB7DEB7A1970FB6F894DEBFD3
:104AD0000FBECDBF7C01C42EE52FCB01D22E19A273
:104AE00021E02D1510F02AE0D22E8E010F5D1F4F10
:104AF0008D2C912CA12CB12C6C2D7E2FA501940115
:104B00000E94D3298C2DD29E8019112401501109A5
:104B10008A3014F4805D01C0895CF801808321151E
:104B200031054105510521F0C22EE32FCA01E4CF22
:104B3000B801C7010E943725A1960FB6F894DEBFD1
:104B40000FBECDBFDF91CF911F910F91FF90EF90DE
:104B5000DF90CF90BF90AF909F908F900895CF92AD
:104B6000DF92EF92FF920F931F93CF93DF93EC01AD
:104B70006A017B012115310579F4E881F981019001
:104B8000F081E02D642FDF91CF911F910F91FF9065
:104B9000EF90DF90CF9009942A303105E9F477FF48
:104BA0001AC06DE20E944F258C0144275527BA0197
:104BB0004C195D096E097F092AE0CE010E94562535
:104BC000800F911FDF91CF911F910F91FF90EF9078
:104BD000DF90CF9008952AE0B701A601CE01DF91C2
:104BE000CF911F910F91FF90EF90DF90CF900C9499
:104BF00056259A01AB01662757FD6095762F0C94D8
:104C0000AF252115310541F4DC01ED91FC910190B6
:104C1000F081E02D642F09940C9456259A01462FBB
:104C200050E060E070E00C9401269A01AB0160E076
:104C300070E00C9401264F925F926F927F928F9258
:104C40009F92AF92BF92CF92DF92EF92FF920F931B
:104C50001F93CF93DF93EC016A017B01B22E9A017F
:104C6000AB01C701B6010E946829882319F062E3ED
:104C700071E027C026013701E89477F82FEF3FEF66
:104C80004FE75FE7C301B2010E94682981110DC09F
:104C90002FEF3FEF4FE75FE7C301B2010E946D279F
:104CA00018161CF466E371E00CC02FEF3FEF4FE7DE
:104CB0005FE4C701B6010E94BC281816ACF46AE391
:104CC00071E0CE01DF91CF911F910F91FF90EF9096
:104CD000DF90CF90BF90AF909F908F907F906F901C
:104CE0005F904F900C9437252FEF3FEF4FE75FEC2D
:104CF000C701B6010E946D2787FDE1CF20E030E0BB
:104D0000A901C701B6010E946D2787FF0AC06DE2A5
:104D1000CE010E944F258C01F7FAF094F7F8F09439
:104D200002C000E010E0A12C60E070E080E09FE3B2
:104D3000AB1441F020E030E040E251E40E947127E2
:104D4000A394F6CF9B01AC01C701B6010E940927CD
:104D50006B017C010E94DE272B013C010E940A2886
:104D60009B01AC01C701B6010E9408276B017C01C1
:104D70002AE0B301A201CE010E945625080F191F97
:104D8000BB2039F06EE371E0CE010E943725080F99
:104D9000191F7B2C772041F120E030E040E251E404
:104DA000C701B6010E9405296B017C010E94D92729
:104DB0004B01AA2497FCA094BA2C2AE030E0B5015C
:104DC000A401CE010E94AF25080F191FC501B4012F
:104DD0000E940C289B01AC01C701B6010E94082764
:104DE0006B017C017A94D6CFC801DF91CF911F91DE
:104DF0000F91FF90EF90DF90CF90BF90AF909F907A
:104E00008F907F906F905F904F9008950C941B2629
:104E10005058BB27AA270ED075C166D130F06BD190
:104E200020F031F49F3F11F41EF45BC10EF4E095C5
:104E3000E7FB51C1E92F77D180F3BA1762077307F7
:104E40008407950718F071F49EF58FC10EF4E09574
:104E50000B2EBA2FA02D0B01B90190010C01CA0134
:104E6000A0011124FF27591B99F0593F50F4503EDF
:104E700068F11A16F040A22F232F342F4427585FD1
:104E8000F3CF469537952795A795F0405395C9F7E9
:104E90007EF41F16BA0B620B730B840BBAF09150A1
:104EA000A1F0FF0FBB1F661F771F881FC2F70EC040
:104EB000BA0F621F731F841F48F487957795679513
:104EC000B795F7959E3F08F0B3CF9395880F08F0FC
:104ED0009927EE0F979587950895D9D008F481E02A
:104EE00008950CD00FC107D140F0FED030F021F46E
:104EF0005F3F19F0F0C0511139C1F3C014D198F3DC
:104F00009923C9F35523B1F3951B550BBB27AA274A
:104F100062177307840738F09F5F5F4F220F331FBC
:104F2000441FAA1FA9F333D00E2E3AF0E0E830D088
:104F300091505040E695001CCAF729D0FE2F27D08B
:104F4000660F771F881FBB1F261737074807AB0759
:104F5000B0E809F0BB0B802DBF01FF2793585F4FCE
:104F60002AF09E3F510568F0B6C000C15F3FECF3E8
:104F7000983EDCF3869577956795B795F7959F5F93
:104F8000C9F7880F911D9695879597F90895E1E0E7
:104F9000660F771F881FBB1F621773078407BA0746
:104FA00020F0621B730B840BBA0BEE1F88F7E095A1
:104FB000089504D06894B111D9C00895BCD088F088
:104FC0009F5790F0B92F9927B751A0F0D1F0660FF5
:104FD000771F881F991F1AF0BA95C9F712C0B13010
:104FE00081F0C3D0B1E00895C0C0672F782F882723
:104FF000B85F39F0B93FCCF3869577956795B3954F
:10500000D9F73EF490958095709561957F4F8F4FBD
:105010009F4F0895E89409C097FB3EF490958095C2
:10502000709561957F4F8F4F9F4F9923A9F0F92F6E
:1050300096E9BB279395F695879577956795B795EC
:10504000F111F8CFFAF4BB0F11F460FF1BC06F5FD2
:105050007F4F8F4F9F4F16C0882311F096E911C0E4
:10506000772321F09EE8872F762F05C0662371F005
:1050700096E8862F70E060E02AF09A95660F771F19
:10508000881FDAF7880F9695879597F90895990FF5
:105090000008550FAA0BE0E8FEEF16161706E80702
:1050A000F907C0F012161306E407F50798F0621B23
:1050B000730B840B950B39F40A2661F0232B242BF8
:1050C000252B21F408950A2609F4A140A6958FEF17
:1050D000811D811D089597F99F6780E870E060E069
:1050E00008959FEF80EC089500240A941616170681
:1050F00018060906089500240A94121613061406C9
:1051000005060895092E0394000C11F4882352F02B
:10511000BB0F40F4BF2B11F460FF04C06F5F7F4FE3
:105120008F4F9F4F089557FD9058440F551F59F0CA
:105130005F3F71F04795880F97FB991F61F09F3F84
:1051400079F087950895121613061406551FF2CFAD
:105150004695F1DF08C0161617061806991FF1CFFD
:1051600086957105610508940895E894BB27662724
:105170007727CB0197F908958ADF08F48FEF089518
:105180000EF0AAC0AECF6894A6CFD5DFC8F399239E
:10519000D1F3C6F3DF93CF931F930F93FF92C92FE1
:1051A000DD2788232AF02197660F771F881FDAF7FB
:1051B00020E030E040E85FEB9FE3883920F0803E5C
:1051C00030F021968F7725DEE6E7F0E003C021DEA0
:1051D000E3EAF0E08FD08B01BE01EC01FB2E6F57AC
:1051E00071097595771F880B990B16DF28E132E757
:1051F00041E35FE316D0AF2D9801AE01FF900F9110
:105200001F91CF91DF9116DE7DCF0BD07BCF6CDF6E
:1052100028F071DF18F0952309F05DCF62CF1124DB
:10522000A5CF81DFA0F3959FD1F3950F50E0551FD7
:10523000629FF001729FBB27F00DB11D639FAA27EB
:10524000F00DB11DAA1F649F6627B00DA11D661F3A
:10525000829F2227B00DA11D621F739FB00DA11D5B
:10526000621F839FA00D611D221F749F3327A00D15
:10527000611D231F849F600D211D822F762F6A2FB1
:1052800011249F5750408AF0E1F088234AF0EE0F36
:10529000FF1FBB1F661F771F881F91505040A9F743
:1052A0009E3F510570F017CF61CF5F3FECF3983E02
:1052B000DCF3869577956795B795F795E7959F5FAA
:1052C000C1F7FE2B880F911D9695879597F9089544
:1052D000DEDE880B990B08959F3F31F0915020F44A
:1052E000879577956795B795880F911D96958795C2
:1052F00097F90895DF93CF931F930F93FF92EF9247
:10530000DF927B018C01689405C0DA2EEF0189DF02
:10531000FE01E894A5912591359145915591AEF303
:10532000EF0188DDFE019701A801DA9479F7DF909B
:10533000EF90FF900F911F91CF91DF910895991BEE
:1053400079E004C0991F961708F0961B881F7A957C
:10535000C9F780950895AA1BBB1B51E107C0AA1F7E
:10536000BB1FA617B70710F0A61BB70B881F991F06
:105370005A95A9F780959095BC01CD01089597FBAA
:10538000072E16F4009407D077FD09D00E94AB29B0
:1053900007FC05D03EF4909581959F4F0895709538
:1053A00061957F4F0895A1E21A2EAA1BBB1BFD0138
:1053B0000DC0AA1FBB1FEE1FFF1FA217B307E407F4
:1053C000F50720F0A21BB30BE40BF50B661F771F4C
:1053D000881F991F1A9469F760957095809590952C
:1053E0009B01AC01BD01CF010895EE0FFF1F059099
:1053F000F491E02D0994A29FB001B39FC001A39F37
:10540000700D811D1124911DB29F700D811D1124FD
:10541000911D0895662777270C94732CFC0188272B
:105420009927E89421912032E9F3293010F02E30A9
:10543000C8F32B3241F02D3239F4689404C00E9435
:10544000532A820F911D219120532A30C0F31EF45C
:10545000909581959F4F0895FB01DC0102C0059056
:105460000D9241505040D8F70895FB01DC014150A6
:10547000504030F08D910590801919F40020B9F753
:10548000881B990B0895FB01DC0102C001900D926D
:1054900041505040D8F70895DC0101C06D93415050
:1054A0005040E0F708957AE0979F902D879F802DD8
:1054B000910D11240895AEE0B0E0E1E6FAE20C941B
:1054C000B82E0D891E898F89988D2EE02C831A8322
:1054D000098397FF02C080E090E801979E838D8347
:1054E000AE01455E5F4F698D7A8DCE0101960E94B7
:1054F0008B2A4D815E8157FD0AC02F813885421766
:1055000053070CF49A01F801E20FF31F10822E9654
:10551000E4E00C94D42EACE0B0E0E1E9FAE20C94C3
:10552000AA2E7C016B018A01FC01178216828381FD
:1055300081FFBDC1CE0101964C01F7019381F601B7
:1055400093FD859193FF81916F01882309F4ABC18D
:10555000853239F493FD859193FF81916F018532F6
:1055600029F4B70190E00E940C2EE7CF512C312C8A
:1055700020E02032A0F48B3269F030F4803259F010
:10558000833269F420612CC08D3239F0803339F4D4
:10559000216026C02260246023C0286021C027FD2E
:1055A00027C030ED380F3A3078F426FF06C0FAE015
:1055B0005F9E300D1124532E13C08AE0389E300DAB
:1055C0001124332E20620CC08E3221F426FD6BC1D3
:1055D000206406C08C3611F4206802C0883641F47D
:1055E000F60193FD859193FF81916F018111C1CFE8
:1055F000982F9F7D9554933028F40C5F1F4FFFE345
:10560000F9830DC0833631F0833771F0833509F0AB
:105610005BC022C0F801808189830E5F1F4F442444
:105620004394512C540115C03801F2E06F0E711CE7
:10563000F801A080B18026FF03C0652D70E002C094
:105640006FEF7FEFC5012C870E94012E2C01830193
:105650002C852F77222E17C03801F2E06F0E711CB7
:10566000F801A080B18026FF03C0652D70E002C064
:105670006FEF7FEFC5012C870E94F62D2C012C8542
:105680002068222E830123FC1BC0832D90E0481646
:105690005906B0F4B70180E290E00E940C2E3A94D3
:1056A000F4CFF50127FC859127FE81915F01B701B9
:1056B00090E00E940C2E31103A94F1E04F1A5108FC
:1056C0004114510471F7E5C0843611F0893639F57B
:1056D000F80127FF07C060817181828193810C5F8F
:1056E0001F4F08C060817181882777FD8095982FB2
:1056F0000E5F1F4F2F76B22E97FF09C090958095B1
:10570000709561957F4F8F4F9F4F2068B22E2AE092
:1057100030E0A4010E943E2EA82EA81844C0853770
:1057200029F42F7EB22E2AE030E025C0F22FF97F37
:10573000BF2E8F36C1F018F4883579F0B4C08037A9
:1057400019F0883721F0AFC02F2F2061B22EB4FEA0
:105750000DC08B2D8460B82E09C024FF0AC09F2F76
:105760009660B92E06C028E030E005C020E130E0A8
:1057700002C020E132E0F801B7FE07C0608171810C
:10578000828193810C5F1F4F06C06081718180E030
:1057900090E00E5F1F4FA4010E943E2EA82EA81875
:1057A000FB2DFF77BF2EB6FE0BC02B2D2E7FA51431
:1057B00050F4B4FE0AC0B2FC08C02B2D2E7E05C0EA
:1057C0007A2C2B2D03C07A2C01C0752C24FF0DC020
:1057D000FE01EA0DF11D8081803311F4297E09C09C
:1057E00022FF06C07394739404C0822F867809F058
:1057F000739423FD13C020FF06C05A2C731418F4B1
:10580000530C5718732C731468F4B70180E290E0BE
:105810002C870E940C2E73942C85F5CF731410F4F2
:10582000371801C0312C24FF12C0B70180E390E08B
:105830002C870E940C2E2C8522FF17C021FF03C04D
:1058400088E590E002C088E790E0B7010CC0822FA5
:10585000867859F021FD02C080E201C08BE227FD6D
:105860008DE2B70190E00E940C2EA51438F4B70128
:1058700080E390E00E940C2E5A94F7CFAA94F40192
:10588000EA0DF11D8081B70190E00E940C2EA1105D
:10589000F5CF332009F451CEB70180E290E00E94A9
:1058A0000C2E3A94F6CFF7018681978102C08FEFD4
:1058B0009FEF2C96E2E10C94C62EF999FECF92BD93
:1058C00081BDF89A992780B50895262FF999FECFC2
:1058D0001FBA92BD81BD20BD0FB6F894FA9AF99A0D
:1058E0000FBE01960895A0E0B0E0E9E7FCE20C9459
:1058F000B02E8B016115710521F0DB018C9311969F
:105900009C93EC015E01BFEFAB1ABB0A7501C88026
:105910008C2D90E00E94D62D892B11F0E501F2CF5D
:10592000EDE2CE1208C07E01F2E0EF0EF11CC9805C
:10593000DD24D39409C02BE2C21205C07E0142E0EF
:10594000E40EF11CC980D12CE701219743E050E01F
:1059500067EA74E0CE010E94DE2D892BC1F4239604
:1059600045E050E062EA74E0CE010E94DE2D892B12
:1059700009F425960115110519F0D801CD93DC9392
:10598000D11006C160E070E080E89FE70AC143E003
:1059900050E06FE974E0CE010E94DE2D892B59F4AE
:1059A0000115110509F4F9C0B2E0EB0EF11CF80184
:1059B000F182E082F2C0F70160E070E0CB01C0E06C
:1059C000D0E07F01A0EDAA2EAC0C29E02A1530F121
:1059D0004D2D4260B42E2D2D2870D2FE04C0211111
:1059E00025C0219623C021112197A5E0B0E09B019D
:1059F000AC010E949F2E660F771F881F991F6A0DAA
:105A0000711D811D911D6839A9E97A078A07A9E1ED
:105A10009A0760F0BD2DB660BB2E08C02EEFA21213
:105A20000AC0D3FC50C04D2D4860B42E3196D7012A
:105A3000CC90DB2CC6CF2C2D2F7D253409F043C014
:105A4000A081AD3241F4BD2DB061DB2E7F0122E09B
:105A5000E20EF11C0CC07F01AB3231F04FEFE41AC3
:105A6000F40A21E030E006C0A2E0EA0EF11CA181B8
:105A700022E030E0A053AA3018F0E21AF30A23C063
:105A8000F70120E030E02038BCE03B075CF4A901DE
:105A9000440F551F440F551F240F351F220F331F6E
:105AA0002A0F311DAF014F5F5F4F7A01A081A053D4
:105AB000AA3010F4FA01E7CFD4FE03C03195219546
:105AC0003109C20FD31FD1FE09C00115110531F0F4
:105AD000E1E0EE1AF108D801ED92FC920E940A284A
