:100000000C9471020C940B210C9438210C949F02D7
:100010000C949F020C949F020C949F020C949F02DC
:100020000C949F020C949F020C9408070C944C1D96
:100030000C940D030C949F020C949F020C949F024D
:100040000C9465210C949F020C9457240C948924E1
:100050000C949F020C9418030C949F020C949F0222
:100060000C949F020C949F02660B6E0B760B7E0B1A
:10007000860B8E0B960B08000000BE922449123EA0
:10008000ABAAAA2ABECDCCCC4C3E00000080BEABB1
:10009000AAAAAA3E00000000BF000000803F0000A6
:1000A000000000084178D3BB4387D1133D190E3CB3
:1000B000C3BD4282AD2B3E68EC8276BED98FE1A9EA
:1000C0003E4C80EFFFBE01C4FF7F3F0000000000F8
:1000D000484D50532C00484D415200484D53552C2B
:1000E00000484D50432C00484D524D00484D50445F
:1000F00000484D4C442C007265626F6F7400636F52
:100100006E666967007365743F74703D0073657453
:100110003F74743D007365743F666E3D0073657493
:100120003F616C3D007365743F7063007365743F9D
:10013000706E007365743F706964007365743F701E
:100140006F3D007365743F6C643D007365743F6C74
:10015000623D007365743F73703D00554349442C04
:100160004865617465724D657465722C3230313545
:100170003130323600484D414C00484D464E2C003F
:10018000484D4C422C00484D504E00484D504F00B9
:10019000252D313273253364DF005069743A2533DD
:1001A00064DF2563202563253375252525630050ED
:1001B00069743A253364DF2563204C6964253375FF
:1001C000002A2A20414C41524D2048494748202AC4
:1001D0002A002A2A20414C41524D204C4F572020C2
:1001E0002A2A000A050A050A3250726F6265202029
:1001F0000000000000000100D8FF38FF0000A99FA8
:100200008139F06375396A08153400401C460EF0D8
:10021000E10006F00000000000000080400AD7A3C3
:100220003C0000A04000327F7F7F7F46006410FFCB
:10023000640D0A0B0064C8000001020304050102FA
:100240002020052006060203070706060207070509
:10025000030402202005FF06060707050006060323
:100260000705010102200020000602030705000621
:1002700002202005070F1F1F1F1F1F1F1F1F1F000A
:10028000000000001C1E1F1F1F1F1F1F1F1F1F1FFE
:100290001F1F0F0700000000001F1F1F1F1F1F1F31
:1002A0001F1F1E1C1F1F1F0000001F1F1F0000001C
:1002B000001F1F1F2D204E6F205069742050726F39
:1002C0006265202D00253364DF25630053657420AB
:1002D00074656D70657261747572653A004D616E1A
:1002E00075616C2066616E206D6F6465004F666697
:1002F00073657420253464DF256300253364252568
:100300002062656C6F7720736574004C6964206FA0
:1003100070656E206F6666736574002533642073A4
:1003200065636F6E6473004C6964206F70656E2046
:1003300074696D6572004E6F200059657300484DF9
:1003400052432C5553455200526573657420636FB8
:100350006E6669673F0073706565642025336425A8
:1003600025004D6178696D756D206175746F20662B
:10037000616E002533642525004C43442062726978
:100380006768746E65737300022803020209020431
:1003900004032804030209030402042802040209D6
:1003A00004040305280205020905040409210209C1
:1003B000021313210213021515210215021616212C
:1003C0000216020D0D21020D020E0E21020E020F69
:1003D0000F21020F0210102102100211112102112F
:1003E0000212122102120214142102140209000046
:1003F0000002521805035218050452180505521838
:10040000010621180009EF170A130B190A0DAD1781
:100410000A0EAD170A0FAD170A10AD170A115617BD
:100420000A1281170A1470190A1626170A15EF16F0
:100430000A18DE181400000000484D52462C3235D0
:10044000352C302C000000000800020100000304DD
:100450000700000000000000000102040810204016
:100460008001020408102001020408102004040482
:10047000040404040402020202020203030303034D
:1004800003000000002300260029000000000025D2
:100490000028002B0000000000240027002A004E46
:1004A000414E494E495459494E46CDCCCC3D0AD7D0
:1004B000233C17B7D13877CC2B329595E6241FB162
:1004C0004F0A000020410000C84200401C4620BCEA
:1004D000BE4CCA1B0E5AAEC59D741C106619381D41
:1004E000AF2411241FBECFEFD8E0DEBFCDBF14BEB6
:1004F000E0E6F0E088E18083108211E0A0E0B1E066
:10050000ECE8FDE502C005900D92A034B107D9F7E3
:1005100023E0A0E4B1E001C01D92A03FB207E1F7E3
:1005200014E0C2EED4E004C02297FE010E94DA2952
:10053000CA3DD107C9F70E941D0B0C94C42E0C9420
:100540000000EF92FF920F931F93CF93DF931F92C0
:10055000CDB7DEB77C01415068F08B010F5F1F4FB4
:10056000CB0149830E94402CF70181937F01B801A0
:100570004981F1CF0F90DF91CF911F910F91FF90A3
:10058000EF900895EF92FF920F931F93CF93DF9315
:100590001F92CDB7DEB77C01CB01460F481761F043
:1005A000F70161917F018C010F5F1F4F49830E940A
:1005B000482CC8014981F2CF0F90DF91CF911F9154
:1005C0000F91FF90EF900895CF93DF9300D0CDB7B8
:1005D000DEB77A83698342E0BC01CE0101960E94B6
:1005E000C2020F900F90DF91CF910895CF93DF93C8
:1005F0001F92CDB7DEB7698341E0BC01CE01019601
:100600000E94C2020F90DF91CF910895DC01ED911D
:10061000FC910190F081E02D09941F920F920FB68A
:100620000F92112428980F900FBE0F901F901895CD
:100630001F920F920FB60F921124CF92DF92EF927A
:10064000FF920F931F932F933F934F935F936F935B
:100650007F938F939F93AF93BF93CF93DF93EF934A
:10066000FF9380914601882321F0815080934601B9
:1006700097C0409141014150409341012091780041
:10068000309179008091420190914301A091440101
:10069000B0914501820F931FA11DB11D80934201AE
:1006A00090934301A0934401B09345014423C1F0CA
:1006B00080914701909148018217930720F430936D
:1006C0004801209347018091490190914A012817E0
:1006D000390708F065C030934A012093490160C092
:1006E00010917C001F7000914001173028F030936A
:1006F0006A012093690125C0C12FD0E0CC0FDD1F16
:10070000C05CDE4FBC01CD0134E0660F771F881F4F
:10071000991F3A95D1F7C02ED12CE12CF12CA701CD
:1007200096010E94B6293C872B87809147019091C2
:1007300048012091490130914A01821B930B988F07
:100740008F8B10924801109247018FEF9FEF90938B
:100750004A01809349011092420110924301109284
:10076000440110924501009341011F5F163008F0CB
:1007700010E0E12FF0E0E05CFE4F83A1882311F050
:1007800080EC01C080E490917C00907C981711F07F
:1007900090E301C093E090934601182B10937C00E6
:1007A000FF91EF91DF91CF91BF91AF919F918F9189
:1007B0007F916F915F914F913F912F911F910F9179
:1007C000FF90EF90DF90CF900F900FBE0F901F9093
:1007D0001895F894E82FF0E0EE0FFF1FE05CFE4F55
:1007E0002385348578948EE090E0861B9109A901D9
:1007F00002C0569547958A95E2F7CA010895F89484
:10080000E82FF0E0EE0FFF1FE05CFE4F8789908D30
:1008100078940895FC01808191811816190664F47A
:10082000861797071CF481E0868306C0681779074E
:100830001CF4868181111DC08281938118161906CE
:100840007CF49C0121503109621773071CF481E08C
:10085000878306C0681779071CF0878181110CC057
:100860008091510290915202892B49F01582148295
:10087000089581E08483E0CF81E08583F1CF0895FE
:10088000FC01178215826115710511F07383628373
:100890000895FC01168214826115710511F07183AF
:1008A00060830895E62FF0E0DC01AE0FBF1F1696BF
:1008B0001C92169714961C924115510531F0EE0FBB
:1008C000FF1FE80FF91F518340830895FC016083E7
:1008D00025E5228308950F931F93CF93DF93EB01B8
:1008E0002D85FC0121832E852483DC011596FB01D7
:1008F000759620E101900D922A95E1F78C01035E37
:100900001F4F6F857889C8010E94490469897A89D7
:10091000C801DF91CF911F910F910C944004CF92A9
:10092000DF92EF92FF92CF93DF93EC018A818F34B5
:10093000D1F58B8181110BC04D895E896F89788DCE
:10094000498F5A8F6B8F7C8F81E08B831CC0C98C41
:10095000DA8CEB8CFC8CA70196016D897E898F89DE
:10096000988D0E94EB262AE83BE446E05DE30E9476
:10097000E8289B01AC01C701B6010E94EC26698FF3
:100980007A8F8B8F9C8F6D897E898F89988D0E943D
:10099000BC27CE014D96DF91CF91FF90EF90DF9075
:1009A000CF900C940A041BA219A21CA21AA2DF91D8
:1009B000CF91FF90EF90DF90CF900895CF92DF928C
:1009C000EF92FF92CF93DF93EC016A017B0120E06D
:1009D00030E040EA51ECC701B6010E9450271816DA
:1009E00014F08CE43CC020E030E04AEF53E4C7014F
:1009F000B6010E949F2887FD02C088E430C0809124
:100A00002302863499F426E636E646EE5FE3C70114
:100A1000B6010E94E82820E030E040E052E40E9465
:100A2000EC266D8B7E8B8F8B988F04C0CD8ADE8AEF
:100A3000EF8AF88E6C81772767FD7095872F972F47
:100A40000E94EF279B01AC016D897E898F89988D6B
:100A50000E94EC266D8B7E8B8F8B988F8FE48A8320
:100A6000DF91CF91FF90EF90DF90CF9008958F921C
:100A70009F92AF92BF92CF92DF92EF92FF920F932D
:100A80001F93CF93DF93EC018B01F090230280E062
:100A900090E021E4F21203C00E94ED2786C00E947C
:100AA000ED274B015C0120E030E84FE756E40E945F
:100AB0009F2818161CF00115110511F485E57AC060
:100AC0008981833009F051C0C988DA88EB88FC88B5
:100AD00020E030E048EC52E4C701B6010E94502704
:100AE00087FF0AC0A701960160E070E48EE495E4F8
:100AF0000E9454276B017C01E881F0E0E05CFE4F2E
:100B000083A18823F9F081E000381E4308F080E0DB
:100B100083A36091690170916A0180E090E00E9476
:100B2000ED279B01AC0160E070EC8FE794E40E943C
:100B300054279B01AC01C701B6010E9454276B01E9
:100B40007C0106C081E0003C124108F080E083A3F4
:100B500020E030EC4FE756E4C501B4010E94542771
:100B6000A70196010E94E8285FC0A501940160E0FA
:100B700070EC8FE796E40E94542720E030E040E8D4
:100B80005FE30E94EB269B01AC0169897A898B891E
:100B90009C890E94542722E5F2121AC020913A0241
:100BA00030913B02C217D30799F06D8B7E8B8F8BF0
:100BB000988F8FE48A83DF91CF911F910F91FF90DF
:100BC000EF90DF90CF90BF90AF909F908F9008955F
:100BD0000E94A8286B017C012D853E854F85588990
:100BE0000E94E828A70196010E94E82829853A85F5
:100BF0004B855C850E94EC26A70196010E94E8289F
:100C00002D813E814F8158850E94EC269B01AC01CD
:100C100060E070E080E89FE30E94542723E333E91B
:100C200048E853E40E94EB26AB01BC01CE01DF9102
:100C3000CF911F910F91FF90EF90DF90CF90BF90D9
:100C4000AF909F908F900C94DE04FC0184A595A535
:100C500095AB84AB20E030E0DF01A20FB31F9C9680
:100C60000D90BC91A02D11968C911197882319F0AD
:100C7000B5ABA4AB08952E5F3F4F2830310561F727
:100C80000895209A20E43CE9309387002093860061
:100C9000109280002AE12093810024E220936F00CB
:100CA0002EE420937C0020E420937B002FEE209301
:100CB0007A000C942506FC01E60FF11DE60FF11DEC
:100CC00004A4F5A5E02D418325E5228313820C942D
:100CD0002506CF93DF931F92CDB7DEB76983FC0162
:100CE00064A3898185FD05C0898186FF04C080EAEF
:100CF00003C080EC01C08FEFF89480934001809393
:100D0000410110924201109243011092440110924D
:100D10004501789483E08093B000898184FF02C00C
:100D200081E001C085E08093B1000F90DF91CF9109
:100D30000895FC0163A32AE023A70895FC0162A3A0
:100D40002AE023A7089520E030E040E0FC01E20F14
:100D5000F31F04A4F5A5E02D5181561301C04F5F88
:100D60002E5F3F4F2830310589F7842F90E008959A
:100D7000CF93DF93EC018FA1882319F09CA194FD00
:100D800008C08EA36EA170E083E0DF91CF910C9438
:100D9000002268E081E00E94E9034EA150E02FA10B
:100DA00030E0281B310937FF02C02F5F3F4F3595D8
:100DB0002795240F351F1216130644F42F3F3105D3
:100DC00019F014F02FEF30E02EA3DCCF21E0FCCFA0
:100DD000FC0142A54436C8F480A591A59C01225E81
:100DE0003F4F261B370B2D33310518F06115710568
:100DF00019F44F5F42A708956817790718F4CB01DB
:100E00004E960895CB014E97089580E090E00895A6
:100E10001F920F920FB60F9211242F933F934F936F
:100E20005F936F937F938F939F93AF93BF93EF9352
:100E3000FF9360918A0070918B0086E092E00E949F
:100E4000E806009729F0289A90938B0080938A00F7
:100E5000FF91EF91BF91AF919F918F917F916F9192
:100E60005F914F913F912F910F900FBE0F901F9068
:100E70001895BF92CF92DF92EF92FF920F931F933C
:100E8000CF93DF93EC01B8808C01095B1F4FF80111
:100E9000C080D180E280F3806B2D70E080E090E034
:100EA0000E94ED27A70196010E94EB2621E837EF6B
:100EB00047E05CE30E94E8289B01AC01C701B60152
:100EC0000E94EC26F801608371838283938349A199
:100ED000B41610F41DA215C08D81811102C05F8D62
:100EE00001C05E8D2B2D30E0241B3109529FC001C3
:100EF000539F900D112464E6641B70E00E948E29BC
:100F00006DA38DA128A18217B0F43A85FAE08F9FD6
:100F1000C0011124622F70E00E948E29832F90E07F
:100F20008617970710F42DA301C01DA23F5F3A302A
:100F300010F43A8701C01A868CA180FF04C08E8D00
:100F40009DA1891B8DA38DA1811102C01FA221C06B
:100F50002FA19CA194FF0AC037E8839FC0011124F0
:100F600064E670E00E948E29625A08C04FEF849FA9
:100F7000C001112464E670E00E948E296FA3211144
:100F800008C06FEF70E083E00E94002280E88EA32B
:100F900003C0CE010E94B8068CA1488183FF02C025
:100FA000411144E68CA181FF03C084E6841B482FD5
:100FB000EBA12AA130E02E1B3109429FC001439FC3
:100FC000900D112464E670E00E948E29E60F84E102
:100FD000E89FB001112488A599A58617970791F07D
:100FE00088539F4F861B970B8139914028F48BA51E
:100FF0008F5F8BA78A3030F0F8941AA679A768A77C
:1010000078941BA6DF91CF911F910F91FF90EF90E5
:10101000DF90CF90BF90089520E030E0FC01E20F18
:10102000F31F06A4F7A5E02D42814F3439F02E5F5F
:101030003F4F2630310591F780E0089581E0089513
:10104000FC01E55BFF4FDC011B962D913C911C9749
:101050003183208321E015962C930895FC0177833A
:10106000668315821086158A168A178A108EE55BAC
:10107000FF4F11821082089521E0FC01208777FD47
:1010800006C06536710524F064E670E001C060E0DA
:10109000FC016083E55BFF4F118210820895CF93BE
:1010A000DF93EC01A62FCA01B901FE0124E0A29F43
:1010B000E00DF11D112467AB70AF81AF92AFA2308C
:1010C00059F420E030E0A9010E945027811104C0AA
:1010D0001D8A1E8A1F8A188EDF91CF9108956E3166
:1010E000710510F46EE170E0FC0174876387089568
:1010F0002F923F924F925F926F927F928F929F9228
:10110000AF92BF92CF92DF92EF92FF920F931F9315
:10111000CF93DF9300D000D01F92CDB7DEB79D8371
:101120008C830E94AF21AC81BD8111962D913C91A1
:101130001297621B730B6D34714008F450C10E940A
:10114000AF21EC81FD8161837283838394838185E8
:10115000823030F48F5F8187CF010E94B8063FC193
:10116000AC81BD8119961C9219978D01E4E0FE2E89
:10117000D8019C96ED91FC919D9781818D7F813066
:1011800009F42FC1F80184A595A50E948F04FA9453
:101190000E5F1F4FF110ECCFAC81BD8118968C9182
:1011A0001897811116C1BC91BB83EC81FD8110821F
:1011B00084A995A99A838983DC0112968C91129750
:1011C0008F01055B1F4F268037808F3409F098C050
:1011D000F80180819181892B09F092C055964D903C
:1011E0005D906D907C905897B101882777FD809530
:1011F000982F0E94EF27A30192010E94EB266B011A
:101200007C01AC81BD81DB962D913D914D915C912E
:10121000DE970E94E8284B015C01EC81FD81618B27
:10122000728B838B948B20E030E0A901C701B6015B
:101230000E949F2818161CF4FB81F43660F020E011
:1012400030E0A901C701B6010E94502787FF20C0E6
:101250008B818823E9F0EC81FD81FF96208131812B
:1012600042815381C701B6010E94E8289B01AC016D
:10127000AC81BD8155966D917D918D919C915897D2
:101280000E94EC26EC81FD81658B768B878B908F9D
:10129000A3019201A981BA8159966D917D918D9199
:1012A0009C915C970E94EB26EC81FD81ED5BFF4FEA
:1012B00020813181428153810E94E8286B017C01A9
:1012C000EC81FD81618F728F838F948F25893689A0
:1012D0004789508DC501B4010E94EC26A7019601F3
:1012E0000E94EC260E94BC2777FD06C0653671057A
:1012F00024F064E670E001C060E0AC81BD816C93D5
:10130000E981FA81658976898789908D0E94BC2759
:10131000621573057CF1AC81BD811B962D913C91CA
:101320001C97F80140815181241B350B2F31310569
:1013300008F115968C911597811114C020E030E0CA
:1013400040E05FE355966D917D918D919C9158970A
:101350000E94E828AC81BD8155966D937D938D9355
:101360009C93589782E0EC81FD818583D8011D9282
:101370001C922FC0F801208131812115310529F0FF
:10138000215031093183208324C0AC81BD81159661
:101390002C912230F1F49101261B370B44E6429F39
:1013A000C001439F900D1124B1010E94A229EC813C
:1013B000FD8186A990E0681779075CF0E95BFF4F33
:1013C00060817181828193810E94BC276A35710599
:1013D000ACF08C819D810E94390781E019C080E0CA
:1013E00017C06EE080810E94E903BC01D8019C9681
:1013F0008D919C919D970E943705C4CEEC81FD8113
:1014000083859485D8018D939C9381E08583E1CF7A
:101410000F900F900F900F900F90DF91CF911F9131
:101420000F91FF90EF90DF90CF90BF90AF909F9083
:101430008F907F906F905F904F903F902F90089586
:10144000633441F01CF4613439F404C0663411F0A3
:10145000623511F4FC01658F0895CF93C82F8091F8
:101460002E0381110BC081E080932E0310922F0375
:1014700064E270E081E593E00E94060390912F03FF
:101480009C2790932F036C2F81E593E0CF910C94D0
:1014900090238CE20C942D0A0F931F93CF93DF932C
:1014A000EC016E817F814AE050E08AE293E00E9485
:1014B000DC250E94490A00E010E0FE01E00FF11F68
:1014C00004A4F5A5E02D82818F3459F4458956890D
:1014D0006789708D21E030E08AE293E00E94E9267E
:1014E00003C085E50E942D0A0E94490A0E5F1F4F26
:1014F0000830110511F74AE050E068818AE293E074
:101500000E94F1250E94490AFE01E95BFF4F6081BC
:101510007181828193810E94BC274AE050E08AE277
:1015200093E00E94DC250E94490AFE01E55BFF4F23
:10153000608171814AE050E08AE293E00E94F825E0
:101540000E94490A4AE050E06DA18AE293E0DF91EF
:10155000CF911F910F910C94F125EF92FF920F9371
:101560001F93CF93DF937C01FC0104A915A9F80117
:1015700082818F3409F05AC0E0EDF0E08491EF01F0
:101580002196882321F00E942D0AFE01F7CFC0E0AA
:10159000D0E0F701EC0FFD1F458556856785708902
:1015A00022E030E08AE293E00E94E9260E94490AA4
:1015B0002496C031D10569F7F801218D328D438D14
:1015C000548D658976898789908D0E94EB26AB01C1
:1015D000BC0122E030E08AE293E00E94E9266AE260
:1015E00070E081E593E00E94060360912F0362950D
:1015F0006F706A3010F4605D01C0695C81E593E052
:101600000E94902360912F036F706A3010F4605D28
:1016100001C0695C81E593E00E9490236AE070E07C
:1016200081E593E00E94060310922E03DF91CF9193
:101630001F910F91FF90EF9008950E94C5210E9485
:10164000C3110E942B13FDCF811102C06093720160
:101650000895CF93DF93EB0177FF02C0C0E0D0E0A5
:10166000813069F018F08230B1F021C0C0933C02A3
:101670006C2F84E090E0DF91CF910C94F602BE01D4
:1016800086E092E00E946F08BE0185E090E0DF9165
:10169000CF910C94E402CD2B31F086E092E0DF9103
:1016A000CF910C9420081092520210925102DF91B7
:1016B000CF910895CF93C62F90E08730910508F021
:1016C0003FC0FC01EC5CFF4F0C94D829653608F054
:1016D00064E6609326028EE190E02FC0653608F044
:1016E00064E6609324028FE190E027C086E092E0F8
:1016F0000E9499066C2F87E290E01FC086E092E07E
:101700000E949E066C2F88E290E017C086E092E06F
:101710000E9469066C2F80E290E00FC0653608F0E9
:1017200064E66093250282E290E007C0643608F028
:1017300060E06093270289E290E0CF910C94F6027A
:10174000CF91089562E086E092E00E94A306892B83
:1017500029F063E08DE891E00C94B81B0895462FC2
:10176000811103C089E00C94C1226FEF680F8AEFEA
:1017700091E00C94551FFF920F931F93CF93DF932B
:101780008C01F12CC2ECD1E088818823A1F08C324D
:1017900019F4F3942196F8CFCE010E94F129BC01EF
:1017A0008F2DF8010995DE01ED018D91882361F3FC
:1017B0008C32D1F7E9CFDF91CF911F910F91FF903C
:1017C0000895843090F4E82FF0E0EE0FFF1FEE5CF8
:1017D000FD4F0190F081E02D648395E2899F802D7B
:1017E0001124825B90E00C94F60208950F931F93EE
:1017F000CF93DF9300D0CDB7DEB7AB017A83698397
:10180000182F1695082F0170E12FF0E0EE0FFF1F43
:10181000EE5CFD4F80819181602F4D960E945204B5
:10182000143090F485E2189F102D1124115B29814A
:101830003A81232B49F0602F660F610F70E042E080
:10184000CE0101960E94C2020F900F90DF91CF91BE
:101850001F910F910895CF93DF93C82FD62F843017
:1018600088F4462F682F86E092E00E945B0685E2AE
:10187000C89F802D1124835B6D2F90E0DF91CF9165
:101880000C94F602DF91CF910895BF92CF92DF9230
:10189000EF92FF920F931F93CF93DF936C01B62EBD
:1018A00002E312E049E8E42E41E0F42EF801C19190
:1018B000D1918F018981823001F5F70180818F37C5
:1018C00099F1F6019281891318C02EC0F601878123
:1018D0006081718182FF2EC0882777FD8095982FC7
:1018E0000E94EF2720E030E040E251E40E945427BC
:1018F000AB01BC01CE010E94DE04FFEFEF1AFF0A2C
:1019000082E00A33180791F68B2D8570D9F08DE8A7
:1019100091E0DF91CF911F910F91FF90EF90DF90B9
:10192000CF90BF900C94C91CE4E0BE12CFCF60E012
:1019300070E004C0660F771F660F771FCE010E940C
:101940003705DBCFDF91CF911F910F91FF90EF9083
:10195000DF90CF90BF90089587FF809371018F77BC
:101960002FEF829FC001112464E670E00E948E294F
:1019700085E00C940022843058F465E2869F602D47
:101980001124605C70E04DE087E193E00C94A102CB
:101990000895CF93DF93EC011816190664F4BC0187
:1019A00082E090E00E94E402BE0186E092E00E94A4
:1019B0002E0860E009C066277727681B790B86E050
:1019C00092E00E943C0861E087E190E0DF91CF91D6
:1019D0000C94F602CF93DF931F92CDB7DEB7682F3A
:1019E000853608F064E6862F69830E94AC0C698115
:1019F00088E190E00F90DF91CF910C94F602CF93A5
:101A0000DF93D82FC62F813049F018F0863020F5AB
:101A100014C0862FDF91CF910C94EA0C6093730170
:101A200081E290E00E94F6028091EF0282508530C0
:101A300020F48AEF91E00E94A21FD2504C2F6D2F0C
:101A400085E791E00E94521A8D2F90E06C2F8396CB
:101A5000DF91CF910C94F602DF91CF910895CF934F
:101A6000DF93D82FC92F662321F08AEF91E00E94DF
:101A7000A21FED2FFC2F6491EF012196662361F0E8
:101A8000E091FA01F091FB010190F081E02D8AEFE5
:101A900091E00995FE01EFCFDF91CF9108956F920C
:101AA0007F928F929F92AF92BF92CF92DF92EF92EE
:101AB000FF920F931F93CF93DF93CDB7DEB762975B
:101AC0000FB6F894DEBF0FBECDBFF090EF028EEFE1
:101AD0008F0D853008F0A5C140E060E08AEF91E00D
:101AE0000E94B01F86E0F8121FC0809170018F3FE6
:101AF00059F410926C0110926D0110926E011092C7
:101B00006F0185E0809370018091740160E080FD39
:101B100003C082ED91E002C081EC91E00E942F0DA4
:101B2000809174018695D8C08FEF809370010E94D8
:101B3000451D809171010E94AC0CE0917301E4306D
:101B400008F09DC0F0E0EE0FFF1FEE5CFD4F01902E
:101B5000F081E02D82818F3409F091C020E030E0E7
:101B600040E251E4658976898789908D0E94E82852
:101B70000E94BC2777FF07C000271127061B170B01
:101B8000BB24B39402C08B01B12CA0E1DA2EBAE0E1
:101B9000EB2EF12C86E0C82E0115110519F498E002
:101BA0009D155CF5C801B7010E948E29962EA72EBF
:101BB000C89E8001C99E100D1124085C1D4FADEF19
:101BC000DA0E40E06D2D8AEF91E00E94B01F43E0F5
:101BD000B8018AEF91E00E94741F41E06D2D8AEFF9
:101BE00091E00E94B01FB8016D5F7F4F43E08AEF24
:101BF00091E00E94741F092D1A2DDA9440E06D2D9A
:101C00008AEF91E00E94B01FE091FA01F091FB0190
:101C10000190F081E02D60E28AEF91E0099541E0CA
:101C20006D2D8AEF91E00E94B01FE091FA01F091D2
:101C3000FB01BCE0DB1208C00190F081E02D6EE2F8
:101C40008AEF91E00995A8CF0115110571F488E09C
:101C50008D155CF0BB2049F00190F081E02D61E032
:101C60008AEF91E00995B12C07C00190F081E02D39
:101C700060E28AEF91E00995D1108ECFD2C0E09159
:101C80003A02F0913B0222812F3449F4658976892A
:101C90008789908D2A8B0E94BC272A8902C060E028
:101CA00070E080910E028E010F5F1F4F811169C09D
:101CB0002F3409F466C041E150E064EB72E0C801E2
:101CC0000E940F2AB8018AEF91E00E94302580918E
:101CD00073018F3F19F48F0D882E03C0F3E08F2E10
:101CE00081E0982EDE0111967D0167E1C62E63E04A
:101CF000D62E70E9A72E71E0B72EE1E16E2E772483
:101D00007394781A891408F48CC0B3E0B91508F4F8
:101D10007FC0092D10E0000F111F0E5C1D4FD80170
:101D2000ED91FC9182818F3409F072C0892D0E945F
:101D3000BB0CD801ED91FC91658976898789908DDE
:101D40000E94BC277F936F93DF92CF92BF92AF9296
:101D50001F926F92FF92EF920E943E2A0FB6F89464
:101D6000DEBF0FBECDBF472D490D60E08AEF91E089
:101D70000E94B01FB7018AEF91E00E943025939432
:101D8000C1CF20915102309152024091230221157E
:101D90003105B1F03F932F93842F992787FD9095BC
:101DA0009F934F937F936F932FEA31E03F932F934D
:101DB0001F9281E18F931F930F930E943E2A22C0AE
:101DC000882319F09EE58EE502C09DE58BE51F9204
:101DD0009F93909106021F929F931F928F93842F3F
:101DE000992787FD90959F934F937F936F932AE94F
:101DF00031E03F932F931F9281E18F931F930F93B5
:101E00000E943E2A0FB6F894DEBF0FBECDBF5ACF58
:101E100041E150E060E270E0C7010E942F2A198A78
:101E2000A2CF62960FB6F894DEBF0FBECDBFDF9192
:101E3000CF911F910F91FF90EF90DF90CF90BF90C7
:101E4000AF909F908F907F906F900895CF92DF9288
:101E5000EF92FF920F931F93CF93DF93CDB7DEB72F
:101E6000AA970FB6F894DEBF0FBECDBFD82E4AE2B8
:101E700060E070E0CE0101960E94A102D110CCC0BA
:101E800089819A818E30904F09F0C6C06B817C8128
:101E900086E092E00E942E088D8180933C026E8144
:101EA0007F8186E092E00E946F0880E1FE01389613
:101EB000ADE3B2E001900D928A95E1F7888D882319
:101EC00031F060E070E086E092E00E943C08898D8D
:101ED0000E94AC0C4A8D5B8D6C8D7D8D4093890189
:101EE00050938A0160938B0170938C018E8D8334A3
:101EF00011F463E401C066E486E092E00E94200AE7
:101F00008F8D853608F084E68093260288A1853679
:101F100008F084E6809324028AA5843608F080E0E5
:101F2000809327028BA1853608F084E680932502F2
:101F300069A186E092E00E9469068AA180937301FC
:101F400068A586E092E00E94990669A586E092E085
:101F50000E949E068E010C5D1F4FF12CF8014191ED
:101F60008F016F2D85E791E00E94521AF394F4E0FF
:101F7000FF12F4CF42E06EE370E0CE0101960E94C2
:101F8000A10229813A812E30304F41F06EE070EF8E
:101F90008EE390E00E94E402DD24D39422E3E22E5B
:101FA00022E0F22E30E3C32E00E410E0DD2081F0C9
:101FB00045E250E069EE71E0CE0101960E940F2AE1
:101FC000CF8245E2B801CE0101960E94C20206C04E
:101FD00045E2B801CE0101960E94A102BE016F5FE9
:101FE0007F4FF701819191917F010E946B040B5DFE
:101FF0001F4FC394F4E3CF12D9CFAA960FB6F8942B
:10200000DEBF0FBECDBFDF91CF911F910F91FF902B
:10201000EF90DF90CF9008954AE250E06EE072E0DA
:10202000CE0101960E940F2A4AE260E070E0CE01E4
:1020300001960E94C2022ACFCF9365E082EC92E023
:102040000E94660464E08DE992E00E94660463E009
:1020500088E792E00E94660462E083E592E00E94D5
:102060006604C0E8C0930F0286E48093230242E036
:1020700064E08AEF91E00E946C2085E49CE09093FC
:10208000930180939201C09394018FEF8093970105
:102090008093A0018093A9018093B2018FEA9BE015
:1020A0009093880180938701CF9108951F93CF93D8
:1020B000DF93EC01162F8C81811109C081E08C83A4
:1020C0001D8264E270E081E593E00E9406038D8149
:1020D00081278D83612F81E593E0DF91CF911F915F
:1020E0000C949023CF93DF93FC016491EC01219633
:1020F000662331F08AE293E00E945610CE01F4CFBD
:10210000DF91CF9108956AE270E081E593E00E944B
:10211000060360912F0362956F706A3010F4605D62
:1021200001C0695C81E593E00E94902360912F03D8
:102130006F706A3010F4605D01C0695C81E593E006
:102140000E9490236AE070E081E593E00E9406031C
:1021500010922E030895CF93DF938BE891E00E94B5
:102160007210C2E3D2E00E94490AE991F9916481B8
:10217000772767FD70954AE050E08AE293E00E947D
:10218000DC2582E0CA33D80771F7DF91CF910C9438
:1021900083100E94E10B0C94AB10CF9386E891E082
:1021A0000E947210C0E08C2F0E94BB0C0E94490A52
:1021B00067E173E08AE293E00E943025CF5FC4308C
:1021C00091F7CF910C9483109B01843050F465E219
:1021D000869F602D1124605C70E04DE0C9010E9473
:1021E000C2020C94CD10CF93DF9380E891E00E945F
:1021F00072104AE050E0609171018AE293E00E941F
:10220000F1250E94490A4AE050E0609173018AE298
:1022100093E00E94F125C5E7D1E00E94490A4AE017
:1022200050E068818AE293E00E94F125239681E0E4
:10223000C138D80791F7DF91CF910C948310CF93D9
:10224000DF938AE791E00E947210C6E0D2E04AE094
:1022500050E068A18AE293E00E94F1250E94490AB9
:102260004AE050E06E8D8AE293E00E94F1250E94E0
:10227000490A4AE050E06BA18AE293E00E94F1250E
:102280000E94490A4AE050E06AA18AE293E00E9473
:10229000F1250E94490A4AE050E06CA18AE293E0ED
:1022A0000E94F1250E94490A4AE050E06F8D8AE2BF
:1022B00093E00E94F1250E94490A4AE050E069A19A
:1022C0008AE293E00E94F125DF91CF910C94831074
:1022D000853608F084E680932402682F8FE190E031
:1022E0000E94F6020C941F110F931F93CF93DF935C
:1022F00085E791E00E94721002E312E0F801C191BB
:10230000D1918F010E94490A6D8D7E8D4AE050E087
:102310008AE293E00E94DC2589A1882329F06CE4FD
:102320008AE293E00E9456100E94490A6F8D78A1BC
:102330004AE050E08AE293E00E94DC258AA18823EB
:1023400029F068E48AE293E00E945610F2E00A3332
:102350001F07A1F6DF91CF911F910F910C9483106D
:1023600060E070E0809174010E94F60B0C9474118F
:102370008BE591E00E94721062E48AE293E00E9491
:1023800032250C9483101F93CF93DF93219A42E060
:1023900060E085E791E00E94BB1985E791E00E942B
:1023A000FD1926E040E056E960E070E081E593E049
:1023B0000E94F5236AE070E081E593E00E94060345
:1023C0000E94B81180E880BF8FE380937E008091E7
:1023D00064008068809364005F9A579A0E94431D4E
:1023E00082EC92E090933302809332028DE992E086
:1023F000909335028093340288E792E090933702FD
:102400008093360283E592E09093390280933802FC
:1024100080E00E94260F86E092E00E944106C4E719
:10242000D2E010E0AE01612F8AEF91E00E943020EF
:102430001F5F28961830B1F70E94A20B65E087EE67
:1024400092E0DF91CF911F910C94701A81EF90E090
:102450000E9472104AE050E060913C028AE293E0F0
:102460000E94F1250E94490A6091110270911202A6
:102470004AE050E08AE293E00E94F8250C94831031
:10248000CF93DF938CEE90E00E947210CDE3D2E008
:102490000E94490A499159916991799128E030E067
:1024A0008AE293E00E94E92682E0CD34D80781F7E2
:1024B000DF91CF910C9483100F931F93CF93DF93F1
:1024C00087EE90E00E947210C2E3D2E009E811E0CA
:1024D0000E94490AE991F9918181823041F44AE0F0
:1024E00050E0F80160818AE293E00E94F1250F5FDD
:1024F0001F4FF2E0CA33DF0759F7DF91CF911F91E9
:102500000F910C948310AF92BF92CF92DF92EF9213
:10251000FF920F931F93CF93DF93C82F81EE90E02C
:102520000E9472104AE050E06C2F8AE293E00E9411
:10253000F1250E94490AEC2FF0E0EE0FFF1FEE5C40
:10254000FD4F00811181C0E0D0E0F801EC0FFD1FCC
:10255000C580D680E780F084AA24A39420E030E0F0
:10256000A901C701B6010E94502787FD02C0A12C16
:1025700004C0F7FAF094F7F8F094B12C20E030E0C2
:1025800040E85FE3C701B6010E94502787FF15C0EE
:1025900020E030E0A901C701B6010E94502788233E
:1025A00061F0BA9420E030E040E251E4C701B601A6
:1025B0000E94E8286B017C01E1CF20E030E040E29E
:1025C00051E4C701B6010E949F2887FD0CC0B39457
:1025D00020E030E040E251E4C701B6010E945427F8
:1025E0006B017C01EACFAA2021F0F7FAF094F7F80A
:1025F000F09427E030E0B701A6018AE293E00E9460
:10260000E92665E68AE293E00E9456106B2D772753
:1026100067FD70954AE050E08AE293E00E94DC2575
:102620000E94490A2496C031D10509F08ECF4AE0B4
:1026300050E0F80161818AE293E00E94F125DF9188
:10264000CF911F910F91FF90EF90DF90CF90BF90AF
:10265000AF900C9483102F923F924F925F926F92A3
:102660007F928F929F92AF92BF92CF92DF92EF9222
:10267000FF920F931F93CF93DF931F92CDB7DEB7D7
:10268000EAEBF1E001900020E9F73197EA5BF140D5
:102690001E2FABEBEA2EA1E0FA2EB5E27B2E0FE760
:1026A000602E81E593E00E942023892B09F490C0DD
:1026B00081E593E00E9439238A3019F08D3009F0CA
:1026C00076C0112309F4FDC18091BA018F3209F05F
:1026D000F8C1D7010D900020E9F78D010C5B114086
:1026E00047E050E063E571E08BEB91E00E94182A2F
:1026F000892BD9F482EC91E00E94F1290E94C90C47
:10270000F801FF27E654FE4F1081612F86E092E02A
:102710000E94200A133419F0163409F0D2C1612F37
:102720008DE190E00E94F602CCC147E050E06BE4FE
:1027300071E08BEB91E00E94182A892B39F48FEF1E
:102740009CE00E94BB0B0E94F310BBC147E050E02D
:1027500063E471E08BEB91E00E94182A892B39F435
:1027600089E29BE00E94BB0B0E942612AAC147E0AF
:1027700050E06BE371E08BEB91E00E94182A892B0B
:1027800039F481EE9BE00E94BB0B0E94AB1099C113
:1027900047E050E063E371E08BEB91E00E94182A80
:1027A000892B09F07BC10A3008F04BC177C191E059
:1027B000910FE12FF0E0E654FE4F8083903408F053
:1027C00080C1E92FF0E0E654FE4F1082192F69CF47
:1027D0008DE891E00E944D1C882331F042E069E0D1
:1027E00085E791E00E94BB1987EE92E00E94D11A22
:1027F00086E092E00E947808882309F4C9C00E940C
:102800004F0D80916B018F5F80936B018F7121F46D
:102810008DE891E00E94C91C8BED90E00E9472103F
:1028200086E092E00E944C0A0E94831002E312E0CC
:10283000F12CE12CA12CB12CDD24D394DF0CD80198
:10284000ED91FC91EA0DFB1D41A16A2D8A2D8F0DA2
:10285000442321F080937401EE24E3946D0D85E709
:1028600091E00E94BB19BFEFAB1ABB0AE2E0AE16C3
:10287000B10429F7F394F3940E5F1F4FF8E0FF12B1
:10288000D9CF4E2D6EE085E791E00E94BB19EE2076
:1028900021F00E94741166E005C08091EF0286303D
:1028A00029F462E087EE92E00E94701A8091720132
:1028B000882321F086E092E00E94AD0A80916B01AE
:1028C00083708130B1F486ED90E00E94721010E0C8
:1028D0000E94490A812F0E94FF03BC014AE050E098
:1028E0008AE293E00E94F8251F5F163089F70E9464
:1028F000831040E060E085E791E00E94BB1941E071
:102900008091510290915202892B09F440E06AE0D3
:1029100085E791E00E94BB1941E080910602811198
:1029200001C040E06BE085E791E00E94BB1941E007
:1029300080910602843608F440E06DE085E791E07E
:102940000E94BB1941E080910B02823009F040E007
:102950006CE085E791E00E94BB1941E080910B0299
:10296000811140E06FE085E791E00E94BB1941E0F2
:1029700080910B02813009F040E060E185E791E051
:102980000E94BB19609106028DE891E00E942A1C0A
:10299000809170018F3F09F43DC00E94AF21E0910A
:1029A0007001F0E0ED51FE4FE49120916C01309107
:1029B0006D01621B730B2AE0E29FF0011124E61700
:1029C000F70740F50E94AF2160936C0170936D0191
:1029D00080936E0190936F018091700190E0019659
:1029E00066E070E00E948E298093700180FD0DC02A
:1029F000FC01ED51FE4F84919AE0899FB0011124B2
:102A000086E00E94941D80E803C080917101806877
:102A10000E94AC0C85E791E00F90DF91CF911F9160
:102A20000F91FF90EF90DF90CF90BF90AF909F906D
:102A30008F907F906F905F904F903F902F900C946D
:102A4000FD1984EC91E00E94ED299B01AC0180917D
:102A5000C201843611F413E005C08536BCF0893616
:102A6000C9F412E0612F86E092E00E944F08B4E0C2
:102A70001B9FC0011124BC01695F7F4F44E0835C50
:102A80009D4F0E94C2020E9440121BC08236D9F79D
:102A900010E0E8CF8037B9F711E0E4CF46E050E02E
:102AA0006CE271E08BEB91E00E94182A892B59F4BB
:102AB000093048F08091C10163EC71E080530E94BD
:102AC000E41090E07ECE46E050E065E271E08BEBF2
:102AD00091E00E94182A892B09F068C0093008F497
:102AE00065C05090C101A0ED5A0EB3E0B51548F392
:102AF000579C202D11242B5A412CE3EC2E2EE1E083
:102B00003E2E052D10E0000F111F0E5C1D4FD10150
:102B10008C91882309F446C0E3E0E41580F18C32FF
:102B200031F44394FFEF2F1A3F0A2C5FF0CFD80106
:102B30008D909C90B4E04B9E500111246501E5E01E
:102B4000CE0ED11CC80CD91CC10129830E94ED29CD
:102B5000F401EA0DFB1D65837683878390872981C5
:102B6000622F70E044E0C6010E94C202F101298197
:102B70001F018191882359F28C32D1F7C8CFC1014E
:102B80000E94F129682FC52CD12C87FD9AC0F6012F
:102B9000EE0FFF1FEE5CFD4F0190F081E02D1181E3
:102BA000161383C0852D0E9483128BCF47E050E01F
:102BB0006DE171E08BEB91E00E94182A892B39F4CA
:102BC00086EF9BE00E94BB0B0E9474117ACF47E016
:102BD00050E065E171E08BEB91E00E94182A892BAF
:102BE00039F48AE59BE00E94BB0B0E941F1169CF5C
:102BF00047E050E06DE071E08BEB91E00E94182A15
:102C0000892B39F462EC71E087EE92E00E943B1967
:102C100058CF47E050E065E071E08BEB91E00E9417
:102C2000182A892B29F484E29BE00E94BB0B49CF30
:102C300046E050E06EEF70E08BEB91E00E94182AC6
:102C4000892BF9F40E94B8110E9440120E941F11B2
:102C50000E94CD1080E00E94831281E00E948312C6
:102C600082E00E94831283E00E9483120E94AB10D4
:102C70000E9426120E94F3100E9474110E945C129E
:102C800020CF45E050E067EF70E08BEB91E00E94D1
:102C9000182A892B09F015CF5F98F89488E1809362
:102CA000600089E080936000FFCF852D0E942B0C8F
:102CB000123009F077CFF601E757FE4F60826FE7D9
:102CC00018C010E8160FF601EE0FFF1FEE5CFD4F67
:102CD0000190F081E02D81818230A1F4F601E75767
:102CE000FE4F808181130EC0F601E757FE4F10831F
:102CF000612FC60149960E94F6020E945C120E9452
:102D0000A20B50CF62E0852D0E942B0CEDCF0F93CC
:102D10001F93CF93DF93CDB7DEB761970FB6F894CB
:102D2000DEBF0FBECDBFE0912803F09129038430B0
:102D300019F4E60FF11D04C0883031F4E61BF109E7
:102D4000F0932903E09328038091280390912903AD
:102D50008417950724F45093290340932803809106
:102D60002803909129032817390724F43093290365
:102D70002093280341E060E08AEF91E00E94B01FB9
:102D800020912302822F992787FD90959F932F935F
:102D9000809129038F93809128038F931F930F9322
:102DA0001F9281E18F938E010F5F1F4F1F930F932F
:102DB0000E943E2AB8018AEF91E00E9430250FB6AA
:102DC000F894DEBF0FBECDBF61960FB6F894DEBF9C
:102DD0000FBECDBFDF91CF911F910F9108950F933B
:102DE0001F93CF93C82F803869F461E089E793E09F
:102DF0000E942F0D2091710130E030932903209320
:102E0000280310C0803471F4809128039091290325
:102E10004091710150E08417950721F00E94EA0C5F
:102E20000E94F31003E713E024E630E040E050E0B6
:102E30006AE08C2F0E9487168091280380680E9488
:102E4000AC0C81E0CF911F910F9108950F931F93C8
:102E5000CF93C82F803869F461E082E693E00E9446
:102E60002F0D2091240230E0309329032093280372
:102E70000EC0803461F48091280390912903409121
:102E8000240250E08417950711F00E94681106E5AE
:102E900013E024E630E040E050E065E08C2F0E9433
:102EA000871681E0CF911F910F9108950F931F9383
:102EB000CF93C82F803869F461E08BE093E00E94E3
:102EC0002F0D20913C0230E03093290320932803FA
:102ED00009C0803439F4609128037091290380E09F
:102EE0000E94290B0BEF12E024E630E040E050E0B6
:102EF00061E08C2F0E94871681E0CF911F910F9186
:102F000008950F931F93CF93C82F803871F461E019
:102F100087E293E00E942F0D20911102309112025E
:102F2000309329032093280309C0803439F4609139
:102F300028037091290381E00E94290B0BE113E023
:102F400028EE33E040E050E06AE08C2F0E948716C4
:102F500081E0CF911F910F9108950F931F93CF930D
:102F6000DF93D82FC091EF02CD508038F9F48C2F29
:102F70000E94BB0C8AEF91E00E94A21F67E173E000
:102F80008AEF91E00E943025EC2FF0E0EE0FFF1F5A
:102F9000EE5CFD4F0190F081E02D2481332727FD69
:102FA0003095309329032093280309C0803439F4E5
:102FB00060912803709129038C2F0E94C9100DEE97
:102FC00012E024E630E04CE95FEF61E08D2F0E94D3
:102FD000871681E0DF91CF911F910F9108950F9394
:102FE0001F93CF93C82F803871F461E08CEC92E08E
:102FF0000E942F0D20910C0230910D023093290375
:10300000209328030FC0803469F4809128039091A5
:10301000290340910C0250910D028417950711F07D
:103020000E94C90C05EC12E028EE33E040E050E0CD
:1030300065E08C2F0E94871681E0CF911F910F9140
:103040000895803819F40E944F0D06C08F7121F049
:103050000E94B01182E0089581E0089580E00E940E
:10306000FF034197E8F468E080E00E94E9038823C9
:10307000B9F09BEE980F973268F093EC980F973267
:1030800058F097E8980F973248F0815A873240F409
:1030900082E0089581E0089588E0089584E008952D
:1030A00080E00895803861F48091EF028530B9F1B5
:1030B00086E092E00E940C08811131C085E00895FD
:1030C00090910E029923D9F0843039F0883039F08C
:1030D000813009F049C06FEF03C065E001C06BEFBC
:1030E00080910602772767FD7095680F711D86E055
:1030F00092E00E943C080E944F0D80E008958130CC
:1031000099F561E070E08091510290915202892B13
:1031100011F060E070E082E00E94290B23C08091F2
:10312000EF02823049F4E0913402F091350282815D
:103130008F34C1F083E00895833049F4E091360282
:10314000F091370282818F3469F084E008958430F1
:1031500049F4E0913802F091390282818F3411F004
:1031600082E008950E944F0D81E008958AEF91E07A
:103170000E94A91FE091FA01F091FB010280F38106
:10318000E02D40E150E066EF72E08AEF91E00995B2
:1031900041E060E08AEF91E00E94B01FE091FA0107
:1031A000F091FB010280F381E02D40E150E066E008
:1031B00073E08AEF91E0099581E00895803811F479
:1031C0000C94B6188091F0020895843011F0883084
:1031D00071F481E090E02091280330912903232BA2
:1031E00011F080E090E0909329038093280341E060
:1031F00060E08AEF91E00E94B01F809128039091D7
:103200002903892B19F08AE393E002C086E393E057
:1032100060E00C942F0DCF93C82F803869F461E0E3
:103220008DED92E00E942F0D20910E0230E0309340
:1032300029032093280319C08034B9F481E0209138
:10324000280330912903232B09F480E090910E028A
:10325000891759F0811105C080910C0290910D02DF
:1032600002C080E090E00E94C90C8C2F0E94E518FB
:1032700081E0CF91089520E040E2FB013191BF0150
:10328000311102C030E212C02132E0F73C3231F09D
:10329000FC01E20FF11D37872F5FEFCF203168F778
:1032A000FC01E20FF11D47872F5FF8CFFC012132AF
:1032B00028F4E20FF11D37872F5FF8CF20852831E2
:1032C00019F068E10C94701A0C94B6182EE238E1EB
:1032D00048E853E061EF73E087EE92E00C94681ADF
:1032E000FF920F931F93CF93DF93182F803851F4E1
:1032F00061E088E493E00E942F0D10922903109260
:1033000028032FC0803469F52091280330912903C8
:10331000232B39F181E00E94260FCEE3D3E0FF2476
:10332000F394FE0104910023D1F080912E038111CA
:103330000AC0F0922E0310922F0364E270E081E540
:1033400093E00E94060380912F03802780932F0330
:10335000602F81E593E00E9490232196E2CF0E94A6
:103360008310812F0E94E51881E0DF91CF911F919A
:103370000F91FF900895CF92DF92EF92FF920F93FB
:103380001F93CF93DF931F92CDB7DEB78C01E62E4C
:103390006C01F12CD6019C91892F8F778E111CC066
:1033A00011964C93119712968C9112978230A1F03E
:1033B000423091F0692F661F6627661F64276817E1
:1033C00059F012966C93D8015296ED91FC91539757
:1033D0008F2D498309954981F394B3E0CB0ED11C1D
:1033E000E4E0FE12D7CF0F90DF91CF911F910F91A4
:1033F000FF90EF90DF90CF900895CF92DF92EF9201
:10340000FF920F931F93CF93DF93EC010E94AF21A4
:10341000CC84DD84EE84FF842989222331F08B0162
:103420000C191D09043F1140A0F10E94AF216C87C7
:103430007D878E879F8781E0898B88898F5F888BC6
:1034400000E010E0F12C8889DE01A00FB11F80FFA1
:103450000CC011968C9111978230A9F412968C931E
:10346000129711961C92119708C012968C91129780
:10347000823049F412961C921297EA89FB891296BF
:103480006C918F2D0995F3940D5F1F4F84E0F81216
:10349000DACFDF91CF911F910F91FF90EF90DF90E6
:1034A000CF900895DC01862F262F30E0F901EE0F32
:1034B000FF1FE20FF31FEA0FFB1F40839281913041
:1034C00031F45296ED91FC91539760E00994089580
:1034D000FC0171836083538342833783268308957D
:1034E0000F931F93CF93DF931F92CDB7DEB78C015D
:1034F000DC0118968C91189719968C93623008F419
:1035000043C0D80118968C91681709F43DC0D801C2
:103510001496ED91FC911597309759F031962591BD
:1035200034912115310529F080E46983F901099569
:103530006981D80118966C9318972D913C91119739
:1035400015963C932E931497D8011496ED91FC9107
:1035500015978491882311F0861303C03097A1F04A
:1035600007C03496D8011596FC93EE931497ECCFD0
:103570003196259134912115310509F4BFCF80E8AA
:10358000F9010995682FBACF0E94AF21F80163872E
:103590007487858796870F90DF91CF911F910F9148
:1035A0000895CF92DF92EF92FF921F93CF93DF9314
:1035B000EC01EE81FF810995182F0E94AF216B016C
:1035C0007C014B855C856D857E85C41AD50AE60A2B
:1035D000F70A11111AC0EC81FD81309709F461C01E
:1035E0003396E4912E2F30E0A8EEB3E00E94DE295E
:1035F000611571058105910509F453C06C157D05B0
:103600008E059F0508F445C04CC08AEFC816D1044A
:10361000E104F10408F44CC0103221F01A871123A0
:1036200009F446C00E94AF216B877C878D879E87F7
:10363000EC81FD81309719F42A813B8110C03196CD
:103640002591349121153105B9F3812FF90109959F
:103650008130A1F4F1CF981741F02D5F3F4FF90170
:10366000949188859111F7CF09C0F9013196E491C1
:10367000E123E113F2CFF90132968491682FCE0154
:10368000DF91CF911F91FF90EF90DF90CF900C943E
:10369000701AFAEFCF16D104E104F10448F010E2F9
:1036A000C1CF8AEFC816D104E104F10408F0B6CF07
:1036B000DF91CF911F91FF90EF90DF90CF90089511
:1036C000FC018281861719F06283118210820895AD
:1036D0000F931F93CF93DF93EC018B010E94AF21D7
:1036E0006B837C838D839E83F801818185FD02C07D
:1036F00080E001C082E0F801938197FD81609F77AF
:103700009F3709F084608F830E94461F88878F81CE
:10371000F801428182FF1CC04A3A21F151815F7059
:10372000242F30E084E0359527958A95E1F76AE00B
:10373000629FC001639F900D1124F4E65F9F800D8E
:10374000911D11244F70840F911D8059914006C026
:10375000F80121812F70842F90E0922B9983888328
:1037600081E001C080E0DF91CF911F910F9108951A
:10377000CF93DF93EC01862F9881911104C00E94B2
:10378000E11E81E08883DF91CF9108958F929F920F
:10379000AF92BF92EF92FF920F931F93CF93DF935D
:1037A0008C01EC0128967C012CE2E20EF11C8A814E
:1037B0008F3FE9F00E94AF218B809C80AD80BE805E
:1037C000681979098A099B0961327F4B824091050A
:1037D00070F0D8011596ED91FC911697309719F07D
:1037E00064E0CE0109956FEFCE010E94601B29961F
:1037F000CE15DF05E1F6DF91CF911F910F91FF907C
:10380000EF90BF90AF909F908F90089520E030E0B0
:1038100040E0FC01E20FF31F52855F3F39F04F5F3C
:10382000275F3F4F4430A9F78FEF0895842F089505
:1038300020E030E040E0FC01E20FF31F5285561714
:1038400039F04F5F275F3F4F4430A9F78FEF08955E
:10385000842F0895CF93DF9300D000D0CDB7DEB78B
:10386000FC018081882391F084A58F5F84A7853037
:1038700068F014A68FE9898380EC8A836B838FE7D5
:103880008C8364E0CE0101960E94D61E0F900F90AB
:103890000F900F90DF91CF910895CF92DF92EF922A
:1038A000FF920F931F93CF93DF931F92CDB7DEB795
:1038B0006C01DC018C91882309F460C010E029E0E0
:1038C000E22E0E949E1E882309F453C00E94AF215D
:1038D000F60161837283838394839091410387818E
:1038E000911140C08F3F11F08F5F87838091370324
:1038F0008F70F4E08F9FC0011124F0903803F29490
:10390000F694F69493E0F922F82A6F2DC6010E94EE
:10391000181C8F3F39F4C6010E94061C8F3F39F1F5
:1039200023E001C022E08601E89E000D111D112454
:10393000085F1F4F6F2DC80129830E94601B67E33A
:1039400073E0C8010E94681B2981882381F0D60199
:103950001596ED91FC911697309749F0622FC801AA
:10396000099505C0882319F08150F601878311E07D
:10397000A8CFC6010E94C61B812F01C080E00F9016
:10398000DF91CF911F910F91FF90EF90DF90CF903B
:1039900008950F931F93CF93DF93EC0188818823C1
:1039A00009F461C0E9E3F4E084918F010F5F1F4FD8
:1039B000882321F00E942D0AF801F6CF4AE050E05A
:1039C0006F818AE293E00E94F1252A9610E08881B7
:1039D0008F3FF1F08CE20E942D0A4AE050E06881AE
:1039E0008AE293E00E94F1258CE20E942D0A4AE0CF
:1039F00050E06D818AE293E00E94F1258CE20E9402
:103A00002D0A4AE050E06E818AE293E00E94F1259F
:103A10001F5F29961430D9F66AE270E081E593E0E1
:103A20000E94060360912F0362956F706A3010F454
:103A3000605D01C0695C81E593E00E949023609124
:103A40002F036F706A3010F4605D01C0695C81E51E
:103A500093E00E9490236AE070E081E593E00E9489
:103A6000060310922E03DF91CF911F910F910895BD
:103A700010922D0310922C0384E091E090932B037D
:103A800080932A030895569A0895EFE6F0E0808126
:103A90008D7F80835E9808951F920F920FB60F92CC
:103AA00011242F933F934F935F936F937F938F9343
:103AB0009F93AF93BF93EF93FF93809130039091C7
:103AC0003103892BF1F08091880090918900865014
:103AD0009F4F80342CE9920710F080E090E09093A3
:103AE0008900809388008091300390913103019781
:103AF00090933103809330038BB190E489278BB985
:103B000002C00E94451DFF91EF91BF91AF919F911F
:103B10008F917F916F915F914F913F912F910F9076
:103B20000FBE0F901F901895CF93DF931F92CDB7C4
:103B3000DEB769830E94451D698188E0689FB001F6
:103B400011247093310360933003EFE6F0E080813D
:103B5000826080830F90DF91CF9108952CB5216012
:103B60002CBD2A989EBD0DB407FEFDCF2EB530E0CA
:103B7000322F22278EBD0DB407FEFDCF9EB52A9AA7
:103B80008CB58E7F8CBDA901492BCA010895229A5C
:103B90002A9A61E08BE00E94882260E08CE00E941B
:103BA000882261E08DE00E94882280E58CBD8DB581
:103BB00081608DBD62E082E00C948822682788E0F5
:103BC00091E367FF03C0660F692701C0660F81504C
:103BD000C1F7862F08951F93CF93DF9380E090E085
:103BE0000E94AE1D192F90933503809142038430BB
:103BF00009F05BC080E090EB0E94AE1DEC0180916B
:103C0000430363E00E948229911113C011708091D7
:103C10003403E12FF0E0E80FF11DE80FF11DE85F3C
:103C2000FE4F80818093340390E0806A94690E9403
:103C3000AE1D8091430381111EC09E01332744E0D5
:103C4000359527954A95E1F72E5F3F4F3595279596
:103C50002093360380913603823008F467C0809148
:103C600036038B3008F062C0E0913203F0913303E9
:103C7000309709F00995E091430381E08E0F80931E
:103C80004303F0E0E95CFC4FC083809141036C2F5B
:103C90000E94DE1D8093410390914303809136037F
:103CA000981348C089E092E83CC08091420387FFA6
:103CB00015C0E09136038091420391E0980F9093F4
:103CC0004203E80FF0E0E95CFC4FC08180914103C2
:103CD0006C2F0E94DE1D8093410320C0809142031F
:103CE00091E0980F90934203823099F02CF4811167
:103CF00014C0C091410312C0853049F0863069F488
:103D000080913603819580934203C4ED07C0CDE2D4
:103D100005C089E092E80E94AE1DCAEA8C2F90E0AF
:103D20009854DF91CF911F910C94AE1D82E0809347
:103D300036039ACFDF91CF911F910895809142036E
:103D4000843031F490913603809143039817E9F061
:103D5000809142038330B9F41092430310924103DF
:103D60008FEF8093360384E080934203F89483E0DE
:103D70008093340383EA94E90E94AE1D89ED92E8B2
:103D80000E94AE1D789480E0089583E08093420302
:103D900081E00895F8941092410385E080934203F6
:103DA00089E392E80E94AE1D7894089560933603EB
:103DB000462F50E0BC0187E393E00E94262A0C9432
:103DC000CA1ECF93C82F0E94C71D80E090E00E94BA
:103DD000AE1D81E092E80E94AE1D80E098EB0E944B
:103DE000AE1D82E00E94F722892B19F480E090E05A
:103DF000F6CF20E1C29FC0011124876C90680E9419
:103E0000AE1DC23029F0C33031F483ED97EA05C00E
:103E10008CE796EA02C080E496EA0E94AE1D83E138
:103E200096EC0E94AE1D82EA94E90E94AE1D8CEAD7
:103E300092EC0E94AE1D83E89AEC0E94AE1D84EDC8
:103E40009EEC0E94AE1D87EB94EC0E94AE1D80E3B9
:103E500098E90E94AE1D86E79CEC0E94AE1D80E0B2
:103E600090EE0E94AE1D80E098EC0E94AE1D80E0B6
:103E700090EC0E94AE1D83E08093420340E050E04E
:103E80006BEE7DE180E0CF910C94EB2080913403C8
:103E900086950895DC01ED91FC910480F581E02D7B
:103EA00041E0099581E090E008956230E0F421E07E
:103EB00030E0062E01C0220F0A94EAF7DC011496C6
:103EC0005C911497442321F0252B14962C9304C065
:103ED00020952523FC012483DC01ED91FC910084D5
:103EE000F185E02D09940895EF92FF920F931F93AF
:103EF000CF93DF931F92CDB7DEB78C017B01460FC6
:103F00004E1581F0F7016491D801ED91FC9101907B
:103F1000F081E02DC80149830995BFEFEB1AFB0A38
:103F20004981EECF0F90DF91CF911F910F91FF90BC
:103F3000EF900895DC01ED91FC910480F581E02D76
:103F400040E0099461E00E949A1F80ED97E00C9494
:103F5000BB2162E00E949A1F80ED97E00C94BB2188
:103F6000CF93DF9300D000D0CDB7DEB7198220E425
:103F70002A8324E12B8324E52C83FC01208524174C
:103F800010F44FEF420FFE01E40FF11D2181260FC7
:103F90002068622F0F900F900F900F90DF91CF91BC
:103FA0000C949A1FFC016681262F246026836C6086
:103FB0000C949A1FCF93DF93EC01623018F088E0E5
:103FC000888701C018868885411184608D8380E0D0
:103FD00090E40E94BB2180E090E40E94BB2180E03D
:103FE00090E40E94BB21E881F9810680F781E02DF1
:103FF00060E3CE01099584E991E10E94BB21E8814B
:10400000F9810680F781E02D60E3CE01099586E90C
:1040100090E00E94BB21E881F9810680F781E02DC4
:1040200060E3CE010995E881F9810680F781E02DF2
:1040300060E2CE0109956D816062CE010E949A1FF7
:1040400084E08E83CE010E94D21FCE010E94A21F67
:1040500082E08F8366E0CE01DF91CF910C949A1FAE
:104060000F931F93CF93DF93EC018A01677088E071
:10407000689FB00111246064CE010E949A1F48E03D
:10408000B801CE010E94741F60E8CE01DF91CF918C
:104090001F910F910C949A1F1F93CF93DF93EC0104
:1040A0001FB7F8946EBD0DB407FEFDCFEA85FB8502
:1040B00080819985892B808381E090E00E94BB21DB
:1040C000EA85FB85908189858095892380831FBF40
:1040D000DF91CF911F9108950F931F93CF93DF939B
:1040E000EC01162F042F1B821A8228E131E039835C
:1040F000288361E08BE00E94882261E08DE00E94CD
:10410000882261E08AE00E94882261E08AE00E94C1
:10411000C12281E58CBD212F30E0F901E75AFB4F28
:10412000E491E987F901E359FB4FE491F0E0EE0FE8
:10413000FF1FE557FB4F259134913B872A8761E0AC
:10414000812F0E94882260E0CE010E944C2040E036
:10415000602FCE01DF91CF911F910F910C94DA1F48
:10416000FC0164810C944C201F93CF93DF93EC01EE
:10417000162F68600E944C20612F677FCE01DF916F
:10418000CF911F910C944C200F931F93CF93DF93EB
:10419000EC01062F411144E01C81142B602F607F3D
:1041A000612BCE010E94B42080E1089FB001112450
:1041B000612BCE010E94B42088E290E0DF91CF9184
:1041C0001F910F910C94BB21607F0E94B42088E264
:1041D00090E00C94BB218230E8F4E82FF0E0EE0F81
:1041E000FF1FEC5BFC4F71836083813041F0809155
:1041F00069008C7F842B80936900E89A08958091F0
:104200006900440F551F440F551F837F842B8093F3
:104210006900E99A08951F920F920FB60F92112428
:104220002F933F934F935F936F937F938F939F93BE
:10423000AF93BF93EF93FF93809144039091450315
:10424000892B29F0E0914403F09145030995FF91F2
:10425000EF91BF91AF919F918F917F916F915F91FE
:104260004F913F912F910F900FBE0F901F90189577
:104270001F920F920FB60F9211242F933F934F93DB
:104280005F936F937F938F939F93AF93BF93EF93BE
:10429000FF938091460390914703892B29F0E09189
:1042A0004603F09147030995FF91EF91BF91AF91BC
:1042B0009F918F917F916F915F914F913F912F913E
:1042C0000F900FBE0F901F9018951F920F920FB670
:1042D0000F9211242F933F938F939F93AF93BF938C
:1042E0008091490390914A03A0914B03B0914C03F4
:1042F0003091480323E0230F2D3720F40196A11DB0
:10430000B11D05C026E8230F0296A11DB11D209303
:1043100048038093490390934A03A0934B03B093BF
:104320004C0380914D0390914E03A0914F03B091A7
:1043300050030196A11DB11D80934D0390934E0330
:10434000A0934F03B0935003BF91AF919F918F9172
:104350003F912F910F900FBE0F901F9018952FB780
:10436000F8946091490370914A0380914B039091B6
:104370004C032FBF0895019739F0880F991F880FBC
:10438000991F02970197F1F70895789484B5826098
:1043900084BD84B5816084BD85B5826085BD85B5E9
:1043A000816085BDEEE6F0E0808181608083E1E898
:1043B000F0E01082808182608083808181608083D0
:1043C000E0E8F0E0808181608083E1EBF0E08081D3
:1043D00084608083E0EBF0E0808181608083EAE7A5
:1043E000F0E080818460808380818260808380812E
:1043F000816080838081806880831092C1000895ED
:104400001F93CF93DF93182FEB0161E00E94882266
:10441000209711F460E004C0CF3FD10539F461E08A
:10442000812FDF91CF911F910C94C122E12FF0E0F9
:10443000EB5BFB4FE491E330F9F048F4E130B9F085
:10444000E230A1F584B5806284BDC8BD34C0E730D8
:10445000E9F0E83019F1E43049F58091800080629C
:1044600080938000D0938B00C0938A0024C084B5D1
:10447000806884BDC7BD1FC0809180008068809324
:104480008000D0938900C093880015C08091B0004F
:1044900080688093B000C093B3000DC08091B000DD
:1044A00080628093B000C093B40005C0C038D105CD
:1044B0000CF0B5CFAFCFDF91CF911F91089583302E
:1044C00081F028F4813099F08230A1F0089587308E
:1044D000A9F08830B9F08430D1F4809180008F7DCC
:1044E00003C0809180008F7780938000089584B509
:1044F0008F7702C084B58F7D84BD08958091B00010
:104500008F7703C08091B0008F7D8093B0000895B5
:10451000CF93DF9390E0FC01E75AFB4F2491FC011D
:10452000E359FB4F8491882349F190E0880F991F4C
:10453000FC01EB56FB4FA591B49185579B4FFC01B5
:10454000C591D4919FB7611108C0F8948C912095C2
:1045500082238C93888182230AC0623051F4F894BC
:104560008C91322F309583238C938881822B888382
:1045700004C0F8948C91822B8C939FBFDF91CF91D4
:1045800008950F931F93CF93DF931F92CDB7DEB79C
:10459000282F30E0F901EB5BFB4F8491F901E75ADA
:1045A000FB4F1491F901E359FB4F04910023C9F02B
:1045B000882321F069830E945F226981E02FF0E067
:1045C000EE0FFF1FE557FB4FA591B4919FB7F894ED
:1045D0008C91611103C01095812301C0812B8C93B4
:1045E0009FBF0F90DF91CF911F910F910895CF93AF
:1045F000DF93282F30E0F901EB5BFB4F8491F90149
:10460000E75AFB4FD491F901E359FB4FC491CC23F6
:1046100091F081110E945F22EC2FF0E0EE0FFF1F5E
:10462000EF57FB4FA591B4912C912D2381E090E0A1
:1046300021F480E002C080E090E0DF91CF91089506
:10464000FC01818D228D90E0805C9F4F821B91093F
:104650008F7399270895FC01918D828D981731F001
:10466000828DE80FF11D858D90E008958FEF9FEF0B
:104670000895FC01918D828D981761F0828DDF0184
:10468000A80FB11D5D968C91928D9F5F9F73928F45
:1046900090E008958FEF9FEF0895FC01848DDF0176
:1046A000A80FB11DA35ABF4F2C91848D90E00196A5
:1046B0008F739927848FA689B7892C93A089B18994
:1046C0008C9180648C93938D848D981306C002889E
:1046D000F389E02D80818F7D80830895CF93DF93D0
:1046E000EC01888D8823C9F0EA89FB89808185FDEA
:1046F00005C0A889B9898C9186FD0FC00FB607FC4B
:10470000F5CF808185FFF2CFA889B9898C9185FF8B
:10471000EDCFCE010E944D23E7CFDF91CF910895D9
:10472000CF92DF92FF920F931F93CF93DF931F924D
:10473000CDB7DEB76C01DC015B969C915B975C9614
:104740008C915C97981307C05096ED91FC9151970E
:10475000808185FD32C0F601038D10E00F5F1F4F91
:104760000F731127F02EF601848DF81211C00FB6C9
:1047700007FCF9CFD6015096ED91FC9151978081BD
:1047800085FFF1CFC60169830E944D236981EBCF7C
:10479000838DE80FF11DE35AFF4F6083D6015B96CE
:1047A0000C935B975296ED91FC91539780818062B8
:1047B000808381E058968C930DC0D6015696ED917A
:1047C000FC91579760835096ED91FC9151978081B1
:1047D0008064808381E090E00F90DF91CF911F9102
:1047E0000F91FF90DF90CF900895BF92CF92DF920C
:1047F000EF92FF92CF93DF93EC016A017B01B22E1F
:10480000E889F98982E08083411581EE58076105C6
:104810007105A1F060E079E08DE390E0A7019601D9
:104820000E94B629215031094109510956954795F1
:1048300037952795211580E1380798F0E889F9899F
:10484000108260E874E88EE190E0A70196010E9472
:10485000B629215031094109510956954795379597
:104860002795EC85FD853083EE85FF852083188EA6
:10487000EC89FD89B082EA89FB898081806180832F
:10488000EA89FB89808188608083EA89FB8980814D
:1048900080688083EA89FB8980818F7D8083DF91B6
:1048A000CF91FF90EF90DF90CF90BF9008951F922F
:1048B0000F920FB60F9211242F938F939F93EF9324
:1048C000FF93E0916103F09162038081E0916703BF
:1048D000F091680382FD12C0908180916A038F5F1E
:1048E0008F7320916B03821751F0E0916A03F0E01F
:1048F000EF5AFC4F958F80936A0301C08081FF912E
:10490000EF919F918F912F910F900FBE0F901F905D
:1049100018951F920F920FB60F9211242F933F9369
:104920004F935F936F937F938F939F93AF93BF93B7
:10493000EF93FF9381E593E00E944D23FF91EF9168
:10494000BF91AF919F918F917F916F915F914F91A7
:104950003F912F910F900FBE0F901F9018951092BE
:1049600054031092530388EE93E0A0E0B0E08093EC
:10497000550390935603A0935703B093580386E2D0
:1049800091E0909352038093510385EC90E09093D3
:104990005E0380935D0384EC90E0909360038093CA
:1049A0005F0380EC90E0909362038093610381EC5D
:1049B00090E0909364038093630382EC90E0909383
:1049C00066038093650386EC90E090936803809380
:1049D000670310926A0310926B0310926C0310929B
:1049E0006D030895CF92DF92EF92FF920F931F9382
:1049F000CF93DF936C017A01EB01E60EF71E00E026
:104A000010E0CE15DF0561F06991D601ED91FC91C2
:104A10000190F081E02DC6010995080F191FF1CF13
:104A2000C801DF91CF911F910F91FF90EF90DF9020
:104A3000CF9008956115710581F0DB010D90002084
:104A4000E9F7AD0141505109461B570BDC01ED91CF
:104A5000FC910280F381E02D099480E090E00895BC
:104A60000C941A25DC01ED91FC910190F081E02D70
:104A700009948F929F92AF92BF92CF92DF92EF9262
:104A8000FF920F931F93CF93DF93CDB7DEB7A1971C
:104A90000FB6F894DEBF0FBECDBF7C01C42EE52F4C
:104AA000CB01D22E19A221E02D1510F02AE0D22E32
:104AB0008E010F5D1F4F8D2C912CA12CB12C6C2DD4
:104AC0007E2FA50194010E94B6298C2DD29E8019BB
:104AD0001124015011098A3014F4805D01C0895CF1
:104AE000F8018083211531054105510521F0C22EC1
:104AF000E32FCA01E4CFB801C7010E941A25A1968D
:104B00000FB6F894DEBF0FBECDBFDF91CF911F91DE
:104B10000F91FF90EF90DF90CF90BF90AF909F905C
:104B20008F900895CF92DF92EF92FF920F931F9391
:104B3000CF93DF93EC016A017B012115310579F4F4
:104B4000E881F9810190F081E02D642FDF91CF9110
:104B50001F910F91FF90EF90DF90CF9009942A3032
:104B60003105E9F477FF1AC06DE20E9432258C010D
:104B700044275527BA014C195D096E097F092AE0BF
:104B8000CE010E943925800F911FDF91CF911F9197
:104B90000F91FF90EF90DF90CF9008952AE0B7013A
:104BA000A601CE01DF91CF911F910F91FF90EF9061
:104BB000DF90CF900C9439259A01AB01662757FD01
:104BC0006095762F0C9492252115310541F4DC0176
:104BD000ED91FC910190F081E02D642F09940C94EB
:104BE00039259A01462F50E060E070E00C94E425EE
:104BF0009A01AB0160E070E00C94E4254F925F9263
:104C00006F927F928F929F92AF92BF92CF92DF92DC
:104C1000EF92FF920F931F93CF93DF93EC016A0102
:104C20007B01B22E9A01AB01C701B6010E944B294C
:104C3000882319F062E371E027C026013701E89468
:104C400077F82FEF3FEF4FE75FE7C301B2010E9414
:104C50004B2981110DC02FEF3FEF4FE75FE7C301F5
:104C6000B2010E94502718161CF466E371E00CC0D4
:104C70002FEF3FEF4FE75FE4C701B6010E949F2887
:104C80001816ACF46AE371E0CE01DF91CF911F9169
:104C90000F91FF90EF90DF90CF90BF90AF909F90DB
:104CA0008F907F906F905F904F900C941A252FEF0C
:104CB0003FEF4FE75FECC701B6010E94502787FD29
:104CC000E1CF20E030E0A901C701B6010E945027E2
:104CD00087FF0AC06DE2CE010E9432258C01F7FAEF
:104CE000F094F7F8F09402C000E010E0A12C60E02E
:104CF00070E080E09FE3AB1441F020E030E040E260
:104D000051E40E945427A394F6CF9B01AC01C70144
:104D1000B6010E94EC266B017C010E94C1272B0189
:104D20003C010E94ED279B01AC01C701B6010E9426
:104D3000EB266B017C012AE0B301A201CE010E94A7
:104D40003925080F191FBB2039F06EE371E0CE0141
:104D50000E941A25080F191F7B2C772041F120E0B3
:104D600030E040E251E4C701B6010E94E8286B013F
:104D70007C010E94BC274B01AA2497FCA094BA2C6A
:104D80002AE030E0B501A401CE010E949225080F6F
:104D9000191FC501B4010E94EF279B01AC01C70197
:104DA000B6010E94EB266B017C017A94D6CFC80134
:104DB000DF91CF911F910F91FF90EF90DF90CF90F7
:104DC000BF90AF909F908F907F906F905F904F902B
:104DD00008950C94FE255058BB27AA270ED075C104
:104DE00066D130F06BD120F031F49F3F11F41EF406
:104DF0005BC10EF4E095E7FB51C1E92F77D180F359
:104E0000BA17620773078407950718F071F49EF5C7
:104E10008FC10EF4E0950B2EBA2FA02D0B01B90116
:104E200090010C01CA01A0011124FF27591B99F020
:104E3000593F50F4503E68F11A16F040A22F232F2C
:104E4000342F4427585FF3CF469537952795A7957C
:104E5000F0405395C9F77EF41F16BA0B620B730B23
:104E6000840BBAF09150A1F0FF0FBB1F661F771F94
:104E7000881FC2F70EC0BA0F621F731F841F48F449
:104E8000879577956795B795F7959E3F08F0B3CFCF
:104E90009395880F08F09927EE0F979587950895B9
:104EA000D9D008F481E008950CD00FC107D140F0AB
:104EB000FED030F021F45F3F19F0F0C0511139C13C
:104EC000F3C014D198F39923C9F35523B1F3951B7B
:104ED000550BBB27AA2762177307840738F09F5F1B
:104EE0005F4F220F331F441FAA1FA9F333D00E2E8A
:104EF0003AF0E0E830D091505040E695001CCAF7F7
:104F000029D0FE2F27D0660F771F881FBB1F2617BB
:104F100037074807AB07B0E809F0BB0B802DBF018E
:104F2000FF2793585F4F2AF09E3F510568F0B6C0A7
:104F300000C15F3FECF3983EDCF38695779567956B
:104F4000B795F7959F5FC9F7880F911D969587953F
:104F500097F90895E1E0660F771F881FBB1F62175E
:104F600073078407BA0720F0621B730B840BBA0B1C
:104F7000EE1F88F7E095089504D06894B111D9C068
:104F80000895BCD088F09F5790F0B92F9927B7515A
:104F9000A0F0D1F0660F771F881F991F1AF0BA95FD
:104FA000C9F712C0B13081F0C3D0B1E00895C0C0DC
:104FB000672F782F8827B85F39F0B93FCCF38695F3
:104FC00077956795B395D9F73EF490958095709550
:104FD00061957F4F8F4F9F4F0895E89409C097FBCD
:104FE0003EF490958095709561957F4F8F4F9F4FC0
:104FF0009923A9F0F92F96E9BB279395F695879504
:1050000077956795B795F111F8CFFAF4BB0F11F4C6
:1050100060FF1BC06F5F7F4F8F4F9F4F16C088236D
:1050200011F096E911C0772321F09EE8872F762FA3
:1050300005C0662371F096E8862F70E060E02AF0E4
:105040009A95660F771F881FDAF7880F96958795D0
:1050500097F90895990F0008550FAA0BE0E8FEEFA5
:1050600016161706E807F907C0F012161306E4072C
:10507000F50798F0621B730B840B950B39F40A2625
:1050800061F0232B242B252B21F408950A2609F403
:10509000A140A6958FEF811D811D089597F99F6707
:1050A00080E870E060E008959FEF80EC08950024B0
:1050B0000A941616170618060906089500240A947D
:1050C00012161306140605060895092E0394000C03
:1050D00011F4882352F0BB0F40F4BF2B11F460FF92
:1050E00004C06F5F7F4F8F4F9F4F089557FD9058BB
:1050F000440F551F59F05F3F71F04795880F97FB9C
:10510000991F61F09F3F79F0879508951216130655
:105110001406551FF2CF4695F1DF08C01616170684
:105120001806991FF1CF86957105610508940895B9
:10513000E894BB2766277727CB0197F908958ADF84
:1051400008F48FEF08950EF0AAC0AECF6894A6CFF2
:10515000D5DFC8F39923D1F3C6F3DF93CF931F9321
:105160000F93FF92C92FDD2788232AF02197660F1E
:10517000771F881FDAF720E030E040E85FEB9FE31D
:10518000883920F0803E30F021968F7725DEE6E7E3
:10519000F0E003C021DEE3EAF0E08FD08B01BE0136
:1051A000EC01FB2E6F5771097595771F880B990BD2
:1051B00016DF28E132E741E35FE316D0AF2D980117
:1051C000AE01FF900F911F91CF91DF9116DE7DCF41
:1051D0000BD07BCF6CDF28F071DF18F0952309F03E
:1051E0005DCF62CF1124A5CF81DFA0F3959FD1F3CE
:1051F000950F50E0551F629FF001729FBB27F00D85
:10520000B11D639FAA27F00DB11DAA1F649F6627D9
:10521000B00DA11D661F829F2227B00DA11D621F28
:10522000739FB00DA11D621F839FA00D611D221FE2
:10523000749F3327A00D611D231F849F600D211DC6
:10524000822F762F6A2F11249F5750408AF0E1F069
:1052500088234AF0EE0FFF1FBB1F661F771F881FB2
:1052600091505040A9F79E3F510570F017CF61CF84
:105270005F3FECF3983EDCF3869577956795B7959D
:10528000F795E7959F5FC1F7FE2B880F911D9695C7
:10529000879597F90895DEDE880B990B08959F3F57
:1052A00031F0915020F4879577956795B795880FE1
:1052B000911D9695879597F90895DF93CF931F9346
:1052C0000F93FF92EF92DF927B018C01689405C0EF
:1052D000DA2EEF0189DFFE01E894A5912591359141
:1052E00045915591AEF3EF0188DDFE019701A801CC
:1052F000DA9479F7DF90EF90FF900F911F91CF91A3
:10530000DF910895991B79E004C0991F961708F062
:10531000961B881F7A95C9F780950895AA1BBB1B19
:1053200051E107C0AA1FBB1FA617B70710F0A61BA5
:10533000B70B881F991F5A95A9F780959095BC01C6
:10534000CD01089597FB072E16F4009407D077FD42
:1053500009D00E948E2907FC05D03EF490958195D6
:105360009F4F0895709561957F4F0895A1E21A2E81
:10537000AA1BBB1BFD010DC0AA1FBB1FEE1FFF1FF9
:10538000A217B307E407F50720F0A21BB30BE40B49
:10539000F50B661F771F881F991F1A9469F7609590
:1053A0007095809590959B01AC01BD01CF0108954A
:1053B000EE0FFF1F0590F491E02D0994A29FB0011C
:1053C000B39FC001A39F700D811D1124911DB29F39
:1053D000700D811D1124911D0895662777270C9467
:1053E000562CFC0188279927E89421912032E9F373
:1053F000293010F02E30C8F32B3241F02D3239F421
:10540000689404C00E94362A820F911D2191205376
:105410002A30C0F31EF4909581959F4F0895FB01AB
:10542000DC0102C005900D9241505040D8F708951C
:10543000FB01DC014150504030F08D910590801906
:1054400019F40020B9F7881B990B0895FB01DC01C2
:1054500002C001900D9241505040D8F70895DC01F0
:1054600001C06D9341505040E0F708957AE0979F56
:10547000902D879F802D910D11240895AEE0B0E00E
:10548000E4E4FAE20C949B2E0D891E898F89988D95
:105490002EE02C831A83098397FF02C080E090E8F6
:1054A00001979E838D83AE01455E5F4F698D7A8D36
:1054B000CE0101960E946E2A4D815E8157FD0AC081
:1054C0002F813885421753070CF49A01F801E20F37
:1054D000F31F10822E96E4E00C94B72EACE0B0E0FF
:1054E000E4E7FAE20C948D2E7C016B018A01FC0149
:1054F00017821682838181FFBDC1CE0101964C01C6
:10550000F7019381F60193FD859193FF81916F01DE
:10551000882309F4ABC1853239F493FD859193FF5B
:1055200081916F01853229F4B70190E00E94EF2D3F
:10553000E7CF512C312C20E02032A0F48B3269F0DF
:1055400030F4803259F0833269F420612CC08D32FE
:1055500039F0803339F4216026C02260246023C0F2
:10556000286021C027FD27C030ED380F3A3078F48D
:1055700026FF06C0FAE05F9E300D1124532E13C0A3
:105580008AE0389E300D1124332E20620CC08E32FA
:1055900021F426FD6BC1206406C08C3611F420680E
:1055A00002C0883641F4F60193FD859193FF819105
:1055B0006F018111C1CF982F9F7D9554933028F4AE
:1055C0000C5F1F4FFFE3F9830DC0833631F0833743
:1055D00071F0833509F05BC022C0F80180818983B6
:1055E0000E5F1F4F44244394512C540115C03801C1
:1055F000F2E06F0E711CF801A080B18026FF03C09D
:10560000652D70E002C06FEF7FEFC5012C870E940F
:10561000E42D2C0183012C852F77222E17C0380111
:10562000F2E06F0E711CF801A080B18026FF03C06C
:10563000652D70E002C06FEF7FEFC5012C870E94DF
:10564000D92D2C012C852068222E830123FC1BC020
:10565000832D90E048165906B0F4B70180E290E03F
:105660000E94EF2D3A94F4CFF50127FC859127FE97
:1056700081915F01B70190E00E94EF2D31103A94C3
:10568000F1E04F1A51084114510471F7E5C0843616
:1056900011F0893639F5F80127FF07C06081718163
:1056A000828193810C5F1F4F08C0608171818827C0
:1056B00077FD8095982F0E5F1F4F2F76B22E97FFA4
:1056C00009C090958095709561957F4F8F4F9F4F42
:1056D0002068B22E2AE030E0A4010E94212EA82EDC
:1056E000A81844C0853729F42F7EB22E2AE030E076
:1056F00025C0F22FF97FBF2E8F36C1F018F4883500
:1057000079F0B4C0803719F0883721F0AFC02F2F5F
:105710002061B22EB4FE0DC08B2D8460B82E09C05E
:1057200024FF0AC09F2F9660B92E06C028E030E003
:1057300005C020E130E002C020E132E0F801B7FE10
:1057400007C060817181828193810C5F1F4F06C009
:105750006081718180E090E00E5F1F4FA4010E9484
:10576000212EA82EA818FB2DFF77BF2EB6FE0BC04A
:105770002B2D2E7FA51450F4B4FE0AC0B2FC08C035
:105780002B2D2E7E05C07A2C2B2D03C07A2C01C028
:10579000752C24FF0DC0FE01EA0DF11D80818033C0
:1057A00011F4297E09C022FF06C07394739404C0CB
:1057B000822F867809F0739423FD13C020FF06C062
:1057C0005A2C731418F4530C5718732C731468F470
:1057D000B70180E290E02C870E94EF2D73942C8516
:1057E000F5CF731410F4371801C0312C24FF12C008
:1057F000B70180E390E02C870E94EF2D2C8522FFDB
:1058000017C021FF03C088E590E002C088E790E060
:10581000B7010CC0822F867859F021FD02C080E2CA
:1058200001C08BE227FD8DE2B70190E00E94EF2DD1
:10583000A51438F4B70180E390E00E94EF2D5A944C
:10584000F7CFAA94F401EA0DF11D8081B70190E031
:105850000E94EF2DA110F5CF332009F451CEB701EE
:1058600080E290E00E94EF2D3A94F6CFF701868116
:10587000978102C08FEF9FEF2C96E2E10C94A92E46
:10588000F999FECF92BD81BDF89A992780B5089508
:10589000262FF999FECF1FBA92BD81BD20BD0FB64C
:1058A000F894FA9AF99A0FBE01960895A0E0B0E034
:1058B000ECE5FCE20C94932E8B016115710521F04F
:1058C000DB018C9311969C93EC015E01BFEFAB1A48
:1058D000BB0A7501C8808C2D90E00E94B92D892BE0
:1058E00011F0E501F2CFEDE2CE1208C07E01F2E048
:1058F000EF0EF11CC980DD24D39409C02BE2C21243
:1059000005C07E0142E0E40EF11CC980D12CE70104
:10591000219743E050E067EA74E0CE010E94C12D78
:10592000892BC1F4239645E050E062EA74E0CE0191
:105930000E94C12D892B09F425960115110519F036
:10594000D801CD93DC93D11006C160E070E080E80F
:105950009FE70AC143E050E06FE974E0CE010E9486
:10596000C12D892B59F40115110509F4F9C0B2E0D4
:10597000EB0EF11CF801F182E082F2C0F70160E069
:1059800070E0CB01C0E0D0E07F01A0EDAA2EAC0C0E
:1059900029E02A1530F14D2D4260B42E2D2D2870AE
:1059A000D2FE04C0211125C0219623C021112197C8
:1059B000A5E0B0E09B01AC010E94822E660F771F2C
:1059C000881F991F6A0D711D811D911D6839A9E9F4
:1059D0007A078A07A9E19A0760F0BD2DB660BB2E51
:1059E00008C02EEFA2120AC0D3FC50C04D2D486053
:1059F000B42E3196D701CC90DB2CC6CF2C2D2F7D29
:105A0000253409F043C0A081AD3241F4BD2DB06111
:105A1000DB2E7F0122E0E20EF11C0CC07F01AB32D5
:105A200031F04FEFE41AF40A21E030E006C0A2E0C2
:105A3000EA0EF11CA18122E030E0A053AA3018F058
:105A4000E21AF30A23C0F70120E030E02038BCE07E
:105A50003B075CF4A901440F551F440F551F240F49
:105A6000351F220F331F2A0F311DAF014F5F5F4FCC
:105A70007A01A081A053AA3010F4FA01E7CFD4FE36
:105A800003C0319521953109C20FD31FD1FE09C042
:105A90000115110531F0E1E0EE1AF108D801ED929F
:105AA000FC920E94ED272D2D2370233019F04B011D
:105AB0005C0106C04B015C01B7FAB094B7F8B09432
:105AC00020E030E0A901C501B4010E9450278823DD
:105AD00009F43EC0D7FF06C0D195C195D1090EEBA0
