:100000000C94C8020C940B0E0C94E40D0C94F602A4
:100010000C94F6020C94F6020C94F6020C94F60280
:100020000C94F6020C94F6020C9432140C945210B8
:100030000C9427140C94F6020C94F6020C94F6021D
:100040000C949A0D0C94F6020C94690C0C94430CCD
:100050000C94F6020C9444130C94F6020C94F602E1
:100060000C94F6020C94F602DF03E703EF03F703A8
:10007000FF0307040F04170408000000BE92244980
:10008000123EABAAAA2ABECDCCCC4C3E00000080CA
:10009000BEABAAAAAA3E00000000BF000000803F3D
:1000A0000000000000084178D3BB4387D1133D19FD
:1000B0000E3CC3BD4282AD2B3E68EC8276BED98F2A
:1000C000E1A93E4C80EFFFBE01C4FF7F3F0000006E
:1000D00000004E414E494E495459494E46CDCCCC74
:1000E0003D0AD7233C17B7D13877CC2B329595E60C
:1000F000241FB14F0A000020410000C84200401CEC
:100100004620BCBE4CCA1B0E5AAEC59D74070F1FBD
:100110001F1F1F1F1F1F1F1F00000000001C1E1F8E
:100120001F1F1F1F1F1F1F1F1F1F1F0F0700000064
:1001300000001F1F1F1F1F1F1F1F1F1E1C1F1F1F11
:100140000000001F1F1F000000001F1F1F726562BC
:100150006F6F7400636F6E666967007365743F74D8
:10016000703D007365743F74743D007365743F6641
:100170006E3D007365743F616C3D007365743F7044
:1001800063007365743F706E007365743F706964DB
:10019000007365743F706F3D007365743F6C643D20
:1001A000007365743F6C623D007365743F73703D0E
:1001B00000484D50532C00484D53552C00484D419C
:1001C00052000A050A050A320EF0E10006F00000AE
:1001D000000000000080400AD7A33C0000A04000BF
:1001E000327F7F7F7F46006410FF640D0A0B00643E
:1001F000C8006450726F626520200000000000009B
:100200000100D8FF38FF0000FB7E403A42396239D6
:100210000959CC3300401C460001020304050102C9
:100220002020052006060203070706060207070529
:10023000030402202005FF06060707050006060343
:100240000705010102200020000602030705000641
:1002500002202005252D313273253364DF005069DB
:10026000743A253364DF25632025632533752525FE
:100270002563005069743A253364DF2563204C6997
:1002800064253375005069743A253364DF25632093
:10029000205B4F66665D002D204E6F2050697420F4
:1002A00050726F6265202D002A2A20414C41524D28
:1002B0002048494748202A2A002A2A20414C4152F6
:1002C0004D204C4F5720202A2A00253364DF256318
:1002D000005365742074656D706572617475726524
:1002E0003A004F666673657420253464DF25630029
:1002F00025336425252062656C6F77207365740053
:100300004C6964206F70656E206F6666736574005B
:10031000253364207365636F6E6473004C696420D9
:100320006F70656E2074696D6572004D616E7561E8
:100330006C2066616E206D6F646500484D52432CE1
:100340005553455200526573657420636F6E66693C
:10035000673F004B636F75706C650052465769725A
:10036000656C00546865726D6973004469736162FD
:100370006C65007370656564202533642525004D28
:100380006178696D756D206175746F2066616E00AE
:100390002533642525004C434420627269676874E4
:1003A0006E6573730042746E253033753D2531756B
:1003B0002020204247253033750046616E253033BA
:1003C000753D253033755620253032754E7A002024
:1003D000202020202020006B0363035B0353035085
:1003E0002531752041442531632530357520253070
:1003F00032754E7A0000000000240027002A00C158
:100400000000ECD8B29D9CC3EC143D51654F3B14E9
:10041000484D524D00484D50432C00484D504E0021
:10042000484D504400484D504F00554349442C48D6
:1004300065617465724D657465722C32303230308E
:1004400032313000484D4C442C00484D4C422C0079
:10045000484D414C00484D464E2C00000000002302
:10046000002600290000000008000201000003042B
:1004700007000000000000000003280403020A0334
:10048000040504280504020A0404030528030502E0
:100490000A05040406280306020A0604050A2103C5
:1004A0000A0214142103141119140216162103163A
:1004B000021717210317020E0E21030E020F0F2140
:1004C000030F021010210310021111210311021257
:1004D0001221031202131321031302151521031510
:1004E000020A191103000000031908050104190884
:1004F00005010519080501061908010107F30B009C
:10050000000AFE050A0014A6040A010EBB050A0033
:100510000FBB050A0010BB050A0011BB050A00123B
:1005200090050A001364050A0015370A0A00170A25
:100530000C0A0016B10B0A001805111400195D0B06
:100540000001000000000000000000250028002B32
:10055000000404040404040404020202020202036C
:100560000303030303010204081020408001020476
:100570000810200102040810204E6F2000596573F6
:1005800000484D52462C3235352C302C00000227C5
:1005900011241FBECFEFD8E0DEBFCDBF14BEE0E612
:1005A000F0E088E18083108226E0ACE6B1E001C093
:1005B0001D92A534B207E1F711E0A0E0B1E0E8E355
:1005C000F0E602C005900D92AC36B107D9F712E003
:1005D000C8ECD2E004C02197FE010E940830C73C5D
:1005E000D107C9F70E94981B0C941A300C94000094
:1005F000089580E090E00895882319F0813041F05B
:10060000089581E0672B09F480E0809387050895C1
:100610006093180284E080931904089568E080E0F4
:100620000E9407138823B9F09BEE980F973268F069
:1006300093EC980F973258F097E8980F973248F05C
:10064000815A873240F482E0089581E0089588E07D
:10065000089584E0089580E00895811103C089E041
:100660000C94C40C2FEF280F2230A0F481E090E00E
:1006700001C0880F2A95EAF720914D05662311F0F5
:10068000822B02C08095822380934D0589E495E0FA
:100690000C942B0F0895CF93DF9300D0CDB7DEB726
:1006A000272F7A836983982F9695E92FF0E0EE0F34
:1006B000FF1FE95AFA4F01A8F2A9E02D8170462FD9
:1006C000522F282F30E0DF01A20FB31F94961C9207
:1006D000949792961C9241155105A9F0220F331F51
:1006E000E20FF31F578F468F943068F4880F25E28E
:1006F000929F800D1124815B682F70E042E0CE0153
:1007000001960E94B7160F900F90DF91CF91089538
:10071000CF93DF9300D0CDB7DEB777FD11C0813026
:1007200099F038F0823029F13AC0813090F560E0DC
:1007300070E06093920584E090E00E9472162FC0F2
:10074000813099F760E070E0962F872F6E31710548
:1007500010F49EE180E090936305809364057A83B2
:10076000698342E065E070E0CE0101960E94B71611
:1007700016C0672B81F081E080935C0510925705CD
:1007800080916305909164059093A8058093A705D7
:1007900006C0823021F41092A8051092A7050F9090
:1007A0000F90DF91CF910895CF9390E0883091051D
:1007B00008F047C0FC01EC5CFF4F0C940830653634
:1007C00008F064E6609378058EE190E037C0653606
:1007D00008F064E6609376058FE190E02FC06093A7
:1007E0007B058AE08093850587E290E027C06093CF
:1007F0007A058AE08093850588E290E01FC0C62FC5
:10080000862F0E9483186C2F80E290E017C0653617
:1008100008F064E66093770582E290E00FC06436EA
:1008200008F060E06093790589E290E007C06536E2
:1008300008F064E660937C058AE290E0CF910C9426
:100840007216CF910895BF92CF92DF92EF92FF92EE
:100850000F931F93CF93DF936C01B62E08E815E03A
:100860009CE6E92E91E0F92EF801C191D1918F011A
:100870008981823001F5F70180818F37A9F1F60176
:100880009281891318C030C0F6018781608171811F
:1008900082FF30C0072E000C880B990B0E949D2C04
:1008A00020E030E040E251E40E947B2EAB01BC012D
:1008B000CE010E944011FFEFEF1AFF0A85E00039D8
:1008C000180791F68B2D8570E9F080911C0588231F
:1008D000C9F0DF91CF911F910F91FF90EF90DF90C2
:1008E000CF90BF900C94B719E4E0BE12CDCF60E07A
:1008F00070E004C0660F771F660F771FCE010E945D
:100900009B11D9CFDF91CF911F910F91FF90EF9065
:10091000DF90CF90BF900895CF93DF93D82FC92F4A
:10092000662321F089E495E00E944310ED2FFC2F0F
:100930006491EF012196662331F089E495E00E94ED
:10094000420BFE01F5CFDF91CF910895CF93C82FD1
:10095000803891F461E08BE293E00E948C0481E0A6
:1009600090E020915C05233011F080E090E09093BE
:100970004206809341061DC08034D9F4809141061F
:100980009091420631E0009709F430E021E0409177
:100990005C05433009F020E0321759F0892B29F427
:1009A00080915D0590915E0502C080E090E00E941C
:1009B000F9168C2F0E94381A81E0CF9108956115A5
:1009C000710579F0FB0101900020E9F73197AF0143
:1009D000461B570BDC01ED91FC910280F381E02D69
:1009E000099480E090E008950F931F93CF93DF93D5
:1009F000CDB7DEB761970FB6F894DEBF0FBECDBF9F
:100A00009091CC049B3018F0660F660F03C09630AF
:100A100008F0660FE0914106F0914206843019F427
:100A2000E60FF11D04C0883031F4E61BF109F093A4
:100A30004206E09341068091410690914206841758
:100A4000950724F450934206409341068091410655
:100A5000909142062817390724F4309342062093D8
:100A6000410661E080E00E940C1A80917505282FF4
:100A7000082E000C330B3F938F93809142068F9387
:100A8000809141068F931F930F931F9281E18F9363
:100A90008E010F5F1F4F1F930F930E946628B801AE
:100AA00089E495E00E94DF040FB6F894DEBF0FBE24
:100AB000CDBF61960FB6F894DEBF0FBECDBFDF91FC
:100AC000CF911F910F9108950F931F93CF93C82F2C
:100AD000803871F461E08CE193E00E948C04809195
:100AE000630590916405909342068093410609C086
:100AF000803439F4609141067091420681E00E9491
:100B0000880300E113E028EE33E040E050E06AE0C3
:100B10008C2F0E94F40481E0CF911F910F910895D2
:100B20000F931F93CF93C82F803869F461E080E062
:100B300093E00E948C048091920590E0909342068D
:100B40008093410609C0803439F460914106709168
:100B5000420680E00E94880300EF12E024E630E0C5
:100B600040E050E061E08C2F0E94F40481E0CF91DE
:100B70001F910F9108950F931F93CF93DF93D82F59
:100B8000E091C704C2EFCE0F8038E9F48C2F0E94A9
:100B9000451789E495E00E9443106CEC71E089E40C
:100BA00095E00E94DF04EC2FF0E0EE0FFF1FE95A02
:100BB000FA4F01A8F2A9E02D848195819093420615
:100BC000809341060BC0803449F4609141067091D6
:100BD00042068C2F0E94D4160E94601502EE12E08D
:100BE00028EC30E048E35FEF61E08D2F0E94F404D1
:100BF00081E0DF91CF911F910F9108950F931F9383
:100C0000CF93C82F803871F461E081ED92E00E94AB
:100C10008C0480915D0590915E05909342068093CF
:100C200041060FC0803469F48091410690914206DC
:100C300020915D0530915E058217930711F00E94A7
:100C4000F9160AEC12E028EE33E040E050E065E0EF
:100C50008C2F0E94F40481E0CF911F910F91089591
:100C60006F927F928F929F92AF92BF92CF92DF92BC
:100C7000EF92FF920F931F93CF93DF93CDB7DEB721
:100C800061970FB6F894DEBF0FBECDBF1091C704B9
:100C900060E080E00E940C1A173071F41091860514
:100CA00060E010FD03C089EB92E002C088EA92E0A8
:100CB0000E948C041695F4C0E091F904E43008F029
:100CC0007DC0F0E0EE0FFF1FE95AFA4F01A8F2A92C
:100CD000E02D82818F3409F071C020E030E040E2E5
:100CE00051E466897789808D918D0E94FC2C0E9449
:100CF000ED2E77FF0CC0EE24FF24E61AF70A01E080
:100D000010E16AE0C62ED12C76E0B72E1AC07B0126
:100D100000E0F6CF1930C4F4115060E0812F0E943A
:100D20000C1A60E289E495E00E94420B61E0812F99
:100D30000E940C1A1C3061F56EE289E495E00E9475
:100D4000420BE114F10431F3C701B6010E94BE2F3A
:100D5000962EA72EB89E9001B99E300D1124C90180
:100D6000885E9D4F7C01135060E0812F0E940C1A19
:100D700063E0C7010E94B41761E0812F0E940C1A42
:100D800063E0C70103960E94B417E92CFA2CC4CF84
:100D9000E114F10459F419304CF4002339F061E006
:100DA00089E495E00E94420B00E005C060E289E41E
:100DB00095E00E94420B1111C4CFEBC0E091900569
:100DC000F091910502810F3439F466897789808D1D
:100DD000918D0E94ED2E02C060E070E090915C0564
:100DE000DE0111967D01933059F00F3409F4AFC044
:100DF00041E150E067E972E0CD010E94472846C01A
:100E00002091A7053091A805809175052115310520
:100E1000B1F03F932F93282F082E000C330B3F93F4
:100E20008F937F936F9383E792E09F938F931F92AB
:100E300081E18F93FF92EF920E94662822C0933047
:100E400019F02DE59BE502C02EE59EE51F922F933C
:100E5000209157051F922F931F929F93282F082EA2
:100E6000000C330B3F938F937F936F938EE592E04B
:100E70009F938F931F9281E18F93FF92EF920E9435
:100E800066280FB6F894DEBF0FBECDBFB70189E468
:100E900095E00E94DF048091F9048F3F19F412500D
:100EA000012F02C003E011E09E012F5F3F4F690157
:100EB0003CECA32E31E0B32E44E5842E42E0942E88
:100EC00051E1652E81E0782E711A011708F461C096
:100ED000143008F055C0E12EF12CC701880F991F7E
:100EE000DC01A95ABA4F7D01D196ED91FC91D297C0
:100EF00082818F3409F044C0812F0E944517D701A9
:100F0000D196ED91FC91D29766897789808D918DEC
:100F10000E94ED2E7F936F93BF92AF929F928F921C
:100F20001F926F92DF92CF920E9466280FB6F894BC
:100F3000DEBF0FBECDBF672D610F80E00E940C1A8F
:100F4000B60189E495E00E94DF041F5FBECF9430B4
:100F500009F056CF80917505282F082E000C330B11
:100F60003F938F937F936F9385E892E09F938F9346
:100F70001F9281E18F93FF92EF920E94662881CFAA
:100F800041E150E060E270E0C6010E941330198A2E
:100F9000D2CF61960FB6F894DEBF0FBECDBFDF9102
:100FA000CF911F910F91FF90EF90DF90CF90BF9066
:100FB000AF909F908F907F906F90089560E080E059
:100FC0000E94241961E08091A7059091A805892BC2
:100FD00009F460E08AE00E94241961E080915705DD
:100FE000811101C060E08BE00E94241961E08091D2
:100FF0005705843608F460E08DE00E94241961E012
:1010000080915C05823009F060E08CE00E94241938
:1010100061E080915C05811160E08FE00E942419FD
:1010200061E080915C05813009F060E080E10C9422
:1010300024198038D1F480E396E09093D60480930D
:10104000D5048091C704863009F45DC0EAE8F5E074
:10105000A191B19112969C919F3409F456C095E0EC
:10106000E039F907A9F786E0089590915C05813190
:1010700081F4943011F084E001C080E080935C053D
:101080001092A8051092A705109257050E94AE165F
:101090003AC0933029F5843031F0883031F0813016
:1010A00091F58FEF03C085E001C08BEF20915705CC
:1010B000082E000C990B820F911D23E020935C05F4
:1010C0001092A8051092A70597FD06C085369105D8
:1010D00024F084E690E001C080E08093570513C0BF
:1010E000813089F4943079F061E070E08091A70557
:1010F0009091A805892B11F060E070E082E00E94D9
:1011000088030E94DE0781E00895833049F4E0916E
:101110008A05F0918B0582818F34A9F384E00895CC
:10112000843049F4E0918C05F0918D0582818F34F3
:1011300051F385E00895853031F7E0918E05F09107
:101140008F0582818F34F9F283E00895CF92DF9288
:10115000EF92FF920F931F93CF93DF93CDB7DEB73C
:10116000AD970FB6F894DEBF0FBECDBF082F42E09B
:101170006EE370E0CE0101960E94341789819A8156
:101180008E30904F61F08EE090EF9DA78CA742E0EB
:101190006EE370E0CE018C960E94B71601E088E8FD
:1011A000C82E85E0D82E10E090E4E92EF12C002323
:1011B00091F045E250E063EF71E0CE0101960E94AC
:1011C000472880E3810F8F8345E2B701CE01019666
:1011D0000E94B71606C045E2B701CE0101960E94F3
:1011E0003417F601819191916F012E85FC012183C5
:1011F0002C893D8935832483DC01169620E1FE018C
:10120000769601900D922A95E1F728893989FC019B
:1012100014A212A22115310511F0378F268F2A89C9
:101220003B89FC0115A213A22115310511F031A350
:1012300020A36F85662359F0062E000C770B812FB3
:101240000E94D41660E0C7010E960E947216F5E265
:10125000EF0EF11C1F5F143009F0A9CFAD960FB649
:10126000F894DEBF0FBECDBFDF91CF911F910F91DC
:10127000FF90EF90DF90CF900895EF92FF921F9331
:10128000CF93DF93EC017B0110E088818823A1F0EC
:101290008C3219F41F5F2196F8CFCE010E942928C5
:1012A000BC01812FF7010995FE01EF01819188238F
:1012B00061F38C32D1F7E9CFDF91CF911F91FF908D
:1012C000EF900895CF92DF92EF92FF921F93CF930A
:1012D000DF93CDB7DEB7AB970FB6F894DEBF0FBE86
:1012E000CDBF182F4BE260E070E0CE0101960E9466
:1012F00034171111ACC089819A818E30904F09F05A
:10130000A6C08B819C811092A8051092A70510920F
:10131000570590935E0580935D058D8180939205BE
:101320008E819F818E31910510F48EE190E0909333
:1013300064058093630580E1FE013896A3E9B5E07A
:1013400001900D928A95E1F7888D80935C0541E0CC
:10135000698D89E495E00E94C4188A8D9B8DAC8DBF
:10136000BD8D80936C0190936D01A0936E01B0933D
:101370006F018E8D833409F086E40E94AB188F8D47
:10138000853608F084E68093780588A1853608F0D4
:1013900084E6809376058AA5843608F080E0809301
:1013A00079058BA1853608F084E68093770589A1BD
:1013B0000E9483188AA18093F9048091C704835006
:1013C000833050F489E495E00E9443108091D50465
:1013D0009091D6040E949A1088A580937B058AE09C
:1013E0008093850589A580937A058BA5853608F0BD
:1013F00084E680937C056E0184E2C80ED11C88E0EF
:10140000E82E85E0F82E10E0F60181916F01F701DA
:1014100080838281813039F4E0911A05F0911B05B7
:1014200060E0812F09951F5FF3E0EF0EF11C14308F
:1014300059F7AB960FB6F894DEBF0FBECDBFDF9164
:10144000CF911F91FF90EF90DF90CF9008954BE2E6
:1014500050E068EC71E0CE0101960E9447284BE213
:1014600060E070E0CE0101960E94B7164ACFCF939C
:10147000C82F803851F461E085E493E00E948C0429
:10148000109242061092410614C0803491F480916B
:10149000410690914206892B61F081E00E94620929
:1014A00081E00E94A6088BE393E00E94A7140E94AB
:1014B0007E148C2F0E94381A81E0CF910895FC0190
:1014C000538D448D252F30E0842F90E0821B930BA9
:1014D000541710F0CF96089501970895FC01918D4F
:1014E000828D981761F0828DDF01A80FB11D5D9686
:1014F0008C91928D9F5F9F73928F90E008958FEFF4
:101500009FEF0895FC01918D828D981731F0828DA7
:10151000E80FF11D858D90E008958FEF9FEF0895FE
:10152000FC01918D228D892F90E0805C9F4F821B62
:1015300091098F73992708958CE194E00E94900A95
:1015400021E0892B09F420E0822F0895FC01848D8D
:10155000DF01A80FB11DA35ABF4F2C91848D90E0DD
:1015600001968F739927848FA689B7892C93A089B8
:10157000B1898C91837080648C93938D848D981342
:1015800006C00288F389E02D80818F7D80830895D5
:10159000EF92FF920F931F93CF93DF93EC0181E0C3
:1015A000888F9B8D8C8D981305C0E889F98980817F
:1015B00085FD26C0F62E0B8D10E00F5F1F4F0F73B9
:1015C0001127E02E8C8DE8120CC00FB607FCFACF65
:1015D000E889F989808185FFF5CFCE010E94A60AAE
:1015E000F1CF8B8DFE01E80FF11DE35AFF4FF08222
:1015F0009FB7F8940B8FEA89FB89808180620AC0CB
:101600009FB7F894EE89FF896083E889F989808122
:101610008370806480839FBF81E090E0DF91CF91F1
:101620001F910F91FF90EF900895CF93DF93EC01FE
:10163000888D8823C9F0EA89FB89808185FD05C0F2
:10164000A889B9898C9186FD0FC00FB607FCF5CF2C
:10165000808185FFF2CFA889B9898C9185FFEDCF74
:10166000CE010E94A60AE7CFDF91CF91089580E0D6
:1016700090E0892B29F00E949C0A81110C940000B3
:1016800008950895DC01ED91FC910084F185E02D31
:1016900041E0099581E090E00895FC01848588305F
:1016A00048F49585891730F491E0980F9487E80FF6
:1016B000F11D648381E090E00895803869F48091A1
:1016C000C804893111F01092D70487E39FE090930A
:1016D000D6048093D50416C0823049F48091D70493
:1016E00090E0019665E070E00E94D22F09C0813041
:1016F00049F48091D704811102C084E001C0815077
:101700008093D70481E008950E940E30607F0E948C
:101710005C1A8BE990E00197F1F708950F931F93FE
:10172000CF93DF938C01C62F411144E0F8018481EF
:10173000D42FD82B6C2F607F6D2BC8010E945C1AB0
:10174000F0E1CF9FB00111246D2BC8010E945C1AFB
:101750008BE990E00197F1F7DF91CF911F910F9105
:1017600008950F931F93CF93C82F803869F461E0D9
:1017700086E993E00E948C048091530590E0909359
:1017800042068093410619C08034B9F400914106A5
:10179000109142068091530590E08017910769F0FF
:1017A00041E0602F89E495E00E94C418602F88E131
:1017B00090E00E9472160E94261500E913E024E6CC
:1017C00030E040E050E06AE08C2F0E94F40440E0FA
:1017D0006091410689E495E00E94C41881E0CF91B0
:1017E0001F910F910895803839F480E396E090932B
:1017F000D6048093D5040CC08F7051F060E070E087
:10180000809186050E944B030E94F61482E00895A1
:1018100081E008950F931F93CF93C82F803869F408
:1018200061E08FE793E00E948C048091760590E060
:10183000909342068093410617C08034A9F46091CA
:101840004106709142068091760590E086179707D1
:1018500059F0653608F064E6609376058FE190E014
:101860000E9472160E94C41403E713E024E630E0DD
:1018700040E050E065E08C2F0E94F40481E0CF91BD
:101880001F910F9108951F920F920FB60F9211247E
:101890002F933F934F935F936F937F938F939F9378
:1018A000AF93BF93EF93FF938CE194E00E94A60A5D
:1018B000FF91EF91BF91AF919F918F917F916F9128
:1018C0005F914F913F912F910F900FBE0F901F90FE
:1018D00018951F920F920FB60F9211242F938F938A
:1018E0009F93EF93FF93E0912C04F0912D0480815E
:1018F000E0913204F091330482FD12C09081809116
:1019000035048F5F8F7320913604821751F0E09178
:101910003504F0E0E45EFB4F958F8093350401C001
:101920008081FF91EF919F918F912F910F900FBE2A
:101930000F901F901895833081F028F4813099F032
:101940008230A1F008958730A9F08830B9F0843052
:10195000D1F4809180008F7D03C0809180008F77CB
:1019600080938000089584B58F7702C084B58F7D01
:1019700084BD08958091B0008F7703C08091B0003E
:101980008F7D8093B00008951F93CF93DF93282F0E
:1019900030E0F901EB59FB4F8491F901EB59FA4F13
:1019A000D491F901EF5AFA4FC491CC23C1F0162F0C
:1019B00081110E949B0CEC2FF0E0EE0FFF1FE95B02
:1019C000FA4FA591B4919FB7F894111104C08C916E
:1019D000D095D82302C0EC91DE2BDC939FBFDF9122
:1019E000CF911F910895CF93DF9390E0FC01EB59C5
:1019F000FA4F2491FC01EF5AFA4F8491882361F148
:101A000090E0880F991FFC01EB50FC4FC591D491D9
:101A1000FC01E95BFA4FA591B491611109C09FB730
:101A2000F8948881209582238883EC912E230BC023
:101A3000623061F49FB7F8948881322F3095832308
:101A40008883EC912E2B2C939FBF06C08FB7F89400
:101A5000E8812E2B28838FBFDF91CF9108951F93AC
:101A6000CF93DF93182FEB0161E00E94F30C2097D6
:101A700011F460E004C0CF3FD10539F461E0812F5B
:101A8000DF91CF911F910C94C40CE12FF0E0EB5942
:101A9000FB4FE491E330F9F048F4E130B9F0E23083
:101AA000A1F584B5806284BDC8BD34C0E730E9F0DB
:101AB000E83019F1E43049F580918000806280932C
:101AC0008000D0938B00C0938A0024C084B58068C6
:101AD00084BDC7BD1FC08091800080688093800056
:101AE000D0938900C093880015C08091B0008068B1
:101AF0008093B000C093B3000DC08091B0008062AD
:101B00008093B000C093B40005C0C038D1050CF07C
:101B1000B5CFAFCFDF91CF911F9108952FB7F89434
:101B20006091E3017091E4018091E5019091E601FB
:101B30002FBF08951F920F920FB60F9211242F936B
:101B40003F938F939F93AF93BF938091E3019091C5
:101B5000E401A091E501B091E6013091E20123E0BA
:101B6000230F2D3720F40196A11DB11D05C026E8D5
:101B7000230F0296A11DB11D2093E2018093E30182
:101B80009093E401A093E501B093E6018091DE011A
:101B90009091DF01A091E001B091E1010196A11DBA
:101BA000B11D8093DE019093DF01A093E001B0931B
:101BB000E101BF91AF919F918F913F912F910F9034
:101BC0000FBE0F901F9018951F920F920FB60F9295
:101BD00011242F933F934F935F936F937F938F9332
:101BE0009F93AF93BF93EF93FF93E0910301F09125
:101BF00004010995FF91EF91BF91AF919F918F9152
:101C00007F916F915F914F913F912F910F900FBEF8
:101C10000F901F9018951F920F920FB60F921124DC
:101C20002F933F934F935F936F937F938F939F93E4
:101C3000AF93BF93EF93FF93E0910101F091020105
:101C40000995FF91EF91BF91AF919F918F917F91F6
:101C50006F915F914F913F912F910F900FBE0F9019
:101C60001F9018952CB521602CBD2A989EBD0DB4EF
:101C700007FEFDCF2EB530E0322F22278EBD0DB4EA
:101C800007FEFDCF9EB52A9A8CB58E7F8CBDA9012B
:101C9000492BCA0108950F931F93CF93DF9380E0E0
:101CA00090E00E94320E192F9093DD0180911A046A
:101CB000843009F06AC080E090EB0E94320EEC01A3
:101CC000082F8091700163E00E94B22F911113C020
:101CD000209172011170812F820F911D820F911D31
:101CE000FC01EB5FFE4F80818093720190E0806A7F
:101CF00094690E94320E80917001811124C00432D7
:101D000011F481E109C0CE0199279E01207F33277C
:101D1000203E310521F488E08093710114C024E055
:101D2000959587952A95E1F70296959587958093E5
:101D3000710180917101823008F470C0809171014D
:101D4000823108F06BC0E091700181E08E0F8093CA
:101D50007001F0E0ED58FE4FC083809184018C2724
:101D600098E021E387FF03C0880F822701C0880F16
:101D70009150C1F78093840190917001809171011D
:101D800098134EC089E092E843C080911A0487FFFF
:101D90001DC0E0911A0481E08E0F80931A04809197
:101DA0007101E80FF0E0ED58FE4F808190918401C1
:101DB000982728E031E397FF03C0990F932701C0CC
:101DC000990F2150C1F79093840120C080911A048B
:101DD00091E0980F90931A04823089F02CF48111CD
:101DE00012C08091840112C0853079F0863059F498
:101DF00080917101819580931A0484ED07C089E078
:101E000092E80E94320E8AEA01C08DE290E0985476
:101E1000DF91CF911F910F910C94320E82E07CCF15
:101E2000DF91CF911F910F910895FC012FB7F89486
:101E30006EBD0DB407FEFDCFA485B5859C9183854D
:101E4000892B8C93A485B5859C9183858095892366
:101E50008C932FBF0895FC0164810C94150FDC0155
:101E6000ED91FC910084F185E02D40E00994EF9222
:101E7000FF920F931F93CF93DF9362E089E495E085
:101E80000E942F0F8BE39FE10197F1F7E091D704B8
:101E9000E43008F09AC0F0E0EE0FFF1FE95AFA4F65
:101EA000C1A9D2A98881E82FF0E0E951FE4F13A122
:101EB0006EE00E940713E881F0E0E951FE4F21A592
:101EC000211102C023E401C022E41F921F939F93BB
:101ED0008F931F922F938091D7041F928F938FED32
:101EE00093E09F938F931F9281E18F938CEC91E00D
:101EF0009F938F930E9466286CEC71E089E495E0D3
:101F00000E94DF0461E080E00E940C1AE981F0E0A9
:101F1000EE0FFF1FE952FC4F8591949160E00E9403
:101F20008C0460E289E495E00E94420B8DB79EB775
:101F30000E960FB6F8949EBF0FBE8DBF8A818F3468
:101F400099F54E895F89688D798D10920605C6E0F6
:101F5000C093070522E08AEF94E00E94BC1A8091AA
:101F60000605C81BC11102C0E0E007C060E289E4B9
:101F700095E00E94420BC150F5CF80910605E8170D
:101F800060F4C1E0CE0FF0E0E650FB4F648189E4DD
:101F900095E00E94420BEC2FF0CF6DE571E089E4F3
:101FA00095E00E94DF0405C060E08FEC93E00E94A2
:101FB0008C046091750589E495E0DF91CF911F91C4
:101FC0000F91FF90EF900C94420B68E081E00E942B
:101FD0000713EC0180910B021F928F932C2F30E09E
:101FE000AAE9BBE00E94FF2D2AEE35E140E050E077
:101FF0000E94E62F3F932F93DD27DF93CF938AEB49
:1020000093E09F938F931F9211E11F93CCECD1E04B
:10201000DF93CF930E946628BE0189E495E00E9479
:10202000DF0461E080E00E940C1AF0901602E0905C
:1020300017020E940E03082F68E080E00E94071339
:10204000EF92FF921F920F939F938F9385EA93E0F5
:102050009F938F931F921F93DF93CF930E946628C5
:102060008DB79EB748960FB6F8949EBF0FBE8DBF32
:10207000BE0189E495E0DF91CF911F910F91FF9010
:10208000EF900C94DF0461E00E942F0F8BE39FE13F
:102090000197F1F70895EFE6F0E080818D7F80836E
:1020A0005E9808951F920F920FB60F9211242F93EE
:1020B0003F934F935F936F937F938F939F93AF93D0
:1020C000BF93EF93FF938091850190918601892BB7
:1020D000F1F0809188009091890086509F4F803464
:1020E0002CE9920710F080E090E0909389008093B3
:1020F00088008091850190918601019790938601D7
:10210000809385019BB180E489278BB902C00E942E
:102110004B10FF91EF91BF91AF919F918F917F9164
:102120006F915F914F913F912F910F900FBE0F9044
:102130001F901895009711F0FC01099408951F93C2
:10214000CF93DF93EC01162F623009F4198588854F
:1021500018138987133080F18885811769F1EC8124
:10216000FD81309749F03196259134912115310543
:1021700019F080E4F90109951887888199819D8378
:102180008C831D861F8A1E8AEC81FD8184918823A1
:1021900031F0811721F03596FD83EC83F5CF309730
:1021A00059F03196259134912115310599F280E845
:1021B000F9010995182FCECF0E948E0D6E877F876B
:1021C000888B998BDF91CF911F91089562E089E40C
:1021D00095E00E942F0F8BE39FE10197F1F740E11B
:1021E00050E068ED74E089E495E00E948D1961E0AB
:1021F00080E00E940C1A40E150E068EE74E089E44F
:1022000095E00E948D1981E00895803811F40C94B6
:10221000E61082E008951F93CF93DF93EC01162F11
:102220008C81811107C081E08C831D8284E290E063
:102230000E94DB188D8181278D83612F8CE194E0D2
:10224000DF91CF911F910C94C80AE8E8F5E080E097
:10225000A191B19111969C91923009F48F5F95E014
:10226000E039F907A9F7882351F080911C05811105
:1022700006C083E00E94C91781E080931C05089581
:10228000CF92DF92EF92FF921F93CF93DF93EC01F7
:102290006A017B016C817D81072E000C880B990BF4
:1022A0000E949D2C10917505163431F424EE38E30C
:1022B0004EE05FE30E94FC2CA70196010E940F2EC6
:1022C0006B017C0120E030E048EC52EC0E94962C3F
:1022D000181614F08CE426C020E030E04AEF53E4F6
:1022E000C701B6010E94232F87FD02C088E41AC0EF
:1022F000163499F426E636E646EE5FE3C701B601EA
:102300000E94FC2C20E030E040E052E40E940F2EBE
:102310006E8B7F8B888F998F04C0CE8ADF8AE88E80
:10232000F98E8FE48A83DF91CF911F91FF90EF9018
:10233000DF90CF9008958F929F92AF92BF92CF92ED
:10234000DF92EF92FF920F931F93CF93DF93EC01F5
:102350008B01F090750521E4F21205C080E090E059
:102360000E949B2C04C18981833009F04AC0CA882D
:10237000DB88EC88FD8820E030E048EC52E4C701BF
:10238000B6010E94962C87FF0AC0A701960160E063
:1023900070E48EE495E40E947B2E6B017C01E88161
:1023A000F0E0E951FE4F81A5882399F181E00038E2
:1023B0003EE3130708F080E081A783A1980140E481
:1023C000849F200D311D1124C901813E9F43F8F4E3
:1023D000609116027091170280E090E00E949B2CA1
:1023E0009B01AC0160E070EC8FE794E40E947B2ECF
:1023F0009B01AC01C701B6010E947B2E6B017C01E1
:102400000FC0CB010197803E9F4308F48CC085E547
:10241000B3C081E0003C32E1130708F080E081A7FF
:10242000B80180E090E00E949B2C20E030EC4FE768
:1024300056E40E947B2EA70196010E94FC2C6B01A2
:102440007C0120E030E0A9010E94962C18160CF0C7
:1024500067C020E030E04AEA53E4C701B6010E94B9
:10246000232F87FF5DC0C701B6010E94ED2ECB016F
:1024700064E170E00E94D22F262F062E000C330B51
:10248000F901E150FC4F1491603134F4F901E0504E
:10249000FC4F0491011B02C0012F019544E164022D
:1024A000B0011124072E000C880B990B0E949D2C63
:1024B0009B01AC01C701B6010E940E2E20E030E066
:1024C00040EA51E40E947B2E4B015C01602F000F1B
:1024D000770B880B990B0E949D2C9B01AC01C501C9
:1024E000B4010E94FC2C4B015C01612F110F770B92
:1024F000880B990B0E949D2C9B01AC01C501B40176
:102500000E940F2E20E030E048EC52E40E947B2E27
:102510009B01AC01C701B6010E940F2E6B017C012B
:10252000B701A60165C080E090E00E949B2C9B0152
:10253000AC0160E070EC8FE796E40E947B2E20E017
:1025400030E040E85FE30E940E2E9B01AC016A89F7
:102550007B898C899D890E947B2E32E5F3121AC0FB
:102560002091900530919105C217D30799F06E8B99
:102570007F8B888F998F8FE48A83DF91CF911F9112
:102580000F91FF90EF90DF90CF90BF90AF909F9012
:102590008F9008950E94302F6B017C012E853F851E
:1025A000488959890E94FC2CA70196010E94FC2CA5
:1025B0002A853B854C855D850E940F2EA7019601DB
:1025C0000E94FC2C2E813F81488559850E940F2E48
:1025D0009B01AC0160E070E080E89FE30E947B2EED
:1025E00023E333E948E853E40E940E2EAB01BC011B
:1025F000CE01DF91CF911F910F91FF90EF90DF906F
:10260000CF90BF90AF909F908F900C944011CF933C
:10261000DF93282FF89474E0879FF0011124E9518B
:10262000FE4F83859485A585B6857894C62FD0E026
:1026300021110CC02CE030E02C1B3D0B04C0B695E2
:10264000A795979587952A95D2F71BC0BC01CD0118
:1026500024E0660F771F881F991F2A95D1F72091D4
:10266000E70130E040E050E00E94E62F8EE090E08D
:102670008C1B9D0BB90102C0769567958A95E2F790
:10268000CB01DF91CF9108951F920F920FB60F9259
:1026900011242F933F934F935F936F937F938F9367
:1026A0009F93AF93BF93EF93FF938091ED018823A6
:1026B00009F453C081508093ED01823001F580917F
:1026C000F00190E0FC01EE0FFF1FEE0FFF1FE9513C
:1026D000FE4F4091E9015091EA016091EB01709148
:1026E000EC014387548765877687FC01E951FE4FEB
:1026F0002091EE013091EF01231B23A397C081307D
:1027000099F41092E9011092EA011092EB011092F3
:10271000EC011092EE018FEF8093EF0180917C002D
:102720008F708093F00182C0811180C08091F00190
:1027300081110EC084E08093E8018091F10190E066
:10274000019666E070E00E94D22F8093F1016EC086
:102750008091E7018093E80169C020917C002F708F
:10276000E091E801EE23C1F1E150E093E8018091AE
:1027700078009091790030911802231307C0F0E09F
:10278000EE0FFF1FE75EFD4F918380834091E901CB
:102790005091EA016091EB017091EC01480F591FD3
:1027A000611D711D4093E9015093EA016093EB01B3
:1027B0007093EC019695879596958795282F309183
:1027C000EE01381710F48093EE013091EF012317DA
:1027D00068F58093EF012AC0273058F08091780087
:1027E0009091790090931702809316021092F00155
:1027F00005C0211103C09091F10101C090E0E92FC3
:10280000F0E0E951FE4F81A5811102C080E401C0D2
:1028100080EC20917C00207C821711F020E301C025
:1028200023E02093ED01892B80937C00FF91EF91B1
:10283000BF91AF919F918F917F916F915F914F91D8
:102840003F912F910F900FBE0F901F9018951F92E0
:102850000F920FB60F92112428980F900FBE0F9071
:102860001F9018951F920F920FB60F9211242F935D
:102870003F934F936F937F938F939F9320918A0001
:1028800030918B0040918405443620F080915C05A6
:10289000843041F18091820590918305BC01625E94
:1028A0007F4F621B730B6D33710518F021153105D5
:1028B00021F44F5F4093840508C02817390718F4A6
:1028C000C9014E9602C0C9014E97009759F0289A47
:1028D0002091840030918500820F931F90938B008C
:1028E00080938A009F918F917F916F914F913F913B
:1028F0002F910F900FBE0F901F9018958AE290E0D5
:102900000E94DB186091BE0462956F706A3010F40B
:10291000605D01C0695C8CE194E00E94C80A60912E
:10292000BE046F706A3010F4605D01C0695C8CE1B8
:1029300094E00E94C80A8AE090E00E94DB1810929E
:10294000BD040895682F89EB94E00C940B11CF938C
:10295000DF93FC018491EF012196882321F00E94EE
:10296000A214FE01F7CFDF91CF9108958AE294E09F
:102970000E94A71462E489EB94E00E94B51A0C94BB
:102980007E148CE20C94A214CF93DF9385E594E03F
:102990000E94A714C7E5D5E089A10E9450190E94A2
:1029A000C1148F8D0E9450190E94C1148CA10E94E5
:1029B00050190E94C1148BA10E9450190E94C11489
:1029C0008EA10E9450190E94C11488A10E94501922
:1029D0000E94C1148AA10E9450190E94C1148DA1A5
:1029E0000E945019DF91CF910C947E140F931F9386
:1029F000CF93DF9380E594E00E94A71408E815E0E8
:102A0000F801C191D1918F010E94C1148E8D9F8DCB
:102A10000E9459198AA1882319F08CE40E94A214FB
:102A20000E94C11488A199A10E9459198BA18823E1
:102A300019F088E40E94A214F5E000391F0701F79D
:102A4000DF91CF911F910F910C947E14CF93DF9360
:102A50008AE494E00E94A714809153050E945019C3
:102A60000E94C1148091F9040E945019C8E0D5E079
:102A70000E94C11488810E945019239685E0C431B8
:102A8000D807B1F7DF91CF910C947E14CF93DF93E9
:102A900084E494E00E94A714C7E5D5E08BAD0E94C2
:102AA00050190E94C1144C855D8560E070E02AE0F9
:102AB00089EB94E00E946C1ADF91CF910C947E1404
:102AC000CF93DF9385E294E00E94A714C8E8D5E095
:102AD0000E94C114E991F991848195810E9459194C
:102AE00085E0C039D807A1F7DF91CF910C947E140F
:102AF000CF93DF9380E294E00E94A714C3E9D5E06E
:102B00000E94C114499159916991799128E089EB0A
:102B100094E00E94BC1A85E0C33AD80789F7DF9198
:102B2000CF910C947E144F925F926F927F929F92FE
:102B3000AF92BF92CF92DF92EF92FF920F931F93CB
:102B4000CF93DF93F82E85E194E00E94A7148F2D98
:102B50000E9450190E94C114EF2DF0E0EE0FFF1FEC
:102B6000E95AFA4FC1A9D2A98E010A5F1F4F5E012F
:102B700086E1A80EB11CF8014190519061907190CE
:102B80008F0120E030E0A901C301B2010E94962C20
:102B90007301620187FF04C0F7FAF094F7F8F0942C
:102BA000912C20E030E040E85FE3C701B6010E94CD
:102BB000962C87FF15C020E030E0A901C701B601BF
:102BC0000E94962C882361F09A9420E030E040E245
:102BD00051E4C701B6010E94FC2C6B017C01E1CFDE
:102BE00020E030E040E251E4C701B6010E94232F0B
:102BF00087FD0CC0939420E030E040E251E4C7012F
:102C0000B6010E947B2E6B017C01EACF20E030E010
:102C1000A901C301B2010E94962C87FF04C0F7FAF4
:102C2000F094F7F8F09427E0B701A60189EB94E05F
:102C30000E94BC1A85E60E94A214892D990C990B5A
:102C40000E9459190E94C1140A151B0509F093CF5F
:102C500089810E945019DF91CF911F910F91FF90B0
:102C6000EF90DF90CF90BF90AF909F907F906F904C
:102C70005F904F900C947E140F931F93CF93DF932C
:102C800080E194E00E94A714C8E8D5E00CE611E0CA
:102C90000E94C114E991F9918181823021F4F801F7
:102CA00080810E9450190F5F1F4FF5E0C039DF0788
:102CB00079F7DF91CF911F910F910C947E14FC0155
:102CC00022812F3451F446895789608D718D21E01E
:102CD00089EB94E00E94BC1A03C085E50E94A2140F
:102CE0000C94C114F999FECF92BD81BD81E08FBBD8
:102CF00080B5862771F060BDF894862331F06F3F70
:102D000011F084E003C084E101C084E28FBBF99A32
:102D100078940895CF93DF938430E8F4D62FC82FAA
:102D2000E82FF0E0EE0FFF1FE95AFA4F01A8F2A9D1
:102D3000E02D618385E5828313820E94681885E215
:102D4000C89FC02D11248DE48C0F6D2F90E0DF9172
:102D5000CF910C947216DF91CF91089560915C052C
:102D6000633008F460E087E190E00C947216EF9213
:102D7000FF920F931F93CF939B018C01C42FCC2301
:102D800069F0F80161918F017901FFEFEF1AFF0AF5
:102D9000C9010E947216C1509701F1CFCF911F91C6
:102DA0000F91FF90EF900895CF93DF9300D0CDB7B0
:102DB000DEB78430C8F4E82FF0E0EE0FFF1FE95AC9
:102DC000FA4F01A8F2A9E02D758364837A836983A1
:102DD00065E2869F802D11248D5A682F70E042E0B5
:102DE000CE0101960E94B7160F900F90DF91CF9100
:102DF00008950F931F93CF93DF9300D0CDB7DEB725
:102E00008C0118161906B4F49A83898342E062E0B3
:102E100070E0CE0101960E94B71610925C051092E8
:102E2000A8051092A7051092570510935E05009310
:102E30005D0511C083E080935C051092A805109297
:102E4000A7051195019511090536110514F004E641
:102E500010E0009357050E94AE160F900F90DF917F
:102E6000CF911F910F9108959B0151E0415060F067
:102E7000F999FECF32BD21BD5FBB60B5FC01619306
:102E8000CF012F5F3F4FF2CF0895843068F465E2A1
:102E9000869F602D112480E4860F682F70E04DE03E
:102EA0008CEC91E00C9434170895CF938BE194E06F
:102EB0000E94A714C0E08C2F0E9445170E94C114E5
:102EC0006CEC71E089EB94E00E94DF04CF5FC430CA
:102ED00091F7CF910C947E140F931F93CF93C62F2D
:102EE000813069F018F08630D8F51EC041E089E4E1
:102EF00095E00E94C4186C2F88E190E02CC060938C
:102F0000F9048091C7048350833050F489E495E03C
:102F10000E9443108091D5049091D6040E949A108B
:102F20006C2F81E290E017C08250082F10E0F8016A
:102F3000EE0FFF1FE00FF11FE85FFA4F60839281F1
:102F4000913031F4E0911A05F0911B0560E009958C
:102F50006C2FC8018396CF911F910F910C9472161C
:102F6000CF911F910F9108950F931F93CF938C01D1
:102F7000C62FCC2351F0F801649189E495E00E94BA
:102F8000420BC1500F5F1F4FF4CFCF911F910F9194
:102F900008951F93CF93DF93D82F80931B04229A19
:102FA0002A9A61E08BE00E94F30C60E08CE00E94C2
:102FB000F30C61E08DE00E94F30C80E58CBD8DB5D3
:102FC00081608DBD60E082E00E94F30C80E090E0C3
:102FD0000E94320E81E092E80E94320E80E098EB6F
:102FE0000E94320EE7E6F4E08491E7E6F5E0149102
:102FF000E3E5F5E0C491CC2309F465C081110E949A
:103000009B0CEC2FF0E0EE0FFF1FE55AFB4FA59154
:10301000B491EC91E12309F456C020E1D29FC001A4
:103020001124876C90680E94320ED23019F48CE71C
:1030300096EA05C0D33009F043C08FEC97EA0E94AE
:10304000320E83E196EC0E94320E82EA94E90E94ED
:10305000320E8DEA92EC0E94320E83E89AEC0E94C6
:10306000320E81EB94EC0E94320E80E398E90E94CC
:10307000320E86E79CEC0E94320E84ED9EEC0E949C
:10308000320E80E090EE0E94320E80E098EC0E94BA
:10309000320E80E090EC0E94320E83E080931A049E
:1030A0008BE49EE09093020180930101809169007E
:1030B0008C7F80936900E89A10921B0481E004C021
:1030C00080E496EABCCF80E0DF91CF911F91089514
:1030D0008091880590918905909391058093900542
:1030E000E8E8F5E0A191B19111968C9111978823B0
:1030F00029F0B0939105A0939005089585E0E039FB
:10310000F80781F70895CF93DF931F92CDB7DEB70D
:10311000898380937D05898185FD05C0898186FD30
:1031200004C08FEF03C080EC01C080EAF894809364
:10313000E70183E08093ED0178948093B00089816A
:1031400084FF02C081E001C085E08093B1000F9050
:10315000DF91CF910895863451F02CF4813439F009
:10316000833489F404C08F3429F0823561F480936C
:103170007505089584E080935C051092A80510926F
:10318000A705109257050895FC012185222391F08F
:10319000653608F064E6442311F0FC016287FFEF16
:1031A0006F9FC001112464E670E00E94BE2F822F41
:1031B0000C942F0D0895682F8CE194E00C94C80AAC
:1031C0001F93CF93DF930E948E0D20911905222328
:1031D00049F02091140530911505621B730B643F73
:1031E000714070F10E948E0D609314057093150567
:1031F000809316059093170581E0809319058091BF
:1032000018058F5F80931805C8E0D5E010E0809125
:10321000180580FF06C08981823071F48A83198283
:1032200004C08A81823041F41A82E0911A05F0913B
:103230001B056A81812F09951F5F2396143039F78A
:10324000DF91CF911F910895FF920F931F93CF931A
:10325000DF93F82E062FC8E0D5E010E06881862FB6
:103260008F778F1113C009838A81823079F0023001
:1032700069F0661F6627661F6027861739F06A8324
:10328000E0911A05F0911B05812F09951F5F239688
:10329000143021F7DF91CF911F910F91FF90089586
:1032A000482F50E060E070E02AE089EB94E00C9455
:1032B0006C1ACF92DF92EF92FF92CF93DF936C0163
:1032C000990FEE08FF08F7FE1BC06DE289EB94E052
:1032D0000E94B51AEC0144275527BA014C195D0923
:1032E0006E097F092AE089EB94E00E946C1A8C0F2A
:1032F0009D1FDF91CF91FF90EF90DF90CF900895C9
:103300002AE0B701A60189EB94E0DF91CF91FF900D
:10331000EF90DF90CF900C946C1ACF92DF92EF92E7
:10332000FF920F931F93CF93DF936C017A018B0170
:10333000C0E0D0E0CE15DF0581F0D8016D918D01A0
:10334000D601ED91FC910190F081E02DC601099527
:10335000892B11F02196EECF7E01C701DF91CF912D
:103360001F910F91FF90EF90DF90CF900895CF9332
:10337000DF9381E895E00E94A714809123050E94C5
:103380005019CCE1D5E08A858F3F79F00E94C114B5
:103390008A850E9450190E94C1148F850E9450197D
:1033A0000E94C11488890E945019299685E0C03472
:1033B000D80749F7DF91CF910C947E148091810555
:1033C000882301F190917D0594FF1CC068E081E0A5
:1033D0000E9407132091810530E0A901481B510983
:1033E000CA0157FD01969595879520918005820F1A
:1033F000911D1816190674F48F3F910519F014F0F9
:103400008FEF90E0809380056091800570E083E00D
:103410000C942F0D81E0F6CF0F931F93CF93DF9382
:1034200000D000D0CDB7DEB700914D0110914E0114
:1034300020914F013091500109831A832B833C83E3
:1034400090915105961710F46FEF690FFE01E60F8A
:10345000F11D6181680F606889E495E00F900F901D
:103460000F900F90DF91CF911F910F910C942F0F20
:10347000843011F0883071F481E090E020914106B1
:1034800030914206232B11F080E090E090934206A9
:103490008093410661E080E00E940C1A8091410611
:1034A00090914206892B19F489E795E002C08DE7D7
:1034B00095E060E00C948C040F931F93CF938C01E4
:1034C000C62F68600E94150F6C2F677FC801CF91CF
:1034D0001F910F910C94150F8F929F92AF92BF92F4
:1034E000EF92FF920F931F93CF93DF93CDB7DEB789
:1034F000A1970FB6F894DEBF0FBECDBF7C01FA01D5
:10350000CB0119A2223008F42AE08E010F5D1F4F73
:10351000822E912CA12CB12CBF01A50194010E94F7
:10352000E62FF901CA01015011096A3014F4605DF7
:1035300001C0695CD8016C93232B242B252B61F7E8
:10354000B801C7010E94DF04A1960FB6F894DEBF50
:103550000FBECDBFDF91CF911F910F91FF90EF90E4
:10356000BF90AF909F908F900895DC01ED91FC91FA
:103570000190F081E02D09947F928F929F92AF92FB
:10358000BF92CF92DF92EF92FF920F931F93CF9350
:10359000DF938C016A017B01722E9A01AB01C70196
:1035A000B6010E94782F882319F06FE571E027C0DB
:1035B00046015701E894B7F82FEF3FEF4FE75FE779
:1035C000C501B4010E94782F81110DC02FEF3FEF8C
:1035D0004FE75FE7C501B4010E94962C18161CF452
:1035E00063E671E00CC02FEF3FEF4FE75FE4C701E8
:1035F000B6010E94232F181694F467E671E0C80103
:10360000DF91CF911F910F91FF90EF90DF90CF90BE
:10361000BF90AF909F908F907F900C94DF042FEF1E
:103620003FEF4FE75FECC701B6010E94962C87FD84
:10363000E4CF20E030E0A901C701B6010E94962C3A
:1036400087FF0AC06DE2C8010E94B51AEC01F7FAC3
:10365000F094F7F8F09402C0C0E0D0E0B12C60E044
:1036600070E080E09FE37B1441F020E030E040E236
:1036700051E40E947B2EB394F6CFA70196010E94DD
:103680000F2E6B017C010E94F42E4B015C012AE09D
:10369000AB01BC01C8010E946C1AC80FD91F77206A
:1036A000C1F1C501B4010E949B2C9B01AC01C70173
:1036B000B6010E940E2E6B017C016EE2C8010E94D1
:1036C000B51AC80FD91F20E030E040E251E4C7012D
:1036D000B6010E94FC2C4B015C010E94F42E6B0190
:1036E000E12CF12C2AE0B701A601C8010E946C1A56
:1036F000C80FD91FC701B6010E949B2C9B01AC01CA
:10370000C501B4010E940E2E6B017C017A947110E8
:10371000DACFCE01DF91CF911F910F91FF90EF9003
:10372000DF90CF90BF90AF909F908F907F90089543
:10373000CF93DF93CDB7DEB72A970FB6F894DEBFED
:103740000FBECDBF789484B5826084BD84B581609E
:1037500084BD85B5826085BD85B5816085BD80915C
:103760006E00816080936E001092810080918100D4
:1037700082608093810080918100816080938100CC
:10378000809180008160809380008091B10084608E
:103790008093B1008091B00081608093B0008091EF
:1037A0007A00846080937A0080917A0082608093AE
:1037B0007A0080917A00816080937A0080917A000B
:1037C000806880937A001092C100219A62E080E0C4
:1037D0000E9424190E94E018E0912C04F0912D041D
:1037E00082E08083E0912804F09129041082E09126
:1037F0002A04F0912B0483E3808310923404E09137
:103800003004F091310486E08083E0912E04F09141
:103810002F04808180618083E0912E04F0912F0439
:10382000808188608083E0912E04F0912F04808154
:1038300080688083E0912E04F0912F0480818F7D39
:1038400080838AE090E00E94DB180E94B61480E832
:1038500080BF8FE380937E008091640080688093B6
:103860006400569A8BE196E09093890580938805D1
:1038700085EF95E090938B0580938A058FEC95E01A
:1038800090938D0580938C0589EA95E090938F0540
:1038900080938E0580E00E94620980E00E94A60865
:1038A000209A80E49CE99093870080938600109290
:1038B00080008AE18093810084E280936F008EE42F
:1038C00080937C0080E480937B008FEE80937A006D
:1038D0000E9468188FEF809318020E9425110DE056
:1038E00011E01B821A826A817B8143E0660F771F99
:1038F0004A95E1F7606489E495E00E942F0F68E043
:10390000C8010E94B41760E889E495E00E942F0F77
:103910002A813B812F5F3F4F3B832A83085F1F4FE4
:103920002830310501F766E08FEB94E00E949F108C
:10393000E7E8F1E001900020E9F73197E758F1401E
:10394000E9838CE194E00E94900A8C01892B09F4B0
:10395000D4C08CE194E00E946E0A8A3019F08D3058
:1039600009F0BAC08980882009F4B4C08091870129
:103970008F3209F0AFC0A8E8B1E00D900020E9F760
:10398000A958B140BB83AA8347E050E069EA71E0DF
:1039900088E891E00E945028892B01F5EA81FB819B
:1039A000FF27E957FE4F80808982882D0E94AB183F
:1039B0002981233411F0263429F469818DE190E0C6
:1039C0000E94721680918F018A330CF083C08FE8B9
:1039D00091E00E9429280E94F9167CC047E050E03F
:1039E00061EA71E088E891E00E945028892B49F44F
:1039F0006CE677E18FE891E00E943D090E94261570
:103A000069C047E050E069E971E088E891E00E9410
:103A10005028892B49F468E873E08FE891E00E9410
:103A20003D090E94461556C047E050E061E971E04B
:103A300088E891E00E945028892B49F464ED76E1F2
:103A40008FE891E00E943D090E94601543C08A8082
:103A500047E050E069E871E088E891E00E94502872
:103A6000892B09F0B8C6282D2A3008F4B4C681E99C
:103A700091E00E94252820918F01243609F09BC6F1
:103A800023E0822E912C9B828A828401015F1F4F4A
:103A9000F801EE0FFF1FEE0FFF1FE95AFA4F608388
:103AA000718382839383223009F475C66A817B8196
:103AB000660F771F660F771F695F7F4FC801880FFA
:103AC000991F880F991F44E0895A9A4F0E94B71690
:103AD0000E94781590E00AC099819F5FA980EA2D25
:103AE000F0E0E957FE4F80839034A0F7E92FF0E033
:103AF000E957FE4F1082998324CF80911C058823BB
:103B000009F454C0E12CB3E0DB2E89E0F82E9AE0F2
:103B1000C92E80911B04882321F00E94C917882395
:103B200031F180911A04843041F4909171018091B7
:103B30007001981711F40C947A2580911A0483303F
:103B4000B1F410927001109284019FEF9093710173
:103B500094E090931A04F8948093720183EA94E9B4
:103B60000E94320E89ED92E80E94320E789424E28F
:103B700035E03B832A83FF24FA94EA81FB8182812A
:103B80008F3F11F00C94C225EA81FB813996FB83AB
:103B9000EA8358E4852E55E0952E8E169F0669F728
:103BA000EE2021F062E089E00E9424190E948E0D2F
:103BB00020915805309159055B01A21AB30ABB82C6
:103BC000AA8280916105909162050097A1F08A1503
:103BD0009B0588F480917D0580FF03C000917605E8
:103BE00010E0B80183E00E942F0D10926205109240
:103BF00061051092810580915F054DE451E0849F3D
:103C00009001859F300D11248A809B8028153905ED
:103C100028F48F5F80935F050E94DE19AA80BB8025
:103C200028EEA21623E0B20608F473C481E0809364
:103C30005F050E948E0D609358057093590580931F
:103C40005A0590935B058FEF8093860548E855E011
:103C500058874F838A01A12CBB24B394D801ED91DE
:103C6000FC9181818D7F813011F40C947026F801D4
:103C70000190F081E02DFB83EA8382818F3409F08B
:103C800078C0838181110AC086899789A08DB18D02
:103C9000828F938FA48FB58FB38222C0AA81BB81FC
:103CA0005A96CD90DD90ED90FC905D97A70196011E
:103CB00056966D917D918D919C9159970E940E2EF3
:103CC0002AE83BE446E05DE30E94FC2CA701960154
:103CD0000E940F2EEA81FB81628F738F848F958FF4
:103CE00080915C05843009F444C0AA81BB8156965A
:103CF0006D917D918D919C9159970E94ED2EEA8155
:103D0000FB81868D978D181619067CF48617970708
:103D100014F4B4A20AC0681779073CF4AA81BB81E5
:103D200094968C9181110C947C26EA81FB8180A170
:103D300091A11816190694F49C01215031096217BB
:103D4000730714F4B5A20AC0681779073CF0AA817A
:103D5000BB8195968C9181110C9481268091A70549
:103D60009091A805892B91F0EA81FB8113A212A200
:103D70000DC0AA81BB8194961C92949792961C9236
:103D8000929795961C92959793961C920E5F1F4F53
:103D9000EA81FB8182A1882319F0A09286050AC0DE
:103DA000AA81BB8193968C91882321F081E08A0DB2
:103DB00080938605A394A394B8E0AB124FCF809074
:103DC0005C058982282D233008F099C18090570521
:103DD0008986109257052090900530909105D10169
:103DE00012968C9112978F3409F021C18091A7050A
:103DF0009091A805892B09F01AC156968D909D9037
:103E0000AD90BC9059978A829B82AC82BD826091B2
:103E10005D0570915E05072E000C880B990B0E94C2
:103E20009D2C2B013C01A50194010E940E2E4B01FB
:103E30005C01C0909705D0909805E0909905F090AE
:103E40009A0520E030E0A901C701B6010E94962C36
:103E500087FF11C02DEC3CEC4CEC5EEBC301B201D2
:103E60000E94FC2C2A813B814C815D810E940F2E97
:103E7000A701960104C0A7019601C501B4010E94E3
:103E8000FC2C6093690570936A0580936B05909391
:103E90006C05B981B23021F0E0917705EE8302C064
:103EA000F4E6FE8320E030E0A901C501B4010E94E0
:103EB000962C87FF03C0298521110FC020E030E038
:103EC000A901C501B4010E94232F18160CF06AC085
:103ED00039854E81341708F065C020919B053091DB
:103EE0009C0540919D0550919E05C501B4010E941D
:103EF000FC2C20916D0530916E0540916F0550911D
:103F000070050E940F2E8B018A8799878E80682DFD
:103F100070E080E090E00E949B2C4B015C0120E06F
:103F200030E0A901C701B6010E94962C87FF14C09A
:103F30002AE939E949E15FEBC701B6010E94FC2C8F
:103F4000A30192010E94FC2C9B01AC01B401C501AC
:103F50000E940F2E4B015C0120E030E0A901B80166
:103F60008A8599850E94962C87FD0DC09401A50134
:103F7000B8018A8599850E94232F181644F484017C
:103F8000AA86B98604C000E010E01A861986C80126
:103F9000AA85B98580936D0590936E05A0936F05F2
:103FA000B09370052A813B814C815D81D1015A9685
:103FB0006D917D918D919C915D970E940E2E209127
:103FC0009F053091A0054091A1055091A2050E9446
:103FD000FC2C6B017C0160937105709372058093DA
:103FE00073059093740520916D0530916E05409195
:103FF0006F05509170056091690570916A05809117
:104000006B0590916C050E940F2EA70196010E94EE
:104010000F2E0E94ED2E77FD07C0AB0165367105AE
:1040200024F044E650E001C040E040935705809002
:104030005D0590905E059B828A82D10156966D91B6
:104040007D918D919C9159970E94ED2EA401461B64
:10405000570B8091A7059091A8051416150654F1E9
:104060002091630530916405281B390B2E313105F1
:1040700008F18980811016C020E030E040E05FE365
:1040800060916D0570916E0580916F05909170053E
:104090000E94FC2C60936D0570936E0580936F05F4
:1040A0009093700582E080935C051092A8051092B1
:1040B000A70525C0009711F0019732C6298122304B
:1040C000F1F424E6249FC001259F900D11246A81FC
:1040D0007B810E94D22F8091920590E0681779072A
:1040E00074F06091A3057091A4058091A50590914D
:1040F000A6050E94ED2E6A3571050CF408C6809065
:1041000057058982C090A305D090A405E090A5052D
:10411000F090A605682D70E080E090E00E949B2C56
:10412000A70196010E940E2E21E837EF47E05CE3DD
:104130000E94FC2CA70196010E940F2E6093A305FC
:104140007093A4058093A5059093A60580917905A9
:104150008816D8F064E6681B90915C05911103C045
:104160009091770502C0909176059980292D30E0D5
:10417000281B3109929FA001939F500D112470E0DC
:10418000CA010E94BE2F362F01C030E01092620596
:104190001092610520917805321720F01092600589
:1041A000232F27C04091600588EE93E0489FF001DF
:1041B000499FF00D1124622F70E080E197E20E9488
:1041C000D22F369FC001379F900D1124E817F907B1
:1041D00038F48E1B9F0B909362058093610501C09C
:1041E00020E04F5F4A3018F44093600502C01092FF
:1041F000600580917D0580FF04C080917605821B5B
:10420000282F20937E05211103C01092810525C01F
:104210003091810580917D0584FF0AC047E8249F85
:10422000C001112464E670E00E94D22F625A08C0D7
:104230005FEF259FC001112464E670E00E94D22F39
:1042400060938105311109C06FEF70E083E00E9437
:104250002F0D80E88093800502C00E94DE198091B6
:10426000570560917C05861720F084E680937F05D2
:1042700009C0A4E68A9FC001112470E00E94BE2FED
:1042800060937F0580917D0581FF06C090917F0539
:1042900084E6891B80937F0540917B0520917A05F8
:1042A00030E0241B310950917F05529FC001539F7C
:1042B000900D112464E670E00E94D22F640FB4E1E7
:1042C0006B9FB0011124809185058F3F19F08F5F9E
:1042D0008093850580918205909183056817790701
:1042E000A9F08C599F4F861B970B893C910520F4B0
:1042F000809185058B3050F0F8941092840570936E
:104300008305609382057894109285059091180238
:104310009F3FC1F1809119048F5F8093190485300C
:1043200088F18091F001981769F11092190461E504
:1043300071E089EB94E00E94DF040091E70187EAD5
:1043400080937A00E9E1F2E0FB83EA8310E0011751
:10435000A1F0AA81BB814D915D91BB83AA8360E0EE
:1043600070E02AE089EB94E00E946C1A60E289EB2D
:1043700094E00E94B51A1F5FEACF8FEE80937A0017
:104380000E947E148091D5049091D6040E949A10C8
:104390008091C7018F5F8093C7018F7129F480914D
:1043A0001C0581110E94B71987EB91E00E94A714A8
:1043B00080915C05843009F0B8C485E50E94A214A0
:1043C0000E94C11480919005909191050E945F1602
:1043D00080918A0590918B050E945F1680918C05D3
:1043E00090918D050E945F1680918E0590918F05AA
:1043F0000E945F16809157050E9450190E94C114B7
:104400006091A3057091A4058091A5059091A605E2
:104410000E94ED2ECB010E9459190E94C1144091B7
:10442000A7055091A80560E070E02AE089EB94E0D0
:104430000E946C1A0E94C11480917E050E9450193E
:104440000E94C11480917F050E9450190E947E1421
:1044500080918705811174C411E08F809884D40104
:10446000ED91FD91B887AF8362A1812F0E9424193D
:10447000D401ED91FC9163A181E0810F0E94241988
:104480001E5F193051F780908605898261E0282DE2
:104490002F3F09F460E08EE00E9424198091000112
:1044A00039813F3F09F489C48F3F59F41092C80104
:1044B0001092C9011092CA011092CB0184E080933E
:1044C00000010E94F61467E08FEB94E00E949F10B9
:1044D0008091C70183708130D1F48DEB91E00E940F
:1044E000A7142AE032E03B832A8300E112E00E9415
:1044F000C114AA81BB818D91BB83AA830E945019EC
:104500008A809B800815190591F70E947E140E94ED
:10451000DE070E948E0D6B017C018091D104909189
:10452000D204A091D304B091D404A7019601281B12
:10453000390B4A0B5B0B2A3F31054105510508F445
:10454000CFC0E091C504F091C6040995898381111B
:1045500028C0E091C304F091C404309771F1339600
:10456000E4912E2F30E0A8EEB3E00E94FF2D6115FC
:1045700071058105910509F10091CD041091CE04DA
:104580002091CF043091D00446015701801A910A3E
:10459000A20AB30A681579058A059B0508F428C4A0
:1045A0000CC0C092D104D092D204E092D304F09215
:1045B000D4042981203209F41BC48091C904898064
:1045C000881226C08091CC048F3F19F08F5F8093B2
:1045D000CC048091CA049091CB040097D1F101974B
:1045E00071F48091CC04843050F0298120612983BA
:1045F00082E090E09093CB048093CA042EC0C092D6
:10460000CD04D092CE04E092CF04F092D00468C0E2
:104610001092CC048980811009C02091CA04309185
:10462000CB042130310571F489830CC0E091C304BF
:10463000F091C404309731F03496E4919980E921E7
:1046400009F0D0C3A980A092C9041092CB041092A3
:10465000CA04B980BB2009F443C0E091C304F091BF
:10466000C404309749F48091C1049091C2046091D0
:10467000C7043981306110C03196259134912115DC
:10468000310589F38981F9010995682F813091F409
:10469000EACF261731F00396FC0124912111F9CFBE
:1046A00009C03196E491E3238980E811F4CFFC013D
:1046B000329664918FEB94E00E949F108091D50414
:1046C0009091D6040E949A10E091C304F091C40422
:1046D000309731F03496E49199809E2209F08BC393
:1046E000A0900001A9822A2D2F3F09F44FC00E94FB
:1046F0008E0D9980892C912C9B828A82F401EE5335
:10470000FE4FE4912091C8013091C901621B730BE7
:104710002AE0E29FF0011124E617F707B8F50E949E
:104720008E0D6093C8017093C9018093CA01909364
:10473000CB01C401019666E070E00E94BE2F809319
:10474000000180FD1CC0FC01EE53FE4F84900E94CE
:104750004B102AE0829EC0011124992743E0880F64
:10476000991F4A95E1F79093860180938501809186
:104770006F00826080936F0040E060E003C040E023
:104780006091530589E495E00E94C4180E94E018E6
:104790000E94370BCDC820E030E0A9010E94962C82
:1047A000811184C910926D0510926E0510926F05EB
:1047B000109270057BC925362CF4223609F088C981
:1047C00020E05FC9293611F422E05BC9203709F0E7
:1047D0007FC921E056C946E050E062E871E088E810
:1047E00091E00E945028892BB1F42A81293098F059
:1047F00060918E016053643058F435E2639F602D00
:104800001124605C70E04DE080E991E00E94B716F1
:104810000E9455175FC946E050E06BE771E088E8F9
:1048200091E00E945028892B09F076C04A814930D6
:1048300008F472C080918E0130ED932E980E33E013
:10484000391508F447C955E2959E802D1124E5E5F8
:104850008E2E880E712C80E991E09B838A83092D2E
:1048600010E0000F111F08571A4FAA81BB818C91CD
:10487000882309F44DC0B3E0B71598F18C3249F4A0
:104880007394EA81FB813196FB83EA83F4E08F0E17
:10489000ECCFD801AD90BC90B4E07B9E70011124A8
:1048A0006701E6E0CE0ED11CCA0CDB1C8A819B811D
:1048B0000E942528F501EE0DFF1D66837783808712
:1048C0009187682D70E044E0C6010E94B716EA8126
:1048D000FB81FB83EA838191882339F28C32C9F70B
:1048E000C4CF8A819B810E942928682FA92CB12CD2
:1048F000BB82AA8287FDD5C0EA81FB81EE0FFF1F34
:10490000E95AFA4F01A8F2A9E02D11816113BAC04A
:10491000892D0E949315DEC847E050E063E771E0FF
:1049200088E891E00E945028892B49F46BE473E0F9
:104930008FE891E00E943D090E94F614CBC847E041
:1049400050E06BE671E088E891E00E945028892BE6
:1049500049F464ED73E08FE891E00E943D090E9404
:10496000C414B8C847E050E063E671E088E891E01D
:104970000E945028892BC9F5AFE8B1E0E0E09D9195
:104980009923D1F0E13220F59C3211F48E2F07C02B
:1049900081E08E0FF0E0E154FB4F918F0BC080312E
:1049A00048F4E82FF0E0E154FB4F30E2832E818E93
:1049B0008F5FF5CFE82FE3CFE13250F4AE2FB0E0B8
:1049C000A154BB4F20E2922E59969C92EF5FF4CFF8
:1049D0008091C704883131F068E18FEB94E00E9448
:1049E0009F1078C80E94E61075C847E050E06BE55C
:1049F00071E088E891E00E945028892B39F46CEF2F
:104A000072E08FE891E00E943D0964C846E050E002
:104A100064E571E088E891E00E945028892BF9F460
:104A20000E94B6140E9478150E94C4140E94551763
:104A300080E00E94931581E00E94931582E00E941D
:104A4000931583E00E9493150E9460150E944615FD
:104A50000E9426150E94F6140E943C163BC845E0B1
:104A600050E06DE471E088E891E00E945028892BC5
:104A700009F030C8F89488E18093600089E0809361
:104A80006000FFCF892D0E948A16123009F040CFB6
:104A9000EA81FB81E459FE4F6FE7862E80826FE743
:104AA0001AC040E8F42EF60EEA81FB81EE0FFF1FDC
:104AB000E95AFA4F01A8F2A9E02D81810A811B81F0
:104AC00004591E4F823089F4D8018C91F8120DC020
:104AD000F801F0826F2D8A819B8149960E9472169F
:104AE0000E943C160E94251113CF62E0892D0E947E
:104AF0008A16EECFD0921A040E948E0D60931D0587
:104B000070931E0580931F0590932005909184015A
:104B100080912305911130C08F3F19F08F5F8093F2
:104B20002305809173018F7024E0829FC0011124BE
:104B3000909174019295969596959370892BECE1DE
:104B4000F5E0DF0119821A969C911A97891791F165
:104B500039813F5F398319963430A9F719829285DC
:104B60009F3F59F149814F5F498339964430B9F7E6
:104B7000EE24E3940C94891D8823D1F38150809313
:104B80002305F6CF0E948E0DAA81BB8113968D90CE
:104B90009D90AD90BC901697DC01CB0188199909C6
:104BA000AA09BB0981329F4BA240B10510F40C94B5
:104BB000C41D7CC022E0E22E02C093E0E92E998061
:104BC000892C912C9B828A82F89CF001F99CF00D33
:104BD0001124E45EFA4F9285891719F082871186B5
:104BE00010860E948E0D8A809B80F89CF001F99CB3
:104BF000F00D1124E45EFA4F6387748785879687EA
:104C00002091740125FF02C032E001C030E08091A4
:104C1000760187FD31608F778F3709F03460AA8085
:104C2000BB80FA9CF001FB9CF00D1124CF018C5D40
:104C30009A4FE45EFA4F3787309172013695308B88
:104C4000DC0117963C9132FF1EC0609175016A3AF3
:104C500009F48ECF722F7F70462F50E0A4E0559557
:104C60004795AA95E1F7C49E9001C59E300D112489
:104C7000B4E67B9F200D311D11246F70260F311D6E
:104C80002059314007C02F7030E0322F2227409149
:104C90007501242B31872087E0912105F0912205B1
:104CA000309709F465CF6E2D099562CFE09121050B
:104CB000F0912205309721F064E08A819B8109956B
:104CC000AA81BB8112968C9112978F3F11F40C949C
:104CD000C41D1296FC9212971D921C920C94C41D36
:104CE0006EE080810E940713BC01D8018D919C91D8
:104CF0000E949B110C94371EEA81FB81B2A20C9496
:104D0000951EAA81BB819396BC920C94AE1E81E045
:104D100080935C051092570580916305909164051E
:104D20009093A8058093A705EAC9833011F48DE21A
:104D300045CB80915D0590915E050E94591940CB4D
:104D400080909005909091059B828A82D401129662
:104D50008C918F3409F080CB81EB91E00E94A714F5
:104D600005E615E0F80141915191619171918F0132
:104D700022E089EB94E00E94BC1A0E94C114F5E085
:104D800005371F0779F7AA81BB815A962D913D916E
:104D90004D915C915D9756966D917D918D919C9111
:104DA00059970E940E2EAB01BC0122E089EB94E0E2
:104DB0000E94BC1A0E947E144FCB8F3F61F0898005
:104DC000809200010E944B1040E06091530589E4FD
:104DD00095E00E94C4188091C704873009F078CB11
:104DE00062E072CB89808092C90481E090E005C0C6
:104DF00020E2298332CC82E090E09093CB04809330
:104E0000CA046ECC10921F0410921E0488EE93E028
:104E1000A0E0B0E08093200490932104A0932204AA
:104E2000B093230485E191E090931D0480931C04CA
:104E300085EC90E0909329048093280484EC90E022
:104E400090932B0480932A0480EC90E090932D049F
:104E500080932C0481EC90E090932F0480932E0497
:104E600082EC90E0909331048093300486EC90E0E3
:104E700090933304809332041092350410923604D8
:104E800010923704109238041092BC041092BB04A4
:104E900087E291E09093BA048093B9041092FD04E4
:104EA0001092FC0483E391E09093FB048093FA0456
:104EB00088EE94E09093C0048093BF0489E794E067
:104EC0009093C2048093C1048EE093E09093C60453
:104ED0008093C50495E090931B0685E580931D069D
:104EE00024E02093F5058093F70523E02093CF0578
:104EF0008093D10522E02093A9058093AB0580E83B
:104F000080935F0586E48093750510924C0510929E
:104F10004B05909352058FE391E090934A0580935F
:104F2000490561E08BE00E94F30C61E08DE00E9496
:104F3000F30C61E08AE00E94F30C61E08AE00E94D9
:104F4000C40C81E58CBDE9E6F5E0E491E0935405FD
:104F5000E5E5F5E0E491F0E0EE0FFF1FE95BFA4FC5
:104F600085919491909356058093550561E084E076
:104F70000E94F30C60E089E495E00E94150F88E040
:104F80008093510580934E0580915205882319F036
:104F900061E00E94F30C8BEF9FEFFC013197F1F77A
:104FA000FC013197F1F70197F1F760E389E495E0AF
:104FB0000E94860B8BE496E40197F1F760E389E4A5
:104FC00095E00E94860B83E592E00197F1F760E39C
:104FD00089E495E00E94860B60E289E495E00E94F6
:104FE000860B60914E05606289E495E00E942F0F68
:104FF00084E080934F056CE089E495E00E942F0FD8
:1050000089E495E00E94431082E08093500566E0B9
:1050100089E495E00E942F0F83E294E090932205AB
:105020008093210580E8809323058FEF80932605E8
:1050300080932F0580933805809341058DE293E09E
:1050400090931B0580931A050895662777270C9483
:10505000772AFC0188279927E89421912032E9F3E7
:10506000293010F02E30C8F32B3241F02D3239F4B4
:10507000689404C00E945E28820F911D21912053E4
:105080002A30C0F31EF4909581959F4F0895FB013F
:10509000DC0102C005900D9241505040D8F70895B0
:1050A000FB01DC014150504030F08D91059080199A
:1050B00019F40020B9F7881B990B08957AE0979F9F
:1050C000902D879F802D910D11240895AEE0B0E0C2
:1050D000ECE6F8E20C94D62D0D891E898F89988D07
:1050E0002EE02C831A83098397FF02C080E090E8AA
:1050F00001979E838D83AE01455E5F4F698D7A8DEA
:10510000CE0101960E9496284D815E8157FD0AC00E
:105110002F813885421753070CF49A01F801E20FEA
:10512000F31F10822E96E4E00C94F22DABE0B0E079
:10513000ECE9F8E20C94C82D6C017B018A01FC01BA
:1051400017821682838181FFCCC1CE0101963C017A
:10515000F6019381F70193FD859193FF81917F0182
:10516000882309F4BAC1853239F493FD859193FF00
:1051700081917F01853229F4B60190E00E94FC2BD9
:10518000E7CF912C212C312CFFE1F315D8F08B3295
:1051900079F038F4803279F08332A1F4232D206144
:1051A0001DC08D3261F0803369F4232D216016C05B
:1051B000832D8260382EE32DE4603E2E2AC0F32D2D
:1051C000F8601DC037FC2DC020ED280F2A3040F0BC
:1051D0008E32B9F436FC81C1232D2064322E19C0E1
:1051E00036FE06C08AE0989E200D1124922E11C032
:1051F000EAE02E9E200D1124222EF32DF0623F2E88
:1052000008C08C3621F4832D8068382E02C0883681
:1052100041F4F70193FD859193FF81917F01811105
:10522000B3CF982F9F7D9554933028F40C5F1F4F78
:105230009FE399830DC0833631F0833771F0833556
:1052400009F059C021C0F801808189830E5F1F4F8A
:1052500088248394912C530113C02801F2E04F0E4F
:10526000511CF801A080B18036FE03C0692D70E0AA
:1052700002C06FEF7FEFC5010E94F12B4C0182014C
:10528000F32DFF773F2E16C0280122E0420E511C5D
:10529000F801A080B18036FE03C0692D70E002C025
:1052A0006FEF7FEFC5010E94E62B4C01F32DF068F4
:1052B0003F2E820133FC1BC0822D90E08816990698
:1052C000B0F4B60180E290E00E94FC2B2A94F4CF67
:1052D000F50137FC859137FE81915F01B60190E0C1
:1052E0000E94FC2B21102A9421E0821A910881143B
:1052F000910471F7E8C0843611F0893641F5F80160
:1053000037FE07C060817181828193810C5F1F4FDE
:1053100008C060817181072E000C880B990B0E5F0D
:105320001F4FF32DFF763F2E97FF09C09095809574
:10533000709561957F4F8F4F9F4FF0683F2E2AE009
:1053400030E0A3010E94382C882E861845C085378E
:1053500031F4232D2F7EB22E2AE030E025C0932D8C
:10536000997FB92E8F36C1F018F4883579F0B5C021
:10537000803719F0883721F0B0C0E92FE061BE2EE8
:10538000B4FE0DC0FB2DF460BF2E09C034FE0AC070
:10539000292F2660B22E06C028E030E005C020E1AB
:1053A00030E002C020E132E0F801B7FE07C06081C2
:1053B0007181828193810C5F1F4F06C06081718172
:1053C00080E090E00E5F1F4FA3010E94382C882ED2
:1053D0008618FB2DFF773F2E36FE0DC0232D2E7F26
:1053E000A22E891458F434FE0BC032FC09C0832D60
:1053F0008E7EA82E05C0B82CA32C03C0B82C01C0EB
:10540000B92CA4FE0FC0FE01E80DF11D8081803390
:1054100021F49A2D997EA92E09C0A2FE06C0B3944C
:10542000B39404C08A2D867809F0B394A3FC11C00C
:10543000A0FE06C0B21488F4280C922C9B180EC053
:10544000B21460F4B60180E290E00E94FC2BB394A9
:10545000F7CFB21418F42B1802C0982C212CA4FEFC
:1054600010C0B60180E390E00E94FC2BA2FE17C0A2
:10547000A1FC03C088E790E002C088E590E0B60197
:105480000CC08A2D867859F0A1FE02C08BE201C0C3
:1054900080E2A7FC8DE2B60190E00E94FC2B89140B
:1054A00038F4B60180E390E00E94FC2B9A94F7CF89
:1054B0008A94F301E80DF11D8081B60190E00E940D
:1054C000FC2B8110F5CF222009F442CEB60180E2F8
:1054D00090E00E94FC2B2A94F6CFF60186819781FA
:1054E00002C08FEF9FEF2B96E2E10C94E42DA0E039
:1054F000B0E0EDE7FAE20C94CE2DEC016B01611502
:10550000710519F0FB01918380837E01FFEFEF1A93
:10551000FF0A0881802F90E00E94C52B892B11F093
:10552000E701F3CF0D3239F47E0182E0E80EF11C81
:10553000098111E008C00B3229F47E0192E0E90EE6
:10554000F11C098110E0E701219743E050E06AED8A
:1055500070E0CE010E94CE2B892BC1F4239645E04A
:1055600050E065ED70E0CE010E94CE2B892B09F44E
:105570002596C114D10419F0F601D183C08311110D
:10558000F6C060E070E080E89FE7FAC043E050E0DA
:1055900062ED70E0CE010E94CE2B892B59F4C1142C
:1055A000D10409F4E9C0F2E0EF0EF11CF601F1823A
:1055B000E082E2C020E030E0A901C0E0D0E0F701E5
:1055C00080EDA82EA00E89E08A1530F1912F92600F
:1055D000B92E812F887012FF04C0811124C021963A
:1055E00022C081112197A5E0B0E00E94BD2DDC0111
:1055F000CB01880F991FAA1FBB1F9C01AD012A0D6B
:10560000311D411D511D283989E93807480789E1B5
:10561000580748F0166006C09EEFA9120AC013FD95
:1056200040C01860B12E8FEFE81AF80A00811B2DD8
:10563000C6CF802F8F7D8534A1F580818D3211F406
:10564000106106C08B3221F0319661E070E004C039
:105650008181329662E070E080538A3018F0E61B58
:10566000F70B1FC060E070E060389CE079075CF4E5
:10567000DB01AA0FBB1FAA0FBB1F6A0F7B1F660FA0
:10568000771F680F711D3196DF0111978C91805340
:105690008A3050F314FF03C0719561957109C60FEC
:1056A000D71F11FF08C0C114D10429F0CF01019701
:1056B000F60191838083CA01B9010E949B2C212F9E
:1056C0002370233019F04B015C0106C04B015C01D3
:1056D000B7FAB094B7F8B09420E030E0A901C50162
:1056E000B4010E94962C882309F43EC0D7FF06C05F
:1056F000D195C195D10901EF10E002C009E011E098
:105700006801F8E1CF1AD10890E2E92EF12CCE150C
:10571000DF0574F0F8012591359145915491C5014B
:10572000B4010E94FC2C4B015C01CE19DF09EFCFC4
:1057300004501109F594E7940C151D0541F78A2DC5
:10574000880F8B2D881F8F3F49F020E030E0A901A2
:10575000C501B4010E94962C811106C082E290E03E
:105760009093440680934306C501B40109C060E0EC
:1057700070E080E89FEF04C060E070E080EC9FE79D
:10578000CDB7DEB7ECE00C94EA2D91110C94692DA5
:10579000803219F089508550C8F70895FB01DC016B
:1057A0004150504088F08D9181341CF08B350CF4C1
:1057B000805E659161341CF06B350CF4605E861B75
:1057C000611171F3990B0895881BFCCFFC010590C2
:1057D000615070400110D8F7809590958E0F9F1FF3
:1057E0000895FC016150704001900110D8F7809538
:1057F00090958E0F9F1F08950F931F93CF93DF9364
:10580000FB01238121FD03C08FEF9FEF2CC022FFFE
:1058100016C046815781248135814217530744F4CD
:10582000A081B1819D012F5F3F4F318320838C93F5
:10583000268137812F5F3F4F3783268314C08B012A
:10584000EC01FB010084F185E02D0995892BE1F63F
:10585000D80116968D919C911797019617969C9357
:105860008E931697CE01DF91CF911F910F910895DE
:10587000FA01AA27283051F1203181F1E8946F9381
:105880006E7F6E5F7F4F8F4F9F4FAF4FB1E03ED027
:10589000B4E03CD0670F781F891F9A1FA11D680FC5
:1058A000791F8A1F911DA11D6A0F711D811D911DF8
:1058B000A11D20D009F468943F912AE0269F11246D
:1058C0003019305D3193DEF6CF010895462F4770D1
:1058D000405D4193B3E00FD0C9F7F6CF462F4F702C
:1058E000405D4A3318F0495D31FD4052419302D08A
:1058F000A9F7EACFB4E0A695979587957795679530
:10590000BA95C9F700976105710508959B01AC012F
:105910000A2E06945795479537952795BA95C9F756
:10592000620F731F841F951FA01D08950E94D82C1D
:1059300008F481E00895E89409C097FB3EF490953F
:105940008095709561957F4F8F4F9F4F9923A9F058
:10595000F92F96E9BB279395F695879577956795E7
:10596000B795F111F8CFFAF4BB0F11F460FF1BC02B
:105970006F5F7F4F8F4F9F4F16C0882311F096E9BE
:1059800011C0772321F09EE8872F762F05C066236C
:1059900071F096E8862F70E060E02AF09A95660F25
:1059A000771F881FDAF7880F9695879597F90895DE
:1059B000990F0008550FAA0BE0E8FEEF1616170620
:1059C000E807F907C0F012161306E407F50798F088
:1059D000621B730B840B950B39F40A2661F0232BA1
:1059E000242B252B21F408950A2609F4A140A6951D
:1059F0008FEF811D811D08950E940F2D0C94832D22
:105A00000E94752D38F00E947C2D20F0952311F016
:105A10000C946C2D0C94722D11240C94B72D0E94B3
:105A2000942D70F3959FC1F3950F50E0551F629F21
:105A3000F001729FBB27F00DB11D639FAA27F00DE7
:105A4000B11DAA1F649F6627B00DA11D661F829F0E
:105A50002227B00DA11D621F739FB00DA11D621FF3
:105A6000839FA00D611D221F749F3327A00D611D10
:105A7000231F849F600D211D822F762F6A2F1124F2
:105A80009F5750409AF0F1F088234AF0EE0FFF1F25
:105A9000BB1F661F771F881F91505040A9F79E3F7C
:105AA000510580F00C946C2D0C94B72D5F3FE4F3FE
:105AB000983ED4F3869577956795B795F795E795D2
:105AC0009F5FC1F7FE2B880F911D9695879597F9DB
:105AD000089599278827089597F99F6780E870E0CF
