:100000000C94F5020C94201C0C94F91B0C94230303
:100010000C9423030C9423030C9423030C942303C8
:100020000C9423030C9423030C948A1D0C94471CFA
:100030000C947F1D0C9423030C9423030C94230332
:100040000C94AF1B0C9423030C947D1B0C94571B36
:100050000C9423030C948F1C0C9423030C94230303
:100060000C9423030C94230308000000BE9224493F
:10007000123EABAAAA2ABECDCCCC4C3E00000080DA
:10008000BEABAAAAAA3E00000000BF000000803F4D
:100090000000000000084178D3BB4387D1133D190D
:1000A0000E3CC3BD4282AD2B3E68EC8276BED98F3A
:1000B000E1A93E4C80EFFFBE01C4FF7F3F0000007E
:1000C00000004E414E494E495459494E46CDCCCC84
:1000D0003D0AD7233C17B7D13877CC2B329595E61C
:1000E000241FB14F0A000020410000C84200401CFC
:1000F0004620BCBE4CCA1B0E5AAEC59D744B636FE6
:1001000075706C65005246576972656C005468657D
:10011000726D69730044697361626C6500C10000AF
:10012000ECD8B29D9CC3EC143D51654F3B14484D37
:10013000524D00484D50432C00484D504E00484D04
:1001400050442C302C00484D504F00554349442C0E
:100150004865617465724D657465722C3230323059
:100160003131323000484D4C442C00484D4C422C2B
:1001700000484D414C00484D464E2C000EF0E10029
:1001800006F00000000000000080400AD7A33C00F9
:1001900000A04000327F7F7F7F46006410FF640D27
:1001A0000A0B0064C8006450726F62652020000072
:1001B000000000000100D8FF38FF0000FB7E403A3D
:1001C000423962390959CC3300401C4600040E1FE5
:1001D00004040400000404041F0E0400070F1F1F82
:1001E0001F1F1F1F1F1F1F00000000001C1E1F1FBE
:1001F0001F1F1F1F1F1F1F1F1F1F0F0700000000B3
:10020000001F1F1F1F1F1F1F1F1F1E1C1F1F1F0040
:1002100000001F1F1F000000001F1F1F000102031E
:100220000405010220200520060602030707060632
:1002300002070705030402202005FF06060707053D
:100240000006060307050101022000200006020344
:100250000705000602202005252D31327325336461
:10026000DF005069743A253364DF25632025632558
:10027000337525252563005069743A253364DF25DD
:1002800063204C6964253375005069743A253364E2
:10029000DF256320205B4F66665D002D204E6F20BA
:1002A0005069742050726F6265202D002A2A204107
:1002B0004C41524D2048494748202A2A002A2A20EA
:1002C000414C41524D204C4F5720202A2A002533C3
:1002D00064DF2563005365742074656D7065726119
:1002E000747572653A004F666673657420253464D0
:1002F000DF25630025336425252062656C6F772038
:10030000736574004C6964206F70656E206F66665B
:1003100073657400253364207365636F6E647300C6
:100320004C6964206F70656E2074696D6572004D54
:10033000616E75616C2066616E206D6F646500484A
:100340004D52432C555345520052657365742063DA
:100350006F6E6669673F007370656564202533645E
:100360002525004D6178696D756D206175746F206C
:1003700066616E002533642525004C43442062727B
:10038000696768746E6573730042746E25303375E7
:100390003D253175202020424725303375004661C8
:1003A0006E253033753D2530337556202530327536
:1003B0004E7A00202020202020200015010D01056C
:1003C00001FD00502531752041442531632530352C
:1003D0007520253032754E7A00484D48492C003240
:1003E00030323031313230003E2048656174657200
:1003F0004D65746572203C0057616974696E672EA3
:100400002E2E004F66666C696E65000000000024A9
:100410000027002A007265626F6F7400756369645B
:1004200000636F6E666967007365743F68693D00BD
:100430007365743F74703D007365743F74743D0060
:100440007365743F666E3D007365743F616C3D007B
:100450007365743F7063007365743F706E007365FD
:10046000743F706964007365743F706F3D0073651D
:10047000743F6C643D007365743F6C623D0073654E
:10048000743F73703D00484D4E442C00484D50530E
:100490002C00484D53552C00484D4152000A050A86
:1004A000050A324E6F200059657300484D52462CA4
:1004B0003235352C302C00000000002300260029A6
:1004C0000000000008000201000003040700000013
:1004D00000000000001B2F0603280403020A030487
:1004E0000504280504020A04040305280305020A7A
:1004F00005040406280306020A0604050A21030A65
:10050000021414210314111914021A1A21031A02D5
:100510001616210316021717210317020E0E2103C8
:100520000E020F0F21030F021010210310021111F0
:1005300021031102121221031202131321031302C9
:100540001515210315020A19110300000003D00C30
:10055000050104D00C050105D00C050106D00C01E5
:100560000107ED1000000A13160A0014BE0E0A015E
:100570000ECF150A000FCF150A0010CF150A001173
:10058000CF150A0012A4150A001378150A00155D8C
:10059000190A001740150A0016FF140A00181D0951
:1005A000140019EE0800011A21110A001B65090147
:1005B00000000000000000000000250028002B00C3
:1005C00004040404040404040202020202020303F9
:1005D0000303030301020408102040800102040801
:1005E0001020010204081020D61D11241FBECFEFD9
:1005F000D8E0DEBFCDBF14BEE0E6F0E088E1808346
:10060000108226E0A6E6B1E001C01D92AA34B2072E
:10061000E1F711E0A0E0B1E0EEEAF2E602C00590F9
:100620000D92A636B107D9F712E0C5EFD2E004C0AB
:100630002197FE010E944831C43FD107C9F70E94AB
:10064000FF1E0C9455310C94000080918F05909101
:1006500090059093980580939705EFE8F5E0A191B8
:10066000B19111968C911197882329F0B093980538
:10067000A0939705089585E0E739F80781F7089575
:100680008093840590EC85FD03C09FEF86FD90EA82
:10069000F8949093E40193E09093EA017894909316
:1006A000B00084FF04C081E08093B100089585E02C
:1006B000FBCF863429F064F4813411F0833461F483
:1006C00080937C05E0919705F09198051382089539
:1006D0008F3419F08235A1F3089584E08093630587
:1006E0001092AF051092AE0510925E05F5CFFF9205
:1006F0000F931F93CF93DF93F82E062FCFE0D5E013
:1007000010E06881862F8F778F1113C009838A814B
:10071000823079F0023069F0661F6627661F602715
:10072000861739F06A83E0912105F0912205812F27
:1007300009951F5F2396143021F7DF91CF911F9108
:100740000F91FF900895DC0190E080E22D9121113E
:100750000AC0E92FF0E0E752FB4F80E29132C0F48B
:100760009F5F8193FBCF913298F4E92FF0E029301D
:1007700034F42150E354FB4F248F9F5FE7CF2C329A
:10078000C9F7E752FB4F903108F79F5F8193FBCF8A
:100790000895DC01ED91FC910190F081E02D099428
:1007A000AF92BF92CF92DF92EF92FF920F931F937F
:1007B000CF93DF936C017B018B01040F151FEB01BD
:1007C0005E01AE18BF08C017D10759F06991D60174
:1007D000ED91FC910190F081E02DC6010995892BE6
:1007E00079F7C501DF91CF911F910F91FF90EF90A5
:1007F000DF90CF90BF90AF900895FC01538D448D52
:10080000252F30E0842F90E0821B930B541710F0BB
:10081000CF96089501970895FC01918D828D9817C8
:1008200061F0A28DAE0FBF2FB11D5D968C91928DA0
:100830009F5F9F73928F90E008958FEF9FEF0895D1
:10084000FC01918D828D981731F0828DE80FF11D9A
:10085000858D90E008958FEF9FEF0895FC01918DB5
:10086000228D892F90E0805C9F4F821B91098F73AE
:10087000992708958AE194E00E942E0421E0892BB3
:1008800009F420E0822F089580E090E0892B29F080
:100890000E943A0481110C9400000895FC01A48D7B
:1008A000A80FB92FB11DA35ABF4F2C91848D90E092
:1008B00001968F739927848FA689B7892C93A08975
:1008C000B1898C91837080648C93938D848D9813FF
:1008D00006C00288F389E02D80818F7D8083089592
:1008E000EF92FF920F931F93CF93DF93EC0181E080
:1008F000888F9B8D8C8D98131AC0E889F989808127
:1009000085FF15C09FB7F894EE89FF896083E88959
:10091000F98980818370806480839FBF81E090E04B
:10092000DF91CF911F910F91FF90EF900895F62ED8
:100930000B8D10E00F5F1F4F0F731127E02E8C8D72
:100940008E110CC00FB607FCFACFE889F9898081B7
:1009500085FFF5CFCE010E944E04F1CFEB8DEC0F59
:10096000FD2FF11DE35AFF4FF0829FB7F8940B8FD4
:10097000EA89FB8980818062CFCF682F8AE194E089
:100980000C947004CF93DF93EC01888D8823B9F029
:10099000AA89BB89E889F9898C9185FD03C080818A
:1009A00086FD0DC00FB607FCF7CF8C9185FFF2CF07
:1009B000808185FFEDCFCE010E944E04E9CFDF910B
:1009C000CF910895833081F028F4813099F08230FE
:1009D000A9F008958730A9F08830C9F08430B1F4C7
:1009E000809180008F7D03C0809180008F778093FD
:1009F0008000089584B58F7784BD089584B58F7D78
:100A0000FBCF8091B0008F778093B00008958091E4
:100A1000B0008F7DF9CF1F93CF93DF93282F30E065
:100A2000F901EF53FB4F8491F901EC52FA4FD49145
:100A3000F901E054FA4FC491CC23A9F0162F81118B
:100A40000E94E204EC2FF0E0EE0FFF1FEA54FA4F91
:100A5000A591B4918FB7F894EC91111108C0D0957D
:100A6000DE23DC938FBFDF91CF911F910895DE2BA2
:100A7000F8CFCF93DF9390E0FC01EC52FA4F249132
:100A800080549A4FFC0184918823D1F090E0880F24
:100A9000991FFC01E55FFB4FA591B491FC01EA545D
:100AA000FA4FC591D49161110EC09FB7F8948C9103
:100AB000E22FE0958E238C932881E223E8839FBF69
:100AC000DF91CF9108958FB7F894EC91E22BEC93DE
:100AD0008FBFF6CF1F93CF93DF93182FEB0161E009
:100AE0000E943905209739F460E0812FDF91CF9182
:100AF0001F910C940B05CF3FD10511F461E0F5CFA8
:100B0000E12FF0E0EF53FB4FE491E33031F140F49B
:100B1000E130B1F0E230E1F0C038D1057CF7E4CF4C
:100B2000E73029F1E83059F1E430B1F780918000E5
:100B3000806280938000D0938B00C0938A0004C0B1
:100B400084B5806884BDC7BDDF91CF911F910895A2
:100B500084B5806284BDC8BDF7CF80918000806875
:100B600080938000D0938900C0938800EDCF80915E
:100B7000B00080688093B000C093B300E5CF80914F
:100B8000B00080628093B000C093B400DDCF2FB777
:100B9000F89460918001709181018091820190911F
:100BA00083012FBF08951F93CF93DF930E94C70542
:100BB00020912005222349F020911B0530911C052E
:100BC000621B730B643F714048F10E94C70560933C
:100BD0001B0570931C0580931D0590931E0581E0F5
:100BE0008093200580911F058F5F80931F05CFE0C4
:100BF000D5E010E080911F0580FF14C0898182300C
:100C000049F48A831982E0912105F09122056A81D5
:100C1000812F09951F5F2396143061F7DF91CF91E3
:100C20001F9108958A818230A9F71A82ECCF089526
:100C30002CB521602CBD2A989EBD0DB407FEFDCFBA
:100C40002EB530E0322F22278EBD0DB407FEFDCF2A
:100C50009EB52A9A8CB58E7F8CBDA901492BCA01FD
:100C60000895EF92FF920F931F93CF93DF9390E03D
:100C700080E00E941806F92E90937A018091180462
:100C8000843009F074C080E090EB0E941806EC01FB
:100C9000E82E8091C80163E00E94F230911114C0E7
:100CA000E091CA01F0E00F2D017010E0EE0FFF1F80
:100CB000E75FFE4FE00FF11F80818093CA0190E053
:100CC000806A94690E9418068091C801811106C04B
:100CD00084E2E8122AC081E18093C901E091C80151
:100CE00081E08E0F8093C801F0E0E553FE4FC08392
:100CF0008091DC018C2798E021E387FF36C0880FC4
:100D000082279150D1F78093DC019091C8018091A6
:100D1000C901981371C089E092E8DF91CF911F91CA
:100D20000F91FF90EF900C941806CE01807F9927C9
:100D3000803E910511F488E0CFCFCE0124E0959557
:100D400087952A95E1F78F70992702969595879553
:100D50008093C9018091C901823028F08091C90136
:100D6000823108F4BBCF82E0B7CF880FCACF809121
:100D7000180487FF1FC0E091180481E08E0F809354
:100D800018048091C901E80FF0E0E553FE4F80811F
:100D90009091DC01982728E031E397FF09C0990F73
:100DA00093272150D1F79093DC0190E09854B5CF70
:100DB000990FF7CF8091180491E0980F9093180441
:100DC000823099F024F4882369F08AEAEECF8530E6
:100DD00089F08630D1F78091C901819580931804FC
:100DE00084EDE3CF8091DC01E0CF89E092E80E94BE
:100DF0001806EBCF8DE2D9CFDF91CF911F910F91E4
:100E0000FF90EF900895DC01ED91FC910084F18555
:100E1000E02D41E0099581E090E008951F93CF9384
:100E2000DF93162FEC01115040F0FE01649180E534
:100E300095E00E9403072196F6CFDF91CF911F9195
:100E40000895DC01ED91FC910084F185E02D40E0F6
:100E500009940F931F93CF93DF9300D000D0CDB7A9
:100E6000DEB7009105011091060120910701309134
:100E7000080109831A832B833C83909158059617A8
:100E800010F46FEF690FFE01E60FF11D6181680F2D
:100E9000606880E595E00F900F900F900F90DF91C4
:100EA000CF911F910F910C94210762E080E595E0AE
:100EB0000E9421078BE39FE10197F1F740E150E0A9
:100EC00069ED74E080E595E00E94D00361E080E088
:100ED0000E94290740E150E069EE74E080E595E06A
:100EE0000C94D003FC012185222391F0653608F093
:100EF00064E6442311F0FC016287FFEF6F9FC0019D
:100F0000112464E670E00E94FE30822F0C946A0582
:100F1000089561E00E9421078BE39FE10197F1F7BB
:100F20000895EFE6F0E080818D7F80835E980895DC
:100F3000CF93DF93C82F0E94910788E0C89FE001FC
:100F40001124D0937901C0937801EFE6F0E080811D
:100F500082608083DF91CF910895009711F0FC01AA
:100F6000099408951F93CF93DF93EC01162F6230FD
:100F700009F41B858A8581138B87133080F18A855C
:100F8000181769F1EE81FF81309749F0319625916C
:100F900034912115310519F080E4F90109951A877A
:100FA0008A819B819F838E831F86198E188EEE8186
:100FB000FF818491882331F0181721F03596FF8343
:100FC000EE83F5CF309759F0319625913491211564
:100FD000310599F280E8F9010995182FCECF0E94CA
:100FE000C705688B798B8A8B9B8BDF91CF911F9183
:100FF00008954F925F926F927F928F929F92AF92DD
:10100000BF92CF92DF92EF92FF921F93CF93DF9325
:10101000EC010E94C7056B017C018C899D89AE891A
:10102000BF8926013701481A590A6A0A7B0AD30187
:10103000C2018A3F9105A105B10508F488C0E88581
:10104000F9850995182F81115EC04E815F81411588
:101050005105D1F48C8581138AC08F858F3F11F0A3
:101060008F5F8F878D859E85009709F48CC00197CF
:1010700009F069C08F85843008F465C0106182E092
:1010800090E09E878D8746C0FA013396249130E028
:10109000A8EEB3E00E943F2F61157105810591050F
:1010A000C9F288889988AA88BB8826013701481820
:1010B00059086A087B0853014201681579058A05B9
:1010C0009B0540F610E24F5F5F4FFA012591349186
:1010D0002115310521F1812FF90109958130F9F0B0
:1010E000682FCE010E94B207888D998D0E94AD07AE
:1010F000EE81FF81309759F13496E4911E2339F146
:1011000082E090E04EC0CC8ADD8AEE8AFF8A80328F
:1011100009F0A0CF4E815F8141155105A1F62C81C8
:101120003D818A85412F4061F90194919923C1F253
:1011300098133AC03196E491E423E11335C0F901E4
:1011400032968491CDCFC88AD98AEA8AFB8ADF9108
:10115000CF911F91FF90EF90DF90CF90BF90AF9015
:101160009F908F907F906F905F904F9008951F8613
:1011700011110CC02D853E852130310509F4182F41
:101180001C871E861D86112311F3C4CFEE81FF81BB
:101190003097B1F33496E491E12391F31C8781E019
:1011A00090E09E878D87D3CF2D5F3F4FBDCFDC0171
:1011B0001C96EC911C97E83070F41D968C911D974D
:1011C000E81748F481E08E0F1C968C931C97EA0F69
:1011D000FB2FF11D648381E090E00895282F803873
:1011E000B9F48091C804893111F01092D7048BE7CB
:1011F00093E19093D6048093D5048091D7048430F2
:1012000029F4237019F088EC0E94980781E0089572
:101210008091D704223049F490E0019665E070E0B7
:101220000E9412318093D704E8CF213031F7811129
:1012300002C084E0F7CF8150F5CF803821F40E94BE
:10124000550781E0089582E008950F931F93CF938F
:10125000DF938C01662321F080E595E00E948907E9
:10126000E801FE0164912196662329F080E595E06E
:101270000E940307F6CFDF91CF911F910F91089540
:10128000CF93DF93EC018FAD823099F40E94C705B4
:10129000FE01E05CFF4F20813181621B730B6132E4
:1012A00083E0780758F01FAE61E083E094E00E948D
:1012B0002509CE01DF91CF910C94F90765367105B0
:1012C000C0F361E088EF93E0F2CF803899F461E0F9
:1012D00088EE93E00E94250961E087E00E942907DB
:1012E00060E08FED93E00E94250962E480E595E0DF
:1012F0000E94030781E00895DF92EF92FF920F931F
:101300001F93CF93DF9390916601981759F122E0D4
:10131000D22E911102C098E0D92EC82FF12CE12CC9
:10132000D0E0C13021F00CEC11E0D23010F00CED27
:1013300011E00E0D1F1D6E2D606480E595E00E948A
:10134000210768E0C8010E940E0760E880E595E08B
:101350000E942107DF5F88E0E80EF11CDD12E1CF7B
:10136000C0936601DF91CF911F910F91FF90EF9095
:10137000DF900895089590E080E0089560E080E0B7
:101380000E94770361E08091AE059091AF05892BB3
:1013900009F460E08AE00E94770361E080915E05D5
:1013A000811101C060E08BE00E94770361E08091D1
:1013B0005E05843608F460E08DE00E94770361E00A
:1013C00080916305823009F060E08CE00E94770331
:1013D00061E080916305811160E08FE00E947703F6
:1013E00061E080916305813009F060E080E10C9458
:1013F0007703882319F0813041F0089581E0672B4D
:1014000009F480E080938E050895609316028FEFB3
:101410008093170284E0809315020895CF92DF92A3
:10142000EF92FF921F93CF93DF93EC016A017B0150
:101430006C817D81072E000C880B990B0E94DD2D9D
:1014400010917C05163431F424EE38E34EE05FE36E
:101450000E943C2EA70196010E944F2F6B017C0138
:1014600020E030E048EC52EC0E94D62D181654F0E3
:101470008CE48A83DF91CF911F91FF90EF90DF90F2
:10148000CF90089520E030E04AEF53E4C701B60161
:101490000E94633087FD02C088E4EBCF1634A1F4CC
:1014A00026E636E646EE5FE3C701B6010E943C2E13
:1014B00020E030E040E052E40E944F2F6E8B7F8BA3
:1014C000888F998F8FE4D5CFCE8ADF8AE88EF98E08
:1014D000F9CFCF93DF93282FC62FF89464E0869F2F
:1014E000F0011124EC51FE4F638574858585968546
:1014F0007894D0E0211110C02CE030E02C1B3D0B83
:10150000DC01CB0104C0B695A795979587952A95E0
:10151000D2F7DF91CF91089524E0660F771F881FDF
:10152000991F2A95D1F72091E40130E050E040E086
:101530000E9426318EE090E08C1B9D0BB90102C009
:10154000769567958A95E2F7CB01E3CF68E080E076
:101550000E94690A8823B9F09BEE980F973268F0D1
:1015600093EC980F973258F097E8980F973248F01D
:10157000815A873240F482E0089581E0089588E03E
:10158000089584E0089580E0089580918805882377
:10159000E9F09091840594FF19C068E081E00E9411
:1015A000690A90918805492F481B550B9A0157FFEE
:1015B00002C02F5F3F4F3595279580918705820F99
:1015C000932F911D181619064CF081E08093870522
:1015D0006091870570E083E00C946A058F3F910568
:1015E000A9F3A4F38FEF90E0F1CF8AE290E00E949C
:1015F000BD046091BC0462956F706A30B0F4605DA8
:101600008AE194E00E9470046091BC046F706A30BB
:1016100070F4605D8AE194E00E9470048AE090E0DA
:101620000E94BD041092BB040895695CE9CF695C17
:10163000F1CF1F93CF93DF93EC01162F8C81811193
:1016400007C081E08C831D8284E290E00E94BD048B
:101650008D8181278D83612F8AE194E0DF91CF9185
:101660001F910C947004682F87EB94E00C94190B75
:10167000CF93DF93EC01FE0184912196882319F02A
:101680000E94330BF8CFDF91CF9108958BE491E066
:101690000E94380B62E487EB94E00E94C9030C942B
:1016A000F50A8CE20C94330BF999FECF92BD81BD03
:1016B00081E08FBB80B5681761F060BDF8948095BC
:1016C000862341F084E06F3F09F484E18FBBF99AEF
:1016D0007894089584E2FACFCF93DF93C82FD62F62
:1016E000E82FF0E0EE0FFF1FE25AFA4F01A8F2A92F
:1016F000E02D618385E5828313820E94250385E2C4
:10170000C89FC02D1124C35B6D2F8C2F90E0DF91FB
:10171000CF910C94540BCF93883008F050C0E82F31
:10172000F0E0EB56F44F0C9448319D0BA70BAF0B38
:10173000B70BBF0BC70BCF0BD70B653608F064E6B2
:1017400060937F058EE190E0CF910C94540B653649
:1017500008F064E660937D058FE190E0F5CF60933B
:1017600082058AE080938C0587E290E0EDCF60935C
:1017700081058AE080938C0588E290E0E5CFC62F52
:10178000862F0E9440036C2F80E290E0DDCF65360B
:1017900008F064E660937E0582E290E0D5CF64367F
:1017A00008F060E06093800589E290E0CDCF653677
:1017B00008F064E6609383058AE290E0C5CFCF919C
:1017C00008950F931F93CF93C62F813041F1D0F02E
:1017D0008630D0F58250082F10E0F801EE0FFF1F81
:1017E000E00FF11FE15FFA4F60839281913031F495
:1017F000E0912105F091220560E009956C2FC80168
:10180000839608C041E080E595E00E9472076C2F46
:1018100088E190E0CF911F910F910C94540B60934D
:10182000D8048091C7048350833050F480E595E05C
:101830000E9489078091D5049091D6040E94AD073B
:101840006C2F81E290E0E6CFCF911F910F91089528
:1018500060916305633008F460E087E190E00C94E8
:10186000540BEF92FF920F931F93CF939B01C42FC2
:101870008C01C15030F4CF911F910F91FF90EF90E8
:101880000895F80161918F017901FFEFEF1AFF0AC6
:10189000C9010E94540B9701ECCFCF93DF9300D086
:1018A000CDB7DEB77A836983982F9695E92FF0E05C
:1018B000EE0FFF1FE25AFA4F21A932A98170462F7D
:1018C000572F682F70E0F901E60FF71F14A212A23C
:1018D00041155105B1F0660F771F260F371FF9012B
:1018E000578F468F943068F4880FF5E29F9F800DE4
:1018F0001124815B682F70E042E0CE0101960E94C6
:10190000310C0F900F90DF91CF910895CF93DF931B
:1019100000D0CDB7DEB777FD39C0813091F040F00F
:10192000823021F10F900F90DF91CF91089560E008
:101930006093990584E090E00E94540BF3CF70E02F
:1019400060E0962F872F6E31710510F49EE180E0E4
:1019500090936A0580936B057A83698342E065E022
:1019600070E0CE0101960E94310CDCCF672B99F01C
:1019700081E08093630510925E0580916A059091E5
:101980006B059093AF058093AE05CCCF8130B9F253
:1019900070F2823039F61092AF051092AE05C2CFC8
:1019A000803881F588E496E19093D6048093D5043D
:1019B0008091C704863021F1E0919105F091920564
:1019C00092819F3409F481C0E0919305F0919405D0
:1019D00092819F3409F46AC0E0919505F0919605D3
:1019E00092819F3409F462C086E00895853041F405
:1019F000E0919505F091960582818F3409F052C0EF
:101A000081E0089590916305813179F480E094300C
:101A100009F084E0809363051092AF051092AE0543
:101A200010925E050E94280CEBCF933031F5843084
:101A3000F1F08830F1F02FEF813011F780915E05E1
:101A4000022E000C330B820F932F911D23E0209365
:101A500063051092AF051092AE0597FD0CC0853658
:101A6000910514F084E690E080935E05C9CF25E0EF
:101A7000E5CF2BEFE3CF80E0F7CF813009F694304C
:101A800009F4BECF61E070E08091AE059091AF05A2
:101A9000892B11F070E060E082E00E94860C0E94C9
:101AA000BE09AECF83E0089584E008958330E1F36A
:101AB000843009F09BCFE0919305F09194058281E9
:101AC0008F3409F49DCF85E00895833009F498CFD1
:101AD000EFCFCF93DF9300D0CDB7DEB78430C8F41B
:101AE000E82FF0E0EE0FFF1FE25AFA4F01A8F2A92B
:101AF000E02D758364837A83698365E2869F802DF8
:101B000011248D5A682F70E042E0CE0101960E94A8
:101B1000310C0F900F90DF91CF9108950F931F9389
:101B2000CF93DF9300D0CDB7DEB78C01181619061E
:101B3000F4F49A83898342E062E070E0CE0101967A
:101B40000E94310C109263051092AF051092AE0501
:101B500010925E0510936505009364050E94280CA1
:101B60000F900F90DF91CF911F910F91089583E017
:101B7000809363051092AF051092AE051195019503
:101B800011090536110514F004E610E000935E0516
:101B9000E5CF9B0151E0415008F40895F999FECF3B
:101BA00032BD21BD5FBB60B5FC016193CF012F5FEA
:101BB0003F4FF1CF65E2869F602D1124605C70E09D
:101BC0004DE087E691E00C94C90D1F93CF93DF930E
:101BD000182F80931904229A2A9A61E08BE00E94C0
:101BE000390560E08CE00E94390561E08DE00E94DB
:101BF000390580E58CBD8DB581608DBD60E082E0EA
:101C00000E94390590E080E00E94180681E092E889
:101C10000E94180680E098EB0E941806E3ECF4E0BE
:101C20008491E6EDF5E0D491E2ECF5E0C491C111C8
:101C300005C080E0DF91CF911F91089581110E942E
:101C4000E204EC2FF0E0EE0FFF1FE954FB4FA591EB
:101C5000B491EC91ED2369F320E1129FC0011124AE
:101C6000876C90680E9418068CE796EA123031F073
:101C70008FEC97EA133011F080E496EA0E94180680
:101C800083E196EC0E94180682EA94E90E94180605
:101C90008DEA92EC0E94180683E89AEC0E941806DE
:101CA00081EB94EC0E94180680E398E90E941806E4
:101CB00086E79CEC0E94180684ED9EEC0E941806B4
:101CC00080E090EE0E94180680E098EC0E941806D2
:101CD00080E090EC0E94180683E08093180481E372
:101CE00096E09093020180930101809169008C7FBE
:101CF00080936900E89A1092190481E09BCFEFE885
:101D0000F5E080E0A191B19111969C91923009F497
:101D10008F5F95E0E739F907A9F7882351F08091A3
:101D20002305811106C083E00E94E50D81E08093C8
:101D300023050895843011F0883071F481E090E03B
:101D40002091E2013091E301232B11F090E080E03B
:101D50009093E3018093E20161E080E00E94290713
:101D60008091E2019091E301892B29F483EA94E0C8
:101D700060E00C94250987EA94E0FACFCF93C82F4E
:101D80008038B9F461E08FE293E00E94250981E098
:101D900090E020916305233011F090E080E0909373
:101DA000E3018093E2018C2F0E949A0E81E0CF9193
:101DB00008958034C1F78091E2019091E30131E010
:101DC000009709F430E021E040916305433009F0C9
:101DD00020E0321741F3892B39F48091640590910A
:101DE00065050E948E0DDFCF90E080E0FACFFC0108
:101DF0009FB7F8946EBD0DB407FEFDCFA485B585E1
:101E00008C912385822B8C93A485B5852C91838519
:101E1000809582238C939FBF0895FC0164810C946C
:101E2000F70E811103C089E00C940B052FEF280FEA
:101E30002230A0F481E090E001C0880F2A95EAF7F3
:101E400020915405662339F0822B8093540580E558
:101E500095E00C940D0F80958223F7CF08950F9392
:101E60001F93CF938C01C62F68600E94F70E6C2FD2
:101E7000677FC801CF911F910F910C94F70E607F7F
:101E80000E942F0F8BE990E00197F1F708950F93CF
:101E90001F93CF93DF938C01D62F411144E0F801BB
:101EA000C481C42B6D2F607F6C2BC8010E942F0F43
:101EB000F0E1DF9FB00111246C2BC8010E942F0FAD
:101EC0008BE990E00197F1F7DF91CF911F910F918E
:101ED0000895FB0101900020E9F73197AF01461BFF
:101EE000570BDC01ED91FC910280F381E02D099408
:101EF0008F929F92AF92BF92EF92FF920F931F9398
:101F0000CF93DF93CDB7DEB7A1970FB6F894DEBFBE
:101F10000FBECDBF7C01FA01CB0119A2223008F41B
:101F20002AE08E010F5D1F4F822E912CB12CA12C27
:101F3000BF01A50194010E942631F901CA016A304E
:101F40000CF5605DD8016E938D01232B242B252B7E
:101F500079F790E080E0109721F0BD01C7010E9461
:101F6000690FA1960FB6F894DEBF0FBECDBFDF910B
:101F7000CF911F910F91FF90EF90BF90AF909F90E6
:101F80008F900895695CDECF462F50E070E060E0EE
:101F90002AE00C94780FCF93DF938BEA94E00E94B1
:101FA000380B60912A0587EB94E00E94C40FC3E2CE
:101FB000D5E08A858F3FA9F00E94510B6A8587EB97
:101FC00094E00E94C40F0E94510B6F8587EB94E050
:101FD0000E94C40F0E94510B688987EB94E00E9415
:101FE000C40F299685E0C734D80719F7DF91CF9140
:101FF0000C94F50ACF93DF9386E791E00E94380BAB
:10200000CEE5D5E069A187EB94E00E94C40F0E9461
:10201000510B6F8D87EB94E00E94C40F0E94510B0F
:102020006CA187EB94E00E94C40F0E94510B6BA13E
:1020300087EB94E00E94C40F0E94510B6EA187EBC6
:1020400094E00E94C40F0E94510B68A187EB94E0BA
:102050000E94C40F0E94510B6AA187EB94E00E947A
:10206000C40F0E94510B6DA187EB94E00E94C40F36
:10207000DF91CF910C94F50ACF93DF938BE691E03B
:102080000E94380B60915A0587EB94E00E94C40FC0
:102090000E94510B6091D80487EB94E00E94C40F1A
:1020A000CFE0D5E00E94510B688187EB94E00E945D
:1020B000C40F239685E0CB31D807A1F7DF91CF91EC
:1020C0000C94F50A0F931F93CF93DF938EE291E068
:1020D0000E94380B0FE815E0C1E0D0E00E94510BE0
:1020E000D801ED91FD918D018181823041F4FE0195
:1020F000ED57FE4F608187EB94E00E94C40F21965C
:10210000C530D10559F7DF91CF911F910F910C94F4
:10211000F50ACF92DF92EF92FF92CF93DF936C019B
:10212000990FEE08FF08F7FE1BC06DE287EB94E005
:102130000E94C903EC0144275527BA014C195D09D7
:102140006E097F092AE087EB94E00E94780F8C0FDC
:102150009D1FDF91CF91FF90EF90DF90CF9008957A
:102160002AE0B701A60187EB94E0DF91CF91FF90C1
:10217000EF90DF90CF900C94780F0F931F93CF9335
:10218000DF9381E791E00E94380B0FE815E0F8013A
:10219000C191D1918F010E94510B8E8D9F8D0E9414
:1021A00089108AA1882319F08CE40E94330B0E94C5
:1021B000510B88A199A10E9489108BA1882319F045
:1021C00088E40E94330BF5E007391F0701F7DF9120
:1021D000CF911F910F910C94F50A803841F488E457
:1021E00096E19093D6048093D50481E008958F7092
:1021F000E1F370E060E080918D050E944D0C0E943B
:10220000BD1082E00895CF93DF9386E491E00E94B1
:10221000380BCFE8D5E00E94510BE991F991848108
:1022200095810E94891085E0C739D807A1F7DF9111
:10223000CF910C94F50AAB0170E060E02AE00C94B9
:10224000780FCF939091FC049923D9F18230B9F1A2
:10225000803821F41092FB041092FA04C82F89ED03
:1022600093E00E94380B6091FA047091FB0487EBB5
:1022700094E00E941B110E94510B60E087EB94E0F8
:102280000E94C40F0E94510B6C2F87EB94E00E94B8
:10229000C40F0E94F50AC03429F481E08093FC0445
:1022A000CF91089582E08093FC040E94C70560935B
:1022B000FD047093FE048093FF049093000581E079
:1022C000EFCF85E1EDCFCF93DF9385E691E00E94DC
:1022D000380BCEE5D5E06BAD87EB94E00E94C40FE0
:1022E0000E94510B6C857D8587EB94E00E941B1149
:1022F000DF91CF910C94F50A2F923F924F925F920B
:102300006F927F928F929F92AF92BF92CF92DF9205
:10231000EF92FF921F93CF93DF93EC016A017B0151
:10232000722EAB019601CB01B6010E94B83067E571
:1023300071E0811126C046015701E894B7F82FEFEC
:102340003FEF4FE75FE7C501B4010E94B83081114C
:102350000CC02FEF3FEF4FE75FE7C501B4010E94CC
:10236000D62D6BE571E0181664F02FEF3FEF4FE7C5
:102370005FE4C701B6010E9463301816B4F46FE53C
:1023800071E0CE01DF91CF911F91FF90EF90DF9030
:10239000CF90BF90AF909F908F907F906F905F9005
:1023A0004F903F902F900C94690F2FEF3FEF4FE726
:1023B0005FECC701B6010E94D62D87FDE0CF20E07B
:1023C00030E0A901C701B6010E94D62D312C212C85
:1023D00087FF09C06DE2CE010E94C9031C01F7FA14
:1023E000F094F7F8F09410E060E070E080E09FE394
:1023F000711641F020E030E040E251E40E94BB2F32
:102400001F5FF6CFA70196010E944F2F2B013C01C1
:102410000E9434304B015C012AE0BC01A401CE01D2
:102420000E94780F7C01E20CF31C1123A1F1C5017D
:10243000B4010E94DB2D9B01AC01C301B2010E94DB
:102440004E2F4B015C016EE2CE010E94C903E80EE3
:10245000F91E115000F120E030E040E251E4C501E6
:10246000B4010E943C2E2B013C010E9434304B01F0
:10247000CE010E941B11E80EF91EB40190E080E02D
:102480000E94DB2D9B01AC01C301B2010E944E2FC3
:102490004B015C01DECFC701DF91CF911F91FF900F
:1024A000EF90DF90CF90BF90AF909F908F907F90F4
:1024B0006F905F904F903F902F900895CF93DF9350
:1024C0008EE391E00E94380BCEE9D5E04991599115
:1024D0006991799128E087EB94E00E947C110E9439
:1024E000510B85E0CA3AD80789F760917C0587EBE4
:1024F00094E00E94C903DF91CF910C94F50A4F92AA
:102500005F926F927F929F92AF92BF92CF92DF9233
:10251000EF92FF920F931F93CF93DF93F82E83E3F5
:1025200091E00E94380B6F2D87EB94E00E94C40F5E
:102530000E94510BEF2DF0E0EE0FFF1FE25AFA4F11
:10254000C1A9D2A98E010A5F1F4F5E0186E1A80EC4
:10255000B11CF80141905190619071908F0120E081
:1025600030E0A901C301B2010E94D62D73016201BE
:1025700087FF04C0F7FAF094F7F8F094912C20E06C
:1025800030E040E85FE3C701B6010E94D62D87FF27
:1025900015C020E030E0A901C701B6010E94D62D88
:1025A000882361F09A9420E030E040E251E4C701D2
:1025B000B6010E943C2E6B017C01E1CF20E030E0AF
:1025C00040E251E4C701B6010E94633087FD0CC0B0
:1025D000939420E030E040E251E4C701B6010E944C
:1025E000BB2F6B017C01EACF20E030E0A901C301E1
:1025F000B2010E94D62D87FF04C0F7FAF094F7F8D5
:10260000F09427E0B701A60187EB94E00E947C11CB
:1026100085E60E94330B892D990C990B0E94891035
:102620000E94510B0A151B0509F093CF698187EBB6
:1026300094E00E94C40FDF91CF911F910F91FF9002
:10264000EF90DF90CF90BF90AF909F907F906F9072
:102650005F904F900C94F50AFC0122812F3459F4BD
:1026600046895789608D718D21E087EB94E00E9447
:102670007C110C94510B85E50E94330BFACFCF935C
:1026800089E391E00E94380BC0E08C2F0E94DA0DA4
:102690000E94510B67E671E087EB94E00E94690F9E
:1026A000CF5FC43091F7CF910C94F50AEF92FF926F
:1026B0001F93CF93DF93EC017B0110E08881882387
:1026C000A1F08C3219F41F5F2196F8CFCE010E9441
:1026D0007A29BC01812FF7010995FE01EF01819153
:1026E000882361F38C32D1F7E9CFDF91CF911F912D
:1026F000FF90EF900895EF92FF920F931F93CF9367
:10270000DF9362E080E595E00E9421078BE39FE183
:102710000197F1F7E091D704E43008F099C0F0E0B8
:10272000EE0FFF1FE25AFA4FC1A9D2A98881E82F04
:10273000F0E0EC51FE4F13A16EE00E94690AE881BF
:10274000F0E0EC51FE4F21A5211157C023E41F9268
:102750001F939F938F931F922F938091D7041F9263
:102760008F9383EC93E09F938F931F9281E18F93DC
:1027700087E691E09F938F930E94B72967E671E007
:1027800080E595E00E94690F61E080E00E942907E2
:10279000E981F0E0EE0FFF1FE554FC4F8591949125
:1027A00060E00E94250960E280E595E00E94030751
:1027B0008DB79EB70E960FB6F8949EBF0FBE8DBF15
:1027C0008A818F3409F03EC04E895F89688D798D8A
:1027D00010920D05C6E0C0930E0522E081E095E061
:1027E0000E947C1180910D05C81BC15040F060E231
:1027F00080E595E00E940307F8CF22E4A8CFE0E04F
:1028000080910D05E81760F4C1E0CE0FF0E0EF5FB6
:10281000FA4F648180E595E00E940307EC2FF0CF2A
:1028200063E671E080E595E00E94690F60917C05A8
:1028300080E595E0DF91CF911F910F91FF90EF9090
:102840000C94030760E083EB93E00E942509EECF30
:1028500068E081E00E94690AEC01809108021F9201
:102860008F932C2F30E0AAE9BBE00E943F2F2AEE85
:1028700035E140E050E00E9426313F932F93DD2761
:10288000DF93CF938EE993E09F938F931F9211E193
:102890001F93C7E6D1E0DF93CF930E94B729BE0113
:1028A00080E595E00E94690F61E080E00E942907C1
:1028B000F0901302E09014020E94A60A082F68E02C
:1028C00080E00E94690AEF92FF921F920F939F93FC
:1028D0008F9389E893E09F938F931F921F93DF93C9
:1028E000CF930E94B7298DB79EB748960FB6F8943C
:1028F0009EBF0FBE8DBFBE0180E595E0DF91CF91F9
:102900001F910F91FF90EF900C94690F0F931F93FD
:10291000CF93DF93CDB7DEB761970FB6F894DEBFE4
:102920000FBECDBF9091CC049B3008F459C0660F08
:10293000660FE091E201F091E301843009F055C0A7
:102940006E0F7F2F711D7093E3016093E201809100
:10295000E2019091E3018417950724F45093E30179
:102960004093E2018091E2019091E3012817390739
:1029700024F43093E3012093E20161E080E00E94BF
:10298000290780917C05282F082E000C330B3F93DC
:102990008F938091E3018F938091E2018F931F9336
:1029A0000F931F9281E18F938E010F5F1F4F1F9333
:1029B0000F930E94B729B80180E595E00E94690F46
:1029C0000FB6F894DEBF0FBECDBF61960FB6F89478
:1029D000DEBF0FBECDBFDF91CF911F910F91089544
:1029E000963008F4A6CF660FA4CF883009F0AFCF99
:1029F000E61BF109F093E301E093E201A8CF0F9306
:102A00001F93CF93C82F803811F561E08AE793E0D8
:102A10000E94250980915A0590E09093E3018093EC
:102A2000E20104E713E024E630E050E040E06AE031
:102A30008C2F0E94861440E06091E20180E595E0D1
:102A40000E94720781E0CF911F910F910895803409
:102A500041F70091E2011091E30180915A0580173E
:102A60001106F9F241E0602F80E595E00E947207BF
:102A7000602F88E190E00E94540B0E943C10D1CF5F
:102A80000F931F93CF93C82F8038D9F461E083E66A
:102A900093E00E94250980917D0590E09093E301E9
:102AA0008093E20107E513E024E630E050E040E0E7
:102AB00065E08C2F0E94861481E0CF911F910F91C9
:102AC0000895803479F76091E2017091E30180917B
:102AD0007D058617170631F3653608F064E66093C6
:102AE0007D058FE190E00E94540B0E94FA0FDACF2F
:102AF0000F931F93CF93C82F8038E1F461E080E2F9
:102B000093E00E94250980916A0590916B0590934E
:102B1000E3018093E20104E113E028EE33E050E0AA
:102B200040E06AE08C2F0E94861481E0CF911F91D3
:102B30000F910895803479F76091E2017091E3017B
:102B400081E00E94860CE7CF0F931F93CF93C82F8D
:102B50008038D9F461E084E093E00E9425098091F7
:102B6000990590E09093E3018093E20104EF12E075
:102B700024E630E050E040E061E08C2F0E948614B3
:102B800081E0CF911F910F910895803479F7609182
:102B9000E2017091E30180E00E94860CE7CF0F9381
:102BA0001F93CF93DF93D82FC091C704CE508038A6
:102BB00071F5C43018F48C2F0E94DA0D80E595E091
:102BC0000E94890767E671E080E595E00E94690F41
:102BD000EC2FF0E0EE0FFF1FE25AFA4F01A8F2A926
:102BE000E02D848195819093E3018093E20106EECC
:102BF00012E028EC30E048E35FEF61E08D2F0E94A7
:102C0000861481E0DF91CF911F910F910895803458
:102C100071F76091E2017091E3018C2F0E94690DC0
:102C20000E940311E4CF0F931F93CF93C82F8038D6
:102C3000F9F482E00E947C0961E085ED92E00E9457
:102C4000250980916405909165059093E301809337
:102C5000E2010EEC12E028EE33E050E040E065E0E7
:102C60008C2F0E94861481E0CF911F910F910895BF
:102C7000803479F78091E2019091E301209164051D
:102C8000309165058217930721F30E948E0DE1CFE5
:102C90006F927F928F929F92AF92BF92CF92DF926C
:102CA000EF92FF920F931F93CF93DF93CDB7DEB7D1
:102CB00061970FB6F894DEBF0FBECDBF1091C70469
:102CC00060E080E00E942907173009F044C01091AD
:102CD0008D0560E08DEB92E010FF02C08CEA92E07F
:102CE0000E9425091695712EDE0111966D0197E659
:102CF000A92E91E0B92E28E5822E22E0922E31E114
:102D0000632E01E0011B711608F4A3C0143078F49F
:102D1000E12EF12CEE0CFF1CF701E25AFA4F7F0175
:102D200001A8F2A9E02D82818F3409F43CC141E170
:102D300050E060E270E0C6010E944E31198A602FB7
:102D4000610F80E00E942907B60180E595E00E94AE
:102D5000690F1F5FD8CFE091D804E43008F094C029
:102D6000F0E0EE0FFF1FE25AFA4FE1A8F2A8D701F8
:102D700012968C918F3409F08AC081E00E947C0900
:102D800020E030E040E251E4F70166897789808DE8
:102D9000918D0E943C2E0E942D307B0100E077FF38
:102DA00005C0EE24FF24E61AF70A01E010E15AE01C
:102DB000C52ED12C66E0B62EE114F10411F41930C1
:102DC0001CF1C701B6010E94FE30962EA72EB89EB8
:102DD0009001B99E300D1124C901845E9D4F7C0184
:102DE000135060E0812F0E94290763E0C7010E9411
:102DF0000E0761E0812F0E94290763E0C701039657
:102E00000E940E07E92CFA2C115060E0812F0E94DD
:102E1000290760E280E595E00E94030761E0812FC9
:102E20000E9429071C3031F46EE280E595E00E9493
:102E30000307C2CFE114F10409F51930FCF40023B3
:102E4000E9F061E080E595E00E94030700E01111E0
:102E5000B3CF61960FB6F894DEBF0FBECDBFDF9142
:102E6000CF911F910F91FF90EF90DF90CF90BF9087
:102E7000AF909F908F907F906F90089560E280E573
:102E800095E00E940307E3CF82E00E947C09E09175
:102E90009705F0919805028160E070E00F3431F4FD
:102EA00066897789808D918D0E942D309091630580
:102EB000DE0111967D019330A1F10F34A9F041E1BB
:102EC00050E06BE972E0CD010E94982941E150E0A9
:102ED000B70180E595E00E94D0038091D8048F3F30
:102EE00009F05DC01250FFCE9430D9F480917C057A
:102EF000282F082E000C330B3F938F937F936F93F3
:102F000089E892E09F938F931F9281E18F93BF9303
:102F1000AF930E94B7290FB6F894DEBF0FBECDBFA6
:102F2000D5CF2091AE053091AF0580917C05482F1B
:102F3000082E000C550B2115310591F03F932F936E
:102F40005F938F937F936F9387E792E09F938F9325
:102F50001F9281E18F93FF92EF920E94B729DBCFFE
:102F60009330D1F421E090E01F922F9320915E05E1
:102F70001F922F931F929F935F938F937F936F93D3
:102F800082E692E09F938F931F9281E18F93FF924D
:102F9000EF920E94B729BFCF2DE59BE5E5CF43E037
:102FA000742E11E0A1CE812F0E94DA0DD701D196A7
:102FB000ED91FC9166897789808D918D0E942D30ED
:102FC0007F936F93BF92AF929F928F921F926F9257
:102FD000DF92CF920E94B7290FB6F894DEBF0FBEE2
:102FE000CDBFADCECF92DF92EF92FF921F93CF93E2
:102FF000DF93CDB7DEB7AB970FB6F894DEBF0FBE49
:10300000CDBF182F4BE270E060E0CE0101960E9428
:10301000C90D111105C089819A818E30904F79F0C8
:103020004BE250E06CE771E0CE0101960E949829D6
:103030004BE270E060E0CE0101960E94310C8B8182
:103040009C811092AF051092AE0510925E05909390
:103050006505809364058D81809399058E819F819C
:103060008E31910510F48EE190E090936B05809382
:103070006A0580E1FE013896AAE9B5E001900D925B
:103080008A95E1F7888D8093630541E0698D80E53D
:1030900095E00E9472078A8D9B8DAC8DBD8D8093CB
:1030A000840190938501A0938601B09387018E8D52
:1030B000833409F086E40E9459038F8D853608F029
:1030C00084E680937F0588A1853608F084E68093A6
:1030D0007D058AA5843608F080E0809380058BA169
:1030E000853608F084E680937E0589A10E9440031E
:1030F0008AA18093D8048091C7048350833050F410
:1031000080E595E00E9489078091D5049091D604CE
:103110000E94AD0788A5809382058AE080938C0584
:1031200089A5809381058BA5853608F084E6809378
:1031300083056E0184E2C80ED11C8FE0E82E85E085
:10314000F82E10E0F60181916F01F70180838281F2
:10315000813039F4E0912105F091220560E0812F62
:1031600009951F5FF3E0EF0EF11C143059F7AB9691
:103170000FB6F894DEBF0FBECDBFDF91CF911F9188
:10318000FF90EF90DF90CF900895CF92DF92EF9273
:10319000FF920F931F93CF93DF93CDB7DEB7AD9719
:1031A0000FB6F894DEBF0FBECDBF082F42E06EE32E
:1031B00070E0CE0101960E94C90D89819A818E30FE
:1031C000904F61F08EE090EF9DA78CA742E06EE3F8
:1031D00070E0CE018C960E94310C01E08FE8C82E81
:1031E00085E0D82E10E090E4E92EF12C002309F4BC
:1031F0005DC045E250E067EA71E0CE0101960E94B1
:10320000982980E3810F8F8345E2B701CE010196B3
:103210000E94310CF601819191916F012E85FC0184
:1032200021832C893D8935832483DC01169620E196
:10323000FE01769601900D922A95E1F72889398949
:10324000FC0114A212A22115310511F0378F268F2F
:103250002A893B89FC0115A213A22115310511F021
:1032600031A320A36F85662359F0062E000C770B3F
:10327000812F0E94690D60E0C7010E960E94540BD9
:10328000F5E2EF0EF11C1F5F143009F0AFCFAD96E1
:103290000FB6F894DEBF0FBECDBFDF91CF911F9167
:1032A0000F91FF90EF90DF90CF90089545E2B70126
:1032B000CE0101960E94C90DADCFCF93C82F8038A3
:1032C00079F461E089E493E00E9425091092E3011A
:1032D0001092E2018C2F0E949A0E81E0CF91089506
:1032E0008034C1F78091E2019091E301892B91F341
:1032F00081E00E94F21781E00E94C5188FE393E0FD
:103300000E94380B0E94F50AE5CF8F929F92AF92F0
:10331000BF92CF92DF92EF92FF920F931F93CF93C2
:10332000DF93EC018B01F0907C0521E4F2120AC0DE
:1033300090E080E00E94DB2D6E8B7F8B888F998FD1
:103340008FE4DFC08981833009F0F1C0CA88DB884F
:10335000EC88FD8820E030E048EC52E4C701B6017B
:103360000E94D62D87FF0AC0A701960160E070E495
:103370008EE495E40E94BB2F6B017C01E881F0E0B4
:10338000EC51FE4F81A5882309F4C9C081E00038C3
:103390009EE3190708F080E081A783A120E4829FC3
:1033A000C0011124800F911F813E9F4308F0A8C0E7
:1033B000609113027091140290E080E00E94DB2D76
:1033C0009B01AC0160E070EC8FE794E40E94BB2F9E
:1033D0009B01AC01C701B6010E94BB2F6B017C01B0
:1033E000B80190E080E00E94DB2D20E030EC4FE758
:1033F00056E40E94BB2FA70196010E943C2E6B0150
:103400007C0120E030E0A9010E94D62D18160CF0B6
:1034100066C020E030E04AEA53E4C701B6010E94EA
:10342000633087FF5CC0C701B6010E942D30CB011D
:1034300064E170E00E941231262F062E000C330B3F
:10344000F901E35EFE4F1491012F019560312CF4D8
:10345000F901E25EFE4F0491011B24E16202B0011A
:103460001124072E000C880B990B0E94DD2D9B0167
:10347000AC01C701B6010E944E2F20E030E040EAC7
:1034800051E40E94BB2F4B015C01602F000F770BB2
:10349000880B990B0E94DD2D9B01AC01C501B40185
:1034A0000E943C2E4B015C01612F110F770B880BA2
:1034B000990B0E94DD2D9B01AC01C501B4010E9456
:1034C0004F2F20E030E048EC52E40E94BB2F9B01DC
:1034D000AC01C701B6010E944F2F6B017C01B701FF
:1034E000A601CE01DF91CF911F910F91FF90EF9038
:1034F000DF90CF90BF90AF909F908F900C940E0A6A
:1035000085E58A83DF91CF911F910F91FF90EF9016
:10351000DF90CF90BF90AF909F908F90089581E003
:10352000003C92E1190708F080E081A759CFCB0158
:103530000197803E9F4320F790E080E00E94DB2DC2
:103540009B01AC0160E070EC8FE796E40E94BB2F1A
:1035500020E030E040E85FE30E944E2F9B01AC0189
:103560006A897B898C899D890E94BB2F22E5F21292
:1035700008C020919705309198052C173D0709F058
:10358000DBCE0E9470306B017C012E853F8548891F
:1035900059890E943C2EA70196010E943C2E2A8543
:1035A0003B854C855D850E944F2FA70196010E94A7
:1035B0003C2E2E813F81488559850E944F2F9B01CB
:1035C000AC0160E070E080E89FE30E94BB2F23E342
:1035D00033E948E853E40E944E2FAB01BC0181CF90
:1035E000BF92CF92DF92EF92FF920F931F93CF93F0
:1035F000DF937C01B62E9FE8C92E95E0D92EC1E05D
:10360000D0E0F601019111916F01F80181818230C2
:1036100031F5FE01ED57FE4F80818F3721F0F70124
:10362000928189131CC0F4E070E060E0BF1689F15C
:10363000F70160817181878182FF27C0072E000C0E
:10364000880B990B0E94DD2D20E030E040E251E430
:103650000E94BB2FAB01BC01C8010E940E0A21963B
:10366000C530D10571F68B2D8570B9F08091230599
:10367000882399F0DF91CF911F910F91FF90EF90E8
:10368000DF90CF90BF900C94CB0F660F771F660F23
:10369000771FC8010E948519E2CFDF91CF911F915A
:1036A0000F91FF90EF90DF90CF90BF9008951F9201
:1036B0000F920FB60F9211242F933F934F935F9366
:1036C0006F937F938F939F93AF93BF93EF93FF93EA
:1036D0008AE194E00E944E04FF91EF91BF91AF9177
:1036E0009F918F917F916F915F914F913F912F911A
:1036F0000F900FBE0F901F9018951F920F920FB64C
:103700000F9211242F938F939F93EF93FF93E09148
:103710002A04F0912B048081E0913004F09131046F
:1037200082FD1BC09081809133048F5F8F73209145
:103730003404821741F0E0913304F0E0E65EFB4F81
:10374000958F80933304FF91EF919F918F912F91EB
:103750000F900FBE0F901F9018958081F4CF1F928D
:103760000F920FB60F9211242F933F938F939F9335
:10377000AF93BF938091800190918101A0918201CC
:10378000B091830130917F0123E0230F2D3758F54D
:103790000196A11DB11D20937F018093800190931C
:1037A0008101A0938201B093830180917B0190916C
:1037B0007C01A0917D01B0917E010196A11DB11DFA
:1037C00080937B0190937C01A0937D01B0937E0157
:1037D000BF91AF919F918F913F912F910F900FBE0D
:1037E0000F901F90189526E8230F0296A11DB11D7A
:1037F000D2CF1F920F920FB60F9211242F933F93A7
:103800004F935F936F937F938F939F93AF93BF93E8
:10381000EF93FF93E0910301F09104010995FF916B
:10382000EF91BF91AF919F918F917F916F915F9138
:103830004F913F912F910F900FBE0F901F901895B1
:103840001F920F920FB60F9211242F933F934F9315
:103850005F936F937F938F939F93AF93BF93EF93F8
:10386000FF93E0910101F09102010995FF91EF9121
:10387000BF91AF919F918F917F916F915F914F9188
:103880003F912F910F900FBE0F901F9018951F9290
:103890000F920FB60F9211242F933F934F935F9384
:1038A0006F937F938F939F93AF93BF93EF93FF9308
:1038B0008091780190917901892B71F18091880034
:1038C0009091890086509F4F80342CE9920710F028
:1038D00090E080E090938900809388008091780147
:1038E00090917901019790937901809378018BB140
:1038F00090E489278BB9FF91EF91BF91AF919F9190
:103900008F917F916F915F914F913F912F910F9088
:103910000FBE0F901F9018950E949107ECCF1F9239
:103920000F920FB60F9211242F933F934F935F93F3
:103930006F937F938F939F93AF93BF93EF93FF9377
:103940008091EA01882309F470C081508093EA01D4
:10395000823081F58091ED0190E0FC01EE0FFF1FB8
:10396000EE0FFF1FEC51FE4F4091E6015091E70131
:103970006091E8017091E9014387548765877687F4
:103980008C519E4F2091EB013091EC01231BFC01E7
:1039900023A3FF91EF91BF91AF919F918F917F9161
:1039A0006F915F914F913F912F910F900FBE0F90AC
:1039B0001F9018958130D9F4909116028091ED01F5
:1039C000891302C09093170280917C008F708093BE
:1039D000ED01981303C08FEF809317021092E60158
:1039E0001092E7011092E8011092E901D2CF811103
:1039F000D0CF1092EB018FEF8093EC018091ED011D
:103A000081110EC084E08093E5018091EE0190E089
:103A1000019666E070E00E9412318093EE01B9CF0A
:103A20008091E4018093E501B4CF20917C002F7058
:103A3000E091E501EE23C9F1E150E093E5018091C9
:103A400078009091790030911602321307C0F0E0AF
:103A5000EE0FFF1FE85EFD4F918380834091E601EA
:103A60005091E7016091E8017091E901480F591FF9
:103A7000611D711D4093E6015093E7016093E801D9
:103A80007093E9019695879596958795282F3091A3
:103A9000EB01381710F48093EB013091EC01231700
:103AA00008F077CF8093EC0174CF2730F8F0809145
:103AB00078009091790090931402809313021092F1
:103AC000ED01AE2FB0E0AC51BE4F99968C918111B3
:103AD00012C080E490917C00907C891771F090E393
:103AE0009093EA01E82BE0937C0053CF2111E9CFBA
:103AF000E091EE01E6CF80ECEDCF93E0F1CF1F92A5
:103B00000F920FB60F92112428980F900FBE0F90AE
:103B10001F9018951F920F920FB60F9211242F939A
:103B20003F934F936F937F938F939F9320918A003E
:103B300030918B0040918B05443620F080916305D5
:103B40008430F9F08091890590918A05BC01625E0C
:103B50007F4F621B730B6D33710518F02115310512
:103B6000E1F44F5F40938B05009759F0289A20911C
:103B7000840030918500820F931F90938B00809377
:103B80008A009F918F917F916F914F913F912F91DB
:103B90000F900FBE0F901F9018952817390718F433
:103BA000C9014E96E1CFC9014E97DECF10921D0498
:103BB00010921C0488EE93E0A0E0B0E080931E0415
:103BC00090931F04A0932004B093210489E191E015
:103BD00090931B0480931A0485EC90E09093270443
:103BE0008093260484EC90E0909329048093280429
:103BF00080EC90E090932B0480932A0481EC90E079
:103C000090932D0480932C0482EC90E090932F04E9
:103C100080932E0486EC90E09093310480933004DE
:103C2000109233041092340410923504109236042A
:103C30001092BA041092B9048BE291E09093B80408
:103C40008093B70410920405109203058DE391E070
:103C500090930205809301058DE495E09093C00454
:103C60008093BF0485ED94E09093C2048093C104D7
:103C700086EA9AE09093C6048093C50487E391E0B6
:103C80009093BE048093BD0495E09093220685E551
:103C90008093240624E02093FC058093FE0523E016
:103CA0002093D6058093D80522E02093B005809319
:103CB000B20580E88093660586E480937C051092C7
:103CC0005305109252059093590589E491E0909321
:103CD00051058093500561E08BE00E94390561E059
:103CE0008DE00E94390561E08AE00E94390561E0BB
:103CF0008AE00E940B0581E58CBDE8EDF5E0E491DA
:103D0000E0935B05E4ECF5E0E491F0E0EE0FFF1FDB
:103D1000EA54FA4F8591949190935D0580935C05E8
:103D200061E084E00E94390560E080E595E00E9452
:103D3000F70E88E0809358058093550580915905CA
:103D4000882319F061E00E9439058BEF9FEFFC0199
:103D50003197F1F7FC013197F1F70197F1F760E343
:103D600080E595E00E943F0F8BE496E40197F1F720
:103D700060E380E595E00E943F0F83E592E00197C4
:103D8000F1F760E380E595E00E943F0F60E280E597
:103D900095E00E943F0F60915505606280E595E0D7
:103DA0000E94210784E0809356056CE080E595E051
:103DB0000E94210780E595E00E94890782E08093B8
:103DC000570566E080E595E00E94210780EF9AE1C3
:103DD000909329058093280580E880932A058FEF2A
:103DE00080932D058093360580933F058093480589
:103DF00081E19FE090932205809321050895CF9360
:103E0000DF93CDB7DEB72E970FB6F894DEBF0FBEA7
:103E1000CDBF789484B5826084BD84B5816084BD53
:103E200085B5826085BD85B5816085BD80916E0058
:103E3000816080936E001092810080918100826089
:103E400080938100809181008160809381008091C6
:103E500080008160809380008091B10084608093B5
:103E6000B1008091B00081608093B00080917A00B1
:103E7000846080937A0080917A00826080937A00D7
:103E800080917A00816080937A0080917A008068C6
:103E900080937A001092C100219A62E080E00E9433
:103EA00077030E94D305E0912A04F0912B0482E06D
:103EB0008083E0912604F09127041082E091280489
:103EC000F091290483E3808310923204E0912E0460
:103ED000F0912F0486E08083E0912C04F0912D0472
:103EE000808180618083E0912C04F0912D04808199
:103EF00088608083E0912C04F0912D04808180689B
:103F00008083E0912C04F0912D0480818F7D80834B
:103F10008AE090E00E94BD040E94460B80E880BFCA
:103F20008FE380937E0080916400806880936400BA
:103F3000569A82E296E09093900580938F058CEFDD
:103F400095E0909392058093910586ED95E090938E
:103F500094058093930580EB95E09093960580936C
:103F6000950580E00E94F21780E00E94C518209A13
:103F700080E49CE9909387008093860010928000F3
:103F80008AE18093810084E280936F008EE48093C5
:103F90007C0080E480937B008FEE80937A000E9407
:103FA00025038FEF809316020E947F0E82E00E940D
:103FB0007C096BE18DEB94E00E94B207E8E8F1E048
:103FC00001900020E9F7E958F140E9838AE194E0A3
:103FD0000E942E048C01892B09F459C28AE194E0D5
:103FE0000E940C048A3019F08D3009F044C22981F6
:103FF000211108C090E0E92FF0E0E857FE4F108251
:104000009983E4CF809188018F32A1F7A9E8B1E0CC
:104010000D900020E9F7AA58B140BB83AA83809194
:10402000FC04811103C081E08093FC0447E050E070
:104030006EE774E089E891E00E94A129892B11F5CF
:10404000EA81FB81FF27E857FE4FF081F9838F2F2C
:104050000E9459032981233411F0263429F46981FF
:104060008DE190E00E94540B0E945E1280919001BD
:104070008A330CF0BFCF80E991E00E947A290E9438
:104080008E0DB8CF47E050E066E774E089E891E034
:104090000E94A129892B49F461EE7BE080E991E03F
:1040A0000E9456130E943C10A5CF47E050E06EE6F8
:1040B00074E089E891E00E94A129892B49F466E81F
:1040C0007CE080E991E00E9456130E94631192CF38
:1040D00047E050E066E674E089E891E00E94A1299B
:1040E000892B49F469E67DE080E991E00E9456134E
:1040F0000E9403117FCF47E050E06EE574E089E84D
:1041000091E00E94A129892B09F051C04A814A30CF
:1041100060F082E991E00E94762920919001243696
:1041200009F443C02CF4223649F00E945E1262CF9B
:104130002936C9F12037C9F721E001C020E0A22FBC
:10414000B0E0BB83AA83FD01EE0FFF1FEE0FFF1F40
:10415000E656FA4F6083718382839383223079F429
:1041600020E030E0A9010E94D62D811108C01092F4
:1041700074051092750510927605109277056A8184
:104180007B81660F771F660F771F695F7F4F8A817C
:104190009B81880F991F880F991F44E086569A4F7C
:1041A0000E94310CC2CF22E0CACF23E0C8CF46E044
:1041B00050E067E574E089E891E00E94A129892B2D
:1041C000B1F4BA81B93080F060918F0160536430EE
:1041D00058F4E5E26E9F602D1124605C70E04DE0C4
:1041E00081E991E00E94310C0E943F1303CF46E029
:1041F00050E060E574E089E891E00E94A129892BF4
:1042000009F079C0FA81F83008F475C080918F0107
:1042100060ED962E980E23E0291508F4EBCE35E2DA
:10422000939E802D112445E5842E880E712C41E942
:1042300051E05B834A83092D10E0000F111F0157E5
:104240001A4FAA81BB818C91882309F450C0B3E036
:10425000B71508F471C78C3249F47394EA81FB8175
:104260003196FB83EA83F4E08F0EEBCFD801AD905B
:10427000BC90B4E07B9E700111246701E6E0CE0E95
:10428000D11CCA0CDB1C8A819B810E947629EA0C16
:10429000FB1CD70116966D937D938D939C93199774
:1042A000682D70E044E0C6010E94310CEA81FB8178
:1042B000FB83EA838191882321F28C32C9F7C1CF35
:1042C000E816A9F0682F892D0E946C0BB2E0EB1262
:1042D0000EC0F801EC57FE4F2FE720836FE7C801AF
:1042E00049960E94540B0E9462100E947F0E892DF5
:1042F0000E947F127FCE47E050E068E474E089E8D6
:1043000091E00E94A129892B49F46DE47CE080E9C9
:1043100091E00E9456130E94BD106CCE47E050E021
:1043200060E474E089E891E00E94A129892B49F4B6
:104330006BE87BE080E991E00E9456130E94FA0F3F
:1043400059CE47E050E068E374E089E891E00E94CC
:10435000A129892B71F480E991E00E94A303809147
:10436000C7048831E1F168E18DEB94E00E94B20767
:1043700041CE47E050E060E374E089E891E00E94BC
:10438000A129892B39F469EF79E080E991E00E9455
:10439000561330CE47E050E068E274E089E891E0DF
:1043A0000E94A129892BF1F48091FC04823009F04C
:1043B00021CE81E08093FC0480E991E00E947A297B
:1043C0009093FB048093FA04E0E9F1E0CF0121919E
:1043D000222319F0CF012C32C9F70E94A3030E94B7
:1043E000550708CE46E050E061E274E089E891E0CC
:1043F0000E94A129892BF9F40E94460B0E945E12AB
:104400000E94FA0F0E943F1380E00E947F1281E019
:104410000E947F1282E00E947F1283E00E947F123E
:104420000E9403110E9463110E943C100E94BD1063
:104430000E946210DFCD44E050E06CE174E089E856
:1044400091E00E94A129892B19F40E94460BD2CD3C
:1044500045E050E065E174E089E891E00E94A1291F
:10446000892B09F0C7CDF89488E18093600089E03A
:1044700080936000FFCF99819F5F2981E22FF0E058
:10448000E857FE4F8083903408F0B4CDB4CDD0907F
:104490002305D11089C20E94C70520915F05309184
:1044A0006005DB01A21BB30BBB83AA838091680567
:1044B000909169050097A1F08A179B0788F4809175
:1044C000840580FF03C000917D0510E0B80183E002
:1044D0000E946A051092690510926805109288057D
:1044E00080916605EDE4F1E08E9F90018F9F300D85
:1044F00011244A815B812417350728F48F5F80934C
:1045000066050E94C50A8A819B81883E934008F413
:1045100077C581E0809366050E94C70560935F05BB
:10452000709360058093610590936205BFEFB0932F
:104530008D05EFE8F5E0FC87EB878F01F12CEE2489
:10454000E394D8010D90BC91A02DBB83AA83119652
:104550008C9111978D7F813049F46EE08C910E948F
:10456000690ABC018A819B810E948519F80101902A
:10457000F081E02DFB83EA8382818F3409F0F3C25E
:1045800066897789808D918D23812111B7C2628FD1
:10459000738F848F958FE38280916305843009F453
:1045A000E2C2EA81FB8166897789808D918D0E94C4
:1045B0002D30AA81BB815E968D919C915F971816D4
:1045C000190634F4861797070CF0B5C29496EC924E
:1045D000AA81BB8190968D919C919197181619068E
:1045E0004CF49C0121503109621773070CF0AFC2E3
:1045F0009596EC928091AE059091AF05892B39F09C
:10460000AA81BB8193961C92939792961C920E5FFF
:104610001F4FAA81BB8192968C91882309F4AAC26C
:10462000F0928D05F394F394F8E0FF128ACF209175
:1046300063052983233008F058C130915E053D871A
:1046400010925E0540919705509198055B834A83CF
:104650002090AE053090AF05DA0156964D905D90F2
:104660006D907C905997E0916405F0916505FA870B
:10467000E98712968C918F3409F002C1211431041C
:1046800009F0FEC0BF01FF0F880B990B0E94DD2DC2
:104690006C837D838E839F83A30192010E944E2FA2
:1046A0004B015C01C0909E05D0909F05E090A00555
:1046B000F090A10520E030E0A901C701B6010E94F9
:1046C000D62D87FF62C22DEC3CEC4CEC5EEB6C818E
:1046D0007D818E819F810E943C2EA30192010E94C8
:1046E0004F2FA70196010E943C2E60937005709396
:1046F00071058093720590937305F981F23009F486
:1047000049C220917E05288720E030E0A901C5013B
:10471000B4010E94D62D87FF03C04D8541110FC003
:1047200020E030E0A901C501B4010E9463301816F1
:104730000CF067C05D858885581708F062C020912D
:10474000A2053091A3054091A4055091A505C5018E
:10475000B4010E943C2E2091740530917505409162
:104760007605509177050E944F2F8B018E879D878C
:10477000A8856A2F70E090E080E00E94DB2D4B015D
:104780005C0120E030E0A901C701B6010E94D62DEE
:1047900087FF16C02AE939E949E15FEBC701B60195
:1047A0000E943C2E2C813D814E815F810E943C2ED7
:1047B0009B01AC01B401C5010E944F2F4B015C016C
:1047C00020E030E0A901B8018E859D850E94D62D9C
:1047D00087FDE3C19401A501B8018E859D850E94E6
:1047E000633018161CF48401AE86BD86C801AE8500
:1047F000BD858093740590937505A0937605B0935D
:104800007705A3019201EA81FB81628D738D848D0E
:10481000958D0E944E2F2091A6053091A7054091BD
:10482000A8055091A9050E943C2E6B017C01C09205
:104830007805D0927905E0927A05F0927B05209177
:10484000740530917505409176055091770560911A
:1048500070057091710580917205909173050E94A9
:104860004F2FA70196010E944F2F0E942D3077FDF8
:1048700099C16536710514F064E670E060935E05D9
:10488000C301B2010E942D3029853A85261B370BC2
:10489000121613060CF488C180916A0590916B057D
:1048A000821993094E9708F47FC1F981F11116C05E
:1048B00020E030E040E05FE36091740570917505A1
:1048C00080917605909177050E943C2E6093740547
:1048D00070937505809376059093770582E08093B9
:1048E00063051092AF051092AE0580915E05898335
:1048F000C090AA05D090AB05E090AC05F090AD0556
:10490000682F70E090E080E00E94DB2DA701960107
:104910000E944E2F21E837EF47E05CE30E943C2ED7
:10492000A70196010E944F2F6093AA057093AB05D3
:104930008093AC059093AD0580918005998130E01E
:104940009817A8F064E6681B9091630520917E0596
:10495000911120917D05A981A81BBB0B2A9FC00145
:104960002B9F900D112470E00E94FE30362F109284
:1049700069051092680520917F05321708F44CC133
:1049800010926705232F8091840580FF04C08091D9
:104990007D05821B282F20938505211165C110926A
:1049A00088050E94C50A7BC1F12CB3E0CB2E89E0BB
:1049B000982E94E6B92E2AE0A22E61C40E94E50D3D
:1049C000811161C44BE255E05B834A83EA81FB813C
:1049D00082818F3F31F10E94C705AA81BB81139666
:1049E0008D909D90AD90BC901697681979098A09B1
:1049F0009B0961327F4B8240910598F0E091280538
:104A0000F0912905309721F064E08A819B81099516
:104A1000EA81FB8182818F3F21F02FEF2283118277
:104A200010824A815B81475F5F4F5B834A838FE4DB
:104A300095E08417950751F6FF2009F42CCD62E02C
:104A400089E00E94770327CDC09218040E94C70511
:104A50006093240570932505809326059093270580
:104A60009091DC0180912A05992339F0882309F47B
:104A700005C4815080932A0501C48F3F19F08F5FD0
:104A800080932A058091CB0154E0859FC0011124B9
:104A90008C739091CC019295969596959370892BF5
:104AA00040912D05841709F471C3309136058317A1
:104AB00009F470C320913F05821709F470C39091E7
:104AC0004805891709F470C34F3F09F403C43F3FF9
:104AD00009F404C42F3F09F405C49F3F09F0CEC375
:104AE00043E04A8353E05EC3472F50E0542F4427EE
:104AF00044275F70462B51874087B8C3EA81FB810A
:104B0000828C938CA48CB58CA50194010E944E2FAD
:104B10002AE83BE446E05DE30E943C2EA5019401B7
:104B20000E944F2FAA81BB815A966D937D938D93DE
:104B30009C935D9731CD681779070CF049CDEA81D8
:104B4000FB8184A1882309F443CDE2A241CD6817FB
:104B500079070CF44FCDEA81FB8185A1882309F404
:104B600049CDE3A247CDEA81FB8114A212A215A28E
:104B700013A24DCDEA81FB8183A1882309F452CD94
:104B800081E08F0D80938D054DCDA7019601C50164
:104B9000B401A9CD34E63887B7CD00E010E01E8619
:104BA0001D8624CE60E06ACEC1010197232879F5E5
:104BB00040919905442309F498CE5981523009F067
:104BC00094CE54E6529FC001539F900D11246985E5
:104BD0007A850E9412314617170611F00CF085CE27
:104BE0006091AA057091AB058091AC059091AD05DF
:104BF0000E942D306A3571050CF077CE81E08093EC
:104C0000630510925E0580916A0590916B05909303
:104C1000AF058093AE0569CE4091670588EE93E0BD
:104C2000489FF001499FF00D1124622F70E080E150
:104C300097E20E941231369FC001379F900D1124D8
:104C4000E817F90760F48E1B9F0B9093690580931A
:104C500068054F5F4A3028F44093670594CE20E002
:104C6000F8CF109267058FCE30918805809184052A
:104C700084FFA9C0B7E82B9FC001112464E670E04F
:104C80000E941231625A6093880531118ACE6FEF0B
:104C900070E083E00E946A0580E880938705809138
:104CA0005E0560918305861708F496C084E68093BC
:104CB00086058091840581FF06C09091860584E673
:104CC000891B809386052091820540918105421BB6
:104CD000550B30918605349FC001359F900D1124EE
:104CE00064E670E00E941231260F44E1249F900197
:104CF000112480918C058F3F19F08F5F80938C0574
:104D00008091890590918A0528173907A9F08C5957
:104D10009F4F821B930B893C910520F480918C0559
:104D20008B3050F0F89410928B0530938A052093C5
:104D30008905789410928C05809116028F3F09F4B2
:104D400056C0809115028F5F80931502853008F45C
:104D50004EC0F8949091170280911602981346C0A5
:104D60005FEF5093160278941092150286E894E053
:104D70000E94380B8091170224E0C22E8111C0904E
:104D8000E40108E112E0D12CF12CE12CDC1409F44F
:104D9000ACC1D801ED91FD918D01FB83EA83EE1644
:104DA000FF0608F089C18BE20E94330B6A817B8188
:104DB0006E197F096230710508F48FC187EB94E0AA
:104DC0000E941B118AC1EFEF2E9FC001112464E6DF
:104DD00070E00E94123157CFF4E68F9FC00111247A
:104DE00070E00E94FE306093860563CF78948091D6
:104DF000D5049091D6040E94AD078091DD018F5FAC
:104E00008093DD018F7129F48091230581110E9427
:104E1000CB0F82E994E00E94380B809163058430C7
:104E200009F06AC185E50E94330B0E94510B809105
:104E30009705909198050E942C138091910590916F
:104E400092050E942C1380919305909194050E94E5
:104E50002C1380919505909196050E942C136091DA
:104E60005E0587EB94E00E94C40F0E94510B609195
:104E7000AA057091AB058091AC059091AD050E949B
:104E80002D30CB010E9489100E94510B6091AE051C
:104E90007091AF0587EB94E00E941B110E94510BAB
:104EA0006091850587EB94E00E94C40F0E94510B2E
:104EB0006091860587EB94E00E94C40F0E94F50A7A
:104EC00080918E058823D9F180919705909198055E
:104ED0009B838A83DC0112968C918F3481F58CE858
:104EE00094E00E94380B0CE615E0F80141915191D5
:104EF000619171918F0122E087EB94E00E947C1117
:104F00000E94510BF5E00C371F0779F7AA81BB818E
:104F10005A962D913D914D915C915D9756966D916C
:104F20007D918D919C9159970E944E2FAB01BC01B0
:104F300022E087EB94E00E947C110E94F50AB1E028
:104F4000B983AB85BC85ED91FD91BC87AB8762A130
:104F500089810E947703EB85FC8532970190F0816F
:104F6000E02D63A189818F5F0E947703B981BE5FC5
:104F7000B983B93031F7E0918D05E98361E0EF3F06
:104F800009F460E08EE00E94770380910001F981CE
:104F9000FF3F09F4BCC08F3F59F41092DE0110921C
:104FA000DF011092E0011092E10184E080930001A2
:104FB0000E94BD1067E08DEB94E00E94B2078091E3
:104FC000DD0183708130D1F488E994E00E94380BD0
:104FD00047E052E05B834A830E94510BAA81BB8168
:104FE0006D91BB83AA8387EB94E00E94C40FEA8192
:104FF000FB81ED50F24081F70E94F50A0E94BE0944
:105000008DEB94E00E9440093091000139833F3FCD
:1050100009F440C00E94C7055981452F50E05B83C9
:105020004A83FA01E356FB4FE4912091DE0130916F
:10503000DF01AB01421B530B1AE0E19FF001112489
:10504000E417F50738F50E94C7056093DE017093F9
:10505000DF018093E0019093E1018A819B810196B9
:1050600066E070E00E94FE308093000140E06091B5
:105070005A0580FD0BC083569B4FFC018491819F94
:10508000802D11240E94980740E060E080E595E0C3
:105090000E9472070E94D30580E090E0892B11F4F2
:1050A0000C94DE1F0E943A04882311F40C94DE1F36
:1050B0000E9400000C94DE1F2A813B812E153F05C3
:1050C00080F48DE20E94330BB7014A815B81641B3F
:1050D000750B6130710509F071CED394EA80FB80C5
:1050E00055CE8EE20E94330BF8CF0E94F50A8091D4
:1050F0001702809316027BCE833011F48DE293CE9B
:1051000080916405909165050E9489108ECE8F3F35
:1051100061F02981209300010E94910740E0609195
:105120005A0580E595E00E9472078091C704873098
:1051300009F045CF62E03FCF8A819B810E947A29A6
:10514000092D10E0F801EE0FFF1FE25AFA4F01A8F7
:10515000F2A9E02DE18087FFB3C830E8F32EF80E06
:10516000A8014C575E4F5B834A8352E0E51205C0AD
:10517000AA81BB818C91F81621F062E0892D0E94F2
:105180006C0BEA81FB81F0826F2DA9C81A82F2E0D4
:10519000F9830EC021E02A8332E0398309C042E05E
:1051A0004A8352E0598304C093E09A83A2E0A98322
:1051B0009A81E92EF12C9E9CF0019F9CF00D112408
:1051C000ED5DFA4F9285891719F082871186108656
:1051D0000E94C7059E9CF0019F9CF00D1124ED5D7F
:1051E000FA4F63877487858796877091CC01272F44
:1051F000207275FD22E08091CE0187FD21608F77BE
:105200008F3709F02460AA81A99DC0011124855D12
:105210009A4F9E9CF0019F9CF00D1124ED5DFA4F7A
:1052200027872091CA012695208B6091CD01DC0152
:1052300017962C9122FF58CC6A3A01F17F70462FC5
:1052400050E0A4E055954795AA95E1F7A49E9001FA
:10525000A59E300D11247B9D200D311D11246F70F2
:10526000260F311D2059314031872087E0912805D4
:10527000F0912905309711F069810995FD2C8091F5
:10528000190481119BCB80911804843039F49091DA
:10529000C9018091C801981709F4D6CB80911804F0
:1052A000833009F08FCB1092C8011092DC013FEFE0
:1052B0003093C90194E090931804F8948093CA0144
:1052C00083EA94E90E94180689ED92E80E94180684
:1052D000789478CB1A82B3E0B9836ACFE1E0EA83AD
:1052E000F3E056CF22E02A8333E057CF66277727B3
:1052F0000C94C12BFC0188279927E8942191203236
:10530000E9F3293010F02E30C8F32B3241F02D3262
:1053100039F4689404C00E94AF29820F911D219135
:1053200020532A30C0F31EF4909581959F4F089525
:10533000FB01DC0102C005900D9241505040D8F7AE
:105340000895FB01DC014150504030F08D910590F3
:10535000801919F40020B9F7881B990B08957AE099
:10536000979F902D879F802D910D11240895AEE079
:10537000B0E0EDEBF9E20C94162F0D891E898F89B0
:10538000988D2EE02C831A83098397FF02C080E05A
:1053900090E801979E838D83AE01455E5F4F698DD6
:1053A0007A8DCE0101960E94E7294D815E8157FDDD
:1053B0000AC02F813885421753070CF49A01020F57
:1053C000131FF80110822E96E4E00C94322FABE00C
:1053D000B0E0EDEEF9E20C94082F7C013B018A016C
:1053E000FC0117821682838181FFC8C1CE0101961C
:1053F0005C01F7019381F30193FD859193FF819106
:105400003F01882309F453C1853239F493FD859116
:1054100093FF81913F01853229F4B70190E00E940A
:10542000482DE7CF912C212C312CFFE1F31538F0DA
:105430008B3211F190F4803209F1833229F137FC7B
:105440003CC020ED280F2A3050F536FE20C08AE0FF
:10545000989E200D1124922E06C08D3291F080333B
:1054600071F7689430F8F30193FD859193FF819172
:105470003F018111DACF21C0689431F8689432F885
:10548000F2CF689433F8EFCF689434F8ECCFEAE0C9
:105490002E9E200D1124222E689435F8E4CF8E32F2
:1054A00029F436FC04C1689436F8DDCF8C3619F443
:1054B000689437F8D8CF8836B1F2982F9F7D9554ED
:1054C0009330E0F08336A1F18337C1F1833509F0E1
:1054D00063C02801F2E04F0E511CF801C080D1805A
:1054E000692D70E036FC02C06FEF7FEFC6010E94AD
:1054F000322D4C01689437F882010AC00C5F1F4FAF
:10550000FFE3F98388248394912C6501E89437F8AC
:1055100033FE2DC0522C8114910471F5552009F4ED
:1055200068CFB70180E290E00E94482D5A94F6CFF0
:10553000F801808189830E5F1F4FE4CF2801F2E0DC
:105540004F0E511CF801C080D180692D70E036FCEF
:1055500002C06FEF7FEFC6010E943D2D4C0182011A
:10556000D5CFB70180E290E00E94482D2A942814FC
:10557000190409F0B0F7CECFF60137FC859137FE5C
:1055800081916F01B70190E00E94482D51105A940B
:10559000F1E08F1A9108BFCF843619F0893609F0EF
:1055A00077C0F80137FE6BC0608171818281938181
:1055B0000C5F1F4FF32DFF763F2E97FF09C090958C
:1055C0008095709561957F4F8F4F9F4F689437F806
:1055D0002AE030E0A5010E94782DC82ECA188C2C34
:1055E000432C36FE0CC0E89440F8C91440F434FE55
:1055F00005C032FC03C0F32DFE7E4F2E892C44FEE5
:1056000095C0FE01EC0DF11D8081803309F087C04B
:10561000242D297E422E842D8870582E43FC95C05F
:1056200040FE8FC09C2C821418F42C0C922C9818DD
:1056300044FE91C0B70180E390E00E94482D42FEF5
:1056400009C088E790E041FE02C088E590E0B7011C
:105650000E94482DC91408F48AC0CA94D12C9FEF27
:10566000C91AD90ACA0CDB1CF60182916F01B70175
:1056700090E00E94482DAC14BD04B1F74FCF60817B
:105680007181072E000C880B990B0E5F1F4F92CF74
:10569000D32CE894D4F82AE030E0853739F1232D73
:1056A000297FD22E8F3601F148F48835A9F0F70111
:1056B000868197812B96E2E10C94242F803749F064
:1056C0008837A9F7D4FE02C06894D2F820E130E010
:1056D0000DC06894D4F8F6CF34FE03C0822F8660E4
:1056E000D82E20E132E002C028E030E0F801D7FEF9
:1056F0000FC060817181828193810C5F1F4FA50172
:105700000E94782DC82ECA183D2CE89437F867CF30
:105710006081718190E080E00E5F1F4FF0CF42FC0E
:1057200002C0839478CF8394839475CF842D867838
:1057300009F471CFF6CFB70180E290E00E94482DC6
:1057400083948214C0F3512C73CF522C58188214B6
:1057500008F46ECFF8CF842D867809F47BCF8BE2E6
:1057600041FE80E247FC8DE2B70190E071CFB701C6
:1057700080E390E00E94482D9A946CCF8FEF9FEFCA
:1057800099CFB0E0A0E0E7ECFBE20C940E2F5C01B7
:105790007B016115710519F0DB018D939C938501E7
:1057A0000F5F1F4FF501D0818D2F90E00E94112DCA
:1057B0006C01892BB9F5DD32B9F50F5F1F4FD501AB
:1057C0001196DC91C1E05801F1E0AF1AB10843E055
:1057D00050E06AEC70E0C5010E941A2D892B69F532
:1057E000680182E0C80ED11C45E050E065EC70E035
:1057F000C6010E941A2D892B21F4680197E0C90E79
:10580000D11CE114F10419F0D701CD92DC9260E0D3
:1058100070E080E89FEFC111FFC060E070E080E8B9
:105820009FE7FAC05801BBCFDB3229F485010E5F38
:105830001F4FF501D181C0E0C6CF43E050E062ECDC
:1058400070E0C5010E941A2D892BE9F0F80110E0E3
:1058500000E020E030E0A9015F01B0ED8B2E8D0E5D
:1058600089E08815C8F19C2E689491F88C2F887077
:10587000C2FF16C0811102C00F5F1F4F3196D501C4
:10588000DC91C92DE9CFE114F10429F00E5F1F4F1F
:10589000F7011183008360E070E080EC9FE7BCC0FB
:1058A000882311F001501109A5E0B0E00E94FD2EFF
:1058B0009B01AC01220F331F441F551F280D311DC2
:1058C000411D511D283999E93907490799E15907BF
:1058D000A8F2C6609C2ED2CFAEEF8A1206C0C3FDDE
:1058E0003CC09C2E689493F8C9CFDF7DD534A9F5D0
:1058F00080818D3239F4C061DF011296818162E0CE
:1059000070E006C0DF018B32C1F3119661E070E0F8
:1059100080535D01A61AB70A8A30F8F4E0E8CE1683
:10592000ECE0DE065CF4B601660F771F660F771FAA
:10593000C60ED71ECC0CDD1CC80ED11C5D01FFEFBE
:10594000AF1ABF0A8C9180538A30A8F1C4FF03C0FC
:10595000D194C194D1080C0D1D1DC1FF09C0E114E3
:10596000F10431F081E0A81AB108D701AD92BC92E0
:10597000CA01B9010E94DB2DC370C33009F49058ED
:105980004B015C0120E030E0A9010E94D62D882364
:1059900009F440C0C9EFD0E017FF05C0119501958B
:1059A0001109C1EED0E06E01B8E1CB1AD10880E256
:1059B000E82EF12C0FC0D501B1CFFE012591359114
:1059C000459154910E191F09C501B4010E943C2E46
:1059D0004B015C01D501C4010E151F0574F7249716
:1059E000F594E794CC16DD06A9F78A2F880F8B2F44
:1059F000881F8F3F49F020E030E0A901C501B401C4
:105A00000E94D62D811106C082E290E09093490653
:105A100080934806C501B401CDB7DEB7ECE00C9425
:105A20002A2F91110C94A92E803219F0895085509B
:105A3000C8F70895FB01DC014150504088F08D917A
:105A400081341CF08B350CF4805E659161341CF060
:105A50006B350CF4605E861B611171F3990B089530
:105A6000881BFCCFFC010590615070400110D8F7F5
:105A7000809590958E0F9F1F0895FC016150704096
:105A800001900110D8F7809590958E0F9F1F089573
:105A90000F931F93CF93DF93182F092FEB018B8167
:105AA00081FD09C01FEF0FEF812F902FDF91CF9164
:105AB0001F910F91089582FF14C02E813F818C8128
:105AC0009D81281739073CF4E881F981CF010196BF
:105AD0009983888310838E819F8101969F838E8313
