:100000000C9466020C9409240C9436240C949402EB
:100010000C9494020C9494020C9494020C94BC2AB8
:100020000C9494020C9494020C9494020C949402F8
:100030000C94B80D0C948B0D0C9494020C949402B7
:100040000C9463240C9494020C9466260C94A126C0
:100050000C9494020C9494020C9494020C949402C8
:100060000C9494020C94940208000000BE9224495F
:10007000123EABAAAA2ABECDCCCC4C3E00000080DA
:10008000BEABAAAAAA3E00000000BF000000803F4D
:100090000000000000084178D3BB4387D1133D190D
:1000A0000E3CC3BD4282AD2B3E68EC8276BED98F3A
:1000B000E1A93E4C80EFFFBE01C4FF7F3F0000007E
:1000C0000000484D50532C007265626F6F740063DE
:1000D0006F6E666967007365743F74703D00736589
:1000E000743F74743D007365743F666E3D007365C4
:1000F000743F616C3D007365743F70630073657499
:100100003F706E007365743F706964007365743F7F
:10011000706F3D007365743F6C643D007365743FA0
:100120006C623D007365743F73703D00484D4C44F4
:100130002C00484D504F00484D504400484D524D02
:1001400000484D50432C00484D414C00484D464E10
:100150002C00554349442C4865617465724D6574A3
:1001600065722C323031333036303400484D504EC9
:1001700000484D53552C000A050A050A32070F1F87
:100180001F1F1F1F1F1F1F1F00000000001C1E1F1E
:100190001F1F1F1F1F1F1F1F1F1F1F0F07000000F4
:1001A00000001F1F1F1F1F1F1F1F1F1E1C1F1F1FA1
:1001B0000000001F1F1F000000001F1F1F484D4CA4
:1001C000472C302C000EF0E10006F00000008040CB
:1001D000000040400AD7A33B0000A04000327F7FD0
:1001E0007F7F460A6400FF00090A0B0050726F62AD
:1001F0006520200000000000000100D8FF38FF004B
:10020000002CE17139117A7839B6AE073400401C00
:1002100046484D4C422C002D204E6F2050697420D2
:1002200050726F6265202D00252D313273253364A5
:10023000DF005069743A253364DF25632025632588
:10024000337525252563005069743A253364DF250D
:1002500063204C6964253375002A2A20414C4152A1
:100260004D2048494748202A2A002A2A20414C414B
:10027000524D204C4F5720202A2A0000010203042F
:1002800005010220200520060602030707060602D4
:10029000070705030402202005FF060607070500DF
:1002A00006060307050101022000200006020307DD
:1002B0000500060220200502011C0503011C05049F
:1002C000011C0505011C0106F11B0009C01B0A13D6
:1002D0008F1B0A0D511B0A0E511B0A0F511B0A10CE
:1002E000511B0A11291B0A12FF1A0A14DE1A0A16D8
:1002F000B01A0A157B1A0A18A5191400000000028A
:100300002803020209020404032804030209030467
:100310000204280204020904040305280205020954
:100320000504040921020902131321021302151501
:10033000210215021616210216020D0D21020D02D0
:100340000E0E21020E020F0F21020F0210102102C9
:1003500010021111210211021212210212021414B0
:1003600021021402090000002533642525004C43B6
:1003700044206272696768746E6573730073706598
:100380006564202533642525004D6178696D756DA0
:10039000206175746F2066616E005265736574200C
:1003A000636F6E6669673F004E6F2000596573008A
:1003B000253364207365636F6E6473004C69642039
:1003C0006F70656E2074696D657200253364252534
:1003D0002062656C6F7720736574004C6964206FD0
:1003E00070656E206F6666736574004F6666736530
:1003F0007420253464DF2563004D616E75616C20C7
:1004000066616E206D6F646500253364DF256300CF
:100410005365742074656D70657261747572653AA8
:1004200000484D52462C3235352C302C000000004F
:1004300000240027002A0000000000250028002BCF
:100440000000000000230026002900040404040426
:100450000404040202020202020303030303030171
:100460000204081020408001020408102001020448
:10047000081020000000070002010000030406002D
:100480000000000000000002494E46494E49545900
:100490004E414ECDCCCC3D0AD7233C17B7D138774F
:1004A000CC2B329595E6241FB14F0A000020410065
:1004B00000C84200401C4620BCBE4CCA1B0E5AAEAF
:1004C000C59D74001F0E841C6A200D2811241FBEB8
:1004D000CFEFD8E0DEBFCDBF14BEE0E6F0E088E1AC
:1004E0008083108211E0A0E0B1E0E0E4F1E602C018
:1004F00005900D92A634B107D9F713E0A6E4B1E058
:1005000001C01D92A43EB107E1F714E0CCECD4E0A9
:1005100004C02297FE010E945830C43CD107C9F79D
:100520000E94DF0D0C949E300C9400006627772704
:100530000C944D05FC0188279927E89421912032DD
:10054000E9F3293010F02E30C8F32B3241F02D3270
:1005500039F4689404C00E943703820F911D2191E1
:1005600020532A30C0F31EF4909581959F4F089533
:10057000FB01DC0102C005900D9241505040D8F7BC
:100580000895FB01DC014150504030F08D91059001
:10059000801919F40020B9F7881B990B0895FB0105
:1005A000DC0102C001900D9241505040D8F70895EF
:1005B000DC0101C06D9341505040E0F70895FC010B
:1005C0008191861721F08823D9F7992708953197CB
:1005D000CF010895A0E0B0E0E0EFF2E00C947130BC
:1005E0007C01EB018A01690109C0CE012196F60167
:1005F0000995F70181937F01015010400115110504
:10060000A1F7CDB7DEB7E8E00C948D30A0E0B0E004
:10061000ECE0F3E00C947130EC017B018A0169019C
:1006200009C0CE012196F70161917F01F60109957C
:100630000150104001151105A1F7CDB7DEB7E8E074
:100640000C948D30DF92EF92FF920F931F93D72E71
:100650007A018C01FA010995C80101966D2DF70107
:1006600009951F910F91FF90EF90DF9008957AE028
:10067000979F902D879F802D910D11240895AEE0B6
:10068000B0E0E5E4F3E00C9475300D891E898F89A4
:10069000988D97FF02C080E090E801979E838D833C
:1006A0001A8309838EE08C839E01255E3F4FCE0125
:1006B0000196698D7A8DA9010E9470034D815E813A
:1006C00057FD0AC02F813885421753070CF49A0151
:1006D000020F131FF80110822E96E4E00C94913063
:1006E000ABE0B0E0E6E7F3E00C9467303C012B01AF
:1006F0005A01FC0117821682838181FD03C06FEFCE
:100700007FEFC6C19AE0892E1E010894211C311C7E
:10071000F3012381F20123FD859123FF81912F01B4
:10072000882309F4B2C1853239F423FD859123FF72
:1007300081912F01853229F490E0B3010E94DB06FC
:10074000E7CF982FFF24EE249924FFE1FF15D0F086
:100750009B3269F09C3228F4903259F0933291F434
:100760000EC09D3249F0903369F441E024C052E05C
:10077000F52A84E0F82A28C098E0F92A25C0E0E1AB
:10078000FE2A22C0F7FC29C0892F80538A3070F4DA
:10079000F6FE05C0989C902C1124980E15C0E89C7C
:1007A000E02C1124E80EF0E2FF2A0EC09E3229F45C
:1007B000F6FC6BC140E4F42A07C09C3619F450E8FB
:1007C000F52A02C0983649F4F20123FD959123FFE2
:1007D00091912F01992309F0B8CF892F8554833047
:1007E00018F08052833038F444E050E0A40EB51E77
:1007F0005FE359830FC0933631F0933779F0933527
:1008000009F056C020C0F5018081898342E050E0A4
:10081000A40EB51E610101E010E012C0F501C08018
:10082000D180F6FC03C06FEF7FEF02C0692D70E04E
:1008300042E050E0A40EB51EC6010E94D0068C0115
:100840005FE7F52214C0F501C080D180F6FC03C03B
:100850006FEF7FEF02C0692D70E042E050E0A40E20
:10086000B51EC6010E94C5068C0150E8F52AF3FEAC
:1008700007C01AC080E290E0B3010E94DB06EA9450
:100880008E2D90E008171907A8F30EC0F601F7FCAB
:100890008591F7FE81916F0190E0B3010E94DB0624
:1008A000E110EA94015010400115110579F7EAC0F2
:1008B000943611F0993669F5F7FE08C0F5012081EC
:1008C00031814281538184E090E00AC0F50180814A
:1008D00091819C01442737FD4095542F82E090E0A0
:1008E000A80EB91E9FE6F92257FF09C05095409502
:1008F000309521953F4F4F4F5F4FE0E8FE2ACA01E8
:10090000B901A1012AE030E00E940707D82ED218D1
:1009100040C0953729F41F2D1F7E2AE030E01DC00E
:100920001F2D197F9F3661F0903720F4983509F01C
:10093000ACC00FC0903739F0983709F0A6C004C09A
:1009400028E030E00AC0106114FD146020E130E0BE
:1009500004C014FD166020E132E017FF08C0F50165
:10096000608171818281938144E050E008C0F5018B
:1009700080819181BC0180E090E042E050E0A40ED3
:10098000B51EA1010E940707D82ED2188FE7F82EB6
:10099000F122F6FE0BC05EEFF522D91438F4F4FE16
:1009A00007C0F2FC05C08FEEF82202C01D2D01C069
:1009B000192DF4FE0DC0FE01ED0DF11D8081803377
:1009C00019F499EEF92208C01F5FF2FE05C003C0BA
:1009D0008F2D867809F01F5F0F2DF3FC14C0F0FEF9
:1009E0000FC01E1510F09D2C0BC09D2C9E0C911A53
:1009F0001E2D06C080E290E0B3010E94DB061F5F5F
:100A00001E15C0F304C01E1510F4E11A01C0EE2437
:100A100004FF0FC080E390E0B3010E94DB0602FFF9
:100A20001DC001FD03C088E790E00EC088E590E09E
:100A30000BC0802F867891F001FF02C08BE201C0CD
:100A400080E2F7FC8DE290E0B3010E94DB0606C075
:100A500080E390E0B3010E94DB069A94D914C0F3BE
:100A6000DA94F101ED0DF11D808190E0B3010E9457
:100A7000DB06DD20A9F706C080E290E0B3010E940A
:100A8000DB06EA94EE20C1F743CEF301668177815D
:100A9000CB012B96E2E10C948330A0E0B0E0E3E5DB
:100AA000F5E00C946D30EC015B016115710519F0F6
:100AB000FB0191838083F9908F2D90E00E945C3040
:100AC000892BC9F7FDE2FF1621F4F990EE24E39497
:100AD00005C02BE2F21609F4F990EE248E010150C4
:100AE0001040C80168E874E043E050E00E94AD06A1
:100AF000892B01F58E010E5F1F4FC8016BE874E072
:100B000045E050E00E94AD06892B19F48E01095F83
:100B10001F4FA114B10419F0F50111830083E0FC0B
:100B200004C070E090E080E814C070E090E080E8DD
:100B30006FEF08C1C80160E974E043E050E00E9433
:100B4000AD06892B69F4A114B10429F470E090E09A
:100B500080EC6FE7F7C02296F501D183C083F6CF12
:100B60008824992440E050E060E070E0EF2DE053ED
:100B7000EA30A0F5F2E0EF2A8E2D90E09C0128707B
:100B80003070E2FE06C0232B79F50894811C911C7D
:100B90002BC0232B19F0089481089108DB01CA01AE
:100BA00012E0880F991FAA1FBB1F1A95D1F7480F93
:100BB000591F6A1F7B1F440F551F661F771F4E0F5B
:100BC000511D611D711D483929E9520729E9620744
:100BD00029E1720748F084E0E82A06C0EE3F31F4CC
:100BE000E3FC39C098E0E92AF990C0CFE53311F071
:100BF000E53189F529912D3219F4E0E1EE2A05C09D
:100C00002B3219F081E090E003C0299182E090E05E
:100C1000E22FE053EA3018F0C81BD90B1CC020E0CB
:100C200030E0FCE020383F075CF4C901880F991FD1
:100C3000880F991F280F391F220F331F2E0F311DC8
:100C4000E991E053EA3068F3E4FE03C03095219562
:100C50003F4F820E931ECE2CDD24E1FE07C0A1146F
:100C6000B10421F02197F501D183C083CB01BA01F2
:100C70000E94302E7B018C01F3E0CF22DD2423E0A3
:100C8000C216D10421F417FB109517F910955701DE
:100C90006801C801B70120E030E040E050E00E9468
:100CA000932D882309F44AC097FE0DC027EAE22E4F
:100CB00024E0F22E9094819491089394C0E2D0E0C5
:100CC00000E010E012C09FEBE92E94E0F92EF6CF81
:100CD000F7012591359145915491C601B5010E94C6
:100CE0002B2F5B016C018C1A9D0A8C169D0684F7D4
:100CF000D595C7950F5F1F4F0630110529F08CEF72
:100D00009FEFE80EF91EF1CFC501D6017C018D01E0
:100D10008C2D880F8D2D881F8F3F51F0C601B50196
:100D200020E030E040E050E00E94932D882331F431
:100D300082E290E09093E3038093E2037E2D9F2D67
:100D4000802F612F272F392F482F562FB901CA0125
:100D5000CDB7DEB7ECE00C948930FB01DC014150EB
:100D6000504088F08D9181341CF08B350CF4805EFE
:100D7000659161341CF06B350CF4605E861B61116B
:100D800071F3990B0895881BFCCFFC01059061500D
:100D900070400110D8F7809590958E0F9F1F089591
:100DA000FC016150704001900110D8F7809590953A
:100DB0008E0F9F1F08950F931F93CF93DF938C0186
:100DC000EB018B8181FF1BC082FF0DC02E813F8113
:100DD0008C819D812817390764F4E881F98101939A
:100DE000F983E88306C0E885F985802F0995892B6A
:100DF00031F48E819F8101969F838E8302C00FEF15
:100E00001FEFC801DF91CF911F910F910895FA0153
:100E1000AA27283051F1203181F1E8946F936E7F39
:100E20006E5F7F4F8F4F9F4FAF4FB1E03ED0B4E02A
:100E30003CD0670F781F891F9A1FA11D680F791F6B
:100E40008A1F911DA11D6A0F711D811D911DA11D7C
:100E500020D009F468943F912AE0269F112430198C
:100E6000305D3193DEF6CF010895462F4770405D27
:100E70004193B3E00FD0C9F7F6CF462F4F70405DD6
:100E80004A3318F0495D31FD4052419302D0A9F731
:100E9000EACFB4E0A6959795879577956795BA952B
:100EA000C9F700976105710508959B01AC010A2EF1
:100EB00006945795479537952795BA95C9F7620FC8
:100EC000731F841F951FA01D0895FC0180819181CF
:100ED0001816190674F4861797071CF481E08683A8
:100EE00008C0681779072CF48681882311F081E007
:100EF0008483228133811216130684F4C901019779
:100F0000681779071CF481E0878308C062177307AC
:100F10002CF08781882311F081E085838091860100
:100F200090918701892B11F0158214820895A62FC4
:100F3000B0E0FC01EA0FFB1F168214824115510537
:100F400031F0AA0FBB1FA80FB91F4D935C930895F2
:100F5000FC01608380E090E0A0ECBFE7868B978B7C
:100F6000A08FB18F828F938FA48FB58F0895FC01CE
:100F7000648313821282118280E090E0A0ECBFE7CC
:100F8000868B978BA08FB18F828F938FA48FB58F15
:100F90000895FC016115710519F4138212820EC0C7
:100FA0008181882319F47383628308C082819381CD
:100FB000009721F0860F971F9383828381818F5F33
:100FC00081830895EF92FF920F931F93CF93DF9346
:100FD000EC017A018B01CB01BA0120E030E040EA5C
:100FE00051EC0E94932D181654F4C801B70120E06B
:100FF00030E04AEF53E40E94E22E18164CF480E0F1
:1010000090E0A0ECBFE78E8B9F8BA88FB98F2FC08D
:1010100080916401863499F4C801B70126E636E66A
:1010200046EE5FE30E942B2F20E030E040E052E4E8
:101030000E942F2D6E8B7F8B888F998F04C0EE8A34
:10104000FF8A088F198F6D81772767FD7095872F2D
:10105000972F0E94322E9B01AC016E897F89888D6B
:10106000998D0E942F2D6E8B7F8B888F998FDF91AA
:10107000CF911F910F91FF90EF900895DC0120E038
:101080009396ED91FC9194978481861709F421E061
:101090009596ED91FC9196978481861709F42F5FC0
:1010A0009796ED91FC9198978481861709F42F5FAC
:1010B0009996ED91FC919A978481861709F42F5F98
:1010C000822F90E00895FC0182A1882311F084E62C
:1010D0000895878D0895FC0110926F0082E080933F
:1010E0008000613059F0613010F06F3F89F412A236
:1010F0008BE1809381008FEF91E006C062A38AE1CB
:101100008093810080E49CE990938700809386001F
:1011100085E080936F0008951F93CF93DF93EC01D8
:10112000EDA1FEA126893789408D518DCA01B901F3
:101130000E948E2F8823C9F0EFA1F8A52689378950
:10114000408D518DCA01B9010E948E2F882369F00C
:10115000E9A5FAA526893789408D518D10E0CA018D
:10116000B9010E948E2F882309F411E0812FDF91AD
:10117000CF911F910895FC0184859585E05CFF4F18
:1011800091838083E054F04016820895FC017087BB
:1011900067831682118680E090E0A0E0B0E0868B45
:1011A000978BA08FB18FE05CFF4F11821082089562
:1011B000FC0181E0818777FF02C0118208956536C6
:1011C00071051CF084E68183089561830895FC0114
:1011D000CB016E31710510F48EE190E09587848724
:1011E0000895CF93DF93EC01E62FF0E03B96EE0FEE
:1011F000FF1FEE0FFF1FE80FF91F2083318342838B
:101200005383623041F480E090E0A0E0B0E08E8B48
:101210009F8BA88FB98FDF91CF910895FC01633424
:1012200011F0623511F4668F089586E4868F089573
:101230001F93182F80910203882351F481E080933B
:101240000203109203038BEA93E064E20E94CD272D
:10125000809103038127809303038BEA93E0612F3E
:101260000E94CD271F910895EF92FF920F931F9335
:10127000CF93DF938C01FC01E3A0F4A0F701268952
:101280003789408D518DCA01B9010E948E2F882364
:1012900009F055C0C2ECD0E0FE012196849188236C
:1012A00019F00E941809F8CFE80110E04E855F851B
:1012B000688979898EEF92E022E030E00E94812AED
:1012C0008CE20E9418091F5F2496143079F7F70109
:1012D00066897789808D918D228D338D448D558DD2
:1012E0000E942E2DAB01BC018EEF92E022E030E097
:1012F0000E94812A8BEA93E06AE20E94CD276091E6
:10130000030362956F706A3010F4605D01C0695C20
:101310008BEA93E00E94CD27609103036F706A30DF
:1013200010F4605D01C0695C8BEA93E00E94CD27F8
:101330008BEA93E06AE00E94CD2710920203DF91CE
:10134000CF911F910F91FF90EF900895BF92CF9290
:10135000DF92EF92FF920F931F93CF93DF93EC01F5
:101360006F8178858EEF92E04AE050E00E948729F5
:101370008CE20E941809E3E2CE2ED12CCC0EDD1EA9
:10138000BB24D601ED91FC91E688F788008D118D84
:10139000C801B701A80197010E948E2F882349F444
:1013A0008EEF92E0B801A70121E030E00E94812A8F
:1013B00003C085E50E9418098CE20E941809B394C5
:1013C00082E090E0C80ED91E94E0B916D1F68EEFF7
:1013D00092E069814AE050E00E9435298CE20E9447
:1013E00018096CAD7DAD8EAD9FAD0E94FF2D9B01A8
:1013F000AC018EEF92E0B9014AE050E00E948729EB
:101400008CE20E941809C05CDF4F688179818EEF01
:1014100092E04AE050E00E942429DF91CF911F9191
:101420000F91FF90EF90DF90CF90BF900895FC0157
:10143000862F608390E8928796E4968F20E030E0D4
:1014400040EC5FE724AF35AF46AF57AF61E00E9495
:1014500080250895AF92BF92CF92DF92EF92FF92D4
:101460000F931F93CF93DF93EC016981662309F4F7
:101470007DC08A819B8170E00E94F22F19826115E4
:10148000710509F46BC080E090E00E94302E9B0152
:10149000AC0160E078EF8FEF95E40E94972D20E09B
:1014A00030E040E85FE30E942E2D9B01AC016A8989
:1014B0007B898C899D890E94972D7B018C01F80185
:1014C000D090640182E5D81609F096C08091690138
:1014D00090916A01C817D90709F48EC0C701D801D5
:1014E0008E8B9F8BA88FB98FC0C0C801B70120E039
:1014F00030E04AEF53E40E94E22E18167CF186E4B5
:10150000D81699F4C801B70126E636E646EE5FE341
:101510000E942B2F20E030E040E052E40E942F2D6B
:101520006E8B7F8B888F998F04C0EE8AFF8A088F1D
:10153000198F6D81772767FD7095872F972F0E94F0
:10154000322E9B01AC016E897F89888D998D0E9416
:101550002F2D6E8B7F8B888F998F08C080E090E055
:10156000A0ECBFE78E8B9F8BA88FB98FEE88FF888A
:10157000088D198DC801B701A80197010E948E2F0F
:101580008823A9F5AA8CBB8CCC8CDD8CC601B50157
:10159000A60195010E948E2F882329F0EA8EFB8EEA
:1015A0000C8F1D8F16C0C801B701A60195010E94BE
:1015B0002E2D2AE83BE446E05DE30E942B2F9B01A1
:1015C000AC01C601B5010E942F2D6A8F7B8F8C8FD5
:1015D0009D8F6E897F89888D998D0E94FF2D9B013B
:1015E000AC016E96CE01B9010E9465073EC01CA2F7
:1015F0001AA21DA21BA239C0CF010E94EB2E7B01B3
:101600008C012E853F85488959890E942B2FA8017E
:1016100097010E942B2F2A853B854C855D850E9472
:101620002F2DA80197010E942B2F2E813F814885E5
:1016300059850E942F2D9B01AC0160E070E080E88D
:101640009FE30E94972D23E333E948E853E40E9487
:101650002E2D7B018C0120E030E040EA51EC0E940D
:10166000932D18160CF07ACF40CFDF91CF911F91B8
:101670000F91FF90EF90DF90CF90BF90AF900895C3
:10168000FF920F931F93CF93DF93EC0100E010E0E4
:10169000A0E4FA2E88810E94FE249C0101978E5FAF
:1016A000934068F4020F131FFA94A1F79801F3E036
:1016B00036952795FA95E1F72115310519F41B8226
:1016C0001A820BC08981882331F08A819B8100971F
:1016D00021F0280F391F3B832A8389818F5F8983FB
:1016E000DF91CF911F910F91FF9008958F929F925C
:1016F000AF92BF92CF92DF92EF92FF920F931F9320
:10170000CF93DF93EC010E94AB249B01AC018A8153
:101710009B81B901681B790B6D37710508F4BAC15B
:101720002A833B834C835D8313E2C12ED12CCC0EE4
:10173000DD1E8601FF24D801ED91FC91848181306A
:1017400019F4CF010E94400BF3940E5F1F4FB4E0D9
:10175000FB1689F78A858F5F8A87883008F49AC1DB
:1017600010E0F601819191916F010E942A0A1F5F9A
:101770001430B9F78985882309F007C18980198257
:10178000EBA1FCA1A688B788C08CD18CC601B5019D
:10179000A60195010E948E2F882309F095C0C05C98
:1017A000DF4F88819981C054D040892B09F08CC0CB
:1017B0006F817885882777FD8095982F0E94322E3B
:1017C000A60195010E942E2D7B018C0168A979A9A3
:1017D0008AA99BA9A80197010E942B2F6A8B7B8B5A
:1017E0008C8B9D8B8AA1882319F0B4E69B2E01C0B7
:1017F0009F8CC801B70120E030E040E050E00E943B
:10180000E22E181614F4891460F0C801B70120E024
:1018100030E040E050E00E94932D8823B4F488200B
:10182000A1F0C801B7012CA93DA94EA95FA90E944A
:101830002B2F9B01AC016E897F89888D998D0E9429
:101840002F2D6E8B7F8B888F998FEBA1FCA1628DE2
:10185000738D848D958DA60195010E942E2D9B017F
:10186000AC0168AD79AD8AAD9BAD0E942B2F7B0199
:101870008C016A8F7B8F8C8F9D8F6CA57DA58EA52B
:101880009FA56E877F87888B998B2A893B894C8996
:101890005D890E942F2D2E893F89488D598D0E9488
:1018A0002F2DA80197010E942F2D0E94FF2D9B0133
:1018B000AC01892D90E06817790714F0998204C073
:1018C000121613060CF46983EBA1FCA166897789D3
:1018D000808D918D0E94FF2DAB016F817885461719
:1018E000570704F18C859D85C05CDF4F28813981C5
:1018F000C054D040821B930B4F97A0F08E81882359
:1019000051F481E08E8380E090E0A0E0B0E08E8B27
:101910009F8BA88FB98FC05CDF4F19821882C0548B
:10192000D04033C08E01005C1F4FD8018D919C9137
:101930001197009721F001978D939C9326C08E817B
:10194000882319F19B01241B350B84E690E0FC01F0
:101950002E9FC0012F9F900D3E9F900D11240E943D
:1019600006308BA590E0681779077CF06CAD7DADF3
:101970008EAD9FAD0E94FF2D6A35710534F48C85C4
:101980009D85D8018D939C931E82698170E080E0D3
:1019900090E00E94302E5B016C01ECACFDAC0EAD12
:1019A0001FADC801B701A80197010E948E2F88239F
:1019B00029F0ACAEBDAECEAEDFAE16C0C601B501ED
:1019C000A80197010E942E2D21E837EF47E05CE344
:1019D0000E942B2F9B01AC01C801B7010E942F2D43
:1019E0006CAF7DAF8EAF9FAF8AA1882369F59981D7
:1019F00028A1921710F01B8616C03B858AE0989F9D
:101A0000C0011124622F70E00E94F22F832F90E01A
:101A10008617970708F020E0832F8F5F8B878A3027
:101A200008F01B86922F89A1882319F08F8D891BBE
:101A3000982F80E0990F64E670E00E94F22F709377
:101A40008B0060938A0023C089A19981882319F0B3
:101A500044E6491B01C0492F28A150E08F8D90E03A
:101A6000821B9109FC014E9FC0014F9F900D5E9F0C
:101A7000900D112464E670E00E94F22F260F84E19D
:101A8000289F9001112430938B0020938A001A869E
:101A900081E001C080E0DF91CF911F910F91FF9015
:101AA000EF90DF90CF90BF90AF909F908F90089570
:101AB000CF93DF93FC01DB011D968C911D978483EE
:101AC0001E968C911E9785839F012A5F3F4FAB0125
:101AD0004B5E5F4F80E1EA010990AE01E901099296
:101AE0009E018150C1F71F968D919C91509714A231
:101AF00012A2009711F0978F868F51966D917C916D
:101B0000529715A213A26115710511F071A360A37C
:101B1000DF91CF9108951F920F920FB60F9211246B
:101B20002F933F934F935F936F937F938F939F93E5
:101B3000AF93BF93EF93FF9380918A0090918B00B6
:101B4000892B29F08091460161E00E94BF25FF9119
:101B5000EF91BF91AF919F918F917F916F915F9125
:101B60004F913F912F910F900FBE0F901F9018959E
:101B70001F920F920FB60F9211242F933F934F9302
:101B80005F936F937F938F939F93AF93BF93EF93E5
:101B9000FF938091460160E00E94BF25FF91EF9185
:101BA000BF91AF919F918F917F916F915F914F9175
:101BB0003F912F910F900FBE0F901F9018950E948C
:101BC000C3240E9482150E94A718FDCF9C01F99999
:101BD000FECF32BD21BDF89A80B508959C01F999D8
:101BE000FECF1FBA32BD21BD60BD0FB6F894FA9A80
:101BF000F99A0FBE0895982F8430D8F4E82FF0E0BA
:101C0000EE0FFF1FEA5BFE4F03A0F4A1E02D6583FA
:101C1000F999FECF1FBA85E2989FC0011124825B1B
:101C200090E092BD81BD60BD0FB6F894FA9AF99A22
:101C30000FBE0895882311F46093B202089585E9D8
:101C400091E065E00E94A8078BEB91E064E00E94C0
:101C5000A80781EE91E063E00E94A80787E092E088
:101C600062E00E94A80786E491E063E00E94170A00
:101C700088E891E064E042E00E94E12186E69EE08F
:101C8000909333028093320280E880933402E7E33A
:101C9000F2E08FEF8083399692E0EB35F907D1F7C8
:101CA00087E59EE090936D0280936C020895282F43
:101CB000462F882321F489E00E94BF2508952150F2
:101CC00088E891E0622F0E9491200895BF92CF9200
:101CD000DF92EF92FF920F931F93CF93DF936C01EC
:101CE000B62E09E611E02EE6E22E22E0F22EF801F1
:101CF000C081D1818C81823071F5F70190819F374D
:101D000021F0F6018281981731F5F4E0BF1621F435
:101D1000CE0160E070E01DC0F60187812081318135
:101D200082FF13C0B901882777FD8095982F0E9404
:101D3000322E20E030E040E251E40E94972DAB01CA
:101D4000BC01CE010E94E20706C0220F331FCE0164
:101D5000B9010E94C9070E5F1F4F0894E11CF11CD6
:101D6000F1E001371F0719F685E0B82221F08DE276
:101D700092E00E94F81EDF91CF911F910F91FF908A
:101D8000EF90DF90CF90BF900895EF92FF921F9356
:101D9000CF93DF93EC017B0110E013C08C3219F478
:101DA0001F5F21960EC0CE010E949A02BC01812FB6
:101DB000F701099501C021968881882311F08C32A2
:101DC000D1F78881882351F7DF91CF911F91FF9040
:101DD000EF900895CF93DF93EC01FE01219684915B
:101DE000882319F00E941809F8CFDF91CF91089548
:101DF0008CE20E94180908958BEA93E06AE20E943F
:101E0000CD276091030362956F706A3010F4605DB6
:101E100001C0695C8BEA93E00E94CD2760910303C7
:101E20006F706A3010F4605D01C0695C8BEA93E00A
:101E30000E94CD278BEA93E06AE00E94CD271092A2
:101E4000020308950F931F938CE291E00E94EA0E23
:101E50000EEF12E0C801609171014AE050E00E946B
:101E600035290E94F80E6091520170915301C8010A
:101E70004AE050E00E9424290E94FC0E1F910F911D
:101E800008950F931F93CF93DF938CE391E00E940B
:101E9000EA0EC9E6D1E00EE612E00E94F80EE881F3
:101EA000F9818481823041F48EEF92E0F801608103
:101EB0004AE050E00E94352922960F5F1F4FF1E063
:101EC000C137DF0751F70E94FC0EDF91CF911F91C0
:101ED0000F9108950F931F938CE491E00E94EA0EF6
:101EE0000EEF12E0C801609166014AE050E00E94E6
:101EF00035290E94F80EC801609165014AE050E062
:101F00000E9435290E94F80EC801609167014AE0DD
:101F100050E00E9435290E94F80EC80160916801C6
:101F20004AE050E00E9435290E94FC0E1F910F915B
:101F30000895282F80936501F999FECF1FBA8FE18C
:101F400090E092BD81BD20BD0FB6F894FA9AF99A3F
:101F50000FBE0E946A0F0895CF93DF9381E192E054
:101F60000E94EA0E8EEF92E0609194014AE050E008
:101F70000E9435290E94F80E8EEF92E06091BA021D
:101F80004AE050E00E943529CAE5D2E00E94F80EEE
:101F90008EEF92E068814AE050E00E943529239656
:101FA00082E0C636D80791F70E94FC0EDF91CF91F0
:101FB0000895CF93DF9382E391E00E94EA0EC9E691
:101FC000D1E00E94F80EE991F9916581772767FDCC
:101FD00070958EEF92E04AE050E00E94872981E000
:101FE000C137D80771F70E94FC0EDF91CF91089599
:101FF000982F8430D8F4E82FF0E0EE0FFF1FEA5B53
:10200000FE4F03A0F4A1E02D6583F999FECF1FBA1E
:1020100085E2989FC0011124825B90E092BD81BD52
:1020200060BD0FB6F894FA9AF99A0FBE0E94D90FC4
:1020300008950F931F93CF93DF9387E491E00E945D
:10204000EA0E09E611E0F801C081D1810E94F80E84
:102050006E8D7F8D8EEF92E04AE050E00E948729DE
:102060008AA1882319F08CE40E9418090E94F80EB6
:1020700068A179A18EEF92E04AE050E00E948729A2
:102080008BA1882319F088E40E9418090E5F1F4F66
:10209000F1E001371F07B9F60E94FC0EDF91CF91E6
:1020A0001F910F910895CF93DF9387E391E00E94F2
:1020B000EA0EC2E7D1E00E94F80E49915991699168
:1020C00079918EEF92E028E030E00E94812A81E051
:1020D000C238D80781F70E94FC0EDF91CF91089596
:1020E0009F92AF92BF92CF92DF92EF92FF920F93A7
:1020F0001F93CF93DF93182F81E491E00E94EA0EA3
:102100008EEF92E0612F4AE050E00E9435290E9454
:10211000F80EE12FF0E0EE0FFF1FEA5BFE4FA3A0E9
:10212000B4A0E501CC24EE80FF80088519859924B0
:10213000C801B70120E030E040E050E00E94932D5C
:10214000882334F49924939417FB109517F910956C
:10215000DD240BC0DA94C801B70120E030E040E292
:1021600051E40E942B2F7B018C01C801B70120E0B4
:1021700030E040E85FE30E94932D87FDEBCF0BC07A
:10218000D394C801B70120E030E040E251E40E945E
:10219000972D7B018C01C801B70120E030E040E2BF
:1021A00051E40E94E22E87FFEBCF992021F017FB2C
:1021B000109517F910958EEF92E0B801A70127E06E
:1021C00030E00E94812A85E60E9418096D2D77274C
:1021D00067FD70958EEF92E04AE050E00E948729FB
:1021E0000E94F80EC394249684E0C81609F09BCF91
:1021F0008EEF92E0F50164814AE050E00E943529BB
:102200000E94FC0EDF91CF911F910F91FF90EF90F4
:10221000DF90CF90BF90AF909F90089586E491E0BB
:1022200062E00E943E08892B29F08DE292E063E093
:102230000E94651F0895E82FF0E0E259FD4F60838A
:10224000F999FECF1FBA90E0499692BD81BD60BD5D
:102250000FB6F894FA9AF99A0FBE0E94410F0E94A5
:102260000E11089582E591E00E94EA0E8EEF92E051
:1022700062E40E948D280E94FC0E08951F93162F81
:10228000813079F0813028F0823099F0833051F537
:1022900018C060936601F999FECF1FBA8EE190E0F5
:1022A00019C060936501F999FECF1FBA8FE190E0E4
:1022B00011C060936701F999FECF1FBA80E290E0E8
:1022C00009C086E491E00E946B08F999FECF1FBA1D
:1022D00082E290E092BD81BD10BD0FB6F894FA9AEB
:1022E000F99A0FBE1F9108950F931F93DF93CF9319
:1022F00000D0CDB7DEB7AB017A836983082F06958E
:10230000182F1170E02FF0E0EE0FFF1FEA5BFE4F79
:1023100083A194A14E96612F0E9497070430B0F4D8
:1023200089819A81892B91F0110F85E2089FC00164
:102330001124180F812F815B90E0BE016F5F7F4FEA
:1023400042E050E02EEE3DE00E9406030F900F9019
:10235000CF91DF911F910F9108958091B40260E0B9
:1023600070E00E9474110E941910089581E791E0B5
:102370000E94EA0E86E491E00E94A6090E94FC0EEB
:102380000895843070F465E2869FB0011124605C8A
:102390008DEB92E070E04DE050E026EE3DE00E94D3
:1023A000EA0208951F938CE691E00E94EA0E10E085
:1023B000812F0E94C1110E94F80E8EEF92E06DEB0A
:1023C00072E00E949A291F5F143091F70E94FC0E60
:1023D0001F910895982F843060F485E2989FC00182
:1023E0001124805C90E04DE050E02EEE3DE00E9434
:1023F00006030E94D2110895CF93DF93EC011816C3
:10240000190674F482E090E0BE014EEE5DE00E9499
:10241000220386E491E0BE010E94C60820E009C0C4
:1024200066277727681B790B86E491E00E94D8081D
:1024300021E0F999FECF1FBA87E190E092BD81BDFE
:1024400020BD0FB6F894FA9AF99A0FBEDF91CF919A
:1024500008958F929F92AF92BF92CF92DF92EF92A8
:10246000FF920F931F93CF93DF93EC01FC01019038
:102470000020E9F731971E2F181B64E271E047E056
:1024800050E00E94C102892B11F5CE0107960E94EF
:102490009A020E94FC11C10FD11D2197088186E488
:1024A00091E0602F0E940E09033419F0063409F000
:1024B000C9C1F999FECF1FBA8DE190E092BD81BDEF
:1024C00000BD0FB6F894FA9AF99A0FBEBBC1CE01BF
:1024D0006CE171E047E050E00E94C102892B49F4B1
:1024E000CE01079665E679E10E94C50E0E94AC0F09
:1024F000A9C1CE0164E171E047E050E00E94C10251
:10250000892B49F4CE0107966FE274E10E94C50E53
:102510000E94220F97C1CE016CE071E047E050E0CD
:102520000E94C102892B49F4CE0107966BEF7DE032
:102530000E94C50E0E94D90F85C1CE0164E071E0F2
:1025400047E050E00E94C102892B09F05CC11A30BB
:1025500008F459C1CE0109960E9496029B01AC0174
:102560006F81643679F065361CF4623609F506C071
:10257000693631F06037E1F401E005C000E003C0E6
:1025800002E001C003E086E491E0602F0E94F108C0
:10259000802F90E0880F991F880F991FBC016E58FB
:1025A0007E4F079644E050E02EEE3DE00E94060389
:1025B0000E94531047C1193008F42FC18E8128960C
:1025C0008053BE010E94EA113DC1193008F42FC1A9
:1025D000AE8080EDA80E93E09A1508F433C12896DA
:1025E00085E2A89EB02C1124B5E58B2E8B0C992486
:1025F000CA2CDD24CC0CDD1CE9E6F1E0CE0EDF1E9A
:1026000031C0F3E0F91590F18C3229F493942196BE
:1026100084E0880E27C0F601E080F180092D10E0EB
:10262000CE010E949602000F111F000F111FF7012B
:10263000E00FF11F66837783808791870A5F1F4FC2
:10264000E00EF11E882D90E0B70144E050E02EEE40
:102650003DE00E94060301C021968881882311F085
:102660008C32D1F78881882361F656C0CE010E9452
:102670009A02082FAA2DB0E087FD24C0AA0FBB1F25
:10268000AA5BBE4F9396ED91FC9194971481181715
:1026900009F442C0CF01602F0E94B707F999FECF1D
:1026A0001FBAFDE4BF0E8B2D90E092BD81BD00BD31
:1026B0000FB6F894FA9AF99A0FBE123069F58A2D7E
:1026C0006FE728C0182F1058FD01EE0FFF1FEA5BBF
:1026D000FE4F03A0F4A1E02D8481823029F4A25999
:1026E000BD4F8C918117A1F0CF0162E00E94B70726
:1026F000F999FECF1FBA8DE4B80E8B2D90E092BDF4
:1027000081BD82E080BD0FB6F894FA9AF99A0FBEA7
:102710008A2D612F0E941B118A2D0E94701092C079
:10272000CE01079664E771E10E94C50E0E94191060
:1027300089C0CE0166EE70E047E050E00E94C10221
:10274000892B49F4CE0107966EE371E10E94C50E14
:102750000E946A0F77C0CE016EED70E047E050E056
:102760000E94C102892B39F427968EEC92E0BE01BB
:102770000E94B11C67C0CE0166ED70E047E050E0FA
:102780000E94C102892B39F4CE0107966AE17EE0EE
:102790000E94C50E57C0CE016FEC70E046E050E0DD
:1027A0000E94C102892BD1F40E9432110E94531061
:1027B0000E946A0F0E94D21100E0802F0E947010C8
:1027C0000F5F0430D1F70E94D90F0E94220F0E94A0
:1027D000AC0F0E9419100E94410F34C0CE0168EC6A
:1027E00070E045E050E00E94C102892B59F587E076
:1027F00060E00E94BF25F89488E18093600089E042
:1028000080936000FFCFCE016DEF70E046E050E0B6
:102810000E94C102892B09F4CECECE0166EF70E092
:1028200046E050E00E94C102892B09F4CECECE01D1
:102830006EEE70E047E050E00E94C102892B09F083
:1028400078CF6ECFDF91CF911F910F91FF90EF90D6
:10285000DF90CF90BF90AF909F908F900895CF93CF
:10286000DF93482FEB0177FF02C0C0E0D0E041309A
:10287000B1F0413018F0423051F51EC02C2FC093FA
:102880007101F999FECF1FBA84E090E092BD81BD3D
:1028900020BD0FB6F894FA9AF99A0FBE18C086E4D4
:1028A00091E0BE010E94E70885E090E0BE014EEE97
:1028B0005DE00E9422030BC0CD2B29F086E491E05D
:1028C0000E94BB0804C01092870110928601DF911C
:1028D000CF910895CF93DF93EC01662321F088E830
:1028E00091E00E948121FE0121966491662329F0E6
:1028F00088E891E00E940F21F6CFDF91CF910895F3
:10290000982F87FD02C0809394019F778FEF989F47
:10291000C001112464E670E00E94F22F85E00E945D
:1029200020250895AF92BF92CF92DF92EF92FF924F
:102930000F931F93DF93CF93CDB7DEB7CE54D04024
:102940000FB6F894DEBF0FBECDBFC82ECE010196E4
:1029500060E070E047E250E026EE3DE00E94EA02CF
:10296000CC2029F489819A818E50904F99F08E0164
:102970000F5F1F4FC80165EC71E047E250E00E9415
:10298000B80280E090E0B80147E250E02EEE3DE072
:102990000E9406036B817C8186E491E00E94C60858
:1029A0008D81809371016E817F8186E491E00E9428
:1029B000E708A2E7B1E0FE01389680E101900D92B0
:1029C0008150E1F7888D882331F086E491E060E062
:1029D00070E00E94D808898D0E9480148A8D9B8D9A
:1029E000AC8DBD8D80936E0290936F02A0937002A8
:1029F000B093710286E491E06E8D0E940E098F8D76
:102A00008093660188A18093650189A18093670105
:102A10008AA18093BA0286E491E06BA10E946B08C0
:102A200034E2E32EF12CEC0EFD1E00E08AE592E08C
:102A3000602FF70141917F010E94501D0F5F04300C
:102A4000A9F7CE0188966EE370E042E050E026EEF2
:102A50003DE00E94EA0288A599A58E50904F51F062
:102A60008EE390E06EE070EF4EEE5DE00E94220398
:102A7000CC24C39429E6A22E21E0B22E00E410E07B
:102A800090E3D92E88E2E82EF12CEC0EFD1ECC202E
:102A900089F0C7016CEE71E045E250E00E94B80297
:102AA000DEA6C801B70145E250E02EEE3DE00E94EF
:102AB000060308C0C701B80145E250E026EE3DE03C
:102AC0000E94EA02F501819191915F01B7010E9494
:102AD000580DD394F4E3DF1619F00B5D1F4FD7CFD9
:102AE000C25BDF4F0FB6F894DEBF0FBECDBFCF91F4
:102AF000DF911F910F91FF90EF90DF90CF90BF90EB
:102B0000AF9008951F93CF93DF9389E061E00E9417
:102B100080258AE592E060E042E00E94171D8AE588
:102B200092E00E94661D8BEA93E040E056E960E087
:102B300070E00E94DC268BEA93E06AE00E94CD27D9
:102B40000E94321190E890BF8FE380937E009093B3
:102B5000640087E061E00E94BF2587E061E00E9499
:102B6000802585E991E090936A01809369018BEB60
:102B700091E090936C0180936B0181EE91E09093D2
:102B80006E0180936D0187E092E0909370018093D5
:102B90006F0180E00E949214CDE7D1E010E088E858
:102BA00091E0612FAE010E94D7201F5F2896183058
:102BB000B1F70E940E118EEC92E065E00E94CF1DED
:102BC000DF91CF911F910895882381F08091B50204
:102BD0008F3FB1F41092B6021092B7021092B80271
:102BE0001092B90285E08093B50208958FEF80932B
:102BF000B50286E00E94A52A809194010E9480146B
:102C000008954F925F926F927F929F92AF92BF9280
:102C1000CF92DF92EF92FF920F931F93DF93CF93A8
:102C2000CDB7DEB761970FB6F894DEBF0FBECDBF4C
:102C3000D090D6028D2D8250853008F0DEC188E814
:102C400091E060E040E00E94FC2086E0D81699F414
:102C500081E00E94E4158091B40280FD03C08AE601
:102C600092E002C089E592E060E00E946A14D09090
:102C7000B402D6943AC180E00E94E415E091BA0211
:102C8000E43008F095C0F0E0EE0FFF1FEA5BFE4F66
:102C900003A0F4A1E02DE688F788008D118DC8010E
:102CA000B701A80197010E948E2F882309F080C0E8
:102CB000C801B70120E030E040E251E40E942B2F30
:102CC0000E94FF2D77FF07C0CC24DD24C61AD70A47
:102CD000EE24E39402C06B01EE24A0E1FA2EC114AD
:102CE000D10419F498E09F1584F5C6016AE070E0FC
:102CF0000E94F22F8C01000F111F080F191F000FE7
:102D0000111F05581D4FADEFFA0E88E891E06F2DA9
:102D100040E00E94FC2088E891E0B80143E00E9476
:102D2000B02088E891E06F2D41E00E94FC200D5F0B
:102D30001F4F88E891E0B80143E00E94B020C6012F
:102D40006AE070E00E94F22F6B01FA9488E891E04B
:102D50006F2D40E00E94FC2088E891E060E20E9434
:102D60000F2188E891E06F2D41E00E94FC20BCE03B
:102D7000FB1631F488E891E06EE20E940F21AFCF9C
:102D8000C114D10461F4E8E0EF154CF0EE2039F005
:102D900088E891E061E00E940F21EE2405C088E8F8
:102DA00091E060E20E940F21FF2009F098CF25C139
:102DB000E0916901F0916A0166897789808D918D32
:102DC0000E94FF2D8B0140914F01442309F003C164
:102DD000672B09F000C1CE01019667E172E041E185
:102DE00050E00E94B80271C08DB79EB70C970FB625
:102DF000F8949EBF0FBE8DBFEDB7FEB73196CE01E2
:102E00000196ADB7BEB712969C938E93119781E150
:102E100090E09383828387E492E095838483178391
:102E2000068380916401992787FD9095918780871B
:102E3000338722870E943F03EDB7FEB73C9640C020
:102E4000442319F42BE53DE502C02EE53EE58DB7A0
:102E50009EB740970FB6F8949EBF0FBE8DBFEDB7DB
:102E6000FEB73196CE010196ADB7BEB712969C93D0
:102E70008E93119781E190E09383828382E392E0C5
:102E8000958384831783068380916401992787FD46
:102E9000909591878087822F992787FD90959387BA
:102EA00082878091470184871586832F992787FD24
:102EB0009095978786870E943F03EDB7FEB770967F
:102EC0000FB6F894FEBF0FBEEDBF88E891E0BE01DB
:102ED0006F5F7F4F0E949A298091BA028F3F21F045
:102EE00081E073E0D72E02C0DA948D2DC82E99248C
:102EF00093945E010894A11CB11C68E2462E62E026
:102F0000562E5DEB652E52E0752E61C0F3E0FC1588
:102F100008F46AC0EC2CFF24EE0CFF1C86E491E060
:102F2000E80EF91ED7019396ED91FC9194972689AE
:102F30003789408D518DCA01B9010E948E2F882397
:102F400009F052C08C2D0E94C111EDB7FEB73A971F
:102F50000FB6F894FEBF0FBEEDBF0DB71EB70F5FE3
:102F60001F4FB282A18281E190E0D80113969C9319
:102F70008E93129715965C924E92149717967C92A8
:102F80006E921697D7019396ED91FC91949766896E
:102F90007789808D918D0E94FF2DF8017187608760
:102FA0000E943F038DB79EB70A960FB6F8949EBF56
:102FB0000FBE8DBF88E891E060E0492D0E94FC20A3
:102FC00088E891E0B5010E949A29C3949394DC1497
:102FD00008F09CCF12C02091860130918701211505
:102FE000310509F42DCF00CFC50160E270E041E169
:102FF00050E00E94D802198ADDCF61960FB6F8948E
:10300000DEBF0FBECDBFCF91DF911F910F91FF901B
:10301000EF90DF90CF90BF90AF909F907F906F9098
:103020005F904F9008950F931F93CF93DF930E946B
:1030300001168091B3028F5F8093B30290E08F718D
:103040009070892B21F48DE292E00E94F81E0E947C
:10305000B611C9E6D1E000E011E00DC01093B40252
:1030600001E01F5F8AE592E0612F0E94171D229602
:103070001F5F1930A9F0E881F98142A1812F8150A9
:10308000442319F08093B40201E08AE592E0612FB5
:103090000E94171DE881F98143A14423F9F6E1CF8D
:1030A000002331F00E9419108EEC92E066E007C018
:1030B0008091D602863029F48EEC92E062E00E9484
:1030C000CF1D8091B202882321F086E491E00E9416
:1030D00034098AE592E060E040E00E94171D40E07C
:1030E0008091860190918701892B09F041E08AE562
:1030F00092E06AE00E94171D40E080914701811133
:1031000041E08AE592E06BE00E94171D10914701B3
:1031100086E491E00E94630840E0181708F041E05F
:103120008AE592E06DE00E94171D8AE592E06CE06E
:1031300040914C010E94171D8DE292E06091470181
:103140000E94D51EDF91CF911F910F910895DF92BC
:10315000EF92FF920F931F93E2E7F2E001900020BD
:10316000E9F73197E257F2401E2F21C08BEA93E036
:103170000E9494278A3011F08D3059F4112391F078
:10318000809172028F3269F483E792E00E942912E3
:1031900008C0E12FF0E0EE58FD4F80831F5F103430
:1031A00008F010E0E12FF0E0EE58FD4F10828BEABE
:1031B00093E00E946327892BC9F68DE292E00E947A
:1031C000D81F882331F08AE592E069E042E00E944E
:1031D000171D8EEC92E00E94111E86E491E00E9481
:1031E000760B882311F00E9413188091B5028F3F4F
:1031F00009F44EC00E94AB247B018C018091B50282
:10320000682F70E0FB01E958FE4FE4918091B6020F
:103210009091B702A091B802B091B902A8019701AC
:10322000281B390B4A0B5B0B8AE0D82EED9DC001A1
:103230001124A0E0B0E082179307A407B50740F57A
:10324000E092B602F092B7020093B8021093B9026E
:10325000CB01019666E070E00E94F22F8093B502E8
:10326000E82FF0E080FD0FC0E958FE4F24912D9D1E
:103270009001112440E050E086E060EA7FE00E9487
:10328000182B80E803C08091940180680E9480140C
:103290008AE592E00E94661D1F910F91FF90EF90CA
:1032A000DF9008951F93182F0E948014F999FECF84
:1032B0001FBA88E190E092BD81BD10BD0FB6F894B1
:1032C000FA9AF99A0FBE1F9108950F931F93182F22
:1032D000062F813051F0813020F0863008F032C066
:1032E0001CC0862F0E9452192DC06093BA02F99912
:1032F000FECF1FBA81E290E092BD81BD00BD0FB646
:10330000F894FA9AF99A0FBE8091D60282508530CD
:1033100020F488E891E00E94812112508AE592E031
:10332000612F402F0E94501DF999FECF1FBA812FA7
:1033300090E0839692BD81BD00BD0FB6F894FA9AD5
:10334000F99A0FBE1F910F9108958038E1F488E833
:1033500091E00E94792188E891E06DED72E040E112
:1033600050E00E94632888E891E060E041E00E941C
:10337000FC2088E891E06EEE72E040E150E00E94AF
:10338000632881E008958091D7020895CF93DF9359
:10339000EB01843011F0883071F420E030E080914E
:1033A000BB029091BC02892B11F421E030E03093F4
:1033B000BC022093BB0288E891E060E041E00E94FB
:1033C000FC20209721F0CE0160E00E946A148091D9
:1033D000BB029091BC02892B19F488EA93E002C0E9
:1033E0008CEA93E060E00E946A14DF91CF91089527
:1033F000EF92FF920F931F93DF93CF93CDB7DEB77A
:1034000061970FB6F894DEBF0FBECDBF7801843050
:1034100039F48091BB029091BC02860F911D08C0C7
:10342000883051F48091BB029091BC02861B9109B7
:103430009093BC028093BB028091BB029091BC022E
:103440008417950724F45093BC024093BB028091EB
:10345000BB029091BC022817390724F43093BC02B8
:103460002093BB0288E891E060E041E00E94FC20EC
:103470008DB79EB70A970FB6F8949EBF0FBE8DBF4B
:10348000EDB7FEB731968E010F5F1F4FADB7BEB7D8
:1034900012961C930E93119781E190E0938382839F
:1034A000F582E4828091BB029091BC02978386836F
:1034B00080916401992787FD9095918780870E946C
:1034C0003F038DB79EB70A960FB6F8949EBF0FBE06
:1034D0008DBF88E891E0B8010E949A2961960FB6E5
:1034E000F894DEBF0FBECDBFCF91DF911F910F913A
:1034F000FF90EF9008950F931F93182F803861F479
:103500008EE693E061E00E946A14809194018093BA
:10351000BB021092BC0211C0803479F42091BB022E
:103520003091BC028091940190E02817390729F06E
:10353000822F0E9452190E94AC0F812F6AE040E056
:1035400050E024E630E008E613E00E94F81980918C
:10355000BB0280680E94801481E01F910F91089542
:103560000F931F93182F803861F489E893E061E08E
:103570000E946A14809165018093BB021092BC0284
:103580000FC0803469F42091BB023091BC0280915D
:10359000650190E02817390719F0822F0E94990FD2
:1035A000812F65E040E050E024E630E00DE713E0D5
:1035B0000E94F81981E01F910F9108951F93182F11
:1035C000803851F48AE993E061E00E946A14109215
:1035D000BC021092BB020BC0803449F48091BB0244
:1035E0009091BC02892B19F081E00E949214812FE6
:1035F00060E070E00E94C61981E01F9108950F936A
:103600001F93182F803871F48CEB93E061E00E94D7
:103610006A1480915201909153019093BC0280935F
:10362000BB0209C0803439F46091BB027091BC02C6
:1036300081E00E942F14812F6AE040E050E028EEE4
:1036400033E000EB13E00E94F81981E01F910F9125
:1036500008950F931F93182F803861F48BED93E03A
:1036600061E00E946A14809171018093BB02109204
:10367000BC0209C0803439F46091BB027091BC0275
:1036800080E00E942F14812F61E040E050E024E6AA
:1036900030E00BEC13E00E94F81981E01F910F91CC
:1036A00008950F931F93082F1091D6021D50803854
:1036B000F9F4812F0E94C11188E891E00E948121D4
:1036C00088E891E06DEB72E00E949A29E12FF0E02A
:1036D000EE0FFF1FEA5BFE4F03A0F4A1E02D8581F2
:1036E000992787FD90959093BC028093BB0209C0F7
:1036F000803439F46091BB027091BC02812F0E942A
:10370000F80F802F61E04CE95FEF24E630E00BEE2C
:1037100013E00E94F81981E01F910F9108951F9303
:10372000182F803861F489EF93E061E00E946A14F9
:1037300080914F018093BB021092BC0219C080346B
:10374000B9F420E08091BB029091BC02892B09F072
:1037500021E080914F01281759F0222319F080E0D1
:1037600090E004C080914D0190914E010E94FC11A7
:10377000812F60E070E00E94C61981E01F910895DA
:103780000F931F93182F803871F480E194E061E06B
:103790000E946A1480914D0190914E019093BC0259
:1037A0008093BB0210C0803471F42091BB02309131
:1037B000BC0280914D0190914E012817390719F0F4
:1037C000C9010E94FC11812F65E040E050E028EE25
:1037D00033E009E014E00E94F81981E01F910F9195
:1037E0000895803819F40E94011605C090E08F7189
:1037F0009070892B11F481E008950E94AD1182E050
:103800000895982F803809F040C08091D602853005
:1038100009F46BC086E491E00E948C08882309F0CB
:1038200064C085E00895E0916B01F0916C012689F8
:103830003789408D518DCA01B9010E948E2F88238E
:1038400009F45EC083E00895E0916D01F0916E018E
:1038500026893789408D518DCA01B9010E948E2F6A
:10386000882309F44DC084E00895E0916F01F09140
:10387000700126893789408D518DCA01B9010E9496
:103880008E2F8823E9F182E0089580914F018823EB
:10389000D1F0943011F465E007C0983011F46BEF6B
:1038A00003C0913001F56FEF772767FD7095809128
:1038B0004701680F711D86E491E00E94D8080E94BC
:1038C000011680E00895913071F460E070E080911D
:1038D000860190918701892B11F461E070E082E00C
:1038E0000E942F140DC081E008958091D60282308D
:1038F00009F499CF833009F4A7CF843009F4B5CF08
:103900000E94011681E008958EEC92E067EB72E070
:103910004FEF52E02FE83CE10E94C71D089580E080
:103920000E94FE249595879595958795982F8823D5
:10393000B1F08551873210F481E00895892F8D53BD
:10394000873210F488E00895892F8D58833110F460
:1039500084E00895915A973210F482E0089580E04F
:103960000895CF92DF92EF92FF920F931F93CF9320
:10397000DF936C018B01CB016CE270E00E94DF02EF
:10398000EC013FE0E32EF12CEC0CFD1CC70160E2E2
:1039900070E041E250E00E94D802209779F4D8010B
:1039A0000D900020E9F71197A01BB10BA132B105D2
:1039B00010F0A1E2B0E0C701B80121C09E01201BB8
:1039C000310B2131310510F020E130E0C701B801A1
:1039D000A9010E94CF02DE010D900020E9F7AC1B87
:1039E000BD0B1297A031B10510F0A0E1B0E0960137
:1039F000205E3F4FAE014F5F5F4FC901BA01AD017D
:103A00000E94CF02F6018085883129F0C60168E165
:103A10000E94CF1D03C080E80E94A519DF91CF91BD
:103A20001F910F91FF90EF90DF90CF900895CF926C
:103A3000DF92EF92FF920F931F93CF93DF937C015E
:103A4000042FEC0110E0C62EDD248881682F70E081
:103A5000CB018F7790708C159D05A9F409838A811D
:103A6000823089F0023079F0660F672F661F770B7E
:103A70006027681741F06A83D7015296ED91FC9157
:103A80005397812F09951F5F23961430F1F6DF912C
:103A9000CF911F910F91FF90EF90DF90CF900895FD
:103AA000DC01862F90E0FC01EE0FFF1FE80FF91FED
:103AB000EA0FFB1F40838281813039F45296ED91E9
:103AC000FC915397862F60E009950895EF92FF923D
:103AD0000F931F93DF93CF930F92CDB7DEB78C0177
:103AE000DC0151968C918823C9F10E94AB24F80126
:103AF0002485358546855785621B730B840B950B92
:103B0000645F71408040904048F539C0D8015096BC
:103B10008C9180FF07C0F70181818230B9F48283E4
:103B2000118208C0D70112968C911297823071F4DD
:103B300012961C92D8015296ED91FC915397892FC1
:103B4000D70112966C919983099599819F5FE3E063
:103B5000F0E0EE0EFF1E9430C9F611C081E0D801EE
:103B600051968C930E94AB24F801648775878687F1
:103B7000978780898F5F808B780190E0C7CF0F9007
:103B8000CF91DF911F910F91FF90EF900895FC016D
:103B900071836083538342833783268308951F9301
:103BA000CF93DF93EC01162F888589872BC08C81FA
:103BB0009D81009751F0FC0131962591349121159A
:103BC000310519F080E4F9010995188788819981F8
:103BD0009D838C8306C08885981741F03496FD83B9
:103BE000EC83EC81FD8194919923A9F7309779F0CA
:103BF0003196259134912115310521F080E8F901A4
:103C00000995182F123018F08885181781F60E9430
:103C1000AB246B877C878D879E87DF91CF911F9127
:103C20000895DF92EF92FF920F931F93CF93DF934C
:103C3000EC01EE81FF810995D82E0E94AB247B0117
:103C40008C018B859C85AD85BE85E81AF90A0A0B27
:103C50001B0BDD20D9F4EC81FD813097B9F0339650
:103C6000649170E080E090E028EE33E040E050E0C6
:103C70000E94C72F611571058105910539F06E15F8
:103C80007F058007910710F480E2D82E8AEFE816AE
:103C9000F1040105110508F439C080E2D81621F0BD
:103CA000DA86DD2009F432C00E94AB246B877C8762
:103CB0008D879E878C819D81009769F0FC013196EC
:103CC000259134912115310531F08D2DF90109959A
:103CD000682F8130C1F4EA81FB812D2D30E00FC0C7
:103CE000961761F431968491319790E08223932363
:103CF0008217930719F43296649105C03396949114
:103D00006885992369F7CE010E94CF1DDF91CF917D
:103D10001F910F91FF90EF90DF900895DF92EF9247
:103D2000FF920F931F93CF93DF937C01EC0100E090
:103D300010E0DD24DA948A858F3F49F10E94AB249C
:103D40002B853C854D855E85621B730B840B950B23
:103D500061527F4B82409040D0F0D7011596ED9193
:103D6000FC911697309769F0C80123E0880F991FDE
:103D70002A95E1F7800F911F08968E0D9F1D64E034
:103D800009958A858F3F19F0DA86198618860F5FA4
:103D90001F4F29960430110571F6DF91CF911F91C5
:103DA0000F91FF90EF90DF900895DF93CF9300D0B5
:103DB00000D0CDB7DEB7FC018081882391F084A5C7
:103DC0008F5F84A7853068F014A68FE9898380EC23
:103DD0008A836B838FE78C83CE01019664E00E9417
:103DE00049230F900F900F900F90CF91DF9108957E
:103DF0000F931F93CF93DF938C01FC018081882365
:103E000009F45EC0C1E2D4E0FE01219684918823CA
:103E100019F00E941809F8CF8EEF92E0F80167813F
:103E20004AE050E00E943529E80110E08A858F3F82
:103E3000F1F08CE20E9418098EEF92E06A854AE068
:103E400050E00E9435298CE20E9418098EEF92E022
:103E50006F854AE050E00E9435298CE20E941809E3
:103E60008EEF92E068894AE050E00E9435291F5F9A
:103E700029961430D9F68BEA93E06AE20E94CD27A6
:103E80006091030362956F706A3010F4605D01C049
:103E9000695C8BEA93E00E94CD27609103036F7009
:103EA0006A3010F4605D01C0695C8BEA93E00E94A7
:103EB000CD278BEA93E06AE00E94CD27109202039F
:103EC000DF91CF911F910F910895CF93DF93EC0174
:103ED0008881882329F4862F0E947C2381E08883AF
:103EE000DF91CF9108950F931F93CF93DF938C01B0
:103EF000EB010E94AB24F80163837483858396836E
:103F0000898185FF02C092E001C090E08B8187FD2E
:103F100091608F778F3709F09460F80197830E9442
:103F20004523F801808787812A8182FF2FC02A3AA2
:103F300011F480E038C030E0B9016F7070706059E2
:103F40007140898190E08F70907044E650E0FC01F0
:103F5000E49FC001E59F900DF49F900D1124680F20
:103F6000791FE4E035952795EA95E1F7C90153E01B
:103F7000880F991F5A95E1F7220F331F820F931F65
:103F8000680F791FF801718360830CC0898190E00C
:103F90008F709070982F882730E0822B932BF80138
:103FA0009183808381E0DF91CF911F910F910895DC
:103FB000FF920F931F93CF93DF938C01DC018C91C1
:103FC000882311F4FF247FC0FF2475C00E94AB2416
:103FD000F8016183728383839483809104039781C2
:103FE000882309F061C09F3F11F09F5F9783809104
:103FF000050390E08F709070880F991F880F991FAC
:10400000409106034295469546954370482BD8014A
:10401000F80190E08285841729F09F5F39969430EB
:10402000C9F703C09F3F79F444C090E01A968C9181
:104030001A978F3F19F483E0F82E07C09F5F1996F7
:104040009430A1F736C0B2E0FB2E292F30E0F90101
:10405000A3E0EE0FFF1FAA95E1F7E20FF31FE00FB9
:10406000F11F8285841719F0428711861086E901B5
:10407000F3E0CC0FDD1FFA95E1F7C20FD31F2896AE
:10408000C00FD11FCE0165E073E00E94731F88232B
:1040900081F0D8011596ED91FC911697309749F073
:1040A000CE016F2D099505C0992319F09150F801A3
:1040B0009783FF24F3940E940B23882309F086CF73
:1040C000C8010E948E1E8F2DDF91CF911F910F91FD
:1040D000FF900895109201031092000384E191E093
:1040E0009093FF028093FE0208951F93CF93DF9376
:1040F000EC01162F8C81882341F481E08C831D8292
:104100008BEA93E064E20E94CD278D8181278D8325
:104110008BEA93E0612F0E94CD27DF91CF911F9111
:104120000895DC016230D8F481E090E002C0880F8D
:10413000991F6A95E2F714962C911497442311F075
:10414000282B02C08095282314962C931497ED9168
:10415000FC9111970084F185E02DCD01099508951A
:10416000EF92FF921F93CF93DF937C01EB01142F0B
:104170000DC0FE0121964491F701A081B1812D91DE
:104180003C91C701642FF90109951150112389F75A
:10419000DF91CF911F91FF90EF900895DC01ED9199
:1041A000FC910480F581E02D40E009950895EF929F
:1041B000FF920F931F938C017A016770660F660F51
:1041C000660F60640E94CE20C801B70148E00E94DB
:1041D000B020C80160E80E94CE201F910F91FF908F
:1041E000EF900895FC016681862F846086836C6061
:1041F000CF010E94CE200895DC0118968C9118976B
:10420000841710F4482F4150E42FF0E0EA5DFE4F90
:104210008081680F6068CD010E94CE200895DC0186
:10422000ED91FC910480F581E02D41E0099581E05C
:1042300090E008951F93CF93DF93EC011FB7F8949C
:104240006EBD0DB407FEFDCFEA85FB8580819985A3
:10425000892B808381E090E00E94B924EA85FB8568
:10426000908189858095892380831FBFDF91CF91BD
:104270001F910895FC0164810E941A210895EF9214
:10428000FF921F937C01162F1860612F0E941A2144
:10429000177FC701612F0E941A211F91FF90EF9095
:1042A0000895607F0E943F2188E290E00E94B92437
:1042B00008950F931F93CF93DF93EC01062F4111C5
:1042C00044E01C81142B602F607F612BCE010E9483
:1042D0003F210295007F102BCE01612F0E943F21CC
:1042E00088E290E00E94B924DF91CF911F910F9155
:1042F000089562E00E94CE2080ED97E00E94B924EC
:10430000089561E00E94CE2080ED97E00E94B924DC
:104310000895CF93DF93EC01623018F088E088872E
:1043200001C0188688858D83411184608D8380E06B
:1043300090E40E94B92480E090E40E94B92480E0D7
:1043400090E40E94B924E881F9810680F781E02D8C
:10435000CE0160E3099584E991E10E94B924E881E6
:10436000F9810680F781E02DCE0160E3099586E9A9
:1043700090E00E94B924E881F9810680F781E02D60
:10438000CE0160E30995E881F9810680F781E02D8F
:10439000CE0160E209956D816062CE010E94CE205F
:1043A00084E08E83CE010E94F220CE010E94812102
:1043B00082E08F83CE0166E00E94CE20DF91CF9114
:1043C0000895EF92FF920F931F938C01F62EE42E27
:1043D000DC0113961C921E9212978CE191E08D9352
:1043E0009C938BE061E00E9480258DE061E00E945B
:1043F00080258AE061E00E9480258AE061E00E94D9
:10440000BF2581E58CBD8F2D90E0FC01E15AFB4F6B
:10441000E491D8011996EC931997855B9B4FFC01A9
:104420008491E82FF0E0EE0FFF1FE95CFB4F8591D0
:1044300094911B969C938E931A978F2D61E00E9406
:104440008025C80160E00E941A21C8016E2D40E05D
:104450000E9489211F910F91FF90EF900895282FBE
:104460008CB581608CBD2A989EBD0DB407FEFDCF32
:104470008EB52EBD0DB407FEFDCF4EB5382F20E012
:104480002A9A8CB58E7F8CBD50E0422B532BCA01EB
:1044900008950F931F9380E090E00E942F22192F20
:1044A0009093130380911403843009F067C080E077
:1044B00090EB0E942F22082F8091150363E00E9449
:1044C000E62F9923A9F4812F90E081709070E091FC
:1044D0001203F0E0EE0FFF1FE80FF91FE65DFE4F3D
:1044E00080818093120390E0806A94690E942F2259
:1044F000809115038823F1F4802F90E034E09595A6
:1045000087953A95E1F702969595879580930F03E5
:1045100080910F03823020F080910F038B3018F0D0
:1045200082E080930F03E0911003F0911103309724
:1045300009F0099580911503E82FF0E0EB5FFC4F3F
:1045400000838F5F8093150380910403802790E0A0
:1045500021E387FF03C0880F822701C0880F9F5F78
:104560009830B9F7809304039091150380910F035D
:10457000981709F04DC08DE092E848C0809114036F
:1045800087FF1EC080910F03E0911403EF5FE0935B
:104590001403E150E80FF0E0EB5FFC4F80812091C5
:1045A0000403282790E031E327FF03C0220F2327CD
:1045B00001C0220F9F5F9830B9F72093040323C0F6
:1045C000809114038F5F8093140381508230B1F087
:1045D00083301CF4882379F015C0853019F08630BB
:1045E00089F402C08DE20FC080910F038195809302
:1045F000140384ED08C08091040305C08DE092E8A7
:104600000E942F228AEA90E0805098440E942F2234
:104610001F910F91089580911403843021F590919A
:104620000F03809115039817F1F483E0809314032E
:1046300081E0089510921503109204038FEF809388
:104640000F0384E080931403F89483E080931203B3
:1046500083EA94E90E942F228DED92E80E942F2296
:10466000789480E0089580911403833019F380E0FA
:104670000895F8941092040385E0809314038DE369
:1046800092E80E942F2278940895809112038695D3
:104690000895582F792F462F60930F0325E033E0BC
:1046A000C901652F50E00E94CF020E94392308956E
:1046B0002A9A229A8AE061E00E94BF258AE061E09E
:1046C0000E9480258BE061E00E9480258CE060E004
:1046D0000E9480258DE061E00E94802580E58CBDF0
:1046E0008DB581608DBD82E060E00E94802582E012
:1046F00061E00E94BF2508951F93182F0E94582340
:1047000080E090E00E942F2285E092E80E942F2214
:1047100080E098EB02C080E090E00E942F2282E0CF
:104720000E941326892BB9F3812F90E054E0880F63
:10473000991F5A95E1F7876C90680E942F221230DA
:1047400019F0133039F403C08CE796EA05C080ED08
:1047500097EA02C080E496EA0E942F2283E196EC59
:104760000E942F2282EA94E90E942F228CEA92EC86
:104770000E942F2283E89AEC0E942F2284ED9EEC67
:104780000E942F2283E894EC0E942F2280E598E972
:104790000E942F2287E79CEC0E942F2280E090EE5F
:1047A0000E942F2280E098EC0E942F2289E490EC56
:1047B0000E942F2283E08093140380E069E472E278
:1047C00040E050E00E94E6231F910895823000F5FA
:1047D000E82FF0E0EE0FFF1FEA5EFC4F718360836D
:1047E000882319F08130A1F408C0809169008C7F82
:1047F000842B80936900E89A089580916900440FA2
:10480000551F440F551F837F842B80936900E99ABD
:1048100008951F920F920FB60F9211242F933F937A
:104820004F935F936F937F938F939F93AF93BF93B8
:10483000EF93FF938091160390911703892B29F032
:10484000E0911603F09117030995FF91EF91BF9145
:10485000AF919F918F917F916F915F914F913F9118
:104860002F910F900FBE0F901F9018951F920F92CF
:104870000FB60F9211242F933F934F935F936F9333
:104880007F938F939F93AF93BF93EF93FF93809109
:10489000180390911903892B29F0E0911803F091E6
:1048A00019030995FF91EF91BF91AF919F918F915E
:1048B0007F916F915F914F913F912F910F900FBE1C
:1048C0000F901F9018951F920F920FB60F92112400
:1048D0002F933F938F939F93AF93BF9380911E032A
:1048E00090911F03A0912003B091210330912203E6
:1048F0000196A11DB11D232F2D5F2D3720F02D57BF
:104900000196A11DB11D2093220380931E03909355
:104910001F03A0932003B093210380911A03909169
:104920001B03A0911C03B0911D030196A11DB11D95
:1049300080931A0390931B03A0931C03B0931D0351
:10494000BF91AF919F918F913F912F910F900FBE8B
:104950000F901F9018958FB7F89420911E033091F7
:104960001F0340912003509121038FBFB901CA0159
:104970000895019739F0880F991F880F991F0297A2
:104980000197F1F70895789484B5826084BD84B569
:10499000816084BD85B5826085BD85B5816085BD3A
:1049A000EEE6F0E0808181608083E1E8F0E0108253
:1049B000808182608083808181608083E0E8F0E094
:1049C000808181608083E1EBF0E08081846080837E
:1049D000E0EBF0E0808181608083EAE7F0E08081B5
:1049E0008460808380818260808380818160808315
:1049F0008081806880831092C1000895982F8E3046
:104A000008F09E50977080910E018295880F880F54
:104A1000807C892B80937C0080917A0080648093D5
:104A20007A0080917A0086FDFCCF20917800409139
:104A30007900942F80E030E0282B392BC9010895AC
:104A40001F93CF93DF93182FEB0161E00E94802525
:104A5000209709F44AC0CF3FD10509F449C0E12F9E
:104A6000F0E0ED58FB4F84918330C1F0843028F49E
:104A7000813051F08230B1F50CC0863019F18730A9
:104A800049F1843079F514C084B5806884BDC7BD10
:104A900033C084B5806284BDC8BD2EC080918000C3
:104AA000806880938000D0938900C093880024C0E0
:104AB00080918000806280938000D0938B00C093AF
:104AC0008A001AC08091B00080688093B000C093C3
:104AD000B30012C08091B00080628093B000C09398
:104AE000B4000AC0C038D1051CF4812F60E002C0B8
:104AF000812F61E00E94BF25DF91CF911F91089522
:104B0000CF93DF93482F50E0CA01815A9B4FFC019D
:104B10003491455B5B4FFA018491882369F190E001
:104B2000880F991FFC01E35DFB4FA591B491FC0137
:104B3000E95CFB4FC591D491662351F42FB7F894EB
:104B40008C91932F909589238C93888189230BC016
:104B5000623061F42FB7F8948C91932F909589234C
:104B60008C938881832B88832FBF06C09FB7F894CE
:104B70008C91832B8C939FBFDF91CF910895482F09
:104B800050E0CA018D589B4FFC012491CA01815A03
:104B90009B4FFC019491455B5B4FFA0134913323A9
:104BA00009F440C0222351F1233071F0243028F45D
:104BB0002130A1F0223011F514C02630B1F0273099
:104BC000C1F02430D9F404C0809180008F7703C0F5
:104BD000809180008F7D8093800010C084B58F7796
:104BE00002C084B58F7D84BD09C08091B0008F77ED
:104BF00003C08091B0008F7D8093B000E32FF0E080
:104C0000EE0FFF1FE95CFB4FA591B4912FB7F8940D
:104C1000662321F48C919095892302C08C91892B75
:104C20008C932FBF0895682F70E0CB018D589B4F58
:104C3000FC012491CB01815A9B4FFC014491655B9F
:104C40007B4FFB019491992319F420E030E03CC0A4
:104C5000222351F1233071F0243028F42130A1F0C7
:104C6000223011F514C02630B1F02730C1F02430C5
:104C7000D9F404C0809180008F7703C080918000B8
:104C80008F7D8093800010C084B58F7702C084B57B
:104C90008F7D84BD09C08091B0008F7703C0809163
:104CA000B0008F7D8093B000892F90E0880F991F0E
:104CB0008F5B9B4FFC01A591B4918C9120E030E07B
:104CC000842311F021E030E0C90108951F920F9272
:104CD0000FB60F9211242F933F934F938F939F936F
:104CE000EF93FF938091C00082FD1DC04091C600EC
:104CF00020916303309164032F5F3F4F2F73307017
:104D000080916503909166032817390771F0E0914F
:104D10006303F0916403ED5DFC4F408330936403C3
:104D20002093630302C08091C600FF91EF919F9191
:104D30008F914F913F912F910F900FBE0F901F9029
:104D400018951F920F920FB60F9211242F933F9335
:104D50008F939F93EF93FF932091A7033091A80324
:104D60008091A9039091AA032817390731F4809103
:104D7000C1008F7D8093C10014C0E091A903F09120
:104D8000AA03E959FC4F20818091A9039091AA03BD
:104D900001968F7390709093AA038093A903209338
:104DA000C600FF91EF919F918F913F912F910F90AE
:104DB0000FBE0F901F901895AF92BF92DF92EF92A7
:104DC000FF920F931F93CF93DF93EC017A018B0136
:104DD000DD24403081EE580780E0680780E07807E6
:104DE00011F0DD24D39491E0A92EB12CEC89FD893A
:104DF000DD2069F0C50108A002C0880F991F0A9440
:104E0000E2F7808360E079E08DE390E005C01082F6
:104E100060E874E88EE190E0A80197010E941930E3
:104E20002150304040405040569547953795279542
:104E300080E12030380720F0DD2011F0DD24D6CFCE
:104E4000E889F9893083EA89FB89208319A2EE89F0
:104E5000FF89408121E030E0C9010C8C02C0880F3D
:104E6000991F0A94E2F7482B4083EE89FF8940811D
:104E7000C9010D8C02C0880F991F0A94E2F7482BD4
:104E80004083EE89FF894081C9010E8C02C0880FE2
:104E9000991F0A94E2F7482B4083EE89FF898081AD
:104EA0000F8C02C0220F331F0A94E2F720952823AB
:104EB0002083DF91CF911F910F91FF90EF90DF90B2
:104EC000BF90AF900895DC011C96ED91FC911D9769
:104ED000E05CFF4F2191319180819181281B390B3A
:104EE0002F733070C9010895DC011C96ED91FC917F
:104EF0001D97E05CFF4F20813181E054F040DF01DD
:104F0000AE5BBF4F8D919C9111972817390719F40B
:104F10002FEF3FEF07C08D919C91E80FF91F808123
:104F2000282F30E0C9010895DC011C96ED91FC9119
:104F30001D97E05CFF4F20813181E054F040DF019C
:104F4000AE5BBF4F8D919C9111972817390719F4CB
:104F50002FEF3FEF10C08D919C911197E80FF91F33
:104F600020818D919C91119701968F73907011966D
:104F70009C938E9330E0C9010895DC0191968C9149
:104F80009197882339F05496ED91FC915597808143
:104F900086FFF9CF91961C920895CF93DF93EC0191
:104FA000EE85FF85E05CFF4F20813181E054F040C9
:104FB0002F5F3F4F2F733070DF01AE5BBF4F8D917E
:104FC0009C91119728173907D1F3E05CFF4F80813E
:104FD0009181E054F040E80FF91F6083EE85FF8572
:104FE000E05CFF4F31832083EE89FF89208181E0DF
:104FF00090E00F8C02C0880F991F0A94E2F7282BCB
:10500000208381E089A3EC89FD898081806480838D
:1050100081E090E0DF91CF9108951092AE0310925D
:10502000AD0388EE93E0A0E0B0E08093AF039093EF
:10503000B003A093B103B093B2038AE391E09093DD
:10504000AC038093AB0383E293E09093B803809327
:10505000B70387E693E09093BA038093B90385EC96
:1050600090E09093BC038093BB0384EC90E090931A
:10507000BE038093BD0380EC90E09093C0038093C7
:10508000BF0381EC90E09093C2038093C10382EC54
:1050900090E09093C4038093C30386EC90E09093D8
:1050A000C6038093C50384E08093C70383E08093A5
:1050B000C80387E08093C90385E08093CA0381E039
:1050C0008093CB030895CF92DF92EF92FF920F93DC
:1050D0001F93CF93DF937C016B018A01C0E0D0E086
:1050E0000FC0D6016D916D01D701ED91FC9101903A
:1050F000F081E02DC7010995C80FD91F015010405C
:105100000115110571F7CE01DF91CF911F910F911C
:10511000FF90EF90DF90CF900895DC01ED91FC912E
:105120000190F081E02D09950895CF93DF93EC0174
:105130006115710519F420E030E00FC0DB010D901E
:105140000020E9F71197A61BB70BE881F9810280CF
:10515000F381E02DAD0109959C01C901DF91CF914B
:1051600008954F925F927F928F929F92AF92BF92DB
:10517000CF92DF92EF92FF920F931F93DF93CF9323
:10518000CDB7DEB7A1970FB6F894DEBF0FBECDBF87
:105190002C01742ECB01223008F42AE019A231E24E
:1051A000C32ED12CCC0EDD1E822E9924AA24BB2422
:1051B000672D752FA50194010E94193079018A018C
:1051C000C801B701A50194010E94C72F472D461BB6
:1051D0000894C108D1084A3014F4405D01C0495C0C
:1051E000F6014083E114F1040105110521F07E2C44
:1051F0005F2DC801DDCFC201B6010E949528A1969E
:105200000FB6F894DEBF0FBECDBFCF91DF911F91D7
:105210000F91FF90EF90DF90CF90BF90AF909F9055
:105220008F907F905F904F900895DC01211531059C
:1052300041F4ED91FC910190F081E02D642F0995EE
:1052400008950E94B1280895EF92FF920F931F9343
:105250009A017B0100E010E0B801A7010E94152926
:105260001F910F91FF90EF900895EF92FF920F938F
:105270001F939A01E62EFF2400E010E0B801A70179
:105280000E9415291F910F91FF90EF900895CF92E2
:10529000DF92EF92FF920F931F93CF93DF93EC0176
:1052A0006A017B012115310541F4E881F981019002
:1052B000F081E02D642F09951FC02A303105D1F40B
:1052C00077FF17C0E881F9810190F081E02D6DE250
:1052D00009958C0144275527BA014C195D096E09BF
:1052E0007F09CE012AE00E94B1289801280F391FBA
:1052F00004C02AE00E94B1289C01C901DF91CF912E
:105300001F910F91FF90EF90DF90CF900895EF9253
:10531000FF920F931F937B019A010027F7FC0095E2
:10532000102FB801A7010E9447291F910F91FF90EC
:10533000EF9008950E94952808957F928F929F92F2
:10534000AF92BF92CF92DF92EF92FF920F931F9393
:10535000CF93DF934C017A018B01722ECB01BA01FE
:10536000A80197010E948E2F882321F0C40160E0DC
:1053700071E021C0C0E0D0E057016801E894D7F89F
:10538000C601B5012FEF3FEF4FE75FE70E948E2F79
:10539000882351F4C601B5012FEF3FEF4FE75FE7D8
:1053A0000E94932D181614F0C1E0D0E0219739F037
:1053B000C40164E071E00E949528EC0193C0C8012B
:1053C000B7012FEF3FEF4FE75FE40E94E22E181680
:1053D00054F0C801B7012FEF3FEF4FE75FEC0E9499
:1053E000932D882324F4C40168E071E0E4CFC80160
:1053F000B70120E030E040E050E00E94932D87FDAF
:1054000003C0C0E0D0E00EC0D401ED91FC9101904A
:10541000F081E02DC4016DE20995EC0117FB1095B8
:1054200017F9109520E030E040E05FE3DD240BC089
:10543000CA01B90120E030E040E251E40E94972D1A
:105440009B01AC01D394D71498F3C801B7010E9413
:105450002F2D5B016C010E94042E7B018C01C40185
:10546000B801A7012AE030E00E941529C80FD91F12
:10547000772039F0C4016CE071E00E949528C80FD4
:10548000D91FC801B7010E94302E9B01AC01C60193
:10549000B5010E942E2D24C020E030E040E251E40E
:1054A0000E942B2F7B018C010E94FF2D5B016C0160
:1054B000CC24B7FCC094DC2CC401B601A5012AE0C1
:1054C00030E00E944729C80FD91FC601B5010E94CC
:1054D000322E9B01AC01C801B7010E942E2D7A9497
:1054E0007720D1F6CE01DF91CF911F910F91FF90E0
:1054F000EF90DF90CF90BF90AF909F908F907F9074
:1055000008950E949D290895813041F0813018F05E
:105510008230D1F409C010926E00089580916F001E
:105520008D7F80936F000895809170008D7F8093B0
:10553000700081E08093B0008091B100887F84602A
:105540008093B1001092B30008951F93182F80919B
:105550000F01811711F09FEF06C0E7E8F4E0949186
:105560008FEF80930F01892F0E94842A812F60E0A2
:105570000E94BF251F9108951F920F920FB60F92A0
:1055800011242F933F934F935F936F937F938F9348
:105590009F93AF93BF93EF93FF938091DB03909121
:1055A000DC03A091DD03B091DE030097A105B105F6
:1055B00051F1E091DF03F091E00380819091E103EC
:1055C000892780838091DB039091DC03A091DD0328
:1055D000B091DE03181619061A061B06C4F4809152
:1055E000DB039091DC03A091DD03B091DE03019712
:1055F000A109B1098093DB039093DC03A093DD0341
:10560000B093DE0304C080910F010E94A52AFF9190
:10561000EF91BF91AF919F918F917F916F915F912A
:105620004F913F912F910F900FBE0F901F901895A3
:105630002F923F925F926F927F928F929F92AF9242
:10564000BF92CF92DF92EF92FF920F931F93DF935F
:10565000CF9300D000D0CDB7DEB7A82F1B01298390
:105660003A834B835C8380910F018A1721F4E7E82A
:10567000F4E0549082C08F3F09F0DAC1A0930F018B
:10568000E7E8F4E054902FEF521609F4D1C181E01D
:10569000581639F192E0591609F449C0552009F01D
:1056A0006CC014BC15BC84B5826084BD85B58160B6
:1056B00085BD2A2F30E0F901E55BFB4FE491F0E076
:1056C000EE0FFF1FE95CFB4F859194919093D203FD
:1056D0008093D103215A3B4FF90184918093D303E6
:1056E0004EC01092800010928100809181008860ED
:1056F00080938100809181008160809381002A2FB6
:1057000030E0F901E55BFB4FE491F0E0EE0FFF1FA5
:10571000E95CFB4F859194919093D9038093D803D2
:10572000215A3B4FF90184918093DA0328C01092EB
:10573000B0001092B1008091B00082608093B00000
:105740008091B10081608093B1002A2F30E0F9018F
:10575000E55BFB4FE491F0E0EE0FFF1FE95CFB4FD0
:10576000859194919093E0038093DF03215A3B4FFE
:10577000F90184918093E10302C057FC59C18A2F3B
:1057800061E00E948025552021F0F2E05F1609F0CB
:10579000BEC031018824992460E072E18AE790E07C
:1057A000A40193010E943B3059016A0186017501F1
:1057B0000894E108F108010911092FEFE216F1043C
:1057C0000105110509F008F499C060E472E48FE066
:1057D00090E0A40193010E943B3079018A01089472
:1057E000E108F1080109110982E05816C1F49FEFA0
:1057F000E916F1040105110509F008F484C060E917
:1058000070ED83E090E0A40193010E943B307901A8
:105810008A010894E108F1080109110983E0AFEF5A
:10582000EA16F1040105110509F008F468C068E4FE
:1058300078EE81E090E0A40193010E943B30790171
:105840008A010894E108F10801091109552011F4B1
:1058500083E01DC0B2E05B1611F084E018C0EFEFEA
:10586000EE16F1040105110509F008F4DFC064E249
:1058700074EF80E090E0A40193010E943B30790135
:105880008A010894E108F1080109110985E0FFEF98
:10589000EF16F1040105110591F188F162E17AE753
:1058A00080E090E0A40193010E943B3079018A01DD
:1058B0000894E108F10801091109552011F086E06A
:1058C00001C084E02FEFE216F10401051105B9F0E3
:1058D000B0F0C601B50120E034E040E050E00E94A5
:1058E0003B3079018A010894E108F10801091109A6
:1058F000552011F087E008C085E003C081E0552005
:1059000019F485BD3AC082E08093B10036C05101E0
:10591000CC24DD2460E072E18AE790E0A6019501E5
:105920000E943B3079018A010894E108F1080109DD
:10593000110980E0E81680E0F80681E0080780E0C1
:10594000180710F491E010C068E478EE81E090E070
:10595000A60195010E943B3079018A010894E10873
:10596000F1080109110993E0A1E05A1631F4809180
:105970008100887F982B9093810089819A81AB81E7
:10598000BC810097A105B10529F48FEF9FEFAFEF20
:10599000BFEF13C0220C331CB10180E090E02981DD
:1059A0003A814B815C810E94C72F28EE33E040E0B2
:1059B00050E00E941930C901DA01E1E05E16A1F061
:1059C000F2E05F1619F1552099F5E7BC8093CD03FD
:1059D0009093CE03A093CF03B093D00380916E0039
:1059E000826080936E0024C0F0928900E09288006B
:1059F0008093D4039093D503A093D603B093D70399
:105A000080916F00826080936F0012C0E092B300BB
:105A10008093DB039093DC03A093DD03B093DE035C
:105A20008091700082608093700002C084E06CCF2F
:105A30000F900F900F900F90CF91DF911F910F91CA
:105A4000FF90EF90DF90CF90BF90AF909F908F909E
:105A50007F906F905F903F902F9008955058BB2794
:105A6000AA270ED075C166D130F06BD120F031F489
:105A70009F3F11F41EF45BC10EF4E095E7FB51C1AA
:105A8000E92F77D180F3BA17620773078407950768
:105A900018F071F49EF58FC10EF4E0950B2EBA2F1D
:105AA000A02D0B01B90190010C01CA01A001112424
:105AB000FF27591B99F0593F50F4503E68F11A16D0
:105AC000F040A22F232F342F4427585FF3CF469561
:105AD00037952795A795F0405395C9F77EF41F1683
