:100000000C9464020C94F3220C9420230C9492021E
:100010000C9492020C9492020C9492020C94FF297C
:100020000C9492020C9492020C9492020C94920200
:100030000C94B00D0C94830D0C9492020C949202CB
:100040000C944D230C9492020C94A9250C94E42555
:100050000C9492020C9492020C9492020C949202D0
:100060000C9492020C94920208000000BE92244963
:10007000123EABAAAA2ABECDCCCC4C3E00000080DA
:10008000BEABAAAAAA3E00000000BF000000803F4D
:100090000000000000084178D3BB4387D1133D190D
:1000A0000E3CC3BD4282AD2B3E68EC8276BED98F3A
:1000B000E1A93E4C80EFFFBE01C4FF7F3F0000007E
:1000C0000000484D50532C007265626F6F740063DE
:1000D0006F6E666967007365743F74703D00736589
:1000E000743F74743D007365743F666E3D007365C4
:1000F000743F616C3D007365743F70630073657499
:100100003F706E007365743F706964007365743F7F
:10011000706F3D007365743F6C643D007365743FA0
:100120006C623D007365743F73703D00484D4C44F4
:100130002C00484D504F00484D504400484D524D02
:1001400000484D50432C00484D414C00484D464E10
:100150002C00554349442C4865617465724D6574A3
:1001600065722C323031333034313900484D504EC5
:1001700000484D53552C000A050A050A32070F1F87
:100180001F1F1F1F1F1F1F1F00000000001C1E1F1E
:100190001F1F1F1F1F1F1F1F1F1F1F0F07000000F4
:1001A00000001F1F1F1F1F1F1F1F1F1E1C1F1F1FA1
:1001B0000000001F1F1F000000001F1F1F484D4CA4
:1001C000472C302C000EF0E10006F00000008040CB
:1001D000000040400AD7A33B0000A04000327F7FD0
:1001E0007F7F460A6400FF0050726F626520200026
:1001F00000000000000100D8FF38FF00002CE17172
:1002000039117A7839B6AE073400401C46484D4C57
:10021000422C002D204E6F205069742050726F6266
:1002200065202D00252D313273253364DF005069A0
:10023000743A253364DF256320256325337525252E
:100240002563005069743A253364DF2563204C69C7
:1002500064253375002A2A20414C41524D204849DB
:100260004748202A2A002A2A20414C41524D204C3E
:100270004F5720202A2A0000010203040501022012
:1002800020052006060203070706060207070503E6
:100290000402202005FF06060707050006060307DF
:1002A00005010102200020000602030705000602E6
:1002B00020200502981B0503981B0504981B0505C3
:1002C000981B0106881B0009571B0A13261B0A0DE1
:1002D000E81A0A0EE81A0A0FE81A0A10E81A0A11B0
:1002E000C01A0A12961A0A14751A0A16471A0A151B
:1002F000121A0A2C3C191400000000022803020202
:100300000902040403280403020903040204280266
:10031000040209040403052802050209050404096E
:1003200021020902131321021302151521021502DD
:100330001616210216020D0D21020D020E0E2102CB
:100340000E020F0F21020F021010210210021111D4
:1003500021021102121221021202141421021402AB
:10036000090000002533642525004C4344206272B7
:10037000696768746E6573730073706565642025C2
:1003800033642525004D6178696D756D2061757444
:100390006F2066616E00526573657420636F6E66D0
:1003A00069673F004E6F2000596573002533642054
:1003B0007365636F6E6473004C6964206F70656E63
:1003C0002074696D65720025336425252062656C93
:1003D0006F7720736574004C6964206F70656E20C0
:1003E0006F6666736574004F6666736574202534A6
:1003F00064DF2563004D616E75616C2066616E205F
:100400006D6F646500253364DF25630053657420D8
:1004100074656D70657261747572653A00484D520D
:10042000462C3235352C302C0000000000240027EB
:10043000002A0000000000250028002B000000001A
:100440000023002600290004040404040404040218
:100450000202020202030303030303010204081061
:10046000204080010204081020010204081020002E
:100470000000070002010000030406000000000065
:1004800000000002494E46494E4954594E414ECD56
:10049000CCCC3D0AD7233C17B7D13877CC2B32953B
:1004A00095E6241FB14F0A000020410000C8420019
:1004B000401C4620BCBE4CCA1B0E5AAEC59D7400E3
:1004C000170E1B1C561F502711241FBECFEFD8E05C
:1004D000DEBFCDBF14BEE0E6F0E088E1808310828D
:1004E00011E0A0E0B1E0E6ECFFE502C005900D925E
:1004F000A634B107D9F713E0A6E4B1E001C01D921C
:10050000A13DB107E1F714E0C8ECD4E004C02297A4
:10051000FE010E949B2FC03CD107C9F70E94D70D56
:100520000C94E12F0C940000662777270C944B0560
:10053000FC0188279927E89421912032E9F329309A
:1005400010F02E30C8F32B3241F02D3239F468947C
:1005500004C00E943503820F911D219120532A303F
:10056000C0F31EF4909581959F4F0895FB01DC0127
:1005700002C005900D9241505040D8F70895FB01FC
:10058000DC014150504030F08D910590801919F4F4
:100590000020B9F7881B990B0895FB01DC0102C00C
:1005A00001900D9241505040D8F70895DC0101C0F0
:1005B0006D9341505040E0F70895FC0181918617FA
:1005C00021F08823D9F7992708953197CF0108950D
:1005D000A0E0B0E0EEEEF2E00C94B42F7C01EB0171
:1005E0008A01690109C0CE012196F6010995F7013A
:1005F00081937F010150104001151105A1F7CDB77E
:10060000DEB7E8E00C94D02FA0E0B0E0EAE0F3E041
:100610000C94B42FEC017B018A01690109C0CE0161
:100620002196F70161917F01F60109950150104073
:1006300001151105A1F7CDB7DEB7E8E00C94D02F76
:10064000DF92EF92FF920F931F93D72E7A018C01C6
:10065000FA010995C80101966D2DF70109951F91C1
:100660000F91FF90EF90DF9008957AE0979F902D83
:10067000879F802D910D11240895AEE0B0E0E3E452
:10068000F3E00C94B82F0D891E898F89988D97FF00
:1006900002C080E090E801979E838D831A830983CE
:1006A0008EE08C839E01255E3F4FCE010196698DC1
:1006B0007A8DA9010E946E034D815E8157FD0AC0AB
:1006C0002F813885421753070CF49A01020F131F2C
:1006D000F80110822E96E4E00C94D42FABE0B0E049
:1006E000E4E7F3E00C94AA2F3C012B015A01FC0132
:1006F00017821682838181FD03C06FEF7FEFC6C131
:100700009AE0892E1E010894211C311CF3012381DB
:10071000F20123FD859123FF81912F01882309F4A4
:10072000B2C1853239F423FD859123FF81912F01D8
:10073000853229F490E0B3010E94D906E7CF982FC3
:10074000FF24EE249924FFE1FF15D0F09B3269F0DD
:100750009C3228F4903259F0933291F40EC09D32BD
:1007600049F0903369F441E024C052E0F52A84E076
:10077000F82A28C098E0F92A25C0E0E1FE2A22C024
:10078000F7FC29C0892F80538A3070F4F6FE05C02B
:10079000989C902C1124980E15C0E89CE02C1124F4
:1007A000E80EF0E2FF2A0EC09E3229F4F6FC6BC17F
:1007B00040E4F42A07C09C3619F450E8F52A02C038
:1007C000983649F4F20123FD959123FF91912F0171
:1007D000992309F0B8CF892F8554833018F08052BF
:1007E000833038F444E050E0A40EB51E5FE3598333
:1007F0000FC0933631F0933779F0933509F056C036
:1008000020C0F5018081898342E050E0A40EB51E2E
:10081000610101E010E012C0F501C080D180F6FC5A
:1008200003C06FEF7FEF02C0692D70E042E050E03F
:10083000A40EB51EC6010E94CE068C015FE7F5220C
:1008400014C0F501C080D180F6FC03C06FEF7FEFCC
:1008500002C0692D70E042E050E0A40EB51EC60152
:100860000E94C3068C0150E8F52AF3FE07C01AC0A7
:1008700080E290E0B3010E94D906EA948E2D90E0C8
:1008800008171907A8F30EC0F601F7FC8591F7FECB
:1008900081916F0190E0B3010E94D906E110EA94C2
:1008A000015010400115110579F7EAC0943611F096
:1008B000993669F5F7FE08C0F50120813181428142
:1008C000538184E090E00AC0F501808191819C0110
:1008D000442737FD4095542F82E090E0A80EB91EC2
:1008E0009FE6F92257FF09C0509540953095219514
:1008F0003F4F4F4F5F4FE0E8FE2ACA01B901A10107
:100900002AE030E00E940507D82ED21840C0953763
:1009100029F41F2D1F7E2AE030E01DC01F2D197FF6
:100920009F3661F0903720F4983509F0ACC00FC0C5
:10093000903739F0983709F0A6C004C028E030E0BD
:100940000AC0106114FD146020E130E004C014FD01
:10095000166020E132E017FF08C0F5016081718167
:100960008281938144E050E008C0F501808191814B
:10097000BC0180E090E042E050E0A40EB51EA10171
:100980000E940507D82ED2188FE7F82EF122F6FE26
:100990000BC05EEFF522D91438F4F4FE07C0F2FC68
:1009A00005C08FEEF82202C01D2D01C0192DF4FEE6
:1009B0000DC0FE01ED0DF11D8081803319F499EE1B
:1009C000F92208C01F5FF2FE05C003C08F2D867894
:1009D00009F01F5F0F2DF3FC14C0F0FE0FC01E15B1
:1009E00010F09D2C0BC09D2C9E0C911A1E2D06C044
:1009F00080E290E0B3010E94D9061F5F1E15C0F38C
:100A000004C01E1510F4E11A01C0EE2404FF0FC04B
:100A100080E390E0B3010E94D90602FF1DC001FDF2
:100A200003C088E790E00EC088E590E00BC0802FFF
:100A3000867891F001FF02C08BE201C080E2F7FCF2
:100A40008DE290E0B3010E94D90606C080E390E0F9
:100A5000B3010E94D9069A94D914C0F3DA94F10133
:100A6000ED0DF11D808190E0B3010E94D906DD20DB
:100A7000A9F706C080E290E0B3010E94D906EA948B
:100A8000EE20C1F743CEF30166817781CB012B962F
:100A9000E2E10C94C62FA0E0B0E0E1E5F5E00C94B3
:100AA000B02FEC015B016115710519F0FB01918319
:100AB0008083F9908F2D90E00E949F2F892BC9F79A
:100AC000FDE2FF1621F4F990EE24E39405C02BE239
:100AD000F21609F4F990EE248E0101501040C8017D
:100AE00064E874E043E050E00E94AB06892B01F516
:100AF0008E010E5F1F4FC80167E874E045E050E0CB
:100B00000E94AB06892B19F48E01095F1F4FA114B7
:100B1000B10419F0F50111830083E0FC04C070E01A
:100B200090E080E814C070E090E080E86FEF08C1CA
:100B3000C8016CE874E043E050E00E94AB06892BEA
:100B400069F4A114B10429F470E090E080EC6FE73F
:100B5000F7C02296F501D183C083F6CF882499246B
:100B600040E050E060E070E0EF2DE053EA30A0F5A7
:100B7000F2E0EF2A8E2D90E09C0128703070E2FEAA
:100B800006C0232B79F50894811C911C2BC0232BC4
:100B900019F0089481089108DB01CA0112E0880F5E
:100BA000991FAA1FBB1F1A95D1F7480F591F6A1F1B
:100BB0007B1F440F551F661F771F4E0F511D611D70
:100BC000711D483929E9520729E9620729E17207AD
:100BD00048F084E0E82A06C0EE3F31F4E3FC39C077
:100BE00098E0E92AF990C0CFE53311F0E53189F5B5
:100BF00029912D3219F4E0E1EE2A05C02B3219F0CB
:100C000081E090E003C0299182E090E0E22FE05380
:100C1000EA3018F0C81BD90B1CC020E030E0FCE023
:100C200020383F075CF4C901880F991F880F991F6E
:100C3000280F391F220F331F2E0F311DE991E0536A
:100C4000EA3068F3E4FE03C0309521953F4F820EF1
:100C5000931ECE2CDD24E1FE07C0A114B10421F0C7
:100C60002197F501D183C083CB01BA010E94732D76
:100C70007B018C01F3E0CF22DD2423E0C216D104F6
:100C800021F417FB109517F9109557016801C80159
:100C9000B70120E030E040E050E00E94D62C8823ED
:100CA00009F44AC097FE0DC023EAE22E24E0F22E9A
:100CB0009094819491089394C0E2D0E000E010E019
:100CC00012C09BEBE92E94E0F92EF6CFF7012591A7
:100CD000359145915491C601B5010E946E2E5B017C
:100CE0006C018C1A9D0A8C169D0684F7D595C795C4
:100CF0000F5F1F4F0630110529F08CEF9FEFE80EB4
:100D0000F91EF1CFC501D6017C018D018C2D880F14
:100D10008D2D881F8F3F51F0C601B50120E030E0D6
:100D200040E050E00E94D62C882331F482E290E02B
:100D30009093D0038093CF037E2D9F2D802F612F22
:100D4000272F392F482F562FB901CA01CDB7DEB74B
:100D5000ECE00C94CC2FFB01DC014150504088F0BA
:100D60008D9181341CF08B350CF4805E659161347B
:100D70001CF06B350CF4605E861B611171F3990BEE
:100D80000895881BFCCFFC01059061507040011054
:100D9000D8F7809590958E0F9F1F0895FC016150A4
:100DA000704001900110D8F7809590958E0F9F1F8D
:100DB00008950F931F93CF93DF938C01EB018B81E9
:100DC00081FF1BC082FF0DC02E813F818C819D81E0
:100DD0002817390764F4E881F9810193F983E883DE
:100DE00006C0E885F985802F0995892B31F48E811D
:100DF0009F8101969F838E8302C00FEF1FEFC80172
:100E0000DF91CF911F910F910895FA01AA27283001
:100E100051F1203181F1E8946F936E7F6E5F7F4FC7
:100E20008F4F9F4FAF4FB1E03ED0B4E03CD0670F43
:100E3000781F891F9A1FA11D680F791F8A1F911D96
:100E4000A11D6A0F711D811D911DA11D20D009F4E6
:100E500068943F912AE0269F11243019305D319328
:100E6000DEF6CF010895462F4770405D4193B3E011
:100E70000FD0C9F7F6CF462F4F70405D4A3318F0B8
:100E8000495D31FD4052419302D0A9F7EACFB4E069
:100E9000A6959795879577956795BA95C9F7009721
:100EA0006105710508959B01AC010A2E06945795C2
:100EB000479537952795BA95C9F7620F731F841F19
:100EC000951FA01D0895FC018081918118161906B7
:100ED00074F4861797071CF481E0868308C06817AE
:100EE00079072CF48681882311F081E084832281A4
:100EF00033811216130684F4C90101976817790724
:100F00001CF481E0878308C0621773072CF0878187
:100F1000882311F081E08583809187019091880179
:100F2000892B11F0158214820895A62FB0E0FC01E0
:100F3000EA0FFB1F168214824115510531F0AA0FEA
:100F4000BB1FA80FB91F4D935C930895FC016083EC
:100F500080E090E0A0ECBFE7868B978BA08FB18FED
:100F6000828F938FA48FB58F0895FC0164831382C1
:100F70001282118280E090E0A0ECBFE7868B978B15
:100F8000A08FB18F828F938FA48FB58F0895FC01AE
:100F90006115710519F4138212820EC081818823B4
:100FA00019F47383628308C082819381009721F0D2
:100FB000860F971F9383828381818F5F818308953A
:100FC000EF92FF920F931F93CF93DF93EC017A017F
:100FD0008B01CB01BA0120E030E040EA51EC0E94E5
:100FE000D62C181654F4C801B70120E030E04AEFBF
:100FF00053E40E94252E18164CF480E090E0A0ECFB
:10100000BFE78E8B9F8BA88FB98F2FC08091640113
:10101000863499F4C801B70126E636E646EE5FE36A
:101020000E946E2E20E030E040E052E40E94722CDC
:101030006E8B7F8B888F998F04C0EE8AFF8A088F12
:10104000198F6D81772767FD7095872F972F0E94E5
:10105000752D9B01AC016E897F89888D998D0E94C9
:10106000722C6E8B7F8B888F998FDF91CF911F9120
:101070000F91FF90EF900895DC0120E09496ED91A0
:10108000FC9195978481861709F421E09696ED915D
:10109000FC9197978481861709F42F5F9896ED91BC
:1010A000FC9199978481861709F42F5F9A96ED91A8
:1010B000FC919B978481861709F42F5F822F90E023
:1010C0000895FC0110926F0082E0809380006130EF
:1010D000710569F06F3F710511F0672B99F413A248
:1010E00012A28BE1809381008FEF91E007C073A380
:1010F00062A38AE18093810080E49CE99093870059
:101100008093860085E080936F0008951F93CF93AE
:10111000DF93EC01EEA1FFA126893789408D518D27
:10112000CA01B9010E94D12E8823C9F0E8A5F9A50A
:1011300026893789408D518DCA01B9010E94D12E6F
:10114000882369F0EAA5FBA526893789408D518D52
:1011500010E0CA01B9010E94D12E882309F411E0E0
:10116000812FDF91CF911F910895FC018485958592
:10117000EF5BFF4F91838083E154F0401682089526
:10118000FC01708767831682118680E090E0A0E002
:10119000B0E0868B978BA08FB18FEF5BFF4F1182F2
:1011A00010820895FC0181E0818777FF02C01182DF
:1011B0000895653671051CF084E681830895618386
:1011C0000895FC01CB016E31710510F48EE190E0C1
:1011D000958784870895CF93DF93EC01E62FF0E0A5
:1011E000EE0FFF1FEE0FFF1FE80FF91F25A736A711
:1011F00047A750AB623041F480E090E0A0E0B0E05F
:101200008E8B9F8BA88FB98FDF91CF910895FC01B2
:10121000663421F0623511F0633409F4668F089565
:101220001F93182F8091EF02882351F481E080935F
:10123000EF021092F00288E993E064E20E94102726
:101240008091F00281278093F00288E993E0612F7A
:101250000E9410271F910895EF92FF921F93CF9342
:10126000DF937C01C2ECD0E0FE01219684918823BB
:1012700019F00E941009F8CFE70110E04E855F8554
:10128000688979898BEE92E022E030E00E94C429DF
:101290008CE20E9410091F5F2496143079F7D70161
:1012A0009496ED91FC91959766897789808D918DC3
:1012B000228D338D448D558D0E94712CAB01BC0164
:1012C0008BEE92E022E030E00E94C42988E993E0AE
:1012D0006AE20E9410276091F00262956F706A3096
:1012E00010F4605D01C0695C88E993E00E941027FA
:1012F0006091F0026F706A3010F4605D01C0695C4B
:1013000088E993E00E94102788E993E06AE00E9450
:1013100010271092EF02DF91CF911F91FF90EF9075
:101320000895BF92CF92DF92EF92FF920F931F9397
:10133000CF93DF93EC016F8178858BEE92E04AE0EA
:1013400050E00E94CA288CE20E941009E4E2CE2EEE
:10135000D12CCC0EDD1EBB24D601ED91FC91E6888C
:10136000F788008D118DC801B701A80197010E946F
:10137000D12E882349F48BEE92E0B801A70121E039
:1013800030E00E94C42903C085E50E9410098CE268
:101390000E941009B39482E090E0C80ED91E94E038
:1013A000B916D1F68BEE92E069814AE050E00E94D6
:1013B00078288CE20E941009ED96699179918991C3
:1013C00099910E94422D9B01AC018BEE92E0B901F4
:1013D0004AE050E00E94CA288CE20E94100968810D
:1013E00079818BEE92E04AE050E00E946728DF911D
:1013F000CF911F910F91FF90EF90DF90CF90BF9012
:101400000895FC01862F608390E8928796E4968F7A
:10141000FD9620E030E040EC5FE72083318342839B
:10142000538361E00E94C3240895AF92BF92CF928C
:10143000DF92EF92FF920F931F93CF93DF93EC0114
:101440006981662309F47DC08A819B8170E00E94D6
:10145000352F19826115710509F46BC080E090E0A9
:101460000E94732D9B01AC0160E078EF8FEF95E453
:101470000E94DA2C20E030E040E85FE30E94712C0B
:101480009B01AC016A897B898C899D890E94DA2C39
:101490007B018C01F801D090640182E5D81609F037
:1014A00096C080916A0190916B01C817D90709F421
:1014B0008EC0C701D8018E8B9F8BA88FB98FC0C0FB
:1014C000C801B70120E030E04AEF53E40E94252E26
:1014D00018167CF186E4D81699F4C801B70126E6FF
:1014E00036E646EE5FE30E946E2E20E030E040E0FC
:1014F00052E40E94722C6E8B7F8B888F998F04C070
:10150000EE8AFF8A088F198F6D81772767FD7095A6
:10151000872F972F0E94752D9B01AC016E897F89C3
:10152000888D998D0E94722C6E8B7F8B888F998FFE
:1015300008C080E090E0A0ECBFE78E8B9F8BA88F67
:10154000B98FEE88FF88088D198DC801B701A801F1
:1015500097010E94D12E8823A9F5AA8CBB8CCC8C34
:10156000DD8CC601B501A60195010E94D12E88230C
:1015700029F0EA8EFB8E0C8F1D8F16C0C801B701B3
:10158000A60195010E94712C2AE83BE446E05DE348
:101590000E946E2E9B01AC01C601B5010E94722C07
:1015A0006A8F7B8F8C8F9D8F6E897F89888D998DB7
:1015B0000E94422D9B01AC016E96CE01B9010E94A2
:1015C00063073EC01CA21AA21DA21BA239C0CF01F4
:1015D0000E942E2E7B018C012E853F8548895989DA
:1015E0000E946E2EA80197010E946E2E2A853B85CF
:1015F0004C855D850E94722CA80197010E946E2E79
:101600002E813F81488559850E94722C9B01AC0137
:1016100060E070E080E89FE30E94DA2C23E333E986
:1016200048E853E40E94712C7B018C0120E030E0FB
:1016300040EA51EC0E94D62C18160CF07ACF40CF1D
:10164000DF91CF911F910F91FF90EF90DF90CF909E
:10165000BF90AF900895FF920F931F93CF93DF93A6
:10166000EC0100E010E0A0E4FA2E88810E94412401
:101670009C0101978E5F934068F4020F131FFA9448
:10168000A1F79801F3E036952795FA95E1F7211532
:10169000310519F41B821A820BC08981882331F02D
:1016A0008A819B81009721F0280F391F3B832A8371
:1016B00089818F5F8983DF91CF911F910F91FF9077
:1016C00008958F929F92AF92BF92CF92DF92EF9246
:1016D000FF920F931F93CF93DF93EC010E9495230A
:1016E0009B01AC018A819B81B901681B790B6D3725
:1016F000710508F4C7C12A833B834C835D8394E260
:10170000C92ED12CCC0EDD1E8601FF24D801ED910F
:10171000FC918481813019F4CF010E942B0BF3944A
:101720000E5F1F4FB4E0FB1689F78A858F5F8A87AB
:10173000883008F4A7C110E0F601819191916F0102
:101740000E94150A1F5F1430B9F78985882309F0B4
:101750000AC189801982ECA1FDA1A688B788C08C36
:10176000D18CC601B501A60195010E94D12E882316
:1017700009F096C0CF5BDF4F88819981C154D0407A
:10178000892B09F08DC06F817885882777FD80953A
:10179000982F0E94752DA60195010E94712C7B0146
:1017A0008C0169A97AA98BA99CA9A80197010E941B
:1017B0006E2E6A8B7B8B8C8B9D8B8AA19BA1019754
:1017C00019F484E6982E01C09F8CC801B70120E06F
:1017D00030E040E050E00E94252E181614F48914E1
:1017E00060F0C801B70120E030E040E050E00E9426
:1017F000D62C8823B4F48820A1F0C801B7012DA904
:101800003EA94FA958AD0E946E2E9B01AC016E8976
:101810007F89888D998D0E94722C6E8B7F8B888F2B
:10182000998FECA1FDA1628D738D848D958DA6019C
:1018300095010E94712C9B01AC0169AD7AAD8BAD15
:101840009CAD0E946E2E7B018C016A8F7B8F8C8FEA
:101850009D8F6DA57EA58FA598A96E877F87888BA4
:10186000998B2A893B894C895D890E94722C2E892B
:101870003F89488D598D0E94722CA80197010E94C2
:10188000722C0E94422D9B01AC01892D90E06817BB
:10189000790714F0998204C0121613060CF46983B8
:1018A000ECA1FDA166897789808D918D0E94422DE2
:1018B000AB016F8178854617570704F18C859D85AC
:1018C000CF5BDF4F28813981C154D040821B930BFD
:1018D0004F97A0F08E81882351F481E08E8380E0C1
:1018E00090E0A0E0B0E08E8B9F8BA88FB98FCF5B8C
:1018F000DF4F19821882C154D04035C08E010F5B72
:101900001F4FD8018D919C911197009721F001975D
:101910008D939C9328C08E81882329F19B01241BE1
:10192000350B84E690E0FC012E9FC0012F9F900DA7
:101930003E9F900D11240E94492F8CA590E06817BE
:1019400079078CF0FE01FD9660817181828193811F
:101950000E94422D6A35710534F48C859D85D8012D
:101960008D939C931E82698170E080E090E00E94DC
:10197000732D5B016C01BDE38B2E912C8C0E9D1E93
:10198000F401E080F18002811381C801B701A80150
:1019900097010E94D12E882339F0D401AD92BD92D7
:1019A000CD92DC92139717C0C601B501A80197012B
:1019B0000E94712C21E837EF47E05CE30E946E2E15
:1019C0009B01AC01C801B7010E94722CF401608335
:1019D0007183828393838AA19BA1892B69F5998165
:1019E00028A1921710F01B8616C03B858AE0989FAD
:1019F000C0011124622F70E00E94352F832F90E0E8
:101A00008617970708F020E0832F8F5F8B878A3037
:101A100008F01B86922F89A1882319F08F8D891BCE
:101A2000982F80E0990F64E670E00E94352F709344
:101A30008B0060938A0023C089A19981882319F0C3
:101A400044E6491B01C0492F28A150E08F8D90E04A
:101A5000821B9109BC01469FC001479F900D569F74
:101A6000900D112464E670E00E94352F260F84E16A
:101A7000289F9001112430938B0020938A001A86AE
:101A800081E001C080E0DF91CF911F910F91FF9025
:101A9000EF90DF90CF90BF90AF909F908F90089580
:101AA000CF93DF93FC01DB011D968C911D978483FE
:101AB0001E968C911E9785839F012A5F3F4FAB0135
:101AC0004B5E5F4F80E1EA010990AE01E9010992A6
:101AD0009E018150C1F71F968D919C91509714A241
:101AE00012A2009711F0978F868F51966D917C917D
:101AF000529715A213A26115710511F071A360A38D
:101B0000DF91CF9108951F920F920FB60F9211247B
:101B10002F933F934F935F936F937F938F939F93F5
:101B2000AF93BF93EF93FF9380918A0090918B00C6
:101B3000892B29F08091460161E00E940225FF91E6
:101B4000EF91BF91AF919F918F917F916F915F9135
:101B50004F913F912F910F900FBE0F901F901895AE
:101B60001F920F920FB60F9211242F933F934F9312
:101B70005F936F937F938F939F93AF93BF93EF93F5
:101B8000FF938091460160E00E940225FF91EF9152
:101B9000BF91AF919F918F917F916F915F914F9185
:101BA0003F912F910F900FBE0F901F9018950E949C
:101BB00006240E9470150E945718FDCF9C01F999C8
:101BC000FECF32BD21BDF89A80B508959C01F999E8
:101BD000FECF1FBA32BD21BD60BD0FB6F894FA9A90
:101BE000F99A0FBE0895982F8430D8F4E82FF0E0CA
:101BF000EE0FFF1FE659FE4F0190F081E02D658347
:101C0000F999FECF1FBA85E2989FC0011124825B2B
:101C100090E092BD81BD60BD0FB6F894FA9AF99A32
:101C20000FBE0895882311F460939F02089586E9FA
:101C300091E065E00E94A6078CEB91E064E00E94D1
:101C4000A60782EE91E063E00E94A60788E092E09A
:101C500062E00E94A60786E491E063E00E94010A28
:101C600089E891E064E042E00E94CB2089E49EE0B4
:101C7000909334028093330280E880933502E8E346
:101C8000F2E08FEF8083399692E0EC35F907D1F7D7
:101C90000895AF92BF92CF92DF92EF92FF920F938F
:101CA0001F93CF93DF935C017B010AE611E02BE5E4
:101CB000C22E22E0D22EF801C081D1818C818230E7
:101CC00079F5F60190819F3721F0F501828198170F
:101CD00039F5F2E0EF16F10421F4CE0160E070E096
:101CE0001DC0F50187812081318182FF13C0B901B8
:101CF000882777FD8095982F0E94752D20E030E091
:101D000040E251E40E94DA2CAB01BC01CE010E94FA
:101D1000E00706C0220F331FCE01B9010E94C7079A
:101D20000E5F1F4F0894C11CD11CF1E002371F0742
:101D300011F683E0E822FF24EF2821F08EE292E002
:101D40000E94E01DDF91CF911F910F91FF90EF90C6
:101D5000DF90CF90BF90AF900895EF92FF921F93C6
:101D6000CF93DF93EC017B0110E013C08C3219F4A8
:101D70001F5F21960EC0CE010E949802BC01812FE8
:101D8000F701099501C021968881882311F08C32D2
:101D9000D1F78881882351F7DF91CF911F91FF9070
:101DA000EF900895CF93DF93EC01FE01219684918B
:101DB000882319F00E941009F8CFDF91CF91089580
:101DC00088E993E06AE20E9410276091F002629530
:101DD0006F706A3010F4605D01C0695C88E993E05F
:101DE0000E9410276091F0026F706A3010F4605DFD
:101DF00001C0695C88E993E00E94102788E993E0BC
:101E00006AE00E9410271092EF0208950F931F932B
:101E10008CE291E00E94D20E0BEE12E0C8016091BC
:101E200072014AE050E00E9478288CE20E9410097A
:101E30006091520170915301C8014AE050E00E9444
:101E400067280E94E00E1F910F9108950F931F9332
:101E5000CF93DF938CE391E00E94D20ECAE6D1E0EB
:101E60000BE512E08CE20E941009E881F98184817F
:101E7000823041F48BEE92E0F80160814AE050E05C
:101E80000E94782822960F5F1F4FF1E0C237DF07CC
:101E900049F70E94E00EDF91CF911F910F910895B5
:101EA0000F931F938CE491E00E94D20E0BEE12E090
:101EB000C801609166014AE050E00E9478288CE2F7
:101EC0000E941009C801609165014AE050E00E943B
:101ED00078288CE20E941009C801609167014AE0ED
:101EE00050E00E9478288CE20E941009C80160919D
:101EF00068014AE050E00E9478280E94E00E1F919D
:101F00000F910895282F80936501F999FECF1FBA8C
:101F10008FE190E092BD81BD20BD0FB6F894FA9A92
:101F2000F99A0FBE0E94500F08950F931F938DE0F2
:101F300092E00E94D20E0BEE12E0C8016091950172
:101F40004AE050E00E9478288CE20E941009C80103
:101F50006091A7024AE050E00E9478280E94E00EBB
:101F60001F910F910895CF93DF9382E391E00E9438
:101F7000D20ECAE6D1E08CE20E941009E991F991F3
:101F80006581772767FD70958BEE92E04AE050E01F
:101F90000E94CA2881E0C237D80769F70E94E00E84
:101FA000DF91CF910895982F8430D8F4E82FF0E096
:101FB000EE0FFF1FE659FE4F0190F081E02D658383
:101FC000F999FECF1FBA85E2989FC0011124825B68
:101FD00090E092BD81BD60BD0FB6F894FA9AF99A6F
:101FE0000FBE0E94B30F08950F931F93CF93DF93FB
:101FF00087E491E00E94D20E0AE611E0F801C08168
:10200000D1818CE20E9410096E8D7F8D8BEE92E063
:102010004AE050E00E94CA288AA1882319F08CE483
:102020000E9410098CE20E94100968A179A18BEE30
:1020300092E04AE050E00E94CA288BA1882319F060
:1020400088E40E9410090E5F1F4FF1E002371F075E
:10205000A9F60E94E00EDF91CF911F910F91089594
:10206000CF93DF9387E391E00E94D20EC3E7D1E0E4
:102070008CE20E94100949915991699179918BEEF6
:1020800092E028E030E00E94C42981E0C338D807FC
:1020900079F70E94E00EDF91CF9108959F92AF9261
:1020A000BF92CF92DF92EF92FF920F931F93CF9345
:1020B000DF93182F81E491E00E94D20E8BEE92E024
:1020C000612F4AE050E00E9478288CE20E941009BB
:1020D000E12FF0E0EE0FFF1FE659FE4FA080B18028
:1020E000E501CC24EE80FF80088519859924C8017C
:1020F000B70120E030E040E050E00E94D62C882379
:1021000034F49924939417FB109517F91095DD2456
:102110000BC0DA94C801B70120E030E040E251E49E
:102120000E946E2E7B018C01C801B70120E030E0D7
:1021300040E85FE30E94D62C87FDEBCF0BC0D39421
:10214000C801B70120E030E040E251E40E94DA2CFF
:102150007B018C01C801B70120E030E040E251E48E
:102160000E94252E87FFEBCF992021F017FB1095B9
:1021700017F910958BEE92E0B801A70127E030E047
:102180000E94C42985E60E9410096D2D772767FDFE
:1021900070958BEE92E04AE050E00E94CA288CE2F3
:1021A0000E941009C394249684E0C81609F09ACFBF
:1021B0008BEE92E0F50164814AE050E00E947828BD
:1021C0000E94E00EDF91CF911F910F91FF90EF9051
:1021D000DF90CF90BF90AF909F90089586E491E0FC
:1021E00062E00E943C08892B29F08EE292E063E0D5
:1021F0000E944D1E0895E82FF0E0E55AFD4F6083E0
:10220000F999FECF1FBA90E0499692BD81BD60BD9D
:102210000FB6F894FA9AF99A0FBE0E94260F0E9400
:10222000EE10089582E591E00E94D20E8BEE92E0CE
:1022300062E40E94D0270E94E00E08951F93162F9B
:10224000813079F0813028F0823099F0833059F56F
:1022500018C060936601F999FECF1FBA8EE190E035
:102260001AC060936501F999FECF1FBA8FE190E023
:1022700012C060936701F999FECF1FBA80E290E027
:102280000AC086E491E070E00E946108F999FECFEF
:102290001FBA82E290E092BD81BD10BD0FB6F894E6
:1022A000FA9AF99A0FBE1F9108950F931F93DF9327
:1022B000CF9300D0CDB7DEB7AB017A836983082F07
:1022C0000695182F1170E02FF0E0EE0FFF1FE65972
:1022D000FE4F808191814E96612F0E9495070430B8
:1022E000B0F489819A81892B91F0110F85E2089FC2
:1022F000C0011124180F812F815B90E0BE016F5F38
:102300007F4F42E050E026EE3DE00E9404030F9034
:102310000F90CF91DF911F910F9108958091A102AD
:1023200060E070E00E9455110E94F40F089581E76B
:1023300091E00E94D20E86E491E00E9491090E94F1
:10234000E00E089589E061E00E94C32489E061E025
:102350000E94022564E670E080E090E00E94A323E2
:1023600089E060E00E94022562E370E080E090E096
:102370000E94A3230895843070F465E2869FB00123
:102380001124605C8AEA92E070E04DE050E02EEDAE
:102390003DE00E94E80208951F938CE691E00E94C0
:1023A000D20E10E0812F0E94BB118CE20E94100916
:1023B0008BEE92E06AEA72E00E94DD281F5F143023
:1023C00089F70E94E00E1F910895982F843060F4E1
:1023D00085E2989FC0011124805C90E04DE050E0C0
:1023E00026EE3DE00E9404030E94CC110895CF9395
:1023F000DF93EC011816190674F482E090E0BE0138
:1024000046EE5DE00E94200386E491E0BE010E945A
:10241000C00820E009C066277727681B790B86E48F
:1024200091E00E94D20821E0F999FECF1FBA87E11E
:1024300090E092BD81BD20BD0FB6F894FA9AF99A4A
:102440000FBEDF91CF9108958F929F92AF92BF926E
:10245000CF92DF92EF92FF920F931F93CF93DF9370
:10246000EC01FC0101900020E9F731971E2F181BA9
:1024700064E271E047E050E00E94BF02892B11F551
:10248000CE0107960E9498020E94F711C10FD11D3C
:102490002197088186E491E0602F0E9407090334A8
:1024A00019F0063409F0C7C1F999FECF1FBA8DE1C2
:1024B00090E092BD81BD00BD0FB6F894FA9AF99AEA
:1024C0000FBEB9C1CE016CE171E047E050E00E945F
:1024D000BF02892B49F4CE0107966AE179E10E9497
:1024E000AD0E0E94950FA7C1CE0164E171E047E0F7
:1024F00050E00E94BF02892B49F4CE01079668E2A2
:1025000074E10E94AD0E0E94060F95C1CE016CE0F1
:1025100071E047E050E00E94BF02892B49F4CE01F0
:10252000079663EF7DE00E94AD0E0E94B30F83C15A
:10253000CE0164E071E047E050E00E94BF02892BC9
:1025400009F05AC11A3008F457C1CE0109960E9409
:1025500094029B01AC016F81643679F065361CF4FE
:10256000623609F506C0693631F06037E1F401E002
:1025700005C000E003C002E001C003E086E491E092
:10258000602F0E94EB08602F70E0660F771F660FC8
:10259000771FCB0107966D587E4F44E050E026EE42
:1025A0003DE00E9404030E94301045C1193008F438
:1025B0002DC18E8128968053BE010E94E5113BC13A
:1025C000193008F42DC1AE8080EDA80E93E09A1565
:1025D00008F431C1289685E2A89EB02C1124B5E5F7
:1025E0008B2E8B0C9924CA2CDD24CC0CDD1CEAE646
:1025F000F1E0CE0EDF1E31C0F3E0F91590F18C3220
:1026000029F49394219684E0880E27C0F601E08097
:10261000F180092D10E0CE010E949402000F111FDD
:10262000000F111FF701E00FF11F6683778380878A
:1026300091870A5F1F4FE00EF11E882D90E0B701D1
:1026400044E050E026EE3DE00E94040301C02196E4
:102650008881882311F08C32D1F78881882361F634
:1026600054C0CE010E949802082FAA2DB0E087FD29
:1026700022C0AA0FBB1FA659BE4FED91FC91148139
:10268000181709F442C0CF01602F0E94B507F999CD
:10269000FECF1FBAFDE4BF0E8B2D90E092BD81BD31
:1026A00000BD0FB6F894FA9AF99A0FBE123069F588
:1026B0008A2D6FE728C0182F1058FD01EE0FFF1F5D
:1026C000E659FE4F0190F081E02D8481823029F49B
:1026D000A55ABD4F8C918117A1F0CF0162E00E94F5
:1026E000B507F999FECF1FBA8DE4B80E8B2D90E097
:1026F00092BD81BD82E080BD0FB6F894FA9AF99A36
:102700000FBE8A2D612F0E94FB108A2D0E944E1051
:1027100092C0CE01079665E571E10E94AD0E0E9460
:10272000F40F89C0CE0166EE70E047E050E00E94F1
:10273000BF02892B49F4CE0107966EE171E10E9438
:10274000AD0E0E94500F77C0CE016EED70E047E0F5
:1027500050E00E94BF02892B39F427968BEB92E060
:10276000BE010E94481C67C0CE0166ED70E047E0E4
:1027700050E00E94BF02892B39F4CE01079662E136
:102780007EE00E94AD0E57C0CE016FEC70E046E0D7
:1027900050E00E94BF02892BD1F40E9412110E94C6
:1027A00030100E94500F0E94CC1100E0802F0E9438
:1027B0004E100F5F0430D1F70E94B30F0E94060F36
:1027C0000E94950F0E94F40F0E94260F34C0CE0184
:1027D00068EC70E045E050E00E94BF02892B59F59B
:1027E00087E060E00E940225F89488E18093600011
:1027F00089E080936000FFCFCE016DEF70E046E08E
:1028000050E00E94BF02892B09F4D0CECE0166EFC2
:1028100070E046E050E00E94BF02892B09F4D0CE60
:10282000CE016EEE70E047E050E00E94BF02892BBF
:1028300009F078CF6ECFDF91CF911F910F91FF906C
:10284000EF90DF90CF90BF90AF909F908F900895C2
:10285000CF93DF93482FEB0177FF02C0C0E0D0E0B9
:102860004130B1F0413018F0423051F51EC02C2FEC
:10287000C0937201F999FECF1FBA84E090E092BD37
:1028800081BD20BD0FB6F894FA9AF99A0FBE18C010
:1028900086E491E0BE010E94E10885E090E0BE017F
:1028A00046EE5DE00E9420030BC0CD2B29F086E4AC
:1028B00091E00E94B50804C010928801109287012F
:1028C000DF91CF910895CF93DF93EC01662321F040
:1028D00089E891E00E946B20FE01219664916623B5
:1028E00029F089E891E00E94F91FF6CFDF91CF919E
:1028F0000895982F87FD02C0809395019F778FEFF1
:10290000989FC001112464E670E00E94352F85E095
:102910000E9463240895AF92BF92CF92DF92EF920C
:10292000FF920F931F93DF93CF93CDB7DEB7CA54B7
:10293000D0400FB6F894DEBF0FBECDBFC82ECE017B
:10294000039660E070E043E250E02EED3DE00E942F
:10295000E802CC2029F48B819C818E50904F99F015
:102960008E010D5F1F4FC80165EC71E043E250E03E
:102970000E94B60280E090E0B80143E250E026EE0B
:102980003DE00E9404036D817E8186E491E00E9417
:10299000C0088F81809372016885798586E491E013
:1029A0000E94E108A3E7B1E0FE013A9680E10190C0
:1029B0000D928150E1F78A8D882331F086E491E011
:1029C00060E070E00E94D2088B8D0E94791488A18B
:1029D000833411F066E401C063E486E491E00E9470
:1029E00007098AA18093650189A1809366018BA163
:1029F000809367016DA186E491E070E00E94610818
:102A00008CA18093A7028C8D9D8DAE8DBF8D809300
:102A10005B0290935C02A0935D02B0935E02CE01D4
:102A200001966EE370E042E050E02EED3DE00E9442
:102A3000E80289819A818E50904F51F08EE390E0A8
:102A40006EE070EF46EE5DE00E942003CC24C3945C
:102A50002AE6A22E21E0B22E00E410E090E3D92E67
:102A600086E2E82EF12CEC0EFD1ECC2089F0C70189
:102A700068EE71E045E250E00E94B602DCA6C801B3
:102A8000B70145E250E026EE3DE00E94040308C095
:102A9000C701B80145E250E02EED3DE00E94E8029A
:102AA000F501819191915F01B7010E94500DD3947E
:102AB000F4E3DF1619F00B5D1F4FD7CFC65BDF4F76
:102AC0000FB6F894DEBF0FBECDBFCF91DF911F913F
:102AD0000F91FF90EF90DF90CF90BF90AF9008954F
:102AE0001F93CF93DF930E94A21188E993E040E007
:102AF00056E960E070E00E941F2688E993E06AE0F2
:102B00000E9410270E94121190E890BF8FE38093DB
:102B10007E009093640087E061E00E94022587E0D8
:102B200061E00E94C32486E991E090936B01809359
:102B30006A018CEB91E090936D0180936C0182EEC1
:102B400091E090936F0180936E0188E092E0909302
:102B500071018093700180E00E948B14CDE7D1E079
:102B600010E089E891E0612FAE010E94C11F1F5F54
:102B700028961830B1F70E94EE108BEB92E065E0DA
:102B80000E94B61C0E94A211DF91CF911F9108955F
:102B9000882381F08091A2028F3FB1F41092A302AA
:102BA0001092A4021092A5021092A60285E08093D2
:102BB000A20208958FEF8093A20286E00E94E82986
:102BC000809195010E94791408954F925F926F92BF
:102BD0007F929F92AF92BF92CF92DF92EF92FF923D
:102BE0000F931F93DF93CF93CDB7DEB761970FB6E7
:102BF000F894DEBF0FBECDBFD090C3028D2D8250A2
:102C0000853008F0DAC189E891E060E040E00E9498
:102C1000E61F86E0D81699F481E00E94C8158091DD
:102C2000A10280FD03C086E692E002C085E592E045
:102C300060E00E946314D090A102D6943AC180E073
:102C40000E94C815E091A702E43008F095C0F0E0BA
:102C5000EE0FFF1FE659FE4F0190F081E02DE68850
:102C6000F788008D118DC801B701A80197010E9456
:102C7000D12E882309F080C0C801B70120E030E0E0
:102C800040E251E40E946E2E0E94422D77FF07C061
:102C9000CC24DD24C61AD70AEE24E39402C06B01CB
:102CA000EE24F0E1FF2EC114D10419F498E09F1531
:102CB00084F5C6016AE070E00E94352F8C01000F98
:102CC000111F080F191F000F111F09581D4FADEFDD
:102CD000FA0E89E891E06F2D40E00E94E61F89E836
:102CE00091E0B80143E00E949A1F89E891E06F2DBE
:102CF00041E00E94E61F0D5F1F4F89E891E0B80197
:102D000043E00E949A1FC6016AE070E00E94352FDE
:102D10006B01FA9489E891E06F2D40E00E94E61F74
:102D200089E891E060E20E94F91F89E891E06F2D47
:102D300041E00E94E61FBCE0FB1631F489E891E017
:102D40006EE20E94F91FAFCFC114D10461F4E8E034
:102D5000EF154CF0EE2039F089E891E061E00E9437
:102D6000F91FEE2405C089E891E060E20E94F91F96
:102D7000FF2009F098CF21C1E0916A01F0916B0129
:102D800066897789808D918D0E94422D8B014091BB
:102D90004F01442309F0FFC0672B09F0FCC0CE01AE
:102DA000019663E172E041E150E00E94B60271C019
:102DB0008DB79EB70C970FB6F8949EBF0FBE8DBF10
:102DC000EDB7FEB73196CE010196ADB7BEB71296FC
:102DD0009C938E93119781E190E09383828383E4A7
:102DE00092E09583848317830683809164019927F9
:102DF00087FD909591878087338722870E943D03C6
:102E0000EDB7FEB73C9640C0442319F42BE53DE5F1
:102E100002C02EE53EE58DB79EB740970FB6F894F9
:102E20009EBF0FBE8DBFEDB7FEB73196CE010196A6
:102E3000ADB7BEB712969C938E93119781E190E047
:102E4000938382838EE292E0958384831783068343
:102E500080916401992787FD909591878087822FC3
:102E6000992787FD90959387828780914701848772
:102E70001586832F992787FD9095978786870E94CF
:102E80003D03EDB7FEB770960FB6F894FEBF0FBEC8
:102E9000EDBF89E891E0BE016F5F7F4F0E94DD28A2
:102EA0008091A7028F3F21F081E063E0D62E02C01F
:102EB000DA948D2DC82E992493945E010894A11C58
:102EC000B11C54E2452E52E0552E4AEA642E42E0EF
:102ED000742E5DC0F3E0FC1508F466C0EC2CFF24F2
:102EE000EE0CFF1C8AE691E0E80EF91ED701ED9189
:102EF000FC9126893789408D518DCA01B9010E9404
:102F0000D12E882309F050C08C2D0E94BB11EDB743
:102F1000FEB73A970FB6F894FEBF0FBEEDBF0DB7E0
:102F20001EB70F5F1F4FB282A18281E190E0D801EE
:102F300013969C938E93129715965C924E921497CB
:102F400017967C926E921697D701ED91FC91668947
:102F50007789808D918D0E94422DF801718760875D
:102F60000E943D038DB79EB70A960FB6F8949EBF98
:102F70000FBE8DBF89E891E060E0492D0E94E61FF9
:102F800089E891E0B5010E94DD28C3949394DC1494
:102F900008F0A0CF12C0209187013091880121153F
:102FA000310509F431CF04CFC50160E270E041E1A1
:102FB00050E00E94D602198ADDCF61960FB6F894D0
:102FC000DEBF0FBECDBFCF91DF911F910F91FF905C
:102FD000EF90DF90CF90BF90AF909F907F906F90D9
:102FE0005F904F9008950E94E5158091A0028F5F39
:102FF0008093A00290E08F719070892B21F48EE273
:1030000092E00E94E01D0E949711AAE6B1E020E044
:1030100030E012C081E0220F331F820F8093A102A3
:103020000E94F40F8BEB92E066E019C02F5F3F4FD8
:1030300012962430310561F0ED91FC91119782A137
:10304000882311F080E0E7CF83A1882379F3E2CFD2
:103050008091C302863029F48BEB92E062E00E94FB
:10306000B61C80919F02882321F086E491E00E94A3
:103070002C0940E08091870190918801892B09F00B
:1030800041E089E891E060E00E947D1F40E080918E
:103090004701811141E089E891E061E00E947D1FD4
:1030A0008EE292E0609147010E94BD1D0895DF927B
:1030B000EF92FF920F931F93EFE5F2E00190002053
:1030C000E9F73197EF55F2401E2F21C088E993E0D0
:1030D0000E94D7268A3011F08D3059F4112391F0D7
:1030E00080915F028F3269F480E692E00E942412A0
:1030F00008C0E12FF0E0E15AFD4F80831F5F1034DC
:1031000008F010E0E12FF0E0E15AFD4F108288E96D
:1031100093E00E94A626892BC9F68EE292E00E94D7
:10312000C01E882359F089E061E00E9402256AE010
:1031300070E080E090E00E94A32304C089E060E09A
:103140000E9402258BEB92E00E94F81C86E491E03D
:103150000E94610B882311F00E94F3178091A20254
:103160008F3F09F44EC00E9495237B018C01809112
:10317000A202682F70E0FB01E958FE4FE4918091B4
:10318000A3029091A402A091A502B091A602A80169
:103190009701281B390B4A0B5B0B8AE0D82EED9D5B
:1031A000C0011124A0E0B0E082179307A407B5077F
:1031B00040F5E092A302F092A4020093A5021093BE
:1031C000A602CB01019666E070E00E94352F809345
:1031D000A202E82FF0E080FD0FC0E958FE4F2491D5
:1031E0002D9D9001112440E050E086E060EA7FE0F0
:1031F0000E945B2A80E803C08091950180680E944C
:1032000079141F910F91FF90EF90DF9008951F9315
:10321000182F0E947914F999FECF1FBA88E190E027
:1032200092BD81BD10BD0FB6F894FA9AF99A0FBEFF
:103230001F910895882319F08130E9F404C0862F86
:103240000E94071908956093A702F999FECF1FBA4B
:1032500081E290E092BD81BD60BD0FB6F894FA9A0C
:10326000F99A0FBE8091C3028250853020F489E81C
:1032700091E00E946B2008958038E1F489E891E0A4
:103280000E94632089E891E06AEC72E040E150E03E
:103290000E94A62789E891E060E041E00E94E61FD5
:1032A00089E891E06BED72E040E150E00E94A627D2
:1032B00081E008958091C4020895CF93DF93EB01DC
:1032C000843011F0883071F420E030E08091A80261
:1032D0009091A902892B11F421E030E03093A902EA
:1032E0002093A80289E891E060E041E00E94E61F97
:1032F000209721F0CE0160E00E9463148091A80223
:103300009091A902892B19F484EA93E002C088EA1B
:1033100093E060E00E946314DF91CF910895EF92F3
:10332000FF920F931F93DF93CF93CDB7DEB76197D3
:103330000FB6F894DEBF0FBECDBF7801843039F4EC
:103340008091A8029091A902860F911D08C0883033
:1033500051F48091A8029091A902861B9109909343
:10336000A9028093A8028091A8029091A9028417D3
:10337000950724F45093A9024093A8028091A802D3
:103380009091A9022817390724F43093A9022093B9
:10339000A80289E891E060E041E00E94E61F8DB755
:1033A0009EB70A970FB6F8949EBF0FBE8DBFEDB7BC
:1033B000FEB731968E010F5F1F4FADB7BEB71296A5
:1033C0001C930E93119781E190E093838283F582A1
:1033D000E4828091A8029091A902978386838091CC
:1033E0006401992787FD9095918780870E943D030E
:1033F0008DB79EB70A960FB6F8949EBF0FBE8DBFCD
:1034000089E891E0B8010E94DD2861960FB6F89432
:10341000DEBF0FBECDBFCF91DF911F910F91FF9007
:10342000EF9008950F931F93182F803861F48AE668
:1034300093E061E00E946314809195018093A8025B
:103440001092A90211C0803479F42091A802309121
:10345000A9028091950190E02817390729F0822F61
:103460000E9407190E94950F812F6AE040E050E00A
:1034700024E630E004E613E00E948F198091A80250
:1034800080680E94791481E01F910F9108950F9335
:103490001F93182F803861F485E893E061E00E9463
:1034A0006314809165018093A8021092A9020FC055
:1034B000803469F42091A8023091A90280916501BD
:1034C00090E02817390719F0822F0E94820F812F70
:1034D00065E040E050E024E630E009E713E00E94B8
:1034E0008F1981E01F910F9108951F93182F803835
:1034F00051F486E993E061E00E9463141092A902FE
:103500001092A8020BC0803449F48091A8029091D7
:10351000A902892B19F081E00E948B14812F60E0B1
:1035200070E00E945D1981E01F9108950F931F9331
:10353000182F803871F488EB93E061E00E946314E7
:1035400080915201909153019093A9028093A80217
:1035500009C0803439F46091A8027091A90281E019
:103560000E942814812F6AE040E050E028EE33E00A
:103570000CEA13E00E948F1981E01F910F910895CA
:103580000F931F93182F803861F487ED93E061E06B
:103590000E946314809172018093A8021092A90284
:1035A00009C0803439F46091A8027091A90280E0CA
:1035B0000E942814812F61E040E050E024E630E0D2
:1035C00007EC13E00E948F1981E01F910F9108957D
:1035D0000F931F93082F1091C3021D508038F9F4E8
:1035E000812F0E94BB1189E891E00E946B2089E83D
:1035F00091E06AEA72E00E94DD28E12FF0E0EE0F30
:10360000FF1FE659FE4F0190F081E02D858199273B
:1036100087FD90959093A9028093A80209C08034F9
:1036200039F46091A8027091A902812F0E94D30FF2
:10363000802F61E04CE95FEF24E630E007EE13E015
:103640000E948F1981E01F910F9108951F93182FE9
:10365000803861F485EF93E061E00E94631480910B
:103660004F018093A8021092A90219C08034B9F4C6
:1036700020E08091A8029091A902892B09F021E015
:1036800080914F01281759F0222319F080E090E033
:1036900004C080914D0190914E010E94F711812F3D
:1036A00060E070E00E945D1981E01F9108950F9322
:1036B0001F93182F803871F48CE094E061E00E9431
:1036C000631480914D0190914E019093A9028093D3
:1036D000A80210C0803471F42091A8023091A90290
:1036E00080914D0190914E012817390719F0C901B9
:1036F0000E94F711812F65E040E050E028EE33E0B2
:1037000005E014E00E948F1981E01F910F91089548
:10371000803819F40E94E51505C090E08F71907013
:10372000892B11F481E008950E948E1182E00895A2
:10373000982F803809F040C08091C302853009F489
:103740006BC086E491E00E948608882309F064C07B
:1037500085E00895E0916C01F0916D01268937892B
:10376000408D518DCA01B9010E94D12E882309F4E0
:103770005EC083E00895E0916E01F0916F012689AB
:103780003789408D518DCA01B9010E94D12E8823FD
:1037900009F44DC084E00895E0917001F091710149
:1037A00026893789408D518DCA01B9010E94D12ED9
:1037B0008823E9F182E0089580914F018823D1F0B8
:1037C000943011F465E007C0983011F46BEF03C03A
:1037D000913001F56FEF772767FD70958091470174
:1037E000680F711D86E491E00E94D2080E94E515E1
:1037F00080E00895913071F460E070E0809187017D
:1038000090918801892B11F461E070E082E00E94C0
:1038100028140DC081E008958091C302823009F41C
:1038200099CF833009F4A7CF843009F4B5CF0E9433
:10383000E51581E008958BEB92E063EB72E04BEFCE
:1038400052E026E23CE10E94AE1C089580E00E9416
:1038500041249595879595958795982F8823B1F064
:103860008551873210F481E00895892F8D53873276
:1038700010F488E00895892F8D58833110F484E086
:103880000895915A973210F482E0089580E00895E7
:10389000CF92DF92EF92FF920F931F93CF93DF931C
:1038A0006C018B01CB016CE270E00E94DD02EC0147
:1038B0003FE0E32EF12CEC0CFD1CC70160E270E050
:1038C00041E250E00E94D602209779F4D8010D9091
:1038D0000020E9F71197A01BB10BA132B10510F040
:1038E000A1E2B0E0C701B80121C09E01201B310B4D
:1038F0002131310510F020E130E0C701B801A90104
:103900000E94CD02DE010D900020E9F7AC1BBD0B3B
:103910001297A031B10510F0A0E1B0E09601205E51
:103920003F4FAE014F5F5F4FC901BA01AD010E9429
:10393000CD02F60180858C3229F0C6016CE20E942E
:10394000B61C03C080E80E943C19DF91CF911F9103
:103950000F91FF90EF90DF90CF900895FC0171835D
:103960006083538342833783268308951F93CF93C5
:10397000DF93EC01162F888589872BC08C819D8170
:10398000009751F0FC0131962591349121153105B4
:1039900019F080E4F90109951887888199819D8340
:1039A0008C8306C08885981741F03496FD83EC839C
:1039B000EC81FD8194919923A9F7309779F03196A4
:1039C000259134912115310521F080E8F9010995FF
:1039D000182F123018F08885181781F60E94952349
:1039E0006B877C878D879E87DF91CF911F9108958C
:1039F000DF92EF92FF920F931F93CF93DF93EC012F
:103A0000EE81FF810995D82E0E9495237B018C01C0
:103A10008B859C85AD85BE85E81AF90A0A0B1B0BC0
:103A2000DD20D9F4EC81FD813097B9F033966491B3
:103A300070E080E090E028EE33E040E050E00E944B
:103A40000A2F611571058105910539F06E157F0505
:103A50008007910710F480E2D82E8AEFE816F1046F
:103A60000105110508F439C080E2D81621F0DA8684
:103A7000DD2009F432C00E9495236B877C878D87F7
:103A80009E878C819D81009769F0FC01319625917C
:103A900034912115310531F08D2DF9010995682FEB
:103AA0008130C1F4EA81FB812D2D30E00FC09617E3
:103AB00061F431968491319790E0822393238217A9
:103AC000930719F43296649105C0339694916885F2
:103AD000992369F7CE010E94B61CDF91CF911F9107
:103AE0000F91FF90EF90DF900895DF92EF92FF9299
:103AF0000F931F93CF93DF937C01EC0100E010E064
:103B0000DD24DA948A858F3F51F10E9495232B851D
:103B10003C854D855E85621B730B840B950B615252
:103B20007F4B82409040D8F0D7011596ED91FC91E3
:103B30001697309771F0C80123E0880F991F2A95D6
:103B4000E1F7800F911F08968E0D9F1D62E070E0D7
:103B500009958A858F3F19F0DA86198618860F5FD6
:103B60001F4F29960430110569F6DF91CF911F91FF
:103B70000F91FF90EF90DF900895DF93CF9300D0E7
:103B800000D0CDB7DEB7FC018081882391F084A5F9
:103B90008F5F84A7853068F014A68FE9898380EC55
:103BA0008A836B838FE78C83CE01019664E00E9449
:103BB00033220F900F900F900F90CF91DF910895C7
:103BC0000F931F93CF93DF938C01FC018081882397
:103BD00009F45EC0CDE1D4E0FE01219684918823F2
:103BE00019F00E941009F8CF8BEE92E0F80167817E
:103BF0004AE050E00E947828E80110E08A858F3F73
:103C0000F1F08CE20E9410098BEE92E06A854AE0A6
:103C100050E00E9478288CE20E9410098BEE92E01E
:103C20006F854AE050E00E9478288CE20E941009DB
:103C30008BEE92E068894AE050E00E9478281F5F8E
:103C400029961430D9F688E993E06AE20E94102799
:103C50006091F00262956F706A3010F4605D01C08F
:103C6000695C88E993E00E9410276091F0026F7010
:103C70006A3010F4605D01C0695C88E993E00E94DD
:103C8000102788E993E06AE00E9410271092EF0263
:103C9000DF91CF911F910F910895CF93DF93EC01A6
:103CA0008881882329F4862F0E94662281E08883F8
:103CB000DF91CF9108950F931F93CF93DF938C01E2
:103CC000EB010E949523F8016383748385839683B7
:103CD000898185FF02C092E001C090E08B8187FD61
:103CE00091608F778F3709F09460F80197830E9475
:103CF0002F22F801808787812A8182FF2FC02A3AEC
:103D000011F480E038C030E0B9016F707070605914
:103D10007140898190E08F70907044E650E0FC0122
:103D2000E49FC001E59F900DF49F900D1124680F52
:103D3000791FE4E035952795EA95E1F7C90153E04D
:103D4000880F991F5A95E1F7220F331F820F931F97
:103D5000680F791FF801718360830CC0898190E03E
:103D60008F709070982F882730E0822B932BF8016A
:103D70009183808381E0DF91CF911F910F9108950E
:103D8000EF92FF920F931F93CF93DF938C01DC018F
:103D90008C91882311F4FF2481C0FF2477C00E94F6
:103DA0009523F80161837283838394838091F10268
:103DB0009781882309F063C09F3F11F09F5F97832D
:103DC0008091F20290E08F709070880F991F880F99
:103DD000991F4091F3024295469546954370482BB2
:103DE000D801F80190E08285841729F09F5F399609
:103DF0009430C9F703C09F3F81F446C090E01A9603
:103E00008C911A978F3F21F485E0E82EF12C08C0A1
:103E10009F5F1996943099F737C0B4E0EB2EF12CE0
:103E2000292F30E0F901A3E0EE0FFF1FAA95E1F77B
:103E3000E20FF31FE00FF11F8285841719F042870C
:103E400011861086E901F3E0CC0FDD1FFA95E1F74A
:103E5000C20FD31F2896C00FD11FCE0162EF72E0B0
:103E60000E945B1E882381F0D8011596ED91FC918C
:103E70001697309749F0CE01B701099505C09923EF
:103E800019F09150F8019783FF24F3940E94F521D3
:103E9000882309F084CFC8010E94751D8F2DDF9102
:103EA000CF911F910F91FF90EF9008951092EE0225
:103EB0001092ED0284E191E09093EC028093EB028A
:103EC00008951F93CF93DF93EC01162F8C818823E5
:103ED00041F481E08C831D8288E993E064E20E94D2
:103EE00010278D8181278D8388E993E0612F0E94BF
:103EF0001027DF91CF911F910895DC0181E090E0C0
:103F000002C0880F991F6A95E2F714962C911497B6
:103F1000442311F0282B02C08095282314962C935B
:103F20001497ED91FC9111970084F185E02DCD015E
:103F300009950895EF92FF921F93CF93DF937C0131
:103F4000EB01142F0DC0FE0121964491F701A081D1
:103F5000B1812D913C91C701642FF9010995115050
:103F6000112389F7DF91CF911F91FF90EF90089572
:103F7000DC01ED91FC910480F581E02D40E0099594
:103F80000895EF92FF920F931F938C017A0167704F
:103F9000660F660F660F60640E94B81FC801B70104
:103FA00048E00E949A1FC80160E80E94B81F1F9154
:103FB0000F91FF90EF900895FC016681862F846039
:103FC00086836C60CF010E94B81F0895DC011896AB
:103FD0008C911897841710F4482F4150E42FF0E08B
:103FE000EA5DFE4F8081680F6068CD010E94B81FB6
:103FF0000895DC01ED91FC910480F581E02D41E014
:10400000099581E090E008951F93CF93DF93EC0131
:104010001FB7F8946EBD0DB407FEFDCFEA85FB8592
:1040200080819985892B808381E090E00E94FC2328
:10403000EA85FB85908189858095892380831FBFD0
:10404000DF91CF911F910895FC0164810E940420AB
:104050000895EF92FF921F937C01162F1860612F35
:104060000E940420177FC701612F0E9404201F9126
:10407000FF90EF900895607F0E94292088E290E0F1
:104080000E94FC2308950F931F93CF93DF93EC01BD
:10409000062F411144E01C81142B602F607F612B9F
:1040A000CE010E9429200295007F102BCE01612FA6
:1040B0000E94292088E290E00E94FC23DF91CF91AA
:1040C0001F910F91089562E00E94B81F80ED97E064
:1040D0000E94FC23089561E00E94B81F80ED97E0E4
:1040E0000E94FC230895CF93DF93EC01623018F017
:1040F00088E0888701C0188688858D834111846097
:104100008D8380E090E40E94FC2380E090E40E9494
:10411000FC2380E090E40E94FC23E881F981068082
:10412000F781E02DCE0160E3099584E991E10E94D9
:10413000FC23E881F9810680F781E02DCE0160E360
:10414000099586E990E00E94FC23E881F9810680C8
:10415000F781E02DCE0160E30995E881F9810680C1
:10416000F781E02DCE0160E209956D816062CE019C
:104170000E94B81F84E08E83CE010E94DC1FCE0116
:104180000E946B2082E08F83CE0166E00E94B81F00
:10419000DF91CF910895EF92FF920F931F938C01BF
:1041A000F62EE42EDC0113961C921E9212978CE1DF
:1041B00091E08D939C938BE061E00E94C3248DE09D
:1041C00061E00E94C3248AE061E00E94C3248AE087
:1041D00061E00E94022581E58CBD8F2D90E0FC01FD
:1041E000E55AFB4FE491D8011996EC931997895B36
:1041F0009B4FFC018491E82FF0E0EE0FFF1FED5C78
:10420000FB4F859194911B969C938E931A978F2DBB
:1042100061E00E94C324C80160E00E940420C8013C
:104220006E2D40E00E9473201F910F91FF90EF9040
:104230000895282F8CB581608CBD2A989EBD0DB441
:1042400007FEFDCF8EB52EBD0DB407FEFDCF4EB5DA
:10425000382F20E02A9A8CB58E7F8CBD50E0422BFF
:10426000532BCA0108950F931F9380E090E00E94A2
:104270001921192F9093000380910103843009F0D4
:1042800067C080E090EB0E941921082F8091020303
:1042900063E00E94292F9923A9F4812F90E0817077
:1042A0009070E091FF02F0E0EE0FFF1FE80FF91FA2
:1042B000E65DFE4F80818093FF0290E0806A946902
:1042C0000E941921809102038823F1F4802F90E04D
:1042D00034E0959587953A95E1F7029695958795FF
:1042E0008093FC028091FC02823020F08091FC02DD
:1042F0008B3018F082E08093FC02E091FD02F09197
:10430000FE02309709F0099580910203E82FF0E052
:10431000EE50FD4F00838F5F809302038091F10286
:10432000802790E021E387FF03C0880F822701C028
:10433000880F9F5F9830B9F78093F1029091020344
:104340008091FC02981709F04DC08DE092E848C0BA
:104350008091010387FF1EC08091FC02E091010360
:10436000EF5FE0930103E150E80FF0E0EE50FD4F06
:1043700080812091F102282790E031E327FF03C0DC
:10438000220F232701C0220F9F5F9830B9F7209397
:10439000F10223C0809101038F5F8093010381505C
:1043A0008230B1F083301CF4882379F015C0853059
:1043B00019F0863089F402C08DE20FC08091FC02B2
:1043C00081958093010384ED08C08091F10205C0BE
:1043D0008DE092E80E9419218AEA90E0805098448A
:1043E0000E9419211F910F9108958091010384303B
:1043F00021F59091FC02809102039817F1F483E07B
:104400008093010381E00895109202031092F1025B
:104410008FEF8093FC0284E080930103F89483E0A3
:104420008093FF0283EA94E90E9419218DED92E8BE
:104430000E941921789480E00895809101038330CF
:1044400019F380E00895F8941092F10285E08093CA
:1044500001038DE392E80E941921789408958091D8
:10446000FF0286950895582F792F462F6093FC02FE
:1044700022EF32E0C901652F50E00E94CD020E9478
:10448000232208952A9A229A8AE061E00E94022556
:104490008AE061E00E94C3248BE061E00E94C324B3
:1044A0008CE060E00E94C3248DE061E00E94C324A0
:1044B00080E58CBD8DB581608DBD82E060E00E949D
:1044C000C32482E061E00E94022508951F93182F03
:1044D0000E94422280E090E00E94192185E092E84B
:1044E0000E94192180E098EB02C080E090E00E94D9
:1044F000192182E00E945625892BB9F3812F90E083
:1045000054E0880F991F5A95E1F7876C90680E94D4
:104510001921123019F0133039F403C08CE796EAF0
:1045200005C080ED97EA02C080E496EA0E94192156
:1045300083E196EC0E94192182EA94E90E941921F4
:104540008CEA92EC0E94192183E89AEC0E941921CE
:1045500084ED9EEC0E94192183E894EC0E941921BD
:1045600080E598E90E94192187E79CEC0E941921B7
:1045700080E090EE0E94192180E098EC0E941921C1
:1045800089E490EC0E94192183E08093010380E08C
:1045900063E371E240E050E00E94D0221F91089551
:1045A000823000F5E82FF0E0EE0FFF1FED5FFC4FCB
:1045B00071836083882319F08130A1F408C0809151
:1045C00069008C7F842B80936900E89A089580911C
:1045D0006900440F551F440F551F837F842B809320
:1045E0006900E99A08951F920F920FB60F92112455
:1045F0002F933F934F935F936F937F938F939F93EB
:10460000AF93BF93EF93FF938091030390910403C3
:10461000892B29F0E0910303F09104030995FF91A0
:10462000EF91BF91AF919F918F917F916F915F912A
:104630004F913F912F910F900FBE0F901F901895A3
:104640001F920F920FB60F9211242F933F934F9307
:104650005F936F937F938F939F93AF93BF93EF93EA
:10466000FF938091050390910603892B29F0E09137
:104670000503F09106030995FF91EF91BF91AF916A
:104680009F918F917F916F915F914F913F912F916A
:104690000F900FBE0F901F9018951F920F920FB69C
:1046A0000F9211242F933F938F939F93AF93BF93B8
:1046B00080910B0390910C03A0910D03B0910E0318
:1046C00030910F030196A11DB11D232F2D5F2D37B2
:1046D00020F02D570196A11DB11D20930F0380934B
:1046E0000B0390930C03A0930D03B0930E038091E2
:1046F000070390910803A0910903B0910A03019662
:10470000A11DB11D8093070390930803A093090393
:10471000B0930A03BF91AF919F918F913F912F91D9
:104720000F900FBE0F901F9018958FB7F89420919F
:104730000B0330910C0340910D0350910E038FBF7A
:10474000B901CA0108959B01AC017FB7F89480912B
:10475000070390910803A0910903B0910A0366B57D
:10476000A89B05C06F3F19F00196A11DB11D7FBF29
:10477000BA2FA92F982F8827860F911DA11DB11D33
:1047800062E0880F991FAA1FBB1F6A95D1F7BC0171
:104790002DC0FFB7F8948091070390910803A09172
:1047A0000903B0910A03E6B5A89B05C0EF3F19F0D5
:1047B0000196A11DB11DFFBFBA2FA92F982F8827E1
:1047C0008E0F911DA11DB11DE2E0880F991FAA1F38
:1047D000BB1FEA95D1F7861B970B885E9340C8F202
:1047E000215030404040504068517C4F21153105E8
:1047F0004105510571F60895019739F0880F991F09
:10480000880F991F02970197F1F70895789484B55E
:10481000826084BD84B5816084BD85B5826085BDBC
:1048200085B5816085BDEEE6F0E0808181608083A2
:10483000E1E8F0E010828081826080838081816085
:104840008083E0E8F0E0808181608083E1EBF0E04C
:10485000808184608083E0EBF0E0808181608083F0
:10486000EAE7F0E0808184608083808182608083D9
:104870008081816080838081806880831092C10004
:104880000895982F8E3008F09E50977080910E01F9
:104890008295880F880F807C892B80937C00809183
:1048A0007A00806480937A0080917A0086FDFCCF44
:1048B0002091780040917900942F80E030E0282BFF
:1048C000392BC90108951F93CF93DF93182FEB0164
:1048D00061E00E94C324209709F44AC0CF3FD1056C
:1048E00009F449C0E12FF0E0E159FB4F8491833096
:1048F000C1F0843028F4813051F08230B1F50CC021
:10490000863019F1873049F1843079F514C084B5C7
:10491000806884BDC7BD33C084B5806284BDC8BD16
:104920002EC080918000806880938000D0938900A1
:10493000C093880024C080918000806280938000B2
:10494000D0938B00C0938A001AC08091B000806819
:104950008093B000C093B30012C08091B000806219
:104960008093B000C093B4000AC0C038D1051CF4D5
:10497000812F60E002C0812F61E00E940225DF915B
:10498000CF911F910895CF93DF93482F50E0CA0134
:10499000855A9B4FFC013491495B5B4FFA0184912E
:1049A000882369F190E0880F991FFC01E75DFB4FB8
:1049B000A591B491FC01ED5CFB4FC591D4916623A8
:1049C00051F42FB7F8948C91932F909589238C9361
:1049D000888189230BC0623061F42FB7F8948C91E1
:1049E000932F909589238C938881832B88832FBF65
:1049F00006C09FB7F8948C91832B8C939FBFDF9157
:104A0000CF910895482F50E0CA0181599B4FFC0176
:104A10002491CA01855A9B4FFC019491495B5B4FDD
:104A2000FA013491332309F440C0222351F1233099
:104A300071F0243028F42130A1F0223011F514C097
:104A40002630B1F02730C1F02430D9F404C0809171
:104A500080008F7703C0809180008F7D80938000DD
:104A600010C084B58F7702C084B58F7D84BD09C026
:104A70008091B0008F7703C08091B0008F7D8093CC
:104A8000B000E32FF0E0EE0FFF1FED5CFB4FA591B0
:104A9000B4912FB7F894662321F48C9190958923D3
:104AA00002C08C91892B8C932FBF0895682F70E0E2
:104AB000CB0181599B4FFC012491CB01855A9B4F1F
:104AC000FC014491695B7B4FFB019491992319F49C
:104AD00020E030E03CC0222351F1233071F024303B
:104AE00028F42130A1F0223011F514C02630B1F0A5
:104AF0002730C1F02430D9F404C0809180008F7732
:104B000003C0809180008F7D8093800010C084B5A9
:104B10008F7702C084B58F7D84BD09C08091B000BD
:104B20008F7703C08091B0008F7D8093B000892F74
:104B300090E0880F991F835C9B4FFC01A591B49175
:104B40008C9120E030E0842311F021E030E0C901B5
:104B500008951F920F920FB60F9211242F933F9337
:104B60004F938F939F93EF93FF938091C00082FDAB
:104B70001DC04091C60020915003309151032F5F1A
:104B80003F4F2F7330708091520390915303281739
:104B9000390771F0E0915003F0915103E05FFC4F51
:104BA0004083309351032093500302C08091C6008C
:104BB000FF91EF919F918F914F913F912F910F9086
:104BC0000FBE0F901F9018951F920F920FB60F9265
:104BD00011242F933F938F939F93EF93FF932091F3
:104BE0009403309195038091960390919703281731
:104BF000390731F48091C1008F7D8093C10014C0CA
:104C0000E0919603F0919703EC5AFC4F208180913C
:104C100096039091970301968F73907090939703EA
:104C2000809396032093C600FF91EF919F918F91FF
:104C30003F912F910F900FBE0F901F901895AF923C
:104C4000BF92DF92EF92FF920F931F93CF93DF9368
:104C5000EC017A018B01DD24403081EE580780E0C1
:104C6000680780E0780711F0DD24D39491E0A92E45
:104C7000B12CEC89FD89DD2069F0C50108A002C0D6
:104C8000880F991F0A94E2F7808360E079E08DE352
:104C900090E005C0108260E874E88EE190E0A80121
:104CA00097010E945C2F2150304040405040569563
:104CB00047953795279580E12030380720F0DD2093
:104CC00011F0DD24D6CFE889F9893083EA89FB89A0
:104CD000208319A2EE89FF89408121E030E0C901DB
:104CE0000C8C02C0880F991F0A94E2F7482B40836E
:104CF000EE89FF894081C9010D8C02C0880F991F80
:104D00000A94E2F7482B4083EE89FF894081C9016C
:104D10000E8C02C0880F991F0A94E2F7482B40833B
:104D2000EE89FF8980810F8C02C0220F331F0A9405
:104D3000E2F7209528232083DF91CF911F910F91D7
:104D4000FF90EF90DF90BF90AF900895DC011C962C
:104D5000ED91FC911D97E05CFF4F21913191808195
:104D60009181281B390B2F733070C9010895DC0124
:104D70001C96ED91FC911D97E05CFF4F20813181E5
:104D8000E054F040DF01AE5BBF4F8D919C911197D5
:104D90002817390719F42FEF3FEF07C08D919C9129
:104DA000E80FF91F8081282F30E0C9010895DC0148
:104DB0001C96ED91FC911D97E05CFF4F20813181A5
:104DC000E054F040DF01AE5BBF4F8D919C91119795
:104DD0002817390719F42FEF3FEF10C08D919C91E0
:104DE0001197E80FF91F20818D919C9111970196E1
:104DF0008F73907011969C938E9330E0C901089543
:104E0000DC0191968C919197882339F05496ED911D
:104E1000FC915597808186FFF9CF91961C92089559
:104E2000CF93DF93EC01EE85FF85E05CFF4F20819F
:104E30003181E054F0402F5F3F4F2F733070DF011E
:104E4000AE5BBF4F8D919C91119728173907D1F315
:104E5000E05CFF4F80819181E054F040E80FF91F42
:104E60006083EE85FF85E05CFF4F31832083EE8910
:104E7000FF89208181E090E00F8C02C0880F991F8C
:104E80000A94E2F7282B208381E089A3EC89FD892D
:104E900080818064808381E090E0DF91CF910895EC
:104EA00010929B0310929A0388EE93E0A0E0B0E08A
:104EB00080939C0390939D03A0939E03B0939F03C4
:104EC0008AE391E0909399038093980380E193E0C3
:104ED0009093A5038093A40384E593E09093A703A4
:104EE0008093A60385EC90E09093A9038093A80398
:104EF00084EC90E09093AB038093AA0380EC90E065
:104F00009093AD038093AC0381EC90E09093AF035A
:104F10008093AE0382EC90E09093B1038093B00352
:104F200086EC90E09093B3038093B20384E0809387
:104F3000B40383E08093B50387E08093B60385E0F4
:104F40008093B70381E08093B8030895CF92DF92F6
:104F5000EF92FF920F931F93CF93DF937C016B012E
:104F60008A01C0E0D0E00FC0D6016D916D01D7017C
:104F7000ED91FC910190F081E02DC7010995C80FDA
:104F8000D91F015010400115110571F7CE01DF91B5
:104F9000CF911F910F91FF90EF90DF90CF900895E8
:104FA000DC01ED91FC910190F081E02D09950895CF
:104FB000CF93DF93EC016115710519F420E030E027
:104FC0000FC0DB010D900020E9F71197A61BB70B6E
:104FD000E881F9810280F381E02DAD0109959C0102
:104FE000C901DF91CF9108954F925F927F928F9286
:104FF0009F92AF92BF92CF92DF92EF92FF920F9368
:105000001F93DF93CF93CDB7DEB7A1970FB6F89478
:10501000DEBF0FBECDBF2C01742ECB01223008F4B1
:105020002AE019A231E2C32ED12CCC0EDD1E822E35
:105030009924AA24BB24672D752FA50194010E94F1
:105040005C2F79018A01C801B701A50194010E9472
:105050000A2F472D461B0894C108D1084A3014F482
:10506000405D01C0495CF6014083E114F104010593
:10507000110521F07E2C5F2DC801DDCFC201B601E4
:105080000E94D827A1960FB6F894DEBF0FBECDBF01
:10509000CF91DF911F910F91FF90EF90DF90CF9014
:1050A000BF90AF909F908F907F905F904F900895AA
:1050B000DC012115310541F4ED91FC910190F08165
:1050C000E02D642F099508950E94F4270895EF922A
:1050D000FF920F931F939A017B0100E010E0B8014B
:1050E000A7010E9458281F910F91FF90EF900895FB
:1050F000EF92FF920F931F939A01E62EFF2400E098
:1051000010E0B801A7010E9458281F910F91FF904D
:10511000EF900895CF92DF92EF92FF920F931F933B
:10512000CF93DF93EC016A017B012115310541F436
:10513000E881F9810190F081E02D642F09951FC06D
:105140002A303105D1F477FF17C0E881F981019049
:10515000F081E02D6DE209958C0144275527BA01B5
:105160004C195D096E097F09CE012AE00E94F427DF
:105170009801280F391F04C02AE00E94F4279C01DF
:10518000C901DF91CF911F910F91FF90EF90DF90B8
:10519000CF900895EF92FF920F931F937B019A0196
:1051A0000027F7FC0095102FB801A7010E948A285C
:1051B0001F910F91FF90EF9008950E94D8270895B6
:1051C0007F928F929F92AF92BF92CF92DF92EF9297
:1051D000FF920F931F93CF93DF934C017A018B01C2
:1051E000722ECB01BA01A80197010E94D12E88230B
:1051F00021F0C40160E071E021C0C0E0D0E05701BF
:105200006801E894D7F8C601B5012FEF3FEF4FE7EB
:105210005FE70E94D12E882351F4C601B5012FEF1C
:105220003FEF4FE75FE70E94D62C181614F0C1E05D
:10523000D0E0219739F0C40164E071E00E94D827E2
:10524000EC0193C0C801B7012FEF3FEF4FE75FE4D8
:105250000E94252E181654F0C801B7012FEF3FEF1A
:105260004FE75FEC0E94D62C882324F4C40168E049
:1052700071E0E4CFC801B70120E030E040E050E049
:105280000E94D62C87FD03C0C0E0D0E00EC0D40140
:10529000ED91FC910190F081E02DC4016DE2099542
:1052A000EC0117FB109517F9109520E030E040E075
:1052B0005FE3DD240BC0CA01B90120E030E040E229
:1052C00051E40E94DA2C9B01AC01D394D71498F3DB
:1052D000C801B7010E94722C5B016C010E94472D2E
:1052E0007B018C01C401B801A7012AE030E00E94D3
:1052F0005828C80FD91F772039F0C4016CE071E03D
:105300000E94D827C80FD91FC801B7010E94732D6A
:105310009B01AC01C601B5010E94712C24C020E0A4
:1053200030E040E251E40E946E2E7B018C010E942D
:10533000422D5B016C01CC24B7FCC094DC2CC40171
:10534000B601A5012AE030E00E948A28C80FD91FC3
:10535000C601B5010E94752D9B01AC01C801B701C2
:105360000E94712C7A947720D1F6CE01DF91CF91F3
:105370001F910F91FF90EF90DF90CF90BF90AF9073
:105380009F908F907F9008950E94E028089581302B
:1053900041F0813018F08230D1F409C010926E00D3
:1053A000089580916F008D7F80936F0008958091A4
:1053B00070008D7F8093700081E08093B0008091B9
:1053C000B100887F84608093B1001092B30008958B
:1053D0001F93182F80910F01811711F09FEF06C0C6
:1053E000E3E8F4E094918FEF80930F01892F0E94FE
:1053F000C729812F60E00E9402251F9108951F9206
:105400000F920FB60F9211242F933F934F935F93F8
:105410006F937F938F939F93AF93BF93EF93FF937C
:105420008091C8039091C903A091CA03B091CB03A6
:105430000097A105B10551F1E091CC03F091CD03A6
:1054400080819091CE03892780838091C8039091B9
:10545000C903A091CA03B091CB03181619061A0606
:105460001B06C4F48091C8039091C903A091CA039C
:10547000B091CB030197A109B1098093C803909320
:10548000C903A093CA03B093CB0304C080910F015A
:105490000E94E829FF91EF91BF91AF919F918F9169
:1054A0007F916F915F914F913F912F910F900FBE20
:1054B0000F901F9018952F923F925F926F927F925C
:1054C0008F929F92AF92BF92CF92DF92EF92FF9214
:1054D0000F931F93DF93CF9300D000D0CDB7DEB7EB
:1054E000A82F1B0129833A834B835C8380910F0192
:1054F0008A1721F4E3E8F4E0549082C08F3F09F06A
:10550000DAC1A0930F01E3E8F4E054902FEF5216B4
:1055100009F4D1C181E0581639F192E0591609F425
:1055200049C0552009F06CC014BC15BC84B582601C
:1055300084BD85B5816085BD2A2F30E0F901E95B26
:10554000FB4FE491F0E0EE0FFF1FED5CFB4F859108
:1055500094919093BF038093BE03255A3B4FF9016A
:1055600084918093C0034EC01092800010928100FD
:1055700080918100886080938100809181008160AA
:10558000809381002A2F30E0F901E95BFB4FE49121
:10559000F0E0EE0FFF1FED5CFB4F8591949190932F
:1055A000C6038093C503255A3B4FF901849180932C
:1055B000C70328C01092B0001092B1008091B000D3
:1055C00082608093B0008091B10081608093B100CF
:1055D0002A2F30E0F901E95BFB4FE491F0E0EE0F98
:1055E000FF1FED5CFB4F859194919093CD038093C9
:1055F000CC03255A3B4FF90184918093CE0302C01E
:1056000057FC59C18A2F61E00E94C324552021F024
:10561000F2E05F1609F0BEC031018824992460E0F1
:1056200072E18AE790E0A40193010E947E2F590164
:105630006A01860175010894E108F1080109110960
:105640002FEFE216F1040105110509F008F499C0E5
:1056500060E472E48FE090E0A40193010E947E2F49
:1056600079018A010894E108F1080109110982E031
:105670005816C1F49FEFE916F1040105110509F070
:1056800008F484C060E970ED83E090E0A401930128
:105690000E947E2F79018A010894E108F10801092E
:1056A000110983E0AFEFEA16F1040105110509F0D5
:1056B00008F468C068E478EE81E090E0A40193010A
:1056C0000E947E2F79018A010894E108F1080109FE
:1056D0001109552011F483E01DC0B2E05B1611F0F2
:1056E00084E018C0EFEFEE16F1040105110509F092
:1056F00008F4DFC064E274EF80E090E0A40193015D
:105700000E947E2F79018A010894E108F1080109BD
:10571000110985E0FFEFEF16F1040105110591F184
:1057200088F162E17AE780E090E0A40193010E94B1
:105730007E2F79018A010894E108F1080109110915
:10574000552011F086E001C084E02FEFE216F1044D
:1057500001051105B9F0B0F0C601B50120E034E053
:1057600040E050E00E947E2F79018A010894E10810
:10577000F10801091109552011F087E008C085E002
:1057800003C081E0552019F485BD3AC082E08093C2
:10579000B10036C05101CC24DD2460E072E18AE71B
:1057A00090E0A60195010E947E2F79018A0108945C
:1057B000E108F1080109110980E0E81680E0F80627
:1057C00081E0080780E0180710F491E010C068E459
:1057D00078EE81E090E0A60195010E947E2F79018C
:1057E0008A010894E108F1080109110993E0A1E098
:1057F0005A1631F480918100887F982B9093810014
:1058000089819A81AB81BC810097A105B10529F4FA
:105810008FEF9FEFAFEFBFEF13C0220C331CB1012E
:1058200080E090E029813A814B815C810E940A2FBF
:1058300028EE33E040E050E00E945C2FC901DA011D
:10584000E1E05E16A1F0F2E05F1619F1552099F53E
:10585000E7BC8093BA039093BB03A093BC03B093BF
:10586000BD0380916E00826080936E0024C0F09230
:105870008900E09288008093C1039093C203A093B3
:10588000C303B093C40380916F00826080936F0064
:1058900012C0E092B3008093C8039093C903A09311
:1058A000CA03B093CB038091700082608093700034
:1058B00002C084E06CCF0F900F900F900F90CF91AB
:1058C000DF911F910F91FF90EF90DF90CF90BF90ED
:1058D000AF909F908F907F906F905F903F902F90B0
:1058E00008955058BB27AA270ED075C166D130F055
:1058F0006BD120F031F49F3F11F41EF45BC10EF424
:10590000E095E7FB51C1E92F77D180F3BA17620721
:1059100073078407950718F071F49EF58FC10EF494
:10592000E0950B2EBA2FA02D0B01B90190010C01AF
:10593000CA01A0011124FF27591B99F0593F50F4C7
:10594000503E68F11A16F040A22F232F342F44271F
:10595000585FF3CF469537952795A795F040539517
:10596000C9F77EF41F16BA0B620B730B840BBAF0E7
:105970009150A1F0FF0FBB1F661F771F881FC2F752
:105980000EC0BA0F621F731F841F48F48795779566
:105990006795B795F7959E3F08F0B3CF9395880F1D
:1059A00008F09927EE0F979587950895D9D008F4B8
:1059B00081E008950CD00FC107D140F0FED030F047
:1059C00021F45F3F19F0F0C0511139C1F3C014D177
:1059D00098F39923C9F35523B1F3951B550BBB27B6
:1059E000AA2762177307840738F09F5F5F4F220F63
:1059F000331F441FAA1FA9F333D00E2E3AF0E0E85C
:105A000030D091505040E695001CCAF729D0FE2FA7
:105A100027D0660F771F881FBB1F26173707480739
:105A2000AB07B0E809F0BB0B802DBF01FF279358EF
:105A30005F4F2AF09E3F510568F0B6C000C15F3F3E
:105A4000ECF3983EDCF3869577956795B795F795D7
:105A50009F5FC9F7880F911D9695879597F90895CF
:105A6000E1E0660F771F881FBB1F6217730784076B
:105A7000BA0720F0621B730B840BBA0BEE1F88F77A
:105A8000E095089504D06894B111D9C00895BCD0B0
:105A900088F09F5790F0B92F9927B751A0F0D1F017
:105AA000660F771F881F991F1AF0BA95C9F712C0A1
:105AB000B13081F0C3D0B1E00895C0C0672F782F16
:105AC0008827B85F39F0B93FCCF38695779567950D
:105AD000B395D9F73EF490958095709561957F4F79
