:100000000C9467020C946A240C9497240C94950227
:100010000C9495020C9495020C9495020C941D2B53
:100020000C9495020C9495020C9495020C949502F4
:100030000C949D090C9495020C9495020C949502D5
:100040000C94C4240C9495020C94C7260C9402279B
:100050000C9495020C9495020C9495020C949502C4
:100060000C9495020C94950208000000BE9224495D
:10007000123EABAAAA2ABECDCCCC4C3E00000080DA
:10008000BEABAAAAAA3E00000000BF000000803F4D
:100090000000000000084178D3BB4387D1133D190D
:1000A0000E3CC3BD4282AD2B3E68EC8276BED98F3A
:1000B000E1A93E4C80EFFFBE01C4FF7F3F0000007E
:1000C0000000484D50532C007265626F6F740063DE
:1000D0006F6E666967007365743F74703D00736589
:1000E000743F74743D007365743F666E3D007365C4
:1000F000743F616C3D007365743F70630073657499
:100100003F706E007365743F706964007365743F7F
:10011000706F3D007365743F6C643D007365743FA0
:100120006C623D007365743F73703D00484D4C44F4
:100130002C00484D504F00484D504400484D524D02
:1001400000484D50432C00484D414C00484D464E10
:100150002C00554349442C4865617465724D6574A3
:1001600065722C323031333130303700484D504ECB
:1001700000484D53552C000A050A050A32070F1F87
:100180001F1F1F1F1F1F1F1F00000000001C1E1F1E
:100190001F1F1F1F1F1F1F1F1F1F1F0F07000000F4
:1001A00000001F1F1F1F1F1F1F1F1F1E1C1F1F1FA1
:1001B0000000001F1F1F000000001F1F1F484D4CA4
:1001C000472C302C000EF0E10006F00000008040CB
:1001D000000040400AD7A33B0000A04000327F7FD0
:1001E0007F7F460A6400FFFF090A0B003CFA507249
:1001F0006F626520200000000000000100D8FF3879
:10020000FF00002CE17139117A7839B6AE0734005D
:10021000401C46484D4C422C002D204E6F2050690A
:10022000742050726F6265202D00252D31327325A8
:100230003364DF005069743A253364DF2563202579
:100240006325337525252563005069743A25336489
:10025000DF2563204C6964253375002A2A20414C30
:1002600041524D2048494748202A2A002A2A204145
:100270004C41524D204C4F5720202A2A00000102A9
:1002800003040501022020052006060203070706D5
:100290000602070705030402202005FF06060707DC
:1002A00005000606030705010102200020000602E2
:1002B00003070500060220200502631C0503631CDA
:1002C0000504631C0505631C0106531C0009221C60
:1002D0000A13F11B0A0DB31B0A0EB31B0A0FB31B43
:1002E0000A10B31B0A118B1B0A12611B0A14401B54
:1002F0000A16121B0A15DD1A0A18071A1400000044
:10030000000228030202090204040328040302096C
:100310000304020428020402090404030528020558
:100320000209050404092102090213132102130220
:100330001515210215021616210216020D0D2102B5
:100340000D020E0E21020E020F0F21020F021010DD
:1003500021021002111121021102121221021202B5
:10036000141421021402090000002533642525001D
:100370004C4344206272696768746E6573730073DE
:1003800070656564202533642525004D6178696DAD
:10039000756D206175746F2066616E0052657365BE
:1003A0007420636F6E6669673F004E6F2000596569
:1003B0007300253364207365636F6E6473004C694A
:1003C00064206F70656E2074696D657200253364FA
:1003D00025252062656C6F7720736574004C696415
:1003E000206F70656E206F6666736574004F666679
:1003F00073657420253464DF2563004D616E75617B
:100400006C2066616E206D6F646500253364DF25A6
:1004100063005365742074656D70657261747572E4
:10042000653A00484D52462C3235352C302C0000B0
:10043000000000240027002A0000000000250028FA
:10044000002B000000000023002600290004040403
:10045000040404040402020202020203030303036D
:10046000030102040810204080010204081020014A
:10047000020408102000000007000201000003042D
:1004800006000000000000000002494E46494E49A7
:1004900054594E414ECDCCCC3D0AD7233C17B7D151
:1004A0003877CC2B329595E6241FB14F0A000020F7
:1004B000410000C84200401C4620BCBE4CCA1B0E76
:1004C0005AAEC59D7400B30EE61CCB206E281124D5
:1004D0001FBECFEFD8E0DEBFCDBF14BEE0E6F0E038
:1004E00088E18083108211E0A0E0B1E0E2E0F2E672
:1004F00002C005900D92A634B107D9F713E0A6E427
:10050000B1E001C01D92AA3EB107E1F714E0CEECC4
:10051000D4E004C02297FE010E94B930C63CD10746
:10052000C9F70E942B0E0C94FF300C940000662734
:1005300077270C944E05FC0188279927E894219190
:100540002032E9F3293010F02E30C8F32B3241F07D
:100550002D3239F4689404C00E943803820F911D33
:10056000219120532A30C0F31EF4909581959F4F1E
:100570000895FB01DC0102C005900D9241505040EE
:10058000D8F70895FB01DC014150504030F08D91C7
:100590000590801919F40020B9F7881B990B08956C
:1005A000FB01DC0102C001900D9241505040D8F790
:1005B0000895DC0101C06D9341505040E0F708956B
:1005C000FC018191861721F08823D9F79927089596
:1005D0003197CF010895A0E0B0E0E1EFF2E00C9494
:1005E000D2307C01EB018A01690109C0CE0121965C
:1005F000F6010995F70181937F0101501040011523
:100600001105A1F7CDB7DEB7E8E00C94EE30A0E01D
:10061000B0E0EDE0F3E00C94D230EC017B018A0114
:10062000690109C0CE012196F70161917F01F601B0
:1006300009950150104001151105A1F7CDB7DEB79E
:10064000E8E00C94EE30DF92EF92FF920F931F934D
:10065000D72E7A018C01FA010995C80101966D2DFA
:10066000F70109951F910F91FF90EF90DF9008958A
:100670007AE0979F902D879F802D910D11240895EA
:10068000AEE0B0E0E6E4F3E00C94D6300D891E89CC
:100690008F89988D97FF02C080E090E801979E8334
:1006A0008D831A8309838EE08C839E01255E3F4FE4
:1006B000CE010196698D7A8DA9010E9471034D8149
:1006C0005E8157FD0AC02F813885421753070CF40D
:1006D0009A01020F131FF80110822E96E4E00C9489
:1006E000F230ABE0B0E0E7E7F3E00C94C8303C0157
:1006F0002B015A01FC0117821682838181FD03C000
:100700006FEF7FEFC6C19AE0892E1E010894211C6D
:10071000311CF3012381F20123FD859123FF819197
:100720002F01882309F4B2C1853239F423FD859164
:1007300023FF81912F01853229F490E0B3010E94BB
:10074000DC06E7CF982FFF24EE249924FFE1FF1564
:10075000D0F09B3269F09C3228F4903259F09332F9
:1007600091F40EC09D3249F0903369F441E024C009
:1007700052E0F52A84E0F82A28C098E0F92A25C03A
:10078000E0E1FE2A22C0F7FC29C0892F80538A307D
:1007900070F4F6FE05C0989C902C1124980E15C09C
:1007A000E89CE02C1124E80EF0E2FF2A0EC09E32F5
:1007B00029F4F6FC6BC140E4F42A07C09C3619F416
:1007C00050E8F52A02C0983649F4F20123FD9591CC
:1007D00023FF91912F01992309F0B8CF892F8554D8
:1007E000833018F08052833038F444E050E0A40E97
:1007F000B51E5FE359830FC0933631F0933779F01C
:10080000933509F056C020C0F5018081898342E00C
:1008100050E0A40EB51E610101E010E012C0F50128
:10082000C080D180F6FC03C06FEF7FEF02C0692D5E
:1008300070E042E050E0A40EB51EC6010E94D10651
:100840008C015FE7F52214C0F501C080D180F6FC71
:1008500003C06FEF7FEF02C0692D70E042E050E00F
:10086000A40EB51EC6010E94C6068C0150E8F52AEA
:10087000F3FE07C01AC080E290E0B3010E94DC06DC
:10088000EA948E2D90E008171907A8F30EC0F60120
:10089000F7FC8591F7FE81916F0190E0B3010E9412
:1008A000DC06E110EA94015010400115110579F7BA
:1008B000EAC0943611F0993669F5F7FE08C0F501E3
:1008C000208131814281538184E090E00AC0F501AA
:1008D000808191819C01442737FD4095542F82E00F
:1008E00090E0A80EB91E9FE6F92257FF09C0509567
:1008F0004095309521953F4F4F4F5F4FE0E8FE2ADE
:10090000CA01B901A1012AE030E00E940807D82EEF
:10091000D21840C0953729F41F2D1F7E2AE030E001
:100920001DC01F2D197F9F3661F0903720F4983538
:1009300009F0ACC00FC0903739F0983709F0A6C065
:1009400004C028E030E00AC0106114FD146020E10A
:1009500030E004C014FD166020E132E017FF08C04B
:10096000F501608171818281938144E050E008C08B
:10097000F50180819181BC0180E090E042E050E08F
:10098000A40EB51EA1010E940807D82ED2188FE729
:10099000F82EF122F6FE0BC05EEFF522D91438F4E2
:1009A000F4FE07C0F2FC05C08FEEF82202C01D2D38
:1009B00001C0192DF4FE0DC0FE01ED0DF11D808169
:1009C000803319F499EEF92208C01F5FF2FE05C0CA
:1009D00003C08F2D867809F01F5F0F2DF3FC14C024
:1009E000F0FE0FC01E1510F09D2C0BC09D2C9E0C10
:1009F000911A1E2D06C080E290E0B3010E94DC0631
:100A00001F5F1E15C0F304C01E1510F4E11A01C0CB
:100A1000EE2404FF0FC080E390E0B3010E94DC06E7
:100A200002FF1DC001FD03C088E790E00EC088E50D
:100A300090E00BC0802F867891F001FF02C08BE21E
:100A400001C080E2F7FC8DE290E0B3010E94DC0679
:100A500006C080E390E0B3010E94DC069A94D914AA
:100A6000C0F3DA94F101ED0DF11D808190E0B30146
:100A70000E94DC06DD20A9F706C080E290E0B30109
:100A80000E94DC06EA94EE20C1F743CEF3016681B2
:100A90007781CB012B96E2E10C94E430A0E0B0E04A
:100AA000E4E5F5E00C94CE30EC015B0161157105D5
:100AB00019F0FB0191838083F9908F2D90E00E94C3
:100AC000BD30892BC9F7FDE2FF1621F4F990EE2421
:100AD000E39405C02BE2F21609F4F990EE248E019E
:100AE00001501040C8016AE874E043E050E00E9401
:100AF000AE06892B01F58E010E5F1F4FC8016DE810
:100B000074E045E050E00E94AE06892B19F48E0196
:100B1000095F1F4FA114B10419F0F501118300837F
:100B2000E0FC04C070E090E080E814C070E090E069
:100B300080E86FEF08C1C80162E974E043E050E06B
:100B40000E94AE06892B69F4A114B10429F470E067
:100B500090E080EC6FE7F7C02296F501D183C08367
:100B6000F6CF8824992440E050E060E070E0EF2D5B
:100B7000E053EA30A0F5F2E0EF2A8E2D90E09C01E0
:100B800028703070E2FE06C0232B79F50894811C92
:100B9000911C2BC0232B19F0089481089108DB01CC
:100BA000CA0112E0880F991FAA1FBB1F1A95D1F71F
:100BB000480F591F6A1F7B1F440F551F661F771F61
:100BC0004E0F511D611D711D483929E9520729E950
:100BD000620729E1720748F084E0E82A06C0EE3F88
:100BE00031F4E3FC39C098E0E92AF990C0CFE5334D
:100BF00011F0E53189F529912D3219F4E0E1EE2A61
:100C000005C02B3219F081E090E003C0299182E009
:100C100090E0E22FE053EA3018F0C81BD90B1CC05B
:100C200020E030E0FCE020383F075CF4C901880F89
:100C3000991F880F991F280F391F220F331F2E0F5E
:100C4000311DE991E053EA3068F3E4FE03C03095CA
:100C500021953F4F820E931ECE2CDD24E1FE07C06E
:100C6000A114B10421F02197F501D183C083CB01F8
:100C7000BA010E94912E7B018C01F3E0CF22DD248A
:100C800023E0C216D10421F417FB109517F9109533
:100C900057016801C801B70120E030E040E050E0B2
:100CA0000E94F42D882309F44AC097FE0DC029EA5A
:100CB000E22E24E0F22E9094819491089394C0E265
:100CC000D0E000E010E012C091ECE92E94E0F92EA3
:100CD000F6CFF7012591359145915491C601B501A3
:100CE0000E948C2F5B016C018C1A9D0A8C169D064C
:100CF00084F7D595C7950F5F1F4F0630110529F072
:100D00008CEF9FEFE80EF91EF1CFC501D6017C01F3
:100D10008D018C2D880F8D2D881F8F3F51F0C601BE
:100D2000B50120E030E040E050E00E94F42D88233F
:100D300031F482E290E09093E9038093E8037E2D02
:100D40009F2D802F612F272F392F482F562FB90124
:100D5000CA01CDB7DEB7ECE00C94EA30FB01DC0150
:100D60004150504088F08D9181341CF08B350CF44B
:100D7000805E659161341CF06B350CF4605E861BFF
:100D8000611171F3990B0895881BFCCFFC0105904C
:100D9000615070400110D8F7809590958E0F9F1F7D
:100DA0000895FC016150704001900110D8F78095C2
:100DB00090958E0F9F1F08950F931F93CF93DF93EE
:100DC0008C01EB018B8181FF1BC082FF0DC02E8146
:100DD0003F818C819D812817390764F4E881F9816E
:100DE0000193F983E88306C0E885F985802F09958A
:100DF000892B31F48E819F8101969F838E8302C05F
:100E00000FEF1FEFC801DF91CF911F910F91089550
:100E1000FA01AA27283051F1203181F1E8946F932B
:100E20006E7F6E5F7F4F8F4F9F4FAF4FB1E03ED0D1
:100E3000B4E03CD0670F781F891F9A1FA11D680F6F
:100E4000791F8A1F911DA11D6A0F711D811D911DA2
:100E5000A11D20D009F468943F912AE0269F112417
:100E60003019305D3193DEF6CF010895462F47707B
:100E7000405D4193B3E00FD0C9F7F6CF462F4F70D6
:100E8000405D4A3318F0495D31FD4052419302D034
:100E9000A9F7EACFB4E0A6959795879577956795DA
:100EA000BA95C9F700976105710508959B01AC01DA
:100EB0000A2E06945795479537952795BA95C9F701
:100EC000620F731F841F951FA01D0895FC01808170
:100ED00091811816190674F4861797071CF481E09F
:100EE000868308C0681779072CF48681882311F05F
:100EF00081E08483228133811216130684F4C901B0
:100F00000197681779071CF481E0878308C062178E
:100F100073072CF08781882311F081E0858380910D
:100F20008C0190918D01892B11F015821482089506
:100F3000A62FB0E0FC01EA0FFB1F168214824115B8
:100F4000510531F0AA0FBB1FA80FB91F4D935C9339
:100F50000895FC01608380E090E0A0ECBFE7868B01
:100F6000978BA08FB18F828F938FA48FB58F0895A9
:100F7000FC01648313821282118280E090E0A0EC75
:100F8000BFE7868B978BA08FB18F828F938FA48FB3
:100F9000B58F0895FC016115710519F41382128251
:100FA0000EC08181882319F47383628308C0828113
:100FB0009381009721F0860F971F9383828381810D
:100FC0008F5F81830895EF92FF920F931F93CF93CA
:100FD000DF93EC017A018B01CB01BA0120E030E014
:100FE00040EA51EC0E94F42D181654F4C801B701E0
:100FF00020E030E04AEF53E40E94432F18164CF4EF
:1010000080E090E0A0ECBFE78E8B9F8BA88FB98F1C
:101010002FC080916701863499F4C801B70126E694
:1010200036E646EE5FE30E948C2F20E030E040E0A1
:1010300052E40E94902D6E8B7F8B888F998F04C015
:10104000EE8AFF8A088F198F6D81772767FD70956B
:10105000872F972F0E94932E9B01AC016E897F8969
:10106000888D998D0E94902D6E8B7F8B888F998FA4
:10107000DF91CF911F910F91FF90EF900895109203
:10108000800082E08093810084E080936F00089567
:10109000DC0120E09996ED91FC919A978481861766
:1010A00009F421E09B96ED91FC919C978481861731
:1010B00009F42F5F9D96ED91FC919E978481861790
:1010C00009F42F5F9F96ED91FC91D097848186174C
:1010D00009F42F5F822F90E00895FC0180A582FF24
:1010E00006C08281843618F460E0862F089592A1AC
:1010F0008281989FC001112464E670E00E94533001
:10110000F4CF1F93CF93DF93EC01EBA5FCA52689C9
:101110003789408D518DCA01B9010E94EF2F882374
:10112000C9F0EDA5FEA526893789408D518DCA01EC
:10113000B9010E94EF2F882369F0EFA5F8A926894D
:101140003789408D518D10E0CA01B9010E94EF2FFF
:10115000882309F411E0812FDF91CF911F91089529
:10116000FC0185859685EA5BFF4F91838083E65479
:10117000F04017820895FC017187608717821286FC
:1011800080E090E0A0E0B0E0878B908FA18FB28FDD
:10119000EA5BFF4F118210820895FC0181E0828793
:1011A00077FF02C060E005C06536710514F064E6A3
:1011B00070E062830895FC01CB016E31710510F47B
:1011C0008EE190E0968785870895CF93DF93EC01B9
:1011D000E62FF0E0EE0FFF1FEE0FFF1FE80FF91FE5
:1011E00022AB33AB44AB55AB623041F480E090E0CE
:1011F000A0E0B0E08F8B988FA98FBA8FDF91CF914D
:101200000895FC01633449F064341CF4613431F412
:1012100004C0663411F0623509F461A308951F9388
:10122000182F80910803882351F481E080930803EC
:101230001092090381EB93E064E20E942E288091D2
:10124000090381278093090381EB93E0612F0E94BA
:101250002E281F910895EF92FF920F931F93CF9323
:10126000DF938C01FC01E1A4F2A4F7012689378900
:10127000408D518DCA01B9010E94EF2F882309F0DA
:1012800055C0C2ECD0E0FE0121968491882319F06C
:101290000E940F09F8CFE80110E04F85588969894D
:1012A0007A8984E093E022E030E00E94E22A8CE236
:1012B0000E940F091F5F2496143079F7F7016689A1
:1012C0007789808D918D228D338D448D558D0E942F
:1012D0008F2DAB01BC0184E093E022E030E00E945E
:1012E000E22A81EB93E06AE20E942E2860910903D2
:1012F00062956F706A3010F4605D01C0695C81EBCB
:1013000093E00E942E28609109036F706A3010F4F8
:10131000605D01C0695C81EB93E00E942E2881EB47
:1013200093E06AE00E942E2810920803DF91CF918B
:101330001F910F91FF90EF9008951F920F920FB69B
:101340000F9211242F933F934F935F936F937F934B
:101350008F939F93AF93BF93EF93FF9380918400FC
:101360009091850080549C4960F48091470160E031
:101370000E94202680E49CE990938B0080938A0051
:1013800011C08091470161E00E9420268091650193
:101390009091660190938B0080938A001092850053
:1013A00010928400FF91EF91BF91AF919F918F9127
:1013B0007F916F915F914F913F912F910F900FBE51
:1013C0000F901F901895BF92CF92DF92EF92FF92ED
:1013D0000F931F93CF93DF93EC016885798584E0A9
:1013E00093E04AE050E00E94E8298CE20E940F0955
:1013F000E9E2CE2ED12CCC0EDD1EBB24D601ED9120
:10140000FC91E688F788008D118DC801B701A8010D
:1014100097010E94EF2F882349F484E093E0B801FC
:10142000A70121E030E00E94E22A03C085E50E9486
:101430000F098CE20E940F09B39482E090E0C80E7D
:10144000D91E94E0B916D1F684E093E06A814AE0AF
:1014500050E00E9496298CE20E940F09CE5BDF4F7C
:1014600069917991899199910E94602E9B01AC01BB
:1014700084E093E0B9014AE050E00E94E8298CE260
:101480000E940F096881798184E093E04AE050E08E
:101490000E948529DF91CF911F910F91FF90EF90CE
:1014A000DF90CF90BF900895FC01842F608341832B
:1014B00090E8938796E491A3EE5BFF4F20E030E045
:1014C00040EC5FE7208331834283538361E00E94D5
:1014D000E1250895AF92BF92CF92DF92EF92FF92F3
:1014E0000F931F93CF93DF93EC016981662309F477
:1014F000B5C08A819B8170E00E9453308B011982B4
:10150000B090670181E4B81649F480E090E00E9451
:10151000912E6E8B7F8B888F998F1FC161157105FE
:1015200009F494C08C81833041F5CA88DB88EC884B
:10153000FD88C701B60120E030E048EC52E40E948B
:10154000F42D882354F460E070E48EE495E4A70160
:1015500096010E94F82D6B017C01B80180E090E0BB
:101560000E94912E20E038EF4FEF55E40E94F82DB5
:10157000A70196010E948C2FE4C080E090E00E94B9
:10158000912E9B01AC0160E078EF8FEF95E40E9413
:10159000F82D20E030E040E85FE30E948F2D9B01B2
:1015A000AC016A897B898C899D890E94F82D7B0119
:1015B0008C01F80182E5B81609F096C080916F01A0
:1015C00090917001C817D90709F48EC0C701D801DE
:1015D0008E8B9F8BA88FB98FC0C0C801B70120E048
:1015E00030E04AEF53E40E94432F18167CF186E462
:1015F000B81699F4C801B70126E636E646EE5FE371
:101600000E948C2F20E030E040E052E40E94902DB8
:101610006E8B7F8B888F998F04C0EE8AFF8A088F2C
:10162000198F6D81772767FD7095872F972F0E94FF
:10163000932E9B01AC016E897F89888D998D0E94C4
:10164000902D6E8B7F8B888F998F08C080E090E003
:10165000A0ECBFE78E8B9F8BA88FB98FEE88FF8899
:10166000088D198DC801B701A80197010E94EF2FBD
:101670008823A9F5AA8CBB8CCC8CDD8CC601B50166
:10168000A60195010E94EF2F882329F0EA8EFB8E98
:101690000C8F1D8F16C0C801B701A60195010E94CD
:1016A0008F2D2AE83BE446E05DE30E948C2F9B01EE
:1016B000AC01C601B5010E94902D6A8F7B8F8C8F83
:1016C0009D8F6E897F89888D998D0E94602E9B01E8
:1016D000AC016E96CE01B9010E9466073EC01CA205
:1016E0001AA21DA21BA239C0CF010E944C2F7B0160
:1016F0008C012E853F85488959890E948C2FA8012D
:1017000097010E948C2F2A853B854C855D850E9420
:10171000902DA80197010E948C2F2E813F81488532
:1017200059850E94902D9B01AC0160E070E080E83B
:101730009FE30E94F82D23E333E948E853E40E9435
:101740008F2D7B018C0120E030E040EA51EC0E94BB
:10175000F42D18160CF07ACF40CFDF91CF911F9166
:101760000F91FF90EF90DF90CF90BF90AF900895D2
:10177000FF920F931F93CF93DF93EC0100E010E0F3
:10178000A0E4FA2E88810E945F259C0101978E5F5C
:10179000934068F4020F131FFA94A1F79801F3E045
:1017A00036952795FA95E1F72115310519F41B8235
:1017B0001A820BC08981882331F08A819B8100972E
:1017C00021F0280F391F3B832A8389818F5F89830A
:1017D000DF91CF911F910F91FF9008958F929F926B
:1017E000AF92BF92CF92DF92EF92FF920F931F932F
:1017F000CF93DF93EC010E940C252B813C81621B6F
:10180000730B6D37710508F4E3C10E940C256B83DF
:101810007C838D839E838FA1882331F06EA1888184
:1018200070E00E9481251FA219E2E12EF12CEC0E3E
:10183000FD1E8701DD24D801ED91FC91848181306A
:1018400011F0833019F4CF010E94B80BD3940E5FCE
:101850001F4FB4E0DB1679F78B858F5F8B8788305D
:1018600008F4B6C11B8610E0F701819191917F01C8
:101870000E946A0A1F5F1430B9F78A85882309F02D
:1018800009C19A801A82E9A5FAA5A688B788C08CF2
:10189000D18CC601B501A60195010E94EF2F8823C6
:1018A00009F08EC0CA5BDF4F88819981C654D04051
:1018B000892B09F085C068857985882777FD809513
:1018C000982F0E94932EA60195010E948F2D7B01D7
:1018D0008C016EA97FA988AD99ADA80197010E94DE
:1018E0008C2F6B8B7C8B8D8B9E8BC801B70120E07E
:1018F00030E040E050E00E94432F18161CF4F3E65D
:10190000F91560F4C801B70120E030E040E050E094
:101910000E94F42D8823B4F49920A1F0C801B701E6
:101920002AAD3BAD4CAD5DAD0E948C2F9B01AC014F
:101930006F89788D898D9A8D0E94902D6F8B788F0D
:10194000898F9A8FE9A5FAA5628D738D848D958D07
:10195000A60195010E948F2D9B01AC01EE96688136
:1019600079818A819B81EE970E948C2F7B018C016B
:101970006B8F7C8F8D8F9E8F6AA97BA98CA99DA967
:101980006F87788B898B9A8B2B893C894D895E89EF
:101990000E94902D2F89388D498D5A8D0E94902D4F
:1019A000A80197010E94902D0E94602E77FF02C02F
:1019B00060E005C06536710514F064E670E06A8386
:1019C000E9A5FAA566897789808D918D0E94602EA0
:1019D000AB01688579854617570734F18D859E855B
:1019E000CA5BDF4F28813981C654D040821B930BDC
:1019F0004F97D0F08F81882381F481E08F836F89A6
:101A0000788D898D9A8D20E030E040E85EE30E9479
:101A10008C2F6F8B788F898F9A8FCA5BDF4F1982DB
:101A20001882C654D04036C08E010A5B1F4FD801C1
:101A30008D919C911197009721F001978D939C9324
:101A400029C08F81882331F19B01241B350B84E64B
:101A500090E0FC012E9FC0012F9F900D3E9F900DA6
:101A600011240E94673089A990E06817790794F0E3
:101A7000FE01EE5BFF4F60817181828193810E9444
:101A8000602E6A35710534F48D859E85D8018D935D
:101A90009C931F826A8170E080E090E00E94912E0A
:101AA0005B016C01B2E48B2E912C8C0E9D1EF40117
:101AB000E080F18002811381C801B701A80197017C
:101AC0000E94EF2F882339F0D401AD92BD92CD92C0
:101AD000DC92139717C0C601B501A80197010E94B7
:101AE0008F2D21E837EF47E05CE30E948C2F9B01AC
:101AF000AC01C801B7010E94902DF401608371838D
:101B000082839383CE010E946D08982F2BA18217A8
:101B100010F01C8616C03C858AE0989FC0011124F5
:101B2000622F70E00E945330832F90E08617970752
:101B300008F020E0832F8F5F8C878A3008F01C86A6
:101B4000922F88A580FF03C08AA1891B982F8FEF51
:101B5000989FC001112464E670E00E945330162F54
:101B6000888170E00E9481258EA1882341F4112391
:101B700031F0888161E00E94202681E08FA31EA3BE
:101B800088A583FF33C08A81882381F144E688A534
:101B900081FF03C084E6841B482F2DA150E08CA157
:101BA00090E0821B9109BC01469FC001479F900DA8
:101BB000569F900D112464E670E00E945330260F6A
:101BC00084E1289F9001112438A32F8F81E001C068
:101BD00080E0DF91CF911F910F91FF90EF90DF9008
:101BE000CF90BF90AF909F908F9008954A81CFCFB4
:101BF000CF93DF93FC01DB011D968C911D978483AD
:101C00001E968C911E9785839F012A5F3F4FAB01E3
:101C10004B5E5F4F80E1EA010990AE01E901099254
:101C20009E018150C1F71F968D919C91509714A2EF
:101C300012A2009711F0978F868F51966D917C912B
:101C4000529715A213A26115710511F071A360A33B
:101C5000DF91CF9108950E9424250E94F0150E94E3
:101C60001E19FDCF9C01F999FECF32BD21BDF89A16
:101C700080B508959C01F999FECF1FBA32BD21BDF0
:101C800060BD0FB6F894FA9AF99A0FBE0895982F8E
:101C90008430D8F4E82FF0E0EE0FFF1FEA5BFE4F30
:101CA00001A4F2A5E02D6583F999FECF1FBA85E264
:101CB000989FC0011124825B90E092BD81BD60BD00
:101CC0000FB6F894FA9AF99A0FBE08958230F1F09F
:101CD000833030F4882351F0813009F03EC00EC0CB
:101CE0008330E1F0843009F038C028C06093690186
:101CF000F999FECF1FBA8EE190E017C0609368019A
:101D0000F999FECF1FBA8FE190E00FC060936B018D
:101D1000F999FECF1FBA87E290E007C060936A018D
:101D2000F999FECF1FBA88E290E092BD81BD60BDF7
:101D30000FB6F894FA9AF99A0FBE089560936E015F
:101D4000F999FECF1FBA80E290E092BD81BD60BDDF
:101D50000FB6F894FA9AF99A0FBE0895882311F4F1
:101D60006093B80208958BE991E065E00E94A907AD
:101D700081EC91E064E00E94A90787EE91E063E0C6
:101D80000E94A9078DE092E062E00E94A90786E424
:101D900091E063E048E00E94540A8EE891E064E03C
:101DA00042E00E9442228BEF9EE0909339028093A2
:101DB000380280E880933A02EDE3F2E08FEF80830F
:101DC000399692E0E136F907D1F78CEE9EE09093D8
:101DD0007302809372020895282F462F882321F4DE
:101DE00089E00E942026089521508EE891E0622F1C
:101DF0000E94F2200895BF92CF92DF92EF92FF925D
:101E00000F931F93CF93DF936C01B62E0FE611E073
:101E100024E7E22E22E0F22EF801C081D1818C81EC
:101E2000823071F5F70190819F3721F0F6018281B0
:101E3000981731F5F4E0BF1621F4CE0160E070E0B0
:101E40001DC0F60187812081318182FF13C0B90155
:101E5000882777FD8095982F0E94932E20E030E010
:101E600040E251E40E94F82DAB01BC01CE010E947A
:101E7000E30706C0220F331FCE01B9010E94CA0733
:101E80000E5F1F4F0894E11CF11CF1E007371F079C
:101E900019F685E0B82221F083E392E00E94591FF1
:101EA000DF91CF911F910F91FF90EF90DF90CF9036
:101EB000BF900895EF92FF921F93CF93DF93EC01B1
:101EC0007B0110E013C08C3219F41F5F21960EC005
:101ED000CE010E949B02BC01812FF701099501C030
:101EE00021968881882311F08C32D1F7888188234C
:101EF00051F7DF91CF911F91FF90EF900895CF930D
:101F0000DF93EC01FE0121968491882319F00E9451
:101F10000F09F8CFDF91CF9108958CE20E940F094D
:101F2000089581EB93E06AE20E942E2860910903F4
:101F300062956F706A3010F4605D01C0695C81EB7E
:101F400093E00E942E28609109036F706A3010F4AC
:101F5000605D01C0695C81EB93E00E942E2881EBFB
:101F600093E06AE00E942E281092080308950F93D0
:101F70001F938CE291E00E947F0F04E013E0C80100
:101F8000609177014AE050E00E9496290E948D0FEF
:101F90006091530170915401C8014AE050E00E94E1
:101FA00085290E94910F1F910F9108950F931F9300
:101FB000CF93DF938CE391E00E947F0FCFE6D1E0D7
:101FC00004E712E00E948D0FE881F981848182305C
:101FD00041F484E093E0F80160814AE050E00E941F
:101FE000962922960F5F1F4FF1E0C737DF0751F7A1
:101FF0000E94910FDF91CF911F910F9108950F9340
:102000001F938CE491E00E947F0F04E013E0C8016D
:10201000609169014AE050E00E9496290E948D0F6C
:10202000C801609168014AE050E00E9496290E9430
:102030008D0FC80160916B014AE050E00E94962923
:102040000E948D0FC80160916A014AE050E00E9431
:1020500096290E948D0FC80160916E014AE050E000
:102060000E9496290E94910F1F910F910895282F89
:1020700080936801F999FECF1FBA8FE190E092BD7D
:1020800081BD20BD0FB6F894FA9AF99A0FBE0E944E
:10209000FF0F0895CF93DF9383E192E00E947F0FBB
:1020A00084E093E060919A014AE050E00E94962912
:1020B0000E948D0F84E093E06091C0024AE050E0FE
:1020C0000E949629C0E6D2E00E948D0F84E093E042
:1020D00068814AE050E00E949629239682E0CC363F
:1020E000D80791F70E94910FDF91CF910895CF9378
:1020F000DF9382E391E00E947F0FCFE6D1E00E9460
:102100008D0FE991F9916581772767FD709584E0DE
:1021100093E04AE050E00E94E82981E0C737D80701
:1021200071F70E94910FDF91CF910895982F84301D
:10213000D8F4E82FF0E0EE0FFF1FEA5BFE4F01A49A
:10214000F2A5E02D6583F999FECF1FBA85E2989F2D
:10215000C0011124825B90E092BD81BD60BD0FB6CD
:10216000F894FA9AF99A0FBE0E94771008950F9387
:102170001F93CF93DF9387E491E00E947F0F0FE6D8
:1021800011E0F801C081D1810E948D0F6E8D7F8D8D
:1021900084E093E04AE050E00E94E8298AA1882385
:1021A00019F08CE40E940F090E948D0F68A179A19B
:1021B00084E093E04AE050E00E94E8298BA1882364
:1021C00019F088E40E940F090E5F1F4FF1E00737F6
:1021D0001F07B9F60E94910FDF91CF911F910F91C8
:1021E0000895CF93DF9387E391E00E947F0FC8E7C4
:1021F000D1E00E948D0F499159916991799184E0C4
:1022000093E028E030E00E94E22A81E0C838D80755
:1022100081F70E94910FDF91CF9108959F92AF9225
:10222000BF92CF92DF92EF92FF920F931F93CF93C3
:10223000DF93182F81E491E00E947F0F84E093E008
:10224000612F4AE050E00E9496290E948D0FE12FF5
:10225000F0E0EE0FFF1FEA5BFE4FA1A4B2A4E50180
:10226000CC24EE80FF80088519859924C801B70128
:1022700020E030E040E050E00E94F42D882334F468
:102280009924939417FB109517F91095DD240BC032
:10229000DA94C801B70120E030E040E251E40E9446
:1022A0008C2F7B018C01C801B70120E030E040E8B1
:1022B0005FE30E94F42D87FDEBCF0BC0D394C801E0
:1022C000B70120E030E040E251E40E94F82D7B01AC
:1022D0008C01C801B70120E030E040E251E40E94E7
:1022E000432F87FFEBCF992021F017FB109517F9AB
:1022F000109584E093E0B801A70127E030E00E9448
:10230000E22A85E60E940F096D2D772767FD7095FB
:1023100084E093E04AE050E00E94E8290E948D0F9B
:10232000C394249684E0C81609F09BCF84E093E020
:10233000F50164814AE050E00E9496290E94910FC5
:10234000DF91CF911F910F91FF90EF90DF90CF9091
:10235000BF90AF909F90089586E491E062E00E9464
:102360004808892B29F083E392E063E00E94C61FAE
:102370000895E82FF0E0EC58FD4F6083F999FECF07
:102380001FBA90E0499692BD81BD60BD0FB6F8942A
:10239000FA9AF99A0FBE0E94D60F0E94AC110895C6
:1023A00082E591E00E947F0F84E093E062E40E9466
:1023B000EE280E94910F08950F931F93DF93CF9300
:1023C00000D0CDB7DEB7AB017A836983082F0695BD
:1023D000182F1170E02FF0E0EE0FFF1FEA5BFE4FA9
:1023E00081A592A54E96612F0E9498070430B0F403
:1023F00089819A81892B91F0110F85E2089FC00194
:102400001124180F812F815B90E0BE016F5F7F4F19
:1024100042E050E02AE33EE00E9407030F900F9055
:10242000CF91DF911F910F9108958091BA0260E0E2
:1024300070E00E94DC110E94B710089581E791E0DE
:102440000E947F0F86E491E00E94E3090E94910FB1
:102450000895843070F465E2869FB0011124605CB9
:1024600083EC92E070E04DE050E022E33EE00E9419
:10247000EB0208951F938CE691E00E947F0F10E01D
:10248000812F0E9429120E948D0F84E093E063EC5B
:1024900072E00E94FB291F5F143091F70E94910F98
:1024A0001F910895982F843060F485E2989FC001B1
:1024B0001124805C90E04DE050E02AE33EE00E9471
:1024C00007030E943A120895CF93DF93EC01181688
:1024D000190674F482E090E0BE014AE35EE00E94D7
:1024E000230386E491E0BE010E94BB0820E009C0FE
:1024F00066277727681B790B86E491E00E94CD0858
:1025000021E0F999FECF1FBA87E190E092BD81BD2D
:1025100020BD0FB6F894FA9AF99A0FBEDF91CF91C9
:1025200008958F929F92AF92BF92CF92DF92EF92D7
:10253000FF920F931F93CF93DF93EC01FC01019067
:102540000020E9F731971E2F181B64E271E047E085
:1025500050E00E94C202892B11F5CE0107960E941D
:102560009B020E946412C10FD11D2197088186E44D
:1025700091E0602F0E940109033419F0063409F03C
:10258000C9C1F999FECF1FBA8DE190E092BD81BD1E
:1025900000BD0FB6F894FA9AF99A0FBEBBC1CE01EE
:1025A0006CE171E047E050E00E94C202892B49F4DF
:1025B000CE01079667EC79E10E945A0F0E944A10FB
:1025C000A9C1CE0164E171E047E050E00E94C2027F
:1025D000892B49F4CE01079667E974E10E945A0FEE
:1025E0000E94B70F97C1CE016CE071E047E050E068
:1025F0000E94C202892B49F4CE01079667E47EE06F
:102600000E945A0F0E94771085C1CE0164E071E0EC
:1026100047E050E00E94C202892B09F05CC11A30E9
:1026200008F459C1CE0109960E9497029B01AC01A2
:102630006F81643679F065361CF4623609F506C0A0
:10264000693631F06037E1F401E005C000E003C015
:1026500002E001C003E086E491E0602F0E94E508FB
:10266000602F70E0660F771F660F771FCB0107960C
:1026700068587E4F44E050E02AE33EE00E940703A2
:102680000E94F11047C1193008F42FC18E8128969D
:102690008053BE010E9452123DC1193008F42FC16F
:1026A000AE8080EDA80E93E09A1508F433C1289609
:1026B00085E2A89EB02C1124B5E58B2E8B0C9924B5
:1026C000CA2CDD24CC0CDD1CEFE6F1E0CE0EDF1EC3
:1026D00031C0F3E0F91590F18C3229F493942196EE
:1026E00084E0880E27C0F601E080F180092D10E01B
:1026F000CE010E949702000F111F000F111FF7015A
:10270000E00FF11F66837783808791870A5F1F4FF1
:10271000E00EF11E882D90E0B70144E050E02AE37E
:102720003EE00E94070301C021968881882311F0B2
:102730008C32D1F78881882361F656C0CE010E9481
:102740009B02082FAA2DB0E087FD24C0AA0FBB1F53
:10275000AA5BBE4F9996ED91FC919A971481181738
:1027600009F442C0CF01602F0E94B807F999FECF4B
:102770001FBAFDE4BF0E8B2D90E092BD81BD00BD60
:102780000FB6F894FA9AF99A0FBE123069F58A2DAD
:102790006FE728C0182F1058FD01EE0FFF1FEA5BEE
:1027A000FE4F01A4F2A5E02D8481823029F4AC58BB
:1027B000BD4F8C918117A1F0CF0162E00E94B80754
:1027C000F999FECF1FBA8DE4B80E8B2D90E092BD23
:1027D00081BD82E080BD0FB6F894FA9AF99A0FBED7
:1027E0008A2D612F0E94B9118A2D0E940E1192C06C
:1027F000CE0107966CED71E10E945A0F0E94B7104E
:1028000089C0CE0166EE70E047E050E00E94C2024F
:10281000892B49F4CE01079666E67EE00E945A0FA6
:102820000E94FF0F77C0CE016EED70E047E050E0F0
:102830000E94C202892B39F4279684ED92E0BE01F2
:102840000E94131D67C0CE0166ED70E047E050E0C6
:102850000E94C202892B39F4CE0107966EEA7EE00F
:102860000E945A0F57C0CE016FEC70E046E050E076
:102870000E94C202892BD1F40E94D0110E94F11053
:102880000E94FF0F0E943A1200E0802F0E940E115A
:102890000F5F0430D1F70E9477100E94B70F0E949B
:1028A0004A100E94B7100E94D60F34C0CE0168ECC7
:1028B00070E045E050E00E94C202892B59F587E0A4
:1028C00060E00E942026F89488E18093600089E00F
:1028D00080936000FFCFCE016DEF70E046E050E0E6
:1028E0000E94C202892B09F4CECECE0166EF70E0C1
:1028F00046E050E00E94C202892B09F4CECECE0100
:102900006EEE70E047E050E00E94C202892B09F0B1
:1029100078CF6ECFDF91CF911F910F91FF90EF9005
:10292000DF90CF90BF90AF909F908F900895CF93FE
:10293000DF93482FEB0177FF02C0C0E0D0E04130C9
:10294000B1F0413018F0423051F51EC02C2FC09329
:102950007701F999FECF1FBA84E090E092BD81BD66
:1029600020BD0FB6F894FA9AF99A0FBE18C086E403
:1029700091E0BE010E94DB0885E090E0BE014AE3E1
:102980005EE00E9423030BC0CD2B29F086E491E08A
:102990000E94B00804C010928D0110928C01DF914A
:1029A000CF910895CF93DF93EC01662321F08EE859
:1029B00091E00E94E221FE0121966491662329F0B4
:1029C0008EE891E00E947021F6CFDF91CF910895BB
:1029D000982F87FD02C080939A019F778FEF989F71
:1029E000C001112464E670E00E94533085E00E942B
:1029F00081250895AF92BF92CF92DF92EF92FF921E
:102A00000F931F93DF93CF93CDB7DEB7C255D0405E
:102A10000FB6F894DEBF0FBECDBFC82ECE01019613
:102A200060E070E049E250E022E33EE00E94EB0209
:102A3000CC2029F489819A818E50904F99F08E0193
:102A40000F5F1F4FC80165EC71E049E250E00E9442
:102A5000B90280E090E0B80149E250E02AE33EE0AC
:102A60000E9407036B817C8186E491E00E94BB0891
:102A70008D81809377016E817F8186E491E00E9451
:102A8000DB08A8E7B1E0FE01389680E101900D92E5
:102A90008150E1F7888D882331F086E491E060E091
:102AA00070E00E94CD08898D0E94E8148A8D9B8D6C
:102AB000AC8DBD8D8093740290937502A0937602C5
:102AC000B09377028E8D833411F066E401C063E425
:102AD00086E491E00E9401098F8D8093690188A1AD
:102AE0008093680189A180936E018AA18093C002BE
:102AF00088A580936B0189A580936A0134E2E32E57
:102B0000F12CEC0EFD1E00E080E692E0602FF70154
:102B100041917F010E94B21D0F5F0430A9F7CE01E1
:102B20008A966EE370E042E050E022E33EE00E94CD
:102B3000EB028AA59BA58E50904F51F08EE390E05A
:102B40006EE070EF4AE35EE00E942303CC24C3945E
:102B50002FE6A22E21E0B22E00E410E090E3D92E61
:102B60008AE2E82EF12CEC0EFD1ECC2089F0C70184
:102B70006EEE71E045E250E00E94B902D8AAC801A9
:102B8000B70145E250E02AE33EE00E94070308C097
:102B9000C701B80145E250E022E33EE00E94EB02AB
:102BA000F501819191915F01B7010E94F80DD394D5
:102BB000F4E3DF1619F00B5D1F4FD7CFCE5ADF4F6E
:102BC0000FB6F894DEBF0FBECDBFCF91DF911F913E
:102BD0000F91FF90EF90DF90CF90BF90AF9008954E
:102BE0001F93CF93DF9389E061E00E94E12580E6A7
:102BF00092E060E042E00E94791D80E692E00E944F
:102C0000C81D81EB93E040E056E960E070E00E946F
:102C10003D2781EB93E06AE00E942E280E94D011AC
:102C200080E880BF8FE380937E008091640080689D
:102C30008093640087E061E00E94202687E061E0E5
:102C40000E94E1258BE991E09093700180936F01E0
:102C500081EC91E0909372018093710187EE91E095
:102C600090937401809373018DE092E090937601CC
:102C70008093750186E491E00E943F0880E00E9405
:102C8000FA14CDE7D1E010E08EE891E0612FAE01BB
:102C90000E9438211F5F28961830B1F70E94AC11AE
:102CA00084ED92E065E00E94301EDF91CF911F918C
:102CB0000895882381F08091BB028F3FB1F4109278
:102CC000BC021092BD021092BE021092BF0285E0BB
:102CD0008093BB0208958FEF8093BB0286E00E9431
:102CE000062B80919A010E94E81408954F925F92FA
:102CF0006F927F929F92AF92BF92CF92DF92EF92AC
:102D0000FF920F931F93DF93CF93CDB7DEB76197F9
:102D10000FB6F894DEBF0FBECDBFD090DC028D2D74
:102D20008250853008F0DEC18EE891E060E040E03E
:102D30000E945D2186E0D81699F481E00E94591620
:102D40008091BA0280FD03C08CE692E002C08BE560
:102D500092E060E00E94D214D090BA02D6943AC1B8
:102D600080E00E945916E091C002E43008F095C05E
:102D7000F0E0EE0FFF1FEA5BFE4F01A4F2A5E02D8D
:102D8000E688F788008D118DC801B701A801970169
:102D90000E94EF2F882309F080C0C801B70120E00E
:102DA00030E040E251E40E948C2F0E94602E77FFB9
:102DB00007C0CC24DD24C61AD70AEE24E39402C04F
:102DC0006B01EE24A0E1FA2EC114D10419F498E0AD
:102DD0009F1584F5C6016AE070E00E9453308C01B3
:102DE000000F111F080F191F000F111F03581D4F4F
:102DF000ADEFFA0E8EE891E06F2D40E00E945D216C
:102E00008EE891E0B80143E00E9411218EE891E044
:102E10006F2D41E00E945D210D5F1F4F8EE891E014
:102E2000B80143E00E941121C6016AE070E00E94EF
:102E300053306B01FA948EE891E06F2D40E00E94D0
:102E40005D218EE891E060E20E9470218EE891E0C1
:102E50006F2D41E00E945D21BCE0FB1631F48EE84D
:102E600091E06EE20E947021AFCFC114D10461F4F1
:102E7000E8E0EF154CF0EE2039F08EE891E061E0EB
:102E80000E947021EE2405C08EE891E060E20E946D
:102E90007021FF2009F098CF25C1E0916F01F091DA
:102EA000700166897789808D918D0E94602E8B01DB
:102EB00040915001442309F003C1672B09F000C180
:102EC000CE01019669E172E041E150E00E94B90251
:102ED00071C08DB79EB70C970FB6F8949EBF0FBE0A
:102EE0008DBFEDB7FEB73196CE010196ADB7BEB737
:102EF00012969C938E93119781E190E09383828345
:102F000089E492E095838483178306838091670127
:102F1000992787FD909591878087338722870E9424
:102F20004003EDB7FEB73C9640C0442319F42BE5AF
:102F30003DE502C02EE53EE58DB79EB740970FB642
:102F4000F8949EBF0FBE8DBFEDB7FEB73196CE0190
:102F50000196ADB7BEB712969C938E93119781E1FF
:102F600090E09383828384E392E095838483178344
:102F7000068380916701992787FD909591878087C7
:102F8000822F992787FD90959387828780914801AA
:102F900084871586832F992787FD90959787868745
:102FA0000E944003EDB7FEB770960FB6F894FEBFCF
:102FB0000FBEEDBF8EE891E0BE016F5F7F4F0E94B4
:102FC000FB298091C0028F3F21F081E073E0D72E72
:102FD00002C0DA948D2DC82E992493945E01089432
:102FE000A11CB11C6AE2462E62E0562E53EC652EFF
:102FF00052E0752E61C0F3E0FC1508F46AC0EC2CB9
:10300000FF24EE0CFF1C86E491E0E80EF91ED701C8
:103010009996ED91FC919A9726893789408D518D2B
:10302000CA01B9010E94EF2F882309F052C08C2DEC
:103030000E942912EDB7FEB73A970FB6F894FEBF7B
:103040000FBEEDBF0DB71EB70F5F1F4FB282A1823B
:1030500081E190E0D80113969C938E931297159678
:103060005C924E92149717967C926E921697D701A7
:103070009996ED91FC919A9766897789808D918DCB
:103080000E94602EF801718760870E9440038DB70F
:103090009EB70A960FB6F8949EBF0FBE8DBF8EE8FE
:1030A00091E060E0492D0E945D218EE891E0B5013C
:1030B0000E94FB29C3949394DC1408F09CCF12C0A7
:1030C00020918C0130918D012115310509F42DCF0E
:1030D00000CFC50160E270E041E150E00E94D902FA
:1030E000198ADDCF61960FB6F894DEBF0FBECDBF53
:1030F000CF91DF911F910F91FF90EF90DF90CF90D4
:10310000BF90AF909F907F906F905F904F90089589
:103110000F931F93CF93DF930E9476168091B9028D
:103120008F5F8093B90290E08F719070892B21F4AA
:1031300083E392E00E94591F0E941E12CFE6D1E065
:1031400000E011E00DC01093BA0201E01F5F80E6BD
:1031500092E0612F0E94791D22961F5F1930A9F01D
:10316000E881F98142A1812F8150442319F0809395
:10317000BA0201E080E692E0612F0E94791DE881A9
:10318000F98143A14423F9F6E1CF80E692E06EE0B5
:10319000402F0E94791D002331F00E94B71084ED6A
:1031A00092E066E007C08091DC02863029F484ED6D
:1031B00092E062E00E94301E8091B802882321F0E4
:1031C00086E491E00E942B0980E692E060E040E016
:1031D0000E94791D40E080918C0190918D01892B96
:1031E00009F041E080E692E06AE00E94791D40E04B
:1031F00080914801811141E080E692E06BE00E94FD
:10320000791D40E080914801843608F041E080E675
:1032100092E06DE00E94791D80E692E06CE04091C2
:103220004D010E94791D83E392E0609148010E9464
:10323000361FDF91CF911F910F9108951F93E8E7FB
:10324000F2E001900020E9F73197E857F2401E2F95
:1032500021C081EB93E00E94F5278A3011F08D3078
:1032600059F4112391F0809178028F3269F489E743
:1032700092E00E94911208C0E12FF0E0E858FD4F63
:1032800080831F5F103408F010E0E12FF0E0E85871
:10329000FD4F108281EB93E00E94C427892BC9F671
:1032A00083E392E00E943920882331F080E692E0A7
:1032B00069E042E00E94791D84ED92E00E94721E56
:1032C00086E491E00E94EE0B882311F00E9488189A
:1032D0008091BB028F3F09F441C00E940C25E09110
:1032E000BB02F0E0E958FE4FE4912091BC0230911E
:1032F000BD02621B730B1AE0E19F90011124261797
:10330000370760F50E940C256093BC027093BD02E4
:103310008093BE029093BF028091BB0290E0019621
:1033200066E070E00E9453308093BB02E82FF0E02B
:1033300080FD0FC0E958FE4F2491219F9001112478
:1033400040E050E086E060EA7FE00E94792B80E870
:1033500003C080919A0180680E94E81480E692E0A0
:103360000E94C81D1F9108951F93182F0E94E814F2
:10337000F999FECF1FBA88E190E092BD81BD10BDE2
:103380000FB6F894FA9AF99A0FBE1F9108950F9309
:103390001F93182F062F813051F0813020F0863096
:1033A00008F032C01CC0862F0E94B4192DC0609353
:1033B000C002F999FECF1FBA81E290E092BD81BDB3
:1033C00000BD0FB6F894FA9AF99A0FBE8091DC020C
:1033D0008250853020F48EE891E00E94E221125064
:1033E00080E692E0612F402F0E94B21DF999FECF36
:1033F0001FBA812F90E0839692BD81BD00BD0FB6AC
:10340000F894FA9AF99A0FBE1F910F910895803897
:10341000E1F48EE891E00E94DA218EE891E063EE1B
:1034200072E040E150E00E94C4288EE891E060E044
:1034300041E00E945D218EE891E064EF72E040E19E
:1034400050E00E94C42881E008958091DD02089533
:10345000CF93DF93EB01843011F0883071F420E0DA
:1034600030E08091C1029091C202892B11F421E0D9
:1034700030E03093C2022093C1028EE891E060E018
:1034800041E00E945D21209721F0CE0160E00E9482
:10349000D2148091C1029091C202892B19F48AEA58
:1034A00093E002C08EEA93E060E00E94D214DF91C4
:1034B000CF910895EF92FF920F931F93DF93CF93D5
:1034C000CDB7DEB761970FB6F894DEBF0FBECDBFA4
:1034D0007801843039F48091C1029091C202860F44
:1034E000911D08C0883051F48091C1029091C202B0
:1034F000861B91099093C2028093C1028091C10200
:103500009091C2028417950724F45093C20240930D
:10351000C1028091C1029091C2022817390724F498
:103520003093C2022093C1028EE891E060E041E056
:103530000E945D218DB79EB70A970FB6F8949EBF83
:103540000FBE8DBFEDB7FEB731968E010F5F1F4FD7
:10355000ADB7BEB712961C930E93119781E190E020
:1035600093838283F582E4828091C1029091C202AA
:103570009783868380916701992787FD909591872E
:1035800080870E9440038DB79EB70A960FB6F894C5
:103590009EBF0FBE8DBF8EE891E0B8010E94FB294F
:1035A00061960FB6F894DEBF0FBECDBFCF91DF910D
:1035B0001F910F91FF90EF9008950F931F93182F75
:1035C000803861F480E793E061E00E94D21480913A
:1035D0009A018093C1021092C20211C0803479F422
:1035E0002091C1023091C20280919A0190E0281787
:1035F000390729F0822F0E94B4190E944A10812FA6
:103600006AE040E050E024E630E00AE613E00E9481
:103610005A1A8091C10280680E94E81481E01F91CB
:103620000F9108950F931F93182F803861F48BE842
:1036300093E061E00E94D214809168018093C102FE
:103640001092C2020FC0803469F42091C1023091FF
:10365000C2028091680190E02817390719F0822F83
:103660000E943710812F65E040E050E024E630E012
:103670000FE713E00E945A1A81E01F910F910895FD
:103680001F93182F803851F48CE993E061E00E9479
:10369000D2141092C2021092C1020BC0803449F4BD
:1036A0008091C1029091C202892B19F081E00E94A1
:1036B000FA14812F60E070E00E94281A81E01F91C7
:1036C00008950F931F93182F803871F48EEB93E0B9
:1036D00061E00E94D2148091530190915401909323
:1036E000C2028093C10209C0803439F46091C102E2
:1036F0007091C20281E00E949714812F6AE040E03D
:1037000050E028EE33E002EB13E00E945A1A81E009
:103710001F910F9108950F931F93182F803861F414
:103720008DED93E061E00E94D21480917701809347
:10373000C1021092C20209C0803439F46091C10202
:103740007091C20280E00E949714812F61E040E0F6
:1037500050E024E630E00DEC13E00E945A1A81E0BC
:103760001F910F9108950F931F93082F1091DC0262
:103770001D508038F9F4812F0E9429128EE891E0C3
:103780000E94E2218EE891E063EC72E00E94FB2946
:10379000E12FF0E0EE0FFF1FEA5BFE4F01A4F2A560
:1037A000E02D8581992787FD90959093C2028093A3
:1037B000C10209C0803439F46091C1027091C20223
:1037C000812F0E949610802F61E04CE95FEF24E684
:1037D00030E00DEE13E00E945A1A81E01F910F9124
:1037E00008951F93182F803861F48BEF93E061E008
:1037F0000E94D214809150018093C1021092C202A3
:1038000019C08034B9F420E08091C1029091C202C5
:10381000892B09F021E080915001281759F02223CB
:1038200019F080E090E004C080914E0190914F012A
:103830000E946412812F60E070E00E94281A81E0EB
:103840001F9108950F931F93182F803871F482E110
:1038500094E061E00E94D21480914E0190914F015A
:103860009093C2028093C10210C0803471F4209101
:10387000C1023091C20280914E0190914F012817F0
:10388000390719F0C9010E946412812F65E040E0F8
:1038900050E028EE33E00BE014E00E945A1A81E079
:1038A0001F910F910895803819F40E94761605C073
:1038B00090E08F719070892B11F481E008950E943F
:1038C000151282E00895982F803809F040C0809149
:1038D000DC02853009F46BC086E491E00E94810827
:1038E000882309F064C085E00895E0917101F091AA
:1038F000720126893789408D518DCA01B9010E9414
:10390000EF2F882309F45EC083E00895E0917301EE
:10391000F091740126893789408D518DCA01B90112
:103920000E94EF2F882309F44DC084E00895E091B0
:103930007501F091760126893789408D518DCA0134
:10394000B9010E94EF2F8823E9F182E00895809168
:1039500050018823D1F0943011F465E007C098300D
:1039600011F46BEF03C0913001F56FEF772767FD1E
:10397000709580914801680F711D86E491E00E9466
:10398000CD080E94761680E00895913071F460E0D1
:1039900070E080918C0190918D01892B11F461E090
:1039A00070E082E00E9497140DC081E0089580913C
:1039B000DC02823009F499CF833009F4A7CF843038
:1039C00009F4B5CF0E94761681E0089584ED92E067
:1039D00069EB72E041E053E021EF3CE10E94281ED8
:1039E000089580E00E945F25959587959595879528
:1039F000982F8823B1F08551873210F481E0089523
:103A0000892F8D53873210F488E00895892F8D58BF
:103A1000833110F484E00895915A973210F482E0D3
:103A2000089580E00895CF92DF92EF92FF920F9376
:103A30001F93CF93DF936C018B01CB016CE270E09D
:103A40000E94E002EC013FE0E32EF12CEC0CFD1CA7
:103A5000C70160E270E041E250E00E94D902209785
:103A600079F4D8010D900020E9F71197A01BB10B54
:103A7000A132B10510F0A1E2B0E0C701B80121C048
:103A80009E01201B310B2131310510F020E130E087
:103A9000C701B801A9010E94D002DE010D900020EB
:103AA000E9F7AC1BBD0B1297A031B10510F0A0E1F6
:103AB000B0E09601205E3F4FAE014F5F5F4FC901FE
:103AC000BA01AD010E94D002F6018085883129F04B
:103AD000C60168E10E94301E03C080E80E94071AF8
:103AE000DF91CF911F910F91FF90EF90DF90CF90DA
:103AF0000895CF92DF92EF92FF920F931F93CF938F
:103B0000DF937C01042FEC0110E0C62EDD248881B8
:103B1000682F70E0CB018F7790708C159D05A9F40C
:103B200009838A81823089F0023079F0660F672F2D
:103B3000661F770B6027681741F06A83D70152969A
:103B4000ED91FC915397812F09951F5F23961430B7
:103B5000F1F6DF91CF911F910F91FF90EF90DF90E1
:103B6000CF900895DC01862F90E0FC01EE0FFF1F3F
:103B7000E80FF91FEA0FFB1F40838281813039F47F
:103B80005296ED91FC915397862F60E00995089528
:103B9000CF92DF92EF92FF920F931F93DF93CF9319
:103BA0000F92CDB7DEB78C010E940C256B017C0112
:103BB000D8011C962D913D914D915C911F97519686
:103BC0008C91882331F0C601821B930B845F914056
:103BD000A8F10E940C25F80164877587868797876E
:103BE00081E0818B80898F5F808B780190E0D801A4
:103BF00050968C9180FF07C0F70181818230B9F423
:103C00008283118208C0D70112968C91129782305C
:103C100071F412961C92D8015296ED91FC91539733
:103C2000892FD70112966C919983099599819F5F8D
:103C3000E3E0F0E0EE0EFF1E9430C9F60F90CF9156
:103C4000DF911F910F91FF90EF90DF90CF9008953B
:103C5000FC017183608353834283378326830895F5
:103C60001F93CF93DF93EC01162F888589872BC094
:103C70008C819D81009751F0FC0131962591349102
:103C80002115310519F080E4F9010995188788811B
:103C900099819D838C8306C08885981741F034965E
:103CA000FD83EC83EC81FD8194919923A9F73097F2
:103CB00079F03196259134912115310521F080E874
:103CC000F9010995182F123018F08885181781F618
:103CD0000E940C256B877C878D879E87DF91CF9113
:103CE0001F910895DF92EF92FF920F931F93CF934E
:103CF000DF93EC01EE81FF810995D82E0E940C25FF
:103D00007B018C018B859C85AD85BE85E81AF90AFF
:103D10000A0B1B0BDD20D9F4EC81FD813097B9F043
:103D20003396649170E080E090E028EE33E040E06C
:103D300050E00E942830611571058105910539F028
:103D40006E157F058007910710F480E2D82E8AEF68
:103D5000E816F1040105110508F439C080E2D8160F
:103D600021F0DA86DD2009F432C00E940C256B8731
:103D70007C878D879E878C819D81009769F0FC01EF
:103D80003196259134912115310531F08D2DF901B0
:103D90000995682F8130C1F4EA81FB812D2D30E037
:103DA0000FC0961761F431968491319790E0822389
:103DB00093238217930719F43296649105C03396C2
:103DC00094916885992369F7CE010E94301EDF9196
:103DD000CF911F910F91FF90EF90DF900895DF92A8
:103DE000EF92FF920F931F93CF93DF937C01EC012F
:103DF00000E010E0DD24DA948A858F3F49F10E94CB
:103E00000C252B853C854D855E85621B730B840BD1
:103E1000950B61527F4B82409040D0F0D7011596B0
:103E2000ED91FC911697309769F0C80123E0880F57
:103E3000991F2A95E1F7800F911F08968E0D9F1DFF
:103E400064E009958A858F3F19F0DA86198618860D
:103E50000F5F1F4F29960430110571F6DF91CF9146
:103E60001F910F91FF90EF90DF900895DF93CF9314
:103E700000D000D0CDB7DEB7FC018081882391F05F
:103E800084A58F5F84A7853068F014A68FE98983A5
:103E900080EC8A836B838FE78C83CE01019664E08C
:103EA0000E94AA230F900F900F900F90CF91DF9157
:103EB00008950F931F93CF93DF938C01FC018081B2
:103EC000882309F45EC0C3E2D4E0FE012196849108
:103ED000882319F00E940F09F8CF84E093E0F801DD
:103EE00067814AE050E00E949629E80110E08A8547
:103EF0008F3FF1F08CE20E940F0984E093E06A8525
:103F00004AE050E00E9496298CE20E940F0984E06A
:103F100093E06F854AE050E00E9496298CE20E946F
:103F20000F0984E093E068894AE050E00E949629F6
:103F30001F5F29961430D9F681EB93E06AE20E9464
:103F40002E286091090362956F706A3010F4605DED
:103F500001C0695C81EB93E00E942E286091090307
:103F60006F706A3010F4605D01C0695C81EB93E0B2
:103F70000E942E2881EB93E06AE00E942E28109286
:103F80000803DF91CF911F910F910895CF93DF9395
:103F9000EC018881882329F4862F0E94DD2381E0AB
:103FA0008883DF91CF9108950F931F93CF93DF9371
:103FB0008C01EB010E940C25F801638374838583D7
:103FC0009683898185FF02C092E001C090E08B81D9
:103FD00087FD91608F778F3709F09460F8019783A0
:103FE0000E94A623F801808787812A8182FF2FC043
:103FF0002A3A11F480E038C030E0B9016F70707077
:1040000060597140898190E08F70907044E650E073
:10401000FC01E49FC001E59F900DF49F900D1124D9
:10402000680F791FE4E035952795EA95E1F7C90116
:1040300053E0880F991F5A95E1F7220F331F820F23
:10404000931F680F791FF801718360830CC0898109
:1040500090E08F709070982F882730E0822B932B00
:10406000F8019183808381E0DF91CF911F910F91BF
:104070000895FF920F931F93CF93DF938C01DC0180
:104080008C91882311F4FF247FC0FF2475C00E9407
:104090000C25F801618372838383948380910A03E2
:1040A0009781882309F061C09F3F11F09F5F97833C
:1040B00080910B0390E08F709070880F991F880F8C
:1040C000991F40910C034295469546954370482BA5
:1040D000D801F80190E08285841729F09F5F399616
:1040E0009430C9F703C09F3F79F444C090E01A961A
:1040F0008C911A978F3F19F483E0F82E07C09F5FC9
:1041000019969430A1F736C0B2E0FB2E292F30E08B
:10411000F901A3E0EE0FFF1FAA95E1F7E20FF31FED
:10412000E00FF11F8285841719F0428711861086EF
:10413000E901F3E0CC0FDD1FFA95E1F7C20FD31FC1
:104140002896C00FD11FCE016BE073E00E94D41FF0
:10415000882381F0D8011596ED91FC911697309740
:1041600049F0CE016F2D099505C0992319F09150A2
:10417000F8019783FF24F3940E946C23882309F0AD
:1041800086CFC8010E94EF1E8F2DDF91CF911F9126
:104190000F91FF900895109207031092060384E197
:1041A00091E0909305038093040308951F93CF93A8
:1041B000DF93EC01162F8C81882341F481E08C83FE
:1041C0001D8281EB93E064E20E942E288D8181277D
:1041D0008D8381EB93E0612F0E942E28DF91CF9198
:1041E0001F910895DC016230D8F481E090E002C0B4
:1041F000880F991F6A95E2F714962C91149744231F
:1042000011F0282B02C08095282314962C93149724
:10421000ED91FC9111970084F185E02DCD01099578
:104220000895EF92FF921F93CF93DF937C01EB01F0
:10423000142F0DC0FE0121964491F701A081B18198
:104240002D913C91C701642FF9010995115011235B
:1042500089F7DF91CF911F91FF90EF900895DC01D6
:10426000ED91FC910480F581E02D40E009950895E1
:10427000EF92FF920F931F938C017A016770660F84
:10428000660F660F60640E942F21C801B70148E0E5
:104290000E941121C80160E80E942F211F910F91F7
:1042A000FF90EF900895FC016681862F84608683DD
:1042B0006C60CF010E942F210895DC0118968C912B
:1042C0001897841710F4482F4150E42FF0E0EA5D6E
:1042D000FE4F8081680F6068CD010E942F210895F4
:1042E000DC01ED91FC910480F581E02D41E0099520
:1042F00081E090E008951F93CF93DF93EC011FB707
:10430000F8946EBD0DB407FEFDCFEA85FB85808174
:104310009985892B808381E090E00E941A25EA85A7
:10432000FB85908189858095892380831FBFDF91DC
:10433000CF911F910895FC0164810E947B21089513
:10434000EF92FF921F937C01162F1860612F0E943D
:104350007B21177FC701612F0E947B211F91FF9056
:10436000EF900895607F0E94A02188E290E00E9473
:104370001A2508950F931F93CF93DF93EC01062F17
:10438000411144E01C81142B602F607F612BCE0112
:104390000E94A0210295007F102BCE01612F0E9468
:1043A000A02188E290E00E941A25DF91CF911F9111
:1043B0000F91089562E00E942F2180ED97E00E9406
:1043C0001A25089561E00E942F2180ED97E00E9458
:1043D0001A250895CF93DF93EC01623018F088E03E
:1043E000888701C0188688858D83411184608D83FC
:1043F00080E090E40E941A2580E090E40E941A2553
:1044000080E090E40E941A25E881F9810680F78116
:10441000E02DCE0160E3099584E991E10E941A251F
:10442000E881F9810680F781E02DCE0160E30995EE
:1044300086E990E00E941A25E881F9810680F781DB
:10444000E02DCE0160E30995E881F9810680F781CE
:10445000E02DCE0160E209956D816062CE010E947F
:104460002F2184E08E83CE010E945321CE010E9431
:10447000E22182E08F83CE0166E00E942F21DF914E
:10448000CF910895EF92FF920F931F938C01F62E18
:10449000E42EDC0113961C921E9212978CE191E09F
:1044A0008D939C938BE061E00E94E1258DE061E0BB
:1044B0000E94E1258AE061E00E94E1258AE061E056
:1044C0000E94202681E58CBD8F2D90E0FC01EF59E4
:1044D000FB4FE491D8011996EC931997835B9B4F9E
:1044E000FC018491E82FF0E0EE0FFF1FE75CFB4F2B
:1044F000859194911B969C938E931A978F2D61E0D2
:104500000E94E125C80160E00E947B21C8016E2D58
:1045100040E00E94EA211F910F91FF90EF900895D3
:10452000282F8CB581608CBD2A989EBD0DB407FEE6
:10453000FDCF8EB52EBD0DB407FEFDCF4EB5382F85
:1045400020E02A9A8CB58E7F8CBD50E0422B532BF5
:10455000CA0108950F931F9380E090E00E9490227B
:10456000192F9093190380911A03843009F067C0C2
:1045700080E090EB0E949022082F80911B0363E063
:104580000E9447309923A9F4812F90E081709070A8
:10459000E0911803F0E0EE0FFF1FE80FF91FE65D52
:1045A000FE4F80818093180390E0806A94690E9496
:1045B000902280911B038823F1F4802F90E034E057
:1045C000959587953A95E1F702969595879580930D
:1045D000150380911503823020F0809115038B30F4
:1045E00018F082E080931503E0911603F091170311
:1045F000309709F0099580911B03E82FF0E0E55F03
:10460000FC4F00838F5F80931B0380910A038027F8
:1046100090E021E387FF03C0880F822701C0880F45
:104620009F5F9830B9F780930A0390911B038091A4
:104630001503981709F04DC089E092E848C08091B1
:104640001A0387FF1EC080911503E0911A03EF5FE4
:10465000E0931A03E150E80FF0E0E55FFC4F808142
:1046600020910A03282790E031E327FF03C0220F9F
:10467000232701C0220F9F5F9830B9F720930A03C8
:1046800023C080911A038F5F80931A038150823078
:10469000B1F083301CF4882379F015C0853019F00F
:1046A000863089F402C08DE20FC080911503819598
:1046B00080931A0384ED08C080910A0305C089E045
:1046C00092E80E9490228AEA90E0805098440E94EA
:1046D00090221F910F91089580911A03843021F543
:1046E0009091150380911B039817F1F483E0809358
:1046F0001A0381E0089510921B0310920A038FEFB2
:104700008093150384E080931A03F89483E08093E8
:10471000180383EA94E90E94902289ED92E80E94AE
:104720009022789480E0089580911A03833019F3E1
:1047300080E00895F89410920A0385E080931A03AC
:1047400089E392E80E94902278940895809118035A
:1047500086950895582F792F462F609315032BE0E7
:1047600033E0C901652F50E00E94D0020E949A23D5
:1047700008952A9A229A8AE061E00E9420268AE01F
:1047800061E00E94E1258BE061E00E94E1258CE080
:1047900060E00E94E1258DE061E00E94E12580E576
:1047A0008CBD8DB581608DBD82E060E00E94E12509
:1047B00082E061E00E94202608951F93182F0E9436
:1047C000B92380E090E00E94902281E092E80E946C
:1047D000902280E098EB02C080E090E00E9490225E
:1047E00082E00E947426892BB9F3812F90E054E077
:1047F000880F991F5A95E1F7876C90680E94902264
:10480000123019F0133039F403C08CE796EA05C072
:1048100083ED97EA02C080E496EA0E94902283E149
:1048200096EC0E94902282EA94E90E9490228CEAFF
:1048300092EC0E94902283E89AEC0E94902284EDF0
:104840009EEC0E94902287EB94EC0E94902280E3E1
:1048500098E90E94902286E79CEC0E94902280E0DA
:1048600090EE0E94902280E098EC0E94902280E0DE
:1048700090EC0E94902283E080931A0380E06AEA21
:1048800072E240E050E00E9447241F910895823078
:1048900000F5E82FF0E0EE0FFF1FE45EFC4F7183A0
:1048A0006083882319F08130A1F408C080916900E9
:1048B0008C7F842B80936900E89A08958091690029
:1048C000440F551F440F551F837F842B809369002D
:1048D000E99A08951F920F920FB60F9211242F9309
:1048E0003F934F935F936F937F938F939F93AF9378
:1048F000BF93EF93FF9380911C0390911D03892B2D
:1049000029F0E0911C03F0911D030995FF91EF91AF
:10491000BF91AF919F918F917F916F915F914F91D7
:104920003F912F910F900FBE0F901F9018951F92DF
:104930000F920FB60F9211242F933F934F935F93D3
:104940006F937F938F939F93AF93BF93EF93FF9357
:1049500080911E0390911F03892B29F0E0911E0383
:10496000F0911F030995FF91EF91BF91AF919F9136
:104970008F917F916F915F914F913F912F910F9008
:104980000FBE0F901F9018951F920F920FB60F92A7
:1049900011242F933F938F939F93AF93BF93809155
:1049A000240390912503A0912603B0912703309111
:1049B00028030196A11DB11D232F2D5F2D3720F057
:1049C0002D570196A11DB11D209328038093240328
:1049D00090932503A0932603B0932703809120038F
:1049E00090912103A0912203B09123030196A11D70
:1049F000B11D8093200390932103A0932203B093D1
:104A00002303BF91AF919F918F913F912F910F9071
:104A10000FBE0F901F9018958FB7F8942091240324
:104A20003091250340912603509127038FBFB90190
:104A3000CA010895019739F0880F991F880F991FAF
:104A400002970197F1F70895789484B5826084BD48
:104A500084B5816084BD85B5826085BD85B5816082
:104A600085BDEEE6F0E0808181608083E1E8F0E0E2
:104A70001082808182608083808181608083E0E811
:104A8000F0E0808181608083E1EBF0E080818460F0
:104A90008083E0EBF0E0808181608083EAE7F0E0F2
:104AA0008081846080838081826080838081816056
:104AB00080838081806880831092C1000895982F40
:104AC0008E3008F09E50977080910E018295880F6D
:104AD000880F807C892B80937C0080917A00806491
:104AE00080937A0080917A0086FDFCCF2091780037
:104AF00040917900942F80E030E0282B392BC901B8
:104B000008951F93CF93DF93182FEB0161E00E946C
:104B1000E125209709F44AC0CF3FD10509F449C0E7
:104B2000E12FF0E0EB58FB4F84918330C1F08430EB
:104B300028F4813051F08230B1F50CC0863019F183
:104B4000873049F1843079F514C084B5806884BD1C
:104B5000C7BD33C084B5806284BDC8BD2EC08091FE
:104B60008000806880938000D0938900C093880083
:104B700024C080918000806280938000D0938B005D
:104B8000C0938A001AC08091B00080688093B00002
:104B9000C093B30012C08091B00080628093B000D7
:104BA000C093B4000AC0C038D1051CF4812F60E066
:104BB00002C0812F61E00E942026DF91CF911F91DA
:104BC0000895CF93DF93482F50E0CA018F599B4F30
:104BD000FC013491435B5B4FFA018491882369F1B6
:104BE00090E0880F991FFC01E15DFB4FA591B49106
:104BF000FC01E75CFB4FC591D491662351F42FB7BC
:104C0000F8948C91932F909589238C938881892394
:104C10000BC0623061F42FB7F8948C91932F90956C
:104C200089238C938881832B88832FBF06C09FB7ED
:104C3000F8948C91832B8C939FBFDF91CF91089533
:104C4000482F50E0CA018B589B4FFC012491CA01A8
:104C50008F599B4FFC019491435B5B4FFA01349158
:104C6000332309F440C0222351F1233071F0243062
:104C700028F42130A1F0223011F514C02630B1F013
:104C80002730C1F02430D9F404C0809180008F77A0
:104C900003C0809180008F7D8093800010C084B518
:104CA0008F7702C084B58F7D84BD09C08091B0002C
:104CB0008F7703C08091B0008F7D8093B000E32F89
:104CC000F0E0EE0FFF1FE75CFB4FA591B4912FB70B
:104CD000F894662321F48C919095892302C08C91DD
:104CE000892B8C932FBF0895682F70E0CB018B58D0
:104CF0009B4FFC012491CB018F599B4FFC014491A8
:104D0000635B7B4FFB019491992319F420E030E021
:104D10003CC0222351F1233071F0243028F421309B
:104D2000A1F0223011F514C02630B1F02730C1F0C7
:104D30002430D9F404C0809180008F7703C0809123
:104D400080008F7D8093800010C084B58F7702C073
:104D500084B58F7D84BD09C08091B0008F7703C07A
:104D60008091B0008F7D8093B000892F90E0880FF4
:104D7000991F8D5B9B4FFC01A591B4918C9120E014
:104D800030E0842311F021E030E0C90108951F9242
:104D90000F920FB60F9211242F933F934F938F933F
:104DA0009F93EF93FF938091C00082FD1DC04091BF
:104DB000C6002091690330916A032F5F3F4F2F7324
:104DC000307080916B0390916C032817390771F054
:104DD000E0916903F0916A03E75DFC4F40833093F3
:104DE0006A032093690302C08091C600FF91EF918E
:104DF0009F918F914F913F912F910F900FBE0F90E8
:104E00001F9018951F920F920FB60F9211242F9397
:104E10003F938F939F93EF93FF932091AD03309136
:104E2000AE038091AF039091B0032817390731F496
:104E30008091C1008F7D8093C10014C0E091AF03C9
:104E4000F091B003E359FC4F20818091AF03909122
:104E5000B00301968F7390709093B0038093AF036B
:104E60002093C600FF91EF919F918F913F912F91D9
:104E70000F900FBE0F901F901895AF92BF92DF92C8
:104E8000EF92FF920F931F93CF93DF93EC017A0180
:104E90008B01DD24403081EE580780E0680780E018
:104EA000780711F0DD24D39491E0A92EB12CEC8980
:104EB000FD89DD2069F0C50108A002C0880F991F97
:104EC0000A94E2F7808360E079E08DE390E005C02A
:104ED000108260E874E88EE190E0A80197010E94DA
:104EE0007A30215030404040504056954795379594
:104EF000279580E12030380720F0DD2011F0DD24F7
:104F0000D6CFE889F9893083EA89FB89208319A201
:104F1000EE89FF89408121E030E0C9010C8C02C09C
:104F2000880F991F0A94E2F7482B4083EE89FF8986
:104F30004081C9010D8C02C0880F991F0A94E2F7C5
:104F4000482B4083EE89FF894081C9010E8C02C045
:104F5000880F991F0A94E2F7482B4083EE89FF8956
:104F600080810F8C02C0220F331F0A94E2F7209534
:104F700028232083DF91CF911F910F91FF90EF9015
:104F8000DF90BF90AF900895DC011C96ED91FC91ED
:104F90001D97E05CFF4F2191319180819181281B09
:104FA000390B2F733070C9010895DC011C96ED9107
:104FB000FC911D97E05CFF4F20813181E054F0406F
:104FC000DF01AE5BBF4F8D919C9111972817390778
:104FD00019F42FEF3FEF07C08D919C91E80FF91F57
:104FE0008081282F30E0C9010895DC011C96ED91E5
:104FF000FC911D97E05CFF4F20813181E054F0402F
:10500000DF01AE5BBF4F8D919C9111972817390737
:1050100019F42FEF3FEF10C08D919C911197E80F7D
:10502000F91F20818D919C91119701968F7390703B
:1050300011969C938E9330E0C9010895DC019196FE
:105040008C919197882339F05496ED91FC91559766
:10505000808186FFF9CF91961C920895CF93DF93BC
:10506000EC01EE85FF85E05CFF4F20813181E0544B
:10507000F0402F5F3F4F2F733070DF01AE5BBF4FAB
:105080008D919C91119728173907D1F3E05CFF4F60
:1050900080819181E054F040E80FF91F6083EE8534
:1050A000FF85E05CFF4F31832083EE89FF892081FB
:1050B00081E090E00F8C02C0880F991F0A94E2F7FC
:1050C000282B208381E089A3EC89FD89808180647D
:1050D000808381E090E0DF91CF9108951092B40336
:1050E0001092B30388EE93E0A0E0B0E08093B503A4
:1050F0009093B603A093B703B093B8038AE391E00B
:105100009093B2038093B10389E293E09093BE033E
:105110008093BD038DE693E09093C0038093BF031B
:1051200085EC90E09093C2038093C10384EC90E0FF
:105130009093C4038093C30380EC90E09093C603E4
:105140008093C50381EC90E09093C8038093C703DC
:1051500082EC90E09093CA038093C90386EC90E0C0
:105160009093CC038093CB0384E08093CD0383E0C2
:105170008093CE0387E08093CF0385E08093D003B4
:1051800081E08093D1030895CF92DF92EF92FF9256
:105190000F931F93CF93DF937C016B018A01C0E0D3
:1051A000D0E00FC0D6016D916D01D701ED91FC915A
:1051B0000190F081E02DC7010995C80FD91F01505A
:1051C00010400115110571F7CE01DF91CF911F91AC
:1051D0000F91FF90EF90DF90CF900895DC01ED915B
:1051E000FC910190F081E02D09950895CF93DF9314
:1051F000EC016115710519F420E030E00FC0DB010E
:105200000D900020E9F71197A61BB70BE881F981F3
:105210000280F381E02DAD0109959C01C901DF9168
:10522000CF9108954F925F927F928F929F92AF920B
:10523000BF92CF92DF92EF92FF920F931F93DF9373
:10524000CF93CDB7DEB7A1970FB6F894DEBF0FBEF0
:10525000CDBF2C01742ECB01223008F42AE019A214
:1052600031E2C32ED12CCC0EDD1E822E9924AA242D
:10527000BB24672D752FA50194010E947A30790116
:105280008A01C801B701A50194010E942830472D69
:10529000461B0894C108D1084A3014F4405D01C08F
:1052A000495CF6014083E114F1040105110521F088
:1052B0007E2C5F2DC801DDCFC201B6010E94F62809
:1052C000A1960FB6F894DEBF0FBECDBFCF91DF9190
:1052D0001F910F91FF90EF90DF90CF90BF90AF9014
:1052E0009F908F907F905F904F900895DC012115E3
:1052F000310541F4ED91FC910190F081E02D642F96
:10530000099508950E9412290895EF92FF920F9334
:105310001F939A017B0100E010E0B801A7010E94F1
:1053200076291F910F91FF90EF900895EF92FF92D1
:105330000F931F939A01E62EFF2400E010E0B801BE
:10534000A7010E9476291F910F91FF90EF90089579
:10535000CF92DF92EF92FF920F931F93CF93DF9341
:10536000EC016A017B012115310541F4E881F981E5
:105370000190F081E02D642F09951FC02A3031057E
:10538000D1F477FF17C0E881F9810190F081E02D19
:105390006DE209958C0144275527BA014C195D0926
:1053A0006E097F09CE012AE00E9412299801280F78
:1053B000391F04C02AE00E9412299C01C901DF9113
:1053C000CF911F910F91FF90EF90DF90CF900895B4
:1053D000EF92FF920F931F937B019A010027F7FC36
:1053E0000095102FB801A7010E94A8291F910F91C5
:1053F000FF90EF9008950E94F62808957F928F9273
:105400009F92AF92BF92CF92DF92EF92FF920F9353
:105410001F93CF93DF934C017A018B01722ECB0146
:10542000BA01A80197010E94EF2F882321F0C4013F
:1054300060E071E021C0C0E0D0E057016801E8946D
:10544000D7F8C601B5012FEF3FEF4FE75FE70E94A6
:10545000EF2F882351F4C601B5012FEF3FEF4FE73F
:105460005FE70E94F42D181614F0C1E0D0E02197F8
:1054700039F0C40164E071E00E94F628EC0193C0A9
:10548000C801B7012FEF3FEF4FE75FE40E94432FC2
:10549000181654F0C801B7012FEF3FEF4FE75FEC4C
:1054A0000E94F42D882324F4C40168E071E0E4CF65
:1054B000C801B70120E030E040E050E00E94F42D48
:1054C00087FD03C0C0E0D0E00EC0D401ED91FC9197
:1054D0000190F081E02DC4016DE20995EC0117FB0C
:1054E000109517F9109520E030E040E05FE3DD24EF
:1054F0000BC0CA01B90120E030E040E251E40E9453
:10550000F82D9B01AC01D394D71498F3C801B701CF
:105510000E94902D5B016C010E94652E7B018C0125
:10552000C401B801A7012AE030E00E947629C80F23
:10553000D91F772039F0C4016CE071E00E94F62891
:10554000C80FD91FC801B7010E94912E9B01AC0161
:10555000C601B5010E948F2D24C020E030E040E25A
:1055600051E40E948C2F7B018C010E94602E5B0114
:105570006C01CC24B7FCC094DC2CC401B601A5019D
:105580002AE030E00E94A829C80FD91FC601B50142
:105590000E94932E9B01AC01C801B7010E948F2D80
:1055A0007A947720D1F6CE01DF91CF911F910F91A0
:1055B000FF90EF90DF90CF90BF90AF909F908F9033
:1055C0007F9008950E94FE290895813041F0813036
:1055D00018F08230D1F409C010926E0008958091C5
:1055E0006F008D7F80936F000895809170008D7F94
:1055F0008093700081E08093B0008091B100887F3B
:1056000084608093B1001092B30008951F93182F07
:1056100080910F01811711F09FEF06C0E9E8F4E0D7
:1056200094918FEF80930F01892F0E94E52A812F9B
:1056300060E00E9420261F9108951F920F920FB6DE
:105640000F9211242F933F934F935F936F937F9308
:105650008F939F93AF93BF93EF93FF938091E10359
:105660009091E203A091E303B091E4030097A105B8
:10567000B10551F1E091E503F091E603808190914D
:10568000E703892780838091E1039091E203A09151
:10569000E303B091E403181619061A061B06C4F4B6
:1056A0008091E1039091E203A091E303B091E403C0
:1056B0000197A109B1098093E1039093E203A093BC
:1056C000E303B093E40304C080910F010E94062B12
:1056D000FF91EF91BF91AF919F918F917F916F91CA
:1056E0005F914F913F912F910F900FBE0F901F90A0
:1056F00018952F923F925F926F927F928F929F9216
:10570000AF92BF92CF92DF92EF92FF920F931F93CF
:10571000DF93CF9300D000D0CDB7DEB7A82F1B0109
:1057200029833A834B835C8380910F018A1721F48C
:10573000E9E8F4E0549082C08F3F09F0DAC1A09309
:105740000F01E9E8F4E054902FEF521609F4D1C1AB
:1057500081E0581639F192E0591609F449C05520F4
:1057600009F06CC014BC15BC84B5826084BD85B5DD
:10577000816085BD2A2F30E0F901E35BFB4FE491A6
:10578000F0E0EE0FFF1FE75CFB4F85919491909343
:10579000D8038093D7032F593B4FF901849180930D
:1057A000D9034EC010928000109281008091810038
:1057B0008860809381008091810081608093810066
:1057C0002A2F30E0F901E35BFB4FE491F0E0EE0FAC
:1057D000FF1FE75CFB4F859194919093DF038093CB
:1057E000DE032F593B4FF90184918093E00328C0D9
:1057F0001092B0001092B1008091B000826080934E
:10580000B0008091B10081608093B1002A2F30E018
:10581000F901E35BFB4FE491F0E0EE0FFF1FE75C63
:10582000FB4F859194919093E6038093E5032F5964
:105830003B4FF90184918093E70302C057FC59C1A3
:105840008A2F61E00E94E125552021F0F2E05F16E9
:1058500009F0BEC031018824992460E072E18AE732
:1058600090E0A40193010E949C3059016A018601D5
:1058700075010894E108F108010911092FEFE216FA
:10588000F1040105110509F008F499C060E472E41F
:105890008FE090E0A40193010E949C3079018A017D
:1058A0000894E108F1080109110982E05816C1F4D1
:1058B0009FEFE916F1040105110509F008F484C011
:1058C00060E970ED83E090E0A40193010E949C30B8
:1058D00079018A010894E108F1080109110983E0BE
:1058E000AFEFEA16F1040105110509F008F468C0EC
:1058F00068E478EE81E090E0A40193010E949C307E
:1059000079018A010894E108F1080109110955207B
:1059100011F483E01DC0B2E05B1611F084E018C002
:10592000EFEFEE16F1040105110509F008F4DFC0F0
:1059300064E274EF80E090E0A40193010E949C3047
:1059400079018A010894E108F1080109110985E04B
:10595000FFEFEF16F1040105110591F188F162E105
:105960007AE780E090E0A40193010E949C307901E5
:105970008A010894E108F10801091109552011F084
:1059800086E001C084E02FEFE216F1040105110565
:10599000B9F0B0F0C601B50120E034E040E050E0DD
:1059A0000E949C3079018A010894E108F1080109FC
:1059B0001109552011F087E008C085E003C081E09F
:1059C000552019F485BD3AC082E08093B10036C0FD
:1059D0005101CC24DD2460E072E18AE790E0A60169
:1059E00095010E949C3079018A010894E108F10830
:1059F0000109110980E0E81680E0F80681E0080757
:105A000080E0180710F491E010C068E478EE81E0BF
:105A100090E0A60195010E949C3079018A010894CA
:105A2000E108F1080109110993E0A1E05A1631F4E7
:105A300080918100887F982B9093810089819A8141
:105A4000AB81BC810097A105B10529F48FEF9FEFD1
:105A5000AFEFBFEF13C0220C331CB10180E090E028
:105A600029813A814B815C810E94283028EE33E005
:105A700040E050E00E947A30C901DA01E1E05E16B0
:105A8000A1F0F2E05F1619F1552099F5E7BC80937B
:105A9000D3039093D403A093D503B093D6038091FE
:105AA0006E00826080936E0024C0F0928900E092C4
:105AB00088008093DA039093DB03A093DC03B09318
:105AC000DD0380916F00826080936F0012C0E092CE
:105AD000B3008093E1039093E203A093E303B093B8
