:100000000C9468020C947E240C94AB240C949602FD
:100010000C9496020C9496020C9496020C94960200
:100020000C9496020C9496020C945E070C94B920E2
:100030000C9482070C9496020C9496020C949602EF
:100040000C94D8240C9496020C94B9260C94F426A3
:100050000C9496020C948D070C9496020C949602C4
:100060000C9496020C94960208000000BE9224495B
:10007000123EABAAAA2ABECDCCCC4C3E00000080DA
:10008000BEABAAAAAA3E00000000BF000000803F4D
:100090000000000000084178D3BB4387D1133D190D
:1000A0000E3CC3BD4282AD2B3E68EC8276BED98F3A
:1000B000E1A93E4C80EFFFBE01C4FF7F3F0000007E
:1000C0000000484D50532C007265626F6F740063DE
:1000D0006F6E666967007365743F74703D00736589
:1000E000743F74743D007365743F666E3D007365C4
:1000F000743F616C3D007365743F70630073657499
:100100003F706E007365743F706964007365743F7F
:10011000706F3D007365743F6C643D007365743FA0
:100120006C623D007365743F73703D00484D4C44F4
:100130002C00484D504F00484D504400484D524D02
:1001400000484D50432C00484D414C00484D464E10
:100150002C00554349442C4865617465724D6574A3
:1001600065722C323031343130303300484D504ECE
:1001700000484D53552C00484D4152000A050A05D0
:100180000A32070F1F1F1F1F1F1F1F1F1F00000006
:1001900000001C1E1F1F1F1F1F1F1F1F1F1F1F1FB1
:1001A0000F0700000000001F1F1F1F1F1F1F1F1F22
:1001B0001E1C1F1F1F0000001F1F1F000000001F2C
:1001C0001F1F484D4C472C000EF0E10006F00000C8
:1001D000000000000080400AD7A33C0000A04000BF
:1001E000327F7F7F7F46006410FF640D0A0B00643E
:1001F000C850726F626520200000000000000100FE
:10020000D8FF38FF0000A99F8139F06375396A086B
:10021000153400401C46484D4C422C002D204E6F9A
:10022000205069742050726F6265202D00252D3199
:100230003273253364DF005069743A253364DF2557
:100240006320256325337525252563005069743A9D
:10025000253364DF2563204C6964253375002A2A21
:1002600020414C41524D2048494748202A2A002A23
:100270002A20414C41524D204C4F5720202A2A0021
:1002800000010203040501022020052006060203E6
:100290000707060602070705030402202005FF06DC
:1002A00006070705000606030705010102200020D6
:1002B00000060203070500060220200502701C0547
:1002C00003701C0504701C0505701C0106601C00F1
:1002D000092F1C0A13FE1B0A0DC01B0A0EC01B0AA5
:1002E0000FC01B0A10C01B0A11981B0A126E1B0AB2
:1002F000144D1B0A161F1B0A15EA1A0A18141A14A1
:10030000000000000228030202090204040328047A
:100310000302090304020428020402090404030579
:100320002802050209050404092102090213132108
:100330000213021515210215021616210216020DCE
:100340000D21020D020E0E21020E020F0F21020FCF
:1003500002101021021002111121021102121221A9
:100360000212021414210214020900000025336451
:100370002525004C4344206272696768746E65737A
:1003800073007370656564202533642525004D6115
:1003900078696D756D206175746F2066616E0052AD
:1003A0006573657420636F6E6669673F004E6F20EA
:1003B0000059657300253364207365636F6E647341
:1003C000004C6964206F70656E2074696D65720001
:1003D00025336425252062656C6F77207365740072
:1003E0004C6964206F70656E206F6666736574007B
:1003F0004F666673657420253464DF2563004D61A4
:100400006E75616C2066616E206D6F6465002533CA
:1004100064DF2563005365742074656D70657261D7
:10042000747572653A00484D52462C3235352C3081
:100430002C0000000000240027002A00000000001B
:10044000250028002B0000000000230026002900C2
:10045000040404040404040402020202020203036A
:100460000303030301020408102040800102040872
:100470001020010204081020000000070002010003
:10048000000304060000000000000000494E464939
:100490004E4954594E414ECDCCCC3D0AD7233C1742
:1004A000B7D13877CC2B329595E6241FB14F0A008F
:1004B0000020410000C84200401C4620BCBE4CCA7F
:1004C0001B0E5AAEC59D7400A90EDD1C922060283B
:1004D00011241FBECFEFD8E0DEBFCDBF14BEE0E6D3
:1004E000F0E088E18083108211E0A0E0B1E0ECE56B
:1004F000FCE502C005900D92A434B107D9F713E0D2
:10050000A4E4B1E001C01D92AD3FB107E1F714E0F2
:10051000C0EDD4E004C02297FE010E94E62DC83C45
:10052000D107C9F70E949D0E0C942C2E0C9400004C
:10053000662777270C94F704FC0188279927E8940D
:1005400021912032E9F3293010F02E30C8F32B32FC
:1005500041F02D3239F4689404C00E94E102820F08
:10056000911D219120532A30C0F31EF4909581955E
:100570009F4F0895FB01DC0102C005900D92415090
:100580005040D8F70895FB01DC014150504030F055
:100590008D910590801919F40020B9F7881B990BEB
:1005A0000895FB01DC0102C001900D9241505040C2
:1005B000D8F70895DC0101C06D9341505040E0F739
:1005C00008957AE0979F902D879F802D910D11249B
:1005D0000895AEE0B0E0EFEEF2E00C94032E0D894A
:1005E0001E898F89988D97FF02C080E090E801975F
:1005F0009E838D831A8309838EE08C839E01255E02
:100600003F4FCE010196698D7A8DA9010E941A0390
:100610004D815E8157FD0AC02F81388542175307EF
:100620000CF49A01020F131FF80110822E96E4E0D9
:100630000C941F2EABE0B0E0E0E2F3E00C94F52D5B
:100640003C012B015A01FC0117821682838181FD36
:1006500003C06FEF7FEFC6C19AE0892E1E01089498
:10066000211C311CF3012381F20123FD859123FF1D
:1006700081912F01882309F4B2C1853239F423FD19
:10068000859123FF81912F01853229F490E0B301F8
:100690000E948506E7CF982FFF24EE249924FFE1DE
:1006A000FF15D0F09B3269F09C3228F4903259F05B
:1006B000933291F40EC09D3249F0903369F441E0D9
:1006C00024C052E0F52A84E0F82A28C098E0F92AEC
:1006D00025C0E0E1FE2A22C0F7FC29C0892F805303
:1006E0008A3070F4F6FE05C0989C902C1124980E68
:1006F00015C0E89CE02C1124E80EF0E2FF2A0EC0A1
:100700009E3229F4F6FC6BC140E4F42A07C09C3603
:1007100019F450E8F52A02C0983649F4F20123FD95
:10072000959123FF91912F01992309F0B8CF892F3B
:100730008554833018F08052833038F444E050E020
:10074000A40EB51E5FE359830FC0933631F0933783
:1007500079F0933509F056C020C0F5018081898376
:1007600042E050E0A40EB51E610101E010E012C0AD
:10077000F501C080D180F6FC03C06FEF7FEF02C0AF
:10078000692D70E042E050E0A40EB51EC6010E9443
:100790007A068C015FE7F52214C0F501C080D18094
:1007A000F6FC03C06FEF7FEF02C0692D70E042E0FE
:1007B00050E0A40EB51EC6010E946F068C0150E8E1
:1007C000F52AF3FE07C01AC080E290E0B3010E9450
:1007D0008506EA948E2D90E008171907A8F30EC03D
:1007E000F601F7FC8591F7FE81916F0190E0B3016E
:1007F0000E948506E110EA94015010400115110590
:1008000079F7EAC0943611F0993669F5F7FE08C019
:10081000F501208131814281538184E090E00AC05A
:10082000F501808191819C01442737FD4095542F2B
:1008300082E090E0A80EB91E9FE6F92257FF09C09A
:1008400050954095309521953F4F4F4F5F4FE0E8D1
:10085000FE2ACA01B901A1012AE030E00E94B106D6
:10086000D82ED21840C0953729F41F2D1F7E2AE0BC
:1008700030E01DC01F2D197F9F3661F0903720F4A6
:10088000983509F0ACC00FC0903739F0983709F0AF
:10089000A6C004C028E030E00AC0106114FD146056
:1008A00020E130E004C014FD166020E132E017FFC3
:1008B00008C0F501608171818281938144E050E03C
:1008C00008C0F50180819181BC0180E090E042E0A8
:1008D00050E0A40EB51EA1010E94B106D82ED21878
:1008E0008FE7F82EF122F6FE0BC05EEFF522D91449
:1008F00038F4F4FE07C0F2FC05C08FEEF82202C007
:100900001D2D01C0192DF4FE0DC0FE01ED0DF11DD0
:100910008081803319F499EEF92208C01F5FF2FE3E
:1009200005C003C08F2D867809F01F5F0F2DF3FCE3
:1009300014C0F0FE0FC01E1510F09D2C0BC09D2C96
:100940009E0C911A1E2D06C080E290E0B3010E9419
:1009500085061F5F1E15C0F304C01E1510F4E11AB2
:1009600001C0EE2404FF0FC080E390E0B3010E94B9
:10097000850602FF1DC001FD03C088E790E00EC0A0
:1009800088E590E00BC0802F867891F001FF02C0CF
:100990008BE201C080E2F7FC8DE290E0B3010E949F
:1009A000850606C080E390E0B3010E9485069A9414
:1009B000D914C0F3DA94F101ED0DF11D808190E0BE
:1009C000B3010E948506DD20A9F706C080E290E011
:1009D000B3010E948506EA94EE20C1F743CEF301ED
:1009E00066817781CB012B96E2E10C94112EA0E079
:1009F000B0E0EDEFF4E00C94FB2DEC015B01611530
:100A0000710519F0FB0191838083F9908F2D90E09F
:100A10000E94EA2D892BC9F7FDE2FF1621F4F99017
:100A2000EE24E39405C02BE2F21609F4F990EE24CB
:100A30008E0101501040C8016CE874E043E050E0C2
:100A40000E945706892B01F58E010E5F1F4FC801CA
:100A50006FE874E045E050E00E945706892B19F4D6
:100A60008E01095F1F4FA114B10419F0F501118324
:100A70000083E0FC04C070E090E080E814C070E007
:100A800090E080E86FEF08C1C80164E974E043E0DA
:100A900050E00E945706892B69F4A114B10429F48F
:100AA00070E090E080EC6FE7F7C02296F501D1830B
:100AB000C083F6CF8824992440E050E060E070E0E5
:100AC000EF2DE053EA30A0F5F2E0EF2A8E2D90E012
:100AD0009C0128703070E2FE06C0232B79F5089443
:100AE000811C911C2BC0232B19F0089481089108BC
:100AF000DB01CA0112E0880F991FAA1FBB1F1A95BC
:100B0000D1F7480F591F6A1F7B1F440F551F661FDF
:100B1000771F4E0F511D611D711D483929E952077C
:100B200029E9620729E1720748F084E0E82A06C053
:100B3000EE3F31F4E3FC39C098E0E92AF990C0CFE8
:100B4000E53311F0E53189F529912D3219F4E0E111
:100B5000EE2A05C02B3219F081E090E003C0299104
:100B600082E090E0E22FE053EA3018F0C81BD90B86
:100B70001CC020E030E0FCE020383F075CF4C901F5
:100B8000880F991F880F991F280F391F220F331FB5
:100B90002E0F311DE991E053EA3068F3E4FE03C003
:100BA000309521953F4F820E931ECE2CDD24E1FE21
:100BB00007C0A114B10421F02197F501D183C083AE
:100BC000CB01BA010E94D92B7B018C01F3E0CF222B
:100BD000DD2423E0C216D10421F417FB109517F988
:100BE000109557016801C801B70120E030E040E0EE
:100BF00050E00E943C2B882309F44AC097FE0DC0A8
:100C00002BEAE22E24E0F22E9094819491089394A2
:100C1000C0E2D0E000E010E012C093ECE92E94E0D6
:100C2000F92EF6CFF7012591359145915491C601E2
:100C3000B5010E94D42C5B016C018C1A9D0A8C16A4
:100C40009D0684F7D595C7950F5F1F4F0630110598
:100C500029F08CEF9FEFE80EF91EF1CFC501D60108
:100C60007C018D018C2D880F8D2D881F8F3F51F0B9
:100C7000C601B50120E030E040E050E00E943C2B8E
:100C8000882331F482E290E09093FC038093FB038D
:100C90007E2D9F2D802F612F272F392F482F562FE4
:100CA000B901CA01CDB7DEB7ECE00C94172EFB01F9
:100CB000DC014150504088F08D9181341CF08B351F
:100CC0000CF4805E659161341CF06B350CF4605E51
:100CD000861B611171F3990B0895881BFCCFFC01F1
:100CE0000590615070400110D8F7809590958E0F57
:100CF0009F1F0895FC016150704001900110D8F7CA
:100D0000809590958E0F9F1F08950F931F93CF93FB
:100D1000DF938C01EB018B8181FF1BC082FF0DC033
:100D20002E813F818C819D812817390764F4E881E9
:100D3000F9810193F983E88306C0E885F985802F5E
:100D40000995892B31F48E819F8101969F838E8333
:100D500002C00FEF1FEFC801DF91CF911F910F91DC
:100D60000895FA01AA27283051F1203181F1E89441
:100D70006F936E7F6E5F7F4F8F4F9F4FAF4FB1E08E
:100D80003ED0B4E03CD0670F781F891F9A1FA11D89
:100D9000680F791F8A1F911DA11D6A0F711D811D8A
:100DA000911DA11D20D009F468943F912AE0269F4F
:100DB00011243019305D3193DEF6CF010895462FAE
:100DC0004770405D4193B3E00FD0C9F7F6CF462F8F
:100DD0004F70405D4A3318F0495D31FD40524193F8
:100DE00002D0A9F7EACFB4E0A695979587957795B5
:100DF0006795BA95C9F700976105710508959B013C
:100E0000AC010A2E06945795479537952795BA95C4
:100E1000C9F7620F731F841F951FA01D0895FC0161
:100E20009B010AC0F999FECF32BD21BDF89A80B569
:100E3000819341502F5F3F4F4423A1F70895DC0178
:100E400020E030E014C0FD01E20FF31FE081F999CA
:100E5000FECF1FBACB01820F931F92BD81BDE0BDB3
:100E60000FB6F894FA9AF99A0FBE2F5F3F4F4217C8
:100E700051F70895DF93CF9300D0CDB7DEB79C0133
:100E80007A836983CE010196B90142E00E941F076F
:100E90000F900F90CF91DF910895DF93CF930F9232
:100EA000CDB7DEB79C016983CE010196B90141E05F
:100EB0000E941F070F90CF91DF9108951F920F920C
:100EC0000FB60F9211242F933F938F939F932091EE
:100ED0008A0030918B002115310559F080919701DE
:100EE00090919801280F391F30938B0020938A002E
:100EF000289A9F918F913F912F910F900FBE0F9045
:100F00001F9018951F920F920FB60F9211242898D8
:100F10000F900FBE0F901F9018951F920F920FB653
:100F20000F9211241F932F933F934F935F936F93CF
:100F30007F938F939F93AF93BF93EF93FF93809192
:100F40004901882321F081508093490190C060912C
:100F50007800709179009B0140E050E0809145015C
:100F600090914601A0914701B0914801280F391F87
:100F70004A1F5B1F20934501309346014093470170
:100F800050934801809144018F5F809344018823EE
:100F9000C1F080914A0190914B018617970720F488
:100FA00070934B0160934A0180914C0190914D01E7
:100FB0006817790708F05BC070934D0160934C018E
:100FC00056C010917C001F70173028F070936D018F
:100FD00060936C011EC0E12FF0E0EE0FFF1FDF01F8
:100FE000A25BBE4F92E056954795379527959A9507
:100FF000D1F72D933C93E65AFE4F80914A01909190
:101000004B0120914C0130914D01821B930B918338
:10101000808310924B0110924A018FEF9FEF9093C3
:101020004D0180934C01109245011092460110929F
:10103000470110924801212F2F5F263008F020E051
:10104000E22FF0E0EC5BFE4F82A1882311F490E4E4
:1010500001C090EC80917C00807C891711F080E3C6
:1010600001C082E080934901922B90937C00FF9114
:10107000EF91BF91AF919F918F917F916F915F9110
:101080004F913F912F911F910F900FBE0F901F9086
:101090001895E82FF894F0E0EE0FFF1FE25BFE4F8B
:1010A00020813181789480E190E0861B910902C013
:1010B000369527958A95E2F7C9010895E82FF894A7
:1010C000F0E0EE0FFF1FE65AFE4F80819181789489
:1010D0000895FC01808191811816190674F4861711
:1010E00097071CF481E0868308C0681779072CF401
:1010F0008681882311F081E0848322813381121656
:10110000130684F4C9010197681779071CF481E07C
:10111000878308C0621773072CF08781882311F03A
:1011200081E085838091B6019091B701892B11F000
:10113000158214820895A62FB0E0FC01EA0FFB1F70
:10114000168214824115510531F0AA0FBB1FA80F5A
:10115000B91F4D935C930895FC01608385E58283FC
:101160000895FC01618385E5828313820895EF92DF
:10117000FF920F931F93CF93DF93EC018A818F34FB
:10118000C1F58B81882359F48D899E89AF89B88DEB
:10119000898F9A8FAB8FBC8F81E08B831CC0E98CC9
:1011A000FA8C0B8D1C8D6D897E898F89988DA80195
:1011B00097010E94D72A2AE83BE446E05DE30E94BB
:1011C000D42C9B01AC01C801B7010E94D82A698FB9
:1011D0007A8F8B8F9C8F6D897E898F89988D0E94E5
:1011E000A82B9B01AC016D96CE01B9010E94690844
:1011F00004C01BA219A21CA21AA2DF91CF911F91B9
:101200000F91FF90EF900895EF92FF920F931F932D
:10121000CF93DF93EC017A018B01CB01BA0120E07F
:1012200030E040EA51EC0E943C2B181614F08CE49C
:101230003CC0C801B70120E030E04AEF53E40E940F
:101240008B2C882314F088E430C080918B01863485
:1012500099F4C801B70126E636E646EE5FE30E9440
:10126000D42C20E030E040E052E40E94D82A6D8B7C
:101270007E8B8F8B988F04C0ED8AFE8A0F8B188F20
:101280006C81772767FD7095872F972F0E94DB2B46
:101290009B01AC016D897E898F89988D0E94D82A27
:1012A0006D8B7E8B8F8B988F8FE48A83DF91CF91AC
:1012B0001F910F91FF90EF900895209A80E49CE990
:1012C0009093870080938600109280008AE180933B
:1012D000810084E280936F008EE480937C0080E440
:1012E00080937B008FEE80937A000895FC0163A3C6
:1012F00083E08093B00083A184FF02C081E001C03D
:1013000085E08093B1000895DC0120E09B96ED918B
:10131000FC919C978181861709F421E09D96ED91BF
:10132000FC919E978181861709F42F5F9F96ED911E
:10133000FC91D0978181861709F42F5FD196ED91AA
:10134000FC91D2978181861709F42F5F822F90E05C
:101350000895DC019D96ED91FC919E9782818F34DA
:1013600079F09F96ED91FC91D09782818F3441F076
:1013700090E0D196ED91FC91D29782818F3409F45F
:1013800091E0892F0895FC0183859485E85BFF4FE8
:1013900091838083E854F04081E085830895FC01C7
:1013A000778366831582108680E090E0A0E0B0E04D
:1013B000858B968BA78BB08FE85BFF4F11821082D5
:1013C0000895FC0181E0808777FF02C060E005C0DE
:1013D0006536710514F064E670E06083E85BFF4FEA
:1013E000118210820895FC01CB016E31710510F459
:1013F0008EE190E0948783870895CF93DF93EC018B
:10140000E62FF0E03D96EE0FFF1FEE0FFF1FE80FF7
:10141000F91F2083318342835383623041F480E09B
:1014200090E0A0E0B0E08D8B9E8BAF8BB88FDF910A
:10143000CF910895FC01633449F064341CF46134A5
:1014400031F404C0663411F0623509F4658F0895F3
:101450001F93182F80912E03882351F481E08093ED
:101460002E0310922F0389ED93E064E20E9420285E
:1014700080912F03812780932F0389ED93E0612FC3
:101480000E9420281F910895EF92FF920F931F93BF
:10149000CF93DF938C01FC01E3A4F4A4F7018281D4
:1014A0008F3409F055C0C2ECD0E0FE012196849142
:1014B000882319F00E94280AF8CFE80110E04D8532
:1014C0005E856F8578898AE293E022E030E00E94B1
:1014D000D42A8CE20E94280A1F5F2496143079F7E0
:1014E000F701658976898789908D218D328D438DAD
:1014F000548D0E94D72AAB01BC018AE293E022E01E
:1015000030E00E94D42A89ED93E06AE20E9420280C
:1015100060912F0362956F706A3010F4605D01C0B6
:10152000695C89ED93E00E94202860912F036F7021
:101530006A3010F4605D01C0695C89ED93E00E943F
:10154000202889ED93E06AE00E94202810922E0363
:10155000DF91CF911F910F91FF90EF900895FC01C3
:1015600096A1992319F183A184FF20C0F8942091BA
:101570005101789486A190E0821B910962E070E0AD
:101580000E94AF2D85A1680F711D77FF02C060E03A
:1015900006C06F3F710519F014F06FEF70E065A39E
:1015A00065A183E070E00E947325089595A3F8CFAC
:1015B000FF920F931F93CF93DF93EC016E817F8196
:1015C0008AE293E04AE050E00E94DA298CE20E942D
:1015D000280A8E01055D1F4FFF24D801ED91FC9173
:1015E00082818F3459F4458956896789708D8AE2E2
:1015F00093E021E030E00E94D42A03C085E50E94F8
:10160000280A8CE20E94280AF3940E5F1F4FB4E070
:10161000FB1619F78AE293E068814AE050E00E94E5
:1016200088298CE20E94280ACC5BDF4F699179916E
:10163000899199910E94A82B9B01AC018AE293E0C9
:10164000B9014AE050E00E94DA298CE20E94280A9F
:1016500068817981C854D0408AE293E04AE050E042
:101660000E9477298CE20E94280A8AE293E06CA10A
:101670004AE050E00E948829DF91CF911F910F919D
:10168000FF9008957F928F929F92AF92BF92CF92D8
:10169000DF92EF92FF920F931F93CF93DF93EC01B2
:1016A0004B0170908B0180E090E021E4721639F4D8
:1016B0000E94D92B6D8B7E8B8F8B988F94C00E944C
:1016C000D92B5B016C0120E030E84FE757E40E9422
:1016D0008B2C18161CF08114910411F485E584C03C
:1016E0008981833009F056C0E988FA880B891C8902
:1016F000C801B70120E030E048EC52E40E943C2BE6
:10170000882354F460E070E48EE495E4A801970126
:101710000E94402B7B018C018881E82FF0E0EC5B7C
:10172000FE4F82A1882309F112A280E088168AEF79
:10173000980610F481E082A360916C0170916D01B4
:1017400080E090E00E94D92B9B01AC0160E070EC3E
:101750008FE794E40E94402B9B01AC01C801B701C4
:101760000E94402B7B018C0108C012A220E082164F
:101770002BE4920610F481E082A3C601B50120E0BB
:1017800030EC4FE757E40E94402BA80197010E94DC
:10179000D42C59C060E070EC8FE797E4A601950166
:1017A0000E94402B20E030E040E85FE30E94D72A0F
:1017B0009B01AC0169897A898B899C890E94402BA5
:1017C0007B018C01F80182E5781681F48091990102
:1017D00090919A01C817D90749F0C701D8018D8B9C
:1017E0009E8BAF8BB88F8FE48A8332C0CF010E946B
:1017F000942C7B018C012D853E854F8558890E9454
:10180000D42CA80197010E94D42C29853A854B85B8
:101810005C850E94D82AA80197010E94D42C2D81B2
:101820003E814F8158850E94D82A9B01AC0160E01F
:1018300070E080E89FE30E94402B23E333E948E80F
:1018400053E40E94D72AAB01BC01CE010E940409D7
:10185000DF91CF911F910F91FF90EF90DF90CF908C
:10186000BF90AF909F908F907F9008959F92AF927E
:10187000BF92CF92DF92EF92FF920F931F93CF937D
:10188000DF93EC010E94202529813A81621B730BB2
:101890006D54714070F00E94202569837A838B8398
:1018A0009C838985823038F48F5F8987CE010E94BE
:1018B000AF0A80E0FCC119868E01055D1F4FFF2431
:1018C000F801A081B18111968C911197813011F0AE
:1018D000833069F4F894EC91F0E0EE0FFF1FE25BC7
:1018E000FE4F608171817894CD010E94420BF80116
:1018F000819191918F010E94B708F394F4E0FF1653
:10190000F9F68885882309F006C198801882EBA52E
:10191000FCA582818F3409F094C0C85BDF4F8881B9
:101920009981C854D040892B09F08BC0A588B6880E
:10193000C788D08C6E817F81882777FD8095982F0E
:101940000E94DB2BA60195010E94D72A7B018C0106
:1019500068AD79AD8AAD9BADA80197010E94D42CEA
:10196000698B7A8B8B8B9C8BC801B70120E030E0B0
:1019700040E050E00E948B2C18161CF443E64915F9
:1019800060F4C801B70120E030E040E050E00E9480
:101990003C2B8823B4F49920A1F0C801B7012CADE9
:1019A0003DAD4EAD5FAD0E94D42C9B01AC016D8965
:1019B0007E898F89988D0E94D82A6D8B7E8B8F8B24
:1019C000988FEBA5FCA5618D728D838D948DA601FA
:1019D00095010E94D72A9B01AC01C05CDF4F688152
:1019E00079818A819B81C054D0400E94D42C7B0194
:1019F0008C01698F7A8F8B8F9C8F6CA97DA98EA9A2
:101A00009FA96D877E878F87988B29893A894B8913
:101A10005C890E94D82A2D893E894F89588D0E9461
:101A2000D82AA80197010E94D82A0E94A82B77FFE4
:101A300002C060E005C06536710514F064E670E030
:101A40006883EBA5FCA5658976898789908D0E94BE
:101A5000A82BAB016E817F814617570734F18B8528
:101A60009C85C85BDF4F28813981C854D040821BD8
:101A7000930B4F97D0F08D81882371F46D897E8907
:101A80008F89988D20E030E040E05FE30E94D42C05
:101A90006D8B7E8B8F8B988F82E08D83C85BDF4F41
:101AA00019821882C854D04036C08E01085B1F4F7F
:101AB000F80180819181009721F0019791838083C3
:101AC0002AC08D81823039F59B01241B350B84E6B9
:101AD00090E0AC01249FC001259F900D349F900D94
:101AE00011240E94AF2D8BA990E0681779079CF014
:101AF000FE01EC5BFF4F60817181828193810E94C6
:101B0000A82B6A3571053CF48B859C85F80191837F
:101B1000808381E08D83E4E4CE2ED12CCC0EDD1EBB
:101B2000F601E080F18002811381B8806B2D70E0B6
:101B300080E090E00E94D92BA80197010E94D72A4B
:101B400021E837EF47E05CE30E94D42C9B01AC0115
:101B5000C801B7010E94D82AF6016083718382838D
:101B600093838BA182FFAFC0F3E6FB1508F4ABC0F3
:101B70001CA20CC09F8D01C09E8D8881989FC001C2
:101B8000112464E670E00E949B2D6CA39CA128A107
:101B90009217A8F48AE0989FC0011124622F70E088
:101BA0000E949B2D8A8590E08617970710F42CA33E
:101BB00001C01CA28A858F5F8A878A3008F01A8646
:101BC0008BA180FF04C08E8D9CA1891B8CA39CA13E
:101BD000992311F41EA221C02EA18BA184FF0AC05B
:101BE00087E8989FC001112464E670E00E949B2D55
:101BF000625A08C08FEF989FC001112464E670E01C
:101C00000E949B2D6EA3222341F483E06FEF70E0CE
:101C10000E94732580E88DA303C0CE010E94AF0A05
:101C20008BA183FF55C08881882309F451C024E625
:101C30008BA181FF03C084E6821B282F59A14AA1F2
:101C40008FA198A5892B31F484E1489FC00111240C
:101C500098A78FA330E0852F90E0841B9109BC01E9
:101C6000269FC001279F900D369F900D112464E69A
:101C700070E00E949B2D460F24E1429F90011124A9
:101C8000F894EFA1F8A5C9018E1B9F0B62E370E0E9
:101C90000E94AF2DCB017AA769A78E0F9F1F90934B
:101CA0008B0080938A00789438A72FA381E0DF917E
:101CB000CF911F910F91FF90EF90DF90CF90BF9049
:101CC000AF909F9008958D81882309F453CF54CF0E
:101CD0002881AECFCF93DF93FC01DB011D968C9161
:101CE0001D9781831E968C911E9784839F012B5F85
:101CF0003F4FAB014B5E5F4F80E1EA010990AE01BF
:101D0000E90109929E018150C1F71F968D919C9126
:101D1000509713A211A2009711F0968F858F5196BC
:101D20006D917C91529714A212A26115710511F068
:101D300070A3678FDF91CF9108950E9438250E948C
:101D400007160E944319FDCF882311F46093DE0229
:101D500008951F9385EC91E065E00E94AC088AEE3F
:101D600091E064E00E94AC088FE092E063E00E94A2
:101D7000AC0884E392E062E00E94AC0810E81093A3
:101D8000770186E480938B0188EB91E064E042E088
:101D90000E94622282EF9EE090935F0280935E0237
:101DA00010936002E3E6F2E08FEF8083399692E0D1
:101DB000E738F907D1F783EE9EE09093990280937C
:101DC00098021F910895282F462F882321F489E037
:101DD0000E9412260895215088EB91E0622F0E9404
:101DE00012210895BF92CF92DF92EF92FF920F934C
:101DF0001F93CF93DF936C01B62E09E911E09AE9A6
:101E0000E92E92E0F92EF801C081D18189818230DA
:101E100089F5F70190819F3721F0F60182819817AB
:101E200049F5F4E0BF1621F4CE0160E070E020C077
:101E3000F60187812081318182FF13C0B901882793
:101E400077FD8095982F0E94DB2B20E030E040E268
:101E500051E40E94402BAB01BC01CE010E94040959
:101E600009C084E0220F331F8A95E1F7CE01B90142
:101E70000E94420B0E5F1F4F0894E11CF11CF1E021
:101E8000013A1F0709F0BFCF85E0B82221F089E5AC
:101E900092E00E94201FDF91CF911F910F91FF9040
:101EA000EF90DF90CF90BF900895EF92FF921F9335
:101EB000CF93DF93EC017B0110E013C08C3219F457
:101EC0001F5F21960EC0CE010E949C02BC01812F93
:101ED000F701099501C021968881882311F08C3281
:101EE000D1F78881882351F7DF91CF911F91FF901F
:101EF000EF900895982F843090F4E82FF0E0EE0FE3
:101F0000FF1FE259FE4F03A4F4A5E02D648385E290
:101F1000989FC0011124825B90E00E944D070895B4
:101F2000CF93DF93EC01FE0121968491882319F071
:101F30000E94280AF8CFDF91CF9108958CE20E9489
:101F4000280A089589ED93E06AE20E9420286091B2
:101F50002F0362956F706A3010F4605D01C0695C98
:101F600089ED93E00E94202860912F036F706A3002
:101F700010F4605D01C0695C89ED93E00E94202847
:101F800089ED93E06AE00E94202810922E030895C4
:101F90000F931F938CE291E00E94900F0AE213E0EE
:101FA000C8016091A1014AE050E00E9488290E9486
:101FB0009E0F6091790170917A01C8014AE050E06A
:101FC0000E9477290E94A20F1F910F9108950F93ED
:101FD0001F93CF93DF938CE391E00E94900FC9E9A8
:101FE000D1E00AE912E00E949E0FE881F981818127
:101FF000823041F48AE293E0F80160814AE050E0E7
:102000000E94882922960F5F1F4FF1E0C13ADF0737
:1020100051F70E94A20FDF91CF911F910F91089568
:102020000F931F938CE491E00E94900F0AE213E05B
:10203000C80160918E014AE050E00E9488290E9408
:102040009E0FC80160918C014AE050E00E948829EF
:102050000E949E0FC801609190014AE050E00E94EA
:1020600088290E949E0FC80160918F014AE050E0CC
:102070000E9488290E949E0FC801609191014AE048
:1020800050E00E9488290E949E0FC80160918D0136
:102090004AE050E00E9488290E94A20F1F910F91F0
:1020A0000895682F853608F064E660938C018FE10F
:1020B00090E00E944D070E9410100895CF93DF9387
:1020C00086E192E00E94900F8AE293E06091C40161
:1020D0004AE050E00E9488290E949E0F8AE293E025
:1020E0006091E6024AE050E00E948829C6E8D2E00A
:1020F0000E949E0F8AE293E068814AE050E00E94CD
:102100008829239682E0C239D80791F70E94A20F4E
:10211000DF91CF910895CF93DF9382E391E00E9406
:10212000900FC9E9D1E00E949E0FE991F991648175
:10213000772767FD70958AE293E04AE050E00E94BD
:10214000DA2981E0C13AD80771F70E94A20FDF9126
:10215000CF9108950E947A0F0E948B1008950F93DB
:102160001F93CF93DF9387E491E00E94900F09E9DA
:1021700011E0F801C081D1810E949E0F6D8D7E8D8E
:102180008AE293E04AE050E00E94DA2989A188239C
:1021900019F08CE40E94280A0E949E0F6F8D78A18E
:1021A0008AE293E04AE050E00E94DA298AA188237B
:1021B00019F088E40E94280A0E5F1F4FF1E0013AEF
:1021C0001F07B9F60E94A20FDF91CF911F910F91C7
:1021D0000895CF93DF9387E391E00E94900FC2EAC6
:1021E000D1E00E949E0F49915991699179918AE2BB
:1021F00093E028E030E00E94D42A81E0C23BD80777
:1022000081F70E94A20FDF91CF9108959F92AF9224
:10221000BF92CF92DF92EF92FF920F931F93CF93D3
:10222000DF93182F81E491E00E94900F8AE293E0FF
:10223000612F4AE050E00E9488290E949E0FE12F02
:10224000F0E0EE0FFF1FE259FE4FA3A4B4A4E50196
:10225000CC24ED80FE800F8118859924C801B70138
:1022600020E030E040E050E00E943C2B882334F432
:102270009924939417FB109517F91095DD240BC042
:10228000DA94C801B70120E030E040E251E40E9456
:10229000D42C7B018C01C801B70120E030E040E87C
:1022A0005FE30E943C2B8823B4F4C801B70120E00F
:1022B00030E040E050E00E943C2B882309F715C035
:1022C000D394C801B70120E030E040E251E40E941D
:1022D000402B7B018C01C801B70120E030E040E2D7
:1022E00051E40E948B2C87FFEBCF992021F017FB44
:1022F000109517F910958AE293E0B801A70127E03D
:1023000030E00E94D42A85E60E94280A6D2D7727A6
:1023100067FD70958AE293E04AE050E00E94DA2976
:102320000E949E0FC394249684E0C81609F091CFB2
:102330008AE293E0F50161814AE050E00E94882939
:102340000E94A20FDF91CF911F910F91FF90EF900C
:10235000DF90CF90BF90AF909F9008950F931F9301
:10236000182F062F843098F4E82FF0E0EE0FFF1FAF
:10237000E259FE4F83A594A50E94B10885E2189FFB
:10238000C0011124835B90E0602F0E944D071F91D4
:102390000F9108958EE691E062E00E948409892BF6
:1023A00029F089E592E063E00E948D1F089590E096
:1023B000FC01E656FD4F608349960E944D070E943E
:1023C000E70F0E94CA11089582E591E00E94900FE4
:1023D0008AE293E062E40E94E0280E94A20F08953E
:1023E0001F93162F8230F1F0833028F4882351F0A8
:1023F000813099F50FC08430F9F08430C0F0853019
:1024000061F522C0653608F064E660938E018EE1C6
:1024100090E021C0653608F064E660938C018FE19E
:1024200090E019C06093900187E290E00BC0609348
:102430008F0188E290E006C08EE691E00E94760966
:1024400080E290E0612F07C0653608F064E6609393
:102450008D0182E290E00E944D071F9108950F9335
:102460001F93DF93CF9300D0CDB7DEB7AB017A8354
:102470006983082F0695182F1170E02FF0E0EE0FFA
:10248000FF1FE259FE4F83A594A54D96612F0E9430
:102490009B08043090F489819A81892B71F0110F87
:1024A00085E2089FC0011124180F115BCE0101962F
:1024B000612F70E042E00E941F070F900F90CF91B4
:1024C000DF911F910F9108958091E00260E070E02C
:1024D0000E942F120E94AF10089581E791E00E94A0
:1024E000900F8EE691E00E94D80A0E94A20F0895F4
:1024F0001F9387E791E00E94900F10E00E949E0FCB
:10250000812F0E945E08BC018AE293E04AE050E01D
:102510000E9477291F5F163089F70E94A20F1F9132
:102520000895843058F465E2869FB0011124605C00
:1025300089EE92E070E04DE00E940F0708951F932E
:102540008CE691E00E94900F10E0812F0E94911282
:102550000E949E0F8AE293E069EE72E00E94ED29EC
:102560001F5F143091F70E94A20F1F910895282F2A
:10257000CB01243048F465E2269FB0011124605C51
:1025800070E04DE00E941F070E949F120895CF93B4
:10259000DF93EC011816190664F482E090E0BE01A6
:1025A0000E943A078EE691E0BE010E94CF0960E0EA
:1025B00009C066277727681B790B8EE691E00E9499
:1025C000E10961E087E190E00E944D07DF91CF9142
:1025D00008959F92AF92BF92CF92DF92EF92FF92B7
:1025E0000F931F93CF93DF93EC01FC010190002028
:1025F000E9F731970E2F081B64E271E047E050E0E5
:102600000E94C302892BD1F4CE0107960E949C023E
:102610000E94C712C00FD11D219708818EE691E05C
:10262000602F0E941A0A033419F0063409F098C189
:102630008DE190E0602F0E944D0792C1CE016CE1C8
:1026400071E047E050E00E94C302892B49F4CE01BB
:10265000079664EE79E10E94550F0E945E1080C1DA
:10266000CE0164E171E047E050E00E94C302892B93
:1026700049F4CE0107966CEB74E10E94550F0E945D
:10268000C80F6EC1CE016CE071E047E050E00E94DF
:10269000C302892B49F4CE0107966AE77FE00E94C6
:1026A000550F0E948B105CC1CE0164E071E047E0E1
:1026B00050E00E94C302892B09F033C10A3008F4AC
:1026C00030C1CE0109960E9498029B01AC016F8136
:1026D000643679F065361CF46236F9F406C0693662
:1026E00031F06037D1F401E005C000E003C002E042
:1026F00001C003E08EE691E0602F0E94FD09802F6B
:1027000090E0880F991F880F991FBC01695F7F4F68
:102710008E559E4F44E00E941F070E94E91020C181
:10272000093008F408C18E8128968053BE010E94AA
:10273000B71216C1093008F408C1BE8080EDB80E8A
:1027400093E09B1508F40CC1289685E2B89EC00161
:102750001124B5E59B2E980EAA24CB2CDD24CC0C9D
:10276000DD1CE9E9F1E0CE0EDF1E2EC0F3E0FA1524
:1027700078F18C3229F4A394219684E0980E24C039
:10278000F601E080F1800A2D10E0CE010E9498024F
:10279000000F111F000F111FF701E00FF11F6583DC
:1027A0007683878390870B5F1F4FC701800F911F30
:1027B000692D70E044E00E941F0701C021968881C6
:1027C000882311F08C32D1F78881882379F635C0BF
:1027D000CE010E949C02682FAB2DB0E087FD13C094
:1027E000AA0FBB1FA259BE4F9B96ED91FC919C97DF
:1027F0000181081711F18B2D0E94AE110230E9F40E
:102800008B2D6FE718C0082F0058FD01EE0FFF1F3A
:10281000E259FE4F03A4F4A5E02D8181823029F412
:10282000A656BD4F8C91801721F08B2D62E00E943F
:10283000AE118B2D602F0E94D7118B2D0E94061197
:102840008FC0CE0107966FE272E10E94550F0E9481
:10285000AF1086C0CE0166EE70E047E050E00E9407
:10286000C302892B49F4CE01079660EF71E10E9403
:10287000550F0E94101074C0CE016EED70E047E05D
:1028800050E00E94C302892B39F427968AEF92E028
:10289000BE010E940C1D64C0CE0166ED70E047E0F1
:1028A00050E00E94C302892B39F4CE01079664EAF6
:1028B0007EE00E94550F54C0CE016FEC70E046E000
:1028C00050E00E94C302892BD1F40E94E4110E94BF
:1028D000E9100E9410100E949F1200E0802F0E94B9
:1028E00006110F5F0430D1F70E948B100E94C80FB1
:1028F0000E945E100E94AF100E94E70F31C0CE010F
:1029000068EC70E045E050E00E94C302892B41F57D
:102910005F98F89488E18093600089E0809360007C
:10292000FFCFCE016DEF70E046E050E00E94C302A1
:10293000892B09F4F5CECE0166EF70E046E050E059
:102940000E94C302892B09F4F5CECE016EEE70E031
:1029500047E050E00E94C302892B09F07BCF71CF82
:10296000DF91CF911F910F91FF90EF90DF90CF906B
:10297000BF90AF909F900895CF93DF93482FEB01C6
:1029800077FF02C0C0E0D0E0413069F0413018F07C
:102990004230F9F413C0C093A10184E090E06C2FA1
:1029A0000E944D0716C08EE691E0BE010E94F30919
:1029B00085E090E0BE010E943A070BC0CD2B29F0C4
:1029C0008EE691E00E94C30904C01092B7011092F4
:1029D000B601DF91CF910895CF93DF93EC01662389
:1029E00021F088EB91E00E940222FE012196649181
:1029F000662329F088EB91E00E949021F6CFDF91C9
:102A0000CF910895982F87FD02C08093C4019F77CE
:102A10008FEF989FC001112464E670E00E949B2D07
:102A200085E00E9473250895AF92BF92CF92DF9206
:102A3000EF92FF920F931F93DF93CF93CDB7DEB743
:102A4000C255D0400FB6F894DEBF0FBECDBFC82E22
:102A5000CE01019660E070E049E20E940F07CC20B1
:102A600029F489819A818E50904F81F08E010F5FF9
:102A70001F4FC80168EC71E049E250E00E94BA02C1
:102A8000C80160E070E049E20E941F076B817C8111
:102A90008EE691E00E94CF098D818093A1016E8125
:102AA0007F818EE691E00E94F309A2EAB1E0FE0187
:102AB000389680E101900D928150E1F7888D88234E
:102AC00031F08EE691E060E070E00E94E109898DCE
:102AD0000E9402158A8D9B8DAC8DBD8D80939A02CC
:102AE00090939B02A0939C02B0939D028E8D8334A1
:102AF00011F066E401C063E48EE691E00E941A0AD8
:102B00008F8D853608F084E680938E0188A1853606
:102B100008F084E680938C018BA1853608F084E66A
:102B200080938D018EE691E069A10E9476098AA1C9
:102B30008093E60288A58093900189A580938F01F8
:102B400034E2E32EF12CEC0EFD1E00E086E892E06C
:102B5000602FF70141917F010E94791D0F5F0430C2
:102B6000A9F7CE018A966EE370E042E00E940F075B
:102B70008AA59BA58E50904F41F08EE390E06EE0C9
:102B800070EF0E943A07CC24C39429E9A22E21E0D9
:102B9000B22E00E410E090E3D92E8AE2E82EF12C68
:102BA000EC0EFD1ECC2071F0C70161EF71E045E233
:102BB00050E00E94BA02D8AAC701B80145E20E94BB
:102BC0001F0705C0C701B80145E20E940F07F501C4
:102BD000819191915F01B7010E946A0ED394F4E351
:102BE000DF1619F00B5D1F4FDDCFCE5ADF4F0FB64A
:102BF000F894DEBF0FBECDBFCF91DF911F910F9133
:102C0000FF90EF90DF90CF90BF90AF9008951F930B
:102C1000CF93DF93219A86E892E060E042E00E9441
:102C2000401D86E892E00E948F1D89ED93E040E010
:102C300056E960E070E00E942F2789ED93E06AE09A
:102C40000E9420280E94E41180E880BF8FE38093D7
:102C50007E00809164008068809364005F9A579A38
:102C60000E94F52085EC91E090939A018093990160
:102C70008AEE91E090939C0180939B018FE092E01B
:102C800090939E0180939D0184E392E09093A00134
:102C900080939F018EE691E00E945D0980E00E9492
:102CA0001415C2E8D1E010E088EB91E0612FAE018D
:102CB0000E9458211F5F28961830B1F70E94CA1150
:102CC0008AEF92E065E00E94F71DDF91CF911F919E
:102CD0000895882381F08091E1028F3FA9F410923A
:102CE000E2021092E3021092E4021092E50285E003
:102CF0008093E10208958FEF8093E1020E94F72014
:102D00008091C4010E94021508954F925F926F92C4
:102D10007F929F92AF92BF92CF92DF92EF92FF92FB
:102D20000F931F93DF93CF93CDB7DEB761970FB6A5
:102D3000F894DEBF0FBECDBF10910203812F8250E9
:102D4000853008F0D3C188EB91E060E040E00E945C
:102D50007D21163099F481E00E9469168091E0028D
:102D600080FD03C08FE692E002C08EE592E060E055
:102D70000E94EC14D090E002D69437C180E00E940B
:102D80006916E091E602E43008F08EC0F0E0EE0F44
:102D9000FF1FE259FE4F03A4F4A5E02D82818F347A
:102DA00009F082C0658976898789908D20E030E0BE
:102DB00040E251E40E94D42C0E94A82B77FF07C068
:102DC000CC24DD24C61AD70AEE24E39402C06B019A
:102DD000EE24A0E1FA2EC114D10419F488E08F1575
:102DE00084F5C6016AE070E00E949B2D8C01000F03
:102DF000111F080F191F000F111F00581D4F9DEFC5
:102E0000F90E88EB91E06F2D40E00E947D2188EB68
:102E100091E0B80143E00E94312188EB91E06F2DF1
:102E200041E00E947D210D5F1F4F88EB91E0B801CA
:102E300043E00E943121C6016AE070E00E949B2DB0
:102E40006B01FA9488EB91E06F2D40E00E947D21A8
:102E500088EB91E060E20E94902188EB91E06F2D79
:102E600041E00E947D21ACE0FA1631F488EB91E05C
:102E70006EE20E949021AFCFC114D10461F4B8E09A
:102E8000BF154CF0EE2039F088EB91E061E00E9434
:102E90009021EE2405C088EB91E060E20E94902131
:102EA000FF2009F098CF22C1E0919901F0919A0199
:102EB00002810F3419F060E070E006C06589768900
:102EC0008789908D0E94A82B80917601882309F034
:102ED000FBC00F3409F4F8C0CE0101966CE172E03A
:102EE00041E150E00E94BA026FC0EDB7FEB73C97D7
:102EF0000FB6F894FEBF0FBEEDBF3196CE0101961E
:102F0000ADB7BEB712969C938E93119781E190E076
:102F1000938382838CE492E09583848377836683B2
:102F200080918B01992787FD9095918780873387C2
:102F300022870E94E902EDB7FEB73C9640C0882385
:102F400019F42BE53DE502C02EE53EE58DB79EB7B1
:102F500040970FB6F8949EBF0FBE8DBFEDB7FEB77A
:102F60003196CE010196ADB7BEB712969C938E9363
:102F7000119781E190E09383828387E392E09583C8
:102F800084837783668380918B01992787FD909551
:102F900091878087822F992787FD909593878287D5
:102FA00080916E0184871586832F992787FD9095E0
:102FB000978786870E94E902EDB7FEB770960FB635
:102FC000F894FEBF0FBEEDBF88EB91E0BE016F5FCE
:102FD0007F4F0E94ED298091E6028F3F21F081E032
:102FE00073E0D72E03C0D12EDA948D2DC82E9924EC
:102FF00093945E010894A11CB11C6DE2462E62E020
:10300000562E59EE652E52E0752E5AC0F3E0FC158F
:1030100008F463C0EC2CFF24EE0CFF1C8EE691E05C
:10302000E80EF91ED7019B96ED91FC919C97828149
:103030008F3409F052C08C2D0E949112EDB7FEB76B
:103040003A970FB6F894FEBF0FBEEDBF0DB71EB78F
:103050000F5F1F4FB282A18281E190E0D8011396E9
:103060009C938E93129715965C924E921497179696
:103070007C926E921697D7019B96ED91FC919C974E
:10308000658976898789908D0E94A82BF8017187C0
:1030900060870E94E9028DB79EB70A960FB6F89432
:1030A0009EBF0FBE8DBF88EB91E060E0492D0E946E
:1030B0007D2188EB91E0B5010E94ED29C3949394A2
:1030C000DC1408F0A3CF12C02091B6013091B701F3
:1030D0002115310509F433CF08CFC50160E270E056
:1030E00041E150E00E94DA02198ADDCF61960FB605
:1030F000F894DEBF0FBECDBFCF91DF911F910F912E
:10310000FF90EF90DF90CF90BF90AF909F907F9017
:103110006F905F904F9008950F931F93CF93DF931D
:103120000E9485168091DF028F5F8093DF0290E01E
:103130008F719070892B21F489E592E00E94201F05
:103140000E946D12C9E9D1E000E011E00DC01093BA
:10315000E00201E01F5F86E892E0612F0E94401DBF
:1031600022961F5F1930A9F0E881F98141A1812FD2
:103170008150442319F08093E00201E086E892E058
:10318000612F0E94401DE881F98142A14423F9F694
:10319000E1CF86E892E06EE0402F0E94401D0023C0
:1031A00031F00E94AF108AEF92E066E007C0809194
:1031B0000203863029F48AEF92E062E00E94F71D54
:1031C0008091DE02882321F08EE691E00E94440A7D
:1031D0008091DF028370813011F40E94781286E8BA
:1031E00092E060E040E00E94401D40E08091B60126
:1031F0009091B701892B09F041E086E892E06AE0FE
:103200000E94401D40E080916E01811141E086E8FE
:1032100092E06BE00E94401D40E080916E01843698
:1032200008F041E086E892E06DE00E94401D40E039
:1032300080917301823009F441E086E892E06CE00D
:103240000E94401D40E080917301882309F441E011
:1032500086E892E06FE00E94401D40E0809173019B
:10326000813009F441E086E892E060E10E94401D6F
:1032700089E592E060916E010E94FD1EDF91CF9181
:103280001F910F9108951F93EEE9F2E00190002045
:10329000E9F73197EE59F2401E2F21C089ED93E0F6
:1032A0000E94E7278A3011F08D3059F4112391F0F4
:1032B00080919E028F3269F48FE992E00E94E912B8
:1032C00008C0E12FF0E0E256FD4F80831F5F10340D
:1032D00008F010E0E12FF0E0E256FD4F108289ED9A
:1032E00093E00E94B627892BC9F689E592E00E94F7
:1032F0000020882331F086E892E069E042E00E94F5
:10330000401D8AEF92E00E94391E8EE691E00E94F5
:10331000360C882311F00E948C188091E1028F3FB7
:1033200009F43DC00E942025E091E102F0E0E4585C
:10333000FE4FE4912091E2023091E302621B730B95
:103340001AE0E19F900111242617370740F50E94EB
:1033500020256093E2027093E3028093E40290934D
:10336000E5028091E10290E0019666E070E00E9443
:103370009B2D8093E102E82FF0E080FD0BC0E45824
:10338000FE4F6491619FB001112486E00E94FE20EF
:1033900080E803C08091C40180680E94021586E81D
:1033A00092E00E948F1D1F9108951F93182F85365C
:1033B00008F014E6812F0E94021588E190E0612F49
:1033C0000E944D071F910895FF920F931F93082F9E
:1033D000F62E813049F0813018F0863008F513C0A0
:1033E000862F0E94D5191CC06093E60281E290E00E
:1033F0000E944D07809102038250853020F488EBB3
:1034000091E00E940222025086E892E0602F4F2D48
:103410000E94791D10E0C80183966F2D0E944D0710
:103420001F910F91FF9008958038E1F488EB91E0AF
:103430000E94FA2188EB91E069E073E040E150E0FE
:103440000E94B62888EB91E060E041E00E947D2177
:1034500088EB91E069E173E040E150E00E94B6281A
:1034600081E00895809103030895CF93DF93EB01EA
:10347000843011F0883071F420E030E08091E70270
:103480009091E802892B11F421E030E03093E802BA
:103490002093E70288EB91E060E041E00E947D210B
:1034A000209721F0CE0160E00E94EC148091E702A9
:1034B0009091E802892B19F48DEA93E002C081EB28
:1034C00093E060E00E94EC14DF91CF910895EF92B9
:1034D000FF920F931F93DF93CF93CDB7DEB7619722
:1034E0000FB6F894DEBF0FBECDBF7801843039F43B
:1034F0008091E7029091E802860F911D08C0883004
:1035000051F48091E7029091E802861B9109909313
:10351000E8028093E7028091E7029091E802841725
:10352000950724F45093E8024093E7028091E70264
:103530009091E8022817390724F43093E802209389
:10354000E70288EB91E060E041E00E947D218DB7C9
:103550009EB70A970FB6F8949EBF0FBE8DBFEDB70A
:10356000FEB731968E010F5F1F4FADB7BEB71296F3
:103570001C930E93119781E190E093838283F582EF
:10358000E4828091E7029091E8029783868380919C
:103590008B01992787FD9095918780870E94E9028A
:1035A0008DB79EB70A960FB6F8949EBF0FBE8DBF1B
:1035B00088EB91E0B8010E94ED2961960FB6F8946E
:1035C000DEBF0FBECDBFCF91DF911F910F91FF9056
:1035D000EF9008950F931F93182F803861F483E7BD
:1035E00093E061E00E94EC148091C4018093E702B3
:1035F0001092E80211C0803479F42091E7023091F2
:10360000E8028091C40190E02817390729F0822F41
:103610000E94D5190E945E10812F6AE040E050E0C0
:1036200024E630E00DE613E00E94671A8091E7027D
:1036300080680E94021581E01F910F9108950F93F9
:103640001F93182F803861F48EE893E061E00E94A8
:10365000EC1480918C018093E7021092E8020FC075
:10366000803469F42091E7023091E80280918C0166
:1036700090E02817390719F0822F0E945110812FEE
:1036800065E040E050E024E630E002E813E00E940C
:10369000671A81E01F910F9108951F93182F8038AA
:1036A00051F48FE993E061E00E94EC141092E8027B
:1036B0001092E7020BC0803449F48091E7029091A8
:1036C000E802892B19F081E00E941415812F60E037
:1036D00070E00E94351A81E01F9108950F931F93A7
:1036E000182F803871F481EC93E061E00E94EC14B3
:1036F0008091790190917A019093E8028093E7029A
:1037000009C0803439F46091E7027091E80281E0E9
:103710000E94BC14812F6AE040E050E028EE33E0C4
:1037200005EB13E00E94671A81E01F910F91089545
:103730000F931F93182F803861F480EE93E061E0BF
:103740000E94EC148091A1018093E7021092E8029C
:1037500009C0803439F46091E7027091E80280E09A
:103760000E94BC14812F61E040E050E024E630E08C
:1037700000ED13E00E94671A81E01F910F910895F8
:103780000F931F93082F109102031D508038F9F4F6
:10379000812F0E94911288EB91E00E94022288EB17
:1037A00091E069EE72E00E94ED29E12FF0E0EE0F6A
:1037B000FF1FE259FE4F03A4F4A5E02D8481992751
:1037C00087FD90959093E8028093E70209C08034CA
:1037D00039F46091E7027091E802812F0E94AA10EB
:1037E000802F61E04CE95FEF24E630E000EF13E06A
:1037F0000E94671A81E01F910F9108951F93182F5F
:10380000803861F48EEF93E061E00E94EC148091C7
:1038100076018093E7021092E80219C08034B9F46F
:1038200020E08091E7029091E802892B09F021E0E5
:1038300080917601281759F0222319F080E090E05A
:1038400004C080917401909175010E94C712812F6C
:1038500060E070E00E94351A81E01F9108950F9397
:103860001F93182F803871F485E194E061E00E9485
:10387000EC1480917401909175019093E80280930B
:10388000E70210C0803471F42091E7023091E80221
:1038900080917401909175012817390719F0C901B9
:1038A0000E94C712812F65E040E050E028EE33E02F
:1038B0000EE014E00E94671A81E01F910F910895B5
:1038C000803819F40E94851605C090E08F719070C1
:1038D000892B11F481E008950E94641282E008951A
:1038E000982F803859F580910203853009F456C02D
:1038F0008EE691E00E94A909882309F04FC085E077
:103900000895E0919B01F0919C0182818F3409F42C
:1039100050C083E00895E0919D01F0919E01828165
:103920008F3409F446C084E00895E0919F01F0913E
:10393000A00182818F34E9F182E0089580917601BF
:103940008823D1F0943011F465E007C0983011F469
:103950006BEF03C0913001F56FEF772767FD70952E
:1039600080916E01680F711D8EE691E00E94E10961
:103970000E94851680E00895913071F460E070E057
:103980008091B6019091B701892B11F461E070E04C
:1039900082E00E94BC140DC081E008958091020372
:1039A000823009F4AECF833009F4B5CF843009F406
:1039B000BCCF0E94851681E008958AEF92E06CEBFF
:1039C00072E044E053E028EE3CE10E94EF1D0895D0
:1039D00080E00E945E084197E8F480E068E00E9481
:1039E0004908982F8823B1F08551873210F481E07F
:1039F0000895892F8D53873210F488E00895892F18
:103A00008D58833110F484E00895915A973210F460
:103A100082E0089580E00895CF93DF93EC01DB010D
:103A200080E020E210C09C3259F0FE01E80FF11D49
:103A300097878F5F07C0FE01E80FF11D27878F5F13
:103A40008031C8F311969C91992349F0813258F343
:103A500009C0FE01E80FF11D97878F5F01C090E25A
:103A60008132B8F38885883129F0CE0168E10E945F
:103A7000F71D03C080E80E94141ADF91CF910895CA
:103A8000CF92DF92EF92FF920F931F93CF93DF932A
:103A90007C01042FEC0110E0C62EDD248881682F04
:103AA00070E0CB018F7790708C159D05A9F4098388
:103AB0008A81823089F0023079F0660F672F661FA5
:103AC000770B6027681741F06A83D7015296ED9112
:103AD000FC915397812F09951F5F23961430F1F6BF
:103AE000DF91CF911F910F91FF90EF90DF90CF90DA
:103AF0000895DC01862F90E0FC01EE0FFF1FE80F18
:103B0000F91FEA0FFB1F40838281813039F45296FE
:103B1000ED91FC915397862F60E009950895CF921F
:103B2000DF92EF92FF920F931F93DF93CF930F9249
:103B3000CDB7DEB78C010E9420256B017C01D80136
:103B40001C962D913D914D915C911F9751968C91B2
:103B5000882331F0C601821B930B845F9140A8F14A
:103B60000E942025F801648775878687978781E002
:103B7000818B80898F5F808B780190E0D80150968F
:103B80008C9180FF07C0F70181818230B9F4828374
:103B9000118208C0D70112968C911297823071F46D
:103BA00012961C92D8015296ED91FC915397892F51
:103BB000D70112966C919983099599819F5FE3E0F3
:103BC000F0E0EE0EFF1E9430C9F60F90CF91DF911A
:103BD0001F910F91FF90EF90DF90CF900895FC011F
:103BE00071836083538342833783268308951F93B1
:103BF000CF93DF93EC01162F888589872BC08C81AA
:103C00009D81009751F0FC01319625913491211549
:103C1000310519F080E4F9010995188788819981A7
:103C20009D838C8306C08885981741F03496FD8368
:103C3000EC83EC81FD8194919923A9F7309779F079
:103C40003196259134912115310521F080E8F90153
:103C50000995182F123018F08885181781F60E94E0
:103C600020256B877C878D879E87DF91CF911F9161
:103C70000895DF92EF92FF920F931F93CF93DF93FC
:103C8000EC01EE81FF810995D82E0E9420257B0151
:103C90008C018B859C85AD85BE85E81AF90A0A0BD7
:103CA0001B0BDD20D9F4EC81FD813097B9F0339600
:103CB000649170E080E090E028EE33E040E050E076
:103CC0000E94702D611571058105910539F06E1501
:103CD0007F058007910710F480E2D82E8AEFE8165E
:103CE000F1040105110508F439C080E2D81621F06D
:103CF000DA86DD2009F432C00E9420256B877C879C
:103D00008D879E878C819D81009769F0FC0131969B
:103D1000259134912115310531F08D2DF901099549
:103D2000682F8130C1F4EA81FB812D2D30E00FC076
:103D3000961761F431968491319790E08223932312
:103D40008217930719F43296649105C033969491C3
:103D50006885992369F7CE010E94F71DDF91CF9105
:103D60001F910F91FF90EF90DF900895DF92EF92F7
:103D7000FF920F931F93CF93DF937C01EC0100E040
:103D800010E0DD24DA948A858F3F49F10E942025D6
:103D90002B853C854D855E85621B730B840B950BD3
:103DA00061527F4B82409040D0F0D7011596ED9143
:103DB000FC911697309769F0C80123E0880F991F8E
:103DC0002A95E1F7800F911F08968E0D9F1D64E0E4
:103DD00009958A858F3F19F0DA86198618860F5F54
:103DE0001F4F29960430110571F6DF91CF911F9175
:103DF0000F91FF90EF90DF900895DF93CF9300D065
:103E000000D0CDB7DEB7FC018081882391F084A576
:103E10008F5F84A7853068F014A68FE9898380ECD2
:103E20008A836B838FE78C83CE01019664E00E94C6
:103E3000CA230F900F900F900F90CF91DF910895AC
:103E40000F931F93CF93DF938C01FC018081882314
:103E500009F45EC0C6E2D4E0FE0121968491882375
:103E600019F00E94280AF8CF8AE293E0F8016781EE
:103E70004AE050E00E948829E80110E08A858F3FDF
:103E8000F1F08CE20E94280A8AE293E06A854AE017
:103E900050E00E9488298CE20E94280A8AE293E07E
:103EA0006F854AE050E00E9488298CE20E94280A2F
:103EB0008AE293E068894AE050E00E9488291F5F07
:103EC00029961430D9F689ED93E06AE20E94202801
:103ED00060912F0362956F706A3010F4605D01C0CD
:103EE000695C89ED93E00E94202860912F036F7038
:103EF0006A3010F4605D01C0695C89ED93E00E9456
:103F0000202889ED93E06AE00E94202810922E0379
:103F1000DF91CF911F910F910895CF93DF93EC0123
:103F20008881882329F4862F0E94F12381E08883E9
:103F3000DF91CF9108950F931F93CF93DF938C015F
:103F4000EB010E942025F8016383748385839683A7
:103F5000898185FF02C092E001C090E08B8187FDDE
:103F600091608F778F3709F09460F80197830E94F2
:103F7000C623F801808787812A8182FF2FC02A3AD1
:103F800011F480E038C030E0B9016F707070605992
:103F90007140898190E08F70907044E650E0FC01A0
:103FA000E49FC001E59F900DF49F900D1124680FD0
:103FB000791FE4E035952795EA95E1F7C90153E0CB
:103FC000880F991F5A95E1F7220F331F820F931F15
:103FD000680F791FF801718360830CC0898190E0BC
:103FE0008F709070982F882730E0822B932BF801E8
:103FF0009183808381E0DF91CF911F910F9108958C
:10400000FF920F931F93CF93DF938C01DC018C9170
:10401000882311F4FF247FC0FF2475C00E9420254F
:10402000F801618372838383948380913203978143
:10403000882309F061C09F3F11F09F5F97838091B3
:10404000330390E08F709070880F991F880F991F2D
:10405000409134034295469546954370482BD801CC
:10406000F80190E08285841729F09F5F399694309B
:10407000C9F703C09F3F79F444C090E01A968C9131
:104080001A978F3F19F483E0F82E07C09F5F1996A7
:104090009430A1F736C0B2E0FB2E292F30E0F901B1
:1040A000A3E0EE0FFF1FAA95E1F7E20FF31FE00F69
:1040B000F11F8285841719F0428711861086E90165
:1040C000F3E0CC0FDD1FFA95E1F7C20FD31F28965E
:1040D000C00FD11FCE0163E373E00E949B1F8823B2
:1040E00081F0D8011596ED91FC911697309749F023
:1040F000CE016F2D099505C0992319F09150F80153
:104100009783FF24F3940E948C23882309F086CFA1
:10411000C8010E94B61E8F2DDF91CF911F910F9184
:10412000FF90089510922D0310922C0382E191E0EC
:1041300090932B0380932A0308951F93CF93DF93CB
:10414000EC01162F8C81882341F481E08C831D8241
:1041500089ED93E064E20E9420288D8181278D8380
:1041600089ED93E0612F0E942028DF91CF911F916C
:1041700008951F920F920FB60F9211242F933F9321
:104180004F938F939F9320913003309131032115EA
:104190003105D9F0809188009091890086509F4F19
:1041A0004CE98034940710F080E090E0909389000F
:1041B00080938800215030403093310320933003A6
:1041C0008BB190E489278BB906C080916F008D7FF9
:1041D00080936F005E989F918F914F913F912F91A7
:1041E0000F900FBE0F901F901895569A0895EFE606
:1041F000F0E080818D7F80835E980895EFE6F0E0A7
:1042000080818D7F80835E9870E083E0660F771FEA
:104210008A95E1F770933103609330038081826067
:1042200080830895DC016230D8F481E090E002C020
:10423000880F991F6A95E2F714962C9114974423DE
:1042400011F0282B02C08095282314962C931497E4
:10425000ED91FC9111970084F185E02DCD01099538
:104260000895EF92FF921F93CF93DF937C01EB01B0
:10427000142F0DC0FE0121964491F701A081B18158
:104280002D913C91C701642FF9010995115011231B
:1042900089F7DF91CF911F91FF90EF900895DC0196
:1042A000ED91FC910480F581E02D40E009950895A1
:1042B000EF92FF920F931F938C017A016770660F44
:1042C000660F660F60640E944F21C801B70148E085
:1042D0000E943121C80160E80E944F211F910F9177
:1042E000FF90EF900895FC016681862F846086839D
:1042F0006C60CF010E944F210895DC0118968C91CB
:104300001897841710F4482F4150E42FF0E0EC5D2B
:10431000FE4F8081680F6068CD010E944F21089593
:10432000DC01ED91FC910480F581E02D41E00995DF
:1043300081E090E008951F93CF93DF93EC011FB7C6
:10434000F8946EBD0DB407FEFDCFEA85FB85808134
:104350009985892B808381E090E00E942E25EA8553
:10436000FB85908189858095892380831FBFDF919C
:10437000CF911F910895FC0164810E949B210895B3
:10438000EF92FF921F937C01162F1860612F0E94FD
:104390009B21177FC701612F0E949B211F91FF90D6
:1043A000EF900895607F0E94C02188E290E00E9413
:1043B0002E2508950F931F93CF93DF93EC01062FC3
:1043C000411144E01C81142B602F607F612BCE01D2
:1043D0000E94C0210295007F102BCE01612F0E9408
:1043E000C02188E290E00E942E25DF91CF911F919D
:1043F0000F91089562E00E944F2180ED97E00E94A6
:104400002E25089561E00E944F2180ED97E00E94E3
:104410002E250895CF93DF93EC01623018F088E0E9
:10442000888701C0188688858D83411184608D83BB
:1044300080E090E40E942E2580E090E40E942E25EA
:1044400080E090E40E942E25E881F9810680F781C2
:10445000E02DCE0160E3099584E991E10E942E25CB
:10446000E881F9810680F781E02DCE0160E30995AE
:1044700086E990E00E942E25E881F9810680F78187
:10448000E02DCE0160E30995E881F9810680F7818E
:10449000E02DCE0160E209956D816062CE010E943F
:1044A0004F2184E08E83CE010E947321CE010E94B1
:1044B000022282E08F83CE0166E00E944F21DF91CD
:1044C000CF910895EF92FF920F931F938C01F62ED8
:1044D000E42EDC0113961C921E9212978AE191E061
:1044E0008D939C938BE061E00E94D3258DE061E089
:1044F0000E94D3258AE061E00E94D3258AE061E032
:104500000E94122681E58CBD8F2D90E0FC01EC59B4
:10451000FB4FE491D8011996EC931997805B9B4F60
:10452000FC018491E82FF0E0EE0FFF1FE45CFB4FED
:10453000859194911B969C938E931A978F2D61E091
:104540000E94D325C80160E00E949B21C8016E2D06
:1045500040E00E940A221F910F91FF90EF90089572
:10456000282F8CB581608CBD2A989EBD0DB407FEA6
:10457000FDCF8EB52EBD0DB407FEFDCF4EB5382F45
:1045800020E02A9A8CB58E7F8CBD50E0422B532BB5
:10459000CA0108950F931F9380E090E00E94B0221B
:1045A000192F9093410380914203843009F067C032
:1045B00080E090EB0E94B022082F8091430363E0DB
:1045C0000E948F2D9923A9F4812F90E08170907023
:1045D000E0914003F0E0EE0FFF1FE80FF91FE85DE8
:1045E000FE4F80818093400390E0806A94690E942E
:1045F000B022809143038823F1F4802F90E034E0CF
:10460000959587953A95E1F70296959587958093CC
:104610003D0380913D03823020F080913D038B303B
:1046200018F082E080933D03E0913E03F0913F0358
:10463000309709F0099580914303E82FF0E0ED5C95
:10464000FC4F00838F5F8093430380913203802768
:1046500090E021E387FF03C0880F822701C0880F05
:104660009F5F9830B9F78093320390914303809114
:104670003D03981709F04DC089E092E848C0809149
:10468000420387FF1EC080913D03E0914203EF5F2C
:10469000E0934203E150E80FF0E0ED5CFC4F8081D5
:1046A00020913203282790E031E327FF03C0220F37
:1046B000232701C0220F9F5F9830B9F72093320360
:1046C00023C0809142038F5F8093420381508230E8
:1046D000B1F083301CF4882379F015C0853019F0CF
:1046E000863089F402C08DE20FC080913D03819530
:1046F0008093420384ED08C08091320305C089E0B5
:1047000092E80E94B0228AEA90E0805098440E9489
:10471000B0221F910F91089580914203843021F5BA
:1047200090913D03809143039817F1F483E08093C7
:10473000420381E0089510924303109232038FEFF9
:1047400080933D0384E080934203F89483E0809358
:10475000400383EA94E90E94B02289ED92E80E9426
:10476000B022789480E0089580914203833019F359
:1047700080E00895F8941092320385E0809342031C
:1047800089E392E80E94B0227894089580914003D2
:1047900086950895582F792F462F60933D0323E384
:1047A00033E0C901652F50E00E94D1020E94BA2374
:1047B0000895229A2A9A8BE061E00E94D3258CE02A
:1047C00060E00E94D3258DE061E00E94D32580E562
:1047D0008CBD8DB581608DBD82E062E00E94D325E5
:1047E00008951F93182F0E94D92380E090E00E9423
:1047F000B02281E092E80E94B02280E098EB02C0F3
:1048000080E090E00E94B02282E00E946626892B20
:10481000B9F3812F90E054E0880F991F5A95E1F782
:10482000876C90680E94B022123019F0133039F46E
:1048300003C08CE796EA05C083ED97EA02C080E4E6
:1048400096EA0E94B02283E196EC0E94B02282EAAE
:1048500094E90E94B0228CEA92EC0E94B02283E894
:104860009AEC0E94B02284ED9EEC0E94B02287EB6D
:1048700094EC0E94B02280E398E90E94B02286E77F
:104880009CEC0E94B02280E090EE0E94B02280E07A
:1048900098EC0E94B02280E090EC0E94B02283E06D
:1048A0008093420380E06AEC72E240E050E00E94B4
:1048B0005B241F910895823000F5E82FF0E0EE0FA1
:1048C000FF1FEC5BFC4F71836083882319F08130FC
:1048D000A1F408C0809169008C7F842B80936900CB
:1048E000E89A089580916900440F551F440F551FA1
:1048F000837F842B80936900E99A08951F920F9219
:104900000FB60F9211242F933F934F935F936F93A2
:104910007F938F939F93AF93BF93EF93FF93809178
:10492000440390914503892B29F0E0914403F091D1
:1049300045030995FF91EF91BF91AF919F918F91A1
:104940007F916F915F914F913F912F910F900FBE8B
:104950000F901F9018951F920F920FB60F9211246F
:104960002F933F934F935F936F937F938F939F9377
:10497000AF93BF93EF93FF938091460390914703CA
:10498000892B29F0E0914603F09147030995FF91A7
:10499000EF91BF91AF919F918F917F916F915F91B7
:1049A0004F913F912F910F900FBE0F901F90189530
:1049B0001F920F920FB60F9211242F933F938F9354
:1049C0009F93AF93BF9380914C0390914D03A0911F
:1049D0004E03B0914F03309150030196A11DB11DBC
:1049E000232F2D5F2D3720F02D570196A11DB11DCE
:1049F0002093500380934C0390934D03A0934E0358
:104A0000B0934F038091480390914903A0914A03CA
:104A1000B0914B030196A11DB11D80934803909363
:104A20004903A0934A03B0934B03BF91AF919F9169
:104A30008F913F912F910F900FBE0F901F9018955F
:104A40008FB7F89420914C0330914D0340914E0361
:104A500050914F038FBFB901CA010895019739F0F2
:104A6000880F991F880F991F02970197F1F70895F2
:104A7000789484B5826084BD84B5816084BD85B539
:104A8000826085BD85B5816085BDEEE6F0E0808100
:104A900081608083E1E8F0E0108280818260808321
:104AA000808181608083E0E8F0E0808181608083A4
:104AB000E1EBF0E0808184608083E0EBF0E08081D6
:104AC00081608083EAE7F0E0808184608083808178
:104AD0008260808380818160808380818068808320
:104AE0001092C10008951F93CF93DF93182FEB010D
:104AF00061E00E94D325209709F44AC0CF3FD10539
:104B000009F449C0E12FF0E0E858FB4F849183306D
:104B1000C1F0843028F4813051F08230B1F50CC0FE
:104B2000863019F1873049F1843079F514C084B5A5
:104B3000806884BDC7BD33C084B5806284BDC8BDF4
:104B40002EC080918000806880938000D09389007F
:104B5000C093880024C08091800080628093800090
:104B6000D0938B00C0938A001AC08091B0008068F7
:104B70008093B000C093B30012C08091B0008062F7
:104B80008093B000C093B4000AC0C038D1051CF4B3
:104B9000812F60E002C0812F61E00E941226DF9128
:104BA000CF911F910895CF93DF93482F50E0CA0112
:104BB0008C599B4FFC013491405B5B4FFA0184910F
:104BC000882369F190E0880F991FFC01EE5CFB4F90
:104BD000A591B491FC01E45CFB4FC591D49166238F
:104BE00051F42FB7F8948C91932F909589238C933F
:104BF000888189230BC0623061F42FB7F8948C91BF
:104C0000932F909589238C938881832B88832FBF42
:104C100006C09FB7F8948C91832B8C939FBFDF9134
:104C2000CF910895482F50E0CA0188589B4FFC014E
:104C30002491CA018C599B4FFC019491405B5B4FBE
:104C4000FA013491332309F440C0222351F1233077
:104C500071F0243028F42130A1F0223011F514C075
:104C60002630B1F02730C1F02430D9F404C080914F
:104C700080008F7703C0809180008F7D80938000BB
:104C800010C084B58F7702C084B58F7D84BD09C004
:104C90008091B0008F7703C08091B0008F7D8093AA
:104CA000B000E32FF0E0EE0FFF1FE45CFB4FA59197
:104CB000B4912FB7F894662321F48C9190958923B1
:104CC00002C08C91892B8C932FBF0895682F70E0C0
:104CD000CB0188589B4FFC012491CB018C599B4FF1
:104CE000FC014491605B7B4FFB019491992319F483
:104CF00020E030E03CC0222351F1233071F0243019
:104D000028F42130A1F0223011F514C02630B1F082
:104D10002730C1F02430D9F404C0809180008F770F
:104D200003C0809180008F7D8093800010C084B587
:104D30008F7702C084B58F7D84BD09C08091B0009B
:104D40008F7703C08091B0008F7D8093B000892F52
:104D500090E0880F991F8A5B9B4FFC01A591B4914D
:104D60008C9120E030E0842311F021E030E0C90193
:104D700008951F920F920FB60F9211242F933F9315
:104D80004F938F939F93EF93FF938091C00082FD89
:104D90001DC04091C60020919103309192032F5F76
:104DA0003F4F2F7330708091930390919403281795
:104DB000390771F0E0919103F0919203EF5AFC4FA3
:104DC0004083309392032093910302C08091C600E8
:104DD000FF91EF919F918F914F913F912F910F9064
:104DE0000FBE0F901F9018951F920F920FB60F9243
:104DF00011242F933F938F939F93EF93FF932091D1
:104E0000D5033091D6038091D7039091D80328170A
:104E1000390731F48091C1008F7D8093C10014C0A7
:104E2000E091D703F091D803EB56FC4F208180919D
:104E3000D7039091D80301968F7390709093D80305
:104E40008093D7032093C600FF91EF919F918F919C
:104E50003F912F910F900FBE0F901F901895AF921A
:104E6000BF92DF92EF92FF920F931F93CF93DF9346
:104E7000EC017A018B01DD24403081EE580780E09F
:104E8000680780E0780711F0DD24D39491E0A92E23
:104E9000B12CEC89FD89DD2069F0C50108A002C0B4
:104EA000880F991F0A94E2F7808360E079E08DE330
:104EB00090E005C0108260E874E88EE190E0A801FF
:104EC00097010E94C22D21503040404050405695DD
:104ED00047953795279580E12030380720F0DD2071
:104EE00011F0DD24D6CFE889F9893083EA89FB897E
:104EF000208319A2EE89FF89408121E030E0C901B9
:104F00000C8C02C0880F991F0A94E2F7482B40834B
:104F1000EE89FF894081C9010D8C02C0880F991F5D
:104F20000A94E2F7482B4083EE89FF894081C9014A
:104F30000E8C02C0880F991F0A94E2F7482B408319
:104F4000EE89FF8980810F8C02C0220F331F0A94E3
:104F5000E2F7209528232083DF91CF911F910F91B5
:104F6000FF90EF90DF90BF90AF900895DC011C960A
:104F7000ED91FC911D97E05CFF4F21913191808173
:104F80009181281B390B2F733070C9010895DC0102
:104F90001C96ED91FC911D97E05CFF4F20813181C3
:104FA000E054F040DF01AE5BBF4F8D919C911197B3
:104FB0002817390719F42FEF3FEF07C08D919C9107
:104FC000E80FF91F8081282F30E0C9010895DC0126
:104FD0001C96ED91FC911D97E05CFF4F2081318183
:104FE000E054F040DF01AE5BBF4F8D919C91119773
:104FF0002817390719F42FEF3FEF10C08D919C91BE
:105000001197E80FF91F20818D919C9111970196BE
:105010008F73907011969C938E9330E0C901089520
:10502000DC0191968C919197882339F05496ED91FB
:10503000FC915597808186FFF9CF91961C92089537
:10504000CF93DF93EC01EE85FF85E05CFF4F20817D
:105050003181E054F0402F5F3F4F2F733070DF01FC
:10506000AE5BBF4F8D919C91119728173907D1F3F3
:10507000E05CFF4F80819181E054F040E80FF91F20
:105080006083EE85FF85E05CFF4F31832083EE89EE
:10509000FF89208181E090E00F8C02C0880F991F6A
:1050A0000A94E2F7282B208381E089A3EC89FD890B
:1050B00080818064808381E090E0DF91CF910895CA
:1050C0001092DC031092DB0388EE93E0A0E0B0E0E6
:1050D0008093DD039093DE03A093DF03B093E0039E
:1050E00088E391E09093DA038093D90381E593E01C
:1050F0009093E6038093E50385E993E09093E803BA
:105100008093E70385EC90E09093EA038093E903B2
:1051100084EC90E09093EC038093EB0380EC90E0C0
:105120009093EE038093ED0381EC90E09093F00375
:105130008093EF0382EC90E09093F2038093F1036D
:1051400086EC90E09093F4038093F30384E08093E3
:10515000F50383E08093F60387E08093F70385E00F
:105160008093F80381E08093F9030895CF92DF9252
:10517000EF92FF920F931F93CF93DF937C016B010C
:105180008A01C0E0D0E00FC0D6016D916D01D7015A
:10519000ED91FC910190F081E02DC7010995C80FB8
:1051A000D91F015010400115110571F7CE01DF9193
:1051B000CF911F910F91FF90EF90DF90CF900895C6
:1051C000DC01ED91FC910190F081E02D09950895AD
:1051D000CF93DF93EC016115710519F420E030E005
:1051E0000FC0DB010D900020E9F71197A61BB70B4C
:1051F000E881F9810280F381E02DAD0109959C01E0
:10520000C901DF91CF9108954F925F927F928F9263
:105210009F92AF92BF92CF92DF92EF92FF920F9345
:105220001F93DF93CF93CDB7DEB7A1970FB6F89456
:10523000DEBF0FBECDBF2C01742ECB01223008F48F
:105240002AE019A231E2C32ED12CCC0EDD1E822E13
:105250009924AA24BB24672D752FA50194010E94CF
:10526000C22D79018A01C801B701A50194010E94EC
:10527000702D472D461B0894C108D1084A3014F4FC
:10528000405D01C0495CF6014083E114F104010571
:10529000110521F07E2C5F2DC801DDCFC201B601C2
:1052A0000E94E828A1960FB6F894DEBF0FBECDBFCE
:1052B000CF91DF911F910F91FF90EF90DF90CF90F2
:1052C000BF90AF909F908F907F905F904F90089588
:1052D000DC012115310541F4ED91FC910190F08143
:1052E000E02D642F099508950E9404290895EF92F6
:1052F000FF920F931F939A017B0100E010E0B80129
:10530000A7010E9468291F910F91FF90EF900895C7
:10531000EF92FF920F931F939A01E62EFF2400E075
:1053200010E0B801A7010E9468291F910F91FF901A
:10533000EF900895CF92DF92EF92FF920F931F9319
:10534000CF93DF93EC016A017B012115310541F414
:10535000E881F9810190F081E02D642F09951FC04B
:105360002A303105D1F477FF17C0E881F981019027
:10537000F081E02D6DE209958C0144275527BA0193
:105380004C195D096E097F09CE012AE00E940429AB
:105390009801280F391F04C02AE00E9404299C01AB
:1053A000C901DF91CF911F910F91FF90EF90DF9096
:1053B000CF900895EF92FF920F931F937B019A0174
:1053C0000027F7FC0095102FB801A7010E949A2929
:1053D0001F910F91FF90EF9008950E94E828089583
:1053E0007F928F929F92AF92BF92CF92DF92EF9275
:1053F000FF920F931F93CF93DF934C017A018B01A0
:10540000722ECB01BA01A80197010E94372D882383
:1054100021F0C40160E071E021C0C0E0D0E057019C
:105420006801E894D7F8C601B5012FEF3FEF4FE7C9
:105430005FE70E94372D882351F4C601B5012FEF95
:105440003FEF4FE75FE70E943C2B181614F0C1E0D6
:10545000D0E0219739F0C40164E071E00E94E828AF
:10546000EC0193C0C801B7012FEF3FEF4FE75FE4B6
:105470000E948B2C181654F0C801B7012FEF3FEF94
:105480004FE75FEC0E943C2B882324F4C40168E0C2
:1054900071E0E4CFC801B70120E030E040E050E027
:1054A0000E943C2B87FD03C0C0E0D0E00EC0D401B9
:1054B000ED91FC910190F081E02DC4016DE2099520
:1054C000EC0117FB109517F9109520E030E040E053
:1054D0005FE3DD240BC0CA01B90120E030E040E207
:1054E00051E40E94402B9B01AC01D394D71498F354
:1054F000C801B7010E94D82A5B016C010E94AD2B44
:105500007B018C01C401B801A7012AE030E00E94B0
:105510006829C80FD91F772039F0C4016CE071E009
:105520000E94E828C80FD91FC801B7010E94D92BD3
:105530009B01AC01C601B5010E94D72A24C020E01E
:1055400030E040E251E40E94D42C7B018C010E94A7
:10555000A82B5B016C01CC24B7FCC094DC2CC401EB
:10556000B601A5012AE030E00E949A29C80FD91F90
:10557000C601B5010E94DB2B9B01AC01C801B7013C
:105580000E94D72A7A947720D1F6CE01DF91CF916D
:105590001F910F91FF90EF90DF90CF90BF90AF9051
:1055A0009F908F907F9008950E94F0290895505801
:1055B000BB27AA270ED075C166D130F06BD120F081
:1055C00031F49F3F11F41EF45BC10EF4E095E7FB4C
:1055D00051C1E92F77D180F3BA17620773078407A7
:1055E000950718F071F49EF58FC10EF4E0950B2E1F
:1055F000BA2FA02D0B01B90190010C01CA01A00125
:105600001124FF27591B99F0593F50F4503E68F17F
:105610001A16F040A22F232F342F4427585FF3CFC0
:10562000469537952795A795F0405395C9F77EF491
:105630001F16BA0B620B730B840BBAF09150A1F0DA
:10564000FF0FBB1F661F771F881FC2F70EC0BA0F60
:10565000621F731F841F48F4879577956795B795E8
:10566000F7959E3F08F0B3CF9395880F08F09927E0
:10567000EE0F979587950895D9D008F481E00895A5
:105680000CD00FC107D140F0FED030F021F45F3FC5
:1056900019F0F0C0511139C1F3C014D198F3992316
:1056A000C9F35523B1F3951B550BBB27AA276217E6
:1056B0007307840738F09F5F5F4F220F331F441F2B
:1056C000AA1FA9F333D00E2E3AF0E0E830D0915063
:1056D0005040E695001CCAF729D0FE2F27D0660F50
:1056E000771F881FBB1F261737074807AB07B0E88F
:1056F00009F0BB0B802DBF01FF2793585F4F2AF0A5
:105700009E3F510568F0B6C000C15F3FECF3983E84
:10571000DCF3869577956795B795F7959F5FC9F701
:10572000880F911D9695879597F90895E1E0660F8A
:10573000771F881FBB1F621773078407BA0720F003
:10574000621B730B840BBA0BEE1F88F7E09508956C
:1057500004D06894B111D9C00895BCD088F09F5787
:1057600090F0B92F9927B751A0F0D1F0660F771FAD
:10577000881F991F1AF0BA95C9F712C0B13081F08D
:10578000C3D0B1E00895C0C0672F782F8827B85FD5
:1057900039F0B93FCCF3869577956795B395D9F7EE
:1057A0003EF490958095709561957F4F8F4F9F4FF8
:1057B0000895E89409C097FB3EF490958095709504
:1057C00061957F4F8F4F9F4F9923A9F0F92F96E94D
:1057D000BB279395F695879577956795B795F111C2
:1057E000F8CFFAF4BB0F11F460FF1BC06F5F7F4F5F
:1057F0008F4F9F4F16C0882311F096E911C0772371
:1058000021F09EE8872F762F05C0662371F096E879
:10581000862F70E060E02AF09A95660F771F881F48
:10582000DAF7880F9695879597F90895990F0008EC
:10583000550FAA0BE0E8FEEF16161706E807F90762
:10584000C0F012161306E407F50798F0621B730BFD
:10585000840B950B39F40A2661F0232B242B252B7E
:1058600021F408950A2609F4A140A6958FEF811D21
:10587000811D089597F99F6780E870E060E00895C2
:105880009FEF80EC089500240A9416161706180658
:105890000906089500240A94121613061406050634
:1058A0000895092E0394000C11F4882352F0BB0FC5
:1058B00040F4BF2B11F460FF04C06F5F7F4F8F4F28
:1058C0009F4F089557FD9058440F551F59F05F3F63
:1058D00071F04795880F97FB991F61F09F3F79F012
:1058E00087950895121613061406551FF2CF469594
:1058F000F1DF08C0161617061806991FF1CF869516
:105900007105610508940895E894BB2766277727F9
:10591000CB0197F908958ADF08F48FEF08950EF010
:10592000AAC0AECF6894A6CFD5DFC8F39923D1F330
:10593000C6F3DF93CF931F930F93FF92C92FDD27F9
:1059400088232AF02197660F771F881FDAF720E057
:1059500030E040E85FEB9FE3883920F0803E30F094
:1059600021968F7725DEE8E6F0E003C021DEE5E949
:10597000F0E091D08B01BE01EC01FB2E6F57710955
:105980007595771F880B990B16DF28E132E741E305
:105990005FE316D0AF2D9801AE01FF900F911F91DC
:1059A000CF91DF9116DE7DCF0BD07BCF6CDF28F05F
:1059B00071DF18F0952309F05DCF62CF1124A5CFD8
:1059C00081DFA0F3959FD1F3950F50E0551F629FA3
:1059D000F001729FBB27F00DB11D639FAA27F00D48
:1059E000B11DAA1F649F6627B00DA11D661F829F6F
:1059F0002227B00DA11D621F739FB00DA11D621F54
:105A0000839FA00D611D221F749F3327A00D611D70
:105A1000231F849F600D211D822F762F6A2F112452
:105A20009F5750408AF0E1F088234AF0EE0FFF1FA5
:105A3000BB1F661F771F881F91505040A9F79E3FDC
:105A4000510570F017CF61CF5F3FECF3983EDCF368
:105A5000869577956795B795F795E7959F5FC1F719
:105A6000FE2B880F911D9695879597F90895DEDE98
:105A7000880B990B08959F3F49F0915028F4869523
:105A800077956795B7959F5F80389F4F880F96955C
:105A9000879597F90895DF93CF931F930F93FF9204
:105AA000EF92DF927B018C01689405C0DA2EEF0142
:105AB00087DFFE01E894A591259135914591559197
:105AC000AEF3EF0186DDFE019701A801DA9479F7C4
:105AD000DF90EF90FF900F911F91CF91DF9108958C
