:100000000C9470020C9494140C946D140C949E0235
:100010000C949E020C949E020C949E020C949E02E0
:100020000C949E020C949E020C9406050C94C2142F
:100030000C94FB040C949E020C949E020C949E0261
:100040000C9423140C949E020C94F1120C94CB1279
:100050000C949E020C9423040C949E020C949E0219
:100060000C949E020C949E02830C8B0C930C9B0CA4
:10007000A30CAB0CB30CBB0C08000000BE922449CF
:10008000123EABAAAA2ABECDCCCC4C3E00000080CA
:10009000BEABAAAAAA3E00000000BF000000803F3D
:1000A0000000000000084178D3BB4387D1133D19FD
:1000B0000E3CC3BD4282AD2B3E68EC8276BED98F2A
:1000C000E1A93E4C80EFFFBE01C4FF7F3F0000006E
:1000D0000000070F1F1F1F1F1F1F1F1F1F000000F3
:1000E00000001C1E1F1F1F1F1F1F1F1F1F1F1F1F62
:1000F0000F0700000000001F1F1F1F1F1F1F1F1FD3
:100100001E1C1F1F1F0000001F1F1F000000001FDC
:100110001F1F7265626F6F7400636F6E66696700A0
:100120007365743F74703D007365743F74743D0073
:100130007365743F666E3D007365743F616C3D008E
:100140007365743F7063007365743F706E00736510
:10015000743F706964007365743F706F3D00736530
:10016000743F6C643D007365743F6C623D00736561
:10017000743F73703D00484D53552C00484D50530B
:100180002C00484D4152000A050A050A32484D52DA
:100190004D0000000000230026002900000102039A
:1001A00004050102202005200606020307070606B3
:1001B00002070705030402202005FF0606070705BE
:1001C00000060603070501010220002000060203C5
:1001D0000705000602202005252D313273253364E2
:1001E000DF005069743A253364DF256320256325D9
:1001F000337525252563005069743A253364DF255E
:1002000063204C6964253375002D204E6F205069A2
:10021000742050726F6265202D002A2A20414C41C3
:10022000524D2048494748202A2A002A2A20414C7A
:1002300041524D204C4F5720202A2A00484D504310
:100240002C00484D504E00484D504400484D504FF2
:1002500000554349442C4865617465724D65746569
:10026000722C323031363132333000484D4C442C10
:1002700000484D4C422C00484D414C00484D464EE4
:100280002C000EF0E10006F00000000000000080ED
:10029000400AD7A33C0000A04000327F7F7F7F460A
:1002A000006410FF640D0A0B0064C8006450726F94
:1002B000626520200000000000000100D8FF38FF28
:1002C0000000A99F8139F06375396A081534004030
:1002D0001C46253364DF2563005365742074656D07
:1002E00070657261747572653A004F666673657405
:1002F00020253464DF2563002533642525206265CD
:100300006C6F7720736574004C6964206F70656E44
:10031000206F666673657400253364207365636FB0
:100320006E6473004C6964206F70656E2074696D33
:100330006572004D616E75616C2066616E206D6F37
:10034000646500484D52432C555345520052657325
:10035000657420636F6E6669673F007370656564DE
:10036000202533642525004D6178696D756D206108
:1003700075746F2066616E002533642525004C433B
:1003800044206272696768746E65737300000000D0
:1003900000240027002A00000000080002010000DD
:1003A0000304070000000000000000484D52462CE6
:1003B0003235352C302C00022803020209020404D5
:1003C00003280403020903040204280204020904A6
:1003D0000403052802050209050404092102090293
:1003E00013132102130215152102150216162102FC
:1003F00016020D0D21020D020E0E21020E020F0F2C
:1004000021020F021010210210021111210211020B
:100410001212210212021414210214020900000017
:1004200002150D0503150D0504150D0505150D0126
:10043000068B110009460E0A13FF110A0D86120AD7
:100440000E86120A0F86120A1086120A115B120A11
:10045000122F120A14D7110A169E110A1540110AFA
:10046000188B151400000000000000002500280073
:100470002B00040404040404040402020202020225
:100480000303030303030102040810204080010258
:10049000040810200102040810204E6F2000596546
:1004A00073004E414E494E495459494E46CDCCCC2D
:1004B0003D0AD7233C17B7D13877CC2B329595E638
:1004C000241FB14F0A000020410000C84200401C18
:1004D0004620BCBE4CCA1B0E5AAEC59D7400942269
:1004E00011241FBECFEFD8E0DEBFCDBF14BEE0E6C3
:1004F000F0E088E18083108211E0A0E0B1E0E2E06A
:10050000F7E502C005900D92A434B107D9F723E0B6
:10051000A4E4B1E001C01D92A83FB207E1F712E0E8
:10052000C0E7D2E004C02197FE010E94CE23CF365F
:10053000D107C9F70E94E1180C947F2B0C9400009E
:10054000DC01ED91FC910480F581E02D41E00995FD
:1005500081E090E008950F931F93CF93DF931F9254
:10056000CDB7DEB78C01FC018481811109C081E027
:100570008483158284E290E069830E94F715698183
:10058000F80185818627858381EB91E00F90DF91CB
:10059000CF911F910F910C94CA1087FF80935B013C
:1005A0008F772FEF829FC001112464E670E00E94D4
:1005B000842385E00C94B813CF92DF92EF92FF92E0
:1005C000CF93DF93EC016A017B0120E030E040EA49
:1005D00051ECC701B6010E94F129181614F08CE401
:1005E0003CC020E030E04AEF53E4C701B6010E946E
:1005F000E92487FD02C088E430C08091EF02863490
:1006000099F426E636E646EE5FE3C701B6010E949E
:10061000572A20E030E040E052E40E94D5236D8B61
:100620007E8B8F8B988F04C0CD8ADE8AEF8AF88EFE
:100630006C81062E000C770B880B990B0E94F82911
:100640009B01AC016D897E898F89988D0E94D5238D
:100650006D8B7E8B8F8B988F8FE48A83DF91CF9108
:10066000FF90EF90DF90CF9008958F929F92AF927E
:10067000BF92CF92DF92EF92FF920F931F93CF938F
:10068000DF93EC018B01F090EF0280E090E021E439
:10069000F21203C00E94F62986C00E94F6294B017F
:1006A0005C0120E030E84FE756E40E94E924181688
:1006B0001CF00115110511F485E57AC0898183309C
:1006C00009F051C0C988DA88EB88FC8820E030E066
:1006D00048EC52E4C701B6010E94F12987FF0AC025
:1006E000A701960160E070E48EE495E40E94412445
:1006F0006B017C01E881F0E0E058FE4F81A5882382
:10070000F9F081E000381E4308F080E081A7609195
:10071000AF017091B00180E090E00E94F6299B014A
:10072000AC0160E070EC8FE794E40E9441249B01EF
:10073000AC01C701B6010E9441246B017C0106C0D7
:1007400081E0003C124108F080E081A720E030EC1D
:100750004FE756E4C501B4010E944124A701960168
:100760000E94572A5FC0A501940160E070EC8FE7FA
:1007700096E40E94412420E030E040E85FE30E94DC
:10078000D4239B01AC0169897A898B899C890E9459
:10079000412422E5F2121AC0209107033091080388
:1007A000C217D30799F06D8B7E8B8F8B988F8FE458
:1007B0008A83DF91CF911F910F91FF90EF90DF908F
:1007C000CF90BF90AF909F908F9008950E94F62495
:1007D0006B017C012D853E854F8558890E94572AE3
:1007E000A70196010E94572A29853A854B855C8589
:1007F0000E94D523A70196010E94572A2D813E8190
:100800004F8158850E94D5239B01AC0160E070E0C8
:1008100080E89FE30E94412423E333E948E853E45E
:100820000E94D423AB01BC01CE01DF91CF911F9177
:100830000F91FF90EF90DF90CF90BF90AF909F907F
:100840008F900C94DC021F920F920FB60F9211241E
:100850002F933F934F935F936F937F938F939F93C8
:10086000AF93BF93EF93FF9380918601882309F4A0
:1008700053C0815080938601823001F580918901B7
:1008800090E0FC01EE0FFF1FEE0FFF1FE058FE4F40
:1008900040918201509183016091840170918501A2
:1008A0004387548765877687FC01E058FE4F209187
:1008B000870130918801231B23A38CC0813099F4D8
:1008C000109282011092830110928401109285018E
:1008D000109287018FEF8093880180917C008F7048
:1008E0008093890177C0811175C080918901811140
:1008F0000EC084E08093810180918A0190E001968E
:1009000066E070E00E94982380938A0163C0809122
:100910008001809381015EC080918101882369F10B
:10092000815080938101809178009091790040916D
:100930008201509183016091840170918501480F7B
:10094000591F611D711D4093820150938301609373
:100950008401709385019695879596958795282FA4
:1009600030918701381710F4809387013091880106
:10097000231780F5809388012DC080917C008F70B3
:10098000873058F080917800909179009093B00171
:100990008093AF011092890105C0811103C080913D
:1009A0008A0101C080E0E82FF0E0E058FE4F91A5F9
:1009B000911102C090E401C090EC20917C00207C59
:1009C000291711F020E301C023E020938601892B31
:1009D00080937C00FF91EF91BF91AF919F918F9198
:1009E0007F916F915F914F913F912F910F900FBE2B
:1009F0000F901F9018951F920F920FB60F9211240F
:100A000028980F900FBE0F901F9018951F920F926D
:100A10000FB60F9211242F933F934F936F937F93B1
:100A20008F939F9320918A0030918B004091FD021B
:100A3000443640F58091FB029091FC02BC01625E5D
:100A40007F4F621B730B6D33710518F02115310553
:100A500021F44F5F4093FD0208C02817390718F4AE
:100A6000C9014E9602C0C9014E97009759F0289AC5
:100A70002091840030918500820F931F90938B000A
:100A800080938A009F918F917F916F914F913F91B9
:100A90002F910F900FBE0F901F901895CF93DF935B
:100AA000FC016491EC012196662331F08EE492E022
:100AB0000E94AB02CE01F4CFDF91CF9108956CE29A
:100AC0008EE492E00C94AB028AE290E00E94F7156B
:100AD0006091530262956F706A3010F4605D01C0DE
:100AE000695C81EB91E00E94CA10609153026F70C3
:100AF0006A3010F4605D01C0695C81EB91E00E9496
:100B0000CA108AE090E00E94F715109252020895F0
:100B1000CF92DF92EF92FF92CF93DF938CE492E03B
:100B20000E944E05CFEFD2E00E945F05E991F99156
:100B3000C4800C2C000CDD08EE08FF08F7FE0CC08A
:100B40008DE20E94FC1566277727CB016C197D0981
:100B50008E099F094AE003C04AE0C701B6010E941E
:100B6000821683E0C730D807F9F6DF91CF91FF9066
:100B7000EF90DF90CF900C946405CF93DF9387E4E0
:100B800092E00E944E05CAE0D3E00E945F056991A1
:100B900079918991999148E00E94CC1683E0CA31FD
:100BA000D80799F7DF91CF910C9464058F929F92AB
:100BB000AF92BF92CF92DF92EF92FF920F931F936B
:100BC000CF93DF93C82F8CE392E00E944E058C2FC9
:100BD0000E94C5160E945F05EC2FF0E0EE0FFF1F8C
:100BE000EE52FD4FC5A5D6A58E010B5F1F4F5E01CE
:100BF00085E1A80EB11CF801C190D190E190F1906F
:100C00008F018824839420E030E0A901C701B60158
:100C10000E94F12987FD02C0812C04C0F7FAF094EC
:100C2000F7F8F094912C20E030E040E85FE3C70152
:100C3000B6010E94F12987FF15C020E030E0A9012C
:100C4000C701B6010E94F129882361F09A9420E03F
:100C500030E040E251E4C701B6010E94572A6B011F
:100C60007C01E1CF20E030E040E251E4C701B60171
:100C70000E94E92487FD0CC0939420E030E040E21C
:100C800051E4C701B6010E9441246B017C01EACF07
:100C9000C701B6018110905847E00E94CC1665E666
:100CA0008EE492E00E94AB02892D990C990B0E9470
:100CB000A5170E945F050A151B0509F09CCF8981C5
:100CC0000E94C516DF91CF911F910F91FF90EF9079
:100CD000DF90CF90BF90AF909F908F900C94640561
:100CE0000F931F93CF93DF938DE891E00E944E0501
:100CF000CFEFD2E004E411E00E945F05E991F991A1
:100D00008181823021F4F80180810E94C5160F5F35
:100D10001F4FF3E0C730DF0779F7DF91CF911F91C5
:100D20000F910C946405EF92FF920F931F93CF9352
:100D30008C01CB01C42FC60FC81759F0F80161917F
:100D40008F017C01FFEFEF1AFF0A0E94202BC701E1
:100D5000F3CFCF911F910F91FF90EF900895CF9314
:100D6000DF931F92CDB7DEB7698341E0BC01CE01AE
:100D700001960E9493060F90DF91CF9108951F93E3
:100D8000CF93DF931F92CDB7DEB78430F0F4182FE6
:100D9000E82FF0E0EE0FFF1FEE52FD4F05A4F6A581
:100DA000E02D618385E58283138269830E94A71504
:100DB00085E2189F802D1124835B698190E00F905C
:100DC000DF91CF911F910C94AF060F90DF91CF91DF
:100DD0001F910895843090F4E82FF0E0EE0FFF1F8C
:100DE000EE52FD4F05A4F6A5E02D648395E2899FA0
:100DF000802D1124825B90E00C94AF0608950F9330
:100E00001F93CF93DF9300D0CDB7DEB78C011816B8
:100E10001906BCF49A83898342E062E070E0CE0157
:100E200001960E9493061093D9020093D802109263
:100E3000D7021092DA0210921F0310921E0360E094
:100E400012C081E08093DA021195019511090536EF
:100E5000110514F004E610E00093D20210921F0373
:100E600010921E0361E087E190E00E94AF060F90B0
:100E70000F90DF91CF911F910F910895EF92FF9204
:100E80000F931F93CF93DF931F92CDB7DEB77C01F3
:100E9000415068F08B010F5F1F4FCB0149830E94C7
:100EA000182BF70181937F01B8014981F1CF0F9091
:100EB000DF91CF911F910F91FF90EF9008958430B3
:100EC00068F465E2869F602D112480E4860F682F08
:100ED00070E04DE086E691E00C943E070895CF93D4
:100EE00082E492E00E944E05C0E08C2F0E945F07D2
:100EF0000E945F0566E671E08EE492E00E94CC18E5
:100F0000CF5FC43091F7CF910C946405FC012FB7EB
:100F1000F8946EBD0DB407FEFDCFA285B3859C91FC
:100F20008185892B8C93A285B3859C918185809541
:100F300089238C932FBF0895FC0164810C9486074C
:100F40000F931F93CF938C01C62F68600E94860772
:100F50006C2F677FC801CF911F910F910C9486076A
:100F6000607F0E94A0078BE990E00197F1F7089558
:100F70000F931F93CF93DF938C01C62F411144E051
:100F8000F8019481D42FD92B6C2F607F6D2BC80171
:100F90000E94A007F0E1CF9FB00111246D2BC80182
:100FA0000E94A0078BE990E00197F1F7DF91CF91C4
:100FB0001F910F910895DC01ED91FC910480F58162
:100FC000E02D40E00994CF93DF9300D000D0CDB75F
:100FD000DEB7FC01198280E48A8384E18B8384E597
:100FE0008C838085841710F44FEF480FDE01A40F27
:100FF000B11D11969C91690F6068CF010F900F9001
:101000000F900F90DF91CF910C94DB0761E00E946D
:10101000DB078BE39FE10197F1F70895CF93DF930F
:10102000D82FC92F662321F086EC92E00E94060893
:10103000ED2FFC2F6491EF012196662331F086ECB1
:1010400092E00E94A002FE01F5CFDF91CF910895BA
:101050006F927F928F929F92AF92BF92CF92DF92C8
:10106000EF92FF920F931F93CF93DF93CDB7DEB72D
:1010700062970FB6F894DEBF0FBECDBF10915C0231
:101080008EEF810F853008F08FC140E060E086EC84
:1010900092E00E94E3071630F9F4809160018F3FDF
:1010A00059F410925C0110925D0110925E01109251
:1010B0005F0185E08093600180914A0160E080FDDE
:1010C00003C08BE292E002C08AE192E00E940E0827
:1010D00010914A011695BFC08FEF809360010E9466
:1010E000BB1480915B010E94CD02E0916501E43068
:1010F00008F085C0F0E0EE0FFF1FEE52FD4F05A493
:10110000F6A5E02D82818F3409F079C020E030E02F
:1011100040E251E4658976898789908D0E94572A3B
:101120000E94B32477FF06C0EE24FF24E61AF70AD4
:1011300001E002C07B0100E010E16AE0C62ED12C84
:1011400076E0B72EE114F10411F4193044F1C7012F
:10115000B6010E948423A62EB89E9001B99E300D40
:101160001124C90184569E4F7C01135040E0612F29
:1011700086EC92E07A8B0E94E30763E0C7010E944D
:10118000921541E0612F86EC92E00E94E30763E054
:10119000C70103960E949215EA2C7A89F72E115006
:1011A00040E0612F86EC92E00E94E30760E286EC6B
:1011B00092E00E94A00241E0612F86EC92E00E9442
:1011C000E3071C3031F46EE286EC92E00E94A0024C
:1011D000B9CFE114F10459F419304CF4002339F07B
:1011E00061E086EC92E00E94A00200E005C060E2AF
:1011F00086EC92E00E94A0021111A4CFD5C0E0912C
:101200000703F091080302810F3441F46589768960
:101210008789908D0E94B324962F02C090E070E0E1
:101220008091DA02DE0111967D0181116DC00F34CB
:1012300009F46AC041E150E069E072E0CD010E942A
:10124000A625B70186EC92E00E94CC18809165013A
:101250008F3F19F41150012F02C003E011E0DE01AD
:1012600011966D0136E6A32E31E0B32E48ED842EA3
:1012700041E0942E51E1652E81E0782E711A01171C
:1012800008F492C0143008F086C0E12EF12CC7019A
:10129000880F991F9C012E523D4F7901D9019D96CF
:1012A000ED91FC919E9782818F3409F074C0812F5B
:1012B0000E945F07D7019D96ED91FC919E976589ED
:1012C00076898789908D0E94B3247F936F93BF9214
:1012D000AF929F928F921F926F92DF92CF920E9455
:1012E000C5250FB6F894DEBF0FBECDBF472D410F09
:1012F00060E086EC92E00E94E307B60186EC92E0A3
:101300000E94CC181F5FBBCF40911E0350911F035A
:101310002091EF0241155105B1F05F934F93422F99
:10132000022E000C550B5F932F937F939F9387EFB3
:1013300091E09F938F931F9281E18F93FF92EF92A1
:101340000E94C52522C0811103C03DE58BE502C086
:101350003EE58EE51F923F933091D2021F923F935C
:101360001F928F93422F022E000C550B5F932F93E9
:101370007F939F9382EE91E09F938F931F9281E1E1
:101380008F93FF92EF920E94C5250FB6F894DEBFAF
:101390000FBECDBF56CF41E150E060E270E0C60124
:1013A0000E947D25198AA2CF62960FB6F894DEBFFF
:1013B0000FBECDBFDF91CF911F910F91FF90EF90A6
:1013C000DF90CF90BF90AF909F908F907F906F9065
:1013D00008952CB521602CBD2A989EBD0DB407FE42
:1013E000FDCF2EB530E0322F22278EBD0DB407FE83
:1013F000FDCF9EB52A9A8CB58E7F8CBDA901492B55
:10140000CA010895CF92DF92EF92FF920F931F933C
:10141000CF93DF93EFEFF2E080E0A191B1911196CD
:101420009C91923009F48F5F93E0E730F907A9F7B8
:10143000882309F491C08091990281118DC0229A6C
:101440002A9A61E08BE00E947C1360E08CE00E94AD
:101450007C1361E08DE00E947C1380E58CBD8DB52E
:1014600081608DBD60E082E00E947C1380E090E0AE
:101470000E94E90981E092E80E94E90980E098EB86
:101480000E94E909C9E9D3E008E814E034E7E32E53
:1014900034E0F32EFE018491F801C490F701D4905A
:1014A000D11005C080E090E00E94E909F3CF8111DE
:1014B0000E9423138D2D90E0880F991F8E569E4F0A
:1014C000FC01A591B4918C91C82261F387EF90E85B
:1014D0000E94E90983ED97EA0E94E90983E196EC0D
:1014E0000E94E90982EA94E90E94E9098CEA92ECF7
:1014F0000E94E90983E89AEC0E94E90984ED9EECD8
:101500000E94E90987EB94EC0E94E90980E398E9DD
:101510000E94E90986E79CEC0E94E90980E090EED0
:101520000E94E90980E098EC0E94E90980E090ECD3
:101530000E94E90983E080934B0185EB9AE0909348
:10154000010180930001809169008C7F8093690084
:10155000E89A81E080939902DF91CF911F910F91DA
:10156000FF90EF90DF90CF9008951F93CF93DF937C
:1015700080E090E00E94E909192F90936401809126
:101580004B01843009F065C080E090EB0E94E909CE
:10159000EC018091490163E00E947823911114C00D
:1015A000117080914801212F30E0280F311D280F44
:1015B000311DF901EC5FFE4F80818093480190E07E
:1015C000806A94690E94E9098091490181111EC0D5
:1015D0009E01332784E0359527958A95E1F72E5FA4
:1015E0003F4F3595279520935701809157018230C1
:1015F00008F477C0809157018B3008F072C0E091F9
:101600006201F0916301309709F00995E091490179
:1016100081E08E0F80934901F0E0E35BFE4F8C2F59
:10162000C08390914C01892798E021E387FF03C094
:10163000880F822701C0880F9150C1F780934C0119
:10164000909149018091570198134FC089E092E829
:1016500043C080914B0187FF1DC080915701E091ED
:101660004B0191E09E0F90934B01E80FF0E0E35B9C
:10167000FE4F808190914C01982728E031E397FF3D
:1016800003C0990F932701C0990F2150C1F7909380
:101690004C0120C080914B0191E0980F90934B0139
:1016A000823089F02CF4811112C080914C0112C05B
:1016B000853079F0863059F4809157018195809377
:1016C0004B0184ED07C089E092E80E94E9098AEAAB
:1016D00001C08DE290E09854DF91CF911F910C945E
:1016E000E90982E0809357018ACFDF91CF911F9162
:1016F0000895F89480918B0190918C01A0918D01B7
:10170000B0918E01789424E0B695A795979587952A
:101710002A95D1F7882379F02BEE280F273268F02D
:1017200023EC280F273258F027E8280F273248F0FB
:10173000815A873240F080E0089581E0089588E082
:10174000089584E0089582E00895811102C06093B5
:1017500058010895811103C089E00C944C132FEFB8
:10176000280F2230D0F481E090E001C0880F2A9544
:10177000EAF72091CA02662311F0822B02C08095FD
:1017800082238093CA02E091C602F091C7020084CE
:10179000F185E02D86EC92E009940895CF93DF93D4
:1017A00000D0CDB7DEB7272F7A836983982F96951F
:1017B000E92FF0E0EE0FFF1FEE52FD4F05A4F6A556
:1017C000E02D8170462F522F282F30E0DF01A20F2D
:1017D000B31F93961C92939791961C9241155105B5
:1017E000A9F0220F331FE20FF31F568F458F94305D
:1017F00068F4880F25E2929F800D1124815B682F89
:1018000070E042E0CE0101960E9493060F900F9087
:10181000DF91CF910895BF92CF92DF92EF92FF9226
:101820000F931F93CF93DF936C01B62E0FEF12E04F
:1018300094E4E92E91E0F92EF801C191D1918F0144
:101840008981823001F5F70180818F37A9F1F60196
:101850009281891318C030C0F6018781608171813F
:1018600082FF30C0072E000C880B990B0E94F829CC
:1018700020E030E040E251E40E944124AB01BC0191
:10188000CE010E94DC02FFEFEF1AFF0A83E007306F
:10189000180791F68B2D8570E9F0809199028823C5
:1018A000C9F0DF91CF911F910F91FF90EF90DF90E2
:1018B000CF90BF900C94D317E4E0BE12CDCF60E080
:1018C00070E004C0660F771F660F771FCE010E947D
:1018D0003503D9CFDF91CF911F910F91FF90EF90FA
:1018E000DF90CF90BF900895CF93DF931F92CDB735
:1018F000DEB790E08830910508F049C0FC01EC5C4F
:10190000FF4F0C94CE23653608F064E66093F20234
:101910008EE190E037C0653608F064E66093F0022F
:101920008FE190E02FC06093F5028AE08093FE0281
:1019300087E290E027C06093F4028AE08093FE0281
:1019400088E290E01FC0862F69830E94C2156981DA
:1019500080E290E017C0653608F064E66093F1021B
:1019600082E290E00FC0643608F060E06093F3021A
:1019700089E290E007C0653608F064E66093F602FD
:101980008AE290E00F90DF91CF910C94AF060F9018
:10199000DF91CF910895CF93DF9300D0CDB7DEB71D
:1019A00077FD11C0813099F038F0823029F138C0CC
:1019B000813080F560E070E06093090384E090E09E
:1019C0000E94AF062DC0813099F760E070E0962F3D
:1019D000872F6E31710510F49EE180E09093DD0257
:1019E0008093DE027A83698342E065E070E0CE0195
:1019F00001960E94930614C0672B71F08091DD025E
:101A00009091DE0290931F0380931E0381E08093E8
:101A1000D70206C0823021F410921F0310921E03D9
:101A20000F900F90DF91CF9108958038A1F48091AD
:101A30005C02853009F451C0E1E0F3E0A191B1917D
:101A400012969C919F3409F442C093E0E730F90765
:101A5000A9F785E008959091DA02992341F1843045
:101A600031F0883031F08130D1F58FEF03C085E05F
:101A700001C08BEF2091D202082E000C990B820F2F
:101A8000911D21E02093DA0297FD06C0853691056D
:101A900024F084E690E001C080E08093D2021092AE
:101AA0001F0310921E030E94280880E008958130D1
:101AB000B1F461E070E080911E0390911F03892BC7
:101AC00011F060E070E082E00E94CB0C06C0823032
:101AD00041F0833079F08430B1F00E94280881E031
:101AE0000895E0910103F091020382818F34A9F3FC
:101AF00083E00895E0910303F091040382818F3421
:101B000061F384E00895E0910503F091060382817A
:101B10008F3419F382E008950F931F93CF93DF93CF
:101B2000D82FC62F813071F018F08630C0F519C05B
:101B3000653608F0C4E68C2F0E94CD026C2F88E138
:101B400090E027C06093650181E290E00E94AF06BB
:101B500080915C028250853020F486EC92E00E94F5
:101B600006088EEF8D0F082F10E0F801EE0FFF1F13
:101B7000E00FF11FEB57FD4FC0839281913031F49C
:101B8000E0919702F091980260E009956C2FC801EE
:101B90008396DF91CF911F910F910C94AF06DF9147
:101BA000CF911F910F9108950F931F93CF93DF93C0
:101BB000CDB7DEB761970FB6F894DEBF0FBECDBFCD
:101BC00090915F029B3018F0660F660F03C096304D
:101BD00008F0660FE091B403F091B503843019F476
:101BE000E60FF11D04C0883031F4E61BF109F093D3
:101BF000B503E093B4038091B4039091B5038417C7
:101C0000950724F45093B5034093B4038091B40333
:101C10009091B5032817390724F43093B503209326
:101C2000B40341E060E086EC92E00E94E30780911B
:101C3000EF02282F082E000C330B3F938F938091D7
:101C4000B5038F938091B4038F931F930F931F92CB
:101C500081E18F938E010F5F1F4F1F930F930E949F
:101C6000C525B80186EC92E00E94CC180FB6F89416
:101C7000DEBF0FBECDBF61960FB6F894DEBF0FBEBC
:101C8000CDBFDF91CF911F910F9108950F931F93B7
:101C9000CF93C82F803871F461E089ED92E00E9403
:101CA0000E088091D8029091D9029093B503809349
:101CB000B4030FC0803469F48091B4039091B503EC
:101CC0002091D8023091D9028217930711F00E9417
:101CD000FF0602ED12E028EE33E040E050E065E060
:101CE0008C2F0E94D40D81E0CF911F910F91089508
:101CF000BF92CF92DF92EF92FF920F931F93CF93F9
:101D0000DF93CDB7DEB7AD970FB6F894DEBF0FBE49
:101D1000CDBFE82E42E06EE370E0CE0101960E9456
:101D20003E0789819A818E30904F69F08EE090EF66
:101D30009DA78CA742E06EE370E0CE018C960E94D6
:101D40009306EE24E3948FEFC82E82E0D82E90E322
:101D5000F92E00E410E020E1B22EEE2081F045E201
:101D600050E06DEA72E0CE0101960E94A625FF8246
:101D700045E2B801CE0101960E94930606C045E2F5
:101D8000B801CE0101960E943E07F60121913191E2
:101D90006F018E85F90181838F858483D901159622
:101DA000FE0176968B2D01900D928A95E1F7888938
:101DB0009989F90113A211A2009711F0968F858FCE
:101DC0008A899B89F90114A212A2009711F090A3AD
:101DD000878F0B5D1F4FF394043D110509F0BDCFB4
:101DE000AD960FB6F894DEBF0FBECDBFDF91CF9199
:101DF0001F910F91FF90EF90DF90CF90BF900895CB
:101E0000CF92DF92EF92FF921F93CF93DF93CDB7E4
:101E1000DEB7AB970FB6F894DEBF0FBECDBF182F5D
:101E20004BE260E070E0CE0101960E943E07111186
:101E3000A1C089819A818E30904F09F09BC08B811F
:101E40009C819093D9028093D8021092D70210926D
:101E5000DA0210921F0310921E038D8180930903F2
:101E60008E819F818E31910510F48EE190E09093E8
:101E7000DE028093DD0280E1FE013896AAE0B3E045
:101E800001900D928A95E1F7888D882329F081E0F1
:101E90008093DA021092D202898D0E94CD028A8D3F
:101EA0009B8DAC8DBD8D8093440190934501A09393
:101EB0004601B09347018E8D833409F086E40E9479
:101EC000EA158F8D853608F084E68093F20288A1AA
:101ED000853608F084E68093F0028AA5843608F0FF
:101EE00080E08093F3028BA1853608F084E680932E
:101EF000F10289A10E94C2158AA18093650188A57B
:101F00008093F5028AE08093FE0289A58093F40213
:101F10008BA5853608F084E68093F6026E0184E294
:101F2000C80ED11C85E8E82E82E0F82E10E0F601FC
:101F300081916F01F70180838281813039F4E091D2
:101F40009702F091980260E0812F09951F5FF3E0FE
:101F5000EF0EF11C143059F7AB960FB6F894DEBFB4
:101F60000FBECDBFDF91CF911F91FF90EF90DF901B
:101F7000CF9008954BE250E062E872E0CE01019606
:101F80000E94A6254BE260E070E0CE0101960E941F
:101F9000930655CFCF93DF938CE792E00E944E05D6
:101FA000C2EDD2E088A10E94C5160E945F058E8D09
:101FB0000E94C5160E945F058BA10E94C5160E9453
:101FC0005F058AA10E94C5160E945F058DA10E942F
:101FD000C5160E945F058F8D0E94C5160E945F0581
:101FE00089A10E94C5160E945F058CA10E94C5169A
:101FF000DF91CF910C9464050F931F93CF93DF93E0
:1020000087E792E00E944E050FEF12E0F801C191C0
:10201000D1918F010E945F058D8D9E8D0E94A51725
:1020200089A1882329F06CE48EE492E00E94AB023F
:102030000E945F058F8D98A10E94A5178AA1882311
:1020400029F068E48EE492E00E94AB02F3E00730EE
:102050001F07E1F6DF91CF911F910F910C9464055A
:10206000CF93DF9381E792E00E944E0580915B0160
:102070000E94C5160E945F05809165010E94C516E9
:10208000C5E8D2E00E945F0588810E94C5162396AC
:1020900082E0C139D807B1F7DF91CF910C94640584
:1020A000CF93DF938BE692E00E944E05C2EDD2E023
:1020B0008FA90E94C5160E945F056B857C8580E014
:1020C00090E04AE00E948216DF91CF910C94640563
:1020D00081E592E00E944E0582E40E94FC150C947A
:1020E0006405FC01918D828D981761F0828DDF016E
:1020F000A80FB11D5D968C91928D9F5F9F73928FFB
:1021000090E008958FEF9FEF0895FC01918D828DEF
:10211000981731F0828DE80FF11D858D90E00895BC
:102120008FEF9FEF0895FC01918D228D892F90E014
:10213000805C9F4F821B91098F739927089581EBD3
:1021400091E00E94931021E0892B09F420E0822F76
:102150000895FC01848DDF01A80FB11DA35ABF4F64
:102160002C91848D90E001968F739927848FA68996
:10217000B7892C93A089B1898C9180648C93938DBD
:10218000848D981306C00288F389E02D80818F7DAD
:1021900080830895EF92FF920F931F93CF93DF9365
:1021A000EC0181E0888F9B8D8C8D981305C0E889A8
:1021B000F989808185FD24C0F62E0B8D10E00F5F1C
:1021C0001F4F0F731127E02E8C8DE8120CC00FB635
:1021D00007FCFACFE889F989808185FFF5CFCE0128
:1021E0000E94A910F1CF8B8DFE01E80FF11DE35A7B
:1021F000FF4FF0820B8FEA89FB898081806207C0E4
:10220000EE89FF896083E889F98980818064808311
:1022100081E090E0DF91CF911F910F91FF90EF90BF
:102220000895CF93DF93EC01888D8823C9F0EA8964
:10223000FB89808185FD05C0A889B9898C9186FDBF
:102240000FC00FB607FCF5CF808185FFF2CFA889BC
:10225000B9898C9185FFEDCFCE010E94A910E7CFFF
:10226000DF91CF91089580E090E0892B29F00E94C2
:102270009F1081110C940000089508950E94782504
:10228000FF920F931F93CF93DF931F92CDB7DEB7CB
:10229000F82E80E8F8120DC061E08EE793E00E940E
:1022A0000E0880915B0190E09093B5038093B40396
:1022B0001BC080E4F81218C06091B4037091B5039C
:1022C00080915B0190E06817790771F0653608F03E
:1022D00064E6862F69830E94CD02698188E190E0DF
:1022E0000E94AF060E94301008E713E024E630E0B9
:1022F00040E050E06AE08F2D0E94D40D8091B4033D
:1023000080680E94CD0281E00F90DF91CF911F91F4
:102310000F91FF900895803819F40E9428080CC08E
:102320008F7151F060E070E080914A010E94CE0B05
:102330000E94FC0F82E0089581E008950F931F939F
:10234000CF93C82F803869F461E087E693E00E945C
:102350000E088091F00290E09093B5038093B4034F
:1023600017C08034A9F46091B4037091B5038091D3
:10237000F00290E06817790759F0653608F064E6D6
:102380006093F0028FE190E00E94AF060E94CA0FB6
:102390000BE513E024E630E040E050E065E08C2FF0
:1023A0000E94D40D81E0CF911F910F910895CF939A
:1023B000C82F803851F461E08DE493E00E940E084C
:1023C0001092B5031092B40314C0803491F480913C
:1023D000B4039091B503892B61F081E00E94000F56
:1023E00081E00E94780E83E493E00E944E050E94F3
:1023F00064058C2F0E94A61881E0CF910895CF9399
:10240000C82F803869F461E083E393E00E940E08EE
:102410008091DA0290E09093B5038093B40319C0E1
:102420008034B9F481E02091B4033091B503232BBB
:1024300009F480E09091DA02891759F0811105C002
:102440008091D8029091D90202C080E090E00E9471
:10245000FF068C2F0E94A61881E0CF9108950F935C
:102460001F93CF93C82F803871F461E084E293E02A
:102470000E940E088091DD029091DE029093B503D8
:102480008093B40309C0803439F46091B40370912F
:10249000B50381E00E94CB0C08E113E028EE33E0A5
:1024A00040E050E06AE08C2F0E94D40D81E0CF9193
:1024B0001F910F9108950F931F93CF93C82F8038CA
:1024C00069F461E088E093E00E940E0880910903BE
:1024D00090E09093B5038093B40309C0803439F43D
:1024E0006091B4037091B50380E00E94CB0C08EFBB
:1024F00012E024E630E040E050E061E08C2F0E94E2
:10250000D40D81E0CF911F910F9108950F931F93E8
:10251000CF93DF93D82FE0915C02C3EFCE0F8038CA
:10252000F9F48C2F0E945F0786EC92E00E94060867
:1025300066E671E086EC92E00E94CC18EC2FF0E0A9
:10254000EE0FFF1FEE52FD4F05A4F6A5E02D84818E
:10255000082E000C990B9093B5038093B4030BC025
:10256000803449F46091B4037091B5038C2F0E94BC
:10257000EA060E9488050AEE12E024E630E04CE903
:102580005FEF61E08D2F0E94D40D81E0DF91CF914C
:102590001F910F9108951F920F920FB60F92112461
:1025A0002F933F934F935F936F937F938F939F935B
:1025B000AF93BF93EF93FF9381EB91E00E94A9103B
:1025C000FF91EF91BF91AF919F918F917F916F910B
:1025D0005F914F913F912F910F900FBE0F901F90E1
:1025E00018951F920F920FB60F9211242F938F936D
:1025F0009F93EF93FF93E091C101F091C20180811D
:10260000E091C701F091C80182FD12C090818091D4
:10261000CA018F5F8F732091CB01821751F0E09137
:10262000CA01F0E0EF54FE4F958F8093CA0101C0BC
:102630008081FF91EF919F918F912F910F900FBE0D
:102640000F901F901895833081F028F4813099F015
:102650008230A1F008958730A9F08830B9F0843035
:10266000D1F4809180008F7D03C0809180008F77AE
:1026700080938000089584B58F7702C084B58F7DE4
:1026800084BD08958091B0008F7703C08091B00021
:102690008F7D8093B00008951F93CF93DF93282FF1
:1026A00030E0F901E956FC4F8491F901EA57FB4FFC
:1026B000D491F901EE58FB4FC491CC23C9F0162FE9
:1026C00081110E942313EC2FF0E0EE0FFF1FE85959
:1026D000FB4FA591B4918FB7F894111105C09C914F
:1026E000ED2FE095E92302C0EC91ED2BEC938FBF29
:1026F000DF91CF911F910895CF93DF9390E0FC017C
:10270000EA57FB4F2491FC01EE58FB4F849188233C
:1027100061F190E0880F991FFC01E357FC4FC591D0
:10272000D491FC01E859FB4FA591B491611109C006
:102730009FB7F8948881209582238883EC912E237B
:102740000BC0623061F49FB7F8943881822F809576
:1027500083238883EC912E2B2C939FBF06C08FB7C9
:10276000F894E8812E2B28838FBFDF91CF910895B5
:102770001F93CF93DF93182FEB0161E00E947C132E
:10278000209711F460E004C0CF3FD10539F461E037
:10279000812FDF91CF911F910C944C13E12FF0E02A
:1027A000E956FC4FE491E330F9F048F4E130B9F038
:1027B000E230A1F584B5806284BDC8BD34C0E73085
:1027C000E9F0E83019F1E43049F580918000806249
:1027D00080938000D0938B00C0938A0024C084B57E
:1027E000806884BDC7BD1FC08091800080688093D1
:1027F0008000D0938900C093880015C08091B000FC
:1028000080688093B000C093B3000DC08091B00089
:1028100080628093B000C093B40005C0C038D10579
:102820000CF0B5CFAFCFDF91CF911F9108952FB7A7
:10283000F89460917C0170917D0180917E0190916E
:102840007F012FBF08951F920F920FB60F92112490
:102850002F933F938F939F93AF93BF9380917C016E
:1028600090917D01A0917E01B0917F0130917B011B
:1028700023E0230F2D3720F40196A11DB11D05C0C3
:1028800026E8230F0296A11DB11D20937B018093A2
:102890007C0190937D01A0937E01B0937F01809194
:1028A000770190917801A0917901B0917A01019618
:1028B000A11DB11D8093770190937801A0937901B8
:1028C000B0937A01BF91AF919F918F913F912F91DA
:1028D0000F900FBE0F901F9018951F920F920FB67A
:1028E0000F9211242F933F934F935F936F937F9396
:1028F0008F939F93AF93BF93EF93FF93E091020168
:10290000F09103010995FF91EF91BF91AF919F91D4
:102910008F917F916F915F914F913F912F910F9088
:102920000FBE0F901F9018951F920F920FB60F9227
:1029300011242F933F934F935F936F937F938F93C4
:102940009F93AF93BF93EF93FF93E0910001F091BA
:1029500001010995FF91EF91BF91AF919F918F91E7
:102960007F916F915F914F913F912F910F900FBE8B
:102970000F901F901895EFE6F0E080818D7F8083A7
:102980005E9808951F920F920FB60F9211242F9305
:102990003F934F935F936F937F938F939F93AF93E7
:1029A000BF93EF93FF938091590190915A01892B26
:1029B000F1F0809188009091890086509F4F80347B
:1029C0002CE9920710F080E090E0909389008093CA
:1029D00088008091590190915A01019790935A0172
:1029E000809359019BB180E489278BB902C00E9472
:1029F000BB14FF91EF91BF91AF919F918F917F9108
:102A00006F915F914F913F912F910F900FBE0F905B
:102A10001F9018950F931F93CF93DF931F92CDB7FD
:102A2000DEB78C01DC0118968C91189719968C935F
:102A3000623068F40E941714F801648775878687EE
:102A400097870F90DF91CF911F910F910895D80133
:102A500018968C91681771F3D8011496ED91FC913A
:102A60001597309759F031962591349121153105FC
:102A700029F080E46983F90109956981D8011896E4
:102A80006C9318978D919C91119715969C938E93AA
:102A90001497D8011496ED91FC9115978491882391
:102AA00011F0861304C0309709F4C4CF07C03496E0
:102AB000D8011596FC93EE931497EBCF31962591A0
:102AC00034912115310509F4B3CF80E8F901099556
:102AD000682FAECF62E086EC92E00E94DB078BE3CA
:102AE0009FE10197F1F740E150E064E672E086EC87
:102AF00092E00E94041841E060E086EC92E00E94BF
:102B0000E30740E150E064E772E086EC92E00E9467
:102B1000041881E00895803811F40C946A158091AE
:102B20005D0208951F93CF93DF93C82FD92F162FDF
:102B3000180F1C1741F0FE01649186EC92E00E9490
:102B4000A0022196F6CFDF91CF911F910895809139
:102B5000FF02909100039093080380930703EFEF27
:102B6000F2E0A191B19111968C911197882329F0EF
:102B7000B0930803A0930703089583E0E730F807B4
:102B800081F70895CF93DF931F92CDB7DEB7898386
:102B90008093F702898185FD05C0898186FD04C087
:102BA0008FEF03C080EC01C080EAF894809380012D
:102BB00083E08093860178948093B000898184FFBC
:102BC00002C081E001C085E08093B1000F90DF91E9
:102BD000CF910895833441F01CF4813439F404C05A
:102BE000863411F0823511F48093EF020895682F36
:102BF00081EB91E00C94CA10E0914E02F0914F02EB
:102C00000190F081E02D682F8EE492E009940F93FB
:102C10001F93CF93DF930E9417140091910210919C
:102C200092022091930230919402409196024423A3
:102C300029F0601B710B643F714078F10E941714FA
:102C40006093910270939202809393029093940206
:102C500081E080939602809195028F5F8093950228
:102C6000C7E8D2E010E08091950280FF07C0FE0126
:102C70008291823071F48883108204C0888182300E
:102C800041F41882E0919702F09198026881812FB7
:102C900009951F5F2396143031F7DF91CF911F9173
:102CA0000F910895FF920F931F93CF93DF93F82E08
:102CB000062FC7E8D2E010E0FE0132979081892FFD
:102CC0008F778F1115C0319600832881223081F0D3
:102CD000023071F0991F9927991F692F6027621799
:102CE00039F06883E0919702F0919802812F09955D
:102CF0001F5F2396143001F7DF91CF911F910F9141
:102D0000FF9008958F929F92AF92BF920F931F935F
:102D1000CF93DF93CDB7DEB7A1970FB6F894DEBFA0
:102D20000FBECDBF19A2423008F44AE08E010F5DFC
:102D30001F4F842E912CA12CB12CA50194010E942F
:102D4000AC23E62FB901CA0101501109EA3014F48D
:102D5000E05D01C0E95CD801EC93232B242B252BEB
:102D600061F7B8018EE492E00E94CC18A1960FB6EC
:102D7000F894DEBF0FBECDBFDF91CF911F910F91B1
:102D8000BF90AF909F908F900895682F70E080E083
:102D900090E04AE00C9482164F925F926F927F927D
:102DA0008F929F92AF92BF92CF92DF92EF92FF925B
:102DB0006B017C01B42E9B01AC010E943E2588234F
:102DC00019F066E371E027C026013701E89477F82F
:102DD0002FEF3FEF4FE75FE7C301B2010E943E25AF
:102DE00081110DC02FEF3FEF4FE75FE7C301B20145
:102DF0000E94F12918161CF46AE371E00CC02FEF51
:102E00003FEF4FE75FE4C701B6010E94E9241816BF
:102E100094F46EE371E08EE492E0FF90EF90DF9027
:102E2000CF90BF90AF909F908F907F906F905F906A
:102E30004F900C94CC182FEF3FEF4FE75FECC7019A
:102E4000B6010E94F12987FDE4CF20E030E0A9011E
:102E5000C701B6010E94F12987FF09C08DE20E94D7
:102E6000FC154C01F7FAF094F7F8F09402C0812CAD
:102E7000912CA12C60E070E080E09FE3AB1441F066
:102E800020E030E040E251E40E944124A394F6CFD8
:102E90009B01AC01C701B6010E94D5232B013C0167
:102EA0000E94BA246B017C010E94F6299B01AC01AF
:102EB000C301B2010E94D4232B013C014AE0C701A7
:102EC000B6010E9482167C01E80CF91CBB2041F07F
:102ED00062E471E08EE492E00E94CC18E80EF91EE4
:102EE000DB2CDD2021F120E030E040E251E4C301A1
:102EF000B2010E94572A2B013C010E94BA244B01C7
:102F0000A12CB12C4AE0C501B4010E948216E80E42
:102F1000F91EC501B4010E94F6299B01AC01C30151
:102F2000B2010E94D4232B013C01DA94DACFC7010D
:102F3000FF90EF90DF90CF90BF90AF909F908F90D9
:102F40007F906F905F904F900895CF92DF92EF92B5
:102F5000FF92CF93DF936C01990FEE08FF08F7FE05
:102F600017C08DE20E94FC15EC0166277727CB0184
:102F70006C197D098E099F094AE00E9482168C0F08
:102F80009D1FDF91CF91FF90EF90DF90CF9008953C
:102F90004AE0C701B601DF91CF91FF90EF90DF903B
:102FA000CF900C9482160F931F93CF93DF938BEAED
:102FB00093E00E944E058091A0020E94C516C0E0D9
:102FC000D0E08E0107561D4FF80182858F3F91F0AA
:102FD0000E945F05F80182850E94C5160E945F0568
:102FE000F80187850E94C5160E945F05F801808957
:102FF0000E94C5162996C432D10519F7DF91CF91E9
:103000001F910F910C946405CF92DF92EF92FF9283
:103010000F931F93CF93DF936C017A018B01C0E074
:10302000D0E0CE15DF0589F0D8016D918D01D60174
:10303000ED91FC910190F081E02DC6010995892B5D
:1030400011F47E0102C02196ECCFC701DF91CF9130
:103050001F910F91FF90EF90DF90CF9008950F9305
:103060001F93CF93DF938091FA028823D9F1909137
:10307000F70294FF37C0F89480918F0190919001EE
:10308000A0919101B091920178940091F90210E021
:10309000C091FA02D0E0BC01CD0134E0660F771F89
:1030A000881F991F3A95D1F72091800130E040E0C8
:1030B00050E00E94AC2346E0369527954A95E1F70B
:1030C000CE01821B910997FD019695958795800FFA
:1030D000911F1816190694F48F3F910519F014F0FA
:1030E0008FEF90E08093F9026091F90270E083E045
:1030F000DF91CF911F910F910C94B81381E0F2CF23
:10310000EF92FF921F93CF93DF937C0110E0CEEB01
:10311000D3E098819923A1F09C3219F41F5F219686
:10312000F8CFCE010E948825BC01812FF7010995B7
:10313000DE01ED019D91992361F39C32D1F7E9CF36
:10314000DF91CF911F91FF90EF900895843011F09F
:10315000883071F481E090E02091B4033091B503A0
:10316000232B11F080E090E09093B5038093B4039B
:1031700041E060E086EC92E00E94E3078091B403B6
:103180009091B503892B19F48AE994E002C08EE985
:1031900094E060E00C940E086115710579F0FB0174
:1031A00001900020E9F73197AF01461B570BDC0176
:1031B000ED91FC910280F381E02D099480E090E094
:1031C0000895CF93DF9300D000D01F92CDB7DEB724
:1031D000789484B5826084BD84B5816084BD85B5F2
:1031E000826085BD85B5816085BD80916E008160FE
:1031F00080936E00109281008091810082608093A4
:1032000081008091810081608093810080918000A5
:103210008160809380008091B10084608093B100D0
:103220008091B00081608093B00080917A008460CA
:1032300080937A0080917A00826080937A008091F6
:103240007A00816080937A0080917A008068809310
:103250007A001092C100219A62E080E00E9452162A
:103260000E940716E091C101F091C20182E08083C3
:10327000E091BD01F091BE011082E091BF01F0919B
:10328000C00183E380831092C901E091C501F091F0
:10329000C60186E08083E091C301F091C401808182
:1032A00080618083E091C301F091C40180818860D6
:1032B0008083E091C301F091C401808180688083A4
:1032C000E091C301F091C40180818F7D80838AE009
:1032D00090E00E94F7150E94681080E880BF8FE39D
:1032E00080937E0080916400806880936400569A89
:1032F0008FE893E0909300038093FF028AE693E0C7
:10330000909302038093010385E493E09093040378
:103310008093030380E293E0909306038093050378
:1033200080E00E94000F80E00E94780E209A80E4E6
:103330009CE99093870080938600109280008AE138
:103340008093810084E280936F008EE480937C0000
:1033500080E480937B008FEE80937A000E94A71513
:1033600002ED10E0E12CF12CB701E3E0660F771FCE
:10337000EA95E1F7606486EC92E00E94DB0768E082
:10338000C8010E94921560E886EC92E00E94DB077B
:103390002FEFE21AF20A085F1F4F38E0E316F1043C
:1033A00019F70E94020A65E084E592E00E940A157E
:1033B00083EA91E046E0480F4A83E6EBF3E00190B0
:1033C0000020E9F73197E65BF3401E2F45E2742EAB
:1033D0005FE7652E81EB91E00E949310892B09F441
:1033E000C1C081EB91E00E9471108A3019F08D30DC
:1033F00009F0A8C0112309F4A3C08091B6038F324D
:1034000009F09EC0E7EBF3E001900020E9F78F019F
:10341000085B134047E050E06EE671E087EB93E015
:103420000E94AF25892BD1F48EEB93E00E94882572
:103430000E94FF061127F801EA54FC4F6081862F95
:103440006B830E94EA156B81633419F0663409F0CE
:1034500077C08DE190E00E94AF0672C047E050E077
:1034600066E671E087EB93E00E94AF25892B39F483
:103470008CE89DE00E9480180E94301061C047E0F7
:1034800050E06EE571E087EB93E00E94AF25892B59
:1034900039F48BEC9CE00E9480180E94501050C0C0
:1034A00047E050E066E571E087EB93E00E94AF25CE
:1034B000892B39F48AEE96E00E9480180E948805D4
:1034C0003FC047E050E06EE471E087EB93E00E947C
:1034D000AF25892B09F032C50A3008F42FC580ECDE
:1034E00093E00E9484252091BE03243609F043C551
:1034F00023E0022F10E07801AEE0EA0EF11CF701A4
:10350000EE0FFF1FEE0FFF1FEE52FD4F6083718322
:1035100082839383223009F41EC5B801660F771F9A
:10352000660F771F695F7F4FC701880F991F880F4C
:10353000991F44E08E529D4F0E9493060E94BD0544
:1035400090E009C091E0910FE12FF0E0EA54FC4FC8
:1035500080839034A8F7E92FF0E0EA54FC4F108202
:10356000192F38CF80919902882309F447C010E0C1
:1035700063E0D62E79E0C72E0AE080914B018430BB
:1035800039F49091570180914901981709F432C696
:1035900080914B018330B1F41092490110924C019B
:1035A0009FEF9093570194E090934B01F894809390
:1035B000480183EA94E90E94E90989ED92E80E94B2
:1035C000E909789483EAC82E82E0D82E0FEF7601BD
:1035D000E2E0EE1AF108D6018C918F3F09F0BEC6E9
:1035E000F9E0CF0ED11C27ECC21622E0D20679F703
:1035F000112321F062E089E00E9452160E94171404
:103600000091600210916102209162023091630288
:103610006B017C01C01AD10AE20AF30A3AEFC31621
:10362000D104E104F10408F472C0E0915A02F0916F
:103630005B020995182F811119C0E0915802F09191
:1036400059023097A9F03396E4912E2F30E0A8EE7E
:10365000B3E00E94702B611571058105910541F061
:103660006C157D058E059F05B8F002C08032A9F06B
:1036700080915E02181308C080915F028F3F41F075
:103680008F5F80935F0204C010935E0210925F020E
:10369000112309F43CC001C010E20E94171460938A
:1036A0006002709361028093620290936302E091E2
:1036B0005802F0915902309739F420915602309116
:1036C000570280915C0210C03196259134912115EA
:1036D000310599F3812FF9010995813099F4EDCFE6
:1036E000981739F02D5F3F4FF90194919111F8CF60
:1036F00009C0F9013196E491E123E113F3CFF90117
:1037000032968491682F84E592E00E940A150E9407
:1037100017142091D3023091D402621B730B6D34C5
:10372000714008F4B8C30E9417146093D3027093D9
:10373000D4028093D5029093D6028091DB0282302E
:1037400030F48F5F8093DB020E942F18A4C3109285
:10375000DB025FEF252E52E0352E710101E0D7012B
:10376000ED91FC9181818D7F8130A9F42081F894C5
:1037700044E0249FF0011124E058FE4F8385948596
:10378000A585B685789421110FC6BC01F70180810B
:1037900091810E943503D701CD90DD907D01F60126
:1037A00082818F3409F062C0838181110AC08589CA
:1037B0009689A789B08D818F928FA38FB48F038351
:1037C0001DC0818C928CA38CB48CA5019401658959
:1037D00076898789908D0E94D4232AE83BE446E0CD
:1037E0005DE30E94572A9B01AC01C501B4010E9410
:1037F000D523F601618F728F838F948FD6015596F2
:103800006D917D918D919C9158970E94B324F60102
:10381000858D968D181619065CF48617970714F493
:1038200003A306C0681779071CF483A18111CEC5D4
:10383000F601878D90A11816190674F49C01215089
:1038400031096217730714F404A306C068177907D7
:103850001CF084A18111BCC580911E0390911F03AF
:10386000892B41F0F60112A211A204C013A211A2E9
:1038700014A212A2B7E0EB16B3E0FB0609F06FCF7B
:103880008091DA0281112EC1E091D202E983109277
:10389000D20220910703309108033D832C83D90184
:1038A00012968C9112970091D8021091D9028F3400
:1038B00009F0B2C080911E0390911F03892B09F07B
:1038C000ABC055968D909D90AD90BC905897B80127
:1038D000012E000C880B990B0E94F829A501940178
:1038E0000E94D4236B017C0120910E0330910F03C1
:1038F00040911003509111030E94572A2B013C0163
:103900006093E3027093E4028093E5029093E602F1
:1039100020E030E0A901C701B6010E94F12987FF2C
:1039200003C0B981B11114C020E030E0A901C70182
:10393000B6010E94E924181694F58091D7028230CE
:1039400019F08091F10201C084E6E981E81738F5A9
:1039500020911203309113034091140350911503E9
:10396000C701B6010E94572A2091E7023091E80270
:103970004091E9025091EA020E94D5236B017C013B
:1039800020E030E0A9010E94F12987FF24C51092B0
:10399000E7021092E8021092E9021092EA02A501F1
:1039A0009401AC81BD8159966D917D918D919C91D1
:1039B0005C970E94D4232091160330911703409105
:1039C0001803509119030E94572A6B017C016093E0
:1039D000EB027093EC028093ED029093EE02209143
:1039E000E7023091E8024091E9025091EA02C301F6
:1039F000B2010E94D523A70196010E94D5230E94FF
:103A0000B32477FD06C06536710524F064E670E0E6
:103A100001C060E06093D202EC81FD816589768906
:103A20008789908D0E94B324A801461B570B809173
:103A30001E0390911F03141615065CF12091DD0200
:103A40003091DE02281B390B2F31310510F18091A6
:103A5000D702811116C020E030E040E05FE36091C2
:103A6000E7027091E8028091E9029091EA020E94D7
:103A7000572A6093E7027093E8028093E9029093DB
:103A8000EA0282E08093D70210921F0310921E0375
:103A900029C0009731F0019790931F0380931E0374
:103AA00021C08091D7028230E9F424E6249FC0012E
:103AB000259F900D1124B8010E949823809109033D
:103AC00090E06817790774F060911A0370911B03F6
:103AD00080911C0390911D030E94B3246A357105E7
:103AE0000CF482C41091D202C0901A03D0901B0330
:103AF000E0901C03F0901D03612F70E080E090E0E7
:103B00000E94F629A70196010E94D42321E837EFED
:103B100047E05CE30E94572A9B01AC01C701B60154
:103B20000E94D52360931A0370931B0380931C0398
:103B300090931D038091F302181718F41092F80265
:103B40001AC064E6681B9091D702911103C090914E
:103B5000F10202C09091F002212F30E0281B3109C0
:103B6000929FA001939F500D112470E0CA010E9402
:103B700084236093F8028091F8023091F202831757
:103B800018F01092DC0219C02091DC02FAE08F9F3D
:103B9000C0011124632F70E00E948423822F90E0E3
:103BA0008617970718F43093F80202C01092F802B3
:103BB0002F5F2093DC022A3020F78091F70280FFEC
:103BC00007C08091F0029091F802891B8093F8025F
:103BD0008091F802811103C01092FA0225C0209151
:103BE000FA029091F70294FF0AC037E8839FC00160
:103BF000112464E670E00E948423625A08C04FEFEB
:103C0000849FC001112464E670E00E9484236093C5
:103C1000FA02211109C06FEF70E083E00E94B8132F
:103C200080E88093F90202C00E942F188091D2028E
:103C30006091F602861748F4A4E68A9FC001112419
:103C400070E00E948423962F01C094E68091F702D1
:103C500081FF03C084E6891B982F4091F5022091D3
:103C6000F40230E0241B3109929FB001939F700D44
:103C70001124CB0164E670E00E948423640FB4E158
:103C80006B9FB00111248091FE028F3F19F08F5F6E
:103C90008093FE028091FB029091FC0286179707A9
:103CA000A9F08C599F4F861B970B893C910520F4F6
:103CB0008091FE028B3050F0F8941092FD027093C8
:103CC000FC026093FB0278941092FE020E94280886
:103CD000809161018F5F809361018F7129F48091E0
:103CE000990281110E94D31786E791E00E944E0548
:103CF0008091D8029091D9020E94A5170E945F0579
:103D00000FEF12E0D801ED91FD918D0182818F348A
:103D100009F076C3658976898789908D41E00E9494
:103D2000CC160E945F05B3E007301B0759F780915E
:103D3000D2020E94C5160E945F0560911A0370911D
:103D40001B0380911C0390911D030E94B324CB019F
:103D50000E94A5170E945F0560911E0370911F03CA
:103D600080E090E04AE00E9482160E945F05809108
:103D7000F8020E94C5160E94640511E000E071017E
:103D8000D101ED91FC9161A18FEF810F662319F0B4
:103D900080934A0101E0812F0E945216B2E02B0E5F
:103DA000311CD701ED91FC9162A1662319F01093AB
:103DB0004A0101E081E0810F0E9452161E5F193016
:103DC000F1F6602F8EE00E945216002309F41EC304
:103DD0000E94FC0F66E084E592E00E940A15809143
:103DE000580181111AC3809161018370813091F46F
:103DF00082E891E00E944E0503EA11E00E945F050F
:103E0000D8018D918D010E94C516BA81B013F6CFED
:103E10000E94640560E080E00E94521661E080919B
:103E20001E0390911F03892B09F460E08AE00E9431
:103E3000521661E08091D202811101C060E08BE0F6
:103E40000E94521661E08091D202843608F460E04C
:103E50008DE00E94521661E08091D702823009F015
:103E600060E08CE00E94521661E08091D7028111DF
:103E700060E08FE00E94521661E08091D7028130AD
:103E800009F060E080E10E9452169091D202809188
:103E900099028111F1C2109160011F3F09F449C0DC
:103EA0000E941714012F10E0F801E957FE4FE4912A
:103EB00020915C0130915D01621B730B2AE0E29F4F
:103EC000F0011124E617F707A0F50E94171460937C
:103ED0005C0170935D0180935E0190935F01C80166
:103EE000019666E070E00E9484238093600180FD6B
:103EF0001BC0FC01E957FE4F14910E94BB143AE02D
:103F0000139FC0011124992723E0880F991F2A9538
:103F1000E1F790935A018093590180916F0082607C
:103F200080936F0080E803C080915B0180680E94ED
:103F3000CD020E9407160E9433113FCA46E050E0AE
:103F400067E471E087EB93E00E94AF25892B19F5B8
:103F5000093078F520C020E030E0A9010E94F12965
:103F60008111DBCA1092E7021092E8021092E90276
:103F70001092EA02D2CA25362CF4223609F0DECAA3
:103F800020E0B7CA293611F422E0B3CA203709F07D
:103F9000D5CA21E0AECA46E050E060E471E087EBAC
:103FA00093E00E94AF25892B09F07BC0093098F47B
:103FB00078C06091BD036053643050F4679D602DFC
:103FC0001124605C70E04DE08FEB93E00E9493065B
:103FD0000E946F07B5CA0091BD030053043008F07A
:103FE000AFCA079D802D1124E5E55E2E580E10E026
:103FF000FFEB2F2EF3E03F2EE02EF12CC701880FB0
:10400000991FFC01E150FD4F7F01D1018C91882364
:1040100009F443C0143070F58C3239F41F5FFFEFA0
:104020002F1A3F0A24E0520EF0CFD7018D909C90BA
:10403000B4E01B9F600111245601E5E0AE0EB11CF7
:10404000A80CB91CC1010E948425F401EC0DFD1DD2
:104050006583768387839087652D70E044E0C50192
:104060000E949306F1011F018191882371F28C3225
:10407000D1F7CBCFC1010E948825682F87FD2DC2C3
:10408000E02EF12CF701EE0FFF1FEE52FD4F05A4BD
:10409000F6A5E02D1181161313C2802F0E94D605BC
:1040A0004FCA47E050E068E371E087EB93E00E947D
:1040B000AF25892B39F48EEC9BE00E9480180E947A
:1040C000FC0F3ECA47E050E060E371E087EB93E00D
:1040D0000E94AF25892B39F484E79CE00E94801868
:1040E0000E94CA0F2DCA47E050E068E271E087EBFA
:1040F00093E00E94AF25892B91F5AEEBB3E080E011
:104100009D919923A9F0813298F49C3239F0E82FDF
:10411000F0E0EC5AFD4F908B8F5FF2CF803180F74B
:10412000E82FF0E0EC5AFD4F20E2208B8F5FF6CFB6
:10413000813240F4E82FF0E0EC5AFD4F30E2308B52
:104140008F5FF6CF80915C02883131F068E184E5C1
:1041500092E00E940A15F4C90E946A15F1C947E06D
:1041600050E060E271E087EB93E00E94AF25892B7D
:1041700029F485EA9BE00E948018E2C946E050E0FD
:1041800069E171E087EB93E00E94AF25892BF9F498
:104190000E9468100E94BD050E94CA0F0E946F070E
:1041A00080E00E94D60581E00E94D60582E00E9450
:1041B000D60583E00E94D6050E9488050E94501013
:1041C0000E9430100E94FC0F0E947006B9C945E0A1
:1041D00050E062E171E087EB93E00E94AF25892B0C
:1041E00009F0AEC9F89488E18093600089E080937B
:1041F0006000FFCFD0924B010E94171460939A0287
:1042000070939B0280939C0290939D0290914C012D
:104210008091A002911127C08F3F19F08F5F80938A
:10422000A00280914D018F7044E0849FC001112451
:1042300090914E019295969596959370892BE3EA0D
:10424000F2E0DF0190E02C912817A1F09F5F199612
:104250009430C9F790E020812F3F71F09F5F39962D
:104260009430C9F705C0882319F081508093A002CB
:1042700011E083C912E001C013E0E92EF12CCE9CBD
:10428000F001CF9CF00D1124E756FD4F9285981751
:1042900019F08287118610860E941714CE9CF001B7
:1042A000CF9CF00D1124E756FD4F638774878587F7
:1042B000968720914E0125FF02C032E001C030E018
:1042C0008091500187FD31608F778F3709F034601E
:1042D000CE9CF001CF9CF00D1124CF018F559D4F46
:1042E000E756FD4F3787309148013695308BDC011A
:1042F00017963C9132FF1FC030914F013A3A09F4B2
:10430000B7CF2F70A32FB0E044E0B595A7954A959D
:10431000E1F70A9FB0010B9F700D1124B4E62B9FAB
:10432000600D711D11243F70630F711D6059714044
:104330007187608709C02F7030E0322F222750919B
:104340004F01252B31872087E0919E02F0919F023B
:10435000309709F48DCF612F09958ACF0E941714E9
:10436000F60181809280A380B480DC01CB018819A2
:104370009909AA09BB0981329F4BA240B10508F4F3
:104380002FC9E0919E02F0919F02309719F064E0EE
:10439000C7010995D6018C918F3F09F421C90C936F
:1043A000F701118210821CC9BC01CD0134E0660FF7
:1043B000771F881F991F3A95D1F72091800130E02F
:1043C00040E050E00E94AC23B901E0C901A330CA2B
:1043D000F60102A341CAC092E702D092E802E0923D
:1043E000E902F092EA02DBCA8091DD029091DE02DE
:1043F00090931F0380931E0381E08093D70272CBBA
:1044000065E58EE492E00E94AB028BCC80915C0269
:10441000863009F0E4CC62E0DECCE0900703F09057
:104420000803F70182818F3409F0DDCC8CE791E03D
:104430000E944E050FED12E0D8016D917D918D9196
:104440009D918D0142E00E94CC160E945F05B2E072
:104450000F3E1B0789F7F701218D328D438D548D57
:10446000658976898789908D0E94D42342E00E94D5
:10447000CC160E946405B7CC8091C5028F5F853051
:1044800018F48093C50207CD1092C50284E0809392
:1044900057018FE980934D0180EC80934E019093FA
:1044A0004F018FE780935001F89410924C0185E002
:1044B00080934B0189E392E80E94E9097894EBCC60
:1044C000802F0E94BF06123009F0E7CDF701EC5BA8
:1044D000FE4F60826FE7C7011AC010E8160FC02EAA
:1044E000D12CF601EE0FFF1FEE52FD4F05A4F6A5ED
:1044F000E02D8181F601EC5BFE4F7F01823079F483
:10450000808181130CC0D7011C93612FC60149968D
:104510000E94AF060E9470060E94020ABECD62E0B1
:10452000802F0E94BF06EFCFFF920F931F93CF9370
:10453000DF93E1EBF1E01382128288EE93E0A0E0DA
:10454000B0E084839583A683B78384E191E091836F
:10455000808385EC90E09587848784EC90E0978752
:10456000868780EC90E0918B808B81EC90E0938B40
:10457000828B82EC90E0958B848B86EC90E0978B1D
:10458000868B118E128E138E148EEEE4F2E013825F
:10459000128284E291E091838083E4E5F2E080E29C
:1045A00094E09183808387EB93E09383828389E710
:1045B0009BE097838683EFE8F3E085E0808385E5E1
:1045C0008283EAE6F3E094E0F92EF0828283E5E468
:1045D000F3E093E090838283E0E2F3E002E0008383
:1045E0008283E2EDF2E010E8118786E4858FC6EC65
:1045F000D2E01B821A828CE291E09983888361E089
:104600008BE00E947C1361E08DE00E947C1361E0EE
:104610008AE00E947C1361E08AE00E944C1381E5ED
:104620008CBDEAE8F4E0E491E987E6E7F4E0E491A0
:10463000F0E0EE0FFF1FE859FB4F859194919B87A7
:104640008A8761E084E00E947C1360E0CE010E94D2
:10465000860788E088878D838BEF9FEFFC01319779
:10466000F1F7FC013197F1F70197F1F760E3CE0123
:104670000E94B0078BE496E40197F1F760E3CE0166
:104680000E94B00783E592E00197F1F760E3CE0165
:104690000E94B00760E2CE010E94B0076D816062A7
:1046A000CE010E94DB07FE826CE0CE010E94DB0798
:1046B000CE010E9406080F8366E0CE010E94DB0750
:1046C000E9E9F2E08BE09CE09683858317838FEF26
:1046D0008287838B848F85A38AEA9BE090939802DC
:1046E00080939702DF91CF911F910F91FF900895D2
:1046F000991B79E004C0991F961708F0961B881F34
:104700007A95C9F780950895AA1BBB1B51E107C094
:10471000AA1FBB1FA617B70710F0A61BB70B881F51
:10472000991F5A95A9F780959095BC01CD010895E0
:1047300097FB072E16F4009407D077FD09D00E944E
:10474000842307FC05D03EF4909581959F4F0895F2
:10475000709561957F4F0895A1E21A2EAA1BBB1B8D
:10476000FD010DC0AA1FBB1FEE1FFF1FA217B3073D
:10477000E407F50720F0A21BB30BE40BF50B661F53
:10478000771F881F991F1A9469F760957095809517
:1047900090959B01AC01BD01CF010895EE0FFF1F65
:1047A0000590F491E02D09945058BB27AA270E9448
:1047B000EC230C94DE2A0E94D02A38F00E94D72ADB
:1047C00020F039F49F3F19F426F40C94CD2A0EF40E
:1047D000E095E7FB0C94C72AE92F0E94EF2A58F3D3
:1047E000BA17620773078407950720F079F4A6F5D6
:1047F0000C94112B0EF4E0950B2EBA2FA02D0B016B
:10480000B90190010C01CA01A0011124FF27591B15
:1048100099F0593F50F4503E68F11A16F040A22F1B
:10482000232F342F4427585FF3CF4695379527958C
:10483000A795F0405395C9F77EF41F16BA0B620B8B
:10484000730B840BBAF09150A1F0FF0FBB1F661FD2
:10485000771F881FC2F70EC0BA0F621F731F841F15
:1048600048F4879577956795B795F7959E3F08F03B
:10487000B0CF9395880F08F09927EE0F97958795FD
:1048800008950E9455240C94DE2A0E94D72A58F0DD
:104890000E94D02A40F029F45F3F29F00C94C72AE7
:1048A00051110C94122B0C94CD2A0E94EF2A68F31C
:1048B0009923B1F3552391F3951B550BBB27AA27D9
:1048C00062177307840738F09F5F5F4F220F331F13
:1048D000441FAA1FA9F335D00E2E3AF0E0E832D0DB
:1048E00091505040E695001CCAF72BD0FE2F29D0DE
:1048F000660F771F881FBB1F261737074807AB07B0
:10490000B0E809F0BB0B802DBF01FF2793585F4F24
:104910003AF09E3F510578F00C94C72A0C94122B64
:104920005F3FE4F3983ED4F3869577956795B79506
:10493000F7959F5FC9F7880F911D9695879597F911
:104940000895E1E0660F771F881FBB1F621773078A
:104950008407BA0720F0621B730B840BBA0BEE1F9F
:1049600088F7E09508950E94BA246894B1110C94D8
:10497000122B08950E94F72A88F09F5798F0B92FBC
:104980009927B751B0F0E1F0660F771F881F991F84
:104990001AF0BA95C9F714C0B13091F00E94112BEA
:1049A000B1E008950C94112B672F782F8827B85FFA
:1049B00039F0B93FCCF3869577956795B395D9F7DC
:1049C0003EF490958095709561957F4F8F4F9F4FE6
:1049D00008950E94332A08F48FEF089516F00C947E
:1049E00043250C94CD2A68940C94C72A0E94F72A78
:1049F000A8F39923C1F3AEF3DF93CF931F930F93E3
:104A0000FF92C92FDD2788232AF02197660F771F91
:104A1000881FDAF720E030E040E85FEB9FE3883959
:104A200020F0803E38F021968F770E94D523E8E76A
:104A3000F0E004C00E94D523E5EAF0E00E94512591
:104A40008B01BE01EC01FB2E6F5771097595771F25
:104A5000880B990B0E94F82928E132E741E35FE3D4
:104A60000E946A2AAF2D9801AE01FF900F911F910D
:104A7000CF91DF910E94EC230C94DE2A0E94332A0E
:104A8000880B990B08959F3F31F0915020F4879542
:104A900077956795B795880F911D9695879597F9A6
:104AA0000895DF93CF931F930F93FF92EF92DF92BE
:104AB0007B018C01689406C0DA2EEF010E946A2AFD
:104AC000FE01E894A5912591359145915591A6F364
:104AD000EF010E94EC23FE019701A801DA9469F727
:104AE000DF90EF90FF900F911F91CF91DF9108958C
:104AF00081E090E0F8940C947F2BDC0101C06D9371
:104B000041505040E0F70895662777270C94C72757
:104B1000FC0188279927E89421912032E9F3293074
:104B200010F02E30C8F32B3241F02D3239F4689456
:104B300004C00E94BD25820F911D219120532A306F
:104B4000C0F31EF4909581959F4F0895FB01DC0101
:104B500002C005900D9241505040D8F70895FB01D6
:104B6000DC014150504030F08D910590801919F4CE
:104B70000020B9F7881B990B08957AE0979F902D34
:104B8000879F802D910D11240895AEE0B0E0EBECED
:104B9000F5E20C94472B0D891E898F89988D2EE0A4
:104BA0002C831A83098397FF02C080E090E8019765
:104BB0009E838D83AE01455E5F4F698D7A8DCE01F8
:104BC00001960E94F5254D815E8157FD0AC02F8117
:104BD0003885421753070CF49A01F801E20FF31FCE
:104BE00010822E96E4E00C94632BACE0B0E0EBEF87
:104BF000F5E20C94392B7C016B018A01FC011782D0
:104C00001682838181FFBDC1CE0101964C01F7015F
:104C10009381F60193FD859193FF81916F01882324
:104C200009F4ABC1853239F493FD859193FF8191ED
:104C30006F01853229F4B70190E00E945B29E7CF2C
:104C4000512C312C20E02032A0F48B3269F030F46A
:104C5000803259F0833269F420612CC08D3239F0F2
:104C6000803339F4216026C02260246023C028608C
:104C700021C027FD27C030ED380F3A3078F426FFE9
:104C800006C0FAE05F9E300D1124532E13C08AE057
:104C9000389E300D1124332E20620CC08E3221F448
:104CA00026FD6BC1206406C08C3611F4206802C05A
:104CB000883641F4F60193FD859193FF81916F0150
:104CC0008111C1CF982F9F7D9554933028F40C5FAC
:104CD0001F4FFFE3F9830DC0833631F0833771F046
:104CE000833509F05BC022C0F801808189830E5FA3
:104CF0001F4F44244394512C540115C03801F2E055
:104D00006F0E711CF801A080B18026FF03C0652DD5
:104D100070E002C06FEF7FEFC5012C870E94502921
:104D20002C0183012C852F77222E17C03801F2E049
:104D30006F0E711CF801A080B18026FF03C0652DA5
:104D400070E002C06FEF7FEFC5012C870E944529FC
:104D50002C012C852068222E830123FC1BC0832D6F
:104D600090E048165906B0F4B70180E290E00E9446
:104D70005B293A94F4CFF50127FC859127FE8191B8
:104D80005F01B70190E00E945B2931103A94F1E095
:104D90004F1A51084114510471F7E5C0843611F0DF
:104DA000893639F5F80127FF07C06081718182815A
:104DB00093810C5F1F4F08C060817181072E000C2A
:104DC000880B990B0E5F1F4F2F76722E97FF09C02D
:104DD00090958095709561957F4F8F4F9F4F20687C
:104DE000722E2AE030E0A4010E949329A82EA81870
:104DF00044C0853729F42F7EB22E2AE030E025C04A
:104E0000F22FF97FBF2E8F36C1F018F4883579F074
:104E1000B4C0803719F0883721F0AFC02F2F206140
:104E2000B22EB4FE0DC08B2D8460B82E09C024FFB5
:104E30000AC09F2F9660B92E06C028E030E005C05A
:104E400020E130E002C020E132E0F801B7FE07C007
:104E500060817181828193810C5F1F4F06C06081E8
:104E6000718180E090E00E5F1F4FA4010E949329A2
:104E7000A82EA818FB2DFF777F2E76FE0BC0372DAE
:104E80003E7FA51450F474FE0AC072FC08C0372D92
:104E90003E7E05C0BA2C372D03C0BA2C01C0B52CFC
:104EA00034FF0DC0FE01EA0DF11D8081803311F445
:104EB000397E09C032FF06C0B394B39404C0832F77
:104EC000867809F0B39433FD13C030FF06C05A2C26
:104ED000B31418F4530C5B18B32CB31468F4B70173
:104EE00080E290E03C870E945B29B3943C85F5CF3B
:104EF000B31410F43B1801C0312C34FF12C0B701B9
:104F000080E390E03C870E945B293C8532FF17C01C
:104F100031FD03C088E790E002C088E590E0B7016A
:104F20000CC0832F867859F031FF02C08BE201C09C
:104F300080E237FD8DE2B70190E00E945B29A51465
:104F400038F4B70180E390E00E945B295A94F7CFD0
:104F5000AA94F401EA0DF11D8081B70190E00E944E
:104F60005B29A110F5CF332009F451CEB70180E2BF
:104F700090E00E945B293A94F6CFF70186819781F1
:104F800002C08FEF9FEF2C96E2E10C94552BA0E02E
:104F9000B0E0EDECF7E20C943D2BEC017B016115E8
:104FA000710519F0DB018D939C938E010F5F1F4FEC
:104FB0007880872D90E00E942429892B11F0E80148
:104FC000F4CFBDE27B1205C00F5F1F4F7980C1E0B7
:104FD00008C0EBE27E1204C08E010E5F1F4F798085
:104FE000C0E06801F1E0CF1AD10843E050E06AEA7E
:104FF00074E0C6010E942D29892BF1F4680122E09A
:10500000C20ED11C45E050E065EA74E0C6010E9482
:105010002D29892B21F4680187E0C80ED11CE114E9
:10502000F10419F0D701CD92DC92C111FFC060E00C
:1050300070E080E89FE703C143E050E062EA74E07B
:10504000C6010E942D29892B51F4E114F10409F4C1
:10505000F2C00E5F1F4FF70111830083ECC068019F
:1050600060E070E0CB0100E010E0F601D0EDD70D7C
:10507000DA3058F52C2F2260622E2C2F2870C2FFB8
:1050800005C0211128C00F5F1F4F25C0222311F03A
:1050900001501109A5E0B0E09B01AC010E942E2B4C
:1050A0004B015C01880C991CAA1CBB1CC501B401F6
:1050B0006D0F711D811D911D6839A9E97A078A0755
:1050C000A9E19A0740F0C66005C0DE3F51F4C3FD78
:1050D00044C0C8606C2EBFEFCB1ADB0A7080C62DAF
:1050E000C4CF2D2F2F7D2531C1F540814D3211F4D4
:1050F000C06106C04B3221F0319621E030E006C09D
:105100003296D60111964C9122E030E0A0EDA40F2A
:10511000AA3018F0E21BF30B20C040E050E040380A
:10512000BCE05B075CF49A01220F331F220F331F90
:10513000420F531F440F551F4A0F511D3196DF0177
:1051400011972C91A0EDA20FAA3048F3C4FF03C021
:10515000519541955109040F151FC1FF07C0E11476
:10516000F10421F03197D701ED93FC930E94F629C9
:10517000C370C33019F06B017C0106C06B017C0168
:10518000F7FAF094F7F8F09420E030E0A901C701B5
:10519000B6010E94F129882309F445C017FF06C013
:1051A000119501951109C1ECD4E002C0C9EDD4E01C
:1051B0005E01B8E1AB1AB1084601BE2DAF2D90E2F9
:1051C000E92EF12C0E151F0584F0FE012591359175
:1051D00045915491B4018B2F9A2F0E94572A4B016D
:1051E000B82FA92F0E191F09EDCF2497F594E79436
:1051F000CA15DB0539F76401EB2EFA2E8E2D880FC8
:105200008F2D881F8F3F49F020E030E0A901C701B2
:10521000B6010E94F129811106C082E290E09093CC
:10522000F7038093F603C701B60109C060E070E0A0
:1052300080E89FEF04C060E070E080EC9FE7CDB7AE
:10524000DEB7EEE00C94592B91110C94C42A8032F5
:1052500019F089508550C8F70895FB01DC014150D1
:10526000504088F08D9181341CF08B350CF4805EB9
:10527000659161341CF06B350CF4605E861B611126
:1052800071F3990B0895881BFCCFFC0105906150C8
:1052900070400110D8F7809590958E0F9F1F08954C
:1052A000FC016150704001900110D8F780959095F5
:1052B0008E0F9F1F08950F931F93CF93DF93FB01D2
:1052C000238121FD03C08FEF9FEF28C022FF16C06E
:1052D00046815781248135814217530744F4A081C8
:1052E000B1819D012F5F3F4F318320838C932681B5
:1052F00037812F5F3F4F3783268310C0EB01092F83
:10530000182F0084F185E02D0995892BE1F68E8117
:105310009F8101969F838E83812F902FDF91CF9164
:105320001F910F910895FA01AA27283051F12031D9
:1053300081F1E8946F936E7F6E5F7F4F8F4F9F4F29
:10534000AF4FB1E03ED0B4E03CD0670F781F891F6B
:105350009A1FA11D680F791F8A1F911DA11D6A0F39
:10536000711D811D911DA11D20D009F468943F91EC
:105370002AE0269F11243019305D3193DEF6CF01EB
:105380000895462F4770405D4193B3E00FD0C9F7B1
:10539000F6CF462F4F70405D4A3318F0495D31FD1E
:1053A0004052419302D0A9F7EACFB4E0A695979571
:1053B000879577956795BA95C9F700976105710547
:1053C00008959B01AC010A2E069457954795379591
:1053D0002795BA95C9F7620F731F841F951FA01DEB
:1053E00008950E94332A08F481E00895E89409C0E2
:1053F00097FB3EF490958095709561957F4F8F4F08
:105400009F4F9923A9F0F92F96E9BB279395F6951D
:10541000879577956795B795F111F8CFFAF4BB0F9B
:1054200011F460FF1BC06F5F7F4F8F4F9F4F16C0FF
:10543000882311F096E911C0772321F09EE8872F89
:10544000762F05C0662371F096E8862F70E060E045
:105450002AF09A95660F771F881FDAF7880F9695BE
:10546000879597F90895990F0008550FAA0BE0E862
:10547000FEEF16161706E807F907C0F01216130616
:10548000E407F50798F0621B730B840B950B39F456
:105490000A2661F0232B242B252B21F408950A26BC
:1054A00009F4A140A6958FEF811D811D08950E94EA
:1054B0006A2A0C94DE2A0E94D02A38F00E94D72A49
:1054C00020F0952311F00C94C72A0C94CD2A1124B6
:1054D0000C94122B0E94EF2A70F3959FC1F3950F45
:1054E00050E0551F629FF001729FBB27F00DB11D68
:1054F000639FAA27F00DB11DAA1F649F6627B00DF8
:10550000A11D661F829F2227B00DA11D621F739FE0
:10551000B00DA11D621F839FA00D611D221F749FEE
:105520003327A00D611D231F849F600D211D822F35
:10553000762F6A2F11249F5750409AF0F1F088235C
:105540004AF0EE0FFF1FBB1F661F771F881F915089
:105550005040A9F79E3F510580F00C94C72A0C9447
:10556000122B5F3FE4F3983ED4F3869577956795C9
:10557000B795F795E7959F5FC1F7FE2B880F911DB3
:105580009695879597F9089599278827089597F90B
:105590009F6780E870E060E008959FEF80EC0895D9
:1055A00000240A9416161706180609060895002402
:1055B0000A9412161306140605060895092E03947C
:1055C000000C11F4882352F0BB0F40F4BF2B11F4F0
:1055D00060FF04C06F5F7F4F8F4F9F4F089557FD4F
:1055E0009058440F551F59F05F3F71F04795880F51
:1055F00097FB991F61F09F3F79F0879508951216E8
:1056000013061406551FF2CF4695F1DF08C0161693
:1056100017061806991FF1CF869571056105089444
:105620000895E894BB2766277727CB0197F908955B
:10563000F999FECF92BD81BDF89A992780B508955A
:10564000262FF999FECF1FBA92BD81BD20BD0FB69E
:10565000F894FA9AF99A0FBE019608950E94702B59
:10566000A59F900DB49F900DA49F800D911D1124B6
:1056700008952F923F924F925F926F927F928F92F6
:105680009F92AF92BF92CF92DF92EF92FF920F93D1
:105690001F93CF93DF93CDB7DEB7CA1BDB0B0FB6DB
:1056A000F894DEBF0FBECDBF09942A883988488898
:1056B0005F846E847D848C849B84AA84B984C8842E
:1056C000DF80EE80FD800C811B81AA81B981CE0F25
:1056D000D11D0FB6F894DEBF0FBECDBFED0108950A
:1056E000A29FB001B39FC001A39F700D811D112423
:1056F000911DB29F700D811D1124911D0895F89484
:02570000FFCFD9
:105702003D113D11000000020202010504040406DD
:1057120000000000CA1004189310711085101111B6
:1057220000000000AB02041800000000A0020418F0
:10573200B807B0079C076E616E00696E66006F76EF
:0457420066002E00CF
:00000001FF
