:100000000C944F020C942B200C9458200C947D02DD
:100010000C947D020C947D020C947D020C94CB26F2
:100020000C947D020C947D020C947D020C947D0254
:100030000C947D020C947D020C947D020C947D0244
:100040000C9485200C947D020C94E1220C941523D1
:100050000C947D020C947D020C947D020C947D0224
:100060000C947D020C947D0208000000BE9224498D
:10007000123EABAAAA2ABECDCCCC4C3E00000080DA
:10008000BEABAAAAAA3E00000000BF000000803F4D
:100090000000000000084178D3BB4387D1133D190D
:1000A0000E3CC3BD4282AD2B3E68EC8276BED98F3A
:1000B000E1A93E4C80EFFFBE01C4FF7F3F0000007E
:1000C00000007265626F6F7400636F6E666967002F
:1000D0007365743F74743D007365743F666E3D00D4
:1000E0007365743F616C3D007365743F70630073AA
:1000F00065743F706E007365743F7069640073656A
:10010000743F706F3D007365743F6C643D007365B0
:10011000743F6C623D007365743F73703D00484DE1
:100120004C442C00484D504F00484D504400484D21
:10013000504E00484D524D00484D50432C00484D04
:10014000414C00484D464E2C003230313231303077
:100150003442004865617465724D657465722C00A7
:10016000554349442C00484D4C422C00484D5355B2
:100170002C000A050A050A32484D4C472C000EF0A7
:10018000E10006F00000008040000040400AD7A3D4
:100190003B0000A04000327F7F7F7F460A64005012
:1001A000726F626520200000000000000100D8FF8F
:1001B00038FF00002CE17139117A7839B6AE073476
:1001C00000401C462D204E6F205069742050726FE5
:1001D0006265202D00252D313273253364DF0050F8
:1001E00069743A253364DF2563202563253375253B
:1001F000252563005069743A253364DF2563204C5C
:100200006964253375002A2A20414C41524D20480B
:10021000494748202A2A002A2A20414C41524D2091
:100220004C4F5720202A2A00027919050379190515
:100230000479190505791901066919000838190AA0
:100240001207190A16EA170A17EA170A18EA170A0C
:1002500019EA170A0CD3180A0DD3180A0ED3180A74
:100260000FD3180A10AB180A1181180A1360180A64
:100270001532180A14FF170A1BA8170A1F36170A87
:100280002B81161400000000022803020208020459
:1002900004032804030208030402042802040208D9
:1002A00004040305280205020805040408210208C5
:1002B0000212122102120214142102140215152135
:1002C0000215020C0C21020C020D0D21020D020E72
:1002D0000E21020E020F0F21020F02101021021038
:1002E000021111210211021313210213020800004E
:1002F000004C6F7720416C726D20253564DF2563DB
:10030000004869676820416C726D20253464DF25E0
:1003100063004C6F7720616C61726D3F200048690B
:10032000676820616C61726D3F20004E6F2000593C
:100330006573002533642525004C434420627269AF
:100340006768746E65737300737065656420253328
:10035000642525004D6178696D756D206175746F38
:100360002066616E00526573657420636F6E666906
:10037000673F00253364207365636F6E6473004CC0
:100380006964206F70656E2074696D657200253335
:100390006425252062656C6F7720736574004C6955
:1003A00064206F70656E206F6666736574004F66BB
:1003B0006673657420253464DF25630076207072CF
:1003C0006F626520636F6E6669672076004D616EAF
:1003D00075616C2066616E206D6F64650025336405
:1003E000DF2563005365742074656D7065726174F8
:1003F0007572653A00484D52462C3235352C000056
:10040000000000240027002A00000000002500282A
:10041000002B000000000023002600290004040433
:10042000040404040402020202020203030303039D
:10043000030102040810204080010204081020017A
:10044000020408102000000007000201000003045D
:1004500006000000000000000002494E46494E49D7
:1004600054594E414ECDCCCC3D0AD7233C17B7D181
:100470003877CC2B329595E6241FB14F0A00002027
:10048000410000C84200401C4620BCBE4CCA1B0EA6
:100490005AAEC59D7400D10CFC19051D7B24112496
:1004A0001FBECFEFD8E0DEBFCDBF14BEE0E6F0E068
:1004B00088E18083108211E0A0E0B1E0E6E4F9E594
:1004C00002C005900D92AE32B107D9F713E0AEE24B
:1004D000B1E001C01D92A939B107E1F714E0CEE9FE
:1004E000D4E004C02297FE010E945B2CC639D107DC
:1004F000C9F70E945A0C0C94A12C0C94000066279A
:1005000077270C943605FC0188279927E8942191D8
:100510002032E9F3293010F02E30C8F32B3241F0AD
:100520002D3239F4689404C00E942003820F911D7B
:10053000219120532A30C0F31EF4909581959F4F4E
:100540000895FB01DC0102C005900D92415050401E
:10055000D8F70895FB01DC014150504030F08D91F7
:100560000590801919F40020B9F7881B990B08959C
:10057000FB01DC0102C001900D9241505040D8F7C0
:100580000895DC0101C06D9341505040E0F708959B
:10059000FC018191861721F08823D9F799270895C6
:1005A0003197CF010895A0E0B0E0E9EDF2E00C94BE
:1005B000742C7C01EB018A01690109C0CE012196EE
:1005C000F6010995F70181937F0101501040011553
:1005D0001105A1F7CDB7DEB7E8E00C94902CA0E0B0
:1005E000B0E0E5EFF2E00C94742CEC017B018A01A1
:1005F000690109C0CE012196F70161917F01F601E1
:1006000009950150104001151105A1F7CDB7DEB7CE
:10061000E8E00C94902CDF92EF92FF920F931F93DF
:10062000D72E7A018C01FA010995C80101966D2D2A
:10063000F70109951F910F91FF90EF90DF900895BA
:100640007AE0979F902D879F802D910D112408951A
:10065000AEE0B0E0EEE2F3E00C94782C0D891E8958
:100660008F89988D97FF02C080E090E801979E8364
:100670008D831A8309838EE08C839E01255E3F4F14
:10068000CE010196698D7A8DA9010E9459034D8191
:100690005E8157FD0AC02F813885421753070CF43D
:1006A0009A01020F131FF80110822E96E4E00C94B9
:1006B000942CABE0B0E0EFE5F3E00C946A2C3C0145
:1006C0002B015A01FC0117821682838181FD03C030
:1006D0006FEF7FEFC6C19AE0892E1E010894211C9E
:1006E000311CF3012381F20123FD859123FF8191C8
:1006F0002F01882309F4B2C1853239F423FD859195
:1007000023FF81912F01853229F490E0B3010E94EB
:10071000C406E7CF982FFF24EE249924FFE1FF15AC
:10072000D0F09B3269F09C3228F4903259F0933229
:1007300091F40EC09D3249F0903369F441E024C039
:1007400052E0F52A84E0F82A28C098E0F92A25C06A
:10075000E0E1FE2A22C0F7FC29C0892F80538A30AD
:1007600070F4F6FE05C0989C902C1124980E15C0CC
:10077000E89CE02C1124E80EF0E2FF2A0EC09E3225
:1007800029F4F6FC6BC140E4F42A07C09C3619F446
:1007900050E8F52A02C0983649F4F20123FD9591FC
:1007A00023FF91912F01992309F0B8CF892F855408
:1007B000833018F08052833038F444E050E0A40EC7
:1007C000B51E5FE359830FC0933631F0933779F04C
:1007D000933509F056C020C0F5018081898342E03D
:1007E00050E0A40EB51E610101E010E012C0F50159
:1007F000C080D180F6FC03C06FEF7FEF02C0692D8F
:1008000070E042E050E0A40EB51EC6010E94B90699
:100810008C015FE7F52214C0F501C080D180F6FCA1
:1008200003C06FEF7FEF02C0692D70E042E050E03F
:10083000A40EB51EC6010E94AE068C0150E8F52A32
:10084000F3FE07C01AC080E290E0B3010E94C40624
:10085000EA948E2D90E008171907A8F30EC0F60150
:10086000F7FC8591F7FE81916F0190E0B3010E9442
:10087000C406E110EA94015010400115110579F702
:10088000EAC0943611F0993669F5F7FE08C0F50113
:10089000208131814281538184E090E00AC0F501DA
:1008A000808191819C01442737FD4095542F82E03F
:1008B00090E0A80EB91E9FE6F92257FF09C0509597
:1008C0004095309521953F4F4F4F5F4FE0E8FE2A0E
:1008D000CA01B901A1012AE030E00E94F006D82E39
:1008E000D21840C0953729F41F2D1F7E2AE030E032
:1008F0001DC01F2D197F9F3661F0903720F4983569
:1009000009F0ACC00FC0903739F0983709F0A6C095
:1009100004C028E030E00AC0106114FD146020E13A
:1009200030E004C014FD166020E132E017FF08C07B
:10093000F501608171818281938144E050E008C0BB
:10094000F50180819181BC0180E090E042E050E0BF
:10095000A40EB51EA1010E94F006D82ED2188FE772
:10096000F82EF122F6FE0BC05EEFF522D91438F412
:10097000F4FE07C0F2FC05C08FEEF82202C01D2D68
:1009800001C0192DF4FE0DC0FE01ED0DF11D808199
:10099000803319F499EEF92208C01F5FF2FE05C0FA
:1009A00003C08F2D867809F01F5F0F2DF3FC14C054
:1009B000F0FE0FC01E1510F09D2C0BC09D2C9E0C40
:1009C000911A1E2D06C080E290E0B3010E94C40679
:1009D0001F5F1E15C0F304C01E1510F4E11A01C0FC
:1009E000EE2404FF0FC080E390E0B3010E94C40630
:1009F00002FF1DC001FD03C088E790E00EC088E53E
:100A000090E00BC0802F867891F001FF02C08BE24E
:100A100001C080E2F7FC8DE290E0B3010E94C406C1
:100A200006C080E390E0B3010E94C4069A94D914F2
:100A3000C0F3DA94F101ED0DF11D808190E0B30176
:100A40000E94C406DD20A9F706C080E290E0B30151
:100A50000E94C406EA94EE20C1F743CEF3016681FA
:100A60007781CB012B96E2E10C94862CA0E0B0E0DC
:100A7000ECE3F5E00C94702CEC015B016115710561
:100A800019F0FB0191838083F9908F2D90E00E94F3
:100A90005F2C892BC9F7FDE2FF1621F4F990EE24B3
:100AA000E39405C02BE2F21609F4F990EE248E01CE
:100AB00001501040C8016AE574E043E050E00E9434
:100AC0009606892B01F58E010E5F1F4FC8016DE55B
:100AD00074E045E050E00E949606892B19F48E01DF
:100AE000095F1F4FA114B10419F0F50111830083B0
:100AF000E0FC04C070E090E080E814C070E090E09A
:100B000080E86FEF08C1C80162E674E043E050E09E
:100B10000E949606892B69F4A114B10429F470E0AF
:100B200090E080EC6FE7F7C02296F501D183C08397
:100B3000F6CF8824992440E050E060E070E0EF2D8B
:100B4000E053EA30A0F5F2E0EF2A8E2D90E09C0110
:100B500028703070E2FE06C0232B79F50894811CC2
:100B6000911C2BC0232B19F0089481089108DB01FC
:100B7000CA0112E0880F991FAA1FBB1F1A95D1F74F
:100B8000480F591F6A1F7B1F440F551F661F771F91
:100B90004E0F511D611D711D483929E9520729E980
:100BA000620729E1720748F084E0E82A06C0EE3FB8
:100BB00031F4E3FC39C098E0E92AF990C0CFE5337D
:100BC00011F0E53189F529912D3219F4E0E1EE2A91
:100BD00005C02B3219F081E090E003C0299182E03A
:100BE00090E0E22FE053EA3018F0C81BD90B1CC08C
:100BF00020E030E0FCE020383F075CF4C901880FBA
:100C0000991F880F991F280F391F220F331F2E0F8E
:100C1000311DE991E053EA3068F3E4FE03C03095FA
:100C200021953F4F820E931ECE2CDD24E1FE07C09E
:100C3000A114B10421F02197F501D183C083CB0128
:100C4000BA010E943F2A7B018C01F3E0CF22DD2410
:100C500023E0C216D10421F417FB109517F9109563
:100C600057016801C801B70120E030E040E050E0E2
:100C70000E94A229882309F44AC097FE0DC029E7E3
:100C8000E22E24E0F22E9094819491089394C0E295
:100C9000D0E000E010E012C091E9E92E94E0F92ED6
:100CA000F6CFF7012591359145915491C601B501D3
:100CB0000E943A2B5B016C018C1A9D0A8C169D06D2
:100CC00084F7D595C7950F5F1F4F0630110529F0A2
:100CD0008CEF9FEFE80EF91EF1CFC501D6017C0124
:100CE0008D018C2D880F8D2D881F8F3F51F0C601EF
:100CF000B50120E030E040E050E00E94A2298823C6
:100D000031F482E290E090939803809397037E2DD4
:100D10009F2D802F612F272F392F482F562FB90154
:100D2000CA01CDB7DEB7ECE00C948C2CFB01DC01E2
:100D30004150504088F08D9181341CF08B350CF47B
:100D4000805E659161341CF06B350CF4605E861B2F
:100D5000611171F3990B0895881BFCCFFC0105907C
:100D6000615070400110D8F7809590958E0F9F1FAD
:100D70000895FC016150704001900110D8F78095F2
:100D800090958E0F9F1F08950F931F93CF93DF931E
:100D90008C01EB018B8181FF1BC082FF0DC02E8176
:100DA0003F818C819D812817390764F4E881F9819E
:100DB0000193F983E88306C0E885F985802F0995BA
:100DC000892B31F48E819F8101969F838E8302C08F
:100DD0000FEF1FEFC801DF91CF911F910F91089581
:100DE000FA01AA27283051F1203181F1E8946F935C
:100DF0006E7F6E5F7F4F8F4F9F4FAF4FB1E03ED002
:100E0000B4E03CD0670F781F891F9A1FA11D680F9F
:100E1000791F8A1F911DA11D6A0F711D811D911DD2
:100E2000A11D20D009F468943F912AE0269F112447
:100E30003019305D3193DEF6CF010895462F4770AB
:100E4000405D4193B3E00FD0C9F7F6CF462F4F7006
:100E5000405D4A3318F0495D31FD4052419302D064
:100E6000A9F7EACFB4E0A69597958795779567950A
:100E7000BA95C9F700976105710508959B01AC010A
:100E80000A2E06945795479537952795BA95C9F731
:100E9000620F731F841F951FA01D0895A62FB0E039
:100EA000FC01EA0FFB1F14824115510571F4FD018D
:100EB000EE0FFF1FE80FF91F0190F081E02DF7FD05
:100EC0000AC0442755274E1B5F0BAA0FBB1FA80F54
:100ED000B91F4D935C930895FC01608380E090E01E
:100EE000A0ECBFE7868B978BA08FB18F828F938FFB
:100EF000A48FB58F0895FC0164831382128211823E
:100F000080E090E0A0ECBFE7868B978BA08FB18F3D
:100F1000828F938FA48FB58F0895FC0161157105A1
:100F200019F4138212820EC08181882319F473830D
:100F3000628308C082819381009721F0860F971FFA
:100F40009383828381818F5F81830895EF92FF92E3
:100F50000F931F93CF93DF93EC017A018B01CB01A9
:100F6000BA0120E030E040EA51EC0E94A2291816B4
:100F700054F4C801B70120E030E04AEF53E40E9486
:100F8000F12A18164CF480E090E0A0ECBFE78E8BBD
:100F90009F8BA88FB98F1BC080914001863499F434
:100FA000C801B70126E636E646EE5FE30E943A2B1B
:100FB00020E030E040E052E40E943E296E8B7F8BBF
:100FC000888F998F04C0EE8AFF8A088F198FDF916E
:100FD000CF911F910F91FF90EF900895FC016083D6
:100FE00080E8828786E4828B80E090E0A0ECBFE717
:100FF00087A790ABA1ABB2AB0895DC0120E0569679
:10100000ED91FC9157978481861709F421E0589659
:10101000ED91FC9159978481861709F42F5F5A96B8
:10102000ED91FC915B978481861709F42F5F5C96A4
:10103000ED91FC915D978481861709F42F5F822FD3
:1010400090E008951F93CF93DF93EC01E88DF98D25
:1010500026893789408D518DCA01B9010E949D2B87
:101060008823C9F0EA8DFB8D26893789408D518D03
:10107000CA01B9010E949D2B882369F0EC8DFD8D7A
:1010800026893789408D518D10E0CA01B9010E942F
:101090009D2B882309F411E0812FDF91CF911F91BF
:1010A0000895FC018485958594AB83AB16820895E1
:1010B000FC01708767831682118680E090E0A0E0D3
:1010C000B0E086879787A08BB18B14AA13AA0895E6
:1010D000FC0181E0818777FF02C0118208956536A7
:1010E00071051CF084E68183089561830895FC01F5
:1010F000CB016E31710510F48EE190E09587848705
:101100000895CF93DF93EC01E62FF0E0EE0FFF1F81
:10111000EE0FFF1FE80FF91F278F30A341A352A343
:10112000623041F480E090E0A0E0B0E08E879F87DD
:10113000A88BB98BDF91CF910895FC01663421F023
:10114000623511F0633409F4628B08951F93182FF0
:101150008091BA02882351F481E08093BA02109200
:10116000BB0283E693E064E20E9442248091BB02CA
:1011700081278093BB0283E693E0612F0E94422483
:101180001F910895BF92CF92DF92EF92FF920F933B
:101190001F93CF93DF936C01FC016781708586EB11
:1011A00092E04AE050E00E94DF258CE20E94A6080F
:1011B000E601BB24EE89FF89E688F788008D118D52
:1011C000C801B701A80197010E949D2B882349F40B
:1011D00086EB92E0B801A70121E030E00E94902662
:1011E00003C085E50E94A6088CE20E94A608B3947D
:1011F0002296F4E0BF16F1F686EB92E0F6016181EB
:101200004AE050E00E948D258CE20E94A608F6017B
:1012100067A570A981A992A90E940E2A9B01AC0121
:1012200086EB92E0B9014AE050E00E94DF258CE2B3
:101230000E94A608F60163A974A986EB92E04AE031
:1012400050E00E947C25DF91CF911F910F91FF907C
:10125000EF90DF90CF90BF900895AF92BF92CF9262
:10126000DF92EF92FF920F931F93CF93DF93EC01E6
:101270006981662309F469C08A819B8170E00E94BC
:10128000F52B19826115710509F457C080E090E0D3
:101290000E943F2A9B01AC0160E078EF8FEF95E45C
:1012A0000E94A62920E030E040E85FE30E943D294B
:1012B0009B01AC016A897B898C899D890E94A62942
:1012C0007B018C01F801D090400182E5D81609F02D
:1012D000A4C08091440190914501C817D90709F431
:1012E0009CC0C701D8018E8B9F8BA88FB98FCEC0B1
:1012F000C801B70120E030E04AEF53E40E94F12A30
:101300001816DCF086E4D81699F4C801B70126E671
:1013100036E646EE5FE30E943A2B20E030E040E004
:1013200052E40E943E296E8B7F8B888F998F0DC06F
:10133000EE8AFF8A088F198F08C080E090E0A0EC49
:10134000BFE78E8B9F8BA88FB98FEE88FF88088DA3
:10135000198DC801B701A80197010E949D2B882310
:1013600009F058C06D81772767FD7095872F972FFB
:101370000E94412A9B01AC01C801B7010E943E298D
:101380007B018C016E8B7F8B888F998FAA8CBB8C95
:10139000CC8CDD8CC601B501A60195010E949D2B68
:1013A000882329F0EA8EFB8E0C8F1D8F16C0C80192
:1013B000B701A60195010E943D292DEC3CEC4CE4BF
:1013C0005DE30E943A2B9B01AC01C601B5010E946E
:1013D0003E296A8F7B8F8C8F9D8F6E897F89888D48
:1013E000998D0E940E2A2E8D3F8D121613062CF415
:1013F0002617370714F081E08AA328A139A1121615
:1014000013060CF043C0621773070CF43FC081E071
:101410008BA33CC01AA21BA239C0CF010E94FA2A9A
:101420007B018C012E853F85488959890E943A2B82
:10143000A80197010E943A2B2A853B854C855D8542
:101440000E943E29A80197010E943A2B2E813F81DC
:10145000488559850E943E299B01AC0160E070E0FF
:1014600080E89FE30E94A62923E333E948E853E498
:101470000E943D297B018C0120E030E040EA51ECE4
:101480000E94A22918160CF058CF32CFDF91CF91CD
:101490001F910F91FF90EF90DF90CF90BF90AF9092
:1014A0000895FF920F931F93CF93DF93EC0100E019
:1014B00010E0F0E4FF2E88810E9479219C010197C1
:1014C0008E5F934068F4020F131FFA94A1F79801FE
:1014D000E3E036952795EA95E1F72115310519F4F2
:1014E0001B821A820BC08981882331F08A819B81FB
:1014F000009721F0280F391F3B832A8389818F5F52
:101500008983DF91CF911F910F91FF9008959F9252
:10151000AF92BF92CF92DF92EF92FF920F931F9301
:10152000CF93DF93EC010E94CD209B01AC018A8117
:101530009B81B901681B790B6D37710508F46CC18B
:101540002A833B834C835D836E018E01FF24D80187
:101550005696ED91FC9157978481813019F4CF0113
:101560000E94510AF3940E5F1F4FB4E0FB1679F707
:101570008A858F5F8A87883008F44EC110E0F601B3
:10158000868997890E942D091F5F42E050E0C40EB2
:10159000D51E1430A1F78985882309F0DEC0998013
:1015A0001982EE89FF89A688B788C08CD18CC601C4
:1015B000B501A60195010E949D2B882309F07AC0F0
:1015C0008BA99CA9892B09F075C06F817885882724
:1015D00077FD8095982F0E94412AA60195010E94CF
:1015E0003D297B018C0120E030E040E050E00E948A
:1015F000F12A18161CF48B89981660F0C801B701FF
:1016000020E030E040E050E00E94A2298823B4F4BA
:101610009920A1F0C801B7012FA138A549A55AA565
:101620000E943A2B9B01AC016E857F858889998940
:101630000E943E296E877F87888B998BC801B701EE
:101640002BA13CA14DA15EA10E943A2B2F8D38A168
:1016500049A15AA10E943E292E853F854889598972
:101660000E943E297B018C01EE89FF89628D738D7A
:10167000848D958DA60195010E943D292BA53CA541
:101680004DA55EA50E943A2B9B01AC01C801B70194
:101690000E943E290E940E2A9B01AC01EB898E2FED
:1016A00090E06817790714F0E98304C01216130656
:1016B0000CF46983EE89FF8966897789808D918D25
:1016C0000E940E2AAB016F81788546175707C4F038
:1016D0008C859D852BA93CA9821B930B4F9780F08D
:1016E0008E81882351F481E08E8380E090E0A0E039
:1016F000B0E08E879F87A88BB98B1CAA1BAA2DC030
:101700008BA99CA9009721F001979CAB8BAB25C0BE
:101710008E81882311F19B01241B350B84E690E018
:10172000DC012A9FC0012B9F900D3A9F900D112440
:101730000E94092C8E8D90E06817790774F06FA5D0
:1017400078A989A99AA90E940E2A6A3571052CF4F4
:101750008C859D859CAB8BAB1E82698170E080E09F
:1017600090E00E943F2A5B016C01EFA4F8A809A950
:101770001AA9C801B701A80197010E949D2B8823CF
:1017800029F0AFA6B8AAC9AADAAA16C0C601B5013F
:10179000A80197010E943D2929E838E848E05CE368
:1017A0000E943A2B9B01AC01C801B7010E943E295F
:1017B0006FA778AB89AB9AAB99812C89921710F0FF
:1017C0001B8616C03B858AE0989FC0011124622FBA
:1017D00070E00E94F52B832F90E08617970708F0A2
:1017E00020E0832F8F5F8B878A3008F01B86922F33
:1017F0008D89882319F084E6891B982F8FEF989F95
:10180000C001112464E670E00E94F52B88810E94DB
:101810009B211A8681E001C080E0DF91CF911F916A
:101820000F91FF90EF90DF90CF90BF90AF909F907F
:101830000895CF93DF93FC01DB011D968C911D97DA
:1018400084831E968C911E9785839F012A5F3F4F4C
:10185000AB014B5E5F4F80E1EA010990AE01E90107
:1018600009929E018150C1F71F968D919C915097CE
:1018700012A2009741F4268D378D37FD06C08827C8
:101880009927821B930B978F868F51966D917C9130
:10189000529713A26115710541F480A191A197FDA2
:1018A00006C066277727681B790B71A360A3DF91B9
:1018B000CF9108950E943E210E94E4110E94D1150B
:1018C000FDCF9C01F999FECF32BD21BDF89A80B5BC
:1018D00008959C01F999FECF1FBA32BD21BD60BDAC
:1018E0000FB6F894FA9AF99A0FBE0895982F84309B
:1018F000D8F4E82FF0E0EE0FFF1FEC5BFE4F0190F5
:10190000F081E02D6583F999FECF1FBA85E2989F9B
:10191000C0011124825B90E092BD81BD60BD0FB615
:10192000F894FA9AF99A0FBE089577FF03C060E021
:1019300070E005C06536710514F064E670E0813032
:1019400071F0813018F0823059F51AC0262F60935B
:101950004201F999FECF1FBA8EE190E008C0262F10
:1019600060934101F999FECF1FBA8FE190E092BDDB
:1019700081BD20BD0FB6F894FA9AF99A0FBE08956A
:10198000262F60934301F999FECF1FBA80E290E0C1
:1019900092BD81BD20BD0FB6F894FA9AF99A0FBE98
:1019A000089580E791E065E00E946C0784E991E08A
:1019B00064E00E946C0788EB91E063E00E946C0792
:1019C0008CED91E062E00E946C078EE291E063E0B2
:1019D0000E94EE0783E691E064E042E00E94241E4C
:1019E00083E09DE0909306028093050280E8809357
:1019F0000702EAE0F2E08FEF8083389692E0EA3265
:101A0000F907D1F708958F929F92AF92BF92CF922C
:101A1000DF92EF92FF920F931F93CF93DF937C019E
:101A20006B0104E411E038E2A32E32E0B32E26E08D
:101A3000822E912C86229722F801C081D1818C813F
:101A4000823019F5F50190819F3721F0F7018281ED
:101A50009817D9F481149104C1F0F7016081718164
:101A6000878183FF28C06115710529F180E090E02E
:101A70000E943F2A20E030E040E251E40E94A62983
:101A8000AB01BC01CE010E94A6070E5F1F4F089458
:101A9000A11CB11CF1E00C341F0771F6F701118293
:101AA0001082F3E0CF22DD24CD2859F080E092E0CF
:101AB0000E949C1B06C0660F771FCE010E948D07F7
:101AC000E4CFDF91CF911F910F91FF90EF90DF90C6
:101AD000CF90BF90AF909F908F900895EF92FF921C
:101AE0001F93CF93DF93EC017B0110E013C08C3286
:101AF00019F41F5F21960EC0CE010E948302BC0123
:101B0000812FF701099501C021968881882311F062
:101B10008C32D1F78881882351F7DF91CF911F91C3
:101B2000FF90EF900895CF93DF93EC01FE01219693
:101B30008491882319F00E94A608F8CFDF91CF91F5
:101B4000089583E693E06AE20E9442246091BB021A
:101B500062956F706A3010F4605D01C0695C83E665
:101B600093E00E9442246091BB026F706A3010F4CF
:101B7000605D01C0695C83E693E00E94422483E6D5
:101B800093E06AE00E9442241092BA0208950F93F3
:101B90001F938EE191E00E94930D06EB12E0C801C5
:101BA00060914C014AE050E00E948D258CE20E9439
:101BB000A60860913A0170913B01C8014AE050E0EB
:101BC0000E947C250E94A10D1F910F9108950F93F3
:101BD0001F93CF93DF9383E391E00E94930DC4E4BE
:101BE000D1E008E212E08CE20E94A608E881F981C7
:101BF0008481823041F486EB92E0F80160814AE012
:101C000050E00E948D2522960F5F1F4FF1E0CC34EB
:101C1000DF0749F70E94A10DDF91CF911F910F912E
:101C200008950F931F9383E491E00E94930D06EBB8
:101C300012E0C801609142014AE050E00E948D2507
:101C40008CE20E94A608C801609141014AE050E080
:101C50000E948D258CE20E94A608C8016091430174
:101C60004AE050E00E948D250E94A10D1F910F9126
:101C70000895282F80934101F999FECF1FBA8FE173
:101C800090E092BD81BD20BD0FB6F894FA9AF99A02
:101C90000FBE0E94110E089580E691E00E94930D00
:101CA00083E591E00E94930D89E491E00E94930DF9
:101CB0000E94A10D089586E691E00E94930D86EBA7
:101CC00092E060916F014AE050E00E948D250E94F1
:101CD000A10D0895CF93DF9384E291E00E94930DCC
:101CE000C4E4D1E08CE20E94A608E991F9916581F3
:101CF000772767FD709586EB92E04AE050E00E94FE
:101D0000DF2581E0CC34D80769F70E94A10DDF916F
:101D1000CF910895982F8430D8F4E82FF0E0EE0F9B
:101D2000FF1FEC5BFE4F0190F081E02D6583F99978
:101D3000FECF1FBA85E2989FC0011124825B90E01C
:101D400092BD81BD60BD0FB6F894FA9AF99A0FBEA4
:101D50000E946A0E08950F931F93CF93DF938EE333
:101D600091E00E94930D04E411E0F801C081D1815B
:101D70008CE20E94A6086E8D7F8D86EB92E04AE091
:101D800050E00E94DF258AA1882319F08CE40E948C
:101D9000A6088CE20E94A60868A179A186EB92E0D1
:101DA0004AE050E00E94DF258BA1882319F088E4E7
:101DB0000E94A6080E5F1F4FF1E00C341F07A9F622
:101DC0000E94A10DDF91CF911F910F910895982F3F
:101DD000843060F485E2989FC0011124805C90E01B
:101DE0004DE050E029E63CE00E94EF020895CF93D9
:101DF000DF9389E291E00E94930DCDE4D1E08CE283
:101E00000E94A608499159916991799186EB92E0D7
:101E100028E030E00E94902681E0CD35D80779F7A0
:101E20000E94A10DDF91CF9108959F92AF92BF9232
:101E3000CF92DF92EF92FF920F931F93CF93DF9396
:101E4000182F88E391E00E94930D86EB92E0612FBA
:101E50004AE050E00E948D258CE20E94A608E12F06
:101E6000F0E0EE0FFF1FEC5BFE4FA080B180E501BC
:101E7000CC24EE80FF80088519859924C801B7011C
:101E800020E030E040E050E00E94A229882334F4B2
:101E90009924939417FB109517F91095DD240BC026
:101EA000DA94C801B70120E030E040E251E40E943A
:101EB0003A2B7B018C01C801B70120E030E040E8FB
:101EC0005FE30E94A22987FDEBCF0BC0D394C8012A
:101ED000B70120E030E040E251E40E94A6297B01F6
:101EE0008C01C801B70120E030E040E251E40E94DB
:101EF000F12A87FFEBCF992021F017FB109517F9F6
:101F0000109586EB92E0B801A70127E030E00E942F
:101F1000902685E60E94A6086D2D772767FD7095AF
:101F200086EB92E04AE050E00E94DF258CE20E94BE
:101F3000A608C394249684E0C81609F09ACF86EBCD
:101F400092E0F50164814AE050E00E948D250E94F4
:101F5000A10DDF91CF911F910F91FF90EF90DF9036
:101F6000CF90BF90AF909F9008958EE291E062E095
:101F70000E94FD07892B29F080E092E063E00E9437
:101F8000FF1B0895E82FF0E0E85DFD4F6083F999AD
:101F9000FECF1FBA90E0499692BD81BD60BD0FB6DD
:101FA000F894FA9AF99A0FBE0E94E70D0E94B50FB5
:101FB0000895EF92FF920F931F93DF93CF9300D07A
:101FC000CDB7DEB7AB01F82EF694EF2DF0E0EE0FB3
:101FD000FF1FEC5BFE4F00811181EE24E394E822A9
:101FE000C8014E966E2D0E944E0783E08F1500F1BA
:101FF0008E2D90E09C01215F3F4F220F331F020F77
:10200000131FF801208131813A832983880F991F9A
:1020100025E2F29E90011124820F815B90E0BE01C7
:102020006F5F7F4F42E050E029E63CE00E94EF0204
:102030000F900F90CF91DF911F910F91FF90EF9034
:10204000089580916D0260E070E00E94D90F0E94B7
:10205000AB0E08958CE691E00E94930D8EE291E024
:102060000E94C2080E94A10D089589E061E00E94CB
:10207000FB2189E061E00E943A2264E670E080E0A2
:1020800090E00E94DB2089E060E00E943A2262E357
:1020900070E080E090E00E94DB200895843070F4CE
:1020A00065E2869FB0011124605C85E792E070E0F4
:1020B0004DE050E021E63CE00E94D30208951F93DA
:1020C0008EE291E00E94930D10E0812F0E944E104D
:1020D0008CE20E94A60886EB92E065E772E00E941F
:1020E000F2251F5F143089F70E94A10D1F910895FA
:1020F000CF93DF93EC011816190674F482E090E098
:10210000BE0149E65CE00E940B038EE291E0BE0155
:102110000E94580820E009C066277727681B790BC2
:102120008EE291E00E94680821E0F999FECF1FBA83
:1021300087E190E092BD81BD20BD0FB6F894FA9A78
:10214000F99A0FBEDF91CF910895CF93DF93482F77
:10215000EB0177FF02C0C0E0D0E04130B1F0413088
:1021600018F0423051F51EC02C2FC0934C01F99944
:10217000FECF1FBA84E090E092BD81BD20BD0FB6B6
:10218000F894FA9AF99A0FBE18C08EE291E0BE0157
:102190000E94770885E090E0BE0149E65CE00E947D
:1021A0000B030BC0CD2B29F08EE291E00E94510869
:1021B00004C01092620110926101DF91CF910895E5
:1021C000CF93DF93EC01662321F083E691E00E9438
:1021D000C41DFE0121966491662329F083E691E0F7
:1021E0000E94521DF6CFDF91CF910895982F87FD61
:1021F00002C080936F019F778FEF989FC0011124D9
:1022000064E670E00E94F52B85E00E949B21089512
:10221000AF92BF92CF92DF92EF92FF920F931F93F4
:10222000DF93CF93CDB7DEB7C854D0400FB6F89444
:10223000DEBF0FBECDBFC82ECE01039660E070E0BA
:1022400041E250E021E63CE00E94D302CC2029F498
:102250008B819C818E50904F99F08E010D5F1F4FA6
:10226000C8016EE771E041E250E00E94A10280E007
:1022700090E0B80141E250E029E63CE00E94EF0224
:102280006D817E818EE291E00E9458088F8180935B
:102290004C01688579858EE291E00E947708ADE473
:1022A000B1E0FE013A9680E101900D928150E1F794
:1022B0008A8D882331F08EE291E060E070E00E9428
:1022C00068088B8D0E94F61088A1833411F066E4B3
:1022D00001C063E48EE291E00E949D088AA1809390
:1022E000410189A1809342018BA1809343018C8D90
:1022F0009D8DAE8DBF8D8093280290932902A0936F
:102300002A02B0932B02CE0101966EE370E042E008
:1023100050E021E63CE00E94D30289819A818E50F0
:10232000904F51F08EE390E06EE070EF49E65CE094
:102330000E940B03CC24C39494E4A92E91E0B92EFF
:1023400000E410E080E3D82EB4E2EB2EF12CEC0E8A
:10235000FD1ECC2089F0C7016FE971E045E250E035
:102360000E94A102DAA6C801B70145E250E029E6C1
:102370003CE00E94EF0208C0C701B80145E250E00E
:1023800021E63CE00E94D302F501819191915F0129
:10239000B7010E94190CD394F4E3DF1619F00B5D1A
:1023A0001F4FD7CFC85BDF4F0FB6F894DEBF0FBE0D
:1023B000CDBFCF91DF911F910F91FF90EF90DF90F4
:1023C000CF90BF90AF9008950F931F930E94351048
:1023D00003E613E0C80140E056E960E070E00E94C7
:1023E0005023C8016AE00E9442240E944C0E87E0FC
:1023F00061E00E943A2287E061E00E94FB2180E7D1
:1024000091E0909345018093440184E991E0909399
:1024100047018093460188EB91E0909349018093B6
:1024200048018CED91E090934B0180934A0180E04C
:102430000E9408110E94B50F86E892E065E00E94B4
:10244000991A0E9435101F910F9108951F93182F0C
:102450000E94F610F999FECF1FBA88E190E092BD74
:1024600081BD10BD0FB6F894FA9AF99A0FBE0E947A
:102470005B0E1F9108958F929F92AF92BF92CF9261
:10248000DF92EF92FF920F931F93CF93DF93EC01B4
:10249000FC0101900020E9F731971E2F181B66E11F
:1024A00071E047E050E00E94AA02892B11F5CE01AD
:1024B00007960E9483020E947810C10FD11D2197B8
:1024C00008818EE291E0602F0E949D08033419F08C
:1024D000063409F09AC1F999FECF1FBA8DE190E058
:1024E00092BD81BD00BD0FB6F894FA9AF99A0FBE5D
:1024F0008CC1CE016EE071E047E050E00E94AA027C
:10250000892B39F4CE0107960E9483020E9426127D
:102510007CC1CE0166E071E047E050E00E94AA0273
:10252000892B49F4CE01079665EA70E10E946E0D91
:102530000E94C70D6AC1CE016EEF70E047E050E027
:102540000E94AA02892B49F4CE01079666E77CE037
:102550000E946E0D0E946A0E58C1CE0166EF70E0B7
:1025600047E050E00E94AA02892B09F05CC11A30B2
:1025700008F459C1CE0109960E947F029B01AC016B
:102580006F81643679F065361CF4623609F506C051
:10259000693631F06037E1F401E005C000E003C0C6
:1025A00002E001C003E08EE291E0602F0E9481080A
:1025B000602F70E0660F771F660F771FCB010796BD
:1025C000635B7E4F44E050E029E63CE00E94EF026E
:1025D0000E94F70E1AC1193008F42FC18E81289677
:1025E0008053BE010E94E70E0E945F100EC1193099
:1025F00008F42DC1AE8080EDA80E93E09A1508F482
:1026000004C1289685E2A89EB02C112465E5862E8B
:102610008B0C9924CA2CDD24CC0CDD1CE4E4F1E005
:10262000CE0EDF1E31C0F3E0F91590F18C3229F4A3
:102630009394219684E0880E27C0F601E080F18013
:10264000092D10E0CE010E947F02000F111F000F24
:10265000111FF701E00FF11F668377838087918751
:102660000A5F1F4FE00EF11E882D90E0B70144E095
:1026700050E029E63CE00E94EF0201C021968881EB
:10268000882311F08C32D1F78881882361F654C0F9
:10269000CE010E948302082FAA2DB0E087FD22C040
:1026A000AA0FBB1FAC5BBE4FED91FC9114811817B4
:1026B00009F442C0CF01602F0E947B07F999FECF39
:1026C0001FBAFDE4BF0E8B2D90E092BD81BD00BD11
:1026D0000FB6F894FA9AF99A0FBE123069F58A2D5E
:1026E0006FE728C0182F1058FD01EE0FFF1FEC5B9D
:1026F000FE4F0190F081E02D8481823029F4A85DA5
:10270000BD4F8C918117A1F0CF0162E00E947B0741
:10271000F999FECF1FBA8DE4B80E8B2D90E092BDD3
:1027200081BD82E080BD0FB6F894FA9AF99A0FBE87
:102730008A2D612F0E94C20F8A2D0E94150F65C03D
:10274000CE01079669ED7FE00E946E0D0E94AB0EF0
:102750005CC0CE0168ED70E047E050E00E94AA0244
:10276000892B49F4CE01079665E97CE00E946E0D45
:102770000E94110E4AC0CE0160ED70E047E050E0CB
:102780000E94AA02892B39F4279686E892E0BE01BE
:102790000E94291A3AC0CE0169EC70E046E050E090
:1027A0000E94AA02892BD1F40E944C0E0E94F70EBF
:1027B0000E94110E0E945F1000E0802F0E94150FF2
:1027C0000F5F0430D1F70E946A0E0E94C70D0E946D
:1027D0005B0E0E94AB0E0E94E70D17C0CE0162ECAB
:1027E00070E045E050E00E94AA02892B11F080E0E1
:1027F0000DC087E060E00E943A22F89488E180935F
:10280000600089E080936000FFCF81E0DF91CF918D
:102810001F910F91FF90EF90DF90CF90BF90AF90FE
:102820009F908F900895CE016FEE70E046E050E0EB
:102830000E94AA02892B09F4CECECE0168EE70E088
:1028400046E050E00E94AA02892B09F4D0CECE01C6
:1028500060EE70E047E050E00E94AA02892B09F088
:1028600078CF6ECF882381F080916E028F3FB1F4D4
:1028700010926F0210927002109271021092720206
:1028800085E080936E0208958FEF80936E0286E05C
:102890000E94B42680916F010E94F6100895EF9275
:1028A000FF920F93DF93CF93CDB7DEB763970FB649
:1028B000F894DEBF0FBECDBF00918E02802F8250F4
:1028C000853008F01FC183E691E060E040E00E949F
:1028D0003F1D063099F481E00E94321480916D0210
:1028E00080FD03C087E192E002C086E092E060E0F4
:1028F0000E94E01000916D02069598C080E00E9451
:102900003214E0914401F091450166897789808D08
:10291000918D0E940E2A7B0140913701442309F0DA
:10292000E8C0672B09F0E5C0CE01019664EC71E0C8
:1029300041E150E00E94A10271C08DB79EB70C9793
:102940000FB6F8949EBF0FBE8DBFEDB7FEB73196A0
:10295000CE010196ADB7BEB712969C938E93119798
:1029600081E190E09383828384EF91E09583848377
:10297000F782E68280914001992787FD90959187A3
:102980008087338722870E942803EDB7FEB73C96E5
:1029900040C0442319F42BE53DE502C02EE53EE599
:1029A0008DB79EB740970FB6F8949EBF0FBE8DBFF0
:1029B000EDB7FEB73196CE010196ADB7BEB7129610
:1029C0009C938E93119781E190E0938382838FEDA6
:1029D00091E095838483F782E68280914001992774
:1029E00087FD909591878087822F992787FD909505
:1029F0009387828780912F0184871586832F99275B
:102A000087FD9095978786870E942803EDB7FEB7CC
:102A100070960FB6F894FEBF0FBEEDBF83E691E04F
:102A2000BE016F5F7F4F0E94F22501507E01089426
:102A3000E11CF11C043008F046C0802F0E944E10AB
:102A40008DB79EB70A970FB6F8949EBF0FBE8DBF85
:102A5000ADB7BEB71196BB8BAA8BEDB7FEB7F282AE
:102A6000E18281E190E013969C938E93129785ED1D
:102A700091E015969C938E93149785E792E01796B4
:102A80009C938E931697E02FF0E0EE0FFF1FEC5B08
:102A9000FE4F0190F081E02D66897789808D918DC0
:102AA0000E940E2AAA89BB8919967C936E93189767
:102AB0000E942803EDB7FEB73A960FB6F894FEBF12
:102AC0000FBEEDBF08C0C70160E270E041E150E019
:102AD0000E94C102198A83E691E060E041E00E9411
:102AE0003F1D83E691E0BE016F5F7F4F0E94F2259C
:102AF00009C020916101309162012115310509F46D
:102B000048CF1BCF63960FB6F894DEBF0FBECDBF84
:102B1000CF91DF910F91FF90EF9008950E944F1495
:102B200080916C028F5F80936C0290E08F71907047
:102B3000892B21F480E092E00E949C1B0E942A10C5
:102B40002091610130916201A4E4B1E090E00EC0F7
:102B500083A1882301F181E0990F980F90936D0272
:102B60000E94AB0E86E892E066E012C021153105A6
:102B700091F4ED91FC91119782A1882349F380E0B3
:102B8000EBCF80918E02863059F486E892E062E0C5
:102B90000E94991A08959F5F1296943039F7F1CFE9
:102BA0000895DF92EF92FF920F931F93ECE2F2E011
:102BB00001900020E9F73197EC52F2401E2F21C01E
:102BC00083E693E00E9407248A3011F08D3059F497
:102BD000112391F080912C028F3269F48DE292E002
:102BE0000E943B1208C0E12FF0E0E45DFD4F8083BE
:102BF0001F5F103408F010E0E12FF0E0E45DFD4FBE
:102C0000108283E693E00E94D623892BC9F680E0E8
:102C100092E00E946C1C882359F089E061E00E94D8
:102C20003A226AE070E080E090E00E94DB2004C07D
:102C300089E060E00E943A2286E892E00E94D91A78
:102C40008EE291E00E94870A882311F00E948E157F
:102C500080916E028F3F09F44EC00E94CD207B010F
:102C60008C0180916E02682F70E0FB01EE58FE4FE0
:102C7000E49180916F0290917002A0917102B091E5
:102C80007202A8019701281B390B4A0B5B0BBAE0B3
:102C9000DB2EED9DC0011124A0E0B0E08217930768
:102CA000A407B50740F5E0926F02F092700200931E
:102CB000710210937202CB01019666E070E00E94EF
:102CC000F52B80936E02E82FF0E080FD0FC0EE58E8
:102CD000FE4F24912D9D9001112440E050E086E0AC
:102CE00060EA7FE00E94272780E803C080916F019F
:102CF00080680E94F6101F910F91FF90EF90DF9077
:102D000008958038E1F483E691E00E94BC1D83E6DB
:102D100091E064E972E040E150E00E94CB2483E658
:102D200091E060E041E00E943F1D83E691E065EAAA
:102D300072E040E150E00E94CB2481E00895809150
:102D4000B50208950F931F930E944E1003E611E001
:102D5000C8010E94C41DC80165E772E00E94F22507
:102D60001F910F910895EF92FF920F931F93DF939E
:102D7000CF93CDB7DEB761970FB6F894DEBF0FBE25
:102D8000CDBF7801843039F4809173029091740240
:102D9000860F911D08C0883051F480917302909184
:102DA0007402861B91099093740280937302809140
:102DB0007302909174028417950724F4509374025F
:102DC000409373028091730290917402281739071F
:102DD00024F4309374022093730283E691E060E060
:102DE00041E00E943F1D8DB79EB70A970FB6F89439
:102DF0009EBF0FBE8DBFEDB7FEB731968E010F5F40
:102E00001F4FADB7BEB712961C930E93119781E179
:102E100090E093838283F582E482809173029091A3
:102E200074029783868380914001992787FD90954E
:102E3000918780870E9428038DB79EB70A960FB6A8
:102E4000F8949EBF0FBE8DBF83E691E0B8010E944B
:102E5000F22561960FB6F894DEBF0FBECDBFCF91BD
:102E6000DF911F910F91FF90EF900895FF920F93C4
:102E70001F93F82E80918E028E3120F0823210F452
:102E80000EE101C006E290E8F916E1F4182F101BDC
:102E9000812F0E94A216E12FF0E0EE0FFF1FEC5BE6
:102EA000FE4F0190F081E02D8DE290E0801B9109B2
:102EB000880F991FE80FF91F808191819093740208
:102EC000809373020E3119F001EF12E002C001E0AD
:102ED00013E08F2D65E040E050E028EE33E00E94E3
:102EE000B31681E01F910F91FF900895CF93DF9368
:102EF000EB01843011F0883071F420E030E08091F3
:102F0000730290917402892B11F421E030E0309328
:102F100074022093730283E691E060E041E00E9436
:102F20003F1D209721F0CE0160E00E94E0108091CB
:102F3000730290917402892B19F48BE293E002C022
:102F40008FE293E060E00E94E010DF91CF9108955E
:102F5000FF920F931F93F82E80918E028A3120F0FA
:102F60008E3110F40AE101C002E290E8F91619F579
:102F7000182F101B812F0E94A21620E030E0E12FB5
:102F8000F0E0EE0FFF1FEC5BFE4F0190F081E02DB3
:102F900089E290E0801B9109880F991FE80FF91FC3
:102FA000808191811816190614F421E030E03093E5
:102FB0007402209373020A3119F062E173E002C0D7
:102FC0006EE173E08F2D0E94761781E01F910F91C3
:102FD000FF90089590918E02803879F4892F865160
:102FE0000E94A21683E691E060E041E00E943F1D4E
:102FF0008CEB93E060E00E94E01081E008950F9375
:103000001F93182F803861F489E393E061E00E94F8
:10301000E01080916F0180937302109274020FC0D0
:10302000803469F4209173023091740280916F01B1
:1030300090E02817390719F0822F0E942612812F5D
:103040006AE040E050E024E630E003E313E00E9451
:10305000B3168091730280680E94F61081E01F9180
:103060000F9108950F931F93182F803861F484E512
:1030700093E061E00E94E01080914101809373022F
:10308000109274020FC0803469F420917302309161
:1030900074028091410190E02817390719F0822FBE
:1030A0000E94390E812F65E040E050E024E630E0D8
:1030B00008E413E00E94B31681E01F910F91089578
:1030C0001F93182F803851F485E693E061E00E9449
:1030D000E01010927402109273020BC0803449F415
:1030E0008091730290917402892B19F081E00E9403
:1030F0000811812F60E070E00E94761781E01F9137
:1031000008950F931F93182F803871F48FE793E081
:1031100061E00E94E01080913A0190913B01909310
:1031200074028093730209C0803439F46091730291
:103130007091740281E00E94A510812F6AE040E046
:1031400050E028EE33E003E713E00E94B31681E07D
:103150001F910F9108950F931F93182F803861F4DA
:103160008EE993E061E00E94E01080914C01809331
:1031700073021092740209C0803439F460917302B2
:103180007091740280E00E94A510812F61E040E000
:1031900050E024E630E00EE813E00E94B31681E030
:1031A0001F910F9108950F931F93082F10918E0276
:1031B0001C508038A9F4812F0E94A216E12FF0E064
:1031C000EE0FFF1FEC5BFE4F0190F081E02D85813B
:1031D000992787FD9095909374028093730209C09C
:1031E000803439F46091730270917402812F0E94CF
:1031F0008A0E802F61E04CE95FEF24E630E00EEAB2
:1032000013E00E94B31681E01F910F9108951F9360
:10321000182F803861F48DEC93E061E00E94E0109B
:1032200080913701809373021092740219C0803428
:10323000B9F420E08091730290917402892B09F017
:1032400021E080913701281759F0222319F080E0FE
:1032500090E004C080913501909136010E94781071
:10326000812F60E070E00E94761781E01F91089541
:103270000F931F93182F803871F484EE93E061E070
:103280000E94E01080913501909136019093740274
:103290008093730210C0803471F4209173023091D6
:1032A000740280913501909136012817390719F081
:1032B000C9010E947810812F65E040E050E028EEBF
:1032C00033E00DED13E00E94B31681E01F910F91E2
:1032D0000895803819F40E944F1405C090E08F7152
:1032E0009070892B11F481E008950E94211082E0F2
:1032F0000895982F803809F040C080918E02853063
:1033000009F46BC08EE291E00E942208882309F044
:1033100064C085E00895E0914601F0914701268957
:103320003789408D518DCA01B9010E949D2B882398
:1033300009F45EC083E00895E0914801F0914901ED
:1033400026893789408D518DCA01B9010E949D2B74
:10335000882309F44DC084E00895E0914A01F0917A
:103360004B0126893789408D518DCA01B9010E94D0
:103370009D2B8823E9F182E008958091370188230D
:10338000D1F0943011F465E007C0983011F46BEF80
:1033900003C0913001F56FEF772767FD709580913D
:1033A0002F01680F711D8EE291E00E9468080E9453
:1033B0004F1480E00895913071F460E070E08091E6
:1033C000610190916201892B11F461E070E082E06B
:1033D0000E94A5100DC081E0089580918E02823078
:1033E00009F499CF833009F4A7CF843009F4B5CF1D
:1033F0000E944F1481E0089586E892E068E272E04E
:1034000048E852E027E03AE10E94911A089580E0EE
:103410000E9479219595879595958795982F882372
:10342000B1F08551873210F481E00895892F8D53D2
:10343000873210F488E00895892F8D58833110F475
:1034400084E00895915A973210F482E0089580E064
:103450000895CF92DF92EF92FF920F931F93CF9335
:10346000DF936C018B01CB016CE270E00E94C8021B
:10347000EC01EEE0EE2EF12CEC0CFD1CC70160E23D
:1034800070E041E250E00E94C102209779F4D80137
:103490000D900020E9F71197A01BB10BA132B105E7
:1034A00010F0A1E2B0E0C701B80121C09E01201BCD
:1034B000310B2131310510F020E130E0C701B801B6
:1034C000A9010E94B802DE010D900020E9F7AC1BB3
:1034D000BD0B1297A031B10510F0A0E1B0E096014C
:1034E000215E3F4FAE014F5F5F4FC901BA01AD0191
:1034F0000E94B802F60180858B3211F087A704C0C4
:10350000C60160E00E94991AC6016BE20E94991AF6
:10351000DF91CF911F910F91FF90EF90DF90CF90AF
:103520000895FC017183608353834283378326832C
:1035300008951F93CF93DF93EC01162F2BC08C813E
:103540009D81009751F0FC01319625913491211510
:10355000310519F080E4F90109951887888199816E
:103560009D838C8306C08885981741F03496FD832F
:10357000EC83EC81FD8194919923A9F7309779F040
:103580003196259134912115310521F080E8F9011A
:103590000995182F123018F08885181781F60E94A7
:1035A000CD206A877B878C879D87DF91CF911F9184
:1035B0000895DF92EF92FF920F931F93CF93DF93C3
:1035C000EC01EE81FF810995D82E0E94CD207B0170
:1035D0008C018A859B85AC85BD85E81AF90A0A0BA2
:1035E0001B0BDD20D9F4EC81FD813097B9F03396C7
:1035F000649170E080E090E028EE33E040E050E03D
:103600000E94D62B611571058105910539F06E1563
:103610007F058007910710F480E2D82E8AEFE81624
:10362000F1040105110508F439C080E2D81621F033
:10363000D986DD2009F432C00E94CD206A877B87BD
:103640008C879D878C819D81009769F0FC01319664
:10365000259134912115310531F08D2DF901099510
:10366000682F8130C1F4EA81FB812D2D30E00FC03D
:10367000961761F431968491319790E082239323D9
:103680008217930719F43296649105C0339694918A
:103690006885992369F7CE010E94991ADF91CF912D
:1036A0001F910F91FF90EF90DF900895DF92EF92BE
:1036B000FF920F931F93CF93DF937C01EC0100E007
:1036C00010E0DD24DA948A858F3F41F10E94CD20FD
:1036D0002B853C854D855E85621B730B840B950B9A
:1036E00061527F4B82409040C8F0D7011596ED9112
:1036F000FC911697309761F0C801019623E0880F7E
:10370000991F2A95E1F78E0D9F1D62E070E00995E3
:103710008A858F3F19F0DA86198618860F5F1F4F4A
:1037200028960430110579F6DF91CF911F910F9102
:10373000FF90EF90DF9008950F931F93CF93DF9347
:103740008C01FC018081882309F454C0C5EFD3E0CB
:10375000FE0121968491882319F00E94A608F8CFD3
:1037600086EB92E0F80167814AE050E00E948D25E7
:10377000E80110E08A858F3FA1F08CE20E94A60844
:1037800086EB92E06A854AE050E00E948D258CE24B
:103790000E94A60886EB92E06F854AE050E00E9406
:1037A0008D251F5F2896143029F783E693E06AE29F
:1037B0000E9442246091BB0262956F706A3010F4DF
:1037C000605D01C0695C83E693E00E9442246091E1
:1037D000BB026F706A3010F4605D01C0695C83E603
:1037E00093E00E94422483E693E06AE00E94422430
:1037F0001092BA02DF91CF911F910F910895CF934C
:10380000DF93EC018881882329F481E00E947C1FEA
:1038100081E08883DF91CF910895EF92FF921F930B
:10382000CF93DF937C01EB010E94CD20F7016383EE
:10383000748385839683898184FD02C018E001C06A
:1038400010E085FD14608B8187FD12600E94541F7B
:10385000882309F41160F701178389812A8113FFF6
:103860002AC030E0A9014F7050704059514090E09B
:103870008F70907064E670E0FC01E69FC001E79FE6
:10388000900DF69F900D1124480F591FE4E03595D7
:103890002795EA95E1F7C90173E0880F991F7A959A
:1038A000E1F7220F331F820F931F480F591FF701B3
:1038B000518340830BC090E08F709070982F8827C1
:1038C00030E0822B932BF70191838083DF91CF919E
:1038D0001F91FF90EF900895EF92FF920F931F9327
:1038E000CF93DF938C01DC018C91882311F4FF24AA
:1038F00084C0FF247AC00E94CD20F80161837283C6
:10390000838394838091BC029781882309F066C0E9
:103910009F3F11F09F5F97838091BD0290E08F7071
:103920009070880F991F880F991F9091BE029295F1
:10393000969596959370982BE801D801E0E01A9639
:103940008C911A97891729F0EF5F1896E430B9F730
:1039500003C0EF3F71F447C0E0E08A858F3F21F458
:1039600025E0E22EF12C08C0EF5F2896E430A9F79D
:103970003AC084E0E82EF12C2E2F30E0F901B3E0BC
:10398000EE0FFF1FBA95E1F7E00FF11F828589174F
:1039900061F09287F9013196A3E0EE0FFF1FAA951F
:1039A000E1F7E00FF11F11821082E9012196F3E0A7
:1039B000CC0FDD1FFA95E1F7C00FD11FCE016DEBE3
:1039C00072E00E940D1CD8011596ED91FC9116979E
:1039D000309749F0CE01B701099505C0992319F038
:1039E0009150F8019783FF24F3940E942F1F88239E
:1039F00009F081CFC8010E94561B8F2DDF91CF9116
:103A00001F910F91FF90EF9008951092B9021092BC
:103A1000B80288E091E09093B7028093B6020895CF
:103A20001F93CF93DF93EC01162F8C81882341F4F1
:103A300081E08C831D8283E693E064E20E9442244D
:103A40008D8181278D8383E693E0612F0E9442243C
:103A5000DF91CF911F910895DC01ED91FC910480DD
:103A6000F581E02D40E009950895FC016681862FDF
:103A7000846086836C60CF010E942C1D0895DC0158
:103A800018968C911897841710F4482F4150E42F02
:103A9000F0E0E65EFE4F8081680F6068CD010E9415
:103AA0002C1D0895DC01ED91FC910480F581E02D41
:103AB00041E0099581E090E008951F93CF93DF9353
:103AC000EC011FB7F8946EBD0DB407FEFDCFEA857B
:103AD000FB8580819985892B808381E090E00E941D
:103AE0003421EA85FB8590818985809589238083AF
:103AF0001FBFDF91CF911F910895FC0164810E9447
:103B00005D1D0895EF92FF921F937C01162F1860A0
:103B1000612F0E945D1D177FC701612F0E945D1DEF
:103B20001F91FF90EF900895607F0E94821D88E2B0
:103B300090E00E94342108950F931F93CF93DF9359
:103B4000EC01062F411144E01C81142B602F607F93
:103B5000612BCE010E94821D0295007F102BCE01A9
:103B6000612F0E94821D88E290E00E943421DF9143
:103B7000CF911F910F91089562E00E942C1D80ED5E
:103B800097E00E943421089561E00E942C1D80ED91
:103B900097E00E9434210895CF93DF93EC016230C7
:103BA00018F088E0888701C0188688858D834111C8
:103BB00084608D8380E090E40E94342180E090E472
:103BC0000E94342180E090E40E943421E881F98150
:103BD0000680F781E02DCE0160E3099584E991E14B
:103BE0000E943421E881F9810680F781E02DCE0121
:103BF00060E3099586E990E00E943421E881F9812B
:103C00000680F781E02DCE0160E30995E881F98116
:103C10000680F781E02DCE0160E209956D8160623A
:103C2000CE010E942C1D84E08E83CE010E94351DA2
:103C3000CE010E94C41D82E08F83CE0166E00E9407
:103C40002C1DDF91CF910895EF92FF920F931F9358
:103C50008C01F62EE42EDC0113961C921E92129714
:103C600080E191E08D939C938BE061E00E94FB21C9
:103C70008DE061E00E94FB218AE061E00E94FB216F
:103C80008AE061E00E943A2281E58CBD8F2D90E0B0
:103C9000FC01EF5CFB4FE491D8011996EC93199766
:103CA000835E9B4FFC018491E82FF0E0EE0FFF1F35
:103CB000E75FFB4F859194911B969C938E931A9787
:103CC0008F2D61E00E94FB21C80160E00E945D1D14
:103CD000C8016E2D40E00E94CC1D1F910F91FF90F6
:103CE000EF900895282F8CB581608CBD2A989EBDD9
:103CF0000DB407FEFDCF8EB52EBD0DB407FEFDCF72
:103D00004EB5382F20E02A9A8CB58E7F8CBD50E0BE
:103D1000422B532BCA0108951F9380E090E00E942C
:103D2000721E9093C8028091CB02843009F04BC080
:103D300080E090EB0E94721E182F8091CD028823A4
:103D4000F1F4812F90E034E0959587953A95E1F76D
:103D50000296959587958093C7028091C702882324
:103D600021F08091C7028B3018F081E08093C70268
:103D7000E091C902F091CA02309709F0099580914B
:103D8000CD02E82FF0E0E354FD4F10838F5F809366
:103D9000CD028091BC02812790E021E387FF03C020
:103DA000880F822701C0880F9F5F9830B9F78093F2
:103DB000BC029091CD028091C702981709F04DC0C6
:103DC0008DE092E848C08091CB0287FF1EC08091B1
:103DD000C702E091CB02EF5FE093CB02E150E80F26
:103DE000F0E0E354FD4F80812091BC02282790E051
:103DF00031E327FF03C0220F232701C0220F9F5F5B
:103E00009830B9F72093BC0223C08091CB028F5F1A
:103E10008093CB0281508230B1F083301CF4882330
:103E200079F015C0853019F0863089F402C08DE232
:103E30000FC08091C70281958093CB0284ED08C0AA
:103E40008091BC0205C08DE092E80E94721E8AEA51
:103E500090E0805098440E94721E1F9108958091B6
:103E6000CB028430D9F49091C7028091CD0298178B
:103E7000A9F483E08093CB0281E008951092CD02F3
:103E80001092BC028FEF8093C70284E08093CB0234
:103E90008DED92E80E94721E80E008958091CB0221
:103EA000833061F380E008958091C80281700895A5
:103EB0002A9A229A8AE061E00E943A228AE061E02E
:103EC0000E94FB218BE061E00E94FB218CE060E01E
:103ED0000E94FB218DE061E00E94FB2180E58CBD0A
:103EE0008DB581608DBD82E060E00E94FB2182E0A3
:103EF00061E00E943A2208951F93162F8093CC020E
:103F00000E94581F80E090E00E94721E85E092E8B7
:103F10000E94721E80E098EB02C080E090E00E9458
:103F2000721E82E00E948E22892BB9F3812F90E0CD
:103F300044E0880F991F4A95E1F7876C90680E94CA
:103F4000721E123019F0133039F403C08CE796EA70
:103F500005C080ED97EA02C080E496EA0E94721ED6
:103F600083E196EC0E94721E82EA94E90E94721E1E
:103F70008CEA92EC0E94721E83E89AEC0E94721EF8
:103F800084ED9EEC0E94721E83E894EC0E94721EE7
:103F900080E598E90E94721E87E79CEC0E94721EE1
:103FA00080E090EE0E94721E80E098EC0E94721EEB
:103FB00089E490EC0E94721E83E08093CB02809192
:103FC000CC0290E08F719070892B41F080E06CE81A
:103FD0007EE140E050E00E94F51F03C080E00E94B7
:103FE00018208091CC021F910895823000F5E82FAF
:103FF000F0E0EE0FFF1FE253FD4F718360838823D3
:1040000019F08130A1F408C0809169008C7F842B65
:1040100080936900E89A089580916900440F551FC4
:10402000440F551F837F842B80936900E99A08957C
:10403000823080F4882319F0813021F402C0E8989E
:1040400001C0E998E82FF0E0EE0FFF1FE253FD4FAB
:104050001182108208951F920F920FB60F921124B1
:104060002F933F934F935F936F937F938F939F9380
:10407000AF93BF93EF93FF938091CE029091CF02C5
:10408000892B29F0E091CE02F091CF020995FF91A2
:10409000EF91BF91AF919F918F917F916F915F91C0
:1040A0004F913F912F910F900FBE0F901F90189539
:1040B0001F920F920FB60F9211242F933F934F939D
:1040C0005F936F937F938F939F93AF93BF93EF9380
:1040D000FF938091D0029091D102892B29F0E09139
:1040E000D002F091D1020995FF91EF91BF91AF916C
:1040F0009F918F917F916F915F914F913F912F9100
:104100000F900FBE0F901F9018951F920F920FB631
:104110000F9211242F933F938F939F93AF93BF934D
:104120008091D6029091D702A091D802B091D90285
:104130003091DA020196A11DB11D232F2D5F2D377D
:1041400020F02D570196A11DB11D2093DA02809316
:10415000D6029093D702A093D802B093D90280914F
:10416000D2029091D302A091D402B091D5020196CF
:10417000A11DB11D8093D2029093D302A093D402CB
:10418000B093D502BF91AF919F918F913F912F91A5
:104190000F900FBE0F901F9018958FB7F894209135
:1041A000D6023091D7024091D8025091D9028FBFE8
:1041B000B901CA0108959B01AC017FB7F8948091C1
:1041C000D2029091D302A091D402B091D50266B5EB
:1041D000A89B05C06F3F19F00196A11DB11D7FBFBF
:1041E000BA2FA92F982F8827860F911DA11DB11DC9
:1041F00062E0880F991FAA1FBB1F6A95D1F7BC0107
:104200002DC0FFB7F8948091D2029091D302A09173
:10421000D402B091D502E6B5A89B05C0EF3F19F0D6
:104220000196A11DB11DFFBFBA2FA92F982F882776
:104230008E0F911DA11DB11DE2E0880F991FAA1FCD
:10424000BB1FEA95D1F7861B970B885E9340C8F297
:10425000215030404040504068517C4F211531057D
:104260004105510571F60895019739F0880F991F9E
:10427000880F991F02970197F1F70895789484B5F4
:10428000826084BD84B5816084BD85B5826085BD52
:1042900085B5816085BDEEE6F0E080818160808338
:1042A000E1E8F0E01082808182608083808181601B
:1042B0008083E0E8F0E0808181608083E1EBF0E0E2
:1042C000808184608083E0EBF0E080818160808386
:1042D000EAE7F0E08081846080838081826080836F
:1042E0008081816080838081806880831092C1009A
:1042F0000895982F8E3008F09E509770809102019B
:104300008295880F880F807C892B80937C00809118
:104310007A00806480937A0080917A0086FDFCCFD9
:104320002091780040917900942F80E030E0282B94
:10433000392BC90108951F93CF93DF93182FEB01F9
:1043400061E00E94FB21209709F44AC0CF3FD105CC
:1043500009F449C0E12FF0E0EB5BFB4F849183301F
:10436000C1F0843028F4813051F08230B1F50CC0B6
:10437000863019F1873049F1843079F514C084B55D
:10438000806884BDC7BD33C084B5806284BDC8BDAC
:104390002EC080918000806880938000D093890037
:1043A000C093880024C08091800080628093800048
:1043B000D0938B00C0938A001AC08091B0008068AF
:1043C0008093B000C093B30012C08091B0008062AF
:1043D0008093B000C093B4000AC0C038D1051CF46B
:1043E000812F60E002C0812F61E00E943A22DF91BC
:1043F000CF911F910895CF93DF93482F50E0CA01CA
:104400008F5C9B4FFC013491435E5B4FFA018491BA
:10441000882369F190E0880F991FFC01E150FC4F5F
:10442000A591B491FC01E75FFB4FC591D491662340
:1044300051F42FB7F8948C91932F909589238C93F6
:10444000888189230BC0623061F42FB7F8948C9176
:10445000932F909589238C938881832B88832FBFFA
:1044600006C09FB7F8948C91832B8C939FBFDF91EC
:10447000CF910895482F50E0CA018B5B9B4FFC0100
:104480002491CA018F5C9B4FFC019491435E5B4F6A
:10449000FA013491332309F440C0222351F123302F
:1044A00071F0243028F42130A1F0223011F514C02D
:1044B0002630B1F02730C1F02430D9F404C0809107
:1044C00080008F7703C0809180008F7D8093800073
:1044D00010C084B58F7702C084B58F7D84BD09C0BC
:1044E0008091B0008F7703C08091B0008F7D809362
:1044F000B000E32FF0E0EE0FFF1FE75FFB4FA59149
:10450000B4912FB7F894662321F48C919095892368
:1045100002C08C91892B8C932FBF0895682F70E077
:10452000CB018B5B9B4FFC012491CB018F5C9B4F9C
:10453000FC014491635E7B4FFB019491992319F434
:1045400020E030E03CC0222351F1233071F02430D0
:1045500028F42130A1F0223011F514C02630B1F03A
:104560002730C1F02430D9F404C0809180008F77C7
:1045700003C0809180008F7D8093800010C084B53F
:104580008F7702C084B58F7D84BD09C08091B00053
:104590008F7703C08091B0008F7D8093B000892F0A
:1045A00090E0880F991F8D5E9B4FFC01A591B491FF
:1045B0008C9120E030E0842311F021E030E0C9014B
:1045C00008951F920F920FB60F9211242F933F93CD
:1045D0004F938F939F93EF93FF934091C600209149
:1045E0001B0330911C032F5F3F4F2F73307080915E
:1045F0001D0390911E032817390759F0E0911B0302
:10460000F0911C03E552FD4F408330931C0320932F
:104610001B03FF91EF919F918F914F913F912F91AC
:104620000F900FBE0F901F9018951F920F920FB60C
:104630000F9211242F933F938F939F93EF93FF93A8
:1046400020915F0330916003809161039091620338
:104650002817390731F48091C1008F7D8093C10004
:1046600014C0E0916103F0916203E15EFC4F208190
:10467000809161039091620301968F739070909383
:104680006203809361032093C600FF91EF919F9195
:104690008F913F912F910F900FBE0F901F90189503
:1046A000AF92BF92DF92EF92FF920F931F93CF933F
:1046B000DF93EC017A018B01DD24403081EE580755
:1046C00080E0680780E0780711F0DD24D39491E062
:1046D000A92EB12CEC89FD89DD2069F0C5010E8C75
:1046E00002C0880F991F0A94E2F7808360E079E0A6
:1046F0008DE390E005C0108260E874E88EE190E000
:10470000A80197010E941C2C21503040404050408D
:10471000569547953795279580E12030380720F04A
:10472000DD2011F0DD24D6CFE889F9893083EA89CC
:10473000FB892083EE89FF89408121E030E0C901B7
:104740000A8C02C0880F991F0A94E2F7482B408315
:10475000EE89FF894081C9010B8C02C0880F991F27
:104760000A94E2F7482B4083EE89FF894081C90112
:104770000C8C02C0880F991F0A94E2F7482B4083E3
:10478000EE89FF8980810D8C02C0220F331F0A94AD
:10479000E2F7209528232083DF91CF911F910F917D
:1047A000FF90EF90DF90BF90AF900895DC011C96D2
:1047B000ED91FC911D97E05CFF4F2191319180813B
:1047C0009181281B390B2F733070C9010895DC01CA
:1047D0001C96ED91FC911D97E05CFF4F208131818B
:1047E000E054F040DF01AE5BBF4F8D919C9111977B
:1047F0002817390719F42FEF3FEF07C08D919C91CF
:10480000E80FF91F8081282F30E0C9010895DC01ED
:104810001C96ED91FC911D97E05CFF4F208131814A
:10482000E054F040DF01AE5BBF4F8D919C9111973A
:104830002817390719F42FEF3FEF10C08D919C9185
:104840001197E80FF91F20818D919C911197019686
:104850008F73907011969C938E9330E0C9010895E8
:10486000FC0186859785DC01A05CBF4FFC01EE5BF7
:10487000FF4F2D913C911197808191812817390725
:10488000C1F70895CF93DF93EC01EE85FF85E05CDF
:10489000FF4F20813181E054F0402F5F3F4F2F7355
:1048A0003070DF01AE5BBF4F8D919C91119728173F
:1048B0003907D1F3E05CFF4F80819181E054F040F3
:1048C000E80FF91F6083EE85FF85E05CFF4F3183C1
:1048D0002083EE89FF89208181E090E00D8C02C069
:1048E000880F991F0A94E2F7282B208381E090E03B
:1048F000DF91CF910895109266031092650388EEC0
:1049000093E0A0E0B0E08093670390936803A093E6
:104910006903B0936A0382E291E090936403809309
:1049200063038BED92E09093700380936F038FE1AC
:1049300093E0909372038093710385EC90E09093E1
:1049400074038093730384EC90E0909376038093D8
:10495000750380EC90E0909378038093770381EC6B
:1049600090E090937A038093790386EC90E09093A3
:104970007C0380937B0384E080937D0383E08093BA
:104980007E0387E080937F0385E08093800381E04E
:10499000809381030895CF92DF92EF92FF920F935D
:1049A0001F93CF93DF937C016B018A01C0E0D0E0BD
:1049B0000FC0D6016D916D01D701ED91FC91019071
:1049C000F081E02DC7010995C80FD91F0150104093
:1049D0000115110571F7CE01DF91CF911F910F9154
:1049E000FF90EF90DF90CF900895CF93DF93DB019E
:1049F0000D900020E9F71197A61BB70BEC01E88199
:104A0000F9810280F381E02DAD010995DF91CF910D
:104A100008954F925F927F928F929F92AF92BF9232
:104A2000CF92DF92EF92FF920F931F93DF93CF937A
:104A3000CDB7DEB7A1970FB6F894DEBF0FBECDBFDE
:104A40002C01742ECB01223008F42AE019A231E2A5
:104A5000C32ED12CCC0EDD1E822E9924AA24BB2479
:104A6000672D752FA50194010E941C2C79018A01E4
:104A7000C801B701A50194010E94D62B472D461B02
:104A80000894C108D1084A3014F4405D01C0495C63
:104A9000F6014083E114F1040105110521F07E2C9B
:104AA0005F2DC801DDCFC201B6010E94F524A19699
:104AB0000FB6F894DEBF0FBECDBFCF91DF911F912F
:104AC0000F91FF90EF90DF90CF90BF90AF909F90AD
:104AD0008F907F905F904F900895DC0121153105F4
:104AE00041F4ED91FC910190F081E02D642F099546
:104AF00008950E9409250895EF92FF920F931F9346
:104B00009A017B0100E010E0B801A7010E946D2529
:104B10001F910F91FF90EF900895EF92FF920F93E6
:104B20001F939A01E62EFF2400E010E0B801A701D0
:104B30000E946D251F910F91FF90EF900895CF92E5
:104B4000DF92EF92FF920F931F93CF93DF93EC01CD
:104B50006A017B012115310541F4E881F981019059
:104B6000F081E02D642F09951FC02A303105D1F462
:104B700077FF17C0E881F9810190F081E02D6DE2A7
:104B800009958C0144275527BA014C195D096E0916
:104B90007F09CE012AE00E9409259801280F391FBC
:104BA00004C02AE00E9409259C01C901DF91CF9130
:104BB0001F910F91FF90EF90DF90CF900895EF92AB
:104BC000FF920F931F937B019A010027F7FC00953A
:104BD000102FB801A7010E949F251F910F91FF90F0
:104BE000EF9008950E94F52408957F928F929F92EE
:104BF000AF92BF92CF92DF92EF92FF920F931F93EB
:104C0000CF93DF934C017A018B01722ECB01BA0155
:104C100020E030E040E050E00E94A22987FD03C080
:104C2000C0E0D0E00EC0D401ED91FC910190F08184
:104C3000E02DC4016DE20995EC0117FB109517F901
:104C4000109520E030E040E05FE3AA240BC0CA01E9
:104C5000B90120E030E040E251E40E94A6299B0126
:104C6000AC01A394A71498F3C801B7010E943E2990
:104C70005B016C010E94132A7B018C01C401B80105
:104C8000A7012AE030E00E946D25C80FD91F7720C8
:104C900039F0C40160E071E00E94F524C80FD91F0B
:104CA000C801B7010E943F2A9B01AC01C601B501B2
:104CB0000E943D2924C020E030E040E251E40E94FF
:104CC0003A2B7B018C010E940E2A5B016C01CC24E3
:104CD000B7FCC094DC2CC401B601A5012AE030E089
:104CE0000E949F25C80FD91FC601B5010E94412A05
:104CF0009B01AC01C801B7010E943D297A9477203D
:104D0000D1F6CE01DF91CF911F910F91FF90EF90DF
:104D1000DF90CF90BF90AF909F908F907F9008953D
:104D20000E94F5250895813041F0813018F08230DD
:104D3000D1F409C010926E00089580916F008D7FAC
:104D400080936F000895809170008D7F8093700034
:104D500081E08093B0008091B100887F846080936F
:104D6000B1001092B30008951F93182F8091030192
:104D7000811711F09FEF06C0E9E5F4E094918FEF01
:104D800080930301892F0E949326812F60E00E9467
:104D90003A221F9108951F920F920FB60F9211247D
:104DA0002F933F934F935F936F937F938F939F9333
:104DB000AF93BF93EF93FF938091900390919103F2
:104DC000A0919203B09193030097A105B10551F111
:104DD000E0919403F0919503808190919603892747
:104DE00080838091900390919103A0919203B09160
:104DF0009303181619061A061B06C4F48091900333
:104E000090919103A0919203B09193030197A1090E
:104E1000B1098093900390939103A0939203B09370
:104E2000930304C0809103010E94B426FF91EF9187
:104E3000BF91AF919F918F917F916F915F914F91B2
:104E40003F912F910F900FBE0F901F9018952F92AA
:104E50003F925F926F927F928F929F92AF92BF929A
:104E6000CF92DF92EF92FF920F931F93DF93CF9336
:104E700000D000D0CDB7DEB7A82F1B0129833A831D
:104E80004B835C83809103018A1721F4E9E5F4E008
:104E9000549082C08F3F09F0DAC1A0930301E9E585
:104EA000F4E054902FEF521609F4D1C181E0581666
:104EB00039F192E0591609F449C0552009F06CC047
:104EC00014BC15BC84B5826084BD85B5816085BD88
:104ED0002A2F30E0F901E35EFB4FE491F0E0EE0FA2
:104EE000FF1FE75FFB4F8591949190938703809319
:104EF00086032F5C3B4FF9018491809388034EC059
:104F000010928000109281008091810088608093CF
:104F10008100809181008160809381002A2F30E0A0
:104F2000F901E35EFB4FE491F0E0EE0FFF1FE75F56
:104F3000FB4F8591949190938E0380938D032F5C0A
:104F40003B4FF901849180938F0328C01092B000E9
:104F50001092B1008091B00082608093B000809187
:104F6000B10081608093B1002A2F30E0F901E35E47
:104F7000FB4FE491F0E0EE0FFF1FE75FFB4F8591E1
:104F8000949190939503809394032F5C3B4FF90188
:104F900084918093960302C057FC59C18A2F61E027
:104FA0000E94FB21552021F0F2E05F1609F0BEC0FF
:104FB00031018824992460E072E18AE790E0A4013D
:104FC00093010E943E2C59016A01860175010894E3
:104FD000E108F108010911092FEFE216F1040105BA
:104FE000110509F008F499C060E472E48FE090E0E4
:104FF000A40193010E943E2C79018A010894E108E2
:10500000F1080109110982E05816C1F49FEFE91671
:10501000F1040105110509F008F484C060E970EDA0
:1050200083E090E0A40193010E943E2C79018A0163
:105030000894E108F1080109110983E0AFEFEA16CD
:10504000F1040105110509F008F468C068E478EE80
:1050500081E090E0A40193010E943E2C79018A0135
:105060000894E108F10801091109552011F483E0C1
:105070001DC0B2E05B1611F084E018C0EFEFEE1631
:10508000F1040105110509F008F4DFC064E274EFD2
:1050900080E090E0A40193010E943E2C79018A01F6
:1050A0000894E108F1080109110985E0FFEFEF1606
:1050B000F1040105110591F188F162E17AE780E0E0
:1050C00090E0A40193010E943E2C79018A0108948A
:1050D000E108F10801091109552011F086E001C02D
:1050E00084E02FEFE216F10401051105B9F0B0F0EC
:1050F000C601B50120E034E040E050E00E943E2CC3
:1051000079018A010894E108F10801091109552083
:1051100011F087E008C085E003C081E0552019F454
:1051200085BD3AC082E08093B10036C05101CC24E5
:10513000DD2460E072E18AE790E0A60195010E941B
:105140003E2C79018A010894E108F108010911094E
:1051500080E0E81680E0F80681E0080780E01807A4
:1051600010F491E010C068E478EE81E090E0A601D0
:1051700095010E943E2C79018A010894E108F1080A
:105180000109110993E0A1E05A1631F480918100E0
:10519000887F982B9093810089819A81AB81BC8113
:1051A0000097A105B10529F48FEF9FEFAFEFBFEF97
:1051B00013C0220C331CB10180E090E029813A81B8
:1051C0004B815C810E94D62B28EE33E040E050E01A
:1051D0000E941C2CC901DA01E1E05E16A1F0F2E0A8
:1051E0005F1619F1552099F5E7BC809382039093DF
:1051F0008303A0938403B093850380916E00826043
:1052000080936E0024C0F0928900E0928800809321
:10521000890390938A03A0938B03B0938C038091AE
:105220006F00826080936F0012C0E092B3008093A1
:10523000900390939103A0939203B0939303809172
:10524000700082608093700002C084E06CCF0F9089
:105250000F900F900F90CF91DF911F910F91FF90C2
:10526000EF90DF90CF90BF90AF909F908F907F9006
:105270006F905F903F902F9008955058BB27AA27BA
:105280000ED075C166D130F06BD120F031F49F3F64
:1052900011F41EF45BC10EF4E095E7FB51C1E92F58
:1052A00077D180F3BA17620773078407950718F060
:1052B00071F49EF58FC10EF4E0950B2EBA2FA02D40
:1052C0000B01B90190010C01CA01A0011124FF27B3
:1052D000591B99F0593F50F4503E68F11A16F040AE
:1052E000A22F232F342F4427585FF3CF46953795AD
:1052F0002795A795F0405395C9F77EF41F16BA0B72
:10530000620B730B840BBAF09150A1F0FF0FBB1F1F
:10531000661F771F881FC2F70EC0BA0F621F731F68
:10532000841F48F4879577956795B795F7959E3FC5
:1053300008F0B3CF9395880F08F09927EE0F979553
:1053400087950895D9D008F481E008950CD00FC155
:1053500007D140F0FED030F021F45F3F19F0F0C0EB
:10536000511139C1F3C014D198F39923C9F35523CE
:10537000B1F3951B550BBB27AA2762177307840748
:1053800038F09F5F5F4F220F331F441FAA1FA9F3FE
:1053900033D00E2E3AF0E0E830D091505040E695F0
:1053A000001CCAF729D0FE2F27D0660F771F881F51
:1053B000BB1F261737074807AB07B0E809F0BB0B40
:1053C000802DBF01FF2793585F4F2AF09E3F510564
:1053D00068F0B6C000C15F3FECF3983EDCF3869501
:1053E00077956795B795F7959F5FC9F7880F911DDA
:1053F0009695879597F90895E1E0660F771F881FC6
:10540000BB1F621773078407BA0720F0621B730B78
:10541000840BBA0BEE1F88F7E095089504D06894CA
:10542000B111D9C00895BCD088F09F5790F0B92F22
:105430009927B751A0F0D1F0660F771F881F991FE9
:105440001AF0BA95C9F712C0B13081F0C3D0B1E0FB
:105450000895C0C0672F782F8827B85F39F0B93F0B
:10546000CCF3869577956795B395D9F73EF49095EB
:105470008095709561957F4F8F4F9F4F0895E89469
:1054800009C097FB3EF490958095709561957F4F8C
:105490008F4F9F4F9923A9F0F92F96E9BB2793953A
:1054A000F695879577956795B795F111F8CFFAF44A
:1054B000BB0F11F460FF1BC06F5F7F4F8F4F9F4F7B
:1054C00016C0882311F096E911C0772321F09EE8D9
:1054D000872F762F05C0662371F096E8862F70E03F
:1054E00060E02AF09A95660F771F881FDAF7880F19
:1054F0009695879597F90895990F0008550FAA0B6F
:10550000E0E8FEEF16161706E807F907C0F01216D6
:105510001306E407F50798F0621B730B840B950BD9
:1055200039F40A2661F0232B242B252B21F408952E
:105530000A2609F4A140A6958FEF811D811D0895CB
:1055400097F99F6780E870E060E008959FEF80EC36
:10555000089500240A9416161706180609060895D9
:1055600000240A9412161306140605060895092E3F
:105570000394000C11F4882352F0BB0F40F4BF2BAE
:1055800011F460FF04C06F5F7F4F8F4F9F4F0895EE
:1055900057FD9058440F551F59F05F3F71F04795E4
:1055A000880F97FB991F61F09F3F79F087950895C9
:1055B000121613061406551FF2CF4695F1DF08C0E8
:1055C000161617061806991FF1CF86957105610505
:1055D00008940895E894BB2766277727CB0197F9AD
:1055E00008958ADF08F48FEF08950EF0AAC0AECFB9
:1055F0006894A6CFD5DFC8F39923D1F3C6F3DF9320
:10560000CF931F930F93FF92C92FDD2788232AF092
:105610002197660F771F881FDAF720E030E040E817
:105620005FEB9FE3883920F0803E30F021968F7742
:1056300025DEE8E6F0E003C021DEE5E9F0E091D008
:105640008B01BE01EC01FB2E6F5771097595771F19
:10565000880B990B16DF28E132E741E35FE316D0B0
:10566000AF2D9801AE01FF900F911F91CF91DF9167
:1056700016DE7DCF0BD07BCF6CDF28F071DF18F00A
:10568000952309F05DCF62CF1124A5CF81DFA0F370
:10569000959FD1F3950F50E0551F629FF001729FC7
:1056A000BB27F00DB11D639FAA27F00DB11DAA1FE6
:1056B000649F6627B00DA11D661F829F2227B00D33
:1056C000A11D621F739FB00DA11D621F839FA00DBE
:1056D000611D221F749F3327A00D611D231F849F0E
:1056E000600D211D822F762F6A2F11249F57504065
:1056F0008AF0E1F088234AF0EE0FFF1FBB1F661F00
:10570000771F881F91505040A9F79E3F510570F0B8
:1057100017CF61CF5F3FECF3983EDCF3869577952A
:105720006795B795F795E7959F5FC1F7FE2B880FB3
:10573000911D9695879597F90895DEDE880B990B54
:1057400008959F3F49F0915028F486957795679585
:10575000B7959F5F80389F4F880F9695879597F9EB
:105760000895DF93CF931F930F93FF92EF92DF92F1
:105770007B018C01689405C0DA2EEF0187DFFE0102
:10578000E894A5912591359145915591AEF3EF019E
:1057900086DDFE019701A801DA9479F7DF90EF909A
:1057A000FF900F911F91CF91DF910895629FD001DB
:1057B000739FF001829FE00DF11D649FE00DF11DCC
:1057C000929FF00D839FF00D749FF00D659FF00D7B
:1057D0009927729FB00DE11DF91F639FB00DE11D68
:1057E000F91FBD01CF0111240895AA1BBB1B51E174
:1057F00007C0AA1FBB1FA617B70710F0A61BB70B41
:10580000881F991F5A95A9F780959095BC01CD01E5
:10581000089597FB092E07260AD077FD04D0E5DF0F
:1058200006D000201AF4709561957F4F0895F6F721
:10583000909581959F4F0895A1E21A2EAA1BBB1B3C
:10584000FD010DC0AA1FBB1FEE1FFF1FA217B3074C
:10585000E407F50720F0A21BB30BE40BF50B661F62
:10586000771F881F991F1A9469F760957095809526
:1058700090959B01AC01BD01CF01089597FB092EC6
:1058800005260ED057FD04D0D7DF0AD0001C38F40F
:1058900050954095309521953F4F4F4F5F4F08955C
:1058A000F6F790958095709561957F4F8F4F9F4F3C
:1058B0000895EE0FFF1F0590F491E02D09949111CA
:1058C00006C0803219F089508550D0F70895992785
:1058D000882708952F923F924F925F926F927F9206
:1058E0008F929F92AF92BF92CF92DF92EF92FF92F0
:1058F0000F931F93CF93DF93CDB7DEB7CA1BDB0B9C
:105900000FB6F894DEBF0FBECDBF09942A88398840
:1059100048885F846E847D848C849B84AA84B98447
:10592000C884DF80EE80FD800C811B81AA81B98153
:10593000CE0FD11D0FB6F894DEBF0FBECDBFED0167
:065940000895F894FFCF6A
:105946002E0001FF00000000101DCB240000000007
:10595600521DCB249C1D941D7D1D00401454000037
:0E59660000004224CB24D6230724E72330245C
:00000001FF
