:100000000C948D020C94FF210C942C220C94BB02B6
:100010000C94BB020C94BB020C94BB020C94A7285A
:100020000C94BB020C94BB020C94BB020C94BB025C
:100030000C94BB020C94BB020C94BB020C94BB024C
:100040000C9459220C94BB020C94B5240C94E92412
:100050000C94BB020C94BB020C94BB020C94BB022C
:100060000C94BB020C94BB0208000000BE92244911
:10007000123EABAAAA2ABECDCCCC4C3E00000080DA
:10008000BEABAAAAAA3E00000000BF000000803F4D
:100090000000000000084178D3BB4387D1133D190D
:1000A0000E3CC3BD4282AD2B3E68EC8276BED98F3A
:1000B000E1A93E4C80EFFFBE01C4FF7F3F0000007E
:1000C00000007265626F6F7400636F6E666967002F
:1000D0007365743F74743D007365743F666E3D00D4
:1000E0007365743F616C3D007365743F70630073AA
:1000F00065743F706E007365743F7069640073656A
:10010000743F706F3D007365743F6C643D007365B0
:10011000743F6C623D007365743F73703D00484DE1
:100120004C442C00484D504F00484D504400484D21
:10013000504E00484D524D00484D50432C00484D04
:10014000414C00484D464E2C00554349442C4865CF
:10015000617465724D657465722C323031323132A2
:10016000323400484D53552C000A050A050A32075F
:100170000F1F1F1F1F1F1F1F1F1F00000000001C3D
:100180001E1F1F1F1F1F1F1F1F1F1F1F1F0F0700C7
:10019000000000001F1F1F1F1F1F1F1F1F1E1C1FEF
:1001A0001F1F0000001F1F1F000000001F1F1F480F
:1001B0004D4C472C000EF0E10006F000000080409E
:1001C000000040400AD7A33B0000A04000327F7FE0
:1001D0007F7F460A6400FF50726F62652020000036
:1001E000000000000100D8FF38FF00002CE1713949
:1001F000117A7839B6AE073400401C46484D4C425F
:100200002C002D204E6F205069742050726F626553
:10021000202D00252D313273253364DF00506974A1
:100220003A253364DF25632025632533752525258D
:1002300063005069743A253364DF2563204C696498
:10024000253375002A2A20414C41524D2048494708
:1002500048202A2A002A2A20414C41524D204C4F46
:100260005720202A2A000001020304050102202051
:100270000520060602030707060602070705030412
:1002800002202005FF0606070705000606030705EE
:1002900001010220002000060203070500060220DB
:1002A000200502C21A0503C21A0504C21A0505C2B6
:1002B0001A0106B21A0008811A0A12501A0A1631D7
:1002C000190A1731190A1831190A1931190A0C1C9F
:1002D0001A0A0D1C1A0A0E1C1A0A0F1C1A0A10F40C
:1002E000190A11CA190A13A9190A157B190A144601
:1002F000190A1BEF180A1F7D180A2BC817140000D3
:100300000000022803020208020404032804030276
:100310000803040204280204020804040305280256
:100320000502080504040821020802121221021223
:10033000021414210214021515210215020C0C21BD
:10034000020C020D0D21020D020E0E21020E020FF3
:100350000F21020F021010210210021111210211AF
:1003600002131321021302080000004C6F77204192
:100370006C726D20253564DF25630048696768204D
:10038000416C726D20253464DF2563004C6F77204B
:10039000616C61726D3F20004869676820616C6123
:1003A000726D3F20004E6F20005965730025336445
:1003B0002525004C4344206272696768746E65733A
:1003C00073007370656564202533642525004D61D5
:1003D00078696D756D206175746F2066616E00526D
:1003E0006573657420636F6E6669673F00253364CB
:1003F000207365636F6E6473004C6964206F706571
:100400006E2074696D657200253364252520626550
:100410006C6F7720736574004C6964206F70656E33
:10042000206F6666736574004F6666736574202579
:100430003464DF256300762070726F626520636F1D
:100440006E6669672076004D616E75616C2066612D
:100450006E206D6F646500253364DF25630053658E
:10046000742074656D70657261747572653A0048C8
:100470004D52462C3235352C302C00000000002423
:100480000027002A0000000000250028002B0000A3
:1004900000000023002600290004040404040404CE
:1004A0000402020202020203030303030301020423
:1004B00008102040800102040810200102040810E6
:1004C00020000000070002010000030406000000F5
:1004D000000000000002494E46494E4954594E4121
:1004E0004ECDCCCC3D0AD7233C17B7D13877CC2B97
:1004F000329595E6241FB14F0A000020410000C844
:100500004200401C4620BCBE4CCA1B0E5AAEC59DC4
:100510007400230D451B5E1E4F2611241FBECFEF16
:10052000D8E0DEBFCDBF14BEE0E6F0E088E1808316
:10053000108211E0A0E0B1E0E6E1FDE502C0059027
:100540000D92AA33B107D9F713E0AAE3B1E001C0D5
:100550001D92AC3AB107E1F715E0CAE1D5E004C05D
:100560002297FE010E94432EC231D107C9F70E9493
:10057000AC0C0C94892E0C940000662777270C9401
:100580007405FC0188279927E89421912032E9F32A
:10059000293010F02E30C8F32B3241F02D3239F4CF
:1005A000689404C00E945E03820F911D2191205324
:1005B0002A30C0F31EF4909581959F4F0895FB015A
:1005C000DC0102C005900D9241505040D8F70895CB
:1005D000FB01DC014150504030F08D9105908019B5
:1005E00019F40020B9F7881B990B0895FB01DC0171
:1005F00002C001900D9241505040D8F70895DC019F
:1006000001C06D9341505040E0F70895FC01819185
:10061000861721F08823D9F7992708953197CF01BC
:100620000895A0E0B0E0E7E1F3E00C945C2E7C01DB
:10063000EB018A01690109C0CE012196F6010995F5
:10064000F70181937F010150104001151105A1F7B9
:10065000CDB7DEB7E8E00C94782EA0E0B0E0E3E39D
:10066000F3E00C945C2EEC017B018A01690109C066
:10067000CE012196F70161917F01F60109950150A4
:10068000104001151105A1F7CDB7DEB7E8E00C94D5
:10069000782EDF92EF92FF920F931F93D72E7A015D
:1006A0008C01FA010995C80101966D2DF701099594
:1006B0001F910F91FF90EF90DF9008957AE0979F40
:1006C000902D879F802D910D11240895AEE0B0E00C
:1006D000ECE6F3E00C94602E0D891E898F89988DCD
:1006E00097FF02C080E090E801979E838D831A8374
:1006F00009838EE08C839E01255E3F4FCE010196DB
:10070000698D7A8DA9010E9497034D815E8157FD05
:100710000AC02F813885421753070CF49A01020F43
:10072000131FF80110822E96E4E00C947C2EABE0AF
:10073000B0E0EDE9F3E00C94522E3C012B015A019C
:10074000FC0117821682838181FD03C06FEF7FEF6A
:10075000C6C19AE0892E1E010894211C311CF301A8
:100760002381F20123FD859123FF81912F018823AD
:1007700009F4B2C1853239F423FD859123FF8191BB
:100780002F01853229F490E0B3010E940207E7CFE0
:10079000982FFF24EE249924FFE1FF15D0F09B321F
:1007A00069F09C3228F4903259F0933291F40EC0E3
:1007B0009D3249F0903369F441E024C052E0F52ABB
:1007C00084E0F82A28C098E0F92A25C0E0E1FE2A52
:1007D00022C0F7FC29C0892F80538A3070F4F6FEBE
:1007E00005C0989C902C1124980E15C0E89CE02C14
:1007F0001124E80EF0E2FF2A0EC09E3229F4F6FC26
:100800006BC140E4F42A07C09C3619F450E8F52A7D
:1008100002C0983649F4F20123FD959123FF91918E
:100820002F01992309F0B8CF892F8554833018F010
:100830008052833038F444E050E0A40EB51E5FE3EC
:1008400059830FC0933631F0933779F0933509F01F
:1008500056C020C0F5018081898342E050E0A40E9B
:10086000B51E610101E010E012C0F501C080D18029
:10087000F6FC03C06FEF7FEF02C0692D70E042E02D
:1008800050E0A40EB51EC6010E94F7068C015FE77A
:10089000F52214C0F501C080D180F6FC03C06FEFD3
:1008A0007FEF02C0692D70E042E050E0A40EB51E5B
:1008B000C6010E94EC068C0150E8F52AF3FE07C041
:1008C0001AC080E290E0B3010E940207EA948E2DE4
:1008D00090E008171907A8F30EC0F601F7FC859100
:1008E000F7FE81916F0190E0B3010E940207E110D1
:1008F000EA94015010400115110579F7EAC09436C9
:1009000011F0993669F5F7FE08C0F50120813181B3
:100910004281538184E090E00AC0F5018081918199
:100920009C01442737FD4095542F82E090E0A80EAB
:10093000B91E9FE6F92257FF09C0509540953095A2
:1009400021953F4F4F4F5F4FE0E8FE2ACA01B901A2
:10095000A1012AE030E00E942E07D82ED21840C014
:10096000953729F41F2D1F7E2AE030E01DC01F2D72
:10097000197F9F3661F0903720F4983509F0ACC0AC
:100980000FC0903739F0983709F0A6C004C028E0AE
:1009900030E00AC0106114FD146020E130E004C0B2
:1009A00014FD166020E132E017FF08C0F5016081F8
:1009B00071818281938144E050E008C0F50180811B
:1009C0009181BC0180E090E042E050E0A40EB51EB1
:1009D000A1010E942E07D82ED2188FE7F82EF122FF
:1009E000F6FE0BC05EEFF522D91438F4F4FE07C012
:1009F000F2FC05C08FEEF82202C01D2D01C0192D9A
:100A0000F4FE0DC0FE01ED0DF11D8081803319F45F
:100A100099EEF92208C01F5FF2FE05C003C08F2DBA
:100A2000867809F01F5F0F2DF3FC14C0F0FE0FC095
:100A30001E1510F09D2C0BC09D2C9E0C911A1E2D86
:100A400006C080E290E0B3010E9402071F5F1E15FE
:100A5000C0F304C01E1510F4E11A01C0EE2404FF17
:100A60000FC080E390E0B3010E94020702FF1DC0A7
:100A700001FD03C088E790E00EC088E590E00BC060
:100A8000802F867891F001FF02C08BE201C080E2E6
:100A9000F7FC8DE290E0B3010E94020706C080E3FC
:100AA00090E0B3010E9402079A94D914C0F3DA943B
:100AB000F101ED0DF11D808190E0B3010E9402076C
:100AC000DD20A9F706C080E290E0B3010E94020792
:100AD000EA94EE20C1F743CEF30166817781CB0122
:100AE0002B96E2E10C946E2EA0E0B0E0EAE7F5E090
:100AF0000C94582EEC015B016115710519F0FB0196
:100B000091838083F9908F2D90E00E94472E892B4E
:100B1000C9F7FDE2FF1621F4F990EE24E39405C035
:100B20002BE2F21609F4F990EE248E0101501040E8
:100B3000C80166ED74E043E050E00E94D406892BC2
:100B400001F58E010E5F1F4FC80169ED74E045E0AD
:100B500050E00E94D406892B19F48E01095F1F4FC3
:100B6000A114B10419F0F50111830083E0FC04C065
:100B700070E090E080E814C070E090E080E86FEFF3
:100B800008C1C8016EED74E043E050E00E94D40655
:100B9000892B69F4A114B10429F470E090E080EC91
:100BA0006FE7F7C02296F501D183C083F6CF882482
:100BB000992440E050E060E070E0EF2DE053EA302F
:100BC000A0F5F2E0EF2A8E2D90E09C0128703070A5
:100BD000E2FE06C0232B79F50894811C911C2BC0E2
:100BE000232B19F0089481089108DB01CA0112E057
:100BF000880F991FAA1FBB1F1A95D1F7480F591FBD
:100C00006A1F7B1F440F551F661F771F4E0F511D14
:100C1000611D711D483929E9520729E9620729E157
:100C2000720748F084E0E82A06C0EE3F31F4E3FCA6
:100C300039C098E0E92AF990C0CFE53311F0E531E9
:100C400089F529912D3219F4E0E1EE2A05C02B3205
:100C500019F081E090E003C0299182E090E0E22F5A
:100C6000E053EA3018F0C81BD90B1CC020E030E07C
:100C7000FCE020383F075CF4C901880F991F880FFA
:100C8000991F280F391F220F331F2E0F311DE99195
:100C9000E053EA3068F3E4FE03C0309521953F4FFE
:100CA000820E931ECE2CDD24E1FE07C0A114B104F8
:100CB00021F02197F501D183C083CB01BA010E94B5
:100CC0001B2C7B018C01F3E0CF22DD2423E0C21634
:100CD000D10421F417FB109517F9109557016801FD
:100CE000C801B70120E030E040E050E00E947E2BD8
:100CF000882309F44AC097FE0DC025EFE22E24E0B8
:100D0000F22E9094819491089394C0E2D0E000E098
:100D100010E012C09DE0E92E95E0F92EF6CFF70124
:100D20002591359145915491C601B5010E94162D2A
:100D30005B016C018C1A9D0A8C169D0684F7D59573
:100D4000C7950F5F1F4F0630110529F08CEF9FEFFD
:100D5000E80EF91EF1CFC501D6017C018D018C2D65
:100D6000880F8D2D881F8F3F51F0C601B50120E0FF
:100D700030E040E050E00E947E2B882331F482E294
:100D800090E09093AB038093AA037E2D9F2D802F3C
:100D9000612F272F392F482F562FB901CA01CDB700
:100DA000DEB7ECE00C94742EFB01DC0141505040A6
:100DB00088F08D9181341CF08B350CF4805E659148
:100DC00061341CF06B350CF4605E861B611171F3AD
:100DD000990B0895881BFCCFFC0105906150704071
:100DE0000110D8F7809590958E0F9F1F0895FC01F4
:100DF0006150704001900110D8F7809590958E0F4A
:100E00009F1F08950F931F93CF93DF938C01EB01E6
:100E10008B8181FF1BC082FF0DC02E813F818C81A1
:100E20009D812817390764F4E881F9810193F983DA
:100E3000E88306C0E885F985802F0995892B31F470
:100E40008E819F8101969F838E8302C00FEF1FEFDB
:100E5000C801DF91CF911F910F910895FA01AA2740
:100E6000283051F1203181F1E8946F936E7F6E5FED
:100E70007F4F8F4F9F4FAF4FB1E03ED0B4E03CD09B
:100E8000670F781F891F9A1FA11D680F791F8A1F7E
:100E9000911DA11D6A0F711D811D911DA11D20D0E5
:100EA00009F468943F912AE0269F11243019305D9F
:100EB0003193DEF6CF010895462F4770405D419390
:100EC000B3E00FD0C9F7F6CF462F4F70405D4A33DD
:100ED00018F0495D31FD4052419302D0A9F7EACFA5
:100EE000B4E0A6959795879577956795BA95C9F7D4
:100EF00000976105710508959B01AC010A2E0694C7
:100F00005795479537952795BA95C9F7620F731F7F
:100F1000841F951FA01D0895A62FB0E0FC01EA0FC5
:100F2000FB1F14824115510571F4FD01EE0FFF1FE7
:100F3000E80FF91F0190F081E02DF7FD0AC044276A
:100F400055274E1B5F0BAA0FBB1FA80FB91F4D9350
:100F50005C930895FC01608380E090E0A0ECBFE723
:100F6000868B978BA08FB18F828F938FA48FB58F35
:100F70000895FC01648313821282118280E090E064
:100F8000A0ECBFE7868B978BA08FB18F828F938F5A
:100F9000A48FB58F0895FC016115710519F41382B2
:100FA00012820EC08181882319F47383628308C082
:100FB00082819381009721F0860F971F938382830C
:100FC00081818F5F81830895EF92FF920F931F932A
:100FD000CF93DF93EC017A018B01CB01BA0120E0C2
:100FE00030E040EA51EC0E947E2B181654F4C80100
:100FF000B70120E030E04AEF53E40E94CD2C1816F0
:101000004CF480E090E0A0ECBFE78E8B9F8BA88F24
:10101000B98F2FC080914C01863499F4C801B70173
:1010200026E636E646EE5FE30E94162D20E030E02D
:1010300040E052E40E941A2B6E8B7F8B888F998F31
:1010400004C0EE8AFF8A088F198F6D81772767FDAC
:101050007095872F972F0E941D2C9B01AC016E89E4
:101060007F89888D998D0E941A2B6E8B7F8B888F3C
:10107000998FDF91CF911F910F91FF90EF9008957D
:10108000FC01608380E8828786E4828B80E090E0C8
:10109000A0ECBFE787A790ABA1ABB2AB0895DC0192
:1010A00020E05696ED91FC9157978481861709F4BC
:1010B00021E05896ED91FC9159978481861709F4A7
:1010C0002F5F5A96ED91FC915B978481861709F406
:1010D0002F5F5C96ED91FC915D978481861709F4F2
:1010E0002F5F822F90E008951F93CF93DF93EC0141
:1010F000E88DF98D26893789408D518DCA01B90156
:101100000E94792D8823C9F0EA8DFB8D26893789C5
:10111000408D518DCA01B9010E94792D882369F053
:10112000EC8DFD8D26893789408D518D10E0CA01E7
:10113000B9010E94792D882309F411E0812FDF91F4
:10114000CF911F910895FC018485958594AB83AB65
:1011500016820895FC01708767831682118680E0ED
:1011600090E0A0E0B0E086879787A08BB18B14AAAF
:1011700013AA0895FC0181E0818777FF02C01182E4
:101180000895653671051CF084E6818308956183B6
:101190000895FC01CB016E31710510F48EE190E0F1
:1011A000958784870895CF93DF93EC01E62FF0E0D5
:1011B000EE0FFF1FEE0FFF1FE80FF91F278F30A361
:1011C00041A352A3623041F480E090E0A0E0B0E09F
:1011D0008E879F87A88BB98BDF91CF910895FC01F3
:1011E000663421F0623511F0633409F4628B08959E
:1011F0001F93182F8091CC02882351F481E08093B3
:10120000CC021092CD0286E793E064E20E9416269B
:101210008091CD0281278093CD0286E793E0612FF4
:101220000E9416261F910895BF92CF92DF92EF92EF
:10123000FF920F931F93CF93DF936C01FC016781A3
:10124000708588EC92E04AE050E00E94BB278CE277
:101250000E94F808E601BB24EE89FF89E688F7883A
:10126000008D118DC801B701A80197010E94792D49
:10127000882349F488EC92E0B801A70121E030E02E
:101280000E946C2803C085E50E94F8088CE20E9449
:10129000F808B3942296F4E0BF16F1F688EC92E0D9
:1012A000F60161814AE050E00E9469278CE20E94C9
:1012B000F808F60167A570A981A992A90E94EA2BF6
:1012C0009B01AC0188EC92E0B9014AE050E00E9439
:1012D000BB278CE20E94F808F60163A974A988EC88
:1012E00092E04AE050E00E945827DF91CF911F9191
:1012F0000F91FF90EF90DF90CF90BF900895AF9245
:10130000BF92CF92DF92EF92FF920F931F93CF93F2
:10131000DF93EC016981662309F47DC08A819B819A
:1013200070E00E94DD2D19826115710509F46BC012
:1013300080E090E00E941B2C9B01AC0160E078EF04
:101340008FEF95E40E94822B20E030E040E85FE3DD
:101350000E94192B9B01AC016A897B898C899D892C
:101360000E94822B7B018C01F801D0904C0182E518
:10137000D81609F0A4C08091500190915101C8176E
:10138000D90709F49CC0C701D8018E8B9F8BA88F09
:10139000B98FCEC0C801B70120E030E04AEF53E476
:1013A0000E94CD2C18167CF186E4D81699F4C80159
:1013B000B70126E636E646EE5FE30E94162D20E0F2
:1013C00030E040E052E40E941A2B6E8B7F8B888FB6
:1013D000998F04C0EE8AFF8A088F198F6D81772755
:1013E00067FD7095872F972F0E941D2C9B01AC01E4
:1013F0006E897F89888D998D0E941A2B6E8B7F8BC9
:10140000888F998F08C080E090E0A0ECBFE78E8BBA
:101410009F8BA88FB98FEE88FF88088D198DC80122
:10142000B701A80197010E94792D882309F044C0D3
:10143000AA8CBB8CCC8CDD8CC601B501A6019501B4
:101440000E94792D882329F0EA8EFB8E0C8F1D8F48
:1014500016C0C801B701A60195010E94192B2DECF9
:101460003CEC4CE45DE30E94162D9B01AC01C601EF
:10147000B5010E941A2B6A8F7B8F8C8F9D8F6E898E
:101480007F89888D998D0E94EA2B2E8D3F8D1216B3
:1014900013062CF42617370714F081E08AA328A13D
:1014A00039A1121613060CF043C0621773070CF42F
:1014B0003FC081E08BA33CC01AA21BA239C0CF0160
:1014C0000E94D62C7B018C012E853F854889598945
:1014D0000E94162DA80197010E94162D2A853B8592
:1014E0004C855D850E941A2BA80197010E94162D3C
:1014F0002E813F81488559850E941A2B9B01AC01A2
:1015000060E070E080E89FE30E94822B23E333E9F0
:1015100048E853E40E94192B7B018C0120E030E065
:1015200040EA51EC0E947E2B18160CF06CCF32CFA3
:10153000DF91CF911F910F91FF90EF90DF90CF90AF
:10154000BF90AF900895FF920F931F93CF93DF93B7
:10155000EC0100E010E0F0E4FF2E88810E944D23B2
:101560009C0101978E5F934068F4020F131FFA9459
:10157000A1F79801E3E036952795EA95E1F7211563
:10158000310519F41B821A820BC08981882331F03E
:101590008A819B81009721F0280F391F3B832A8382
:1015A00089818F5F8983DF91CF911F910F91FF9088
:1015B00008959F92AF92BF92CF92DF92EF92FF92E7
:1015C0000F931F93CF93DF93EC010E94A1229B0105
:1015D000AC018A819B81B901681B790B6D3771055C
:1015E00008F46CC12A833B834C835D836E018E01BA
:1015F000FF24D8015696ED91FC9157978481813054
:1016000019F4CF010E94A30AF3940E5F1F4FB4E0B8
:10161000FB1679F78A858F5F8A87883008F44EC178
:1016200010E0F601868997890E947F091F5F42E0DA
:1016300050E0C40ED51E1430A1F78985882309F027
:10164000DEC099801982EE89FF89A688B788C08C90
:10165000D18CC601B501A60195010E94792D882380
:1016600009F07AC08BA99CA9892B09F075C06F81FC
:101670007885882777FD8095982F0E941D2CA601DC
:1016800095010E94192B7B018C0120E030E040E0A5
:1016900050E00E94CD2C18161CF48B89981660F02F
:1016A000C801B70120E030E040E050E00E947E2B0E
:1016B0008823B4F49920A1F0C801B7012FA138A55F
:1016C00049A55AA50E94162D9B01AC016E857F8508
:1016D000888999890E941A2B6E877F87888B998BBE
:1016E000C801B7012BA13CA14DA15EA10E94162DFE
:1016F0002F8D38A149A15AA10E941A2B2E853F8512
:10170000488959890E941A2B7B018C01EE89FF8937
:10171000628D738D848D958DA60195010E94192B84
:101720002BA53CA54DA55EA50E94162D9B01AC01E5
:10173000C801B7010E941A2B0E94EA2B9B01AC0141
:10174000EB898E2F90E06817790714F0E98304C0C5
:10175000121613060CF46983EE89FF89668977896E
:10176000808D918D0E94EA2BAB016F8178854617A1
:101770005707C4F08C859D852BA93CA9821B930B30
:101780004F9780F08E81882351F481E08E8380E032
:1017900090E0A0E0B0E08E879F87A88BB98B1CAA51
:1017A0001BAA2DC08BA99CA9009721F001979CAB87
:1017B0008BAB25C08E81882311F19B01241B350B37
:1017C00084E690E0DC012A9FC0012B9F900D3A9F98
:1017D000900D11240E94F12D8E8D90E068177907ED
:1017E00074F06FA578A989A99AA90E94EA2B6A3595
:1017F00071052CF48C859D859CAB8BAB1E82698119
:1018000070E080E090E00E941B2C5B016C01EFA473
:10181000F8A809A91AA9C801B701A80197010E944F
:10182000792D882329F0AFA6B8AAC9AADAAA16C0CA
:10183000C601B501A80197010E94192B29E838E8D3
:1018400048E05CE30E94162D9B01AC01C801B70182
:101850000E941A2B6FA778AB89AB9AAB99812C8920
:10186000921710F01B8616C03B858AE0989FC00136
:101870001124622F70E00E94DD2D832F90E08617E7
:10188000970708F020E0832F8F5F8B878A3008F05E
:101890001B86922F8D89882319F08B89891B982F9D
:1018A0008FEF989FC001112464E670E00E94DD2D47
:1018B00088810E946F231A8681E001C080E0DF9159
:1018C000CF911F910F91FF90EF90DF90CF90BF903D
:1018D000AF909F900895CF93DF93FC01DB011D969D
:1018E0008C911D9784831E968C911E9785839F01F2
:1018F0002A5F3F4FAB014B5E5F4F80E1EA010990E9
:10190000AE01E90109929E018150C1F71F968D91A8
:101910009C91509712A2009741F4268D378D37FD88
:1019200006C088279927821B930B978F868F519625
:101930006D917C91529713A26115710541F480A1BC
:1019400091A197FD06C066277727681B790B71A3C5
:1019500060A3DF91CF9108950E9412230E94421448
:101960000E94EC16FDCF9C01F999FECF32BD21BD3E
:10197000F89A80B508959C01F999FECF1FBA32BD3F
:1019800021BD60BD0FB6F894FA9AF99A0FBE08957A
:10199000982F8430D8F4E82FF0E0EE0FFF1FE05BC3
:1019A000FE4F0190F081E02D6583F999FECF1FBABB
:1019B00085E2989FC0011124825B90E092BD81BDB9
:1019C00060BD0FB6F894FA9AF99A0FBE089577FFA2
:1019D00003C060E070E005C06536710514F064E690
:1019E00070E0813071F0813018F0823059F51AC002
:1019F000262F60934E01F999FECF1FBA8EE190E039
:101A000008C0262F60934D01F999FECF1FBA8FE1D0
:101A100090E092BD81BD20BD0FB6F894FA9AF99A74
:101A20000FBE0895262F60934F01F999FECF1FBA7C
:101A300080E290E092BD81BD20BD0FB6F894FA9A85
:101A4000F99A0FBE08958CE791E065E00E94AA071D
:101A500080EA91E064E00E94AA0784EC91E063E0F0
:101A60000E94AA0788EE91E062E00E94AA078AE33A
:101A700091E063E00E9440088FE691E064E042E07C
:101A80000E94D31F85E59DE090931202809311027E
:101A900080E880931302E6E1F2E08FEF80833996CD
:101AA00092E0EA33F907D1F708958F929F92AF92AF
:101AB000BF92CF92DF92EF92FF920F931F93CF933B
:101AC000DF937C016B0100E511E039E3A32E32E0E6
:101AD000B32E26E0822E912C86229722F801C08117
:101AE000D1818C81823031F5F50190819F3721F0D1
:101AF000F70182819817F1F481149104D9F0F7016C
:101B000020813181878182FF2BC02115310541F170
:101B1000B901882777FD8095982F0E941D2C20E021
:101B200030E040E251E40E94822BAB01BC01CE01C7
:101B30000E94E4070E5F1F4F0894A11CB11CF1E046
:101B400008351F0759F6F70111821082F3E0CF2202
:101B5000DD24CD2861F08CE092E00E94E81C07C0F3
:101B6000220F331FCE01B9010E94CB07E3CFDF91D3
:101B7000CF911F910F91FF90EF90DF90CF90BF908A
:101B8000AF909F908F900895EF92FF921F93CF9305
:101B9000DF93EC017B0110E013C08C3219F41F5F5E
:101BA00021960EC0CE010E94C102BC01812FF70117
:101BB000099501C021968881882311F08C32D1F7D4
:101BC0008881882351F7DF91CF911F91FF90EF908B
:101BD0000895CF93DF93EC01FE0121968491882331
:101BE00019F00E94F808F8CFDF91CF91089586E7A9
:101BF00093E06AE20E9416266091CD0262956F70B2
:101C00006A3010F4605D01C0695C86E793E00E9471
:101C100016266091CD026F706A3010F4605D01C0CD
:101C2000695C86E793E00E94162686E793E06AE007
:101C30000E9416261092CC0208950F931F938EE1F6
:101C400091E00E94E90D08EC12E0C8016091580192
:101C50004AE050E00E9469278CE20E94F8086091F7
:101C6000460170914701C8014AE050E00E945827A0
:101C70000E94F70D1F910F9108950F931F93CF931B
:101C8000DF9383E391E00E94E90DC0E5D1E009E331
:101C900012E08CE20E94F808E881F98184818230A8
:101CA00041F488EC92E0F80160814AE050E00E9443
:101CB000692722960F5F1F4FF1E0C835DF0749F70C
:101CC0000E94F70DDF91CF911F910F9108950F930F
:101CD0001F9383E491E00E94E90D08EC12E0C80133
:101CE00060914E014AE050E00E9469278CE20E9418
:101CF000F808C80160914D014AE050E00E94692750
:101D00008CE20E94F808C80160914F014AE050E05F
:101D10000E9469270E94F70D1F910F910895282FA7
:101D200080934D01F999FECF1FBA8FE190E092BDEB
:101D300081BD20BD0FB6F894FA9AF99A0FBE0E94A1
:101D4000670E08950F931F938CEF91E00E94E90DA9
:101D500008EC12E0C80160917B014AE050E00E946B
:101D600069278CE20E94F808C801609184024AE069
:101D700050E00E9469270E94F70D1F910F9108956E
:101D8000CF93DF9384E291E00E94E90DC0E5D1E0BA
:101D90008CE20E94F808E991F9916581772767FD47
:101DA000709588EC92E04AE050E00E94BB2781E009
:101DB000C835D80769F70E94F70DDF91CF910895D4
:101DC000982F8430D8F4E82FF0E0EE0FFF1FE05B8F
:101DD000FE4F0190F081E02D6583F999FECF1FBA87
:101DE00085E2989FC0011124825B90E092BD81BD85
:101DF00060BD0FB6F894FA9AF99A0FBE0E94C00E11
:101E000008950F931F93CF93DF938EE391E00E9489
:101E1000E90D00E511E0F801C081D1818CE20E945A
:101E2000F8086E8D7F8D88EC92E04AE050E00E94C9
:101E3000BB278AA1882319F08CE40E94F8088CE261
:101E40000E94F80868A179A188EC92E04AE050E08D
:101E50000E94BB278BA1882319F088E40E94F80810
:101E60000E5F1F4FF1E008351F07A9F60E94F70D1E
:101E7000DF91CF911F910F910895982F843060F4D6
:101E800085E2989FC0011124805C90E04DE050E015
:101E90002BEB3CE00E942D030895CF93DF9389E262
:101EA00091E00E94E90DC9E5D1E08CE20E94F808BA
:101EB000499159916991799188EC92E028E030E05C
:101EC0000E946C2881E0C936D80779F70E94F70D87
:101ED000DF91CF9108959F92AF92BF92CF92DF9200
:101EE000EF92FF920F931F93CF93DF93182F88E306
:101EF00091E00E94E90D88EC92E0612F4AE050E009
:101F00000E9469278CE20E94F808E12FF0E0EE0FB2
:101F1000FF1FE05BFE4FA080B180E501CC24EE8086
:101F2000FF80088519859924C801B70120E030E0B9
:101F300040E050E00E947E2B882334F4992493944F
:101F400017FB109517F91095DD240BC0DA94C80122
:101F5000B70120E030E040E251E40E94162D7B0101
:101F60008C01C801B70120E030E040E85FE30E9447
:101F70007E2B87FDEBCF0BC0D394C801B70120E0C7
:101F800030E040E251E40E94822B7B018C01C801C9
:101F9000B70120E030E040E251E40E94CD2C87FF01
:101FA000EBCF992021F017FB109517F9109588ECCD
:101FB00092E0B801A70127E030E00E946C2885E696
:101FC0000E94F8086D2D772767FD709588EC92E0E8
:101FD0004AE050E00E94BB278CE20E94F808C394BC
:101FE000249684E0C81609F09ACF88EC92E0F501B7
:101FF00064814AE050E00E9469270E94F70DDF915A
:10200000CF911F910F91FF90EF90DF90CF90BF90F5
:10201000AF909F9008958AE391E062E00E944F089C
:10202000892B29F08CE092E063E00E94551D089511
:10203000E82FF0E0E75CFD4F6083F999FECF1FBA0F
:1020400090E0499692BD81BD60BD0FB6F894FA9AB2
:10205000F99A0FBE0E943D0E0E940B10089589E46C
:1020600091E00E94E90D88EC92E062E40E94C926AA
:102070000E94F70D0895EF92FF920F931F93DF9345
:10208000CF9300D0CDB7DEB7AB01F82EF694EF2D8D
:10209000F0E0EE0FFF1FE05BFE4F00811181EE24A8
:1020A000E394E822C8014E966E2D0E948C0783E0CF
:1020B0008F1500F18E2D90E09C01215F3F4F220F84
:1020C000331F020F131FF801208131813A832983C6
:1020D000880F991F25E2F29E90011124820F815BE7
:1020E00090E0BE016F5F7F4F42E050E02BEB3CE0A1
:1020F0000E942D030F900F90CF91DF911F910F91B0
:10210000FF90EF90089580917E0260E070E00E9461
:102110003B100E94010F089583E691E00E94E90DB3
:102120008AE391E00E9414090E94F70D089589E066
:1021300061E00E94CF2389E061E00E940E2464E602
:1021400070E080E090E00E94AF2289E060E00E94B1
:102150000E2462E370E080E090E00E94AF220895D8
:10216000843070F465E2869FB0011124605C87E8DA
:1021700092E070E04DE050E023EB3CE00E94110360
:1021800008951F938EE291E00E94E90D10E0812FE7
:102190000E94B0108CE20E94F80888EC92E067E898
:1021A00072E00E94CE271F5F143089F70E94F70D5E
:1021B0001F910895CF93DF93EC011816190674F45C
:1021C00082E090E0BE014BEB5CE00E9449038AE3B1
:1021D00091E0BE010E94AA0820E009C06627772787
:1021E000681B790B8AE391E00E94BA0821E0F99913
:1021F000FECF1FBA87E190E092BD81BD20BD0FB632
:10220000F894FA9AF99A0FBEDF91CF9108958F92C0
:102210009F92AF92BF92CF92DF92EF92FF920F9375
:102220001F93CF93DF93EC01FC0101900020E9F7AD
:1022300031971E2F181B66E171E047E050E00E94C5
:10224000E802892B11F5CE0107960E94C1020E9477
:10225000DA10C10FD11D219708818AE391E0602F28
:102260000E94EF08033419F0063409F09CC1F99973
:10227000FECF1FBA8DE190E092BD81BD00BD0FB6CB
:10228000F894FA9AF99A0FBE8EC1CE016EE071E011
:1022900047E050E00E94E802892B49F4CE010796FE
:1022A0006FEA77E10E94C40D0E94A20E7CC1CE01AC
:1022B00066E071E047E050E00E94E802892B49F4B3
:1022C000CE01079660E073E10E94C40D0E941D0ECE
:1022D0006AC1CE016EEF70E047E050E00E94E80274
:1022E000892B49F4CE01079668EC7CE00E94C40D6E
:1022F0000E94C00E58C1CE0166EF70E047E050E08A
:102300000E94E802892B09F05CC11A3008F459C117
:10231000CE0109960E94BD029B01AC016F8164361B
:1023200079F065361CF4623609F506C0693631F07D
:102330006037E1F401E005C000E003C002E001C045
:1023400003E08AE391E0602F0E94D308602F70E0E1
:10235000660F771F660F771FCB010796675A7E4F70
:1023600044E050E02BEB3CE00E942D030E944D0F17
:102370001AC1193008F42FC18E8128968053BE01EE
:102380000E943D0F0E94C1100EC1193008F42DC1EA
:10239000AE8080EDA80E93E09A1508F404C128964B
:1023A00085E2A89EB02C112445E5842E8B0C99243F
:1023B000CA2CDD24CC0CDD1CE0E5F1E0CE0EDF1EE6
:1023C00031C0F3E0F91590F18C3229F49394219601
:1023D00084E0880E27C0F601E080F180092D10E02E
:1023E000CE010E94BD02000F111F000F111FF70147
:1023F000E00FF11F66837783808791870A5F1F4F05
:10240000E00EF11E882D90E0B70144E050E02BEB88
:102410003CE00E942D0301C021968881882311F0A1
:102420008C32D1F78881882361F654C0CE010E9496
:10243000C102082FAA2DB0E087FD22C0AA0FBB1F42
:10244000A05BBE4FED91FC911481101709F442C0BE
:10245000CF01602F0E94B907F999FECF1FBAFDE4A2
:10246000BF0E8B2D90E092BD81BD00BD0FB6F894DC
:10247000FA9AF99A0FBE123069F58A2D6FE728C0D3
:10248000182F1058FD01EE0FFF1FE05BFE4F01906B
:10249000F081E02D8481823029F4A75CBD4F8C91BE
:1024A0008117A1F0CF0162E00E94B907F999FECF30
:1024B0001FBA8DE4B80E8B2D90E092BD81BD82E0F5
:1024C00080BD0FB6F894FA9AF99A0FBE8A2D612F43
:1024D0000E9418108A2D0E946B0F65C0CE010796CE
:1024E0006BE370E10E94C40D0E94010F5CC0CE013D
:1024F00068ED70E047E050E00E94E802892B49F463
:10250000CE01079667EE7CE00E94C40D0E94670E24
:102510004AC0CE0160ED70E047E050E00E94E80262
:10252000892B39F4279688E992E0BE010E94721B3C
:102530003AC0CE0169EC70E046E050E00E94E8024B
:10254000892BD1F40E942F100E944D0F0E94670E1C
:102550000E94C11000E0802F0E946B0F0F5F0430BB
:10256000D1F70E94C00E0E941D0E0E94A20E0E9472
:10257000010F0E943D0E17C0CE0162EC70E045E0F5
:1025800050E00E94E802892B11F080E00DC087E046
:1025900060E00E940E24F89488E18093600089E056
:1025A00080936000FFCF81E0DF91CF911F910F9169
:1025B000FF90EF90DF90CF90BF90AF909F908F9063
:1025C0000895CE016FEE70E046E050E00E94E80210
:1025D000892B09F4CECECE0168EE70E046E050E0E3
:1025E0000E94E802892B09F4D0CECE0160EE70E0A3
:1025F00047E050E00E94E802892B09F078CF6ECFC7
:10260000CF93DF93482FEB0177FF02C0C0E0D0E00B
:102610004130B1F0413018F0423051F51EC02C2F3E
:10262000C0935801F999FECF1FBA84E090E092BDA3
:1026300081BD20BD0FB6F894FA9AF99A0FBE18C062
:102640008AE391E0BE010E94C90885E090E0BE01E6
:102650004BEB5CE00E9449030BC0CD2B29F08AE3D1
:1026600091E00E94A30804C010926E0110926D01C7
:10267000DF91CF910895CF93DF93EC01662321F092
:102680008FE691E00E94731FFE01219664916623FC
:1026900029F08FE691E00E94011FF6CFDF91CF91E4
:1026A0000895982F87FD02C080937B019F778FEF5D
:1026B000989FC001112464E670E00E94DD2D85E042
:1026C0000E946F230895AF92BF92CF92DF92EF9254
:1026D000FF920F931F93DF93CF93CDB7DEB7C9540B
:1026E000D0400FB6F894DEBF0FBECDBFC82ECE01CE
:1026F000039660E070E042E250E023EB3CE00E9491
:102700001103CC2029F48B819C818E50904F99F03D
:102710008E010D5F1F4FC80165EB71E042E250E092
:102720000E94DF0280E090E0B80142E250E02BEB33
:102730003CE00E942D036D817E818AE391E00E943E
:10274000AA088F8180935801688579858AE391E092
:102750000E94C908A9E5B1E0FE013A9680E1019026
:102760000D928150E1F78A8D882331F08AE391E060
:1027700060E070E00E94BA088B8D0E94511388A11E
:10278000833411F066E401C063E48AE391E00E94BF
:10279000EF088AA180934D0189A180934E018BA1FE
:1027A00080934F018CA1809384028C8D9D8DAE8D82
:1027B000BF8D8093390290933A02A0933B02B0936D
:1027C0003C02CE0101966EE370E042E050E023EB64
:1027D0003CE00E94110389819A818E50904F51F004
:1027E0008EE390E06EE070EF4BEB5CE00E944903FB
:1027F000CC24C394E0E5AE2EE1E0BE2E00E410E070
:1028000070E3D72E65E2E62EF12CEC0EFD1ECC20F7
:1028100089F0C70167ED71E045E250E00E94DF02F8
:10282000DBA6C801B70145E250E02BEB3CE00E947B
:102830002D0308C0C701B80145E250E023EB3CE09E
:102840000E941103F501819191915F01B7010E94EE
:102850006B0CD394F4E3DF1619F00B5D1F4FD7CF49
:10286000C75BDF4F0FB6F894DEBF0FBECDBFCF9171
:10287000DF911F910F91FF90EF90DF90CF90BF906D
:10288000AF9008951F93CF93DF930E94971086E730
:1028900093E040E056E960E070E00E94242586E77E
:1028A00093E06AE00E9416260E942F1087E061E004
:1028B0000E940E2487E061E00E94CF238CE791E024
:1028C000909351018093500180EA91E090935301DD
:1028D0008093520184EC91E09093550180935401D0
:1028E00088EE91E0909357018093560180E00E941A
:1028F0006313CFE6D1E010E08FE691E0612FAE01E7
:102900000E94C91E1F5F28961830B1F70E940B1055
:1029100088E992E065E00E94E21B0E949710DF9137
:10292000CF911F910895882381F080917F028F3F7E
:10293000B1F41092800210928102109282021092E1
:10294000830285E080937F0208958FEF80937F025A
:1029500086E00E94902880917B010E945113089587
:10296000CF92DF92EF92FF920F931F93DF93CF935B
:10297000CDB7DEB761970FB6F894DEBF0FBECDBFFF
:10298000D090A0028D2D8250853008F0B7C18FE61F
:1029900091E060E040E00E94EE1E86E0D81699F4D7
:1029A00081E00E94931480917E0280FD03C085E542
:1029B00092E002C084E492E060E00E943B13F09059
:1029C0007E02F69433C180E00E949314E091840269
:1029D000EF3F09F495C0F0E0EE0FFF1FE05BFE4F04
:1029E0000190F081E02DE688F788008D118DC801F7
:1029F000B701A80197010E94792D882309F080C0B2
:102A0000C801B70120E030E040E251E40E94162DF9
:102A10000E94EA2B77FF07C0CC24DD24C61AD70A10
:102A2000EE24E39402C06B01EE2430E1F32EC114D6
:102A3000D10419F498E09F1584F5C6016AE070E0AE
:102A40000E94DD2D8C01000F111F080F191F000FB0
:102A5000111F0A591D4FADEFFA0E8FE691E06F2D51
:102A600040E00E94EE1E8FE691E0B80143E00E9434
:102A7000A21E8FE691E06F2D41E00E94EE1E0D5FD9
:102A80001F4F8FE691E0B80143E00E94A21EC601ED
:102A90006AE070E00E94DD2D6B01FA948FE691E010
:102AA0006F2D40E00E94EE1E8FE691E060E20E94F2
:102AB000011F8FE691E06F2D41E00E94EE1EBCE009
:102AC000FB1631F48FE691E06EE20E94011FAFCF5A
:102AD000C114D10461F4E8E0EF154CF0EE2039F0B8
:102AE0008FE691E061E00E94011FEE2405C08FE6B1
:102AF00091E060E20E94011FFF2009F098CFFEC024
:102B0000E0915001F091510166897789808D918D16
:102B10000E94EA2B8B0140914301442309F0E5C058
:102B2000672B09F0E2C0CE01019662E072E041E15C
:102B300050E00E94DF0271C08DB79EB70C970FB6B0
:102B4000F8949EBF0FBE8DBFEDB7FEB73196CE0194
:102B50000196ADB7BEB712969C938E93119781E103
:102B600090E09383828382E392E09583848317834A
:102B7000068380914C01992787FD909591878087E6
:102B8000338722870E946603EDB7FEB73C9640C0AC
:102B9000442319F42BE53DE502C02EE53EE58DB753
:102BA0009EB740970FB6F8949EBF0FBE8DBFEDB78E
:102BB000FEB73196CE010196ADB7BEB712969C9383
:102BC0008E93119781E190E0938382838DE192E06F
:102BD000958384831783068380914C01992787FD11
:102BE000909591878087822F992787FD909593876D
:102BF000828780913B0184871586832F992787FDE3
:102C00009095978786870E946603EDB7FEB770960A
:102C10000FB6F894FEBF0FBEEDBF8FE691E0BE0188
:102C20006F5F7F4F0E94CE27FD2CFA946E010894AF
:102C3000C11CD11CF3E0FF1508F441C08F2D0E9488
:102C4000B0108DB79EB70A970FB6F8949EBF0FBE0F
:102C50008DBF0DB71EB70F5F1F4FADB7BEB7129632
:102C6000DC92CE92119781E190E0F8019383828308
:102C700083E192E09583848387E892E0978386835B
:102C8000EF2DF0E0EE0FFF1FE05BFE4F0190F081B3
:102C9000E02D66897789808D918D0E94EA2BD8017D
:102CA00019967C936E9318970E946603EDB7FEB752
:102CB0003A960FB6F894FEBF0FBEEDBF08C0C6012E
:102CC00060E270E041E150E00E94FF02198A8FE665
:102CD00091E060E041E00E94EE1E8FE691E0BE01CF
:102CE0006F5F7F4F0E94CE2709C020916D01309108
:102CF0006E012115310509F44BCF1ECF61960FB639
:102D0000F894DEBF0FBECDBFCF91DF911F910F9121
:102D1000FF90EF90DF90CF9008950E94B0148091C3
:102D20007D028F5F80937D0290E08F719070892B80
:102D300021F48CE092E00E94E81C0E948C1020910B
:102D40006D0130916E01A0E5B1E090E00EC083A16D
:102D50008823E9F181E0990F980F90937E020E94F9
:102D6000010F88E992E066E012C02115310579F57E
:102D7000ED91FC91119782A1882349F380E0EBCF7C
:102D80008091A002863029F488E992E062E00E94F6
:102D9000E21B40E080916D0190916E01892B09F05A
:102DA00041E08FE691E060E00E94851E40E0809166
:102DB0003B01811141E08FE691E061E00E94851EB8
:102DC0008CE092E060913B010E949F1C08959F5F00
:102DD0001296943051F6D4CFDF92EF92FF920F9378
:102DE0001F93EDE3F2E001900020E9F73197ED53F6
:102DF000F2401E2F21C086E793E00E94DB258A3037
:102E000011F08D3059F4112391F080913D028F32F1
:102E100069F48EE392E00E94071108C0E12FF0E010
:102E2000E35CFD4F80831F5F103408F010E0E12F5A
:102E3000F0E0E35CFD4F108286E793E00E94AA2554
:102E4000892BC9F68CE092E00E94C81D882359F0B6
:102E500089E061E00E940E246AE070E080E090E08A
:102E60000E94AF2204C089E060E00E940E2488E93D
:102E700092E00E94221C8AE391E00E94D90A8823F2
:102E800011F00E948D1680917F028F3F09F44EC091
:102E90000E94A1227B018C0180917F02682F70E04B
:102EA000FB01E759FE4FE4918091800290918102ED
:102EB000A0918202B0918302A8019701281B390BCF
:102EC0004A0B5B0BFAE0DF2EED9DC0011124A0E060
:102ED000B0E082179307A407B50740F5E09280029F
:102EE000F09281020093820210938302CB0101963B
:102EF00066E070E00E94DD2D80937F02E82FF0E015
:102F000080FD0FC0E759FE4F24912D9D90011124A3
:102F100040E050E086E060EA7FE00E94032980E81C
:102F200003C080917B0180680E9451131F910F9113
:102F3000FF90EF90DF9008951F93182F0E94511378
:102F4000F999FECF1FBA88E190E092BD81BD10BD16
:102F50000FB6F894FA9AF99A0FBE1F910895882334
:102F600019F08130A1F404C0862F0E949C170895A7
:102F700060938402F999FECF1FBA81E290E092BD7E
:102F800081BD60BD0FB6F894FA9AF99A0FBE089504
:102F90008038E1F48FE691E00E946B1F8FE691E0AC
:102FA00066EA72E040E150E00E949F268FE691E0E1
:102FB00060E041E00E94EE1E8FE691E067EB72E078
:102FC00040E150E00E949F2681E008958091C70271
:102FD00008950F931F930E94B0100FE611E0C801EF
:102FE0000E94731FC80167E872E00E94CE271F91FC
:102FF0000F910895EF92FF920F931F93DF93CF935A
:10300000CDB7DEB761970FB6F894DEBF0FBECDBF68
:103010007801843039F48091850290918602860F80
:10302000911D08C0883051F48091850290918602EC
:10303000861B910990938602809385028091850278
:10304000909186028417950724F45093860240934A
:10305000850280918502909186022817390724F411
:1030600030938602209385028FE691E060E041E094
:103070000E94EE1E8DB79EB70A970FB6F8949EBFBA
:103080000FBE8DBFEDB7FEB731968E010F5F1F4F9C
:10309000ADB7BEB712961C930E93119781E190E0E5
:1030A00093838283F582E4828091850290918602E7
:1030B0009783868380914C01992787FD909591870E
:1030C00080870E9466038DB79EB70A960FB6F89464
:1030D0009EBF0FBE8DBF8FE691E0B8010E94CE2744
:1030E00061960FB6F894DEBF0FBECDBFCF91DF91D2
:1030F0001F910F91FF90EF900895FF920F931F93F0
:10310000F82E8091A0028E3120F0823210F40EE170
:1031100001C006E290E8F916E1F4182F101B812F88
:103120000E94E917E12FF0E0EE0FFF1FE05BFE4F7A
:103130000190F081E02D8DE290E0801B9109880FD5
:10314000991FE80FF91F80819181909386028093E7
:1031500085020E3119F00BE613E002C00BE713E015
:103160008F2D65E040E050E028EE33E00E94FA1732
:1031700081E01F910F91FF900895CF93DF93EB01B2
:10318000843011F0883071F420E030E080918502C5
:1031900090918602892B11F421E030E03093860271
:1031A000209385028FE691E060E041E00E94EE1EF0
:1031B000209721F0CE0160E00E943B1380918502B0
:1031C00090918602892B19F485EA93E002C089EA7E
:1031D00093E060E00E943B13DF91CF910895FF924E
:1031E0000F931F93F82E8091A0028A3120F08E3128
:1031F00010F40AE101C002E290E8F91619F5182F5F
:10320000101B812F0E94E91720E030E0E12FF0E051
:10321000EE0FFF1FE05BFE4F0190F081E02D89E291
:1032200090E0801B9109880F991FE80FF91F80819A
:1032300091811816190614F421E030E030938602CB
:10324000209385020A3119F06CE873E002C068E946
:1032500073E08F2D0E94BD1881E01F910F91FF90A8
:1032600008959091A002803879F4892F86510E94A8
:10327000E9178FE691E060E041E00E94EE1E86E3F0
:1032800094E060E00E943B1381E008950F931F9348
:10329000182F803861F483EB93E061E00E943B13C8
:1032A00080917B01809385021092860211C0803448
:1032B00079F4209185023091860280917B0190E023
:1032C0002817390729F0822F0E949C170E94A20E0E
:1032D000812F6AE040E050E024E630E00DEA13E0A0
:1032E0000E94FA178091850280680E94511381E044
:1032F0001F910F9108950F931F93182F803861F439
:103300008EEC93E061E00E943B1380914D0180932D
:103310008502109286020FC0803469F420918502E4
:103320003091860280914D0190E02817390719F0FD
:10333000822F0E948F0E812F65E040E050E024E64E
:1033400030E002EC13E00E94FA1781E01F910F9128
:1033500008951F93182F803851F48FED93E061E0AA
:103360000E943B1310928602109285020BC080349B
:1033700049F48091850290918602892B19F081E0B1
:103380000E946313812F60E070E00E94BD1881E00D
:103390001F9108950F931F93182F803871F489EFB0
:1033A00093E061E00E943B138091460190914701B8
:1033B000909386028093850209C0803439F460912D
:1033C00085027091860281E00E940013812F6AE0DD
:1033D00040E050E028EE33E00DEE13E00E94FA17D3
:1033E00081E01F910F9108950F931F93182F80383C
:1033F00061F488E194E061E00E943B138091580100
:10340000809385021092860209C0803439F460915D
:1034100085027091860280E00E940013812F61E096
:1034200040E050E024E630E008E014E00E94FA17A3
:1034300081E01F910F9108950F931F93082F109112
:10344000A0021C508038A9F4812F0E94E917E12FB7
:10345000F0E0EE0FFF1FE05BFE4F0190F081E02DEA
:103460008581992787FD90959093860280938502A8
:1034700009C0803439F46091850270918602812FF1
:103480000E94E00E802F61E04CE95FEF24E630E01F
:1034900008E214E00E94FA1781E01F910F9108954D
:1034A0001F93182F803861F487E494E061E00E9454
:1034B0003B1380914301809385021092860219C0CC
:1034C0008034B9F420E08091850290918602892BA6
:1034D00009F021E080914301281759F0222319F0C7
:1034E00080E090E004C080914101909142010E94EF
:1034F000DA10812F60E070E00E94BD1881E01F911A
:1035000008950F931F93182F803871F48EE594E07F
:1035100061E00E943B1380914101909142019093A0
:1035200086028093850210C0803471F42091850258
:10353000309186028091410190914201281739070C
:1035400019F0C9010E94DA10812F65E040E050E0D7
:1035500028EE33E007E514E00E94FA1781E01F919E
:103560000F910895803819F40E94B01405C090E0BE
:103570008F719070892B11F481E008950E9483105F
:1035800082E00895982F803809F040C08091A00211
:10359000853009F46BC08AE391E00E9474088823A7
:1035A00009F064C085E00895E0915201F091530163
:1035B00026893789408D518DCA01B9010E94792D24
:1035C000882309F45EC083E00895E0915401F091EE
:1035D000550126893789408D518DCA01B9010E9454
:1035E000792D882309F44DC084E00895E0915601B7
:1035F000F091570126893789408D518DCA01B90153
:103600000E94792D8823E9F182E008958091430199
:103610008823D1F0943011F465E007C0983011F49C
:103620006BEF03C0913001F56FEF772767FD709561
:1036300080913B01680F711D8AE391E00E94BA08F6
:103640000E94B01480E00895913071F460E070E061
:1036500080916D0190916E01892B11F461E070E011
:1036600082E00E9400130DC081E008958091A002C5
:10367000823009F499CF833009F4A7CF843009F45C
:10368000B5CF0E94B01481E0089588E992E062EA23
:1036900072E042E053E020E53BE10E94DA1B08952E
:1036A00080E00E944D239595879595958795982F55
:1036B0008823B1F08551873210F481E00895892F75
:1036C0008D53873210F488E00895892F8D58833107
:1036D00010F484E00895915A973210F482E008952E
:1036E00080E00895CF92DF92EF92FF920F931F93A5
:1036F000CF93DF936C018B01CB016CE270E00E94F1
:103700000603EC01EEE0EE2EF12CEC0CFD1CC701E3
:1037100060E270E041E250E00E94FF02209779F4FD
:10372000D8010D900020E9F71197A01BB10BA13231
:10373000B10510F0A1E2B0E0C701B80121C09E01BF
:10374000201B310B2131310510F020E130E0C701A1
:10375000B801A9010E94F602DE010D900020E9F7F0
:10376000AC1BBD0B1297A031B10510F0A0E1B0E089
:103770009601215E3F4FAE014F5F5F4FC901BA0115
:10378000AD010E94F602F60180858B3211F087A709
:1037900004C0C60160E00E94E21BC6016BE20E9409
:1037A000E21BDF91CF911F910F91FF90EF90DF907F
:1037B000CF900895FC0171836083538342833783E4
:1037C000268308951F93CF93DF93EC01162F2BC010
:1037D0008C819D81009751F0FC01319625913491A7
:1037E0002115310519F080E4F901099518878881C0
:1037F00099819D838C8306C08885981741F0349603
:10380000FD83EC83EC81FD8194919923A9F7309796
:1038100079F03196259134912115310521F080E818
:10382000F9010995182F123018F08885181781F6BC
:103830000E94A1226A877B878C879D87DF91CF9129
:103840001F910895DF92EF92FF920F931F93CF93F2
:10385000DF93EC01EE81FF810995D82E0E94A12211
:103860007B018C018A859B85AC85BD85E81AF90AA8
:103870000A0B1B0BDD20D9F4EC81FD813097B9F0E8
:103880003396649170E080E090E028EE33E040E011
:1038900050E00E94B22D611571058105910539F046
:1038A0006E157F058007910710F480E2D82E8AEF0D
:1038B000E816F1040105110508F439C080E2D816B4
:1038C00021F0D986DD2009F432C00E94A1226A8746
:1038D0007B878C879D878C819D81009769F0FC0197
:1038E0003196259134912115310531F08D2DF90155
:1038F0000995682F8130C1F4EA81FB812D2D30E0DC
:103900000FC0961761F431968491319790E082232D
:1039100093238217930719F43296649105C0339666
:1039200094916885992369F7CE010E94E21BDF918B
:10393000CF911F910F91FF90EF90DF900895089520
:10394000DF92EF92FF920F931F93CF93DF937C014F
:10395000EC0100E010E0DD24DA948A858F3F51F11C
:103960000E94A1222B853C854D855E85621B730BD1
:10397000840B950B61527F4B82409040D8F0D70169
:103980001596ED91FC911697309771F0C80123E0E0
:10399000880F991F2A95E1F7800F911F08968E0DC9
:1039A0009F1D62E070E009958A858F3F19F0DA86E5
:1039B000198618860F5F1F4F29960430110569F686
:1039C000DF91CF911F910F91FF90EF90DF900895BD
:1039D0000F931F93CF93DF938C01FC018081882389
:1039E00009F45EC0CFE6D4E0FE01219684918823DD
:1039F00019F00E94F808F8CF88EC92E0F80167818E
:103A00004AE050E00E946927E80110E08A858F3F74
:103A1000F1F08CE20E94F80888EC92E06A854AE0B6
:103A200050E00E9469278CE20E94F80888EC92E03E
:103A30006F854AE050E00E9469278CE20E94F808F6
:103A400088EC92E068894AE050E00E9469271F5F95
:103A500029961430D9F686E793E06AE20E9416268A
:103A60006091CD0262956F706A3010F4605D01C0A4
:103A7000695C86E793E00E9416266091CD026F7024
:103A80006A3010F4605D01C0695C86E793E00E94D3
:103A9000162686E793E06AE00E9416261092CC0272
:103AA000DF91CF911F910F910895CF93DF93EC0198
:103AB0008881882329F481E00E94502181E0888355
:103AC000DF91CF9108950F931F93CF93DF938C01D4
:103AD000EB010E94A122F80163837483858396839E
:103AE000898185FF02C092E001C090E08B8187FD53
:103AF00091608F778F3709F09460F80197830E9467
:103B00002821F801808787812A8182FF2FC02A3AE5
:103B100011F480E038C030E0B9016F707070605906
:103B20007140898190E08F70907044E650E0FC0114
:103B3000E49FC001E59F900DF49F900D1124680F44
:103B4000791FE4E035952795EA95E1F7C90153E03F
:103B5000880F991F5A95E1F7220F331F820F931F89
:103B6000680F791FF801718360830CC0898190E030
:103B70008F709070982F882730E0822B932BF8015C
:103B80009183808381E0DF91CF911F910F91089500
:103B9000EF92FF920F931F93CF93DF938C01DC0181
:103BA0008C91882311F4FF2481C0FF2477C00E94E8
:103BB000A122F80161837283838394838091CE0272
:103BC0009781882309F063C09F3F11F09F5F97831F
:103BD0008091CF0290E08F709070880F991F880FAE
:103BE000991F4091D0024295469546954370482BC7
:103BF000D801F80190E08285841729F09F5F3996FB
:103C00009430C9F703C09F3F81F446C090E01A96F4
:103C10008C911A978F3F21F485E0E82EF12C08C093
:103C20009F5F1996943099F737C0B4E0EB2EF12CD2
:103C3000292F30E0F901A3E0EE0FFF1FAA95E1F76D
:103C4000E20FF31FE00FF11F8285841719F04287FE
:103C500011861086E901F3E0CC0FDD1FFA95E1F73C
:103C6000C20FD31F2896C00FD11FCE016FEC72E098
:103C70000E94631D882381F0D8011596ED91FC9177
:103C80001697309749F0CE01B701099505C09923E1
:103C900019F09150F8019783FF24F3940E94FD20BE
:103CA000882309F084CFC8010E94A01C8F2DDF91CA
:103CB000CF911F910F91FF90EF9008951092CB023A
:103CC0001092CA0288E091E09093C9028093C802E2
:103CD00008951F93CF93DF93EC01162F8C818823D7
:103CE00041F481E08C831D8286E793E064E20E94C8
:103CF00016268D8181278D8386E793E0612F0E94B0
:103D00001626DF91CF911F910895DC0181E090E0AC
:103D100002C0880F991F6A95E2F714962C911497A8
:103D2000442311F0282B02C08095282314962C934D
:103D30001497ED91FC9111970084F185E02DCD0150
:103D400009950895EF92FF921F93CF93DF937C0123
:103D5000EB01142F0DC0FE0121964491F701A081C3
:103D6000B1812D913C91C701642FF9010995115042
:103D7000112389F7DF91CF911F91FF90EF90089564
:103D8000DC01ED91FC910480F581E02D40E0099586
:103D90000895EF92FF920F931F938C017A01677041
:103DA000660F660F660F60640E94C01EC801B701EF
:103DB00048E00E94A21EC80160E80E94C01E1F9138
:103DC0000F91FF90EF900895FC016681862F84602B
:103DD00086836C60CF010E94C01E0895DC01189696
:103DE0008C911897841710F4482F4150E42FF0E07D
:103DF000E65EFE4F8081680F6068CD010E94C01EA4
:103E00000895DC01ED91FC910480F581E02D41E005
:103E1000099581E090E008951F93CF93DF93EC0123
:103E20001FB7F8946EBD0DB407FEFDCFEA85FB8584
:103E300080819985892B808381E090E00E9408230E
:103E4000EA85FB85908189858095892380831FBFC2
:103E5000DF91CF911F910895FC0164810E940C1F96
:103E60000895EF92FF921F937C01162F1860612F27
:103E70000E940C1F177FC701612F0E940C1F1F910A
:103E8000FF90EF900895607F0E94311F88E290E0DC
:103E90000E94082308950F931F93CF93DF93EC01A3
:103EA000062F411144E01C81142B602F607F612B91
:103EB000CE010E94311F0295007F102BCE01612F91
:103EC0000E94311F88E290E00E940823DF91CF9189
:103ED0001F910F91089562E00E94C01E80ED97E04F
:103EE0000E940823089561E00E94C01E80ED97E0C3
:103EF0000E9408230895CF93DF93EC01623018F0FD
:103F000088E0888701C0188688858D834111846088
:103F10008D8380E090E40E94082380E090E40E947A
:103F2000082380E090E40E940823E881F98106805C
:103F3000F781E02DCE0160E3099584E991E10E94CB
:103F40000823E881F9810680F781E02DCE0160E346
:103F5000099586E990E00E940823E881F9810680AE
:103F6000F781E02DCE0160E30995E881F9810680B3
:103F7000F781E02DCE0160E209956D816062CE018E
:103F80000E94C01E84E08E83CE010E94E41ECE01FA
:103F90000E94731F82E08F83CE0166E00E94C01EE4
:103FA000DF91CF910895EF92FF920F931F938C01B1
:103FB000F62EE42EDC0113961C921E92129780E1DD
:103FC00091E08D939C938BE061E00E94CF238DE084
:103FD00061E00E94CF238AE061E00E94CF238AE063
:103FE00061E00E940E2481E58CBD8F2D90E0FC01E4
:103FF000E355FB4FE491D8011996EC931997875636
:104000009B4FFC018491E82FF0E0EE0FFF1FEB5770
:10401000FB4F859194911B969C938E931A978F2DAD
:1040200061E00E94CF23C80160E00E940C1FC8011C
:104030006E2D40E00E947B1F1F910F91FF90EF902B
:104040000895282F8CB581608CBD2A989EBD0DB433
:1040500007FEFDCF8EB52EBD0DB407FEFDCF4EB5CC
:10406000382F20E02A9A8CB58E7F8CBD50E0422BF1
:10407000532BCA0108950F931F9380E090E00E9494
:104080002120192F9093DD028091DE02843009F007
:1040900067C080E090EB0E942120082F8091E00211
:1040A00063E00E94D12D9923A9F4812F90E08170C3
:1040B0009070E091DC02F0E0EE0FFF1FE80FF91FB7
:1040C000E25EFE4F80818093DC0290E0806A94691A
:1040D0000E9421208091E0028823F1F4802F90E05B
:1040E00034E0959587953A95E1F7029695958795F1
:1040F0008093D9028091D902823020F08091D90238
:104100008B3018F082E08093D902E091DA02F091CE
:10411000DB02309709F009958091E002E82FF0E08A
:10412000E153FD4F00838F5F8093E0028091CE02C8
:10413000802790E021E387FF03C0880F822701C01A
:10414000880F9F5F9830B9F78093CE029091E0027C
:104150008091D902981709F04DC08DE092E848C0CF
:104160008091DE0287FF1EC08091D902E091DE02BD
:10417000EF5FE093DE02E150E80FF0E0E153FD4F26
:1041800080812091CE02282790E031E327FF03C0F1
:10419000220F232701C0220F9F5F9830B9F7209389
:1041A000CE0223C08091DE028F5F8093DE028150B9
:1041B0008230B1F083301CF4882379F015C085304B
:1041C00019F0863089F402C08DE20FC08091D902C7
:1041D00081958093DE0284ED08C08091CE0205C0F7
:1041E0008DE092E80E9421208AEA90E08050984475
:1041F0000E9421201F910F9108958091DE0284304A
:1042000009F59091D9028091E0029817D9F483E0E2
:104210008093DE0281E008951092E0021092CE02B7
:104220008FEF8093D90284E08093DE029093DC02CA
:1042300083EA94E90E9421208DED92E80E942120DA
:1042400080E008959091DE02933031F380E008958C
:104250008091DC02869508952A9A229A8AE061E08C
:104260000E940E248AE061E00E94CF238BE061E08F
:104270000E94CF238CE060E00E94CF238DE061E0BC
:104280000E94CF2380E58CBD8DB581608DBD82E01D
:1042900060E00E94CF2382E061E00E940E24089536
:1042A0001F93162F8093DF020E942C2180E090E064
:1042B0000E94212085E092E80E94212080E098EB76
:1042C00002C080E090E00E94212082E00E946224EF
:1042D000892BB9F3812F90E054E0880F991F5A95EC
:1042E000E1F7876C90680E942120123019F013309A
:1042F00039F403C08CE796EA05C080ED97EA02C066
:1043000080E496EA0E94212083E196EC0E9421201D
:1043100082EA94E90E9421208CEA92EC0E942120FA
:1043200083E89AEC0E94212084ED9EEC0E942120DB
:1043300083E894EC0E94212080E598E90E942120E6
:1043400087E79CEC0E94212080E090EE0E942120D3
:1043500080E098EC0E94212089E490EC0E942120CA
:1043600083E08093DE028091DF0290E08F71907095
:10437000892B41F080E06BE370E240E050E00E9466
:10438000C92103C080E00E94EC218091DF021F91CF
:104390000895823000F5E82FF0E0EE0FFF1FEF5197
:1043A000FD4F71836083882319F08130A1F408C028
:1043B000809169008C7F842B80936900E89A08952E
:1043C00080916900440F551F440F551F837F842B34
:1043D00080936900E99A0895823080F4882319F067
:1043E000813021F402C0E89801C0E998E82FF0E09C
:1043F000EE0FFF1FEF51FD4F1182108208951F92A3
:104400000F920FB60F9211242F933F934F935F9308
:104410006F937F938F939F93AF93BF93EF93FF938C
:104420008091E1029091E202892B29F0E091E10272
:10443000F091E2020995FF91EF91BF91AF919F91A9
:104440008F917F916F915F914F913F912F910F903D
:104450000FBE0F901F9018951F920F920FB60F92DC
:1044600011242F933F934F935F936F937F938F9379
:104470009F93AF93BF93EF93FF938091E30290914B
:10448000E402892B29F0E091E302F091E40209951E
:10449000FF91EF91BF91AF919F918F917F916F911C
:1044A0005F914F913F912F910F900FBE0F901F90F2
:1044B00018951F920F920FB60F9211242F933F93CE
:1044C0008F939F93AF93BF938091E9029091EA02FB
:1044D000A091EB02B091EC023091ED020196A11D8A
:1044E000B11D232F2D5F2D3720F02D570196A11DD3
:1044F000B11D2093ED028093E9029093EA02A0930C
:10450000EB02B093EC028091E5029091E602A0915B
:10451000E702B091E8020196A11DB11D8093E5026A
:104520009093E602A093E702B093E802BF91AF91A7
:104530009F918F913F912F910F900FBE0F901F90E1
:1045400018958FB7F8942091E9023091EA024091D2
:10455000EB025091EC028FBFB901CA0108959B0193
:10456000AC017FB7F8948091E5029091E602A091AA
:10457000E702B091E80266B5A89B05C06F3F19F04D
:104580000196A11DB11D7FBFBA2FA92F982F882793
:10459000860F911DA11DB11D62E0880F991FAA1FF2
:1045A000BB1F6A95D1F7BC012DC0FFB7F89480916D
:1045B000E5029091E602A091E702B091E802E6B52B
:1045C000A89B05C0EF3F19F00196A11DB11DFFBFCB
:1045D000BA2FA92F982F88278E0F911DA11DB11DCD
:1045E000E2E0880F991FAA1FBB1FEA95D1F7861B2F
:1045F000970B885E9340C8F22150304040405040B5
:1046000068517C4F211531054105510571F608951A
:10461000019739F0880F991F880F991F029701970A
:10462000F1F70895789484B5826084BD84B5816083
:1046300084BD85B5826085BD85B5816085BDEEE6AA
:10464000F0E0808181608083E1E8F0E01082808189
:1046500082608083808181608083E0E8F0E08081F7
:1046600081608083E1EBF0E0808184608083E0EB17
:10467000F0E0808181608083EAE7F0E080818460FF
:10468000808380818260808380818160808380815B
:10469000806880831092C1000895982F8E3008F0B2
:1046A0009E509770809102018295880F880F807CC0
:1046B000892B80937C0080917A00806480937A00BB
:1046C00080917A0086FDFCCF20917800409179009E
:1046D000942F80E030E0282B392BC90108951F93D7
:1046E000CF93DF93182FEB0161E00E94CF23209737
:1046F00009F44AC0CF3FD10509F449C0E12FF0E0E9
:10470000EF53FB4F84918330C1F0843028F4813023
:1047100051F08230B1F50CC0863019F1873049F183
:10472000843079F514C084B5806884BDC7BD33C0BA
:1047300084B5806284BDC8BD2EC080918000806831
:1047400080938000D0938900C093880024C080911A
:104750008000806280938000D0938B00C0938A0099
:104760001AC08091B00080688093B000C093B300FD
:1047700012C08091B00080628093B000C093B400FA
:104780000AC0C038D1051CF4812F60E002C0812F1F
:1047900061E00E940E24DF91CF911F910895CF9385
:1047A000DF93482F50E0CA0183559B4FFC013491A1
:1047B00047565B4FFA018491882369F190E0880F96
:1047C000991FFC01E558FB4FA591B491FC01EB57F3
:1047D000FB4FC591D491662351F42FB7F8948C9177
:1047E000932F909589238C93888189230BC0623005
:1047F00061F42FB7F8948C91932F909589238C9323
:104800008881832B88832FBF06C09FB7F8948C9133
:10481000832B8C939FBFDF91CF910895482F50E059
:10482000CA018F539B4FFC012491CA0183559B4FB2
:10483000FC01949147565B4FFA013491332309F4FC
:1048400040C0222351F1233071F0243028F421306C
:10485000A1F0223011F514C02630B1F02730C1F09C
:104860002430D9F404C0809180008F7703C08091F8
:1048700080008F7D8093800010C084B58F7702C048
:1048800084B58F7D84BD09C08091B0008F7703C04F
:104890008091B0008F7D8093B000E32FF0E0EE0FA9
:1048A000FF1FEB57FB4FA591B4912FB7F8946623E8
:1048B00021F48C919095892302C08C91892B8C9343
:1048C0002FBF0895682F70E0CB018F539B4FFC01E1
:1048D0002491CB0183559B4FFC01449167567B4F3C
:1048E000FB019491992319F420E030E03CC022238D
:1048F00051F1233071F0243028F42130A1F022301E
:1049000011F514C02630B1F02730C1F02430D9F4AD
:1049100004C0809180008F7703C0809180008F7DDC
:104920008093800010C084B58F7702C084B58F7DDE
:1049300084BD09C08091B0008F7703C08091B00022
:104940008F7D8093B000892F90E0880F991F815749
:104950009B4FFC01A591B4918C9120E030E0842321
:1049600011F021E030E0C90108951F920F920FB6B7
:104970000F9211242F933F934F938F939F93EF9315
:10498000FF934091C60020912E0330912F032F5F9B
:104990003F4F2F733070809130039091310328176F
:1049A000390759F0E0912E03F0912F03E251FD4FAA
:1049B000408330932F0320932E03FF91EF919F911B
:1049C0008F914F913F912F910F900FBE0F901F909D
:1049D00018951F920F920FB60F9211242F933F93A9
:1049E0008F939F93EF93FF93209172033091730302
:1049F00080917403909175032817390731F48091E1
:104A0000C1008F7D8093C10014C0E0917403F091C8
:104A10007503EE5CFC4F20818091740390917503C7
:104A200001968F7390709093750380937403209315
:104A3000C600FF91EF919F918F913F912F910F9021
:104A40000FBE0F901F901895AF92BF92DF92EF921A
:104A5000FF920F931F93CF93DF93EC017A018B01A9
:104A6000DD24403081EE580780E0680780E0780759
:104A700011F0DD24D39491E0A92EB12CEC89FD89AD
:104A8000DD2069F0C5010E8C02C0880F991F0A94C1
:104A9000E2F7808360E079E08DE390E005C010826A
:104AA00060E874E88EE190E0A80197010E94042E6E
:104AB00021503040404050405695479537952795B6
:104AC00080E12030380720F0DD2011F0DD24D6CF42
:104AD000E889F9893083EA89FB892083EE89FF8997
:104AE000408121E030E0C9010A8C02C0880F991F83
:104AF0000A94E2F7482B4083EE89FF894081C9017F
:104B00000B8C02C0880F991F0A94E2F7482B408350
:104B1000EE89FF894081C9010C8C02C0880F991F62
:104B20000A94E2F7482B4083EE89FF8980810D8C3F
:104B300002C0220F331F0A94E2F720952823208316
:104B4000DF91CF911F910F91FF90EF90DF90BF9079
:104B5000AF900895DC011C96ED91FC911D97E05CEF
:104B6000FF4F2191319180819181281B390B2F7347
:104B70003070C9010895DC011C96ED91FC911D97E0
:104B8000E05CFF4F20813181E054F040DF01AE5BFB
:104B9000BF4F8D919C9111972817390719F42FEF6A
:104BA0003FEF07C08D919C91E80FF91F8081282F5E
:104BB00030E0C9010895DC011C96ED91FC911D9730
:104BC000E05CFF4F20813181E054F040DF01AE5BBB
:104BD000BF4F8D919C9111972817390719F42FEF2A
:104BE0003FEF10C08D919C911197E80FF91F208124
:104BF0008D919C91119701968F73907011969C9353
:104C00008E9330E0C9010895FC0186859785DC010B
:104C1000A05CBF4FFC01EE5BFF4F2D913C911197C3
:104C20008081918128173907C1F70895CF93DF93C9
:104C3000EC01EE85FF85E05CFF4F20813181E0547F
:104C4000F0402F5F3F4F2F733070DF01AE5BBF4FDF
:104C50008D919C91119728173907D1F3E05CFF4F94
:104C600080819181E054F040E80FF91F6083EE8568
:104C7000FF85E05CFF4F31832083EE89FF8920812F
:104C800081E090E00D8C02C0880F991F0A94E2F732
:104C9000282B208381E090E0DF91CF91089510923E
:104CA00079031092780388EE93E0A0E0B0E080935F
:104CB0007A0390937B03A0937C03B0937D038EE2F1
:104CC00091E090937703809376038EEE92E0909339
:104CD00083038093820382E393E090938503809320
:104CE000840385EC90E0909387038093860384ECA3
:104CF00090E0909389038093880380EC90E09093F8
:104D00008B0380938A0381EC90E090938D038093D2
:104D10008C0386EC90E090938F0380938E0384E065
:104D20008093900383E08093910387E080939203C4
:104D300085E08093930381E0809394030895CF925C
:104D4000DF92EF92FF920F931F93CF93DF937C013B
:104D50006B018A01C0E0D0E00FC0D6016D916D01FA
:104D6000D701ED91FC910190F081E02DC7010995EB
:104D7000C80FD91F015010400115110571F7CE0160
:104D8000DF91CF911F910F91FF90EF90DF90CF9027
:104D90000895DC01ED91FC910190F081E02D0995E1
:104DA0000895CF93DF93DB010D900020E9F7119771
:104DB000A61BB70BEC01E881F9810280F381E02D9D
:104DC000AD010995DF91CF9108954F925F927F9247
:104DD0008F929F92AF92BF92CF92DF92EF92FF920B
:104DE0000F931F93DF93CF93CDB7DEB7A1970FB685
:104DF000F894DEBF0FBECDBF2C01742ECB01223044
:104E000008F42AE019A231E2C32ED12CCC0EDD1E0B
:104E1000822E9924AA24BB24672D752FA501940105
:104E20000E94042E79018A01C801B701A5019401ED
:104E30000E94B22D472D461B0894C108D1084A3064
:104E400014F4405D01C0495CF6014083E114F104B3
:104E50000105110521F07E2C5F2DC801DDCFC201B7
:104E6000B6010E94D126A1960FB6F894DEBF0FBE00
:104E7000CDBFCF91DF911F910F91FF90EF90DF9009
:104E8000CF90BF90AF909F908F907F905F904F900A
:104E90000895DC012115310541F4ED91FC9101905B
:104EA000F081E02D642F099508950E94E52608956C
:104EB000EF92FF920F931F939A017B0100E010E0A5
:104EC000B801A7010E9449271F910F91FF90EF9011
:104ED0000895EF92FF920F931F939A01E62EFF24FD
:104EE00000E010E0B801A7010E9449271F910F912F
:104EF000FF90EF900895CF92DF92EF92FF920F9381
:104F00001F93CF93DF93EC016A017B0121153105DB
:104F100041F4E881F9810190F081E02D642F099539
:104F20001FC02A303105D1F477FF17C0E881F9811D
:104F30000190F081E02D6DE209958C014427552701
:104F4000BA014C195D096E097F09CE012AE00E9461
:104F5000E5269801280F391F04C02AE00E94E526A3
:104F60009C01C901DF91CF911F910F91FF90EF90AC
:104F7000DF90CF900895EF92FF920F931F937B01E4
:104F80009A010027F7FC0095102FB801A7010E9495
:104F90007B271F910F91FF90EF9008950E94D126DB
:104FA00008957F928F929F92AF92BF92CF92DF929D
:104FB000EF92FF920F931F93CF93DF934C017A01EF
:104FC0008B01722ECB01BA0120E030E040E050E0CE
:104FD0000E947E2B87FD03C0C0E0D0E00EC0D4014C
:104FE000ED91FC910190F081E02DC4016DE20995F5
:104FF000EC0117FB109517F9109520E030E040E028
:105000005FE3AA240BC0CA01B90120E030E040E20E
:1050100051E40E94822B9B01AC01A394A71498F346
:10502000C801B7010E941A2B5B016C010E94EF2B93
:105030007B018C01C401B801A7012AE030E00E9485
:105040004927C80FD91F772039F0C40160E071E00B
:105050000E94D126C80FD91FC801B7010E941B2C7E
:105060009B01AC01C601B5010E94192B24C020E0B0
:1050700030E040E251E40E94162D7B018C010E9439
:10508000EA2B5B016C01CC24B7FCC094DC2CC4017E
:10509000B601A5012AE030E00E947B27C80FD91F86
:1050A000C601B5010E941D2C9B01AC01C801B701CE
:1050B0000E94192B7A947720D1F6CE01DF91CF91FF
:1050C0001F910F91FF90EF90DF90CF90BF90AF9026
:1050D0009F908F907F9008950E94D12708958130EE
:1050E00041F0813018F08230D1F409C010926E0086
:1050F000089580916F008D7F80936F000895809157
:1051000070008D7F8093700081E08093B00080916B
:10511000B100887F84608093B1001092B30008953D
:105120001F93182F80910301811711F09FEF06C084
:10513000E5EDF4E094918FEF80930301892F0E94B5
:105140006F28812F60E00E940E241F9108951F9206
:105150000F920FB60F9211242F933F934F935F93AB
:105160006F937F938F939F93AF93BF93EF93FF932F
:105170008091A3039091A403A091A503B091A603ED
:105180000097A105B10551F1E091A703F091A803A3
:1051900080819091A903892780838091A3039091B6
:1051A000A403A091A503B091A603181619061A0628
:1051B0001B06C4F48091A3039091A403A091A503BE
:1051C000B091A6030197A109B1098093A30390931D
:1051D000A403A093A503B093A60304C08091030188
:1051E0000E949028FF91EF91BF91AF919F918F9175
:1051F0007F916F915F914F913F912F910F900FBED3
:105200000F901F9018952F923F925F926F927F920E
:105210008F929F92AF92BF92CF92DF92EF92FF92C6
:105220000F931F93DF93CF9300D000D0CDB7DEB79D
:10523000A82F1B0129833A834B835C838091030150
:105240008A1721F4E5EDF4E0549082C08F3F09F015
:10525000DAC1A0930301E5EDF4E054902FEF52166C
:1052600009F4D1C181E0581639F192E0591609F4D8
:1052700049C0552009F06CC014BC15BC84B58260CF
:1052800084BD85B5816085BD2A2F30E0F901E756E0
:10529000FB4FE491F0E0EE0FFF1FEB57FB4F8591C2
:1052A000949190939A038093990323553B4FF9016E
:1052B000849180939B034EC01092800010928100D5
:1052C000809181008860809381008091810081605D
:1052D000809381002A2F30E0F901E756FB4FE491DB
:1052E000F0E0EE0FFF1FEB57FB4F859194919093E9
:1052F000A1038093A00323553B4FF9018491809330
:10530000A20328C01092B0001092B1008091B000AA
:1053100082608093B0008091B10081608093B10081
:105320002A2F30E0F901E756FB4FE491F0E0EE0F51
:10533000FF1FEB57FB4F859194919093A8038093A7
:10534000A70323553B4FF90184918093A90302C021
:1053500057FC59C18A2F61E00E94CF23552021F0CC
:10536000F2E05F1609F0BEC031018824992460E0A4
:1053700072E18AE790E0A40193010E94262E590170
:105380006A01860175010894E108F1080109110913
:105390002FEFE216F1040105110509F008F499C098
:1053A00060E472E48FE090E0A40193010E94262E55
:1053B00079018A010894E108F1080109110982E0E4
:1053C0005816C1F49FEFE916F1040105110509F023
:1053D00008F484C060E970ED83E090E0A4019301DB
:1053E0000E94262E79018A010894E108F10801093A
:1053F000110983E0AFEFEA16F1040105110509F088
:1054000008F468C068E478EE81E090E0A4019301BC
:105410000E94262E79018A010894E108F108010909
:105420001109552011F483E01DC0B2E05B1611F0A4
:1054300084E018C0EFEFEE16F1040105110509F044
:1054400008F4DFC064E274EF80E090E0A40193010F
:105450000E94262E79018A010894E108F1080109C9
:10546000110985E0FFEFEF16F1040105110591F137
:1054700088F162E17AE780E090E0A40193010E9464
:10548000262E79018A010894E108F1080109110921
:10549000552011F086E001C084E02FEFE216F10400
:1054A00001051105B9F0B0F0C601B50120E034E006
:1054B00040E050E00E94262E79018A010894E1081C
:1054C000F10801091109552011F087E008C085E0B5
:1054D00003C081E0552019F485BD3AC082E0809375
:1054E000B10036C05101CC24DD2460E072E18AE7CE
:1054F00090E0A60195010E94262E79018A01089468
:10550000E108F1080109110980E0E81680E0F806D9
:1055100081E0080780E0180710F491E010C068E40B
:1055200078EE81E090E0A60195010E94262E790197
:105530008A010894E108F1080109110993E0A1E04A
:105540005A1631F480918100887F982B90938100C6
:1055500089819A81AB81BC810097A105B10529F4AD
:105560008FEF9FEFAFEFBFEF13C0220C331CB101E1
:1055700080E090E029813A814B815C810E94B22DCC
:1055800028EE33E040E050E00E94042EC901DA0129
:10559000E1E05E16A1F0F2E05F1619F1552099F5F1
:1055A000E7BC8093950390939603A0939703B093E1
:1055B000980380916E00826080936E0024C0F09208
:1055C0008900E092880080939C0390939D03A093B0
:1055D0009E03B0939F0380916F00826080936F0061
:1055E00012C0E092B3008093A3039093A403A0930E
:1055F000A503B093A6038091700082608093700031
:1056000002C084E06CCF0F900F900F900F90CF915D
:10561000DF911F910F91FF90EF90DF90CF90BF909F
:10562000AF909F908F907F906F905F903F902F9062
:1056300008955058BB27AA270ED075C166D130F007
:105640006BD120F031F49F3F11F41EF45BC10EF4D6
:10565000E095E7FB51C1E92F77D180F3BA176207D4
:1056600073078407950718F071F49EF58FC10EF447
:10567000E0950B2EBA2FA02D0B01B90190010C0162
:10568000CA01A0011124FF27591B99F0593F50F47A
:10569000503E68F11A16F040A22F232F342F4427D2
:1056A000585FF3CF469537952795A795F0405395CA
:1056B000C9F77EF41F16BA0B620B730B840BBAF09A
:1056C0009150A1F0FF0FBB1F661F771F881FC2F705
:1056D0000EC0BA0F621F731F841F48F48795779519
:1056E0006795B795F7959E3F08F0B3CF9395880FD0
:1056F00008F09927EE0F979587950895D9D008F46B
:1057000081E008950CD00FC107D140F0FED030F0F9
:1057100021F45F3F19F0F0C0511139C1F3C014D129
:1057200098F39923C9F35523B1F3951B550BBB2768
:10573000AA2762177307840738F09F5F5F4F220F15
:10574000331F441FAA1FA9F333D00E2E3AF0E0E80E
:1057500030D091505040E695001CCAF729D0FE2F5A
:1057600027D0660F771F881FBB1F261737074807EC
:10577000AB07B0E809F0BB0B802DBF01FF279358A2
:105780005F4F2AF09E3F510568F0B6C000C15F3FF1
:10579000ECF3983EDCF3869577956795B795F7958A
:1057A0009F5FC9F7880F911D9695879597F9089582
:1057B000E1E0660F771F881FBB1F6217730784071E
:1057C000BA0720F0621B730B840BBA0BEE1F88F72D
:1057D000E095089504D06894B111D9C00895BCD063
:1057E00088F09F5790F0B92F9927B751A0F0D1F0CA
:1057F000660F771F881F991F1AF0BA95C9F712C054
:10580000B13081F0C3D0B1E00895C0C0672F782FC8
:105810008827B85F39F0B93FCCF3869577956795BF
:10582000B395D9F73EF490958095709561957F4F2B
:105830008F4F9F4F0895E89409C097FB3EF49095D1
:105840008095709561957F4F8F4F9F4F9923A9F059
:10585000F92F96E9BB279395F695879577956795E8
:10586000B795F111F8CFFAF4BB0F11F460FF1BC02C
:105870006F5F7F4F8F4F9F4F16C0882311F096E9BF
:1058800011C0772321F09EE8872F762F05C066236D
:1058900071F096E8862F70E060E02AF09A95660F26
:1058A000771F881FDAF7880F9695879597F90895DF
:1058B000990F0008550FAA0BE0E8FEEF1616170621
:1058C000E807F907C0F012161306E407F50798F089
:1058D000621B730B840B950B39F40A2661F0232BA2
:1058E000242B252B21F408950A2609F4A140A6951E
:1058F0008FEF811D811D089597F99F6780E870E003
:1059000060E008959FEF80EC089500240A94161635
:10591000170618060906089500240A94121613069D
:10592000140605060895092E0394000C11F488232B
:1059300052F0BB0F40F4BF2B11F460FF04C06F5F47
:105940007F4F8F4F9F4F089557FD9058440F551F1D
:1059500059F05F3F71F04795880F97FB991F61F0F1
:105960009F3F79F087950895121613061406551F68
:10597000F2CF4695F1DF08C0161617061806991FD4
:10598000F1CF86957105610508940895E894BB27C9
:1059900066277727CB0197F908958ADF08F48FEF00
:1059A00008950EF0AAC0AECF6894A6CFD5DFC8F395
:1059B0009923D1F3C6F3DF93CF931F930F93FF92F5
:1059C000C92FDD2788232AF02197660F771F881FAC
:1059D000DAF720E030E040E85FEB9FE3883920F021
:1059E000803E30F021968F7725DEE8E6F0E003C0B8
:1059F00021DEE5E9F0E091D08B01BE01EC01FB2E48
:105A00006F5771097595771F880B990B16DF28E181
:105A100032E741E35FE316D0AF2D9801AE01FF906E
:105A20000F911F91CF91DF9116DE7DCF0BD07BCFF1
:105A30006CDF28F071DF18F0952309F05DCF62CF9D
:105A40001124A5CF81DFA0F3959FD1F3950F50E0EE
:105A5000551F629FF001729FBB27F00DB11D639F20
:105A6000AA27F00DB11DAA1F649F6627B00DA11DC6
:105A7000661F829F2227B00DA11D621F739FB00D6C
:105A8000A11D621F839FA00D611D221F749F3327DC
:105A9000A00D611D231F849F600D211D822F762F75
:105AA0006A2F11249F5750408AF0E1F088234AF072
:105AB000EE0FFF1FBB1F661F771F881F91505040BE
:105AC000A9F79E3F510570F017CF61CF5F3FECF310
:105AD000983EDCF3869577956795B795F795E795AA
