:100000000C9482020C9419110C94F2100C94B0020E
:100010000C94B0020C94B0020C94B0020C94B00298
:100020000C94B0020C94B0020C9418050C94471177
:100030000C940D050C94B0020C94B0020C94B00218
:100040000C94A8100C94B0020C94520F0C942C0F2A
:100050000C94B0020C9435040C94B0020C94B002D1
:100060000C94B0020C94B002D312DB12E312EB1228
:10007000F312FB1203130B1308000000BE92244975
:10008000123EABAAAA2ABECDCCCC4C3E00000080CA
:10009000BEABAAAAAA3E00000000BF000000803F3D
:1000A0000000000000084178D3BB4387D1133D19FD
:1000B0000E3CC3BD4282AD2B3E68EC8276BED98F2A
:1000C000E1A93E4C80EFFFBE01C4FF7F3F0000006E
:1000D0000000070F1F1F1F1F1F1F1F1F1F000000F3
:1000E00000001C1E1F1F1F1F1F1F1F1F1F1F1F1F62
:1000F0000F0700000000001F1F1F1F1F1F1F1F1FD3
:100100001E1C1F1F1F0000001F1F1F000000001FDC
:100110001F1F7265626F6F7400636F6E66696700A0
:100120007365743F74703D007365743F74743D0073
:100130007365743F666E3D007365743F616C3D008E
:100140007365743F7063007365743F706E00736510
:10015000743F706964007365743F706F3D00736530
:10016000743F6C643D007365743F6C623D00736561
:10017000743F73703D00484D53552C00484D50530B
:100180002C00484D4152000A050A050A32484D52DA
:100190004D0000000000230026002900000102039A
:1001A00004050102202005200606020307070606B3
:1001B00002070705030402202005FF0606070705BE
:1001C00000060603070501010220002000060203C5
:1001D0000705000602202005252D313273253364E2
:1001E000DF005069743A253364DF256320256325D9
:1001F000337525252563005069743A253364DF255E
:1002000063204C6964253375005069743A25336462
:10021000DF256320205B4F66665D002D204E6F203A
:100220005069742050726F6265202D002A2A204187
:100230004C41524D2048494748202A2A002A2A206A
:10024000414C41524D204C4F5720202A2A00484D06
:1002500050432C00484D504E00484D50440025332B
:1002600064DF2563005365742074656D7065726189
:10027000747572653A004F66667365742025346440
:10028000DF25630025336425252062656C6F7720A8
:10029000736574004C6964206F70656E206F6666CC
:1002A00073657400253364207365636F6E64730037
:1002B0004C6964206F70656E2074696D6572004DC5
:1002C000616E75616C2066616E206D6F64650048BB
:1002D0004D52432C5553455200526573657420634B
:1002E0006F6E6669673F00737065656420253364CF
:1002F0002525004D6178696D756D206175746F20DD
:1003000066616E002533642525004C4344206272EB
:10031000696768746E65737300000000002400272D
:10032000002A00000000080002010000030407008A
:1003300000000000000000484D504F005543494464
:100340002C4865617465724D657465722C3230316C
:10035000373037333000484D4C442C00484D4C4228
:100360002C00484D414C00484D464E2C000EF0E10B
:100370000006F00000000000000080400AD7A33C07
:100380000000A04000327F7F7F7F46006410FF6442
:100390000D0A0B0064C8006450726F626520200073
:1003A00000000000000100D8FF38FF0000FB7E4085
:1003B0003A423962390959CC3300401C46484D5203
:1003C000462C3235352C302C00022803020209025B
:1003D000040403280403020903040204280204029B
:1003E0000904040305280205020905040409210281
:1003F0000902131321021302151521021502161604
:10040000210216020D0D21020D020E0E21020E0216
:100410000F0F21020F0210102102100211112102F0
:1004200011021212210212021414210214020900F4
:10043000000002DD0C050103DD0C050104DD0C05E7
:100440000105DD0C010106690C000009FA0E0A0025
:1004500013A40C0A000DB50E0A000EB50E0A000F0B
:10046000B50E0A0010B50E0A00118A0E0A00125EBF
:100470000E0A00147C0C0A0016250E0A0015DA0D6F
:100480000A00171212140000000000000000000013
:10049000250028002B0004040404040404040202C0
:1004A00002020202030303030303010204081020F3
:1004B00040800102040810200102040810204E6F41
:1004C0002000596573004E414E494E495459494EDA
:1004D00046CDCCCC3D0AD7233C17B7D13877CC2BAF
:1004E000329595E6241FB14F0A000020410000C854
:1004F0004200401C4620BCBE4CCA1B0E5AAEC59DD5
:100500007400592311241FBECFEFD8E0DEBFCDBF4A
:1005100014BEE0E6F0E088E18083108211E0A0E004
:10052000B1E0ECE8F8E502C005900D92A434B10703
:10053000D9F723E0A4E4B1E001C01D92AD3FB207BA
:10054000E1F712E0C2E8D2E004C02197FE010E9468
:100550009324C138D107C9F70E942D190C94442C5B
:100560000C940000DC01ED91FC910480F581E02DFC
:1005700041E0099581E090E008950F931F93CF9398
:10058000DF931F92CDB7DEB78C01FC01848181110E
:1005900009C081E08483158284E290E069830E942F
:1005A00043166981F80185818627858381EB91E077
:1005B0000F90DF91CF911F910F910C94C70B87FF84
:1005C00080935B018F772FEF829FC001112464E637
:1005D00070E00E94492485E00C943D10CF92DF9298
:1005E000EF92FF92CF93DF93EC016A017B0120E051
:1005F00030E040EA51ECC701B6010E94B62A181655
:1006000014F08CE43CC020E030E04AEF53E4C70132
:10061000B6010E94AE2587FD02C088E430C08091FB
:10062000F402863499F426E636E646EE5FE3C70127
:10063000B6010E941C2B20E030E040E052E40E9412
:100640009A246D8B7E8B8F8B988F04C0CD8ADE8A27
:10065000EF8AF88E6C81062E000C770B880B990BB5
:100660000E94BD2A9B01AC016D897E898F89988D7E
:100670000E949A246D8B7E8B8F8B988F8FE48A8358
:10068000DF91CF91FF90EF90DF90CF9008958F9200
:100690009F92AF92BF92CF92DF92EF92FF920F9311
:1006A0001F93CF93DF93EC018B01F090F40280E075
:1006B00090E021E4F21203C00E94BB2A86C00E948F
:1006C000BB2A4B015C0120E030E84FE756E40E9472
:1006D000AE2518161CF00115110511F485E57AC038
:1006E0008981833009F051C0C988DA88EB88FC8899
:1006F00020E030E048EC52E4C701B6010E94B62A7F
:1007000087FF0AC0A701960160E070E48EE495E4DB
:100710000E9406256B017C01E881F0E0E058FE4F65
:1007200081A58823F9F081E000381E4308F080E0BD
:1007300081A76091AF017091B00180E090E00E94CC
:10074000BB2A9B01AC0160E070EC8FE794E40E944F
:1007500006259B01AC01C701B6010E9406256B016D
:100760007C0106C081E0003C124108F080E081A7D6
:1007700020E030EC4FE756E4C501B4010E940625A5
:10078000A70196010E941C2B5FC0A501940160E0A7
:1007900070EC8FE796E40E94062520E030E040E808
:1007A0005FE30E9499249B01AC0169897A898B8956
:1007B0009C890E94062522E5F2121AC020910C03A2
:1007C00030910D03C217D30799F06D8B7E8B8F8B01
:1007D000988F8FE48A83DF91CF911F910F91FF90C3
:1007E000EF90DF90CF90BF90AF909F908F90089543
:1007F0000E94BB256B017C012D853E854F85588964
:100800000E941C2BA70196010E941C2B29853A856A
:100810004B855C850E949A24A70196010E941C2B9F
:100820002D813E814F8158850E949A249B01AC0105
:1008300060E070E080E89FE30E94062523E333E94F
:1008400048E853E40E949924AB01BC01CE01DF913A
:10085000CF911F910F91FF90EF90DF90CF90BF90BD
:10086000AF909F908F900C94EE021F920F920FB654
:100870000F9211242F933F934F935F936F937F9326
:100880008F939F93AF93BF93EF93FF9380918601D4
:10089000882309F453C0815080938601823001F58A
:1008A0008091890190E0FC01EE0FFF1FEE0FFF1F0A
:1008B000E058FE4F40918201509183016091840184
:1008C000709185014387548765877687FC01E058DE
:1008D000FE4F2091870130918801231B23A38CC0F8
:1008E000813099F410928201109283011092840158
:1008F00010928501109287018FEF8093880180917B
:100900007C008F708093890177C0811175C08091C0
:10091000890181110EC084E08093810180918A0158
:1009200090E0019666E070E00E945D2480938A0169
:1009300063C080918001809381015EC080918101BC
:10094000882369F181508093810180917800909192
:1009500079004091820150918301609184017091EE
:100960008501480F591F611D711D409382015093ED
:100970008301609384017093850196958795969580
:100980008795282F30918701381710F480938701BD
:1009900030918801231780F5809388012DC08091C4
:1009A0007C008F70873058F08091780090917900AA
:1009B0009093B0018093AF011092890105C081111D
:1009C00003C080918A0101C080E0E82FF0E0E05888
:1009D000FE4F91A5911102C090E401C090EC2091CE
:1009E0007C00207C291711F020E301C023E0209334
:1009F0008601892B80937C00FF91EF91BF91AF918D
:100A00009F918F917F916F915F914F913F912F9126
:100A10000F900FBE0F901F9018951F920F920FB658
:100A20000F92112428980F900FBE0F901F901895C9
:100A30001F920F920FB60F9211242F933F934F9353
:100A40006F937F938F939F9320918A0030918B00B7
:100A500040910203443640F58091000390910103D8
:100A6000BC01625E7F4F621B730B6D33710518F022
:100A70002115310521F44F5F4093020308C0281768
:100A8000390718F4C9014E9602C0C9014E97009764
:100A900059F0289A2091840030918500820F931F8D
:100AA00090938B0080938A009F918F917F916F919B
:100AB0004F913F912F910F900FBE0F901F9018955F
:100AC0008AE290E00E9443166091530262956F7033
:100AD0006A3010F4605D01C0695C81EB91E00E94B6
:100AE000C70B609153026F706A3010F4605D01C0F3
:100AF000695C81EB91E00E94C70B8AE090E00E9464
:100B00004316109252020895682F8EE492E00C94DE
:100B1000BD02CF93DF93FC018491EF0121968823DE
:100B200021F00E948405FE01F7CFDF91CF91089557
:100B30008CE20C948405CF93DF9389E592E00E94C8
:100B40008905CFE0D3E00E94980569917991899158
:100B5000999148E00E94181783E0CF31D80799F7A0
:100B6000DF91CF910C9460058F929F92AF92BF92CC
:100B7000CF92DF92EF92FF920F931F93CF93DF9369
:100B8000C82F8EE492E00E9489058C2F0E941117D5
:100B90000E949805EC2FF0E0EE0FFF1FEC5FFC4F7A
:100BA000C081D1818E010B5F1F4F5E0185E1A80ED0
:100BB000B11CF801C190D190E190F1908F0188248F
:100BC000839420E030E0A901C701B6010E94B62A53
:100BD00087FD02C0812C04C0F7FAF094F7F8F09476
:100BE000912C20E030E040E85FE3C701B6010E94AD
:100BF000B62A87FF15C020E030E0A901C701B60181
:100C00000E94B62A882361F09A9420E030E040E206
:100C100051E4C701B6010E941C2B6B017C01E1CF9E
:100C200020E030E040E251E4C701B6010E94AE2569
:100C300087FD0CC0939420E030E040E251E4C7010E
:100C4000B6010E9406256B017C01EACFC701B601FF
:100C50008110905847E00E94181785E60E9484058D
:100C6000892D990C990B0E94F1170E9498050A157D
:100C70001B0509F09ECF89810E941117DF91CF914A
:100C80001F910F91FF90EF90DF90CF90BF90AF90AA
:100C90009F908F900C9460050F931F93CF93DF93D9
:100CA0008DE891E00E948905C4E0D3E004E411E0FE
:100CB0000E949805E991F9918181823021F4F8012F
:100CC00080810E9411170F5F1F4FF3E0CC30DF07C8
:100CD00079F7DF91CF911F910F910C946005EF92FE
:100CE000FF920F931F93CF938C01CB01C42FC60F9C
:100CF000C81759F0F80161918F017C01FFEFEF1ADD
:100D0000FF0A0E94E52BC701F3CFCF911F910F91EE
:100D1000FF90EF900895CF93DF931F92CDB7DEB78A
:100D2000698341E0BC01CE0101960E946F060F90DD
:100D3000DF91CF9108951F93CF93DF931F92CDB78B
:100D4000DEB78430F0F4182FE82FF0E0EE0FFF1F2D
:100D5000EC5FFC4F0190F081E02D618385E582839B
:100D6000138269830E94E71585E2189F802D112464
:100D7000835B698190E00F90DF91CF911F910C947C
:100D80008B060F90DF91CF911F910895843090F4DE
:100D9000E82FF0E0EE0FFF1FEC5FFC4F0190F081B9
:100DA000E02D648395E2899F802D1124825B90E081
:100DB0000C948B0608956091DD02633008F460E0C6
:100DC00087E190E00C948B060F931F93CF93DF93F2
:100DD00000D0CDB7DEB78C0118161906B4F49A838B
:100DE000898342E062E070E0CE0101960E946F06C6
:100DF0001092DD0210922403109223031092D80265
:100E00001093DF020093DE0211C083E08093DD02C5
:100E100010922403109223031195019511090536B0
:100E2000110514F004E610E00093D8020E94DB06DE
:100E30000F900F90DF91CF911F910F910895EF9236
:100E4000FF920F931F93CF93DF931F92CDB7DEB71F
:100E50007C01415068F08B010F5F1F4FCB0149832C
:100E60000E94DD2BF70181937F01B8014981F1CF09
:100E70000F90DF91CF911F910F91FF90EF90089508
:100E8000843068F465E2869F602D112480E4860F2B
:100E9000682F70E04DE085E691E00C941F070895FF
:100EA000CF9384E592E00E948905C0E08C2F0E94D8
:100EB00040070E94980565E671E08EE492E00E948A
:100EC0001819CF5FC43091F7CF910C946005FC01E5
:100ED0002FB7F8946EBD0DB407FEFDCFA285B38584
:100EE0009C918185892B8C93A285B3859C9181856A
:100EF000809589238C932FBF0895FC0164810C9405
:100F000067070F931F93CF938C01C62F68600E94D1
:100F100067076C2F677FC801CF911F910F910C94C9
:100F20006707607F0E9481078BE990E00197F1F7E6
:100F300008950F931F93CF93DF938C01C62F411118
:100F400044E0F8019481D42FD92B6C2F607F6D2B56
:100F5000C8010E948107F0E1CF9FB00111246D2BE1
:100F6000C8010E9481078BE990E00197F1F7DF91BA
:100F7000CF911F910F910895DC01ED91FC910480B8
:100F8000F581E02D40E00994CF93DF9300D000D0AD
:100F9000CDB7DEB7FC01198280E48A8384E18B83BC
:100FA00084E58C838085841710F44FEF480FDE01B1
:100FB000A40FB11D11969C91690F6068CF010F902D
:100FC0000F900F900F90DF91CF910C94BC0761E0D0
:100FD0000E94BC078BE39FE10197F1F70895CF933F
:100FE000DF93D82FC92F662321F08CEC92E00E946A
:100FF000E707ED2FFC2F6491EF012196662331F076
:101000008CEC92E00E94B202FE01F5CFDF91CF910D
:1010100008956F927F928F929F92AF92BF92CF92DC
:10102000DF92EF92FF920F931F93CF93DF93CDB791
:10103000DEB762970FB6F894DEBF0FBECDBF10913A
:101040005C028EEF810F853008F0A3C140E060E0C4
:101050008CEC92E00E94C4071630F9F48091600194
:101060008F3F59F410925C0110925D0110925E0165
:1010700010925F0185E08093600180914A0160E0F9
:1010800080FD03C08DE392E002C08CE292E00E94FA
:10109000EF0710914A01169506C18FEF809360010A
:1010A0000E94401180915B010E94DF02E0917F016C
:1010B000E43008F085C0F0E0EE0FFF1FEC5FFC4F5E
:1010C0000190F081E02D82818F3409F079C020E019
:1010D00030E040E251E4658976898789908D0E94ED
:1010E0001C2B0E94782577FF06C0EE24FF24E61A09
:1010F000F70A01E002C07B0100E010E16AE0C62EC1
:10110000D12C76E0B72EE114F10411F4193044F13A
:10111000C701B6010E944924A62EB89E9001B99E2F
:10112000300D1124A90144565E4F7A01135040E05E
:10113000612F8CEC92E07A8B0E94C40763E0C701B8
:101140000E94D21541E0612F8CEC92E00E94C4070E
:1011500063E0C70103960E94D215EA2C7A89F72E24
:10116000115040E0612F8CEC92E00E94C40760E2D5
:101170008CEC92E00E94B20241E0612F8CEC92E094
:101180000E94C4071C3031F46EE28CEC92E00E94A5
:10119000B202B9CFE114F10459F419304CF4002330
:1011A00039F061E08CEC92E00E94B20200E005C0F0
:1011B00060E28CEC92E00E94B2021111A4CFE9C06F
:1011C000E0910C03F0910D0302810F3441F4658925
:1011D00076898789908D0E947825962F02C090E0AD
:1011E00070E03091DD02DE0111967D01333059F05F
:1011F0000F3409F481C041E150E06BE172E0CD01B0
:101200000E946B2646C040912303509124032091F5
:10121000F40241155105B1F05F934F93422F022E16
:10122000000C550B5F932F937F939F9387EF91E073
:101230009F938F931F9281E18F93FF92EF920E9471
:101240008A2622C0333019F03DE58BE502C03EE529
:101250008EE51F923F933091D8021F923F931F92C9
:101260008F93422F022E000C550B5F932F937F9389
:101270009F9382EE91E09F938F931F9281E18F93D2
:10128000FF92EF920E948A260FB6F894DEBF0FBE3F
:10129000CDBFB7018CEC92E00E94181980917F01BC
:1012A0008F3F19F41150012F02C003E011E0DE015D
:1012B00011966D0135E6832E31E0932E48EDA42E74
:1012C00041E0B42E51E1652E81E0782E711A0117AC
:1012D00008F45FC0143048F5E12EF12CC701880FE7
:1012E000991F9C012C5F3C4F7901D901ED91FC9134
:1012F00082818F34D1F42FC0343009F084CF8091B3
:10130000F402282F082E000C330B3F938F937F930A
:101310009F9389E092E09F938F931F9281E18F9337
:10132000FF92EF920E948A26AFCF41E150E060E247
:1013300070E0C6010E944226198A472D410F60E0E5
:101340008CEC92E00E94C407B6018CEC92E00E9403
:1013500018191F5FBCCF812F0E944007D701ED9164
:10136000FC91658976898789908D0E9478257F9385
:101370006F939F928F92BF92AF921F926F92DF9264
:10138000CF920E948A260FB6F894DEBF0FBECDBF63
:10139000D4CF62960FB6F894DEBF0FBECDBFDF91FB
:1013A000CF911F910F91FF90EF90DF90CF90BF9062
:1013B000AF909F908F907F906F9008952CB5216093
:1013C0002CBD2A989EBD0DB407FEFDCF2EB530E092
:1013D000322F22278EBD0DB407FEFDCF9EB52A9A6F
:1013E0008CB58E7F8CBDA901492BCA010895CF927F
:1013F000DF92EF92FF920F931F93CF93DF93E4E07E
:10140000F3E080E0A191B19111969C91923009F4A2
:101410008F5F93E0EC30F907A9F7882309F491C0B6
:1014200080919F0281118DC0229A2A9A61E08BE0FF
:101430000E94011060E08CE00E94011061E08DE0EC
:101440000E94011080E58CBD8DB581608DBD60E08E
:1014500082E00E94011080E090E00E94DE0981E0BD
:1014600092E80E94DE0980E098EB0E94DE09C5E266
:10147000D3E00CEA14E038E9E32E34E0F32EFE0169
:101480008491F801C490F701D490D11005C080E098
:1014900090E00E94DE09F3CF81110E94840F8D2D10
:1014A00090E0880F991F8E569E4FFC01A591B49134
:1014B0008C91C82261F387EF90E80E94DE0983EDEA
:1014C00097EA0E94DE0983E196EC0E94DE0982EA37
:1014D00094E90E94DE098CEA92EC0E94DE0983E81E
:1014E0009AEC0E94DE0984ED9EEC0E94DE0987EBF7
:1014F00094EC0E94DE0980E398E90E94DE0986E709
:101500009CEC0E94DE0980E090EE0E94DE0980E003
:1015100098EC0E94DE0980E090EC0E94DE0983E0F6
:1015200080934B018AEA9AE0909301018093000135
:10153000809169008C7F80936900E89A81E08093B4
:101540009F02DF91CF911F910F91FF90EF90DF905D
:10155000CF9008951F93CF93DF9380E090E00E9497
:10156000DE09192F9093640180914B01843009F0BA
:1015700065C080E090EB0E94DE09EC01809149019A
:1015800063E00E943D24911114C0117080914801C4
:10159000212F30E0280F311D280F311DF901EC5F9C
:1015A000FE4F80818093480190E0806A94690E9498
:1015B000DE098091490181111EC09E01332784E01C
:1015C000359527958A95E1F72E5F3F4F35952795FD
:1015D0002093570180915701823008F477C08091A1
:1015E00057018B3008F072C0E0916201F091630105
:1015F000309709F00995E091490181E08E0F8093C1
:101600004901F0E0E35BFE4F8C2FC08390914C01C9
:10161000892798E021E387FF03C0880F822701C054
:10162000880F9150C1F780934C01909149018091AE
:10163000570198134FC089E092E843C080914B0155
:1016400087FF1DC080915701E0914B0191E09E0FF3
:1016500090934B01E80FF0E0E35BFE4F80819091A7
:101660004C01982728E031E397FF03C0990F932797
:1016700001C0990F2150C1F790934C0120C0809177
:101680004B0191E0980F90934B01823089F02CF43C
:10169000811112C080914C0112C0853079F08630E2
:1016A00059F480915701819580934B0184ED07C0D7
:1016B00089E092E80E94DE098AEA01C08DE290E0AA
:1016C0009854DF91CF911F910C94DE0982E08093B2
:1016D00057018ACFDF91CF911F910895FC01918D21
:1016E000828D981761F0828DDF01A80FB11D5D9684
:1016F0008C91928D9F5F9F73928F90E008958FEFF2
:101700009FEF0895FC01918D828D981731F0828DA5
:10171000E80FF11D858D90E008958FEF9FEF0895FC
:10172000FC01918D228D892F90E0805C9F4F821B60
:1017300091098F739927089581EB91E00E94900B96
:1017400021E0892B09F420E0822F0895FC01848D8B
:10175000DF01A80FB11DA35ABF4F2C91848D90E0DB
:1017600001968F739927848FA689B7892C93A089B6
:10177000B1898C9180648C93938D848D981306C06D
:101780000288F389E02D80818F7D80830895EF9218
:10179000FF920F931F93CF93DF93EC0181E0888F2B
:1017A0009B8D8C8D981305C0E889F989808185FD12
:1017B00024C0F62E0B8D10E00F5F1F4F0F73112703
:1017C000E02E8C8DE8120CC00FB607FCFACFE8892A
:1017D000F989808185FFF5CFCE010E94A60BF1CF5C
:1017E0008B8DFE01E80FF11DE35AFF4FF0820B8F46
:1017F000EA89FB898081806207C0EE89FF89608366
:10180000E889F98980818064808381E090E0DF91BC
:10181000CF911F910F91FF90EF900895CF93DF9399
:10182000EC01888D8823C9F0EA89FB89808185FDD8
:1018300005C0A889B9898C9186FD0FC00FB607FC39
:10184000F5CF808185FFF2CFA889B9898C9185FF7A
:10185000EDCFCE010E94A60BE7CFDF91CF91089587
:1018600080E090E0892B29F00E949C0B81110C9460
:10187000000008950895F89480918B0190918C0157
:10188000A0918D01B0918E01789424E0B695A79532
:10189000979587952A95D1F7882379F02BEE280F15
:1018A000273268F023EC280F273258F027E8280F5A
:1018B000273248F0815A873240F080E0089581E075
:1018C000089588E0089584E0089582E008950E94D4
:1018D0003D26803819F40E9409080CC08F7051F021
:1018E00060E070E080914A010E941E120E942C1557
:1018F00082E0089581E00895CF93C82F803851F495
:1019000061E089ED92E00E94EF071092BA03109215
:10191000B90314C0803491F48091B9039091BA0353
:10192000892B61F081E00E94371481E00E94AF139F
:101930008FEC92E00E9489050E9460058C2F0E9426
:10194000F21881E0CF910895CF93C82F803891F499
:1019500061E08FEB92E00E94EF0781E090E0209140
:10196000DD02233011F080E090E09093BA03809381
:10197000B9031DC08034D9F481E02091B9033091BE
:10198000BA03232B09F480E091E02091DD0223309B
:1019900009F090E0891759F0811105C08091DE02AD
:1019A0009091DF0202C080E090E00E94E4068C2F5C
:1019B0000E94F21881E0CF9108958038A1F48091BF
:1019C0005C02853009F451C0E6E0F3E0A191B191E9
:1019D00012969C919F3409F45AC093E0EC30F907B9
:1019E000A9F785E008959091DD02813181F494306A
:1019F00011F084E001C080E08093DD0210922403A6
:101A0000109223031092D8020E94DB062EC093305E
:101A100029F5843031F0883031F0813041F52FEFF5
:101A200003C025E001C02BEF9091D802022E000CDC
:101A3000330B290F311D93E09093DD0210922403A4
:101A40001092230337FD06C02536310524F024E625
:101A500030E001C020E02093D80205C0813019F4A5
:101A6000943039F402C0803411F00E94090881E0FA
:101A7000089561E070E08091230390912403892B05
:101A800011F060E070E082E00E941B13EECF823024
:101A900049F4E0910603F091070382818F3429F322
:101AA00083E00895833049F4E0910803F09109033D
:101AB00082818F34D1F284E008958430B1F6E091D0
:101AC0000A03F0910B0382818F3479F282E008954A
:101AD0000F931F93CF93DF93CDB7DEB761970FB608
:101AE000F894DEBF0FBECDBF909161029B3018F01D
:101AF000660F660F03C0963008F0660FE091B903D9
:101B0000F091BA03843019F4E60FF11D04C0883057
:101B100031F4E61BF109F093BA03E093B903809125
:101B2000B9039091BA038417950724F45093BA032C
:101B30004093B9038091B9039091BA0328173907EC
:101B400024F43093BA032093B90341E060E08CECB5
:101B500092E00E94C4078091F402282F082E000C06
:101B6000330B3F938F938091BA038F938091B90386
:101B70008F931F930F931F9281E18F938E010F5FBD
:101B80001F4F1F930F930E948A26B8018CEC92E09E
:101B90000E9418190FB6F894DEBF0FBECDBF619634
:101BA0000FB6F894DEBF0FBECDBFDF91CF911F916E
:101BB0000F910895FF920F931F93CF93DF931F927E
:101BC000CDB7DEB7F82E80E8F8120DC061E08AE0EC
:101BD00093E00E94EF0780915B0190E09093BA033D
:101BE0008093B9031BC080E4F81218C06091B90358
:101BF0007091BA0380915B0190E06817790771F0EA
:101C0000653608F064E6862F69830E94DF026981E9
:101C100088E190E00E948B060E945C1504E013E0CE
:101C200024E630E040E050E06AE08F2D0E94680D2D
:101C30008091B90380680E94DF0281E00F90DF91FC
:101C4000CF911F910F91FF9008950F931F93CF9302
:101C5000C82F803869F461E083EF92E00E94EF07BB
:101C60008091F50290E09093BA038093B90317C076
:101C70008034A9F46091B9037091BA038091F502A0
:101C800090E06817790759F0653608F064E66093CC
:101C9000F5028FE190E00E948B060E94FA1407EE95
:101CA00012E024E630E040E050E065E08C2F0E9436
:101CB000680D81E0CF911F910F9108950F931F93AD
:101CC000CF93C82F803871F461E080EB92E00E94DE
:101CD000EF078091E2029091E3029093BA03809320
:101CE000B90309C0803439F46091B9037091BA0323
:101CF00081E00E941B1304EA12E028EE33E040E08A
:101D000050E06AE08C2F0E94680D81E0CF911F9116
:101D10000F9108950F931F93CF93C82F803869F4C4
:101D200061E084E992E00E94EF0780910E0390E069
:101D30009093BA038093B90309C0803439F4609159
:101D4000B9037091BA0380E00E941B1304E812E00B
:101D500024E630E040E050E061E08C2F0E94680D06
:101D600081E0CF911F910F9108950F931F93CF930F
:101D7000DF93D82FE0915C02C3EFCE0F8038F9F4E7
:101D80008C2F0E9440078CEC92E00E94E70765E6EA
:101D900071E08CEC92E00E941819EC2FF0E0EE0F4D
:101DA000FF1FEC5FFC4F0190F081E02D8481082E35
:101DB000000C990B9093BA038093B9030BC0803445
:101DC00049F46091B9037091BA038C2F0E94C60642
:101DD0000E949D1506E712E024E630E04CE95FEF33
:101DE00061E08D2F0E94680D81E0DF91CF911F91FE
:101DF0000F9108950F931F93CF93C82F803871F4DC
:101E000061E085E692E00E94EF078091DE0290910A
:101E1000DF029093BA038093B9030FC0803469F452
:101E20008091B9039091BA032091DE023091DF02D4
:101E30008217930711F00E94E4060EE512E028EEE7
:101E400033E040E050E065E08C2F0E94680D81E0B7
:101E5000CF911F910F9108951F920F920FB60F927D
:101E600011242F933F934F935F936F937F938F939F
:101E70009F93AF93BF93EF93FF9381EB91E00E9409
:101E8000A60BFF91EF91BF91AF919F918F917F91A1
:101E90006F915F914F913F912F910F900FBE0F90D7
:101EA0001F9018951F920F920FB60F9211242F9327
:101EB0008F939F93EF93FF93E091C101F091C20143
:101EC0008081E091C701F091C80182FD12C090812C
:101ED0008091CA018F5F8F732091CB01821751F0DF
:101EE000E091CA01F0E0EF54FE4F958F8093CA0154
:101EF00001C08081FF91EF919F918F912F910F9061
:101F00000FBE0F901F901895833081F028F4813018
:101F100099F08230A1F008958730A9F08830B9F0A7
:101F20008430D1F4809180008F7D03C08091800047
:101F30008F7780938000089584B58F7702C084B531
:101F40008F7D84BD08958091B0008F7703C080910C
:101F5000B0008F7D8093B00008951F93CF93DF93DF
:101F6000282F30E0F901ED5DFC4F8491F901E65531
:101F7000FB4FD491F901EA56FB4FC491CC23C9F031
:101F8000162F81110E94840FEC2FF0E0EE0FFF1F3F
:101F9000E457FB4FA591B4918FB7F894111105C088
:101FA0009C91ED2FE095E92302C0EC91ED2BEC9391
:101FB0008FBFDF91CF911F910895811103C089E0F8
:101FC0000C94AD0F2FEF280F2230D0F481E090E079
:101FD00001C0880F2A95EAF72091D002662311F0FC
:101FE000822B02C0809582238093D002E091CC02A4
:101FF000F091CD020084F185E02D8CEC92E0099403
:102000000895CF93DF9390E0FC01E655FB4F2491B8
:10201000FC01EA56FB4F8491882361F190E0880F20
:10202000991FFC01E75EFC4FC591D491FC01E45778
:10203000FB4FA591B491611109C09FB7F8948881B5
:10204000209582238883EC912E230BC0623061F4AB
:102050009FB7F8943881822F809583238883EC91F1
:102060002E2B2C939FBF06C08FB7F894E8812E2BA0
:1020700028838FBFDF91CF9108951F93CF93DF9374
:10208000182FEB0161E00E940110209711F460E02D
:1020900004C0CF3FD10539F461E0812FDF91CF91AA
:1020A0001F910C94AD0FE12FF0E0ED5DFC4FE4913A
:1020B000E330F9F048F4E130B9F0E230A1F584B54D
:1020C000806284BDC8BD34C0E730E9F0E83019F162
:1020D000E43049F580918000806280938000D09345
:1020E0008B00C0938A0024C084B5806884BDC7BDBE
:1020F0001FC080918000806880938000D093890009
:10210000C093880015C08091B00080688093B000B3
:10211000C093B3000DC08091B00080628093B00086
:10212000C093B40005C0C038D1050CF0B5CFAFCF17
:10213000DF91CF911F9108952FB7F89460917B01A3
:1021400070917C0180917D0190917E012FBF089557
:102150001F920F920FB60F9211242F933F938F93DC
:102160009F93AF93BF9380917B0190917C01A0914D
:102170007D01B0917E0130917A0123E0230F2D374C
:1021800020F40196A11DB11D05C026E8230F02967B
:10219000A11DB11D20937A0180937B0190937C0156
:1021A000A0937D01B0937E0180917601909177019B
:1021B000A0917801B09179010196A11DB11D809384
:1021C000760190937701A0937801B0937901BF9144
:1021D000AF919F918F913F912F910F900FBE0F90D4
:1021E0001F9018951F920F920FB60F9211242F93E4
:1021F0003F934F935F936F937F938F939F93AF938F
:10220000BF93EF93FF93E0910201F09103010995D1
:10221000FF91EF91BF91AF919F918F917F916F91BE
:102220005F914F913F912F910F900FBE0F901F9094
:1022300018951F920F920FB60F9211242F933F9370
:102240004F935F936F937F938F939F93AF93BF93BE
:10225000EF93FF93E0910001F09101010995FF9147
:10226000EF91BF91AF919F918F917F916F915F910E
:102270004F913F912F910F900FBE0F901F90189587
:10228000EFE6F0E080818D7F80835E9808951F9255
:102290000F920FB60F9211242F933F934F935F939A
:1022A0006F937F938F939F93AF93BF93EF93FF931E
:1022B0008091590190915A01892BF1F08091880009
:1022C0009091890086509F4F80342CE9920710F03E
:1022D00080E090E09093890080938800809159017C
:1022E00090915A01019790935A01809359019BB1A3
:1022F00080E489278BB902C00E944011FF91EF91C1
:10230000BF91AF919F918F917F916F915F914F910D
:102310003F912F910F900FBE0F901F9018950F9324
:102320001F93CF93DF931F92CDB7DEB78C01DC01F3
:1023300018968C91189719968C93623068F40E94C5
:102340009C10F80166877787808B918B0F90DF91C7
:10235000CF911F910F910895D80118968C9168170D
:1023600071F3D8011496ED91FC911597309759F0BF
:102370003196259134912115310529F080E4698346
:10238000F90109956981D80118966C9318978D9178
:102390009C91119715969C938E9314971D961C9261
:1023A000D8011496ED91FC9115978491882311F032
:1023B000861304C0309709F4C2CF07C03596D80100
:1023C0001596FC93EE931497EBCF319625913491AB
:1023D0002115310509F4B1CF80E8F9010995682F7D
:1023E000ACCF62E08CEC92E00E94BC078BE39FE1F3
:1023F0000197F1F740E150E06AE672E08CEC92E080
:102400000E94501841E060E08CEC92E00E94C4070A
:1024100040E150E06AE772E08CEC92E00E945018D4
:1024200081E00895803811F40C94F11180915D02DF
:102430000895811102C0609358010895CF93DF93EE
:1024400000D0CDB7DEB7272F7A836983982F969572
:10245000E92FF0E0EE0FFF1FEC5FFC4F0190F081E1
:10246000E02D8170462F522F282F30E0DF01A20F80
:10247000B31F93961C92939791961C924115510508
:10248000A9F0220F331FE20FF31F568F458F9430B0
:1024900068F4880F25E2929F800D1124815B682FDC
:1024A00070E042E0CE0101960E946F060F900F90FF
:1024B000DF91CF910895BF92CF92DF92EF92FF927A
:1024C0000F931F93CF93DF936C01B62E04E013E0BC
:1024D00094E4E92E91E0F92EF801C191D1918F0198
:1024E0008981823001F5F70180818F37A9F1F601EA
:1024F0009281891318C030C0F60187816081718193
:1025000082FF30C0072E000C880B990B0E94BD2A59
:1025100020E030E040E251E40E940625AB01BC011E
:10252000CE010E94EE02FFEFEF1AFF0A83E00C30AB
:10253000180791F68B2D8570E9F080919F02882312
:10254000C9F0DF91CF911F910F91FF90EF90DF9035
:10255000CF90BF900C941F18E4E0BE12CDCF60E086
:1025600070E004C0660F771F660F771FCE010E94D0
:102570004703D9CFDF91CF911F910F91FF90EF903B
:10258000DF90CF90BF900895CF93DF931F92CDB788
:10259000DEB790E08830910508F049C0FC01EC5CA2
:1025A000FF4F0C949324653608F064E66093F702BD
:1025B0008EE190E037C0653608F064E66093F5027E
:1025C0008FE190E02FC06093FA028AE080930303CA
:1025D00087E290E027C06093F9028AE080930303CA
:1025E00088E290E01FC0862F69830E9402166981ED
:1025F00080E290E017C0653608F064E66093F6026A
:1026000082E290E00FC0643608F060E06093F80268
:1026100089E290E007C0653608F064E66093FB024B
:102620008AE290E00F90DF91CF910C948B060F908F
:10263000DF91CF910895CF93DF9300D0CDB7DEB770
:1026400077FD11C0813099F038F0823029F13AC01D
:10265000813090F560E070E060930E0384E090E0DC
:102660000E948B062FC0813099F760E070E0962FB2
:10267000872F6E31710510F49EE180E09093E202A5
:102680008093E3027A83698342E065E070E0CE01E3
:1026900001960E946F0616C0672B81F081E080933F
:1026A000DD021092D8028091E2029091E3029093B1
:1026B00024038093230306C0823021F41092240364
:1026C000109223030F900F90DF91CF9108950F93F5
:1026D0001F93CF93DF93D82FC62F813071F018F05E
:1026E0008630C0F519C0653608F0C4E68C2F0E940C
:1026F000DF026C2F88E190E027C060937F0181E2C8
:1027000090E00E948B0680915C028250853020F41C
:102710008CEC92E00E94E7078EEF8D0F082F10E0FF
:10272000F801EE0FFF1FE00FF11FE557FD4FC083CB
:102730009281913031F4E0919D02F0919E0260E02F
:1027400009956C2FC8018396DF91CF911F910F914E
:102750000C948B06DF91CF911F910F910895BF923A
:10276000CF92DF92EF92FF920F931F93CF93DF935D
:10277000CDB7DEB7AD970FB6F894DEBF0FBECDBFB5
:10278000E82E42E06EE370E0CE0101960E941F0742
:1027900089819A818E30904F69F08EE090EF9DA7ED
:1027A0008CA742E06EE370E0CE018C960E946F062B
:1027B000EE24E39484E0C82E83E0D82E90E3F92E33
:1027C00000E410E020E1B22EEE2081F045E250E07E
:1027D00068E973E0CE0101960E946B26FF8245E214
:1027E000B801CE0101960E946F0606C045E2B8010D
:1027F000CE0101960E941F07F601219131916F01D0
:102800008E85F90181838F858483D9011596FE0118
:1028100076968B2D01900D928A95E1F7888999899A
:10282000F90113A211A2009711F0968F858F8A8962
:102830009B89F90114A212A2009711F090A3878F2F
:102840000B5D1F4FF394043D110509F0BDCFAD960C
:102850000FB6F894DEBF0FBECDBFDF91CF911F91B1
:102860000F91FF90EF90DF90CF90BF900895CF929F
:10287000DF92EF92FF921F93CF93DF93CDB7DEB736
:10288000AB970FB6F894DEBF0FBECDBF182F4BE24B
:1028900060E070E0CE0101960E941F0711119AC0FE
:1028A00089819A818E30904F09F094C08B819C81F0
:1028B00010922403109223031092D8029093DF0207
:1028C0008093DE028D8180930E038E819F818E31F5
:1028D000910510F48EE190E09093E3028093E20280
:1028E00080E1FE013896AFE0B3E001900D928A9549
:1028F000E1F7888D8093DD02898D0E94DF028A8D49
:102900009B8DAC8DBD8D8093440190934501A09328
:102910004601B09347018E8D833409F086E40E940E
:102920002A168F8D853608F084E68093F70288A1F9
:10293000853608F084E68093F5028AA5843608F08F
:1029400080E08093F8028BA1853608F084E68093BE
:10295000F60289A10E9402168AA180937F0188A5B0
:102960008093FA028AE08093030389A58093F90299
:102970008BA5853608F084E68093FB026E0184E225
:10298000C80ED11C8BE8E82E82E0F82E10E0F6018C
:1029900081916F01F70180838281813039F4E09168
:1029A0009D02F0919E0260E0812F09951F5FF3E088
:1029B000EF0EF11C143059F7AB960FB6F894DEBF4A
:1029C0000FBECDBFDF91CF911F91FF90EF90DF90B1
:1029D000CF9008954BE250E06DE673E0CE01019692
:1029E0000E946B264BE260E070E0CE0101960E94EF
:1029F0006F065CCFCF93DF9387E693E00E94890553
:102A0000C8EDD2E08F8D0E9411170E9498058D8D20
:102A10000E9411170E9498058AA10E9411170E9416
:102A2000980589A10E9411170E9498058CA10E9407
:102A300011170E9498058E8D0E9411170E9498050B
:102A400088A10E9411170E9498058BA10E9411175E
:102A5000DF91CF910C9460050F931F93CF93DF9379
:102A600082E693E00E94890504E013E0F801C19139
:102A7000D1918F010E9498058D8D9E8D0E94F11736
:102A800089A1882319F08CE40E9484050E9498058E
:102A90008F8D98A10E94F1178AA1882319F088E4EC
:102AA0000E948405F3E00C301F0701F7DF91CF91FE
:102AB0001F910F910C946005CF93DF938CE593E009
:102AC0000E94890580915B010E9411170E94980560
:102AD00080917F010E941117CBE8D2E00E949805F7
:102AE00088810E941117239682E0C739D807B1F771
:102AF000DF91CF910C946005CF93DF9386E593E04F
:102B00000E948905C8EDD2E08EA90E9411170E948B
:102B100098056A857B8580E090E04AE00E94CE16A9
:102B2000DF91CF910C9460058CE393E00E948905BE
:102B300082E40E9448160C946005CF92DF92EF92D7
:102B4000FF92CF93DF9387E393E00E948905C4E06F
:102B5000D3E00E949805E991F991C4800C2C000CF7
:102B6000DD08EE08FF08F7FE0CC08DE20E94481653
:102B700066277727CB016C197D098E099F094AE0EA
:102B800003C04AE0C701B6010E94CE1683E0CC30F4
:102B9000D807F9F6DF91CF91FF90EF90DF90CF90BB
:102BA0000C9460051F93CF93DF93C82FD92F162F56
:102BB000180F1C1741F0FE0164918CEC92E00E940A
:102BC000B2022196F6CFDF91CF911F9108958091A7
:102BD00004039091050390930D0380930C03E4E0AC
:102BE000F3E0A191B19111968C911197882329F06E
:102BF000B0930D03A0930C03089583E0EC30F80725
:102C000081F70895CF93DF931F92CDB7DEB7898305
:102C10008093FC02898185FD05C0898186FD04C001
:102C20008FEF03C080EC01C080EAF89480938001AC
:102C300083E08093860178948093B000898184FF3B
:102C400002C081E001C085E08093B1000F90DF9168
:102C5000CF910895863451F02CF4813439F08334C7
:102C600089F404C08F3429F0823561F48093F40232
:102C7000089584E08093DD021092240310922303D0
:102C80001092D8020895682F81EB91E00C94C70B45
:102C9000E0914E02F0914F020190F081E02D682FFB
:102CA0008EE492E009940F931F93CF93DF930E94D9
:102CB0009C100091970210919802209199023091F6
:102CC0009A0240919C02442329F0601B710B643FDF
:102CD000714078F10E949C10609397027093980263
:102CE0008093990290939A0281E080939C02809154
:102CF0009B028F5F80939B02CDE8D2E010E0809131
:102D00009B0280FF07C0FE018291823071F48883AC
:102D1000108204C08881823041F41882E0919D02C3
:102D2000F0919E026881812F09951F5F23961430D0
:102D300031F7DF91CF911F910F910895FF920F937B
:102D40001F93CF93DF93F82E062FCDE8D2E010E04B
:102D5000FE0132979081892F8F778F1115C03196A0
:102D600000832881223081F0023071F0991F992769
:102D7000991F692F6027621739F06883E0919D02DF
:102D8000F0919E02812F09951F5F2396143001F761
:102D9000DF91CF911F910F91FF9008958F929F9295
:102DA000AF92BF920F931F93CF93DF93CDB7DEB750
:102DB000A1970FB6F894DEBF0FBECDBF19A2423067
:102DC00008F44AE08E010F5D1F4F842E912CA12C38
:102DD000B12CA50194010E947124E62FB901CA010A
:102DE00001501109EA3014F4E05D01C0E95CD8013A
:102DF000EC93232B242B252B61F7B8018EE492E072
:102E00000E941819A1960FB6F894DEBF0FBECDBF71
:102E1000DF91CF911F910F91BF90AF909F908F90B6
:102E20000895682F70E080E090E04AE00C94CE16A0
:102E30004F925F926F927F928F929F92AF92BF92CA
:102E4000CF92DF92EF92FF926B017C01B42E9B0137
:102E5000AC010E940326882319F066E371E027C0C5
:102E600026013701E89477F82FEF3FEF4FE75FE750
:102E7000C301B2010E94032681110DC02FEF3FEF65
:102E80004FE75FE7C301B2010E94B62A18161CF48F
:102E90006AE371E00CC02FEF3FEF4FE75FE4C7013B
:102EA000B6010E94AE25181694F46EE371E08EE42C
:102EB00092E0FF90EF90DF90CF90BF90AF909F9007
:102EC0008F907F906F905F904F900C9418192FEF18
:102ED0003FEF4FE75FECC701B6010E94B62A87FDBE
:102EE000E4CF20E030E0A901C701B6010E94B62A74
:102EF00087FF09C08DE20E9448164C01F7FAF09452
:102F0000F7F8F09402C0812C912CA12C60E070E0C5
:102F100080E09FE3AB1441F020E030E040E251E478
:102F20000E940625A394F6CF9B01AC01C701B60110
:102F30000E949A242B013C010E947F256B017C0199
:102F40000E94BB2A9B01AC01C301B2010E949924DB
:102F50002B013C014AE0C701B6010E94CE167C015C
:102F6000E80CF91CBB2041F062E471E08EE492E0D1
:102F70000E941819E80EF91EDB2CDD2021F120E05B
:102F800030E040E251E4C301B2010E941C2B2B014E
:102F90003C010E947F254B01A12CB12C4AE0C501C8
:102FA000B4010E94CE16E80EF91EC501B4010E94BC
:102FB000BB2A9B01AC01C301B2010E9499242B01E1
:102FC0003C01DA94DACFC701FF90EF90DF90CF9009
:102FD000BF90AF909F908F907F906F905F904F9039
:102FE0000895CF92DF92EF92FF92CF93DF936C011F
:102FF000990FEE08FF08F7FE17C08DE20E944816F1
:10300000EC0166277727CB016C197D098E099F0992
:103010004AE00E94CE168C0F9D1FDF91CF91FF904A
:10302000EF90DF90CF9008954AE0C701B601DF919D
:10303000CF91FF90EF90DF90CF900C94CE160F932E
:103040001F93CF93DF938DEB93E00E9489058091CE
:10305000A6020E941117C0E0D0E08E0101561D4F5C
:10306000F80182858F3F91F00E949805F8018285D2
:103070000E9411170E949805F80187850E94111778
:103080000E949805F80180890E9411172996C43280
:10309000D10519F7DF91CF911F910F910C94600525
:1030A000CF92DF92EF92FF920F931F93CF93DF9314
:1030B0006C017A018B01C0E0D0E0CE15DF0589F00C
:1030C000D8016D918D01D601ED91FC910190F081B7
:1030D000E02DC6010995892B11F47E0102C02196CD
:1030E000ECCFC701DF91CF911F910F91FF90EF902F
:1030F000DF90CF9008950F931F93CF93DF9380912C
:10310000FF028823D9F19091FC0294FF37C0F89414
:1031100080918F0190919001A0919101B0919201C5
:1031200078940091FE0210E0C091FF02D0E0BC0153
:10313000CD0134E0660F771F881F991F3A95D1F7AC
:103140002091800130E040E050E00E94712446E090
:10315000369527954A95E1F7CE01821B910997FD97
:10316000019695958795800F911F1816190694F46E
:103170008F3F910519F014F08FEF90E08093FE02DD
:103180006091FE0270E083E0DF91CF911F910F917B
:103190000C943D1081E0F2CFEF92FF921F93CF93FA
:1031A000DF937C0110E0C3ECD3E098819923A1F078
:1031B0009C3219F41F5F2196F8CFCE010E944D2654
:1031C000BC01812FF7010995DE01ED019D91992345
:1031D00061F39C32D1F7E9CFDF91CF911F91FF903E
:1031E000EF900895843011F0883071F481E090E020
:1031F0002091B9033091BA03232B11F080E090E0C5
:103200009093BA038093B90341E060E08CEC92E0C4
:103210000E94C4078091B9039091BA03892B19F4D5
:103220008EEB94E002C082EC94E060E00C94EF0737
:103230006115710579F0FB0101900020E9F73197E4
:10324000AF01461B570BDC01ED91FC910280F3812D
:10325000E02D099480E090E00895CF93DF9300D0B3
:1032600000D000D0CDB7DEB7789484B5826084BD3D
:1032700084B5816084BD85B5826085BD85B581607A
:1032800085BD80916E00816080936E0010928100F8
:1032900080918100826080938100809181008160B3
:1032A0008093810080918000816080938000809174
:1032B000B10084608093B1008091B0008160809300
:1032C000B00080917A00846080937A0080917A00C7
:1032D000826080937A0080917A00816080937A0086
:1032E00080917A00806880937A001092C100219AC0
:1032F00062E080E00E949E160E945316E091C10198
:10330000F091C20182E08083E091BD01F091BE01A5
:103310001082E091BF01F091C00183E3808310929D
:10332000C901E091C501F091C60186E08083E0917A
:10333000C301F091C401808180618083E091C30169
:10334000F091C401808188608083E091C301F09195
:10335000C401808180688083E091C301F091C40141
:1033600080818F7D80838AE090E00E9443160E94D6
:10337000941580E880BF8FE380937E008091640085
:10338000806880936400569A84E993E090930503E3
:10339000809304038FE693E09093070380930603E2
:1033A0008AE493E0909309038093080385E293E015
:1033B00090930B0380930A0380E00E94371480E00F
:1033C0000E94AF13209A80E49CE990938700809339
:1033D0008600109280008AE18093810084E28093CD
:1033E0006F008EE480937C0080E480937B008FEEFE
:1033F00080937A000E94E71502ED10E0E12CF12C99
:10340000B701E3E0660F771FEA95E1F760648CECA3
:1034100092E00E94BC0768E0C8010E94D21560E8F3
:103420008CEC92E00E94BC072FEFE21AF20A085FD0
:103430001F4F38E0E316F10419F70E94F70965E021
:1034400084E592E00E948F1183EA91E076E0872E76
:10345000880E8B82EBEBF3E001900020E9F73197C7
:10346000EB5BF3401E2F55E2752E6FE7662E81EB66
:1034700091E00E94900B892B09F4BEC081EB91E092
:103480000E946E0B8A3019F08D3009F0A5C011230F
:1034900009F4A0C08091BB038F3209F09BC0ECEB14
:1034A000F3E001900020E9F78F010D5B134047E046
:1034B00050E06EE671E08CEB93E00E947426892B5D
:1034C000F1F41127F801E554FC4F6081862F6C83DD
:1034D0000E942A166C81633411F0663421F48DE168
:1034E00090E00E948B068091C3038A330CF072C077
:1034F00083EC93E00E944D260E94E4066BC047E0F7
:1035000050E066E671E08CEB93E00E947426892B14
:1035100039F487E693E10E94CC180E945C155AC0EA
:1035200047E050E06EE571E08CEB93E00E9474267A
:10353000892B39F48BE193E10E94CC180E947C1511
:1035400049C047E050E066E571E08CEB93E00E94F3
:103550007426892B39F486EC96E00E94CC180E94E0
:103560009D1538C047E050E06EE471E08CEB93E0CD
:103570000E947426892B09F0A8C50A3008F4A5C555
:1035800085EC93E00E9449262091C303243609F07C
:103590008CC523E0022F10E07801EE0CFF1CEE0C2E
:1035A000FF1CF701E852FD4F67AB70AF81AF92AFE0
:1035B000223009F46AC5B801660F771F660F771FBE
:1035C000695F7F4F44E0C701815F9C4F0E946F0697
:1035D0000E949B0590E009C091E0910FE12FF0E07F
:1035E000E554FC4F80839034A8F7E92FF0E0E554D0
:1035F000FC4F1082192F3BCF80919F02882309F442
:1036000043C0D12C13E0B9E0CB2E0AE080914B01EE
:10361000843039F49091570180914901981709F449
:1036200092C680914B018330B1F4109249011092FF
:103630004C019FEF9093570194E090934B01F894C5
:103640008093480183EA94E90E94DE0989ED92E8BB
:103650000E94DE09789409EA12E0CC24CA94780129
:10366000E2E0EE1AF108D8018C918F3F09F022C7F1
:10367000075F1F4FF2E00D3C1F0789F7DD2021F0A7
:1036800062E089E00E949E160E949C102091D9025F
:103690003091DA02621B730B6D34714008F4C8C3B9
:1036A0000E949C106093D9027093DA028093DB022F
:1036B0009093DC028091E002823030F48F5F80933F
:1036C000E0020E947B18B4C31092E002A4E02A2E0C
:1036D000A3E03A2E710111E0D701ED91FC918181B7
:1036E0008D7F8130A9F42081F89454E0259FF0016A
:1036F0001124E058FE4F83859485A585B68578947E
:103700002111FEC6BC01F701808191810E9447030F
:10371000D701CD90DD907D01F60182818F3409F0D3
:1037200066C0838181110AC085899689A789B08D79
:10373000818F928FA38FB48F13831DC0818C928C45
:10374000A38CB48CA5019401658976898789908DB5
:103750000E9499242AE83BE446E05DE30E941C2B8A
:103760009B01AC01C501B4010E949A24F601618F4E
:10377000728F838F948F8091DD028430C1F1D601E6
:1037800055966D917D918D919C9158970E947825C9
:10379000F601858D968D181619065CF48617970725
:1037A00014F413A306C0681779071CF483A18111D0
:1037B000B9C6F601878D90A11816190674F49C01FC
:1037C000215031096217730714F414A306C0681757
:1037D00079071CF084A18111A7C6809123039091E1
:1037E0002403892B81F0F60112A211A20CC0D6018C
:1037F00093961C92939791961C92919794961C92F3
:10380000949792961C92BCE0EB16B3E0FB0609F08D
:1038100063CF8090DD028982282D233008F028C1F3
:103820008090D8028A821092D802A0900C03B090A7
:103830000D03BE82AD82D50112968C911297009134
:10384000DE021091DF028F3409F0B2C080912303B1
:1038500090912403892B09F0ABC055968D909D90D3
:10386000AD90BC905897B801012E000C880B990BB5
:103870000E94BD2AA50194010E9499246B017C013C
:1038800020911303309114034091150350911603B6
:103890000E941C2B2B013C016093E8027093E9020B
:1038A0008093EA029093EB0220E030E0A901C70187
:1038B000B6010E94B62A87FF03C0BA81B11113C0B6
:1038C00020E030E0A901C701B6010E94AE2518161C
:1038D0008CF5E981E23019F08091F60201C084E6AE
:1038E000FA81F81738F520911703309118034091A9
:1038F000190350911A03C701B6010E941C2B209195
:10390000EC023091ED024091EE025091EF020E94E4
:103910009A246B017C0120E030E0A9010E94B62AC4
:1039200087FF05C61092EC021092ED021092EE0293
:103930001092EF02A5019401AD81BE8159966D915F
:103940007D918D919C915C970E94992420911B03FD
:1039500030911C0340911D0350911E030E941C2BAB
:103960006B017C016093F0027093F1028093F2028C
:103970009093F3022091EC023091ED024091EE021F
:103980005091EF02C301B2010E949A24A70196014F
:103990000E949A240E94782577FD07C0AB01653606
:1039A000710524F044E650E001C040E04093D802A5
:1039B000ED81FE81658976898789908D0E947825C1
:1039C000A801461B570B80912303909124031416E2
:1039D000150654F12091E2023091E302281B390BC5
:1039E0002F31310508F18980811016C020E030E0C8
:1039F00040E05FE36091EC027091ED028091EE0295
:103A00009091EF020E941C2B6093EC027093ED02E8
:103A10008093EE029093EF0282E08093DD02109299
:103A200024031092230324C0009711F0019791C53D
:103A300029812230E9F424E6249FC001259F900DBE
:103A40001124B8010E945D2480910E0390E0681754
:103A5000790774F060911F03709120038091210316
:103A6000909122030E9478256A3571050CF468C58F
:103A70001091D802C0901F03D0902003E090210342
:103A8000F0902203612F70E080E090E00E94BB2A5A
:103A9000A70196010E94992421E837EF47E05CE3F3
:103AA0000E941C2B9B01AC01C701B6010E949A2405
:103AB00060931F037093200380932103909322034C
:103AC0008091F802181718F41092FD021AC064E6EB
:103AD000681B9091DD02911103C09091F60202C023
:103AE0009091F502212F30E0281B3109929FA0010F
:103AF000939F500D112470E0CA010E9449246093E5
:103B0000FD028091FD023091F702831718F01092A8
:103B1000E10219C02091E1024AE0849FC001112412
:103B2000632F70E00E944924822F90E08617970748
:103B300018F43093FD0202C01092FD022F5F209313
:103B4000E1022A3020F78091FC0280FF07C08091BB
:103B5000F5029091FD02891B8093FD028091FD0288
:103B6000811103C01092FF0225C02091FF029091A5
:103B7000FC0294FF0AC057E8859FC001112464E647
:103B800070E00E944924625A08C0AFEF8A9FC001CA
:103B9000112464E670E00E9449246093FF02211121
:103BA00009C06FEF70E083E00E943D1080E88093D1
:103BB000FE0202C00E947B188091D8026091FB0235
:103BC000861748F4B4E68B9FC001112470E00E9470
:103BD0004924962F01C094E68091FC0281FF03C026
:103BE00084E6891B982F4091FA022091F90230E077
:103BF000241B3109929FB001939F700D1124CB01BA
:103C000064E670E00E944924640FE4E16E9FB00115
:103C10001124809103038F3F19F08F5F809303037A
:103C2000809100039091010386179707A9F08C59A2
:103C30009F4F861B970B893C910520F480910303CD
:103C40008B3050F0F894109202037093010360934C
:103C500000037894109203030E9409088091610187
:103C60008F5F809361018F7129F480919F02811190
:103C70000E941F1886E791E00E9489058091DD026D
:103C8000843009F06BC485E50E9484050E94980584
:103C900004E013E0D801ED91FD918D0182818F3414
:103CA00009F067C4658976898789908D41E00E9413
:103CB00018170E949805B3E00C301B0759F7809144
:103CC000D8020E9411170E94980560911F037091FD
:103CD000200380912103909122030E947825CB013B
:103CE0000E94F1170E9498056091230370912403AC
:103CF00080E090E04AE00E94CE160E9498058091F4
:103D0000FD020E9411170E946005EE24E394F12C3D
:103D10008101D101ED91FC9161A18FEF8E0D6623A0
:103D200021F080934A01FF24F3948E2D0E949E1669
:103D3000B2E02B0E311CD801ED91FC9162A16623FB
:103D400021F0E0924A01FF24F39481E08E0D0E945D
:103D50009E16E394E394E9E0EE12DACF6F2D8EE045
:103D60000E949E16FF2009F408C40E942C1566E0EC
:103D700084E592E00E948F1180915801811104C462
:103D8000809161018370813091F482E891E00E941A
:103D9000890503EA11E00E949805D8018D918D01F3
:103DA0000E9411178B808012F6CF0E94600560E0A0
:103DB00080E00E949E1661E080912303909124038D
:103DC000892B09F460E08AE00E949E1661E08091F0
:103DD000D802811101C060E08BE00E949E1661E074
:103DE0008091D802843608F460E08DE00E949E162F
:103DF00061E08091DD02823009F060E08CE00E9499
:103E00009E1661E08091DD02811160E08FE00E94EA
:103E10009E1661E08091DD02813009F060E080E172
:103E20000E949E169091D80280919F028111DBC35F
:103E30000E949C106B017C01809166029091670248
:103E4000A0916802B0916902A7019601281B390B65
:103E50004A0B5B0B2A3F31054105510508F4C3C0ED
:103E6000E0915A02F0915B020995482F811128C018
:103E7000E0915802F0915902309769F13396E4913C
:103E80002E2F30E0A8EEB3E00E94352C61157105AD
:103E90008105910501F10091620210916302209168
:103EA00064023091650246015701801A910AA20A04
:103EB000B30A681579058A059B0508F4BDC30BC0D4
:103EC000C0926602D0926702E0926802F0926902A4
:103ED000803209F4B1C380915E02481324C08091FE
:103EE00061028F3F19F08F5F8093610280915F02C2
:103EF000909160020097A9F1019761F480916102AD
:103F0000843040F0406182E090E0909360028093C2
:103F10005F022AC0C0926202D0926302E092640201
:103F2000F092650260C010926102411109C02091B7
:103F30005F02309160022130310569F4482F0BC0D7
:103F4000E0915802F0915902309729F03496E491AB
:103F5000E42309F06CC340935E0210926002109259
:103F60005F02442309F43FC0E0915802F0915902E6
:103F7000309739F4209156023091570280915C02BB
:103F800012C03196259134912115310599F3842F72
:103F90004C83F90109954C81813099F4EBCF981746
:103FA00039F02D5F3F4FF90194919111F8CF09C07D
:103FB000F9013196E491E423E413F3CFF901329649
:103FC0008491682F84E592E04C830E948F11E091E8
:103FD0005802F09159024C81309729F03496E491BF
:103FE0004E2309F02BC3009160010F3F09F448C034
:103FF0000E949C1010E0F801E957FE4FE4912091D7
:104000005C0130915D01621B730B2AE0E29FF001BD
:104010001124E617F707A0F50E949C1060935C013D
:1040200070935D0180935E0190935F01C8010196DA
:1040300066E070E00E9449248093600180FD1BC00F
:10404000FC01E957FE4F14910E9440113AE0139F82
:10405000C0011124992753E0880F991F5A95E1F761
:1040600090935A018093590180916F0082608093F0
:104070006F0080E803C080915B0180680E94DF02CE
:104080000E9453160E94300CE5C920E030E0A901DF
:104090000E94B62A81118FCA1092EC021092ED0292
:1040A0001092EE021092EF0286CA25362CF42236C8
:1040B00009F08ECA20E06ECA293611F422E06ACADD
:1040C000203709F085CA21E065CA46E050E067E480
:1040D00071E08CEB93E00E947426892BA1F40930E7
:1040E00090F06091C2036053643050F4679D602D7E
:1040F0001124605C70E04DE084EC93E00E946F0658
:104100000E94500767CA46E050E060E471E08CEB23
:1041100093E00E947426892B09F06AC0093008F4E4
:1041200067C08091C20340ED442E480E43E0441521
:1041300008F450CA479C802D112415E5512E580EC5
:10414000312C04EC13E0E42CF12CC701880F991FEB
:104150009C012C5F3C4F7901D8018C91882309F494
:1041600043C033E0331568F18C3231F433940F5F80
:104170001F4F44E0540EF0CFD7018D909C90B4E0D7
:104180003B9E600111245601E5E0AE0EB11CA80C67
:10419000B91CC8010E944926F401EC0DFD1D658380
:1041A000768387839087652D70E044E0C5010E9487
:1041B0006F06F8018F018191882371F28C32D1F75B
:1041C000CBCFC8010E944D26682F87FD4BC2042D1E
:1041D00010E0F801EE0FFF1FEC5FFC4F0190F08143
:1041E000E02DF180F61231C2842D0E94B405F2C98F
:1041F00047E050E068E371E08CEB93E00E947426A6
:10420000892B39F48EE192E10E94CC180E942C1582
:10421000E1C947E050E060E371E08CEB93E00E947D
:104220007426892B39F484EC92E10E94CC180E9408
:10423000FA14D0C947E050E068E271E08CEB93E0FB
:104240000E947426892BA1F5A3ECB3E080E09D9138
:104250009923B1F08132A0F49C3239F0E82FF0E0DC
:10426000EC5AFD4F968B8F5FF2CF803180F7E82FAD
:10427000F0E0EC5AFD4F70E2872E868A8F5FF5CF13
:10428000813248F4E82FF0E0EC5AFD4F60E2962EC0
:10429000968A8F5FF5CF80915C02873131F067E1BC
:1042A00084E592E00E948F1195C90E94F11192C994
:1042B00047E050E060E271E08CEB93E00E947426EE
:1042C000892B29F489E192E10E94CC1883C946E048
:1042D00050E069E171E08CEB93E00E947426892B39
:1042E000F9F40E9494150E949B050E94FA140E9402
:1042F000500780E00E94B40581E00E94B40582E08E
:104300000E94B40583E00E94B4050E949D150E949E
:104310007C150E945C150E942C150E944C065AC9FF
:1043200045E050E062E171E08CEB93E00E9474267E
:10433000892B09F04FC9F89488E18093600089E0E7
:1043400080936000FFCF10934B010E949C106093FC
:10435000A0027093A1028093A2029093A302909175
:104360004C018091A602911127C08F3F19F08F5FF9
:104370008093A60280914D018F7024E0829FC0013E
:10438000112490914E019295969596959370892B54
:10439000E9EAF2E0DF0190E02C912817A9F09F5F95
:1043A00019969430C9F790E020812F3F81F09F5FEC
:1043B00039969430C9F705C0882319F0815080934D
:1043C000A602DD24D39422C932E0D32E02C023E01A
:1043D000D22EE92EF12CCE9CF001CF9CF00D1124B1
:1043E000E156FD4F9285981719F082871186108645
:1043F0000E949C10CE9CF001CF9CF00D1124E15640
:10440000FD4F638774878587968720914E0125FF2E
:1044100002C032E001C030E08091500187FD316080
:104420008F778F3709F03460CE9CF001CF9CF00D70
:104430001124CF0189559D4FE156FD4F37873091AB
:1044400048013695308BDC0117963C9132FF1FC036
:1044500030914F013A3A09F4B4CF2F70A32FB0E056
:1044600054E0B595A7955A95E1F70A9FB0010B9FC7
:10447000700D1124B4E62B9F600D711D11243F7047
:10448000630F711D605971407187608709C02F707B
:1044900030E0322F222750914F01252B3187208782
:1044A000E091A402F091A502309709F48ACF6D2D16
:1044B000099587CF0E949C10F80181809280A3808B
:1044C000B480DC01CB0188199909AA09BB098132A2
:1044D0009F4BA240B10508F4CBC8E091A402F09133
:1044E000A502309719F064E0C7010995D8018C91B5
:1044F0008F3F09F4BDC8CC92F70111821082B8C871
:10450000BC01CD01E4E0660F771F881F991FEA9573
:10451000D1F72091800130E040E050E00E9471240A
:10452000B901F1C811A345C9F60112A356C9C09239
:10453000EC02D092ED02E092EE02F092EF02FAC9A4
:1045400081E08093DD021092D8028091E202909186
:10455000E30290932403809323038ACA833011F4E7
:104560008DE292CB8091DE029091DF020E94F117E2
:104570008DCB85E50E9484059CCB80915C028630C2
:1045800009F0FACB62E0F4CBE0900C03F0900D035D
:10459000F70182818F3409F0F3CB8CE791E00E9420
:1045A000890504EE12E0D8016D917D918D919D9168
:1045B0008D0142E00E9418170E949805B2E0043F66
:1045C0001B0789F7F701218D328D438D548D658945
:1045D00076898789908D0E94992442E00E9418175D
:1045E0000E946005CDCB8091CB028F5F853018F49F
:1045F0008093CB021DCC1092CB0284E080935701B4
:104600008FE980934D0180EC80934E0190934F0190
:104610008FE780935001F89410924C0185E08093CD
:104620004B0189E392E80E94DE09789401CC409323
:104630005E0281E090E004C040E296CC82E090E02F
:104640009093600280935F02CECC842D0E949B06E3
:10465000B2E0FB12C9CDF801EC5BFE4F60826FE760
:10466000C8011AC010E8160FC42CD12CF601EE0FA9
:10467000FF1FEC5FFC4F0190F081E02D8181F6017E
:10468000EC5BFE4F7F01823079F4808181130CC096
:10469000D7011C93612FC60149960E948B060E9488
:1046A0004C060E94F709A0CD62E0842D0E949B0673
:1046B000EFCFFF920F931F93CF93DF93E1EBF1E0E6
:1046C0001382128288EE93E0A0E0B0E084839583A9
:1046D000A683B78384E191E09183808385EC90E0A9
:1046E0009587848784EC90E09787868780EC90E0BC
:1046F000918B808B81EC90E0938B828B82EC90E0AD
:10470000958B848B86EC90E0978B868B118E128E26
:10471000138E148EEEE4F2E01382128284E291E0B2
:1047200091838083E4E5F2E082E394E091838083E7
:1047300089EC93E0938382838BE39CE09783868369
:10474000E4E9F3E085E0808385E58283EFE6F3E04A
:1047500094E0F92EF0828283EAE4F3E093E0908320
:104760008283E5E2F3E002E000838283E8EDF2E099
:1047700010E8108786E4848FCCECD2E01B821A828A
:104780008CE291E09983888361E08BE00E940110C4
:1047900061E08DE00E94011061E08AE00E9401105A
:1047A00061E08AE00E94AD0F81E58CBDEEEAF4E0A5
:1047B000E491E987EAE9F4E0E491F0E0EE0FFF1F0D
:1047C000E457FB4F859194919B878A8761E084E051
:1047D0000E94011060E0CE010E94670788E0888790
:1047E0008D838BEF9FEFFC013197F1F7FC0131973F
:1047F000F1F70197F1F760E3CE010E9491078BE496
:1048000096E40197F1F760E3CE010E94910783E5FA
:1048100092E00197F1F760E3CE010E94910760E218
:10482000CE010E9491076D816062CE010E94BC079B
:10483000FE826CE0CE010E94BC07CE010E94E70719
:104840000F8366E0CE010E94BC07EFE9F2E08BE542
:1048500092E19683858317838FEF8287838B848F82
:1048600085A38DED9FE090939E0280939D02DF9142
:10487000CF911F910F91FF900895991B79E004C08B
:10488000991F961708F0961B881F7A95C9F780958F
:104890000895AA1BBB1B51E107C0AA1FBB1FA61787
:1048A000B70710F0A61BB70B881F991F5A95A9F7D9
:1048B00080959095BC01CD01089597FB072E16F4C5
:1048C000009407D077FD09D00E94492407FC05D049
:1048D0003EF4909581959F4F0895709561957F4F17
:1048E0000895A1E21A2EAA1BBB1BFD010DC0AA1F31
:1048F000BB1FEE1FFF1FA217B307E407F50720F049
:10490000A21BB30BE40BF50B661F771F881F991FC3
:104910001A9469F760957095809590959B01AC010C
:10492000BD01CF010895EE0FFF1F0590F491E02D1A
:1049300009945058BB27AA270E94B1240C94A32B9A
:104940000E94952B38F00E949C2B20F039F49F3F59
:1049500019F426F40C94922B0EF4E095E7FB0C94DA
:104960008C2BE92F0E94B42B58F3BA1762077307F8
:104970008407950720F079F4A6F50C94D62B0EF455
:10498000E0950B2EBA2FA02D0B01B90190010C015F
:10499000CA01A0011124FF27591B99F0593F50F477
:1049A000503E68F11A16F040A22F232F342F4427CF
:1049B000585FF3CF469537952795A795F0405395C7
:1049C000C9F77EF41F16BA0B620B730B840BBAF097
:1049D0009150A1F0FF0FBB1F661F771F881FC2F702
:1049E0000EC0BA0F621F731F841F48F48795779516
:1049F0006795B795F7959E3F08F0B0CF9395880FD0
:104A000008F09927EE0F9795879508950E941A252B
:104A10000C94A32B0E949C2B58F00E94952B40F0E5
:104A200029F45F3F29F00C948C2B51110C94D72B57
:104A30000C94922B0E94B42B68F39923B1F3552365
:104A400091F3951B550BBB27AA27621773078407A1
:104A500038F09F5F5F4F220F331F441FAA1FA9F337
:104A600035D00E2E3AF0E0E832D091505040E69525
:104A7000001CCAF72BD0FE2F29D0660F771F881F86
:104A8000BB1F261737074807AB07B0E809F0BB0B79
:104A9000802DBF01FF2793585F4F3AF09E3F51058D
:104AA00078F00C948C2B0C94D72B5F3FE4F3983E5A
:104AB000D4F3869577956795B795F7959F5FC9F776
:104AC000880F911D9695879597F90895E1E0660FF7
:104AD000771F881FBB1F621773078407BA0720F070
:104AE000621B730B840BBA0BEE1F88F7E0950895D9
:104AF0000E947F256894B1110C94D72B08950E94D1
:104B0000BC2B88F09F5798F0B92F9927B751B0F078
:104B1000E1F0660F771F881F991F1AF0BA95C9F741
:104B200014C0B13091F00E94D62BB1E008950C94DE
:104B3000D62B672F782F8827B85F39F0B93FCCF391
:104B4000869577956795B395D9F73EF490958095BE
:104B5000709561957F4F8F4F9F4F08950E94F82A5F
:104B600008F48FEF089516F00C9408260C94922BFD
:104B700068940C948C2B0E94BC2BA8F39923C1F34E
:104B8000AEF3DF93CF931F930F93FF92C92FDD27CF
:104B900088232AF02197660F771F881FDAF720E015
:104BA00030E040E85FEB9FE3883920F0803E38F04A
:104BB00021968F770E949A24E8E7F0E004C00E94D3
:104BC0009A24E5EAF0E00E9416268B01BE01EC0172
:104BD000FB2E6F5771097595771F880B990B0E94F3
:104BE000BD2A28E132E741E35FE30E942F2BAF2D7E
:104BF0009801AE01FF900F911F91CF91DF910E941C
:104C0000B1240C94A32B0E94F82A880B990B0895C9
:104C10009F3F31F0915020F4879577956795B79530
:104C2000880F911D9695879597F90895DF93CF93F7
:104C30001F930F93FF92EF92DF927B018C01689498
:104C400006C0DA2EEF010E942F2BFE01E894A591F9
:104C50002591359145915591A6F3EF010E94B1241C
:104C6000FE019701A801DA9469F7DF90EF90FF90B9
:104C70000F911F91CF91DF91089581E090E0F8941A
:104C80000C94442CDC0101C06D9341505040E0F77E
:104C90000895662777270C948C28FC01882799278C
:104CA000E89421912032E9F3293010F02E30C8F336
:104CB0002B3241F02D3239F4689404C00E948226D0
:104CC000820F911D219120532A30C0F31EF490953C
:104CD00081959F4F0895FB01DC0102C005900D9264
:104CE00041505040D8F70895FB01DC01415050403D
:104CF00030F08D910590801919F40020B9F7881BC8
:104D0000990B08957AE0979F902D879F802D910DA4
:104D100011240895AEE0B0E0E0E9F6E20C940C2C2A
:104D20000D891E898F89988D2EE02C831A83098323
:104D300097FF02C080E090E801979E838D83AE01CB
:104D4000455E5F4F698D7A8DCE0101960E94BA262D
:104D50004D815E8157FD0AC02F8138854217530768
:104D60000CF49A01F801E20FF31F10822E96E4E092
:104D70000C94282CACE0B0E0E0ECF6E20C94FE2BB6
:104D80007C016B018A01FC0117821682838181FFFD
:104D9000BDC1CE0101964C01F7019381F60193FD4F
:104DA000859193FF81916F01882309F4ABC185320E
:104DB00039F493FD859193FF81916F01853229F438
:104DC000B70190E00E94202AE7CF512C312C20E03F
:104DD0002032A0F48B3269F030F4803259F0833203
:104DE00069F420612CC08D3239F0803339F42160B0
:104DF00026C02260246023C0286021C027FD27C070
:104E000030ED380F3A3078F426FF06C0FAE05F9EA6
:104E1000300D1124532E13C08AE0389E300D11241A
:104E2000332E20620CC08E3221F426FD6BC120642B
:104E300006C08C3611F4206802C0883641F4F601B1
:104E400093FD859193FF81916F018111C1CF982FBF
:104E50009F7D9554933028F40C5F1F4FFFE3F98337
:104E60000DC0833631F0833771F0833509F05BC0B4
:104E700022C0F801808189830E5F1F4F4424439430
:104E8000512C540115C03801F2E06F0E711CF8016D
:104E9000A080B18026FF03C0652D70E002C06FEFD7
:104EA0007FEFC5012C870E94152A2C0183012C85D8
:104EB0002F77222E17C03801F2E06F0E711CF80117
:104EC000A080B18026FF03C0652D70E002C06FEFA7
:104ED0007FEFC5012C870E940A2A2C012C852068AF
:104EE000222E830123FC1BC0832D90E04816590617
:104EF000B0F4B70180E290E00E94202A3A94F4CF07
:104F0000F50127FC859127FE81915F01B70190E0B3
:104F10000E94202A31103A94F1E04F1A51084114AE
:104F2000510471F7E5C0843611F0893639F5F8017E
:104F300027FF07C060817181828193810C5F1F4FC1
:104F400008C060817181072E000C880B990B0E5FE1
:104F50001F4F2F76722E97FF09C090958095709500
:104F600061957F4F8F4F9F4F2068722E2AE030E06F
:104F7000A4010E94582AA82EA81844C0853729F4F5
:104F80002F7EB22E2AE030E025C0F22FF97FBF2E0F
:104F90008F36C1F018F4883579F0B4C0803719F035
:104FA000883721F0AFC02F2F2061B22EB4FE0DC084
:104FB0008B2D8460B82E09C024FF0AC09F2F9660F5
:104FC000B92E06C028E030E005C020E130E002C084
:104FD00020E132E0F801B7FE07C060817181828173
:104FE00093810C5F1F4F06C06081718180E090E06B
:104FF0000E5F1F4FA4010E94582AA82EA818FB2D4F
:10500000FF777F2E76FE0BC0372D3E7FA51450F420
:1050100074FE0AC072FC08C0372D3E7E05C0BA2C53
:10502000372D03C0BA2C01C0B52C34FF0DC0FE01D2
:10503000EA0DF11D8081803311F4397E09C032FF01
:1050400006C0B394B39404C0832F867809F0B39458
:1050500033FD13C030FF06C05A2CB31418F4530CA0
:105060005B18B32CB31468F4B70180E290E03C877E
:105070000E94202AB3943C85F5CFB31410F43B185A
:1050800001C0312C34FF12C0B70180E390E03C87AF
:105090000E94202A3C8532FF17C031FD03C088E7FB
:1050A00090E002C088E590E0B7010CC0832F8678BD
:1050B00059F031FF02C08BE201C080E237FD8DE282
:1050C000B70190E00E94202AA51438F4B70180E3CC
:1050D00090E00E94202A5A94F7CFAA94F401EA0D96
:1050E000F11D8081B70190E00E94202AA110F5CF28
:1050F000332009F451CEB70180E290E00E94202ACB
:105100003A94F6CFF7018681978102C08FEF9FEF27
:105110002C96E2E10C941A2CA0E0B0E0E2E9F8E26F
:105120000C94022CEC017B016115710519F0DB0177
:105130008D939C938E010F5F1F4F7880872D90E099
:105140000E94E929892B11F0E801F4CFBDE27B121E
:1051500005C00F5F1F4F7980C1E008C0EBE27E12EF
:1051600004C08E010E5F1F4F7980C0E06801F1E03E
:10517000CF1AD10843E050E06EEC74E0C6010E9403
:10518000F229892BF1F4680122E0C20ED11C45E01E
:1051900050E069EC74E0C6010E94F229892B21F4E9
:1051A000680187E0C80ED11CE114F10419F0D701A1
:1051B000CD92DC92C111FFC060E070E080E89FE713
:1051C00003C143E050E066EC74E0C6010E94F2299E
:1051D000892B51F4E114F10409F4F2C00E5F1F4F62
:1051E000F70111830083ECC0680160E070E0CB013F
:1051F00000E010E0F601D0EDD70DDA3058F52C2F95
:105200002260622E2C2F2870C2FF05C0211128C0F9
:105210000F5F1F4F25C0222311F001501109A5E097
:10522000B0E09B01AC010E94F32B4B015C01880CA8
:10523000991CAA1CBB1CC501B4016D0F711D811DF9
:10524000911D6839A9E97A078A07A9E19A0740F010
:10525000C66005C0DE3F51F4C3FD44C0C8606C2E7B
:10526000BFEFCB1ADB0A7080C62DC4CF2D2F2F7D48
:105270002531C1F540814D3211F4C06106C04B3279
:1052800021F0319621E030E006C03296D601119629
:105290004C9122E030E0A0EDA40FAA3018F0E21B00
:1052A000F30B20C040E050E04038BCE05B075CF40A
:1052B0009A01220F331F220F331F420F531F440F37
:1052C000551F4A0F511D3196DF0111972C91A0ED0A
:1052D000A20FAA3048F3C4FF03C05195419551096C
:1052E000040F151FC1FF07C0E114F10421F031972D
:1052F000D701ED93FC930E94BB2AC370C33019F011
:105300006B017C0106C06B017C01F7FAF094F7F8A1
:10531000F09420E030E0A901C701B6010E94B62A4E
:10532000882309F445C017FF06C01195019511099E
:10533000C5EED4E002C0CDEFD4E05E01B8E1AB1A17
:10534000B1084601BE2DAF2D90E2E92EF12C0E15CD
:105350001F0584F0FE012591359145915491B401CA
:105360008B2F9A2F0E941C2B4B01B82FA92F0E199F
:105370001F09EDCF2497F594E794CA15DB0539F79B
:105380006401EB2EFA2E8E2D880F8F2D881F8F3FF4
:1053900049F020E030E0A901C701B6010E94B62A19
:1053A000811106C082E290E09093FC038093FB039E
:1053B000C701B60109C060E070E080E89FEF04C05B
:1053C00060E070E080EC9FE7CDB7DEB7EEE00C94D4
:1053D0001E2C91110C94892B803219F08950855024
:1053E000C8F70895FB01DC014150504088F08D91D1
:1053F00081341CF08B350CF4805E659161341CF0B7
:105400006B350CF4605E861B611171F3990B089586
:10541000881BFCCFFC010590615070400110D8F74B
:10542000809590958E0F9F1F0895FC0161507040EC
:1054300001900110D8F7809590958E0F9F1F0895C9
:105440000F931F93CF93DF93FB01238121FD03C0B3
:105450008FEF9FEF28C022FF16C04681578124811D
:1054600035814217530744F4A081B1819D012F5F1C
:105470003F4F318320838C93268137812F5F3F4FAD
:105480003783268310C0EB01092F182F0084F18584
:10549000E02D0995892BE1F68E819F8101969F83EE
:1054A0008E83812F902FDF91CF911F910F910895BF
:1054B000FA01AA27283051F1203181F1E8946F9345
:1054C0006E7F6E5F7F4F8F4F9F4FAF4FB1E03ED0EB
:1054D000B4E03CD0670F781F891F9A1FA11D680F89
:1054E000791F8A1F911DA11D6A0F711D811D911DBC
:1054F000A11D20D009F468943F912AE0269F112431
:105500003019305D3193DEF6CF010895462F477094
:10551000405D4193B3E00FD0C9F7F6CF462F4F70EF
:10552000405D4A3318F0495D31FD4052419302D04D
:10553000A9F7EACFB4E0A6959795879577956795F3
:10554000BA95C9F700976105710508959B01AC01F3
:105550000A2E06945795479537952795BA95C9F71A
:10556000620F731F841F951FA01D08950E94F82AC3
:1055700008F481E00895E89409C097FB3EF4909503
:105580008095709561957F4F8F4F9F4F9923A9F01C
:10559000F92F96E9BB279395F695879577956795AB
:1055A000B795F111F8CFFAF4BB0F11F460FF1BC0EF
:1055B0006F5F7F4F8F4F9F4F16C0882311F096E982
:1055C00011C0772321F09EE8872F762F05C0662330
:1055D00071F096E8862F70E060E02AF09A95660FE9
:1055E000771F881FDAF7880F9695879597F90895A2
:1055F000990F0008550FAA0BE0E8FEEF16161706E4
:10560000E807F907C0F012161306E407F50798F04B
:10561000621B730B840B950B39F40A2661F0232B64
:10562000242B252B21F408950A2609F4A140A695E0
:105630008FEF811D811D08950E942F2B0C94A32BA9
:105640000E94952B38F00E949C2B20F0952311F09E
:105650000C948C2B0C94922B11240C94D72B0E941D
:10566000B42B70F3959FC1F3950F50E0551F629FC7
:10567000F001729FBB27F00DB11D639FAA27F00DAB
:10568000B11DAA1F649F6627B00DA11D661F829FD2
:105690002227B00DA11D621F739FB00DA11D621FB7
:1056A000839FA00D611D221F749F3327A00D611DD4
:1056B000231F849F600D211D822F762F6A2F1124B6
:1056C0009F5750409AF0F1F088234AF0EE0FFF1FE9
:1056D000BB1F661F771F881F91505040A9F79E3F40
:1056E000510580F00C948C2B0C94D72B5F3FE4F386
:1056F000983ED4F3869577956795B795F795E79596
:105700009F5FC1F7FE2B880F911D9695879597F99E
:10571000089599278827089597F99F6780E870E092
:1057200060E008959FEF80EC089500240A94161617
:10573000170618060906089500240A94121613067F
:10574000140605060895092E0394000C11F488230D
:1057500052F0BB0F40F4BF2B11F460FF04C06F5F29
:105760007F4F8F4F9F4F089557FD9058440F551FFF
:1057700059F05F3F71F04795880F97FB991F61F0D3
:105780009F3F79F087950895121613061406551F4A
:10579000F2CF4695F1DF08C0161617061806991FB6
:1057A000F1CF86957105610508940895E894BB27AB
:1057B00066277727CB0197F90895F999FECF92BD17
:1057C00081BDF89A992780B50895262FF999FECFC3
:1057D0001FBA92BD81BD20BD0FB6F894FA9AF99A0E
:1057E0000FBE019608950E94352CA59F900DB49F81
:1057F000900DA49F800D911D112408952F923F922A
:105800004F925F926F927F928F929F92AF92BF92D0
:10581000CF92DF92EF92FF920F931F93CF93DF937C
:10582000CDB7DEB7CA1BDB0B0FB6F894DEBF0FBED9
:10583000CDBF09942A88398848885F846E847D8426
:105840008C849B84AA84B984C884DF80EE80FD8028
:105850000C811B81AA81B981CE0FD11D0FB6F8949E
:10586000DEBF0FBECDBFED010895A29FB001B39F73
:10587000C001A39F700D811D1124911DB29F700D59
:0C588000811D1124911D0895F894FFCFA4
:10588C003A0C3A0C00000002020201050404040662
:10589C0000000000C70B5018900B6E0B820B0E0C07
:1058AC0000000000BD02501800000000B2025018A9
:1058BC00990791077D076E616E00696E66006F76C1
:0458CC0066002E0044
:00000001FF
