:100000000C948D020C94B1210C94DE210C94BB0253
:100010000C94BB020C94BB020C94BB020C945928A8
:100020000C94BB020C94BB020C94BB020C94BB025C
:100030000C94BB020C94BB020C94BB020C94BB024C
:100040000C940B220C94BB020C9467240C949B24FC
:100050000C94BB020C94BB020C94BB020C94BB022C
:100060000C94BB020C94BB0208000000BE92244911
:10007000123EABAAAA2ABECDCCCC4C3E00000080DA
:10008000BEABAAAAAA3E00000000BF000000803F4D
:100090000000000000084178D3BB4387D1133D190D
:1000A0000E3CC3BD4282AD2B3E68EC8276BED98F3A
:1000B000E1A93E4C80EFFFBE01C4FF7F3F0000007E
:1000C00000007265626F6F7400636F6E666967002F
:1000D0007365743F74743D007365743F666E3D00D4
:1000E0007365743F616C3D007365743F70630073AA
:1000F00065743F706E007365743F7069640073656A
:10010000743F706F3D007365743F6C643D007365B0
:10011000743F6C623D007365743F73703D00484DE1
:100120004C442C00484D504F00484D504400484D21
:10013000504E00484D524D00484D50432C00484D04
:10014000414C00484D464E2C00554349442C4865CF
:10015000617465724D657465722C323031323131A3
:10016000313300484D53552C000A050A050A320761
:100170000F1F1F1F1F1F1F1F1F1F00000000001C3D
:100180001E1F1F1F1F1F1F1F1F1F1F1F1F0F0700C7
:10019000000000001F1F1F1F1F1F1F1F1F1E1C1FEF
:1001A0001F1F0000001F1F1F000000001F1F1F480F
:1001B0004D4C472C000EF0E10006F000000080409E
:1001C000000040400AD7A33B0000A04000327F7FE0
:1001D0007F7F460A6400FF50726F62652020000036
:1001E000000000000100D8FF38FF00002CE1713949
:1001F000117A7839B6AE073400401C46484D4C425F
:100200002C002D204E6F205069742050726F626553
:10021000202D00252D313273253364DF00506974A1
:100220003A253364DF25632025632533752525258D
:1002300063005069743A253364DF2563204C696498
:10024000253375002A2A20414C41524D2048494708
:1002500048202A2A002A2A20414C41524D204C4F46
:100260005720202A2A000001020304050102202051
:100270000520060602030707060602070705030412
:1002800002202005FF0606070705000606030705EE
:1002900001010220002000060203070500060220DB
:1002A000200502921A0503921A0504921A05059276
:1002B0001A0106821A0008511A0A12201A0A160197
:1002C000190A1701190A1801190A1901190A0CEC5F
:1002D000190A0DEC190A0EEC190A0FEC190A10C4D0
:1002E000190A119A190A1379190A154B190A1416C1
:1002F000190A1BBF180A1F4D180A2B981714000063
:100300000000022803020208020404032804030276
:100310000803040204280204020804040305280256
:100320000502080504040821020802121221021223
:10033000021414210214021515210215020C0C21BD
:10034000020C020D0D21020D020E0E21020E020FF3
:100350000F21020F021010210210021111210211AF
:1003600002131321021302080000004C6F77204192
:100370006C726D20253564DF25630048696768204D
:10038000416C726D20253464DF2563004C6F77204B
:10039000616C61726D3F20004869676820616C6123
:1003A000726D3F20004E6F20005965730025336445
:1003B0002525004C4344206272696768746E65733A
:1003C00073007370656564202533642525004D61D5
:1003D00078696D756D206175746F2066616E00526D
:1003E0006573657420636F6E6669673F00253364CB
:1003F000207365636F6E6473004C6964206F706571
:100400006E2074696D657200253364252520626550
:100410006C6F7720736574004C6964206F70656E33
:10042000206F6666736574004F6666736574202579
:100430003464DF256300762070726F626520636F1D
:100440006E6669672076004D616E75616C2066612D
:100450006E206D6F646500253364DF25630053658E
:10046000742074656D70657261747572653A0048C8
:100470004D52462C3235352C302C00000000002423
:100480000027002A0000000000250028002B0000A3
:1004900000000023002600290004040404040404CE
:1004A0000402020202020203030303030301020423
:1004B00008102040800102040810200102040810E6
:1004C00020000000070002010000030406000000F5
:1004D000000000000002494E46494E4954594E4121
:1004E0004ECDCCCC3D0AD7233C17B7D13877CC2B97
:1004F000329595E6241FB14F0A000020410000C844
:100500004200401C4620BCBE4CCA1B0E5AAEC59DC4
:1005100074000F0D151B2D1E012611241FBECFEFD9
:10052000D8E0DEBFCDBF14BEE0E6F0E088E1808316
:10053000108211E0A0E0B1E0EAE7FCE502C005901E
:100540000D92AA33B107D9F713E0AAE3B1E001C0D5
:100550001D92AB3AB107E1F715E0CAE1D5E004C05E
:100560002297FE010E94F52DC231D107C9F70E94E2
:10057000980C0C943B2E0C940000662777270C9463
:100580007405FC0188279927E89421912032E9F32A
:10059000293010F02E30C8F32B3241F02D3239F4CF
:1005A000689404C00E945E03820F911D2191205324
:1005B0002A30C0F31EF4909581959F4F0895FB015A
:1005C000DC0102C005900D9241505040D8F70895CB
:1005D000FB01DC014150504030F08D9105908019B5
:1005E00019F40020B9F7881B990B0895FB01DC0171
:1005F00002C001900D9241505040D8F70895DC019F
:1006000001C06D9341505040E0F70895FC01819185
:10061000861721F08823D9F7992708953197CF01BC
:100620000895A0E0B0E0E7E1F3E00C940E2E7C0129
:10063000EB018A01690109C0CE012196F6010995F5
:10064000F70181937F010150104001151105A1F7B9
:10065000CDB7DEB7E8E00C942A2EA0E0B0E0E3E3EB
:10066000F3E00C940E2EEC017B018A01690109C0B4
:10067000CE012196F70161917F01F60109950150A4
:10068000104001151105A1F7CDB7DEB7E8E00C94D5
:100690002A2EDF92EF92FF920F931F93D72E7A01AB
:1006A0008C01FA010995C80101966D2DF701099594
:1006B0001F910F91FF90EF90DF9008957AE0979F40
:1006C000902D879F802D910D11240895AEE0B0E00C
:1006D000ECE6F3E00C94122E0D891E898F89988D1B
:1006E00097FF02C080E090E801979E838D831A8374
:1006F00009838EE08C839E01255E3F4FCE010196DB
:10070000698D7A8DA9010E9497034D815E8157FD05
:100710000AC02F813885421753070CF49A01020F43
:10072000131FF80110822E96E4E00C942E2EABE0FD
:10073000B0E0EDE9F3E00C94042E3C012B015A01EA
:10074000FC0117821682838181FD03C06FEF7FEF6A
:10075000C6C19AE0892E1E010894211C311CF301A8
:100760002381F20123FD859123FF81912F018823AD
:1007700009F4B2C1853239F423FD859123FF8191BB
:100780002F01853229F490E0B3010E940207E7CFE0
:10079000982FFF24EE249924FFE1FF15D0F09B321F
:1007A00069F09C3228F4903259F0933291F40EC0E3
:1007B0009D3249F0903369F441E024C052E0F52ABB
:1007C00084E0F82A28C098E0F92A25C0E0E1FE2A52
:1007D00022C0F7FC29C0892F80538A3070F4F6FEBE
:1007E00005C0989C902C1124980E15C0E89CE02C14
:1007F0001124E80EF0E2FF2A0EC09E3229F4F6FC26
:100800006BC140E4F42A07C09C3619F450E8F52A7D
:1008100002C0983649F4F20123FD959123FF91918E
:100820002F01992309F0B8CF892F8554833018F010
:100830008052833038F444E050E0A40EB51E5FE3EC
:1008400059830FC0933631F0933779F0933509F01F
:1008500056C020C0F5018081898342E050E0A40E9B
:10086000B51E610101E010E012C0F501C080D18029
:10087000F6FC03C06FEF7FEF02C0692D70E042E02D
:1008800050E0A40EB51EC6010E94F7068C015FE77A
:10089000F52214C0F501C080D180F6FC03C06FEFD3
:1008A0007FEF02C0692D70E042E050E0A40EB51E5B
:1008B000C6010E94EC068C0150E8F52AF3FE07C041
:1008C0001AC080E290E0B3010E940207EA948E2DE4
:1008D00090E008171907A8F30EC0F601F7FC859100
:1008E000F7FE81916F0190E0B3010E940207E110D1
:1008F000EA94015010400115110579F7EAC09436C9
:1009000011F0993669F5F7FE08C0F50120813181B3
:100910004281538184E090E00AC0F5018081918199
:100920009C01442737FD4095542F82E090E0A80EAB
:10093000B91E9FE6F92257FF09C0509540953095A2
:1009400021953F4F4F4F5F4FE0E8FE2ACA01B901A2
:10095000A1012AE030E00E942E07D82ED21840C014
:10096000953729F41F2D1F7E2AE030E01DC01F2D72
:10097000197F9F3661F0903720F4983509F0ACC0AC
:100980000FC0903739F0983709F0A6C004C028E0AE
:1009900030E00AC0106114FD146020E130E004C0B2
:1009A00014FD166020E132E017FF08C0F5016081F8
:1009B00071818281938144E050E008C0F50180811B
:1009C0009181BC0180E090E042E050E0A40EB51EB1
:1009D000A1010E942E07D82ED2188FE7F82EF122FF
:1009E000F6FE0BC05EEFF522D91438F4F4FE07C012
:1009F000F2FC05C08FEEF82202C01D2D01C0192D9A
:100A0000F4FE0DC0FE01ED0DF11D8081803319F45F
:100A100099EEF92208C01F5FF2FE05C003C08F2DBA
:100A2000867809F01F5F0F2DF3FC14C0F0FE0FC095
:100A30001E1510F09D2C0BC09D2C9E0C911A1E2D86
:100A400006C080E290E0B3010E9402071F5F1E15FE
:100A5000C0F304C01E1510F4E11A01C0EE2404FF17
:100A60000FC080E390E0B3010E94020702FF1DC0A7
:100A700001FD03C088E790E00EC088E590E00BC060
:100A8000802F867891F001FF02C08BE201C080E2E6
:100A9000F7FC8DE290E0B3010E94020706C080E3FC
:100AA00090E0B3010E9402079A94D914C0F3DA943B
:100AB000F101ED0DF11D808190E0B3010E9402076C
:100AC000DD20A9F706C080E290E0B3010E94020792
:100AD000EA94EE20C1F743CEF30166817781CB0122
:100AE0002B96E2E10C94202EA0E0B0E0EAE7F5E0DE
:100AF0000C940A2EEC015B016115710519F0FB01E4
:100B000091838083F9908F2D90E00E94F92D892B9D
:100B1000C9F7FDE2FF1621F4F990EE24E39405C035
:100B20002BE2F21609F4F990EE248E0101501040E8
:100B3000C80166ED74E043E050E00E94D406892BC2
:100B400001F58E010E5F1F4FC80169ED74E045E0AD
:100B500050E00E94D406892B19F48E01095F1F4FC3
:100B6000A114B10419F0F50111830083E0FC04C065
:100B700070E090E080E814C070E090E080E86FEFF3
:100B800008C1C8016EED74E043E050E00E94D40655
:100B9000892B69F4A114B10429F470E090E080EC91
:100BA0006FE7F7C02296F501D183C083F6CF882482
:100BB000992440E050E060E070E0EF2DE053EA302F
:100BC000A0F5F2E0EF2A8E2D90E09C0128703070A5
:100BD000E2FE06C0232B79F50894811C911C2BC0E2
:100BE000232B19F0089481089108DB01CA0112E057
:100BF000880F991FAA1FBB1F1A95D1F7480F591FBD
:100C00006A1F7B1F440F551F661F771F4E0F511D14
:100C1000611D711D483929E9520729E9620729E157
:100C2000720748F084E0E82A06C0EE3F31F4E3FCA6
:100C300039C098E0E92AF990C0CFE53311F0E531E9
:100C400089F529912D3219F4E0E1EE2A05C02B3205
:100C500019F081E090E003C0299182E090E0E22F5A
:100C6000E053EA3018F0C81BD90B1CC020E030E07C
:100C7000FCE020383F075CF4C901880F991F880FFA
:100C8000991F280F391F220F331F2E0F311DE99195
:100C9000E053EA3068F3E4FE03C0309521953F4FFE
:100CA000820E931ECE2CDD24E1FE07C0A114B104F8
:100CB00021F02197F501D183C083CB01BA010E94B5
:100CC000CD2B7B018C01F3E0CF22DD2423E0C21683
:100CD000D10421F417FB109517F9109557016801FD
:100CE000C801B70120E030E040E050E00E94302B26
:100CF000882309F44AC097FE0DC025EFE22E24E0B8
:100D0000F22E9094819491089394C0E2D0E000E098
:100D100010E012C09DE0E92E95E0F92EF6CFF70124
:100D20002591359145915491C601B5010E94C82C79
:100D30005B016C018C1A9D0A8C169D0684F7D59573
:100D4000C7950F5F1F4F0630110529F08CEF9FEFFD
:100D5000E80EF91EF1CFC501D6017C018D018C2D65
:100D6000880F8D2D881F8F3F51F0C601B50120E0FF
:100D700030E040E050E00E94302B882331F482E2E2
:100D800090E09093AA038093A9037E2D9F2D802F3E
:100D9000612F272F392F482F562FB901CA01CDB700
:100DA000DEB7ECE00C94262EFB01DC0141505040F4
:100DB00088F08D9181341CF08B350CF4805E659148
:100DC00061341CF06B350CF4605E861B611171F3AD
:100DD000990B0895881BFCCFFC0105906150704071
:100DE0000110D8F7809590958E0F9F1F0895FC01F4
:100DF0006150704001900110D8F7809590958E0F4A
:100E00009F1F08950F931F93CF93DF938C01EB01E6
:100E10008B8181FF1BC082FF0DC02E813F818C81A1
:100E20009D812817390764F4E881F9810193F983DA
:100E3000E88306C0E885F985802F0995892B31F470
:100E40008E819F8101969F838E8302C00FEF1FEFDB
:100E5000C801DF91CF911F910F910895FA01AA2740
:100E6000283051F1203181F1E8946F936E7F6E5FED
:100E70007F4F8F4F9F4FAF4FB1E03ED0B4E03CD09B
:100E8000670F781F891F9A1FA11D680F791F8A1F7E
:100E9000911DA11D6A0F711D811D911DA11D20D0E5
:100EA00009F468943F912AE0269F11243019305D9F
:100EB0003193DEF6CF010895462F4770405D419390
:100EC000B3E00FD0C9F7F6CF462F4F70405D4A33DD
:100ED00018F0495D31FD4052419302D0A9F7EACFA5
:100EE000B4E0A6959795879577956795BA95C9F7D4
:100EF00000976105710508959B01AC010A2E0694C7
:100F00005795479537952795BA95C9F7620F731F7F
:100F1000841F951FA01D0895A62FB0E0FC01EA0FC5
:100F2000FB1F14824115510571F4FD01EE0FFF1FE7
:100F3000E80FF91F0190F081E02DF7FD0AC044276A
:100F400055274E1B5F0BAA0FBB1FA80FB91F4D9350
:100F50005C930895FC01608380E090E0A0ECBFE723
:100F6000868B978BA08FB18F828F938FA48FB58F35
:100F70000895FC01648313821282118280E090E064
:100F8000A0ECBFE7868B978BA08FB18F828F938F5A
:100F9000A48FB58F0895FC016115710519F41382B2
:100FA00012820EC08181882319F47383628308C082
:100FB00082819381009721F0860F971F938382830C
:100FC00081818F5F81830895EF92FF920F931F932A
:100FD000CF93DF93EC017A018B01CB01BA0120E0C2
:100FE00030E040EA51EC0E94302B181654F4C8014E
:100FF000B70120E030E04AEF53E40E947F2C18163E
:101000004CF480E090E0A0ECBFE78E8B9F8BA88F24
:10101000B98F1BC080914C01863499F4C801B70187
:1010200026E636E646EE5FE30E94C82C20E030E07C
:1010300040E052E40E94CC2A6E8B7F8B888F998F80
:1010400004C0EE8AFF8A088F198FDF91CF911F911C
:101050000F91FF90EF900895FC01608380E88287F4
:1010600086E4828B80E090E0A0ECBFE787A790AB9E
:10107000A1ABB2AB0895DC0120E05696ED91FC9156
:1010800057978481861709F421E05896ED91FC91D9
:1010900059978481861709F42F5F5A96ED91FC9138
:1010A0005B978481861709F42F5F5C96ED91FC9124
:1010B0005D978481861709F42F5F822F90E0089551
:1010C0001F93CF93DF93EC01E88DF98D2689378943
:1010D000408D518DCA01B9010E942B2D8823C9F082
:1010E000EA8DFB8D26893789408D518DCA01B90162
:1010F0000E942B2D882369F0EC8DFD8D2689378980
:10110000408D518D10E0CA01B9010E942B2D88231A
:1011100009F411E0812FDF91CF911F910895FC0117
:101120008485958594AB83AB16820895FC01708706
:1011300067831682118680E090E0A0E0B0E08687A9
:101140009787A08BB18B14AA13AA0895FC0181E0A4
:10115000818777FF02C011820895653671051CF002
:1011600084E68183089561830895FC01CB016E318B
:10117000710510F48EE190E0958784870895CF93F0
:10118000DF93EC01E62FF0E0EE0FFF1FEE0FFF1FE5
:10119000E80FF91F278F30A341A352A3623041F417
:1011A00080E090E0A0E0B0E08E879F87A88BB98BAD
:1011B000DF91CF910895FC01663421F0623511F082
:1011C000633409F4628B08951F93182F8091CB022A
:1011D000882351F481E08093CB021092CC0285E702
:1011E00093E064E20E94C8258091CC02812780931D
:1011F000CC0285E793E0612F0E94C8251F910895D6
:10120000BF92CF92DF92EF92FF920F931F93CF93F3
:10121000DF936C01FC016781708587EC92E04AE006
:1012200050E00E946D278CE20E94E408E601BB2496
:10123000EE89FF89E688F788008D118DC801B70116
:10124000A80197010E942B2D882349F487EC92E096
:10125000B801A70121E030E00E941E2803C085E507
:101260000E94E4088CE20E94E408B3942296F4E021
:10127000BF16F1F687EC92E0F60161814AE050E09A
:101280000E941B278CE20E94E408F60167A570A962
:1012900081A992A90E949C2B9B01AC0187EC92E052
:1012A000B9014AE050E00E946D278CE20E94E408F8
:1012B000F60163A974A987EC92E04AE050E00E942D
:1012C0000A27DF91CF911F910F91FF90EF90DF9050
:1012D000CF90BF900895AF92BF92CF92DF92EF92DE
:1012E000FF920F931F93CF93DF93EC0169816623E5
:1012F00009F469C08A819B8170E00E948F2D198258
:101300006115710509F457C080E090E00E94CD2B73
:101310009B01AC0160E078EF8FEF95E40E94342BE5
:1013200020E030E040E85FE30E94CB2A9B01AC0163
:101330006A897B898C899D890E94342B7B018C0171
:10134000F801D0904C0182E5D81609F0A4C0809134
:10135000500190915101C817D90709F49CC0C701E9
:10136000D8018E8B9F8BA88FB98FCEC0C801B701D3
:1013700020E030E04AEF53E40E947F2C1816DCF0A6
:1013800086E4D81699F4C801B70126E636E646EE9B
:101390005FE30E94C82C20E030E040E052E40E946D
:1013A000CC2A6E8B7F8B888F998F0DC0EE8AFF8A37
:1013B000088F198F08C080E090E0A0ECBFE78E8B0B
:1013C0009F8BA88FB98FEE88FF88088D198DC80173
:1013D000B701A80197010E942B2D882309F058C05E
:1013E0006D81772767FD7095872F972F0E94CF2BF0
:1013F0009B01AC01C801B7010E94CC2A7B018C0182
:101400006E8B7F8B888F998FAA8CBB8CCC8CDD8C5C
:10141000C601B501A60195010E942B2D882329F054
:10142000EA8EFB8E0C8F1D8F16C0C801B701A60176
:1014300095010E94CB2A2DEC3CEC4CE45DE30E942C
:10144000C82C9B01AC01C601B5010E94CC2A6A8F51
:101450007B8F8C8F9D8F6E897F89888D998D0E945F
:101460009C2B2E8D3F8D121613062CF42617370752
:1014700014F081E08AA328A139A1121613060CF0FA
:1014800043C0621773070CF43FC081E08BA33CC0DC
:101490001AA21BA239C0CF010E94882C7B018C01AB
:1014A0002E853F85488959890E94C82CA80197013B
:1014B0000E94C82C2A853B854C855D850E94CC2ADC
:1014C000A80197010E94C82C2E813F81488559852B
:1014D0000E94CC2A9B01AC0160E070E080E89FE3B1
:1014E0000E94342B23E333E948E853E40E94CB2ADB
:1014F0007B018C0120E030E040EA51EC0E94302B6F
:1015000018160CF058CF32CFDF91CF911F910F9169
:10151000FF90EF90DF90CF90BF90AF900895FF9233
:101520000F931F93CF93DF93EC0100E010E0F0E402
:10153000FF2E88810E94FF229C0101978E5F9340BD
:1015400068F4020F131FFA94A1F79801E3E03695AF
:101550002795EA95E1F72115310519F41B821A82C6
:101560000BC08981882331F08A819B81009721F00B
:10157000280F391F3B832A8389818F5F8983DF91FD
:10158000CF911F910F91FF9008959F92AF92BF92BC
:10159000CF92DF92EF92FF920F931F93CF93DF933F
:1015A000EC010E9453229B01AC018A819B81B9010D
:1015B000681B790B6D37710508F46CC12A833B8376
:1015C0004C835D836E018E01FF24D8015696ED9108
:1015D000FC9157978481813019F4CF010E948F0AC2
:1015E000F3940E5F1F4FB4E0FB1679F78A858F5F87
:1015F0008A87883008F44EC110E0F6018689978901
:101600000E946B091F5F42E050E0C40ED51E1430EB
:10161000A1F78985882309F0DEC099801982EE89B7
:10162000FF89A688B788C08CD18CC601B501A601F8
:1016300095010E942B2D882309F07AC08BA99CA9C3
:10164000892B09F075C06F817885882777FD809593
:10165000982F0E94CF2BA60195010E94CB2A7B01D7
:101660008C0120E030E040E050E00E947F2C181612
:101670001CF48B89981660F0C801B70120E030E0B7
:1016800040E050E00E94302B8823B4F49920A1F070
:10169000C801B7012FA138A549A55AA50E94C82C99
:1016A0009B01AC016E857F85888999890E94CC2A2F
:1016B0006E877F87888B998BC801B7012BA13CA1CE
:1016C0004DA15EA10E94C82C2F8D38A149A15AA11D
:1016D0000E94CC2A2E853F85488959890E94CC2AB0
:1016E0007B018C01EE89FF89628D738D848D958DD0
:1016F000A60195010E94CB2A2BA53CA54DA55EA570
:101700000E94C82C9B01AC01C801B7010E94CC2AE1
:101710000E949C2B9B01AC01EB898E2F90E06817F7
:10172000790714F0E98304C0121613060CF46983D8
:10173000EE89FF8966897789808D918D0E949C2B27
:10174000AB016F81788546175707C4F08C859D855E
:101750002BA93CA9821B930B4F9780F08E81882385
:1017600051F481E08E8380E090E0A0E0B0E08E87CD
:101770009F87A88BB98B1CAA1BAA2DC08BA99CA9DB
:10178000009721F001979CAB8BAB25C08E818823FD
:1017900011F19B01241B350B84E690E0DC012A9FAC
:1017A000C0012B9F900D3A9F900D11240E94A32DF4
:1017B0008E8D90E06817790774F06FA578A989A9D4
:1017C0009AA90E949C2B6A3571052CF48C859D8505
:1017D0009CAB8BAB1E82698170E080E090E00E9440
:1017E000CD2B5B016C01EFA4F8A809A91AA9C801C7
:1017F000B701A80197010E942B2D882329F0AFA6DD
:10180000B8AAC9AADAAA16C0C601B501A8019701EB
:101810000E94CB2A29E838E848E05CE30E94C82C03
:101820009B01AC01C801B7010E94CC2A6FA778AB1D
:1018300089AB9AAB99812C89921710F01B8616C040
:101840003B858AE0989FC0011124622F70E00E94BE
:101850008F2D832F90E08617970708F020E0832FC5
:101860008F5F8B878A3008F01B86922F8D898823A3
:1018700019F084E6891B982F8FEF989FC0011124DF
:1018800064E670E00E948F2D88810E9421231A86D1
:1018900081E001C080E0DF91CF911F910F91FF9017
:1018A000EF90DF90CF90BF90AF909F900895CF932F
:1018B000DF93FC01DB011D968C911D9784831E969E
:1018C0008C911E9785839F012A5F3F4FAB014B5E32
:1018D0005F4F80E1EA010990AE01E90109929E01A2
:1018E0008150C1F71F968D919C91509712A200973D
:1018F00041F4268D378D37FD06C088279927821B36
:10190000930B978F868F51966D917C91529713A26E
:101910006115710541F480A191A197FD06C066276C
:101920007727681B790B71A360A3DF91CF9108958E
:101930000E94C4220E942E140E94BC16FDCF9C015E
:10194000F999FECF32BD21BDF89A80B508959C016A
:10195000F999FECF1FBA32BD21BD60BD0FB6F89414
:10196000FA9AF99A0FBE0895982F8430D8F4E82F88
:10197000F0E0EE0FFF1FE05BFE4F0190F081E02DE5
:101980006583F999FECF1FBA85E2989FC0011124A3
:10199000825B90E092BD81BD60BD0FB6F894FA9A6B
:1019A000F99A0FBE089577FF03C060E070E005C0AC
:1019B0006536710514F064E670E0813071F08130B5
:1019C00018F0823059F51AC0262F60934E01F9990C
:1019D000FECF1FBA8EE190E008C0262F60934D0124
:1019E000F999FECF1FBA8FE190E092BD81BD20BD75
:1019F0000FB6F894FA9AF99A0FBE0895262F6093BD
:101A00004F01F999FECF1FBA80E290E092BD81BDEF
:101A100020BD0FB6F894FA9AF99A0FBE08958CE794
:101A200091E065E00E94AA0780EA91E064E00E94EC
:101A3000AA0784EC91E063E00E94AA0788EE91E097
:101A400062E00E94AA078AE391E063E00E942C080A
:101A50008FE691E064E042E00E94851F81E49DE012
:101A6000909312028093110280E880931302E6E1C2
:101A7000F2E08FEF8083399692E0EA33F907D1F7ED
:101A800008958F929F92AF92BF92CF92DF92EF9282
:101A9000FF920F931F93CF93DF937C016B0100E5BF
:101AA00011E038E3A32E32E0B32E26E0822E912CF3
:101AB00086229722F801C081D1818C81823031F554
:101AC000F50190819F3721F0F70182819817F1F499
:101AD00081149104D9F0F70120813181878182FF3F
:101AE0002BC02115310541F1B901882777FD80957B
:101AF000982F0E94CF2B20E030E040E251E40E947A
:101B0000342BAB01BC01CE010E94E4070E5F1F4FD6
:101B10000894A11CB11CF1E008351F0759F6F70124
:101B200011821082F3E0CF22DD24CD2861F08CE019
:101B300092E00E94B71C07C0220F331FCE01B901EB
:101B40000E94CB07E3CFDF91CF911F910F91FF90C0
:101B5000EF90DF90CF90BF90AF909F908F900895BF
:101B6000EF92FF921F93CF93DF93EC017B0110E084
:101B700013C08C3219F41F5F21960EC0CE010E9453
:101B8000C102BC01812FF701099501C0219688810E
:101B9000882311F08C32D1F78881882351F7DF91A7
:101BA000CF911F91FF90EF900895CF93DF93EC01B9
:101BB000FE0121968491882319F00E94E408F8CF51
:101BC000DF91CF91089585E793E06AE20E94C825EE
:101BD0006091CC0262956F706A3010F4605D01C054
:101BE000695C85E793E00E94C8256091CC026F7024
:101BF0006A3010F4605D01C0695C85E793E00E9483
:101C0000C82585E793E06AE00E94C8251092CB02C0
:101C100008950F931F938EE191E00E94D50D07EC7C
:101C200012E0C801609158014AE050E00E941B2771
:101C30008CE20E94E4086091460170914701C8015E
:101C40004AE050E00E940A270E94E30D1F910F9185
:101C500008950F931F93CF93DF9383E391E00E9446
:101C6000D50DC0E5D1E008E312E08CE20E94E40863
:101C7000E881F9818481823041F487EC92E0F801B7
:101C800060814AE050E00E941B2722960F5F1F4FA1
:101C9000F1E0C835DF0749F70E94E30DDF91CF91EE
:101CA0001F910F9108950F931F9383E491E00E9479
:101CB000D50D07EC12E0C80160914E014AE050E0FA
:101CC0000E941B278CE20E94E408C80160914D012C
:101CD0004AE050E00E941B278CE20E94E408C80101
:101CE00060914F014AE050E00E941B270E94E30DE3
:101CF0001F910F910895282F80934D01F999FECFE0
:101D00001FBA8FE190E092BD81BD20BD0FB6F8945F
:101D1000FA9AF99A0FBE0E94530E08950F931F93DB
:101D20008CEF91E00E94D50D07EC12E0C8016091A4
:101D30007B014AE050E00E941B278CE20E94E408ED
:101D4000C801609183024AE050E00E941B270E9474
:101D5000E30D1F910F910895CF93DF9384E291E0FB
:101D60000E94D50DC0E5D1E08CE20E94E408E99123
:101D7000F9916581772767FD709587EC92E04AE0DD
:101D800050E00E946D2781E0C835D80769F70E94AE
:101D9000E30DDF91CF910895982F8430D8F4E82F88
:101DA000F0E0EE0FFF1FE05BFE4F0190F081E02DB1
:101DB0006583F999FECF1FBA85E2989FC00111246F
:101DC000825B90E092BD81BD60BD0FB6F894FA9A37
:101DD000F99A0FBE0E94AC0E08950F931F93CF93F4
:101DE000DF938EE391E00E94D50D00E511E0F8014C
:101DF000C081D1818CE20E94E4086E8D7F8D87ECDA
:101E000092E04AE050E00E946D278AA1882319F0F1
:101E10008CE40E94E4088CE20E94E40868A179A1A5
:101E200087EC92E04AE050E00E946D278BA1882366
:101E300019F088E40E94E4080E5F1F4FF1E00835B6
:101E40001F07A9F60E94E30DDF91CF911F910F911B
:101E50000895982F843060F485E2989FC001112482
:101E6000805C90E04DE050E027EA3CE00E942D03CA
:101E70000895CF93DF9389E291E00E94D50DC9E5E3
:101E8000D1E08CE20E94E4084991599169917991DD
:101E900087EC92E028E030E00E941E2881E0C936FD
:101EA000D80779F70E94E30DDF91CF9108959F92B3
:101EB000AF92BF92CF92DF92EF92FF920F931F9358
:101EC000CF93DF93182F88E391E00E94D50D87EC24
:101ED00092E0612F4AE050E00E941B278CE20E94B2
:101EE000E408E12FF0E0EE0FFF1FE05BFE4FA08063
:101EF000B180E501CC24EE80FF8008851985992406
:101F0000C801B70120E030E040E050E00E94302BF3
:101F1000882334F49924939417FB109517F910959E
:101F2000DD240BC0DA94C801B70120E030E040E2C4
:101F300051E40E94C82C7B018C01C801B70120E04C
:101F400030E040E85FE30E94302B87FDEBCF0BC011
:101F5000D394C801B70120E030E040E251E40E9490
:101F6000342B7B018C01C801B70120E030E040E256
:101F700051E40E947F2C87FFEBCF992021F017FBC3
:101F8000109517F9109587EC92E0B801A70127E0AA
:101F900030E00E941E2885E60E94E4086D2D772718
:101FA00067FD709587EC92E04AE050E00E946D2753
:101FB0008CE20E94E408C394249684E0C81609F0D9
:101FC0009ACF87EC92E0F50164814AE050E00E94EC
:101FD0001B270E94E30DDF91CF911F910F91FF907E
:101FE000EF90DF90CF90BF90AF909F9008958AE3DD
:101FF00091E062E00E943B08892B29F08CE092E09E
:1020000063E00E94241D0895E82FF0E0E85CFD4F96
:102010006083F999FECF1FBA90E0499692BD81BDC9
:1020200060BD0FB6F894FA9AF99A0FBE0E94290E75
:102030000E94F70F089589E491E00E94D50D87EC86
:1020400092E062E40E947B260E94E30D0895EF92E5
:10205000FF920F931F93DF93CF9300D0CDB7DEB7DE
:10206000AB01F82EF694EF2DF0E0EE0FFF1FE05BD2
:10207000FE4F00811181EE24E394E822C8014E96C0
:102080006E2D0E948C0783E08F1500F18E2D90E05D
:102090009C01215F3F4F220F331F020F131FF801D6
:1020A000208131813A832983880F991F25E2F29E8E
:1020B00090011124820F815B90E0BE016F5F7F4F22
:1020C00042E050E027EA3CE00E942D030F900F9081
:1020D000CF91DF911F910F91FF90EF900895809124
:1020E0007D0260E070E00E9427100E94ED0E0895CE
:1020F00083E691E00E94D50D8AE391E00E940009F9
:102100000E94E30D089589E061E00E94812389E047
:1021100061E00E94C02364E670E080E090E00E94ED
:10212000612289E060E00E94C02362E370E080E009
:1021300090E00E9461220895843070F465E2869FE9
:10214000B0011124605C86E892E070E04DE050E060
:102150002FE93CE00E94110308951F938EE291E065
:102160000E94D50D10E0812F0E949C108CE20E94ED
:10217000E40887EC92E066E872E00E9480271F5F27
:10218000143089F70E94E30D1F910895CF93DF93D8
:10219000EC011816190674F482E090E0BE0147EADB
:1021A0005CE00E9449038AE391E0BE010E94960828
:1021B00020E009C066277727681B790B8AE391E046
:1021C0000E94A60821E0F999FECF1FBA87E190E0AE
:1021D00092BD81BD20BD0FB6F894FA9AF99A0FBE50
:1021E000DF91CF9108958F929F92AF92BF92CF923D
:1021F000DF92EF92FF920F931F93CF93DF93EC0147
:10220000FC0101900020E9F731971E2F181B66E1B1
:1022100071E047E050E00E94E802892B11F5CE0101
:1022200007960E94C1020E94C610C10FD11D2197BE
:1022300008818AE391E0602F0E94DB08033419F0E3
:10224000063409F09CC1F999FECF1FBA8DE190E0E8
:1022500092BD81BD00BD0FB6F894FA9AF99A0FBEEF
:102260008EC1CE016EE071E047E050E00E94E802CE
:10227000892B49F4CE0107966FE777E10E94B00DF4
:102280000E948E0E7CC1CE0166E071E047E050E016
:102290000E94E802892B49F4CE0107966CEE72E1A8
:1022A0000E94B00D0E94090E6AC1CE016EEF70E06F
:1022B00047E050E00E94E802892B49F4CE010796DE
:1022C00064EB7CE00E94B00D0E94AC0E58C1CE01C0
:1022D00066EF70E047E050E00E94E802892B09F0C9
:1022E0005CC11A3008F459C1CE0109960E94BD02A2
:1022F0009B01AC016F81643679F065361CF462365F
:1023000009F506C0693631F06037E1F401E005C037
:1023100000E003C002E001C003E08AE391E0602F27
:102320000E94BF08602F70E0660F771F660F771F4F
:10233000CB010796675A7E4F44E050E027EA3CE025
:102340000E942D030E94390F1AC1193008F42FC1C1
:102350008E8128968053BE010E94290F0E94AD10E5
:102360000EC1193008F42DC1AE8080EDA80E93E0A7
:102370009A1508F404C1289685E2A89EB02C112471
:1023800045E5842E8B0C9924CA2CDD24CC0CDD1C55
:10239000E0E5F1E0CE0EDF1E31C0F3E0F91590F17B
:1023A0008C3229F49394219684E0880E27C0F6019C
:1023B000E080F180092D10E0CE010E94BD02000FE7
:1023C000111F000F111FF701E00FF11F66837783C4
:1023D000808791870A5F1F4FE00EF11E882D90E0E5
:1023E000B70144E050E027EA3CE00E942D0301C021
:1023F00021968881882311F08C32D1F78881882337
:1024000061F654C0CE010E94C102082FAA2DB0E08F
:1024100087FD22C0AA0FBB1FA05BBE4FED91FC91B0
:102420001481101709F442C0CF01602F0E94B90730
:10243000F999FECF1FBAFDE4BF0E8B2D90E092BD3F
:1024400081BD00BD0FB6F894FA9AF99A0FBE12300A
:1024500069F58A2D6FE728C0182F1058FD01EE0F7F
:10246000FF1FE05BFE4F0190F081E02D8481823000
:1024700029F4A85CBD4F8C918117A1F0CF0162E0D7
:102480000E94B907F999FECF1FBA8DE4B80E8B2DC3
:1024900090E092BD81BD82E080BD0FB6F894FA9ABB
:1024A000F99A0FBE8A2D612F0E9404108A2D0E9476
:1024B000570F65C0CE01079667E270E10E94B00D2C
:1024C0000E94ED0E5CC0CE0168ED70E047E050E088
:1024D0000E94E802892B49F4CE01079663ED7CE067
:1024E0000E94B00D0E94530E4AC0CE0160ED70E014
:1024F00047E050E00E94E802892B39F4279687E9EB
:1025000092E0BE010E94421B3AC0CE0169EC70E02D
:1025100046E050E00E94E802892BD1F40E941B1093
:102520000E94390F0E94530E0E94AD1000E0802FD0
:102530000E94570F0F5F0430D1F70E94AC0E0E942B
:10254000090E0E948E0E0E94ED0E0E94290E17C0E9
:10255000CE0162EC70E045E050E00E94E802892B79
:1025600011F080E00DC087E060E00E94C023F89485
:1025700088E18093600089E080936000FFCF81E074
:10258000DF91CF911F910F91FF90EF90DF90CF904F
:10259000BF90AF909F908F900895CE016FEE70E046
:1025A00046E050E00E94E802892B09F4CECECE012D
:1025B00068EE70E046E050E00E94E802892B09F4E2
:1025C000D0CECE0160EE70E047E050E00E94E8021D
:1025D000892B09F078CF6ECFCF93DF93482FEB0193
:1025E00077FF02C0C0E0D0E04130B1F0413018F0D8
:1025F000423051F51EC02C2FC0935801F999FECFDF
:102600001FBA84E090E092BD81BD20BD0FB6F89462
:10261000FA9AF99A0FBE18C08AE391E0BE010E94AF
:10262000B50885E090E0BE0147EA5CE00E944903FE
:102630000BC0CD2B29F08AE391E00E948F0804C0E3
:1026400010926E0110926D01DF91CF910895CF939A
:10265000DF93EC01662321F08FE691E00E94251FB5
:10266000FE0121966491662329F08FE691E00E9495
:10267000B31EF6CFDF91CF910895982F87FD02C04A
:1026800080937B019F778FEF989FC001112464E6B0
:1026900070E00E948F2D85E00E9421230895AF9263
:1026A000BF92CF92DF92EF92FF920F931F93DF932F
:1026B000CF93CDB7DEB7C954D0400FB6F894DEBF84
:1026C0000FBECDBFC82ECE01039660E070E042E29F
:1026D00050E02FE93CE00E941103CC2029F48B81CB
:1026E0009C818E50904F99F08E010D5F1F4FC80155
:1026F00065EB71E042E250E00E94DF0280E090E092
:10270000B80142E250E027EA3CE00E942D036D81CF
:102710007E818AE391E00E9496088F818093580120
:10272000688579858AE391E00E94B508A9E5B1E062
:10273000FE013A9680E101900D928150E1F78A8D79
:10274000882331F08AE391E060E070E00E94A608FF
:102750008B8D0E943D1388A1833411F066E401C083
:1027600063E48AE391E00E94DB088AA180934D0133
:1027700089A180934E018BA180934F018CA18093FE
:1027800083028C8D9D8DAE8DBF8D8093380290938A
:102790003902A0933A02B0933B02CE0101966EE358
:1027A00070E042E050E02FE93CE00E941103898193
:1027B0009A818E50904F51F08EE390E06EE070EF72
:1027C00047EA5CE00E944903CC24C394E0E5AE2EC6
:1027D000E1E0BE2E00E410E070E3D72E65E2E62EC5
:1027E000F12CEC0EFD1ECC2089F0C70167ED71E0E5
:1027F00045E250E00E94DF02DBA6C801B70145E2D6
:1028000050E027EA3CE00E942D0308C0C701B80150
:1028100045E250E02FE93CE00E941103F50181916F
:1028200091915F01B7010E94570CD394F4E3DF1636
:1028300019F00B5D1F4FD7CFC75BDF4F0FB6F89472
:10284000DEBF0FBECDBFCF91DF911F910F91FF90E3
:10285000EF90DF90CF90BF90AF9008951F93CF93EC
:10286000DF930E94831085E793E040E056E960E043
:1028700070E00E94D62485E793E06AE00E94C825B4
:102880000E941B1087E061E00E94C02387E061E0A6
:102890000E9481238CE791E0909351018093500135
:1028A00080EA91E0909353018093520184EC91E08F
:1028B000909355018093540188EE91E090935701D5
:1028C0008093560180E00E944F13CFE6D1E010E0E4
:1028D0008FE691E0612FAE010E947B1E1F5F28965C
:1028E0001830B1F70E94F70F87E992E065E00E9487
:1028F000B21B0E948310DF91CF911F91089588230E
:1029000081F080917E028F3FB1F410927F0210928D
:102910008002109281021092820285E080937E02F2
:1029200008958FEF80937E0286E00E944228809176
:102930007B010E943D130895CF92DF92EF92FF92A8
:102940000F931F93DF93CF93CDB7DEB761970FB689
:10295000F894DEBF0FBECDBFD0909F028D2D825068
:10296000853008F0B7C18FE691E060E040E00E945A
:10297000A01E86E0D81699F481E00E947F14809111
:102980007D0280FD03C085E592E002C084E492E010
:1029900060E00E942713F0907D02F69433C180E03E
:1029A0000E947F14E0918302EF3F09F495C0F0E0AC
:1029B000EE0FFF1FE05BFE4F0190F081E02DE688F7
:1029C000F788008D118DC801B701A80197010E94F9
:1029D0002B2D882309F080C0C801B70120E030E02A
:1029E00040E251E40E94C82C0E949C2B77FF07C054
:1029F000CC24DD24C61AD70AEE24E39402C06B016E
:102A0000EE2430E1F32EC114D10419F498E09F159F
:102A100084F5C6016AE070E00E948F2D8C01000FE2
:102A2000111F080F191F000F111F0A591D4FADEF7D
:102A3000FA0E8FE691E06F2D40E00E94A01E8FE617
:102A400091E0B80143E00E94541E8FE691E06F2DA3
:102A500041E00E94A01E0D5F1F4F8FE691E0B8017C
:102A600043E00E94541EC6016AE070E00E948F2D70
:102A70006B01FA948FE691E06F2D40E00E94A01E5A
:102A80008FE691E060E20E94B31E8FE691E06F2D29
:102A900041E00E94A01EBCE0FB1631F48FE691E0FD
:102AA0006EE20E94B31EAFCFC114D10461F4E8E01E
:102AB000EF154CF0EE2039F08FE691E061E00E94D6
:102AC000B31EEE2405C08FE691E060E20E94B31EC3
:102AD000FF2009F098CFFEC0E0915001F091510124
:102AE00066897789808D918D0E949C2B8B01409106
:102AF0004301442309F0E5C0672B09F0E2C0CE0191
:102B0000019662E072E041E150E00E94DF0271C094
:102B10008DB79EB70C970FB6F8949EBF0FBE8DBFB2
:102B2000EDB7FEB73196CE010196ADB7BEB712969E
:102B30009C938E93119781E190E09383828382E34B
:102B400092E0958384831783068380914C019927B3
:102B500087FD909591878087338722870E9466033F
:102B6000EDB7FEB73C9640C0442319F42BE53DE594
:102B700002C02EE53EE58DB79EB740970FB6F8949C
:102B80009EBF0FBE8DBFEDB7FEB73196CE01019649
:102B9000ADB7BEB712969C938E93119781E190E0EA
:102BA000938382838DE192E09583848317830683E8
:102BB00080914C01992787FD909591878087822F7E
:102BC000992787FD90959387828780913B01848721
:102BD0001586832F992787FD9095978786870E9472
:102BE0006603EDB7FEB770960FB6F894FEBF0FBE42
:102BF000EDBF8FE691E0BE016F5F7F4F0E9480279F
:102C0000FD2CFA946E010894C11CD11CF3E0FF1551
:102C100008F441C08F2D0E949C108DB79EB70A9773
:102C20000FB6F8949EBF0FBE8DBF0DB71EB70F5FD6
:102C30001F4FADB7BEB71296DC92CE92119781E1CD
:102C400090E0F8019383828383E192E0958384830B
:102C500086E892E097838683EF2DF0E0EE0FFF1F6A
:102C6000E05BFE4F0190F081E02D66897789808DD1
:102C7000918D0E949C2BD80119967C936E93189786
:102C80000E946603EDB7FEB73A960FB6F894FEBF02
:102C90000FBEEDBF08C0C60160E270E041E150E048
:102CA0000E94FF02198A8FE691E060E041E00E94F5
:102CB000A01E8FE691E0BE016F5F7F4F0E948027CC
:102CC00009C020916D0130916E012115310509F483
:102CD0004BCF1ECF61960FB6F894DEBF0FBECDBFAF
:102CE000CF91DF911F910F91FF90EF90DF90CF90E8
:102CF00008950E949C1480917C028F5F80937C02D7
:102D000090E08F719070892B21F48CE092E00E940A
:102D1000B71C0E94781020916D0130916E01A0E5E2
:102D2000B1E090E00EC083A1882301F181E0990F0A
:102D3000980F90937D020E94ED0E87E992E066E085
:102D400012C02115310591F4ED91FC91119782A1EA
:102D5000882349F380E0EBCF80919F02863059F4BD
:102D600087E992E062E00E94B21B08959F5F12968D
:102D7000943039F7F1CF0895DF92EF92FF920F93DD
:102D80001F93ECE3F2E001900020E9F73197EC5358
:102D9000F2401E2F21C085E793E00E948D258A30E6
:102DA00011F08D3059F4112391F080913C028F3253
:102DB00069F48DE392E00E94F31008C0E12FF0E087
:102DC000E45CFD4F80831F5F103408F010E0E12FBA
:102DD000F0E0E45CFD4F108285E793E00E945C2503
:102DE000892BC9F68CE092E00E94971D882359F048
:102DF00089E061E00E94C0236AE070E080E090E03A
:102E00000E94612204C089E060E00E94C02387E93B
:102E100092E00E94F21B8AE391E00E94C50A882397
:102E200011F00E94791680917E028F3F09F44EC006
:102E30000E9453227B018C0180917E02682F70E0FA
:102E4000FB01E759FE4FE49180917F02909180024F
:102E5000A0918102B0918202A8019701281B390B31
:102E60004A0B5B0BFAE0DF2EED9DC0011124A0E0C0
:102E7000B0E082179307A407B50740F5E0927F0200
:102E8000F09280020093810210938202CB0101969E
:102E900066E070E00E948F2D80937E02E82FF0E0C4
:102EA00080FD0FC0E759FE4F24912D9D9001112404
:102EB00040E050E086E060EA7FE00E94B52880E8CC
:102EC00003C080917B0180680E943D131F910F9188
:102ED000FF90EF90DF9008951F93182F0E943D13ED
:102EE000F999FECF1FBA88E190E092BD81BD10BD77
:102EF0000FB6F894FA9AF99A0FBE1F910895882395
:102F000019F08130A1F404C0862F0E946C17089537
:102F100060938302F999FECF1FBA81E290E092BDDF
:102F200081BD60BD0FB6F894FA9AF99A0FBE089564
:102F30008038E1F48FE691E00E941D1F8FE691E05A
:102F400065EA72E040E150E00E9451268FE691E090
:102F500060E041E00E94A01E8FE691E066EB72E027
:102F600040E150E00E94512681E008958091C60220
:102F700008950F931F930E949C100FE611E0C80163
:102F80000E94251FC80166E872E00E9480271F91F9
:102F90000F910895EF92FF920F931F93DF93CF93BA
:102FA000CDB7DEB761970FB6F894DEBF0FBECDBFC9
:102FB0007801843039F48091840290918502860FE3
:102FC000911D08C0883051F480918402909185024F
:102FD000861B9109909385028093840280918402DC
:102FE000909185028417950724F4509385024093AD
:102FF000840280918402909185022817390724F475
:1030000030938502209384028FE691E060E041E0F6
:103010000E94A01E8DB79EB70A970FB6F8949EBF68
:103020000FBE8DBFEDB7FEB731968E010F5F1F4FFC
:10303000ADB7BEB712961C930E93119781E190E045
:1030400093838283F582E482809184029091850249
:103050009783868380914C01992787FD909591876E
:1030600080870E9466038DB79EB70A960FB6F894C4
:103070009EBF0FBE8DBF8FE691E0B8010E948027F2
:1030800061960FB6F894DEBF0FBECDBFCF91DF9132
:103090001F910F91FF90EF900895FF920F931F9350
:1030A000F82E80919F028E3120F0823210F40EE1D2
:1030B00001C006E290E8F916E1F4182F101B812FE9
:1030C0000E94B917E12FF0E0EE0FFF1FE05BFE4F0B
:1030D0000190F081E02D8DE290E0801B9109880F36
:1030E000991FE80FF91F8081918190938502809349
:1030F00084020E3119F00BE613E002C00BE713E077
:103100008F2D65E040E050E028EE33E00E94CA17C2
:1031100081E01F910F91FF900895CF93DF93EB0112
:10312000843011F0883071F420E030E08091840226
:1031300090918502892B11F421E030E030938502D3
:10314000209384028FE691E060E041E00E94A01E9F
:10315000209721F0CE0160E00E9427138091840225
:1031600090918502892B19F485EA93E002C089EADF
:1031700093E060E00E942713DF91CF910895FF92C2
:103180000F931F93F82E80919F028A3120F08E3189
:1031900010F40AE101C002E290E8F91619F5182FBF
:1031A000101B812F0E94B91720E030E0E12FF0E0E2
:1031B000EE0FFF1FE05BFE4F0190F081E02D89E2F2
:1031C00090E0801B9109880F991FE80FF91F8081FB
:1031D00091811816190614F421E030E0309385022D
:1031E000209384020A3119F06CE873E002C068E9A8
:1031F00073E08F2D0E948D1881E01F910F91FF9039
:10320000089590919F02803879F4892F86510E9409
:10321000B9178FE691E060E041E00E94A01E86E3CE
:1032200094E060E00E94271381E008950F931F93BC
:10323000182F803861F483EB93E061E00E9427133C
:1032400080917B01809384021092850211C08034AA
:1032500079F4209184023091850280917B0190E085
:103260002817390729F0822F0E946C170E948E0EB2
:10327000812F6AE040E050E024E630E00DEA13E000
:103280000E94CA178091840280680E943D1381E0E9
:103290001F910F9108950F931F93182F803861F499
:1032A0008EEC93E061E00E94271380914D018093A2
:1032B0008402109285020FC0803469F42091840248
:1032C0003091850280914D0190E02817390719F05F
:1032D000822F0E947B0E812F65E040E050E024E6C3
:1032E00030E002EC13E00E94CA1781E01F910F91B9
:1032F00008951F93182F803851F48FED93E061E00B
:103300000E94271310928502109284020BC0803411
:1033100049F48091840290918502892B19F081E013
:103320000E944F13812F60E070E00E948D1881E0B1
:103330001F9108950F931F93182F803871F489EF10
:1033400093E061E00E94271380914601909147012C
:10335000909385028093840209C0803439F460918F
:1033600084027091850281E00E94EC12812F6AE054
:1033700040E050E028EE33E00DEE13E00E94CA1763
:1033800081E01F910F9108950F931F93182F80389C
:1033900061F488E194E061E00E9427138091580174
:1033A000809384021092850209C0803439F46091C0
:1033B00084027091850280E00E94EC12812F61E00E
:1033C00040E050E024E630E008E014E00E94CA1734
:1033D00081E01F910F9108950F931F93082F109173
:1033E0009F021C508038A9F4812F0E94B917E12F49
:1033F000F0E0EE0FFF1FE05BFE4F0190F081E02D4B
:103400008581992787FD909590938502809384020A
:1034100009C0803439F46091840270918502812F53
:103420000E94CC0E802F61E04CE95FEF24E630E093
:1034300008E214E00E94CA1781E01F910F910895DD
:103440001F93182F803861F487E494E061E00E94B4
:10345000271380914301809384021092850219C042
:103460008034B9F420E08091840290918502892B08
:1034700009F021E080914301281759F0222319F027
:1034800080E090E004C080914101909142010E944F
:10349000C610812F60E070E00E948D1881E01F91BE
:1034A00008950F931F93182F803871F48EE594E0E0
:1034B00061E00E9427138091410190914201909315
:1034C00085028093840210C0803471F420918402BC
:1034D000309185028091410190914201281739076E
:1034E00019F0C9010E94C610812F65E040E050E04C
:1034F00028EE33E007E514E00E94CA1781E01F912F
:103500000F910895803819F40E949C1405C090E032
:103510008F719070892B11F481E008950E946F10D3
:1035200082E00895982F803809F040C080919F0272
:10353000853009F46BC08AE391E00E94600888231B
:1035400009F064C085E00895E0915201F0915301C3
:1035500026893789408D518DCA01B9010E942B2DD2
:10356000882309F45EC083E00895E0915401F0914E
:10357000550126893789408D518DCA01B9010E94B4
:103580002B2D882309F44DC084E00895E091560165
:10359000F091570126893789408D518DCA01B901B3
:1035A0000E942B2D8823E9F182E008958091430148
:1035B0008823D1F0943011F465E007C0983011F4FD
:1035C0006BEF03C0913001F56FEF772767FD7095C2
:1035D00080913B01680F711D8AE391E00E94A6086B
:1035E0000E949C1480E00895913071F460E070E0D6
:1035F00080916D0190916E01892B11F461E070E072
:1036000082E00E94EC120DC081E0089580919F023B
:10361000823009F499CF833009F4A7CF843009F4BC
:10362000B5CF0E949C1481E0089587E992E062EA98
:1036300072E042E053E020E23BE10E94AA1B0895C1
:1036400080E00E94FF229595879595958795982F04
:103650008823B1F08551873210F481E00895892FD5
:103660008D53873210F488E00895892F8D58833167
:1036700010F484E00895915A973210F482E008958E
:1036800080E00895CF92DF92EF92FF920F931F9305
:10369000CF93DF936C018B01CB016CE270E00E9451
:1036A0000603EC01EEE0EE2EF12CEC0CFD1CC70144
:1036B00060E270E041E250E00E94FF02209779F45E
:1036C000D8010D900020E9F71197A01BB10BA13292
:1036D000B10510F0A1E2B0E0C701B80121C09E0120
:1036E000201B310B2131310510F020E130E0C70102
:1036F000B801A9010E94F602DE010D900020E9F751
:10370000AC1BBD0B1297A031B10510F0A0E1B0E0E9
:103710009601215E3F4FAE014F5F5F4FC901BA0175
:10372000AD010E94F602F60180858B3211F087A769
:1037300004C0C60160E00E94B21BC6016BE20E9499
:10374000B21BDF91CF911F910F91FF90EF90DF900F
:10375000CF900895FC017183608353834283378344
:10376000268308951F93CF93DF93EC01162F2BC070
:103770008C819D81009751F0FC0131962591349107
:103780002115310519F080E4F90109951887888120
:1037900099819D838C8306C08885981741F0349663
:1037A000FD83EC83EC81FD8194919923A9F73097F7
:1037B00079F03196259134912115310521F080E879
:1037C000F9010995182F123018F08885181781F61D
:1037D0000E9453226A877B878C879D87DF91CF91D8
:1037E0001F910895DF92EF92FF920F931F93CF9353
:1037F000DF93EC01EE81FF810995D82E0E945322C0
:103800007B018C018A859B85AC85BD85E81AF90A08
:103810000A0B1B0BDD20D9F4EC81FD813097B9F048
:103820003396649170E080E090E028EE33E040E071
:1038300050E00E94642D611571058105910539F0F4
:103840006E157F058007910710F480E2D82E8AEF6D
:10385000E816F1040105110508F439C080E2D81614
:1038600021F0D986DD2009F432C00E9453226A87F4
:103870007B878C879D878C819D81009769F0FC01F7
:103880003196259134912115310531F08D2DF901B5
:103890000995682F8130C1F4EA81FB812D2D30E03C
:1038A0000FC0961761F431968491319790E082238E
:1038B00093238217930719F43296649105C03396C7
:1038C00094916885992369F7CE010E94B21BDF911C
:1038D000CF911F910F91FF90EF90DF900895DF92AD
:1038E000EF92FF920F931F93CF93DF937C01EC0134
:1038F00000E010E0DD24DA948A858F3F51F10E94C8
:1039000053222B853C854D855E85621B730B840B92
:10391000950B61527F4B82409040D8F0D7011596AD
:10392000ED91FC911697309771F0C80123E0880F54
:10393000991F2A95E1F7800F911F08968E0D9F1D04
:1039400062E070E009958A858F3F19F0DA86198662
:1039500018860F5F1F4F29960430110569F6DF9115
:10396000CF911F910F91FF90EF90DF9008950F93EB
:103970001F93CF93DF938C01FC018081882309F48E
:103980005EC0CFE6D4E0FE0121968491882319F031
:103990000E94E408F8CF87EC92E0F80167814AE0E2
:1039A00050E00E941B27E80110E08A858F3FF1F06C
:1039B0008CE20E94E40887EC92E06A854AE050E0DD
:1039C0000E941B278CE20E94E40887EC92E06F853E
:1039D0004AE050E00E941B278CE20E94E40887EC3A
:1039E00092E068894AE050E00E941B271F5F2996F9
:1039F0001430D9F685E793E06AE20E94C825609109
:103A0000CC0262956F706A3010F4605D01C0695C31
:103A100085E793E00E94C8256091CC026F706A3000
:103A200010F4605D01C0695C85E793E00E94C825E1
:103A300085E793E06AE00E94C8251092CB02DF91EF
:103A4000CF911F910F910895CF93DF93EC0188815F
:103A5000882329F481E00E94022181E08883DF919C
:103A6000CF9108950F931F93CF93DF938C01EB01B8
:103A70000E945322F801638374838583968389812E
:103A800085FF02C092E001C090E08B8187FD9160CC
:103A90008F778F3709F09460F80197830E94DA20BE
:103AA000F801808787812A8182FF2FC02A3A11F48A
:103AB00080E038C030E0B9016F70707060597140BB
:103AC000898190E08F70907044E650E0FC01E49FA3
:103AD000C001E59F900DF49F900D1124680F791F90
:103AE000E4E035952795EA95E1F7C90153E0880FA1
:103AF000991F5A95E1F7220F331F820F931F680F0A
:103B0000791FF801718360830CC0898190E08F7008
:103B10009070982F882730E0822B932BF8019183A7
:103B2000808381E0DF91CF911F910F910895EF92F3
:103B3000FF920F931F93CF93DF938C01DC018C9145
:103B4000882311F4FF2481C0FF2477C00E945322F0
:103B5000F80161837283838394838091CD0297817E
:103B6000882309F063C09F3F11F09F5F9783809186
:103B7000CE0290E08F709070880F991F880F991F68
:103B80004091CF024295469546954370482BD80107
:103B9000F80190E08285841729F09F5F3996943070
:103BA000C9F703C09F3F81F446C090E01A968C91FC
:103BB0001A978F3F21F485E0E82EF12C08C09F5F13
:103BC0001996943099F737C0B4E0EB2EF12C292FD9
:103BD00030E0F901A3E0EE0FFF1FAA95E1F7E20F35
:103BE000F31FE00FF11F8285841719F042871186B9
:103BF0001086E901F3E0CC0FDD1FFA95E1F7C20F63
:103C0000D31F2896C00FD11FCE016EEC72E00E9428
:103C1000321D882381F0D8011596ED91FC911697FD
:103C2000309749F0CE01B701099505C0992319F0E5
:103C30009150F8019783FF24F3940E94AF208823CA
:103C400009F084CFC8010E946F1C8F2DDF91CF91A6
:103C50001F910F91FF90EF9008951092CA02109259
:103C6000C90288E091E09093C8028093C70208954A
:103C70001F93CF93DF93EC01162F8C81882341F49F
:103C800081E08C831D8285E793E064E20E94C82571
:103C90008D8181278D8385E793E0612F0E94C82560
:103CA000DF91CF911F910895EF92FF921F93CF93D1
:103CB000DF937C01EB01142F0DC0FE01219644918E
:103CC000F701A081B1812D913C91C701642FF901C9
:103CD00009951150112389F7DF91CF911F91FF9022
:103CE000EF900895DC01ED91FC910480F581E02DC9
:103CF00040E009950895EF92FF920F931F938C0176
:103D00007A016770660F660F660F60640E94721E0C
:103D1000C801B70148E00E94541EC80160E80E9433
:103D2000721E1F910F91FF90EF900895FC01668124
:103D3000862F846086836C60CF010E94721E089576
:103D4000DC0118968C911897841710F4482F415075
:103D5000E42FF0E0E65EFE4F8081680F6068CD01E1
:103D60000E94721E0895DC01ED91FC910480F581A2
:103D7000E02D41E0099581E090E008951F93CF93F5
:103D8000DF93EC011FB7F8946EBD0DB407FEFDCFB5
:103D9000EA85FB8580819985892B808381E090E08D
:103DA0000E94BA22EA85FB859081898580958923C6
:103DB00080831FBFDF91CF911F910895FC01648123
:103DC0000E94BE1E0895EF92FF921F937C01162F52
:103DD0001860612F0E94BE1E177FC701612F0E94CD
:103DE000BE1E1F91FF90EF900895607F0E94E31E1A
:103DF00088E290E00E94BA2208950F931F93CF9318
:103E0000DF93EC01062F411144E01C81142B602F3D
:103E1000607F612BCE010E94E31E0295007F102B74
:103E2000CE01612F0E94E31E88E290E00E94BA2238
:103E3000DF91CF911F910F91089562E00E94721E51
:103E400080ED97E00E94BA22089561E00E94721E00
:103E500080ED97E00E94BA220895CF93DF93EC01A2
:103E6000623018F088E0888701C0188688858D83C5
:103E7000411184608D8380E090E40E94BA2280E04A
:103E800090E40E94BA2280E090E40E94BA22E88185
:103E9000F9810680F781E02DCE0160E3099584E980
:103EA00091E10E94BA22E881F9810680F781E02D34
:103EB000CE0160E3099586E990E00E94BA22E8818C
:103EC000F9810680F781E02DCE0160E30995E88154
:103ED000F9810680F781E02DCE0160E209956D81C0
:103EE0006062CE010E94721E84E08E83CE010E9429
:103EF000961ECE010E94251F82E08F83CE0166E0D0
:103F00000E94721EDF91CF910895EF92FF920F935E
:103F10001F938C01F62EE42EDC0113961C921E9248
:103F2000129780E191E08D939C938BE061E00E9479
:103F300081238DE061E00E9481238AE061E00E949C
:103F400081238AE061E00E94C02381E58CBD8F2D32
:103F500090E0FC01E355FB4FE491D8011996EC93F6
:103F6000199787569B4FFC018491E82FF0E0EE0FE4
:103F7000FF1FEB57FB4F859194911B969C938E935B
:103F80001A978F2D61E00E948123C80160E00E9492
:103F9000BE1EC8016E2D40E00E942D1F1F910F9183
:103FA000FF90EF900895282F8CB581608CBD2A98E2
:103FB0009EBD0DB407FEFDCF8EB52EBD0DB407FE20
:103FC000FDCF4EB5382F20E02A9A8CB58E7F8CBD60
:103FD00050E0422B532BCA0108950F931F9380E0AA
:103FE00090E00E94D31F192F9093DC028091DD0294
:103FF000843009F067C080E090EB0E94D31F082F47
:104000008091DF0263E00E94832D9923A9F4812F20
:1040100090E081709070E091DB02F0E0EE0FFF1F06
:10402000E80FF91FE25EFE4F80818093DB0290E093
:10403000806A94690E94D31F8091DF028823F1F483
:10404000802F90E034E0959587953A95E1F70296B8
:10405000959587958093D8028091D802823020F080
:104060008091D8028B3018F082E08093D802E091E2
:10407000D902F091DA02309709F009958091DF02B8
:10408000E82FF0E0E253FD4F00838F5F8093DF0263
:104090008091CD02802790E021E387FF03C0880F45
:1040A000822701C0880F9F5F9830B9F78093CD02B7
:1040B0009091DF028091D802981709F04DC08DE0F1
:1040C00092E848C08091DD0287FF1EC08091D8022F
:1040D000E091DD02EF5FE093DD02E150E80FF0E0F8
:1040E000E253FD4F80812091CD02282790E031E3FB
:1040F00027FF03C0220F232701C0220F9F5F9830A4
:10410000B9F72093CD0223C08091DD028F5F8093A9
:10411000DD0281508230B1F083301CF4882379F0C5
:1041200015C0853019F0863089F402C08DE20FC0C9
:104130008091D80281958093DD0284ED08C0809142
:10414000CD0205C08DE092E80E94D31F8AEA90E07C
:10415000805098440E94D31F1F910F910895809121
:10416000DD02843009F59091D8028091DF02981722
:10417000D9F483E08093DD0281E008951092DF029C
:104180001092CD028FEF8093D80284E08093DD02FD
:104190009093DB0283EA94E90E94D31F8DED92E8AD
:1041A0000E94D31F80E008959091DD02933031F397
:1041B00080E008958091DB02869508952A9A229ADC
:1041C0008AE061E00E94C0238AE061E00E948123CE
:1041D0008BE061E00E9481238CE060E00E948123FB
:1041E0008DE061E00E94812380E58CBD8DB581600A
:1041F0008DBD82E060E00E94812382E061E00E9448
:10420000C02308951F93162F8093DE020E94DE20A4
:1042100080E090E00E94D31F85E092E80E94D31FC7
:1042200080E098EB02C080E090E00E94D31F82E023
:104230000E941424892BB9F3812F90E054E0880F59
:10424000991F5A95E1F7876C90680E94D31F12302E
:1042500019F0133039F403C08CE796EA05C080EDFD
:1042600097EA02C080E496EA0E94D31F83E196ECAD
:104270000E94D31F82EA94E90E94D31F8CEA92EC39
:104280000E94D31F83E89AEC0E94D31F84ED9EEC1A
:104290000E94D31F83E894EC0E94D31F80E598E925
:1042A0000E94D31F87E79CEC0E94D31F80E090EE12
:1042B0000E94D31F80E098EC0E94D31F89E490EC09
:1042C0000E94D31F83E08093DD028091DE0290E0A4
:1042D0008F719070892B41F080E06DEE7FE140E0BE
:1042E00050E00E947B2103C080E00E949E218091CB
:1042F000DE021F910895823000F5E82FF0E0EE0F06
:10430000FF1FE052FD4F71836083882319F08130D5
:10431000A1F408C0809169008C7F842B8093690090
:10432000E89A089580916900440F551F440F551F66
:10433000837F842B80936900E99A0895823080F40A
:10434000882319F0813021F402C0E89801C0E9986F
:10435000E82FF0E0EE0FFF1FE052FD4F11821082B8
:1043600008951F920F920FB60F9211242F933F932F
:104370004F935F936F937F938F939F93AF93BF936D
:10438000EF93FF938091E0029091E102892B29F055
:10439000E091E002F091E1020995FF91EF91BF9168
:1043A000AF919F918F917F916F915F914F913F91CD
:1043B0002F910F900FBE0F901F9018951F920F9284
:1043C0000FB60F9211242F933F934F935F936F93E8
:1043D0007F938F939F93AF93BF93EF93FF938091BE
:1043E000E2029091E302892B29F0E091E202F09140
:1043F000E3020995FF91EF91BF91AF919F918F914A
:104400007F916F915F914F913F912F910F900FBED0
:104410000F901F9018951F920F920FB60F921124B4
:104420002F933F938F939F93AF93BF938091E80215
:104430009091E902A091EA02B091EB023091EC0276
:104440000196A11DB11D232F2D5F2D3720F02D5773
:104450000196A11DB11D2093EC028093E802909378
:10446000E902A093EA02B093EB028091E4029091FA
:10447000E502A091E602B091E7020196A11DB11DEF
:104480008093E4029093E502A093E602B093E702E2
:10449000BF91AF919F918F913F912F910F900FBE40
:1044A0000F901F9018958FB7F8942091E8023091E3
:1044B000E9024091EA025091EB028FBFB901CA01B3
:1044C00008959B01AC017FB7F8948091E40290912C
:1044D000E502A091E602B091E70266B5A89B05C08F
:1044E0006F3F19F00196A11DB11D7FBFBA2FA92FF3
:1044F000982F8827860F911DA11DB11D62E0880F9E
:10450000991FAA1FBB1F6A95D1F7BC012DC0FFB729
:10451000F8948091E4029091E502A091E602B091B6
:10452000E702E6B5A89B05C0EF3F19F00196A11D73
:10453000B11DFFBFBA2FA92F982F88278E0F911D6D
:10454000A11DB11DE2E0880F991FAA1FBB1FEA95AC
:10455000D1F7861B970B885E9340C8F221503040FC
:104560004040504068517C4F2115310541055105AF
:1045700071F60895019739F0880F991F880F991FD8
:1045800002970197F1F70895789484B5826084BD0D
:1045900084B5816084BD85B5826085BD85B5816047
:1045A00085BDEEE6F0E0808181608083E1E8F0E0A7
:1045B0001082808182608083808181608083E0E8D6
:1045C000F0E0808181608083E1EBF0E080818460B5
:1045D0008083E0EBF0E0808181608083EAE7F0E0B7
:1045E000808184608083808182608083808181601B
:1045F00080838081806880831092C1000895982F05
:104600008E3008F09E509770809102018295880F3D
:10461000880F807C892B80937C0080917A00806455
:1046200080937A0080917A0086FDFCCF20917800FB
:1046300040917900942F80E030E0282B392BC9017C
:1046400008951F93CF93DF93182FEB0161E00E9431
:104650008123209709F44AC0CF3FD10509F449C00E
:10466000E12FF0E0EF53FB4F84918330C1F08430B1
:1046700028F4813051F08230B1F50CC0863019F148
:10468000873049F1843079F514C084B5806884BDE1
:10469000C7BD33C084B5806284BDC8BD2EC08091C3
:1046A0008000806880938000D0938900C093880048
:1046B00024C080918000806280938000D0938B0022
:1046C000C0938A001AC08091B00080688093B000C7
:1046D000C093B30012C08091B00080628093B0009C
:1046E000C093B4000AC0C038D1051CF4812F60E02B
:1046F00002C0812F61E00E94C023DF91CF911F9102
:104700000895CF93DF93482F50E0CA0183559B4F04
:10471000FC01349147565B4FFA018491882369F17B
:1047200090E0880F991FFC01E558FB4FA591B491CB
:10473000FC01EB57FB4FC591D491662351F42FB781
:10474000F8948C91932F909589238C938881892359
:104750000BC0623061F42FB7F8948C91932F909531
:1047600089238C938881832B88832FBF06C09FB7B2
:10477000F8948C91832B8C939FBFDF91CF910895F8
:10478000482F50E0CA018F539B4FFC012491CA016E
:1047900083559B4FFC01949147565B4FFA0134912E
:1047A000332309F440C0222351F1233071F0243027
:1047B00028F42130A1F0223011F514C02630B1F0D8
:1047C0002730C1F02430D9F404C0809180008F7765
:1047D00003C0809180008F7D8093800010C084B5DD
:1047E0008F7702C084B58F7D84BD09C08091B000F1
:1047F0008F7703C08091B0008F7D8093B000E32F4E
:10480000F0E0EE0FFF1FEB57FB4FA591B4912FB7D0
:10481000F894662321F48C919095892302C08C91A1
:10482000892B8C932FBF0895682F70E0CB018F5395
:104830009B4FFC012491CB0183559B4FFC0144917C
:1048400067567B4FFB019491992319F420E030E0E7
:104850003CC0222351F1233071F0243028F4213060
:10486000A1F0223011F514C02630B1F02730C1F08C
:104870002430D9F404C0809180008F7703C08091E8
:1048800080008F7D8093800010C084B58F7702C038
:1048900084B58F7D84BD09C08091B0008F7703C03F
:1048A0008091B0008F7D8093B000892F90E0880FB9
:1048B000991F81579B4FFC01A591B4918C9120E0E9
:1048C00030E0842311F021E030E0C90108951F9207
:1048D0000F920FB60F9211242F933F934F938F9304
:1048E0009F93EF93FF934091C60020912D03309149
:1048F0002E032F5F3F4F2F73307080912F039091C5
:1049000030032817390759F0E0912D03F0912E0359
:10491000E351FD4F408330932E0320932D03FF91ED
:10492000EF919F918F914F913F912F910F900FBEDB
:104930000F901F9018951F920F920FB60F9211248F
:104940002F933F938F939F93EF93FF932091710346
:104950003091720380917303909174032817390783
:1049600031F48091C1008F7D8093C10014C0E0912B
:104970007303F0917403EF5CFC4F2081809173030B
:104980009091740301968F73907090937403809349
:1049900073032093C600FF91EF919F918F913F91F8
:1049A0002F910F900FBE0F901F901895AF92BF924E
:1049B000DF92EF92FF920F931F93CF93DF93EC015F
:1049C0007A018B01DD24403081EE580780E06807D2
:1049D00080E0780711F0DD24D39491E0A92EB12C6A
:1049E000EC89FD89DD2069F0C5010E8C02C0880FBD
:1049F000991F0A94E2F7808360E079E08DE390E00C
:104A000005C0108260E874E88EE190E0A80197018B
:104A10000E94B62D21503040404050405695479559
:104A20003795279580E12030380720F0DD2011F000
:104A3000DD24D6CFE889F9893083EA89FB89208390
:104A4000EE89FF89408121E030E0C9010A8C02C073
:104A5000880F991F0A94E2F7482B4083EE89FF895B
:104A60004081C9010B8C02C0880F991F0A94E2F79C
:104A7000482B4083EE89FF894081C9010C8C02C01C
:104A8000880F991F0A94E2F7482B4083EE89FF892B
:104A900080810D8C02C0220F331F0A94E2F720950B
:104AA00028232083DF91CF911F910F91FF90EF90EA
:104AB000DF90BF90AF900895DC011C96ED91FC91C2
:104AC0001D97E05CFF4F2191319180819181281BDE
:104AD000390B2F733070C9010895DC011C96ED91DC
:104AE000FC911D97E05CFF4F20813181E054F04044
:104AF000DF01AE5BBF4F8D919C911197281739074D
:104B000019F42FEF3FEF07C08D919C91E80FF91F2B
:104B10008081282F30E0C9010895DC011C96ED91B9
:104B2000FC911D97E05CFF4F20813181E054F04003
:104B3000DF01AE5BBF4F8D919C911197281739070C
:104B400019F42FEF3FEF10C08D919C911197E80F52
:104B5000F91F20818D919C91119701968F73907010
:104B600011969C938E9330E0C9010895FC018685CF
:104B70009785DC01A05CBF4FFC01EE5BFF4F2D91E0
:104B80003C9111978081918128173907C1F70895C9
:104B9000CF93DF93EC01EE85FF85E05CFF4F208132
:104BA0003181E054F0402F5F3F4F2F733070DF01B1
:104BB000AE5BBF4F8D919C91119728173907D1F3A8
:104BC000E05CFF4F80819181E054F040E80FF91FD5
:104BD0006083EE85FF85E05CFF4F31832083EE89A3
:104BE000FF89208181E090E00D8C02C0880F991F21
:104BF0000A94E2F7282B208381E090E0DF91CF91A7
:104C00000895109278031092770388EE93E0A0E065
:104C1000B0E08093790390937A03A0937B03B093E1
:104C20007C038EE291E090937603809375038DEE82
:104C300092E0909382038093810381E393E09093C9
:104C400084038093830385EC90E0909386038093A4
:104C5000850384EC90E0909388038093870380EC35
:104C600090E090938A038093890381EC90E0909385
:104C70008C0380938B0386EC90E090938E0380935B
:104C80008D0384E080938F0383E08093900387E01B
:104C90008093910385E08093920381E08093930356
:104CA0000895CF92DF92EF92FF920F931F93CF93CD
:104CB000DF937C016B018A01C0E0D0E00FC0D60118
:104CC0006D916D01D701ED91FC910190F081E02D86
:104CD000C7010995C80FD91F0150104001151105D2
:104CE00071F7CE01DF91CF911F910F91FF90EF905F
:104CF000DF90CF900895DC01ED91FC910190F0815F
:104D0000E02D09950895CF93DF93DB010D900020EE
:104D1000E9F71197A61BB70BEC01E881F981028036
:104D2000F381E02DAD010995DF91CF9108954F9268
:104D30005F927F928F929F92AF92BF92CF92DF92BB
:104D4000EF92FF920F931F93DF93CF93CDB7DEB710
:104D5000A1970FB6F894DEBF0FBECDBF2C01742E05
:104D6000CB01223008F42AE019A231E2C32ED12C63
:104D7000CC0EDD1E822E9924AA24BB24672D752F0C
:104D8000A50194010E94B62D79018A01C801B701DD
:104D9000A50194010E94642D472D461B0894C1086B
:104DA000D1084A3014F4405D01C0495CF6014083EB
:104DB000E114F1040105110521F07E2C5F2DC801DD
:104DC000DDCFC201B6010E948326A1960FB6F894EA
:104DD000DEBF0FBECDBFCF91DF911F910F91FF902E
:104DE000EF90DF90CF90BF90AF909F908F907F908B
:104DF0005F904F900895DC012115310541F4ED914C
:104E0000FC910190F081E02D642F099508950E9496
:104E100097260895EF92FF920F931F939A017B01BB
:104E200000E010E0B801A7010E94FB261F910F913E
:104E3000FF90EF900895EF92FF920F931F939A01C6
:104E4000E62EFF2400E010E0B801A7010E94FB2637
:104E50001F910F91FF90EF900895CF92DF92EF9204
:104E6000FF920F931F93CF93DF93EC016A017B01B5
:104E70002115310541F4E881F9810190F081E02D9F
:104E8000642F09951FC02A303105D1F477FF17C070
:104E9000E881F9810190F081E02D6DE209958C01A6
:104EA00044275527BA014C195D096E097F09CE01C7
:104EB0002AE00E9497269801280F391F04C02AE093
:104EC0000E9497269C01C901DF91CF911F910F91FC
:104ED000FF90EF90DF90CF900895EF92FF920F93A5
:104EE0001F937B019A010027F7FC0095102FB80152
:104EF000A7010E942D271F910F91FF90EF90089519
:104F00000E94832608957F928F929F92AF92BF92C4
:104F1000CF92DF92EF92FF920F931F93CF93DF9385
:104F20004C017A018B01722ECB01BA0120E030E0F6
:104F300040E050E00E94302B87FD03C0C0E0D0E08D
:104F40000EC0D401ED91FC910190F081E02DC401DF
:104F50006DE20995EC0117FB109517F9109520E00B
:104F600030E040E05FE3AA240BC0CA01B90120E0B1
:104F700030E040E251E40E94342B9B01AC01A39449
:104F8000A71498F3C801B7010E94CC2A5B016C01F9
:104F90000E94A12B7B018C01C401B801A7012AE06A
:104FA00030E00E94FB26C80FD91F772039F0C401DA
:104FB00060E071E00E948326C80FD91FC801B701C5
:104FC0000E94CD2B9B01AC01C601B5010E94CB2AEA
:104FD00024C020E030E040E251E40E94C82C7B0174
:104FE0008C010E949C2B5B016C01CC24B7FCC0940B
:104FF000DC2CC401B601A5012AE030E00E942D2777
:10500000C80FD91FC601B5010E94CF2B9B01AC016F
:10501000C801B7010E94CB2A7A947720D1F6CE013D
:10502000DF91CF911F910F91FF90EF90DF90CF9084
:10503000BF90AF909F908F907F9008950E9483279C
:105040000895813041F0813018F08230D1F409C0E8
:1050500010926E00089580916F008D7F80936F0095
:105060000895809170008D7F8093700081E080931F
:10507000B0008091B100887F84608093B10010926D
:10508000B30008951F93182F80910301811711F029
:105090009FEF06C0E5EDF4E094918FEF809303015C
:1050A000892F0E942128812F60E00E94C0231F9138
:1050B00008951F920F920FB60F9211242F933F93D2
:1050C0004F935F936F937F938F939F93AF93BF9310
:1050D000EF93FF938091A2039091A303A091A40367
:1050E000B091A5030097A105B10551F1E091A60388
:1050F000F091A70380819091A803892780838091F4
:10510000A2039091A303A091A403B091A503181644
:1051100019061A061B06C4F48091A2039091A303FA
:10512000A091A403B091A5030197A109B1098093AF
:10513000A2039093A303A093A403B093A50304C078
:10514000809103010E944228FF91EF91BF91AF919E
:105150009F918F917F916F915F914F913F912F918F
:105160000F900FBE0F901F9018952F923F925F9255
:105170006F927F928F929F92AF92BF92CF92DF9267
:10518000EF92FF920F931F93DF93CF9300D000D045
:10519000CDB7DEB7A82F1B0129833A834B835C83ED
:1051A000809103018A1721F4E5EDF4E0549082C068
:1051B0008F3F09F0DAC1A0930301E5EDF4E05490CC
:1051C0002FEF521609F4D1C181E0581639F192E05F
:1051D000591609F449C0552009F06CC014BC15BC1F
:1051E00084B5826084BD85B5816085BD2A2F30E09D
:1051F000F901E756FB4FE491F0E0EE0FFF1FEB578C
:10520000FB4F859194919093990380939803235534
:105210003B4FF901849180939A034EC01092800015
:10522000109281008091810088608093810080913C
:1052300081008160809381002A2F30E0F901E756D8
:10524000FB4FE491F0E0EE0FFF1FEB57FB4F859112
:1052500094919093A00380939F0323553B4FF901B2
:1052600084918093A10328C01092B0001092B100E5
:105270008091B00082608093B0008091B100816025
:105280008093B1002A2F30E0F901E756FB4FE491FB
:10529000F0E0EE0FFF1FEB57FB4F85919491909339
:1052A000A7038093A60323553B4FF9018491809374
:1052B000A80302C057FC59C18A2F61E00E948123D4
:1052C000552021F0F2E05F1609F0BEC031018824BC
:1052D000992460E072E18AE790E0A40193010E94C2
:1052E000D82D59016A01860175010894E108F10879
:1052F000010911092FEFE216F1040105110509F06A
:1053000008F499C060E472E48FE090E0A401930196
:105310000E94D82D79018A010894E108F108010959
:10532000110982E05816C1F49FEFE916F104010556
:10533000110509F008F484C060E970ED83E090E0A5
:10534000A40193010E94D82D79018A010894E108F3
:10535000F1080109110983E0AFEFEA16F104010534
:10536000110509F008F468C068E478EE81E090E087
:10537000A40193010E94D82D79018A010894E108C3
:10538000F10801091109552011F483E01DC0B2E0B4
:105390005B1611F084E018C0EFEFEE16F104010582
:1053A000110509F008F4DFC064E274EF80E090E0DA
:1053B000A40193010E94D82D79018A010894E10883
:1053C000F1080109110985E0FFEFEF16F10401056D
:1053D000110591F188F162E17AE780E090E0A401A3
:1053E00093010E94D82D79018A010894E108F108FF
:1053F00001091109552011F086E001C084E02FEF6A
:10540000E216F10401051105B9F0B0F0C601B501CD
:1054100020E034E040E050E00E94D82D79018A017C
:105420000894E108F10801091109552011F087E0FD
:1054300008C085E003C081E0552019F485BD3AC05D
:1054400082E08093B10036C05101CC24DD2460E0BD
:1054500072E18AE790E0A60195010E94D82D7901BA
:105460008A010894E108F1080109110980E0E816B1
:1054700080E0F80681E0080780E0180710F491E06A
:1054800010C068E478EE81E090E0A60195010E94EA
:10549000D82D79018A010894E108F1080109110960
:1054A00093E0A1E05A1631F480918100887F982B17
:1054B0009093810089819A81AB81BC810097A1057D
:1054C000B10529F48FEF9FEFAFEFBFEF13C0220CB0
:1054D000331CB10180E090E029813A814B815C81ED
:1054E0000E94642D28EE33E040E050E00E94B62D8B
:1054F000C901DA01E1E05E16A1F0F2E05F1619F1F0
:10550000552099F5E7BC8093940390939503A0935D
:105510009603B093970380916E00826080936E0033
:1055200024C0F0928900E092880080939B039093BE
:105530009C03A0939D03B0939E0380916F008260B3
:1055400080936F0012C0E092B3008093A203909307
:10555000A303A093A403B093A5038091700082607D
:105560008093700002C084E06CCF0F900F900F907A
:105570000F90CF91DF911F910F91FF90EF90DF90EF
:10558000CF90BF90AF909F908F907F906F905F90E3
:105590003F902F9008955058BB27AA270ED075C171
:1055A00066D130F06BD120F031F49F3F11F41EF43E
:1055B0005BC10EF4E095E7FB51C1E92F77D180F391
:1055C000BA17620773078407950718F071F49EF500
:1055D0008FC10EF4E0950B2EBA2FA02D0B01B9014F
:1055E00090010C01CA01A0011124FF27591B99F059
:1055F000593F50F4503E68F11A16F040A22F232F65
:10560000342F4427585FF3CF469537952795A795B4
:10561000F0405395C9F77EF41F16BA0B620B730B5B
:10562000840BBAF09150A1F0FF0FBB1F661F771FCC
:10563000881FC2F70EC0BA0F621F731F841F48F481
:10564000879577956795B795F7959E3F08F0B3CF07
:105650009395880F08F09927EE0F979587950895F1
:10566000D9D008F481E008950CD00FC107D140F0E3
:10567000FED030F021F45F3F19F0F0C0511139C174
:10568000F3C014D198F39923C9F35523B1F3951BB3
:10569000550BBB27AA2762177307840738F09F5F53
:1056A0005F4F220F331F441FAA1FA9F333D00E2EC2
:1056B0003AF0E0E830D091505040E695001CCAF72F
:1056C00029D0FE2F27D0660F771F881FBB1F2617F4
:1056D00037074807AB07B0E809F0BB0B802DBF01C7
:1056E000FF2793585F4F2AF09E3F510568F0B6C0E0
:1056F00000C15F3FECF3983EDCF3869577956795A4
:10570000B795F7959F5FC9F7880F911D9695879577
:1057100097F90895E1E0660F771F881FBB1F621796
:1057200073078407BA0720F0621B730B840BBA0B54
:10573000EE1F88F7E095089504D06894B111D9C0A0
:105740000895BCD088F09F5790F0B92F9927B75192
:10575000A0F0D1F0660F771F881F991F1AF0BA9535
:10576000C9F712C0B13081F0C3D0B1E00895C0C014
:10577000672F782F8827B85F39F0B93FCCF386952B
:1057800077956795B395D9F73EF490958095709588
:1057900061957F4F8F4F9F4F0895E89409C097FB05
:1057A0003EF490958095709561957F4F8F4F9F4FF8
:1057B0009923A9F0F92F96E9BB279395F69587953C
:1057C00077956795B795F111F8CFFAF4BB0F11F4FF
:1057D00060FF1BC06F5F7F4F8F4F9F4F16C08823A6
:1057E00011F096E911C0772321F09EE8872F762FDC
:1057F00005C0662371F096E8862F70E060E02AF01D
:105800009A95660F771F881FDAF7880F9695879508
:1058100097F90895990F0008550FAA0BE0E8FEEFDD
:1058200016161706E807F907C0F012161306E40764
:10583000F50798F0621B730B840B950B39F40A265D
:1058400061F0232B242B252B21F408950A2609F43B
:10585000A140A6958FEF811D811D089597F99F673F
:1058600080E870E060E008959FEF80EC08950024E8
:105870000A941616170618060906089500240A94B5
:1058800012161306140605060895092E0394000C3B
:1058900011F4882352F0BB0F40F4BF2B11F460FFCA
:1058A00004C06F5F7F4F8F4F9F4F089557FD9058F3
:1058B000440F551F59F05F3F71F04795880F97FBD4
:1058C000991F61F09F3F79F087950895121613068E
:1058D0001406551FF2CF4695F1DF08C016161706BD
:1058E0001806991FF1CF86957105610508940895F2
:1058F000E894BB2766277727CB0197F908958ADFBD
:1059000008F48FEF08950EF0AAC0AECF6894A6CF2A
:10591000D5DFC8F39923D1F3C6F3DF93CF931F9359
:105920000F93FF92C92FDD2788232AF02197660F56
:10593000771F881FDAF720E030E040E85FEB9FE355
:10594000883920F0803E30F021968F7725DEE8E61A
:10595000F0E003C021DEE5E9F0E091D08B01BE016B
:10596000EC01FB2E6F5771097595771F880B990B0A
:1059700016DF28E132E741E35FE316D0AF2D98014F
:10598000AE01FF900F911F91CF91DF9116DE7DCF79
:105990000BD07BCF6CDF28F071DF18F0952309F076
:1059A0005DCF62CF1124A5CF81DFA0F3959FD1F306
:1059B000950F50E0551F629FF001729FBB27F00DBD
:1059C000B11D639FAA27F00DB11DAA1F649F662712
:1059D000B00DA11D661F829F2227B00DA11D621F61
:1059E000739FB00DA11D621F839FA00D611D221F1B
:1059F000749F3327A00D611D231F849F600D211DFF
:105A0000822F762F6A2F11249F5750408AF0E1F0A1
:105A100088234AF0EE0FFF1FBB1F661F771F881FEA
:105A200091505040A9F79E3F510570F017CF61CFBC
:105A30005F3FECF3983EDCF3869577956795B795D5
:105A4000F795E7959F5FC1F7FE2B880F911D9695FF
:105A5000879597F90895DEDE880B990B08959F3F8F
:105A600049F0915028F4869577956795B7959F5F93
:105A700080389F4F880F9695879597F90895DF9303
:105A8000CF931F930F93FF92EF92DF927B018C01D4
:105A9000689405C0DA2EEF0187DFFE01E894A59136
:105AA0002591359145915591AEF3EF0186DDFE01CB
:105AB0009701A801DA9479F7DF90EF90FF900F91AA
:105AC0001F91CF91DF910895629FD001739FF001E4
:105AD000829FE00DF11D649FE00DF11D929FF00D7E
