:100000000C9473020C9431210C945E210C94A10287
:100010000C94A1020C94A1020C94A1020C94A102D4
:100020000C94A1020C94A1020C94EE060C94721D87
:100030000C940F030C94A1020C94A1020C94A10245
:100040000C948B210C94A1020C947D240C94AF246D
:100050000C94A1020C9411030C94A1020C94A10223
:100060000C94A1020C94A102540B5C0B640B6C0B5E
:10007000740B7C0B840B8D0B08000000BE9224498E
:10008000123EABAAAA2ABECDCCCC4C3E00000080CA
:10009000BEABAAAAAA3E00000000BF000000803F3D
:1000A0000000000000084178D3BB4387D1133D19FD
:1000B0000E3CC3BD4282AD2B3E68EC8276BED98F2A
:1000C000E1A93E4C80EFFFBE01C4FF7F3F0000006E
:1000D0000000484D50532C00484D415200484D53AC
:1000E000552C00484D50432C00484D524D00484D72
:1000F000504400484D4C442C007265626F6F740090
:10010000636F6E666967007365743F74703D00735A
:1001100065743F74743D007365743F666E3D007393
:1001200065743F616C3D007365743F706300736577
:10013000743F706E007365743F706964007365741A
:100140003F706F3D007365743F6C643D0073657470
:100150003F6C623D007365743F73703D00554349C9
:10016000442C4865617465724D657465722C32303B
:1001700031363031333000484D414C00484D464E09
:100180002C00484D4C422C00484D504E00484D50DC
:100190004F00252D313273253364DF005069743AE6
:1001A000253364DF256320256325337525252563E5
:1001B000005069743A253364DF2563204C69642557
:1001C0003375002A2A20414C41524D204849474866
:1001D000202A2A002A2A20414C41524D204C4F57B8
:1001E00020202A2A000A050A050A3250726F626529
:1001F00020200000000000000100D8FF38FF0000B0
:10020000A99F8139F06375396A08153400401C468E
:100210000EF0E10006F00000000000000080400A3F
:10022000D7A33C0000A04000327F7F7F7F46006460
:1002300010FF640D0A0B0064C8006400010203048F
:100240000501022020052006060203070706060214
:10025000070705030402202005FF0606070705001F
:10026000060603070501010220002000060203071D
:1002700005000602202005070F1F1F1F1F1F1F1F3D
:100280001F1F00000000001C1E1F1F1F1F1F1F1F1D
:100290001F1F1F1F1F0F0700000000001F1F1F1F31
:1002A0001F1F1F1F1F1E1C1F1F1F0000001F1F1FBF
:1002B000000000001F1F1F2D204E6F20506974206A
:1002C00050726F6265202D00253364DF2563005373
:1002D00065742074656D70657261747572653A003D
:1002E0004D616E75616C2066616E206D6F64650096
:1002F0004F666673657420253464DF2563002533FB
:100300006425252062656C6F7720736574004C69E5
:1003100064206F70656E206F6666736574002533A8
:1003200064207365636F6E6473004C6964206F7042
:10033000656E2074696D6572004E6F20005965739B
:1003400000484D52432C5553455200526573657415
:1003500020636F6E6669673F007370656564202572
:1003600033642525004D6178696D756D2061757464
:100370006F2066616E002533642525004C434420C0
:100380006272696768746E65737300022803020203
:1003900009020404032804030209030402042802D6
:1003A00004020904040305280205020905040409DE
:1003B000210209021313210213021515210215024D
:1003C0001616210216020D0D21020D020E0E21023B
:1003D0000E020F0F21020F02101021021002111144
:1003E000210211021212210212021414210214021B
:1003F00009000000026D1805036D1805046D18054D
:10040000056D1801063C1800090A180A1326190A76
:100410000DC8170A0EC8170A0FC8170A10C8170AFE
:10042000119D170A1271170A148B190A1641170A1F
:10043000150A170A18F9181400000000484D524612
:100440002C3235352C302C00000000080002010051
:10045000000304070000000000000000010204087F
:10046000102040800102040810200102040810201E
:10047000040404040404040402020202020203034A
:1004800003030303000000002300260029000000EE
:100490000000250028002B00000000002400270099
:1004A0002A004E414E494E495459494E46CDCCCC76
:1004B0003D0AD7233C17B7D13877CC2B329595E638
:1004C000241FB14F0A000020410000C84200401C18
:1004D0004620BCBE4CCA1B0E5AAEC59D74001E10F1
:1004E00081195E1DD52411241FBECFEFD8E0DEBFD9
:1004F000CDBF14BEE0E6F0E088E18083108211E019
:10050000A0E0B1E0E8EDFDE502C005900D92A03459
:10051000B107D9F723E0A0E4B1E001C01D92A73FE5
:10052000B207E1F714E0C6EED4E004C02297FE0162
:100530000E94002ACE3DD107C9F70E940B0B0C94F4
:10054000EA2E0C940000EF92FF920F931F93CF932B
:10055000DF931F92CDB7DEB77C01415068F08B016D
:100560000F5F1F4FCB0149830E94662CF7018193D7
:100570007F01B8014981F1CF0F90DF91CF911F9199
:100580000F91FF90EF900895EF92FF920F931F93BA
:10059000CF93DF931F92CDB7DEB77C01CB01460F1F
:1005A000481761F0F70161917F018C010F5F1F4FC8
:1005B00049830E946E2CC8014981F2CF0F90DF91D0
:1005C000CF911F910F91FF90EF900895CF93DF93FC
:1005D00000D0CDB7DEB77A83698342E0BC01CE019B
:1005E00001960E94C4020F900F90DF91CF91089561
:1005F000CF93DF931F92CDB7DEB7698341E0BC0193
:10060000CE0101960E94C4020F90DF91CF91089510
:10061000DC01ED91FC910190F081E02D0994289886
:1006200018951F920F920FB60F9211242F933F939C
:100630008F939F93AF93BF93EF93FF938091460166
:10064000882309F43EC0815080934601813001F532
:100650002091490130E0F901EE0FFF1FEE0FFF1F5F
:10066000E05CFE4F8091420190914301A0914401D2
:10067000B091450182879387A487B587F901E05C33
:10068000FE4F8091470190914801891B82A374C05D
:10069000811172C0109247011092420110924301E1
:1006A00010924401109245018FEF80934801809190
:1006B00040018093410180917C008F7080934901BB
:1006C0005BC080914101882371F181508093410189
:1006D00020917800309179008091420190914301FE
:1006E000A0914401B0914501820F931FA11DB11D3E
:1006F0008093420190934301A0934401B09345013C
:10070000C9019695879596958795282F3091470131
:10071000381710F48093470130914801231760F592
:100720008093480129C020917C002F70273040F031
:10073000809178009091790090936F0180936E0181
:1007400081E0820F863008F080E0E82FF0E0E05C86
:10075000FE4F90A5992311F090EC01C090E42091F8
:100760007C00207C291711F020E301C023E02093B6
:100770004601892B80937C00FF91EF91BF91AF914F
:100780009F918F913F912F910F900FBE0F901F90CF
:100790001895CF93C62FF89464E0869FF00111243A
:1007A000E05CFE4F62857385848595857894B4E01E
:1007B000660F771F881F991FBA95D1F720914001C6
:1007C00030E040E050E00E94DC298EE090E08C1B9D
:1007D0009109B90102C0769567958A95E2F7CB0138
:1007E000CF910895E82FF0E0E05CFE4F82A10895DC
:1007F000FC01808191811816190664F48617970709
:100800001CF481E0868306C0681779071CF4868192
:1008100081111DC082819381181619067CF49C01F8
:1008200021503109621773071CF481E0878306C0E9
:10083000681779071CF0878181110CC080915702DD
:1008400090915802892B49F015821482089581E015
:100850008483E0CF81E08583F1CF0895FC01178286
:1008600015826115710511F0738362830895FC018F
:10087000168214826115710511F0718360830895E9
:10088000E62FF0E0DC01AE0FBF1F16961C92169704
:1008900014961C924115510531F0EE0FFF1FE80F21
:1008A000F91F518340830895FC01608325E522836D
:1008B00008950F931F93CF93DF93EB012D85FC01D8
:1008C00021832E852483DC011596FB01759620E19A
:1008D00001900D922A95E1F78C01035E1F4F6F8501
:1008E0007889C8010E94370469897A89C801DF9133
:1008F000CF911F910F910C942E04CF92DF92EF9223
:10090000FF92CF93DF93EC018A818F34D1F58B81F5
:1009100081110BC04D895E896F89788D498F5A8FFF
:100920006B8F7C8F81E08B831CC0C98CDA8CEB8C45
:10093000FC8CA70196016D897E898F89988D0E9414
:1009400011272AE83BE446E05DE30E940E299B0163
:10095000AC01C701B6010E941227698F7A8F8B8F75
:100960009C8F6D897E898F89988D0E94E227CE01A8
:100970004D96DF91CF91FF90EF90DF90CF900C9448
:10098000F8031BA219A21CA21AA2DF91CF91FF901B
:10099000EF90DF90CF900895CF92DF92EF92FF9289
:1009A000CF93DF93EC016A017B0120E030E040EA65
:1009B00051ECC701B6010E947627181614F08CE49A
:1009C0003CC020E030E04AEF53E4C701B6010E948A
:1009D000C52887FD02C088E430C080912802863493
:1009E00099F426E636E646EE5FE3C701B6010E94BB
:1009F0000E2920E030E040E052E40E9412276D8B87
:100A00007E8B8F8B988F04C0CD8ADE8AEF8AF88E1A
:100A10006C81772767FD7095872F972F0E94152887
:100A20009B01AC016D897E898F89988D0E94122768
:100A30006D8B7E8B8F8B988F8FE48A83DF91CF9124
:100A4000FF90EF90DF90CF9008958F929F92AF929A
:100A5000BF92CF92DF92EF92FF920F931F93CF93AB
:100A6000DF93EC018B01F090280280E090E021E41C
:100A7000F21203C00E94132886C00E9413284B0163
:100A80005C0120E030E84FE756E40E94C5281816C4
:100A90001CF00115110511F485E57AC089818330B8
:100AA00009F051C0C988DA88EB88FC8820E030E082
:100AB00048EC52E4C701B6010E94762787FF0AC0BE
:100AC000A701960160E070E48EE495E40E947A2725
:100AD0006B017C01E881F0E0E05CFE4F80A588239B
:100AE000F9F081E000381E4308F080E080A76091B3
:100AF0006E0170916F0180E090E00E9413289B01CD
:100B0000AC0160E070EC8FE794E40E947A279B01CF
:100B1000AC01C701B6010E947A276B017C0106C0B7
:100B200081E0003C124108F080E080A720E030EC3A
:100B30004FE756E4C501B4010E947A27A701960148
:100B40000E940E295FC0A501940160E070EC8FE760
:100B500096E40E947A2720E030E040E85FE30E94BC
:100B600011279B01AC0169897A898B899C890E9434
:100B70007A2722E5F2121AC02091400230914102F8
:100B8000C217D30799F06D8B7E8B8F8B988F8FE474
:100B90008A83DF91CF911F910F91FF90EF90DF90AB
:100BA000CF90BF90AF909F908F9008950E94CE28D5
:100BB0006B017C012D853E854F8558890E940E2949
:100BC000A70196010E940E2929853A854B855C85EF
:100BD0000E941227A70196010E940E292D813E81B5
:100BE0004F8158850E9412279B01AC0160E070E0A4
:100BF00080E89FE30E947A2723E333E948E853E43F
:100C00000E941127AB01BC01CE01DF91CF911F9152
:100C10000F91FF90EF90DF90CF90BF90AF909F909B
:100C20008F900C94CC04FC0185A596A596AB85AB62
:100C300020E030E0DF01A20FB31F9D960D90BC9124
:100C4000A02D11968C911197882319F0B6ABA5AB06
:100C500008952E5F3F4F2830310561F70895209A9F
:100C600020E43CE9309387002093860010928000B6
:100C70002AE12093810024E220936F002EE4209348
:100C80007C0020E420937B002FEE20937A000C94CC
:100C90001306FC01E60FF11DE60FF11D05A4F6A5F4
:100CA000E02D418325E5228313820C941306CF9314
:100CB000DF931F92CDB7DEB76983FC0165A38981FD
:100CC00085FD05C0898186FF04C080EA03C080ECF1
:100CD00001C08FEFF8948093400183E08093460138
:100CE00078948093B000898184FF02C081E001C0C4
:100CF00085E08093B1000F90DF91CF910895FC01C2
:100D000063A32AE024A70895FC0162A32AE024A794
:100D1000089520E030E040E0FC01E20FF31F05A45D
:100D2000F6A5E02D5181561301C04F5F2E5F3F4F56
:100D30002830310589F7842F90E00895CF93DF9311
:100D4000EC0188A5882319F09DA194FD08C08FA30C
:100D50006FA170E083E0DF91CF910C94262268E0D0
:100D600081E00E94C9034FA150E028A530E0281B74
:100D7000310937FF02C02F5F3F4F35952795240F6C
:100D8000351F1216130644F42F3F310519F014F0E5
:100D90002FEF30E02FA3DCCF21E0FCCFFC0143A5F7
:100DA0004436C8F481A592A59C01225E3F4F261BC4
:100DB000370B2D33310518F06115710519F44F5FAC
:100DC00043A708956817790718F4CB014E96089544
:100DD000CB014E97089580E090E008951F920F9206
:100DE0000FB60F9211242F933F934F935F936F93FE
:100DF0007F938F939F93AF93BF93EF93FF936091F4
:100E00008A0070918B008BE092E00E94CE060097E2
:100E100059F0289A2091840030918500280F391FBD
:100E200030938B0020938A00FF91EF91BF91AF9197
:100E30009F918F917F916F915F914F913F912F91F2
:100E40000F900FBE0F901F901895BF92CF92DF9218
:100E5000EF92FF920F931F93CF93DF93EC01B88033
:100E60008C01085B1F4FF801C080D180E280F380C5
:100E70006B2D70E080E090E00E941328A70196019E
:100E80000E94112721E837EF47E05CE30E940E291A
:100E90009B01AC01C701B6010E941227F8016083D3
:100EA00071838283938349A1B41610F41EA215C0E6
:100EB0008D81811102C05F8D01C05E8D2B2D30E0D0
:100EC000241B3109529FC001539F900D112464E6E9
:100ED000641B70E00E94B4296EA38EA128A1821722
:100EE000B0F43A85FAE08F9FC0011124622F70E0C0
:100EF0000E94B429832F90E08617970710F42EA341
:100F000001C01EA23F5F3A3010F43A8701C01A8632
:100F10008DA180FF04C08E8D9EA1891B8EA38EA102
:100F2000811102C018A621C028A59DA194FF0AC066
:100F300037E8839FC001112464E670E00E94B42961
:100F4000625A08C04FEF849FC001112464E670E02C
:100F50000E94B42968A7211108C06FEF70E083E0F8
:100F60000E94262280E88FA303C0CE010E949E0625
:100F700088816CA1861748F4E4E68E9FC001112495
:100F800070E00E94B429462F01C044E68DA181FF84
:100F900003C084E6841B482FEBA12AA130E02E1B5E
:100FA0003109429FC001439F900D112464E670E017
:100FB0000E94B429E60FF4E1EF9FB001112489A546
:100FC0009AA58617970791F08C599F4F861B970B10
:100FD000893C910528F48CA58F5F8CA78A3030F06E
:100FE000F8941BA67AA769A778941CA6DF91CF91E5
:100FF0001F910F91FF90EF90DF90CF90BF900895D9
:1010000020E030E0FC01E20FF31F07A4F0A9E02D7F
:1010100042814F3439F02E5F3F4F2630310591F732
:1010200080E0089581E00895FC01E45BFF4FDC015E
:101030001B962D913C911C973183208321E01596BE
:101040002C930895FC017783668315821086E45BF8
:10105000FF4F11821082089521E0FC01208777FD67
:1010600006C06536710524F064E670E001C060E0FA
:10107000FC016083E45BFF4F118210820895CF93DF
:10108000DF93EC01A62FCA01B901FE0124E0A29F63
:10109000E00DF11D112460AF71AF82AF93AFA230AC
:1010A00059F420E030E0A9010E947627811104C0A4
:1010B0001D8A1E8A1F8A188EDF91CF9108956E3186
:1010C000710510F46EE170E0FC0174876387089588
:1010D0002F923F924F925F926F927F928F929F9248
:1010E000AF92BF92CF92DF92EF92FF920F931F9336
:1010F000CF93DF9300D000D01F92CDB7DEB79D8392
:101100008C830E94D521AC81BD8111962D913C919B
:101110001297621B730B6D34714008F44EC10E942C
:10112000D521EC81FD8161837283838394838185E2
:10113000823030F48F5F8187CF010E949E063DC1CF
:10114000AC81BD8119961C9219978D01F12CD801A3
:101150009D96ED91FC919E9781818D7F813009F460
:101160002EC1F80185A596A50E947D04F3940E5F1B
:101170001F4FF4E0FF12EBCFAC81BD8118968C912C
:101180001897811114C1BC91BB83EC81FD81108241
:1011900085A996A99A838983DC0112968C9112976E
:1011A0008F01045B1F4F268037808F3409F099C070
:1011B000F80180819181892B09F093C055964D905B
:1011C0005D906D907C905897B101882777FD809550
:1011D000982F0E941528A30192010E9411276B01EC
:1011E0007C01AC81BD81DC962D913D914D915C914E
:1011F000DF970E940E294B015C01EC81FD81618B20
:10120000728B838B948B20E030E0A901C701B6017B
:101210000E94C52818161CF4FB81F43660F020E00B
:1012200030E0A901C701B6010E94762787FF21C0DF
:101230008B818823F1F0EC81FD81E05CFF4F208100
:10124000318142815381C701B6010E940E299B0161
:10125000AC01AC81BD8155966D917D918D919C9134
:1012600058970E941227EC81FD81658B768B878BC6
:10127000908FA3019201A981BA8159966D917D91B8
:101280008D919C915C970E941127EC81FD81EC5B14
:10129000FF4F20813181428153810E940E296B01D1
:1012A0007C01EC81FD81618F728F838F948F258902
:1012B00036894789508DC501B4010E941227A701C4
:1012C00096010E9412270E94E22777FD06C065362C
:1012D000710524F064E670E001C060E0AC81BD817E
:1012E0006C93E981FA81658976898789908D0E945E
:1012F000E2279101261B370B1216130674F1AC81FD
:10130000BD811B968D919C911C97F8014081518164
:10131000841B950B4F9708F115968C9115978111A9
:1013200014C020E030E040E05FE355966D917D9180
:101330008D919C9158970E940E29AC81BD81559644
:101340006D937D938D939C93589782E0EC81FD8102
:101350008583D8011D921C922AC0F8018081918159
:10136000009721F001979183808321C0AC81BD81DA
:1013700015968C918230D9F444E6429FC001439F78
:10138000900D1124B1010E94C829EC81FD8187A92B
:1013900090E0681779075CF0E85BFF4F608171812E
:1013A000828193810E94E2276A357105ACF08C81BD
:1013B0009D810E94250781E019C080E017C06EE082
:1013C00080810E94C903BC01D8019D968D919C919A
:1013D0009E970E942505C5CEEC81FD81838594856D
:1013E000D8018D939C9381E08583E1CF0F900F907E
:1013F0000F900F900F90DF91CF911F910F91FF9061
:10140000EF90DF90CF90BF90AF909F908F907F90A4
:101410006F905F904F903F902F900895633441F00C
:101420001CF4613439F404C0663411F0623511F4EF
:10143000FC01658F0895CF93C82F809135038111EA
:101440000BC081E0809335031092360364E270E0B4
:1014500088E593E00E940803909136039C279093BF
:1014600036036C2F88E593E0CF910C94B6238CE281
:101470000C941B0A0F931F93CF93DF93EC016E81A3
:101480007F814AE050E081E393E00E9402260E94BF
:10149000370A00E010E0FE01E00FF11F05A4F6A5F9
:1014A000E02D82818F3459F4458956896789708D82
:1014B00021E030E081E393E00E940F2703C085E53F
:1014C0000E941B0A0E94370A0E5F1F4F0830110549
:1014D00011F74AE050E0688181E393E00E9417260B
:1014E0000E94370AFE01E85BFF4F608171818281B3
:1014F00093810E94E2274AE050E081E393E00E945A
:1015000002260E94370AFE01E45BFF4F6081718171
:101510004AE050E081E393E00E941E260E94370AD1
:101520004AE050E06EA181E393E0DF91CF911F91FB
:101530000F910C941726EF92FF920F931F93CF9366
:10154000DF937C01FC0105A916A9F80182818F3483
:1015500009F05AC0E2EDF0E08491EF012196882372
:1015600021F00E941B0AFE01F7CFC0E0D0E0F70196
:10157000EC0FFD1F458556856785708922E030E0B8
:1015800081E393E00E940F270E94370A2496C0311E
:10159000D10569F7F801218D328D438D548D658910
:1015A00076898789908D0E941127AB01BC0122E0CA
:1015B00030E081E393E00E940F276AE270E088E563
:1015C00093E00E9408036091360362956F706A3061
:1015D00010F4605D01C0695C88E593E00E94B62369
:1015E000609136036F706A3010F4605D01C0695C11
:1015F00088E593E00E94B6236AE070E088E593E016
:101600000E94080310923503DF91CF911F910F9133
:10161000FF90EF9008950E94EB210E94CE110E944E
:101620003613FDCF811102C0609377010895CF93E7
:10163000DF93EB0177FF02C0C0E0D0E0813069F0BA
:1016400018F08230B1F021C0C09342026C2F84E0C8
:1016500090E0DF91CF910C94F802BE018BE092E014
:101660000E945F08BE0185E090E0DF91CF910C946D
:10167000E602CD2B31F08BE092E0DF91CF910C941C
:1016800014081092580210925702DF91CF910895DA
:10169000CF93C62F90E08830910508F049C0FC0137
:1016A000EC5CFF4F0C94FE29653608F064E660930D
:1016B0002B028EE190E039C0653608F064E6609355
:1016C00029028FE190E031C08BE092E00E947F061A
:1016D0006C2F87E290E029C08BE092E00E948406A4
:1016E0006C2F88E290E021C08BE092E00E945706C8
:1016F0006C2F80E290E019C0653608F064E66093D4
:101700002A0282E290E011C0643608F060E0609343
:101710002C0289E290E00E94F8026C2FC53608F096
:1017200064E660932F028AE290E0CF910C94F80275
:10173000CF91089562E08BE092E00E948906892BA8
:1017400029F063E082E991E00C94DE1B0895462FB6
:10175000811103C089E00C94E7226FEF680F8FEFCF
:1017600091E00C947B1FFF920F931F93CF93DF9315
:101770008C01F12CC7ECD1E088818823A1F08C3258
:1017800019F4F3942196F8CFCE010E94172ABC01D8
:101790008F2DF8010995DE01ED018D91882361F30C
:1017A0008C32D1F7E9CFDF91CF911F910F91FF904C
:1017B0000895843090F4E82FF0E0EE0FFF1FE55F0E
:1017C000FD4F05A4F6A5E02D648395E2899F802D49
:1017D0001124825B90E00C94F80208950F931F93FC
:1017E000CF93DF9300D0CDB7DEB7AB017A836983A7
:1017F000182F1695082F0170E12FF0E0EE0FFF1F54
:10180000E55FFD4F85A596A5602F4D960E9440048B
:10181000143090F485E2189F102D1124115B29815A
:101820003A81232B49F0602F660F610F70E042E090
:10183000CE0101960E94C4020F900F90DF91CF91CC
:101840001F910F910895CF93DF93C82FD62F843027
:1018500088F4462F682F8BE092E00E94490685E2CB
:10186000C89F802D1124835B6D2F90E0DF91CF9175
:101870000C94F802DF91CF910895BF92CF92DF923E
:10188000EF92FF920F931F93CF93DF936C01B62ECD
:1018900008E312E04EE8E42E41E0F42EF801C19195
:1018A000D1918F018981823001F5F70180818F37D5
:1018B00099F1F6019281891318C02EC0F601878133
:1018C0006081718182FF2EC0882777FD8095982FD7
:1018D0000E94152820E030E040E251E40E947A277F
:1018E000AB01BC01CE010E94CC04FFEFEF1AFF0A4E
:1018F00082E00034180791F68B2D8570D9F082E9CB
:1019000091E0DF91CF911F910F91FF90EF90DF90C9
:10191000CF90BF900C94EF1CE4E0BE12CFCF60E0FC
:1019200070E004C0660F771F660F771FCE010E941C
:101930002505DBCFDF91CF911F910F91FF90EF90A5
:10194000DF90CF90BF90089587FF809376018F77C7
:101950002FEF829FC001112464E670E00E94B42939
:1019600085E00C942622843058F465E2869F602D31
:101970001124605C70E04DE08EE193E00C94A302D2
:101980000895CF93DF93EC011816190664F4BC0197
:1019900082E090E00E94E602BE018BE092E00E94AD
:1019A000220860E009C066277727681B790B8BE067
:1019B00092E00E942C0861E087E190E0DF91CF91F6
:1019C0000C94F802CF93DF931F92CDB7DEB7682F48
:1019D000853608F064E6862F69830E94A40C69812D
:1019E00088E190E00F90DF91CF910C94F802CF93B3
:1019F000DF93D82FC62F813049F018F0863020F5BC
:101A000014C0862FDF91CF910C94E20C6093780183
:101A100081E290E00E94F8028091F50282508530C8
:101A200020F48FEF91E00E94C81FD2504C2F6D2FF1
:101A30008AE791E00E946D1A8D2F90E06C2F8396BB
:101A4000DF91CF910C94F802DF91CF910895CF935D
:101A5000DF93D82FC92F662321F08FEF91E00E94EA
:101A6000C81FED2FFC2F6491EF012196662361F0D2
:101A7000E091FF01F09100020190F081E02D8FEFE5
:101A800091E00995FE01EFCFDF91CF9108956F921C
:101A90007F928F929F92AF92BF92CF92DF92EF92FE
:101AA000FF920F931F93CF93DF93CDB7DEB762976B
:101AB0000FB6F894DEBF0FBECDBFF090F5028EEFEB
:101AC0008F0D853008F0A9C140E060E08FEF91E014
:101AD0000E94D61F86E0F8121FC0809175018F3FCB
:101AE00059F41092710110927201109273011092C8
:101AF000740185E0809375018091790160E080FD3B
:101B000003C084ED91E002C083EC91E00E94270DB8
:101B1000809179018695D8C08FEF809375010E94DE
:101B20006B1D809176010E94A40CE0917801E43055
:101B300008F09DC0F0E0EE0FFF1FE55FFD4F05A42C
:101B4000F6A5E02D82818F3409F091C020E030E0CD
:101B500040E251E4658976898789908D0E940E293B
:101B60000E94E22777FF07C000271127061B170BEB
:101B7000BB24B39402C08B01B12CA0E1DA2EBAE0F1
:101B8000EB2EF12C86E0C82E0115110519F498E012
:101B90009D155CF5C801B7010E94B429962EA72EA9
:101BA000C89E8001C99E100D1124055C1D4FADEF2C
:101BB000DA0E40E06D2D8FEF91E00E94D61F43E0DA
:101BC000B8018FEF91E00E949A1F41E06D2D8FEFD9
:101BD00091E00E94D61FB8016D5F7F4F43E08FEF09
:101BE00091E00E949A1F092D1A2DDA9440E06D2D84
:101BF0008FEF91E00E94D61FE091FF01F09100026B
:101C00000190F081E02D60E28FEF91E0099541E0D5
:101C10006D2D8FEF91E00E94D61FE091FF01F091B2
:101C20000002BCE0DB1208C00190F081E02D6EE202
:101C30008FEF91E00995A8CF0115110571F488E0A7
:101C40008D155CF0BB2049F00190F081E02D61E042
:101C50008FEF91E00995B12C07C00190F081E02D44
:101C600060E28FEF91E00995D1108ECFD6C0E09160
:101C70004002F091410222812F3449F4658976892E
:101C80008789908D2A8B0E94E2272A8902C060E012
:101C900070E0809113028E010F5F1F4F81116DC0A4
:101CA0002F3409F46AC041E150E067EB72E0C801EB
:101CB0000E94352AB8018FEF91E00E94562580914D
:101CC00078018F3F19F48F0D882E03C0F3E08F2E1B
:101CD00081E0982EDE0111967D016EE1C62E63E053
:101CE000D62E72E9A72E71E0B72EE1E16E2E772491
:101CF0007394781A891408F490C0B3E0B91508F405
:101D000083C0092D10E0000F111F055F1D4FD80182
:101D10009D96ED91FC919E9782818F3409F074C05D
:101D2000892D0E94B30CD8019D96ED91FC919E9750
:101D3000658976898789908D0E94E2277F936F93CA
:101D4000DF92CF92BF92AF921F926F92FF92EF926B
:101D50000E94642A0FB6F894DEBF0FBECDBF472D98
:101D6000490D60E08FEF91E00E94D61FB7018FEF21
:101D700091E00E9456259394BDCF20915702309157
:101D800058024091280221153105B1F03F932F935D
:101D9000842F992787FD90959F934F937F936F93FF
:101DA00021EB31E03F932F931F9281E18F931F939B
:101DB0000F930E94642A22C0882319F09EE58EE5C5
:101DC00002C09DE58BE51F929F9390910B021F929D
:101DD0009F931F928F93842F992787FD90959F93B0
:101DE0004F937F936F932CE931E03F932F931F9292
:101DF00081E18F931F930F930E94642A0FB6F8948A
:101E0000DEBF0FBECDBF56CF41E150E060E270E0D3
:101E1000C7010E94552A198AA2CF62960FB6F8947C
:101E2000DEBF0FBECDBFDF91CF911F910F91FF900D
:101E3000EF90DF90CF90BF90AF909F908F907F906A
:101E40006F900895CF92DF92EF92FF920F931F93BE
:101E5000CF93DF93CDB7DEB7AB970FB6F894DEBF65
:101E60000FBECDBFD82E4BE260E070E0CE010196F0
:101E70000E94A302D110D2C089819A818E30904FE6
:101E800009F0CCC06B817C818BE092E00E9422083B
:101E90008D81809342026E817F818BE092E00E946F
:101EA0005F0880E1FE013896A3E4B2E001900D9254
:101EB0008A95E1F7888D882331F060E070E08BE04F
:101EC00092E00E942C08898D0E94A40C4A8D5B8DA3
:101ED0006C8D7D8D40938E0150938F0160939001A6
:101EE000709391018E8D833411F463E401C066E434
:101EF0008BE092E00E940E0A8F8D853608F084E612
:101F000080932B0288A1853608F084E6809329020D
:101F10008AA5843608F080E080932C028BA1853658
:101F200008F084E680932A0269A18BE092E00E9487
:101F300057068AA18093780168A58BE092E00E9401
:101F40007F0669A58BE092E00E9484068BA585360A
:101F500008F084E680932F028E010C5D1F4FF12C58
:101F6000F80141918F016F2D8AE791E00E946D1A6F
:101F7000F394F4E0FF12F4CF42E06EE370E0CE01A0
:101F800001960E94A30229813A812E30304F41F000
:101F90006EE070EF8EE390E00E94E602DD24D394C1
:101FA00028E3E22E22E0F22E30E3C32E00E410E01C
:101FB000DD2081F045E250E06BEE71E0CE0101964C
:101FC0000E94352ACF8245E2B801CE0101960E94D7
:101FD000C40206C045E2B801CE0101960E94A302E8
:101FE000BE016F5F7F4FF701819191917F010E9448
:101FF00059040B5D1F4FC394F4E3CF12D9CFAB96B6
:102000000FB6F894DEBF0FBECDBFDF91CF911F9109
:102010000F91FF90EF90DF90CF9008954BE250E04A
:1020200060E172E0CE0101960E94352A4BE260E049
:1020300070E0CE0101960E94C40224CFCF9365E0E8
:1020400088EC92E00E94540464E083EA92E00E94EB
:10205000540463E08EE792E00E94540462E089E554
:1020600092E00E945404C0E8C093140286E4809376
:10207000280242E064E08FEF91E00E9492208DE31D
:102080009CE09093980180939701C09399018FEF02
:1020900080939C018093A5018093AE018093B7014A
:1020A00087EA9BE090938D0180938C01CF910895F6
:1020B0001F93CF93DF93EC01162F8C81811109C000
:1020C00081E08C831D8264E270E088E593E00E94E9
:1020D00008038D8181278D83612F88E593E0DF914F
:1020E000CF911F910C94B623CF93DF93FC016491A1
:1020F000EC012196662331F081E393E00E945810B1
:10210000CE01F4CFDF91CF9108956AE270E088E5C7
:1021100093E00E9408036091360362956F706A3005
:1021200010F4605D01C0695C88E593E00E94B6230D
:10213000609136036F706A3010F4605D01C0695CB5
:1021400088E593E00E94B6236AE070E088E593E0BA
:102150000E940803109235030895CF93DF938DE812
:1021600091E00E947410C8E3D2E00E94370AE9911E
:10217000F9916481772767FD70954AE050E081E32B
:1021800093E00E94022682E0C034D80771F7DF9105
:10219000CF910C9485100E94D90B0C94AD10CF9365
:1021A00088E891E00E947410C0E08C2F0E94B30C6C
:1021B0000E94370A6EE173E081E393E00E945625A6
:1021C000CF5FC43091F7CF910C9485109B01843080
:1021D00050F465E2869F602D1124605C70E04DE054
:1021E000C9010E94C4020C94CF10CF93DF9382E800
:1021F00091E00E9474104AE050E06091760181E322
:1022000093E00E9417260E94370A4AE050E060914E
:10221000780181E393E00E941726CAE7D1E00E948B
:10222000370A4AE050E0688181E393E00E94172674
:10223000239681E0C638D80791F7DF91CF910C94AF
:102240008510CF93DF938CE791E00E947410CBE070
:10225000D2E04AE050E068A181E393E00E941726B3
:102260000E94370A4AE050E06E8D81E393E00E94BD
:1022700017260E94370A4AE050E06BA181E393E001
:102280000E9417260E94370A4AE050E06AA181E3C3
:1022900093E00E9417260E94370A4AE050E06DA1A1
:1022A00081E393E00E9417260E94370A4AE050E03B
:1022B0006F8D81E393E00E9417260E94370A4AE05F
:1022C00050E069A181E393E00E9417260E94370A3B
:1022D0004AE050E06CA181E393E00E941726DF9171
:1022E000CF910C948510853608F084E680932902FE
:1022F000682F8FE190E00E94F8020C9421110F9357
:102300001F93CF93DF9387E791E00E94741008E357
:1023100012E0F801C191D1918F010E94370A6D8DB1
:102320007E8D4AE050E081E393E00E94022689A17D
:10233000882329F06CE481E393E00E9458100E9406
:10234000370A6F8D78A14AE050E081E393E00E9464
:1023500002268AA1882329F068E481E393E00E94A1
:102360005810F2E000341F07A1F6DF91CF911F91C2
:102370000F910C94851060E070E0809179010E94CB
:10238000EE0B0C947F118DE591E00E94741062E4D5
:1023900081E393E00E9458250C9485101F93CF93FE
:1023A000DF93219A42E060E08AE791E00E94D6192B
:1023B0008AE791E00E94181A26E040E056E960E0C2
:1023C00070E088E593E00E941B246AE070E088E5F5
:1023D00093E00E9408030E94C31180E880BF8FE34E
:1023E00080937E00809164008068809364005F9A8F
:1023F000579A0E94691D88EC92E09093390280936D
:10240000380283EA92E090933B0280933A028EE78F
:1024100092E090933D0280933C0289E592E0909394
:102420003F0280933E0280E00E94220F8BE092E008
:102430000E942F06C7E7D2E010E0AE01612F8FEFB8
:1024400091E00E9456201F5F28961830B1F70E9435
:102450009A0B65E08DEE92E0DF91CF911F910C9485
:102460008B1A83EF90E00E9474104AE050E0609174
:10247000420281E393E00E9417260E94370A60918E
:102480001602709117024AE050E081E393E00E9447
:102490001E260C948510CF93DF938EEE90E00E9461
:1024A0007410C3E4D2E00E94370A499159916991AE
:1024B000799128E030E081E393E00E940F2782E0E9
:1024C000C335D80781F7DF91CF910C9485100F9316
:1024D0001F93CF93DF9389EE90E00E947410C8E3BE
:1024E000D2E00EE811E00E94370AE991F99181816A
:1024F000823041F44AE050E0F801608181E393E0EA
:102500000E9417260F5F1F4FF2E0C034DF0759F714
:10251000DF91CF911F910F910C948510AF92BF92D4
:10252000CF92DF92EF92FF920F931F93CF93DF939F
:10253000C82F83EE90E00E9474104AE050E06C2FA8
:1025400081E393E00E9417260E94370AEC2FF0E007
:10255000EE0FFF1FE55FFD4F05A516A5C0E0D0E01B
:10256000F801EC0FFD1FC580D680E780F084AA2417
:10257000A39420E030E0A901C701B6010E947627AC
:1025800087FD02C0A12C04C0F7FAF094F7F8F0948C
:10259000B12C20E030E040E85FE3C701B6010E94C3
:1025A000762787FF15C020E030E0A901C701B601FA
:1025B0000E947627882361F0BA9420E030E040E260
:1025C00051E4C701B6010E940E296B017C01E1CFE5
:1025D00020E030E040E251E4C701B6010E94C52886
:1025E00087FD0CC0B39420E030E040E251E4C70125
:1025F000B6010E947A276B017C01EACFAA2021F064
:10260000F7FAF094F7F8F09427E030E0B701A6016C
:1026100081E393E00E940F2765E681E393E00E9447
:1026200058106B2D772767FD70954AE050E081E3E5
:1026300093E00E9402260E94370A2496C031D105F9
:1026400009F08ECF4AE050E0F801618181E393E028
:102650000E941726DF91CF911F910F91FF90EF906D
:10266000DF90CF90BF90AF900C9485102F923F9247
:102670004F925F926F927F928F929F92AF92BF9292
:10268000CF92DF92EF92FF920F931F93CF93DF933E
:102690001F92CDB7DEB7EFEBF1E001900020E9F734
:1026A0003197EF5BF1401E2F00ECE02E01E0F02EA1
:1026B00085E2782E9FE7692E88E593E00E94462305
:1026C000892B09F490C088E593E00E945F238A304B
:1026D00019F08D3009F076C0112309F403C28091FE
:1026E000BF018F3209F0FEC1D7010D900020E9F73C
:1026F0008D01015C114047E050E065E571E080EC40
:1027000091E00E943E2A892BD9F487EC91E00E9447
:10271000172A0E94C10CF801FF27E154FE4F1081D7
:10272000612F8BE092E00E940E0A133419F01634E8
:1027300009F0D8C1612F8DE190E00E94F802D2C16A
:1027400047E050E06DE471E080EC91E00E943E2AA9
:10275000892B39F487EF9CE00E94B30B0E94F5109F
:10276000C1C147E050E065E471E080EC91E00E9477
:102770003E2A892B39F487E19BE00E94B30B0E942B
:102780003112B0C147E050E06DE371E080EC91E0C0
:102790000E943E2A892B39F489ED9BE00E94B30BFD
:1027A0000E94AD109FC147E050E065E371E080EC0E
:1027B00091E00E943E2A892B09F081C10A3008F07D
:1027C0004BC17DC191E0910FE12FF0E0E154FE4F4C
:1027D0008083903408F086C1E92FF0E0E154FE4F89
:1027E0001082192F69CF82E991E00E94731C88231F
:1027F00031F042E069E08AE791E00E94D6198DEE5F
:1028000092E00E94EC1A8BE092E00E946808882314
:1028100009F4C9C00E94470D809170018F5F8093B9
:1028200070018F7121F482E991E00E94EF1C8DED1F
:1028300090E00E9474108BE092E00E943A0A0E949D
:10284000851008E312E0F12CE12CA12CB12CDD2441
:10285000D394DF0CD801ED91FC91EA0DFB1D41A151
:102860006A2D8A2D8F0D442321F080937901EE2467
:10287000E3946D0D8AE791E00E94D619BFEFAB1A81
:10288000BB0AE2E0AE16B10429F7F394F3940E5FAD
:102890001F4FF8E0FF12D9CF4E2D6EE08AE791E08E
:1028A0000E94D619EE2021F00E947F1166E005C03B
:1028B0008091F502863029F462E08DEE92E00E946C
:1028C0008B1A80917701882321F08BE092E00E949F
:1028D0009B0A8091700183708130B1F488ED90E0A3
:1028E0000E94741010E00E94370A812F0E94F203A8
:1028F0004AE050E0682F81E393E00E9417261F5FB3
:10290000163089F70E94851040E060E08AE791E088
:102910000E94D61941E08091570290915802892B6C
:1029200009F440E06AE08AE791E00E94D61941E0AC
:1029300080910B02811101C040E06BE08AE791E0D9
:102940000E94D61941E080910B02843608F440E0E1
:102950006DE08AE791E00E94D61941E08091100273
:10296000823009F040E06CE08AE791E00E94D619DD
:1029700041E080911002811140E06FE08AE791E030
:102980000E94D61941E080911002813009F040E0A8
:1029900060E18AE791E00E94D61960910B0282E91A
:1029A00091E00E94501C809175018F3F09F43DC059
:1029B0000E94D521E0917501F0E0EB51FE4FE491CA
:1029C0002091710130917201621B730B8AE0E89FC4
:1029D000F0011124E617F70740F50E94D521609316
:1029E00071017093720180937301909374018091CF
:1029F000750190E0019666E070E00E94B429809332
:102A0000750180FD0DC0FC01EB51FE4F84919AE0F1
:102A1000899FB001112486E00E94BA1D80E803C09E
:102A20008091760180680E94A40C8AE791E00F9063
:102A3000DF91CF911F910F91FF90EF90DF90CF909A
:102A4000BF90AF909F908F907F906F905F904F90CE
:102A50003F902F900C94181A89EC91E00E94132A51
:102A60009B01AC018091C701843611F413E005C0CD
:102A70008536ECF08936F9F412E0612F8BE092E0B4
:102A80000E943F08812F90E0BC01660F771F660F00
:102A9000771F695F7F4F880F991F880F991F44E048
:102AA0008D5B9D4F0E94C4020E944B121BC0823658
:102AB000D9F710E0E2CF8037B9F711E0DECF46E07A
:102AC00050E06EE271E080EC91E00E943E2A892B9A
:102AD00059F4093048F08091C60168EC71E08053E8
:102AE0000E94E61090E078CE46E050E067E271E0A8
:102AF00080EC91E00E943E2A892B09F068C00930E1
:102B000008F465C05090C601A0ED5A0EB3E0B515AB
:102B100048F3579C202D11242B5A412CE8EC2E2EE3
:102B2000E1E03E2E052D10E0000F111F085C1D4F47
:102B3000D1018C91882309F446C0B3E0B41580F12B
:102B40008C3231F44394EFEF2E1A3E0A2C5FF0CF13
:102B5000D8018D909C90B4E04B9E500111246501EA
:102B6000E5E0CE0ED11CC80CD91CC10129830E94FE
:102B7000132AF401EA0DFB1D658376838783908712
:102B80002981622F70E044E0C6010E94C402F10175
:102B900029811F018191882359F28C32D1F7C8CF46
:102BA000C1010E94172A682FC52CD12C87FD9AC01D
:102BB000F601EE0FFF1FE55FFD4F05A4F6A5E02D22
:102BC0001181161383C0852D0E948E128BCF47E092
:102BD00050E06FE171E080EC91E00E943E2A892B89
:102BE00039F48EEE9BE00E94B30B0E947F117ACFE6
:102BF00047E050E067E171E080EC91E00E943E2AFE
:102C0000892B39F488E49BE00E94B30B0E942111C8
:102C100069CF47E050E06FE071E080EC91E00E9406
:102C20003E2A892B39F467EC71E08DEE92E00E9428
:102C3000561958CF47E050E067E071E080EC91E032
:102C40000E943E2A892B29F482E19BE00E94B30B6B
:102C500049CF46E050E060E071E080EC91E00E94F6
:102C60003E2A892BF9F40E94C3110E944B120E9444
:102C700021110E94CF1080E00E948E1281E00E94FC
:102C80008E1282E00E948E1283E00E948E120E94B9
:102C9000AD100E9431120E94F5100E947F110E9417
:102CA000671220CF45E050E069EF70E080EC91E0E2
:102CB0000E943E2A892B09F015CF5F98F89488E18D
:102CC0008093600089E080936000FFCF852D0E9493
:102CD000230C123009F077CFF601E257FE4F6082E5
:102CE0006FE718C010E8160FF601EE0FFF1FE55F43
:102CF000FD4F05A4F6A5E02D81818230A1F4F601F7
:102D0000E257FE4F808181130EC0F601E257FE4F5D
:102D10001083612FC60149960E94F8020E94671233
:102D20000E949A0B50CF62E0852D0E94230CEDCFBC
:102D30000F931F93CF93DF93CDB7DEB761970FB695
:102D4000F894DEBF0FBECDBF9091F8029B3018F013
:102D5000660F660F03C0963008F0660FE0912F03F0
:102D6000F0913003843019F4E60FF11D04C088306F
:102D700031F4E61BF109F0933003E0932F038091C7
:102D80002F03909130038417950724F45093300358
:102D900040932F0380912F03909130032817390718
:102DA00024F43093300320932F0341E060E08FEF51
:102DB00091E00E94D61F20912802822F992787FD3B
:102DC00090959F932F93809130038F9380912F0341
:102DD0008F931F930F931F9281E18F938E010F5F4B
:102DE0001F4F1F930F930E94642AB8018FEF91E049
:102DF0000E9456250FB6F894DEBF0FBECDBF619678
:102E00000FB6F894DEBF0FBECDBFDF91CF911F91FB
:102E10000F9108950F931F93CF93C82F803869F4B3
:102E200061E08CE793E00E94270D2091760130E06D
:102E30003093300320932F0310C0803471F48091BD
:102E40002F03909130034091760150E0841795074D
:102E500021F00E94E20C0E94F51006E713E024E640
:102E600030E040E050E06AE08C2F0E94981680919C
:102E70002F0380680E94A40C81E0CF911F910F91D5
:102E800008950F931F93CF93C82F803869F461E0A2
:102E900085E693E00E94270D2091290230E03093CF
:102EA000300320932F030EC0803461F480912F03F0
:102EB000909130034091290250E08417950711F05A
:102EC0000E94731109E513E024E630E040E050E091
:102ED00065E08C2F0E94981681E0CF911F910F9191
:102EE00008950F931F93CF93C82F803871F461E03A
:102EF0008AE293E00E94270D20911602309117027A
:102F00003093300320932F0309C0803439F460914B
:102F10002F037091300381E00E94170B0EE113E044
:102F200028EE33E040E050E06AE08C2F0E949816D3
:102F300081E0CF911F910F9108950F931F93CF932D
:102F4000C82F803869F461E08EE093E00E94270D7D
:102F50002091420230E03093300320932F0309C0C8
:102F6000803439F460912F037091300380E00E9427
:102F7000170B0EEF12E024E630E040E050E061E095
:102F80008C2F0E94981681E0CF911F910F91089588
:102F90000F931F93CF93DF93D82FC091F502CD509D
:102FA0008038F9F48C2F0E94B30C8FEF91E00E94CF
:102FB000C81F6EE173E08FEF91E00E945625EC2F61
:102FC000F0E0EE0FFF1FE55FFD4F05A4F6A5E02D35
:102FD0002481332727FD30953093300320932F032E
:102FE00009C0803439F460912F03709130038C2F25
:102FF0000E94CB1000EF12E024E630E04CE95FEFD6
:1030000061E08D2F0E94981681E0DF91CF911F9192
:103010000F9108950F931F93CF93C82F803871F4A9
:1030200061E08FEC92E00E94270D20911102309117
:1030300012023093300320932F030FC0803469F4C1
:1030400080912F0390913003409111025091120210
:103050008417950711F00E94C10C08EC12E028EECD
:1030600033E040E050E065E08C2F0E94981681E04C
:10307000CF911F910F910895803819F40E94470D48
:1030800006C08F7121F00E94BB1182E0089581E09B
:10309000089580E00E94F2038530E8F468E080E063
:1030A0000E94C9038823B9F09BEE980F973268F00D
:1030B00093EC980F973258F097E8980F973248F0B2
:1030C000815A873240F482E0089581E0089588E0D3
:1030D000089584E0089580E00895803861F4809137
:1030E000F5028530B9F18BE092E00E940008811171
:1030F00031C085E00895909113029923D9F084306E
:1031000039F0883039F0813009F049C06FEF03C0E1
:1031100065E001C06BEF80910B02772767FD70952A
:10312000680F711D8BE092E00E942C080E94470DF1
:1031300080E00895813099F561E070E08091570258
:1031400090915802892B11F060E070E082E00E94BB
:10315000170B23C08091F502823049F4E0913A02C6
:10316000F0913B0282818F34C1F083E00895833077
:1031700049F4E0913C02F0913D0282818F3469F084
:1031800084E00895843049F4E0913E02F0913F02DA
:1031900082818F3411F082E008950E94470D81E012
:1031A00008958FEF91E00E94CF1FE091FF01F09111
:1031B00000020280F381E02D40E150E06DEF72E00B
:1031C0008FEF91E0099541E060E08FEF91E00E9480
:1031D000D61FE091FF01F09100020280F381E02D03
:1031E00040E150E06DE073E08FEF91E0099581E000
:1031F0000895803811F40C94D1188091F602089546
:10320000843011F0883071F481E090E020912F0338
:1032100030913003232B11F080E090E09093300345
:1032200080932F0341E060E08FEF91E00E94D61F72
:1032300080912F0390913003892B19F08DE393E057
:1032400002C089E393E060E00C94270DCF93C82F70
:10325000803869F461E080EE92E00E94270D2091B1
:10326000130230E03093300320932F0319C08034D1
:10327000B9F481E020912F0330913003232B09F41E
:1032800080E090911302891759F0811105C0809157
:1032900011029091120202C080E090E00E94C10CE5
:1032A0008C2F0E94001981E0CF91089520E040E228
:1032B000FB013191BF01311102C030E212C0213255
:1032C000E0F73C3231F0FC01E20FF11D308B2F5F53
:1032D000EFCF203168F7FC01E20FF11D408B2F5F2B
:1032E000F8CFFC01213228F4E20FF11D308B2F5F63
:1032F000F8CF2085283119F068E10C948B1A0C94D2
:10330000D11829E438E14BE853E064EF73E08DEE27
:1033100092E00C94831AFF920F931F93CF93DF9345
:10332000182F803851F461E08BE493E00E94270D60
:103330001092300310922F032FC0803469F5209132
:103340002F0330913003232B39F181E00E94220FAB
:10335000C1E4D3E0FF24F394FE0104910023D1F0F3
:103360008091350381110AC0F09235031092360323
:1033700064E270E088E593E00E94080380913603E0
:10338000802780933603602F88E593E00E94B62360
:103390002196E2CF0E948510812F0E94001981E0C2
:1033A000DF91CF911F910F91FF900895CF92DF92FF
:1033B000EF92FF920F931F93CF93DF931F92CDB79E
:1033C000DEB78C01E62E6C01F12CD6019C91892F81
:1033D0008F778E111CC011964C93119712968C9179
:1033E00012978230A1F0423091F0692F661F662754
:1033F000661F6427681759F012966C93D80152968D
:10340000ED91FC9153978F2D498309954981F39450
:10341000B3E0CB0ED11CE4E0FE12D7CF0F90DF91CA
:10342000CF911F910F91FF90EF90DF90CF90089573
:10343000CF92DF92EF92FF920F931F93CF93DF9380
:10344000EC010E94D521CC84DD84EE84FF8429899F
:10345000222331F08B010C191D09043F1140A0F10A
:103460000E94D5216C877D878E879F8781E0898B1D
:1034700088898F5F888B00E010E0F12C8889DE015D
:10348000A00FB11F80FF0CC011968C911197823054
:10349000A9F412968C93129711961C92119708C05A
:1034A00012968C911297823049F412961C921297C0
:1034B000EA89FB8912966C918F2D0995F3940D5F23
:1034C0001F4F84E0F812DACFDF91CF911F910F9157
:1034D000FF90EF90DF90CF900895DC01862F262F8C
:1034E00030E0F901EE0FFF1FE20FF31FEA0FFB1FA1
:1034F00040839281913031F45296ED91FC91539733
:1035000060E009940895FC017183608353834283D2
:103510003783268308950F931F93CF93DF931F92D2
:10352000CDB7DEB78C01DC0118968C9118971996EF
:103530008C93623008F443C0D80118968C916817B8
:1035400009F43DC0D8011496ED91FC911597309780
:1035500059F03196259134912115310529F080E4F7
:103560006983F90109956981D80118966C931897B8
:103570002D913C91119715963C932E931497D80159
:103580001496ED91FC9115978491882311F0861380
:1035900003C03097A1F007C03496D8011596FC936C
:1035A000EE931497ECCF3196259134912115310586
:1035B00009F4BFCF80E8F9010995682FBACF0E94BE
:1035C000D521F80164877587868797870F90DF91EB
:1035D000CF911F910F910895CF92DF92EF92FF92BA
:1035E0001F93CF93DF93EC01EE81FF810995182F94
:1035F0000E94D5216B017C014C855D856E857F85A0
:10360000C41AD50AE60AF70A11111AC0EC81FD8125
:10361000309709F463C03396E4912E2F30E0A8EE82
:10362000B3E00E94042A611571058105910509F432
:1036300055C06C157D058E059F0508F457C04EC01A
:103640008AEFC816D104E104F10408F457C010321F
:1036500071F08A85181306C08B858F3F29F08F5F24
:103660008B8702C01A871B86112309F447C00E946A
:10367000D5216C877D878E879F87EC81FD81309770
:1036800019F42A813B8110C031962591349121157E
:103690003105B9F3812FF90109958130A1F4F1CFFA
:1036A000981741F02D5F3F4FF90194918885911152
:1036B000F7CF09C0F9013196E491E123E113F2CF8C
:1036C000F90132968491682FCE01DF91CF911F913D
:1036D000FF90EF90DF90CF900C948B1AFAEFCF16FB
:1036E000D104E104F10408F0B4CF08C08AEFC81691
:1036F000D104E104F10410F010E2B9CFDF91CF91D1
:103700001F91FF90EF90DF90CF900895FC01828190
:10371000861719F062831182108208950F931F9308
:10372000CF93DF93EC018B010E94D5216B837C83C7
:103730008D839E83F801818185FD02C080E001C0F8
:1037400082E0F801938197FD81609F779F3709F0B0
:1037500084608F830E946C1F88878F81F80142816B
:1037600082FF1CC04A3A21F151815F70242F30E062
:1037700084E0359527958A95E1F76AE0629FC0015C
:10378000639F900D1124F4E65F9F800D911D11241D
:103790004F70840F911D8059914006C0F80121811E
:1037A0002F70842F90E0922B9983888381E001C051
:1037B00080E0DF91CF911F910F910895CF93DF9318
:1037C000EC01862F9881911104C00E94071F81E0AF
:1037D0008883DF91CF9108958F929F92AF92BF928D
:1037E000EF92FF920F931F93CF93DF938C01EC0125
:1037F00028967C012CE2E20EF11C8A818F3FE9F0D1
:103800000E94D5218B809C80AD80BE80681979098B
:103810008A099B0961327F4B8240910570F0D80183
:103820001596ED91FC911697309719F064E0CE0152
:1038300009956FEFCE010E94861B2996CE15DF05F4
:10384000E1F6DF91CF911F910F91FF90EF90BF9024
:10385000AF909F908F90089520E030E040E0FC0111
:10386000E20FF31F52855F3F39F04F5F275F3F4FF5
:103870004430A9F78FEF0895842F089520E030E0B9
:1038800040E0FC01E20FF31F5285561739F04F5FFD
:10389000275F3F4F4430A9F78FEF0895842F089595
:1038A000CF93DF9300D000D0CDB7DEB7FC0180818D
:1038B000882391F084A58F5F84A7853068F014A6D3
:1038C0008FE9898380EC8A836B838FE78C8364E044
:1038D000CE0101960E94FC1E0F900F900F900F904A
:1038E000DF91CF910895CF92DF92EF92FF920F93E5
:1038F0001F93CF93DF931F92CDB7DEB76C01DC012E
:103900008C91882309F460C010E029E0E22E0E9427
:10391000C41E882309F453C00E94D521F601618397
:10392000728383839483909148038781911140C06F
:103930008F3F11F08F5F878380913E038F70F4E09B
:103940008F9FC0011124F0903F03F294F694F694F7
:1039500093E0F922F82A6F2DC6010E943E1C8F3F8A
:1039600039F4C6010E942C1C8F3F39F123E001C0BD
:1039700022E08601E89E000D111D1124085F1F4FF3
:103980006F2DC80129830E94861B6EE373E0C80176
:103990000E948E1B2981882381F0D6011596ED9116
:1039A000FC911697309749F0622FC801099505C020
:1039B000882319F08150F601878311E0A8CFC60152
:1039C0000E94EC1B812F01C080E00F90DF91CF910E
:1039D0001F910F91FF90EF90DF90CF9008950F937C
:1039E0001F93CF93DF93EC018881882309F461C092
:1039F000ECE3F4E084918F010F5F1F4F882321F0E7
:103A00000E941B0AF801F6CF4AE050E06F8181E383
:103A100093E00E9417262A9610E088818F3FF1F0EC
:103A20008CE20E941B0A4AE050E0688181E393E047
:103A30000E9417268CE20E941B0A4AE050E06D812A
:103A400081E393E00E9417268CE20E941B0A4AE061
:103A500050E06E8181E393E00E9417261F5F299654
:103A60001430D9F66AE270E088E593E00E9408031A
:103A70006091360362956F706A3010F4605D01C02A
:103A8000695C88E593E00E94B623609136036F700D
:103A90006A3010F4605D01C0695C88E593E00E94C3
:103AA000B6236AE070E088E593E00E940803109274
:103AB0003503DF91CF911F910F9108951092340338
:103AC0001092330384E091E09093320380933103AA
:103AD0000895569A0895EFE6F0E080818D7F808307
:103AE0005E9808951F920F920FB60F9211242F9394
:103AF0003F934F935F936F937F938F939F93AF9376
:103B0000BF93EF93FF938091370390913803892BF4
:103B1000F1F0809188009091890086509F4F803409
:103B20002CE9920710F080E090E090938900809358
:103B30008800809137039091380301979093380360
:103B4000809337038BB190E489278BB902C00E9420
:103B50006B1DFF91EF91BF91AF919F918F917F91DD
:103B60006F915F914F913F912F910F900FBE0F90EA
:103B70001F901895CF93DF931F92CDB7DEB769835F
:103B80000E946B1D698188E0689FB00111247093C9
:103B9000380360933703EFE6F0E080818260808332
:103BA0000F90DF91CF9108952CB521602CBD2A98FC
:103BB0009EBD0DB407FEFDCF2EB530E0322F22277B
:103BC0008EBD0DB407FEFDCF9EB52A9A8CB58E7FB3
:103BD0008CBDA901492BCA010895229A2A9A61E055
:103BE0008BE00E94AE2260E08CE00E94AE2261E099
:103BF0008DE00E94AE2280E58CBD8DB581608DBDCB
:103C000062E082E00C94AE22682788E091E367FFCF
:103C100003C0660F692701C0660F8150C1F7862F68
:103C200008951F93CF93DF9380E090E00E94D41D0E
:103C3000192F90933C0380914903843009F05BC0B5
:103C400080E090EB0E94D41DEC0180914A0363E078
:103C50000E94A829911113C0117080913B03E12F9C
:103C6000F0E0E80FF11DE80FF11DE85FFE4F8081E5
:103C700080933B0390E0806A94690E94D41D8091F8
:103C80004A0381111EC09E01332744E035952795D4
:103C90004A95E1F72E5F3F4F3595279520933D03D9
:103CA00080913D03823008F467C080913D038B30E2
:103CB00008F062C0E0913903F0913A03309709F0BF
:103CC0000995E0914A0381E08E0F80934A03F0E06A
:103CD000E25CFC4FC083809148036C2F0E94041E5D
:103CE0008093480390914A0380913D03981348C004
:103CF00089E092E83CC08091490387FF15C0E091BC
:103D00003D038091490391E0980F90934903E80F98
:103D1000F0E0E25CFC4FC081809148036C2F0E9470
:103D2000041E8093480320C08091490391E0980FBE
:103D300090934903823099F02CF4811114C0C09102
:103D4000480312C0853049F0863069F480913D0304
:103D5000819580934903C4ED07C0CDE205C089E099
:103D600092E80E94D41DCAEA8C2F90E09854DF910B
:103D7000CF911F910C94D41D82E080933D039ACF84
:103D8000DF91CF911F91089580914903843031F4E0
:103D900090913D0380914A039817E9F0809149037F
:103DA0008330B9F410924A03109248038FEF809346
:103DB0003D0384E080934903F89483E080933B03C0
:103DC00083EA94E90E94D41D89ED92E80E94D41DF3
:103DD000789480E0089583E08093490381E008951A
:103DE000F8941092480385E08093490389E392E8B0
:103DF0000E94D41D7894089560933D03462F50E0AF
:103E0000BC018EE393E00E944C2A0C94F01ECF93E9
:103E1000C82F0E94ED1D80E090E00E94D41D81E03B
:103E200092E80E94D41D80E098EB0E94D41D82E0AD
:103E30000E941D23892B19F480E090E0F6CF20E149
:103E4000C29FC0011124876C90680E94D41DC230AB
:103E500029F0C33031F483ED97EA05C08CE796EA88
:103E600002C080E496EA0E94D41D83E196EC0E9491
:103E7000D41D82EA94E90E94D41D8CEA92EC0E943F
:103E8000D41D83E89AEC0E94D41D84ED9EEC0E9420
:103E9000D41D87EB94EC0E94D41D80E398E90E9426
:103EA000D41D86E79CEC0E94D41D80E090EE0E9419
:103EB000D41D80E098EC0E94D41D80E090EC0E941C
:103EC000D41D83E08093490340E050E061E17EE14E
:103ED00080E0CF910C94112180913B038695089549
:103EE000DC01ED91FC910480F581E02D41E0099524
:103EF00081E090E008956230E0F421E030E0062EA9
:103F000001C0220F0A94EAF7DC0114965C91149721
:103F1000442321F0252B14962C9304C020952523AF
:103F2000FC012483DC01ED91FC910084F185E02DFE
:103F300009940895EF92FF920F931F93CF93DF930D
:103F40001F92CDB7DEB78C017B01460F4E1581F075
:103F5000F7016491D801ED91FC910190F081E02D81
:103F6000C80149830995BFEFEB1AFB0A4981EECFDF
:103F70000F90DF91CF911F910F91FF90EF900895D7
:103F8000DC01ED91FC910480F581E02D40E0099485
:103F900061E00E94C01F80ED97E00C94E12162E097
:103FA0000E94C01F80ED97E00C94E121CF93DF9336
:103FB00000D000D0CDB7DEB7198220E42A8324E1F7
:103FC0002B8324E52C83FC012085241710F44FEF6C
:103FD000420FFE01E40FF11D2181260F2068622FA0
:103FE0000F900F900F900F90DF91CF910C94C01F06
:103FF000FC016681262F246026836C600C94C01F10
:10400000CF93DF93EC01623018F088E0888701C01D
:1040100018868885411184608D8380E090E40E9439
:10402000E12180E090E40E94E12180E090E40E94A0
:10403000E121E881F9810680F781E02D60E3CE017E
:10404000099584E991E10E94E121E881F9810680E6
:10405000F781E02D60E3CE01099586E990E00E94AA
:10406000E121E881F9810680F781E02D60E3CE014E
:104070000995E881F9810680F781E02D60E2CE01A3
:1040800009956D816062CE010E94C01F84E08E831D
:10409000CE010E94F81FCE010E94C81F82E08F83CC
:1040A00066E0CE01DF91CF910C94C01F0F931F9358
:1040B000CF93DF93EC018A01677088E0689FB001BD
:1040C00011246064CE010E94C01F48E0B801CE01F7
:1040D0000E949A1F60E8CE01DF91CF911F910F914E
:1040E0000C94C01F1F93CF93DF93EC011FB7F8947C
:1040F0006EBD0DB407FEFDCFEA85FB8580819985F5
:10410000892B808381E090E00E94E121EA85FB8594
:10411000908189858095892380831FBFDF91CF910E
:104120001F9108950F931F93CF93DF93EC01162FE8
:10413000042F1B821A8228E131E03983288361E051
:104140008BE00E94AE2261E08DE00E94AE2261E031
:104150008AE00E94AE2261E08AE00E94E72281E5C7
:104160008CBD212F30E0F901E45AFB4FE491E9873F
:10417000F901E059FB4FE491F0E0EE0FFF1FE25729
:10418000FB4F259134913B872A8761E0812F0E9464
:10419000AE2260E0CE010E94722040E0602FCE018E
:1041A000DF91CF911F910F910C940020FC0164814D
:1041B0000C9472201F93CF93DF93EC01162F68604D
:1041C0000E947220612F677FCE01DF91CF911F91F6
:1041D0000C9472200F931F93CF93DF93EC01062F63
:1041E000411144E01C81142B602F607F612BCE01B4
:1041F0000E94DA2080E1089FB0011124612BCE01DA
:104200000E94DA2088E290E0DF91CF911F910F9118
:104210000C94E121607F0E94DA2088E290E00C9407
:10422000E1218230E8F4E82FF0E0EE0FFF1FE55BBC
:10423000FC4F71836083813041F0809169008C7FF5
:10424000842B80936900E89A089580916900440F57
:10425000551F440F551F837F842B80936900E99A73
:1042600008951F920F920FB60F9211242F933F9330
:104270004F935F936F937F938F939F93AF93BF936E
:10428000EF93FF9380914B0390914C03892B29F07E
:10429000E0914B03F0914C030995FF91EF91BF9191
:1042A000AF919F918F917F916F915F914F913F91CE
:1042B0002F910F900FBE0F901F9018951F920F9285
:1042C0000FB60F9211242F933F934F935F936F93E9
:1042D0007F938F939F93AF93BF93EF93FF938091BF
:1042E0004D0390914E03892B29F0E0914D03F091FD
:1042F0004E030995FF91EF91BF91AF919F918F91DF
:104300007F916F915F914F913F912F910F900FBED1
:104310000F901F9018951F920F920FB60F921124B5
:104320002F933F938F939F93AF93BF9380915003AD
:1043300090915103A0915203B091530330914F03D8
:1043400023E0230F2D3720F40196A11DB11D05C0D8
:1043500026E8230F0296A11DB11D20934F038093E1
:10436000500390935103A0935203B0935303809151
:10437000540390915503A0915603B09157030196B1
:10438000A11DB11D8093540390935503A093560330
:10439000B0935703BF91AF919F918F913F912F9110
:1043A0000F900FBE0F901F9018952FB7F894609143
:1043B00050037091510380915203909153032FBF8A
:1043C0000895019739F0880F991F880F991F029758
:1043D0000197F1F70895789484B5826084BD84B51F
:1043E000816084BD85B5826085BD85B5816085BDF0
:1043F000EEE6F0E0808181608083E1E8F0E0108209
:10440000808182608083808181608083E0E8F0E049
:10441000808181608083E1EBF0E080818460808333
:10442000E0EBF0E0808181608083EAE7F0E080816A
:1044300084608083808182608083808181608083CA
:104440008081806880831092C10008951F93CF936C
:10445000DF93182FEB0161E00E94AE22209711F448
:1044600060E004C0CF3FD10539F461E0812FDF91D6
:10447000CF911F910C94E722E12FF0E0E85BFB4F16
:10448000E491E330F9F048F4E130B9F0E230A1F51D
:1044900084B5806284BDC8BD34C0E730E9F0E8303F
:1044A00019F1E43049F580918000806280938000AA
:1044B000D0938B00C0938A0024C084B5806884BDEB
:1044C000C7BD1FC080918000806880938000D0931A
:1044D0008900C093880015C08091B00080688093E7
:1044E000B000C093B3000DC08091B0008062809393
:1044F000B000C093B40005C0C038D1050CF0B5CFF2
:10450000AFCFDF91CF911F910895833081F028F4D0
:10451000813099F08230A1F008958730A9F0883079
:10452000B9F08430D1F4809180008F7D03C08091F8
:1045300080008F7780938000089584B58F7702C0C4
:1045400084B58F7D84BD08958091B0008F7703C0BE
:104550008091B0008F7D8093B0000895CF93DF935A
:1045600090E0FC01E45AFB4F2491FC01E059FB4F21
:104570008491882349F190E0880F991FFC01E85647
:10458000FB4FA591B49182579B4FFC01C591D491EB
:104590009FB7611108C0F8948C91209582238C9369
:1045A000888182230AC0623051F4F8948C91322FB2
:1045B000309583238C938881822B888304C0F89460
:1045C0008C91822B8C939FBFDF91CF9108950F9395
:1045D0001F93CF93DF931F92CDB7DEB7282F30E024
:1045E000F901E85BFB4F8491F901E45AFB4F149108
:1045F000F901E059FB4F04910023C9F0882321F011
:1046000069830E9485226981E02FF0E0EE0FFF1F91
:10461000E257FB4FA591B4919FB7F8948C9161112B
:1046200003C01095812301C0812B8C939FBF0F90F5
:10463000DF91CF911F910F910895CF93DF93282F92
:1046400030E0F901E85BFB4F8491F901E45AFB4F3C
:10465000D491F901E059FB4FC491CC2391F0811121
:104660000E948522EC2FF0E0EE0FFF1FEC57FB4F6E
:10467000A591B4912C912D2381E090E021F480E06C
:1046800002C080E090E0DF91CF910895FC01818D20
:10469000228D90E0805C9F4F821B91098F73992738
:1046A0000895FC01918D828D981731F0828DE80F6D
:1046B000F11D858D90E008958FEF9FEF0895FC0127
:1046C000918D828D981761F0828DDF01A80FB11D49
:1046D0005D968C91928D9F5F9F73928F90E008956D
:1046E0008FEF9FEF0895FC01848DDF01A80FB11DAE
:1046F000A35ABF4F2C91848D90E001968F73992718
:10470000848FA689B7892C93A089B1898C91806404
:104710008C93938D848D981306C00288F389E02DC5
:1047200080818F7D80830895CF93DF93EC01888D06
:104730008823C9F0EA89FB89808185FD05C0A889A5
:10474000B9898C9186FD0FC00FB607FCF5CF80812B
:1047500085FFF2CFA889B9898C9185FFEDCFCE0175
:104760000E947323E7CFDF91CF910895CF92DF921C
:10477000FF920F931F93CF93DF931F92CDB7DEB7B6
:104780006C01DC015B969C915B975C968C915C97CD
:10479000981307C05096ED91FC915197808185FD4B
:1047A00032C0F601038D10E00F5F1F4F0F7311270A
:1047B000F02EF601848DF81211C00FB607FCF9CF68
:1047C000D6015096ED91FC915197808185FFF1CFF4
:1047D000C60169830E9473236981EBCF838DE80F43
:1047E000F11DE35AFF4F6083D6015B960C935B97F4
:1047F0005296ED91FC91539780818062808381E095
:1048000058968C930DC0D6015696ED91FC91579712
:1048100060835096ED91FC915197808180648083F4
:1048200081E090E00F90DF91CF911F910F91FF9069
:10483000DF90CF900895BF92CF92DF92EF92FF92D8
:10484000CF93DF93EC016A017B01B22EE889F989ED
:1048500082E08083411581EE580761057105A1F062
:1048600060E079E08DE390E0A70196010E94DC29E9
:10487000215031094109510956954795379527959A
:10488000211580E1380798F0E889F989108260E8FD
:1048900074E88EE190E0A70196010E94DC29215086
:1048A0003109410951095695479537952795EC856A
:1048B000FD853083EE85FF852083188EEC89FD8988
:1048C000B082EA89FB89808180618083EA89FB89E3
:1048D000808188608083EA89FB8980818068808309
:1048E000EA89FB8980818F7D8083DF91CF91FF9062
:1048F000EF90DF90CF90BF9008951F920F920FB668
:104900000F9211242F938F939F93EF93FF93E09136
:104910006803F09169038081E0916E03F0916F0369
:1049200082FD12C09081809171038F5F8F732091FF
:104930007203821751F0E0917103F0E0E85AFC4FE6
:10494000958F8093710301C08081FF91EF919F91BA
:104950008F912F910F900FBE0F901F9018951F925F
:104960000F920FB60F9211242F933F934F935F93A3
:104970006F937F938F939F93AF93BF93EF93FF9327
:1049800088E593E00E947323FF91EF91BF91AF916F
:104990009F918F917F916F915F914F913F912F9157
:1049A0000F900FBE0F901F90189510925B031092FE
:1049B0005A0388EE93E0A0E0B0E080935C0390930C
:1049C0005D03A0935E03B0935F0386E291E0909352
:1049D00059038093580385EC90E09093650380938E
:1049E000640384EC90E0909367038093660380EC0B
:1049F00090E0909369038093680381EC90E090933A
:104A00006B0380936A0382EC90E090936D03809334
:104A10006C0386EC90E090936F0380936E0310928A
:104A2000710310927203109273031092740308952D
:104A3000CF92DF92EF92FF920F931F93CF93DF936A
:104A40006C017A01EB01E60EF71E00E010E0CE15D6
:104A5000DF0561F06991D601ED91FC910190F08143
:104A6000E02DC6010995080F191FF1CFC801DF918C
:104A7000CF911F910F91FF90EF90DF90CF9008950D
:104A80006115710581F0DB010D900020E9F7AD01A2
:104A900041505109461B570BDC01ED91FC910280FE
:104AA000F381E02D099480E090E008950C94402576
:104AB000DC01ED91FC910190F081E02D09948F9241
:104AC0009F92AF92BF92CF92DF92EF92FF920F939D
:104AD0001F93CF93DF93CDB7DEB7A1970FB6F894AE
:104AE000DEBF0FBECDBF7C01C42EE52FCB01D22E81
:104AF00019A221E02D1510F02AE0D22E8E010F5DB3
:104B00001F4F8D2C912CA12CB12C6C2D7E2FA5012B
:104B100094010E94DC298C2DD29E80191124015011
:104B200011098A3014F4805D01C0895CF80180832A
:104B3000211531054105510521F0C22EE32FCA018F
:104B4000E4CFB801C7010E944025A1960FB6F894A2
:104B5000DEBF0FBECDBFDF91CF911F910F91FF90B0
:104B6000EF90DF90CF90BF90AF909F908F9008957F
:104B7000CF92DF92EF92FF920F931F93CF93DF9329
:104B8000EC016A017B012115310579F4E881F98195
:104B90000190F081E02D642FDF91CF911F910F9153
:104BA000FF90EF90DF90CF9009942A303105E9F41F
:104BB00077FF1AC06DE20E9458258C0144275527C3
:104BC000BA014C195D096E097F092AE0CE010E94E5
:104BD0005F25800F911FDF91CF911F910F91FF9063
:104BE000EF90DF90CF9008952AE0B701A601CE01A3
:104BF000DF91CF911F910F91FF90EF90DF90CF90B9
:104C00000C945F259A01AB01662757FD6095762FBE
:104C10000C94B8252115310541F4DC01ED91FC918E
:104C20000190F081E02D642F09940C945F259A0186
:104C3000462F50E060E070E00C940A269A01AB0128
:104C400060E070E00C940A264F925F926F927F9220
:104C50008F929F92AF92BF92CF92DF92EF92FF928C
:104C60000F931F93CF93DF93EC016A017B01B22E68
:104C70009A01AB01C701B6010E947129882319F07E
:104C800062E371E027C026013701E89477F82FEF3F
:104C90003FEF4FE75FE7C301B2010E947129811125
:104CA0000DC02FEF3FEF4FE75FE7C301B2010E9456
:104CB000762718161CF466E371E00CC02FEF3FEF67
:104CC0004FE75FE4C701B6010E94C5281816ACF48F
:104CD0006AE371E0CE01DF91CF911F910F91FF90B8
:104CE000EF90DF90CF90BF90AF909F908F907F908C
:104CF0006F905F904F900C9440252FEF3FEF4FE760
:104D00005FECC701B6010E94762787FDE1CF20E066
:104D100030E0A901C701B6010E94762787FF0AC0CB
:104D20006DE2CE010E9458258C01F7FAF094F7F855
:104D3000F09402C000E010E0A12C60E070E080E0A0
:104D40009FE3AB1441F020E030E040E251E40E94E8
:104D50007A27A394F6CF9B01AC01C701B6010E944C
:104D600012276B017C010E94E7272B013C010E9466
:104D700013289B01AC01C701B6010E9411276B01EA
:104D80007C012AE0B301A201CE010E945F25080F39
:104D9000191FBB2039F06EE371E0CE010E9440255F
:104DA000080F191F7B2C772041F120E030E040E212
:104DB00051E4C701B6010E940E296B017C010E94DB
:104DC000E2274B01AA2497FCA094BA2C2AE030E0F9
:104DD000B501A401CE010E94B825080F191FC50115
:104DE000B4010E9415289B01AC01C701B6010E94C5
:104DF00011276B017C017A94D6CFC801DF91CF9146
:104E00001F910F91FF90EF90DF90CF90BF90AF90E8
:104E10009F908F907F906F905F904F9008950C942B
:104E200024265058BB27AA270ED075C166D130F072
:104E30006BD120F031F49F3F11F41EF45BC10EF4EE
:104E4000E095E7FB51C1E92F77D180F3BA176207EC
:104E500073078407950718F071F49EF58FC10EF45F
:104E6000E0950B2EBA2FA02D0B01B90190010C017A
:104E7000CA01A0011124FF27591B99F0593F50F492
:104E8000503E68F11A16F040A22F232F342F4427EA
:104E9000585FF3CF469537952795A795F0405395E2
:104EA000C9F77EF41F16BA0B620B730B840BBAF0B2
:104EB0009150A1F0FF0FBB1F661F771F881FC2F71D
:104EC0000EC0BA0F621F731F841F48F48795779531
:104ED0006795B795F7959E3F08F0B3CF9395880FE8
:104EE00008F09927EE0F979587950895D9D008F483
:104EF00081E008950CD00FC107D140F0FED030F012
:104F000021F45F3F19F0F0C0511139C1F3C014D141
:104F100098F39923C9F35523B1F3951B550BBB2780
:104F2000AA2762177307840738F09F5F5F4F220F2D
:104F3000331F441FAA1FA9F333D00E2E3AF0E0E826
:104F400030D091505040E695001CCAF729D0FE2F72
:104F500027D0660F771F881FBB1F26173707480704
:104F6000AB07B0E809F0BB0B802DBF01FF279358BA
:104F70005F4F2AF09E3F510568F0B6C000C15F3F09
:104F8000ECF3983EDCF3869577956795B795F795A2
:104F90009F5FC9F7880F911D9695879597F908959A
:104FA000E1E0660F771F881FBB1F62177307840736
:104FB000BA0720F0621B730B840BBA0BEE1F88F745
:104FC000E095089504D06894B111D9C00895BCD07B
:104FD00088F09F5790F0B92F9927B751A0F0D1F0E2
:104FE000660F771F881F991F1AF0BA95C9F712C06C
:104FF000B13081F0C3D0B1E00895C0C0672F782FE1
:105000008827B85F39F0B93FCCF3869577956795D7
:10501000B395D9F73EF490958095709561957F4F43
:105020008F4F9F4F0895E89409C097FB3EF49095E9
:105030008095709561957F4F8F4F9F4F9923A9F071
:10504000F92F96E9BB279395F69587957795679500
:10505000B795F111F8CFFAF4BB0F11F460FF1BC044
:105060006F5F7F4F8F4F9F4F16C0882311F096E9D7
:1050700011C0772321F09EE8872F762F05C0662385
:1050800071F096E8862F70E060E02AF09A95660F3E
:10509000771F881FDAF7880F9695879597F90895F7
:1050A000990F0008550FAA0BE0E8FEEF1616170639
:1050B000E807F907C0F012161306E407F50798F0A1
:1050C000621B730B840B950B39F40A2661F0232BBA
:1050D000242B252B21F408950A2609F4A140A69536
:1050E0008FEF811D811D089597F99F6780E870E01B
:1050F00060E008959FEF80EC089500240A9416164E
:10510000170618060906089500240A9412161306B5
:10511000140605060895092E0394000C11F4882343
:1051200052F0BB0F40F4BF2B11F460FF04C06F5F5F
:105130007F4F8F4F9F4F089557FD9058440F551F35
:1051400059F05F3F71F04795880F97FB991F61F009
:105150009F3F79F087950895121613061406551F80
:10516000F2CF4695F1DF08C0161617061806991FEC
:10517000F1CF86957105610508940895E894BB27E1
:1051800066277727CB0197F908958ADF08F48FEF18
:1051900008950EF0AAC0AECF6894A6CFD5DFC8F3AD
:1051A0009923D1F3C6F3DF93CF931F930F93FF920D
:1051B000C92FDD2788232AF02197660F771F881FC4
:1051C000DAF720E030E040E85FEB9FE3883920F039
:1051D000803E30F021968F7725DEE8E7F0E003C0CF
:1051E00021DEE5EAF0E08FD08B01BE01EC01FB2E61
:1051F0006F5771097595771F880B990B16DF28E19A
:1052000032E741E35FE316D0AF2D9801AE01FF9086
:105210000F911F91CF91DF9116DE7DCF0BD07BCF09
:105220006CDF28F071DF18F0952309F05DCF62CFB5
:105230001124A5CF81DFA0F3959FD1F3950F50E006
:10524000551F629FF001729FBB27F00DB11D639F38
:10525000AA27F00DB11DAA1F649F6627B00DA11DDE
:10526000661F829F2227B00DA11D621F739FB00D84
:10527000A11D621F839FA00D611D221F749F3327F4
:10528000A00D611D231F849F600D211D822F762F8D
:105290006A2F11249F5750408AF0E1F088234AF08A
:1052A000EE0FFF1FBB1F661F771F881F91505040D6
:1052B000A9F79E3F510570F017CF61CF5F3FECF328
:1052C000983EDCF3869577956795B795F795E795C2
:1052D0009F5FC1F7FE2B880F911D9695879597F9D3
:1052E0000895DEDE880B990B08959F3F31F09150B1
:1052F00020F4879577956795B795880F911D9695BA
:10530000879597F90895DF93CF931F930F93FF929B
:10531000EF92DF927B018C01689405C0DA2EEF01D9
:1053200089DFFE01E894A59125913591459155912C
:10533000AEF3EF0188DDFE019701A801DA9479F759
:10534000DF90EF90FF900F911F91CF91DF91089523
:10535000991B79E004C0991F961708F0961B881FC7
:105360007A95C9F780950895AA1BBB1B51E107C028
:10537000AA1FBB1FA617B70710F0A61BB70B881FE5
:10538000991F5A95A9F780959095BC01CD01089574
:1053900097FB072E16F4009407D077FD09D00E94E2
:1053A000B42907FC05D03EF4909581959F4F089550
:1053B000709561957F4F0895A1E21A2EAA1BBB1B21
:1053C000FD010DC0AA1FBB1FEE1FFF1FA217B307D1
:1053D000E407F50720F0A21BB30BE40BF50B661FE7
:1053E000771F881F991F1A9469F7609570958095AB
:1053F00090959B01AC01BD01CF010895EE0FFF1FF9
:105400000590F491E02D0994A29FB001B39FC001D3
:10541000A39F700D811D1124911DB29F700D811DE0
:105420001124911D0895662777270C947C2CFC018C
:1054300088279927E89421912032E9F3293010F048
:105440002E30C8F32B3241F02D3239F4689404C069
:105450000E945C2A820F911D219120532A30C0F3B3
:105460001EF4909581959F4F0895FB01DC0102C0C9
:1054700005900D9241505040D8F70895FB01DC0192
:105480004150504030F08D910590801919F4002062
:10549000B9F7881B990B0895FB01DC0102C001904C
:1054A0000D9241505040D8F70895DC0101C06D9332
:1054B00041505040E0F708957AE0979F902D879FE4
:1054C000802D910D11240895AEE0B0E0EAE6FAE2F5
:1054D0000C94C12E0D891E898F89988D2EE02C8306
:1054E0001A83098397FF02C080E090E801979E83AA
:1054F0008D83AE01455E5F4F698D7A8DCE01019639
:105500000E94942A4D815E8157FD0AC02F81388503
:10551000421753070CF49A01F801E20FF31F1082AF
:105520002E96E4E00C94DD2EACE0B0E0EAE9FAE27D
:105530000C94B32E7C016B018A01FC011782168248
:10554000838181FFBDC1CE0101964C01F70193819A
:10555000F60193FD859193FF81916F01882309F4F2
:10556000ABC1853239F493FD859193FF81916F0131
:10557000853229F4B70190E00E94152EE7CF512C17
:10558000312C20E02032A0F48B3269F030F48032EC
:1055900059F0833269F420612CC08D3239F08033A8
:1055A00039F4216026C02260246023C0286021C015
:1055B00027FD27C030ED380F3A3078F426FF06C0BB
:1055C000FAE05F9E300D1124532E13C08AE0389EFE
:1055D000300D1124332E20620CC08E3221F426FDB2
:1055E0006BC1206406C08C3611F4206802C0883676
:1055F00041F4F60193FD859193FF81916F01811133
:10560000C1CF982F9F7D9554933028F40C5F1F4F86
:10561000FFE3F9830DC0833631F0833771F08335B2
:1056200009F05BC022C0F801808189830E5F1F4FA3
:1056300044244394512C540115C03801F2E06F0EFC
:10564000711CF801A080B18026FF03C0652D70E0B9
:1056500002C06FEF7FEFC5012C870E940A2E2C013C
:1056600083012C852F77222E17C03801F2E06F0EB0
:10567000711CF801A080B18026FF03C0652D70E089
:1056800002C06FEF7FEFC5012C870E94FF2D2C0118
:105690002C852068222E830123FC1BC0832D90E0E3
:1056A00048165906B0F4B70180E290E00E94152E2A
:1056B0003A94F4CFF50127FC859127FE81915F0193
:1056C000B70190E00E94152E31103A94F1E04F1A84
:1056D00051084114510471F7E5C0843611F0893640
:1056E00039F5F80127FF07C06081718182819381BC
:1056F0000C5F1F4F08C060817181882777FD8095FE
:10570000982F0E5F1F4F2F76B22E97FF09C09095EE
:105710008095709561957F4F8F4F9F4F2068B22E77
:105720002AE030E0A4010E94472EA82EA81844C009
:10573000853729F42F7EB22E2AE030E025C0F22FE3
:10574000F97FBF2E8F36C1F018F4883579F0B4C0D8
:10575000803719F0883721F0AFC02F2F2061B22E8B
:10576000B4FE0DC08B2D8460B82E09C024FF0AC082
:105770009F2F9660B92E06C028E030E005C020E1DA
:1057800030E002C020E132E0F801B7FE07C06081DE
:105790007181828193810C5F1F4F06C0608171818E
:1057A00080E090E00E5F1F4FA4010E94472EA82EBC
:1057B000A818FB2DFF77BF2EB6FE0BC02B2D2E7F1A
:1057C000A51450F4B4FE0AC0B2FC08C02B2D2E7EE6
:1057D00005C07A2C2B2D03C07A2C01C0752C24FF18
:1057E0000DC0FE01EA0DF11D8081803311F4297E88
:1057F00009C022FF06C07394739404C0822F867878
:1058000009F0739423FD13C020FF06C05A2C7314B3
:1058100018F4530C5718732C731468F4B70180E212
:1058200090E02C870E94152E73942C85F5CF73146D
:1058300010F4371801C0312C24FF12C0B70180E3E7
:1058400090E02C870E94152E2C8522FF17C021FF87
:1058500003C088E590E002C088E790E0B7010CC083
:10586000822F867859F021FD02C080E201C08BE2D0
:1058700027FD8DE2B70190E00E94152EA51438F4A3
:10588000B70180E390E00E94152E5A94F7CFAA94B6
:10589000F401EA0DF11D8081B70190E00E94152E00
:1058A000A110F5CF332009F451CEB70180E290E08A
:1058B0000E94152E3A94F6CFF7018681978102C097
:1058C0008FEF9FEF2C96E2E10C94CF2EF999FECF4B
:1058D00092BD81BDF89A992780B50895262FF99930
:1058E000FECF1FBA92BD81BD20BD0FB6F894FA9AC3
:1058F000F99A0FBE01960895A0E0B0E0E2E8FCE25C
:105900000C94B92E8B016115710521F0DB018C938C
:1059100011969C93EC015E01BFEFAB1ABB0A7501B7
:10592000C8808C2D90E00E94DF2D892B11F0E501BD
:10593000F2CFEDE2CE1208C07E01F2E0EF0EF11CD4
:10594000C980DD24D39409C02BE2C21205C07E01B8
:1059500042E0E40EF11CC980D12CE701219743E01D
:1059600050E06AEA74E0CE010E94E72D892BC1F471
:10597000239645E050E065EA74E0CE010E94E72DF1
:10598000892B09F425960115110519F0D801CD933D
:10599000DC93D11006C160E070E080E89FE70AC1A7
:1059A00043E050E062EA74E0CE010E94E72D892BCB
:1059B00059F40115110509F4F9C0B2E0EB0EF11C20
:1059C000F801F182E082F2C0F70160E070E0CB0103
:1059D000C0E0D0E07F01A0EDAA2EAC0C29E02A1592
:1059E00030F14D2D4260B42E2D2D2870D2FE04C012
:1059F000211125C0219623C021112197A5E0B0E0F7
:105A00009B01AC010E94A82E660F771F881F991F6B
:105A10006A0D711D811D911D6839A9E97A078A07F0
:105A2000A9E19A0760F0BD2DB660BB2E08C02EEF2D
:105A3000A2120AC0D3FC50C04D2D4860B42E31963E
:105A4000D701CC90DB2CC6CF2C2D2F7D253409F02F
:105A500043C0A081AD3241F4BD2DB061DB2E7F018A
:105A600022E0E20EF11C0CC07F01AB3231F04FEFAF
:105A7000E41AF40A21E030E006C0A2E0EA0EF11CCC
:105A8000A18122E030E0A053AA3018F0E21AF30A14
:105A900023C0F70120E030E02038BCE03B075CF495
:105AA000A901440F551F440F551F240F351F220F06
:105AB000331F2A0F311DAF014F5F5F4F7A01A08165
:105AC000A053AA3010F4FA01E7CFD4FE03C03195F9
:105AD00021953109C20FD31FD1FE09C0011511054F
