:100000000C9473020C945F210C9486210C94A10231
:100010000C94A1020C94A1020C94A1020C94A102D4
:100020000C94A1020C94A1020C946C0A0C94DC2098
:100030000C9453060C94A1020C94A1020C94A102FE
:100040000C94AD210C94A1020C94A0240C94D22405
:100050000C94A1020C945E060C94A1020C94A102D3
:100060000C94A1020C94A102D60EDE0EE60EEE0E4A
:10007000F60EFE0E060F0E0F08000000BE92244979
:10008000123EABAAAA2ABECDCCCC4C3E00000080CA
:10009000BEABAAAAAA3E00000000BF000000803F3D
:1000A0000000000000084178D3BB4387D1133D19FD
:1000B0000E3CC3BD4282AD2B3E68EC8276BED98F2A
:1000C000E1A93E4C80EFFFBE01C4FF7F3F0000006E
:1000D0000000484D50532C00484D415200484D53AC
:1000E000552C00484D50432C00484D524D00484D72
:1000F000504400484D4C442C007265626F6F740090
:10010000636F6E666967007365743F74703D00735A
:1001100065743F74743D007365743F666E3D007393
:1001200065743F616C3D007365743F706300736577
:10013000743F706E007365743F706964007365741A
:100140003F706F3D007365743F6C643D0073657470
:100150003F6C623D007365743F73703D00554349C9
:10016000442C4865617465724D657465722C32303B
:1001700031363039313000484D414C00484D464E03
:100180002C00484D4C422C00484D504E00484D50DC
:100190004F00252D313273253364DF005069743AE6
:1001A000253364DF256320256325337525252563E5
:1001B000005069743A253364DF2563204C69642557
:1001C0003375002A2A20414C41524D204849474866
:1001D000202A2A002A2A20414C41524D204C4F57B8
:1001E00020202A2A000A050A050A3250726F626529
:1001F00020200000000000000100D8FF38FF0000B0
:10020000A99F8139F06375396A08153400401C468E
:100210000EF0E10006F00000000000000080400A3F
:10022000D7A33C0000A04000327F7F7F7F46006460
:1002300010FF640D0A0B0064C8006400010203048F
:100240000501022020052006060203070706060214
:10025000070705030402202005FF0606070705001F
:10026000060603070501010220002000060203071D
:1002700005000602202005070F1F1F1F1F1F1F1F3D
:100280001F1F00000000001C1E1F1F1F1F1F1F1F1D
:100290001F1F1F1F1F0F0700000000001F1F1F1F31
:1002A0001F1F1F1F1F1E1C1F1F1F0000001F1F1FBF
:1002B000000000001F1F1F2D204E6F20506974206A
:1002C00050726F6265202D00253364DF2563005373
:1002D00065742074656D70657261747572653A003D
:1002E0004D616E75616C2066616E206D6F64650096
:1002F0004F666673657420253464DF2563002533FB
:100300006425252062656C6F7720736574004C69E5
:1003100064206F70656E206F6666736574002533A8
:1003200064207365636F6E6473004C6964206F7042
:10033000656E2074696D6572004E6F20005965739B
:1003400000484D52432C5553455200526573657415
:1003500020636F6E6669673F007370656564202572
:1003600033642525004D6178696D756D2061757464
:100370006F2066616E002533642525004C434420C0
:100380006272696768746E65737300022803020203
:1003900009020404032804030209030402042802D6
:1003A00004020904040305280205020905040409DE
:1003B000210209021313210213021515210215024D
:1003C0001616210216020D0D21020D020E0E21023B
:1003D0000E020F0F21020F02101021021002111144
:1003E000210211021212210212021414210214021B
:1003F0000900000002E81B0503E81B0504E81B05D3
:1004000005E81B0106DB1B0009A91B0A13A11C0A36
:100410000D671B0A0E671B0A0F671B0A10671B0A72
:10042000113C1B0A12101B0A14061D0A16E01A0AB8
:1004300015A91A0A18741C1400000000484D5246F1
:100440002C3235352C302C00000000080002010051
:10045000000304070000000000000000010204087F
:10046000102040800102040810200102040810201E
:10047000040404040404040402020202020203034A
:1004800003030303000000002300260029000000EE
:100490000000250028002B00000000002400270099
:1004A0002A004E414E494E495459494E46CDCCCC76
:1004B0003D0AD7233C17B7D13877CC2B329595E638
:1004C000241FB14F0A000020410000C84200401C18
:1004D0004620BCBE4CCA1B0E5AAEC59D74009E136E
:1004E000FC1CC820F82411241FBECFEFD8E0DEBFCB
:1004F000CDBF14BEE0E6F0E088E18083108211E019
:10050000A0E0B1E0EAE0FEE502C005900D92A8345B
:10051000B107D9F723E0A8E4B1E001C01D92AC3FD8
:10052000B207E1F714E0C6EED4E004C02297FE0162
:100530000E94192ACE3DD107C9F70E94A3020C944C
:10054000032F0C9400000E940E220E944E150E9460
:10055000B616FDCF2CB521602CBD2A989EBD0DB4DA
:1005600007FEFDCF2EB530E0322F22278EBD0DB411
:1005700007FEFDCF9EB52A9A8CB58E7F8CBDA90152
:10058000492BCA010895229A2A9A61E08BE00E94C1
:10059000D12260E08CE00E94D12261E08DE00E94D7
:1005A000D12280E58CBD8DB581608DBD60E082E09B
:1005B0000C94D122682788E091E367FF03C0660F9F
:1005C000692701C0660F8150C1F7862F08951F93D8
:1005D000CF93DF9380E090E00E94AA02192F9093BE
:1005E0004B0180915801843009F05BC080E090EBB2
:1005F0000E94AA02EC018091590163E00E94C12986
:10060000911113C0117080914A01E12FF0E0E80FC1
:10061000F11DE80FF11DEC5FFE4F808180934A01D0
:1006200090E0806A94690E94AA0280915901811128
:100630001EC09E01332744E0359527954A95E1F782
:100640002E5F3F4F3595279520934C0180914C01AB
:10065000823008F467C080914C018B3008F062C092
:10066000E0914801F0914901309709F00995E09136
:10067000590181E08E0F80935901F0E0E35BFE4F5A
:10068000C083809157016C2F0E94DA02809357013A
:100690009091590180914C01981348C089E092E8EB
:1006A0003CC08091580187FF15C0E0914C018091BA
:1006B000580191E0980F90935801E80FF0E0E35B48
:1006C000FE4FC081809157016C2F0E94DA02809307
:1006D000570120C08091580191E0980F90935801E4
:1006E000823099F02CF4811114C0C091570112C0CE
:1006F000853049F0863069F480914C018195809372
:100700005801C4ED07C0CDE205C089E092E80E941F
:10071000AA02CAEA8C2F90E09854DF91CF911F91E2
:100720000C94AA0282E080934C019ACFDF91CF9182
:100730001F91089580915801843031F490914C01BB
:10074000809159019817E9F0809158018330B9F4EC
:1007500010925901109257018FEF80934C0184E061
:1007600080935801F89483E080934A0183EA94E9E6
:100770000E94AA0289ED92E80E94AA02789480E081
:10078000089583E08093580181E00895F8941092D1
:10079000570185E08093580189E392E80E94AA02FC
:1007A0007894089560934C01462F50E0BC018DE48D
:1007B00091E00E94652A0C94C603CF93C82F0E9433
:1007C000C30280E090E00E94AA0281E092E80E94C9
:1007D000AA0280E098EB0E94AA0282E00E944023D5
:1007E000892B19F480E090E0F6CF20E1C29FC00190
:1007F0001124876C90680E94AA02C23029F0C3308D
:1008000031F483ED97EA05C08CE796EA02C080E4F4
:1008100096EA0E94AA0283E196EC0E94AA0282EA6A
:1008200094E90E94AA028CEA92EC0E94AA0283E850
:100830009AEC0E94AA0284ED9EEC0E94AA0287EB29
:1008400094EC0E94AA0280E398E90E94AA0286E73B
:100850009CEC0E94AA0280E090EE0E94AA0280E036
:1008600098EC0E94AA0280E090EC0E94AA0283E029
:100870008093580140E050E067EE72E080E0CF9155
:100880000C943F2180914A0186950895DC01ED91F9
:10089000FC910480F581E02D41E0099581E090E034
:1008A00008956230E0F421E030E0062E01C0220F0E
:1008B0000A94EAF7DC0114965C911497442321F022
:1008C000252B14962C9304C020952523FC0124830A
:1008D000DC01ED91FC910084F185E02D09940895EF
:1008E000EF92FF920F931F93CF93DF931F92CDB799
:1008F000DEB78C017B01460F4E1581F0F701649144
:10090000D801ED91FC910190F081E02DC80149835F
:100910000995BFEFEB1AFB0A4981EECF0F90DF91EB
:10092000CF911F910F91FF90EF900895DC01ED9111
:10093000FC910480F581E02D40E0099461E00E9483
:10094000960480ED97E00C94032262E00E949604E6
:1009500080ED97E00C940322CF93DF9300D000D07A
:10096000CDB7DEB7198220E42A8324E12B8324E566
:100970002C83FC012085241710F44FEF420FFE0159
:10098000E40FF11D2181260F2068622F0F900F9038
:100990000F900F90DF91CF910C949604FC0166812B
:1009A000262F246026836C600C949604CF93DF93EB
:1009B000EC01623018F088E0888701C018868885CD
:1009C000411184608D8380E090E40E94032280E0E6
:1009D00090E40E94032280E090E40E940322E881D8
:1009E000F9810680F781E02D60E3CE01099584E965
:1009F00091E10E940322E881F9810680F781E02DD0
:100A000060E3CE01099586E990E00E940322E88127
:100A1000F9810680F781E02D60E3CE010995E88138
:100A2000F9810680F781E02D60E2CE0109956D81A4
:100A30006062CE010E94960484E08E83CE010E9403
:100A4000CE04CE010E949E0482E08F8366E0CE0138
:100A5000DF91CF910C9496040F931F93CF93DF9364
:100A6000EC018A01677088E0689FB001112460641E
:100A7000CE010E94960448E0B801CE010E947004A5
:100A800060E8CE01DF91CF911F910F910C949604F5
:100A90001F93CF93DF93EC011FB7F8946EBD0DB495
:100AA00007FEFDCFEA85FB8580819985892B8083B0
:100AB00081E090E00E940322EA85FB859081898590
:100AC0008095892380831FBFDF91CF911F91089567
:100AD0000F931F93CF93DF93EC01162F042F1B82EC
:100AE0001A8224E131E03983288361E08BE00E949F
:100AF000D12261E08DE00E94D12261E08AE00E9473
:100B0000D12261E08AE00E940A2381E58CBD212F79
:100B100030E0F901E45AFB4FE491E987F901E0592B
:100B2000FB4FE491F0E0EE0FFF1FE257FB4F2591E2
:100B300034913B872A8761E0812F0E94D12260E0B7
:100B4000CE010E94480540E0602FCE01DF91CF9199
:100B50001F910F910C94D604FC0164810C944805FC
:100B60001F93CF93DF93EC01162F68600E94480516
:100B7000612F677FCE01DF91CF911F910C944805C3
:100B80000F931F93CF93DF93EC01062F411144E0A5
:100B90001C81142B602F607F612BCE010E94B00559
:100BA00080E1089FB0011124612BCE010E94B005A5
:100BB00088E290E0DF91CF911F910F910C94032276
:100BC000607F0E94B00588E290E00C940322EF92CF
:100BD000FF920F931F93CF93DF931F92CDB7DEB792
:100BE0007C01415068F08B010F5F1F4FCB0149839F
:100BF0000E947F2CF70181937F01B8014981F1CFD9
:100C00000F90DF91CF911F910F91FF90EF9008957A
:100C1000EF92FF920F931F93CF93DF931F92CDB765
:100C2000DEB77C01CB01460F481761F0F7016191F7
:100C30007F018C010F5F1F4F49830E94872CC801E1
:100C40004981F2CF0F90DF91CF911F910F91FF90CB
:100C5000EF900895CF93DF9300D0CDB7DEB77A83BE
:100C6000698342E0BC01CE0101960E9408060F9004
:100C70000F90DF91CF910895CF93DF931F92CDB75F
:100C8000DEB7698341E0BC01CE0101960E940806EF
:100C90000F90DF91CF910895DC01ED91FC910190CF
:100CA000F081E02D09941F920F920FB60F9211243C
:100CB00028980F900FBE0F901F9018951F920F92BB
:100CC0000FB60F9211242F933F935F936F937F93EF
:100CD0008F939F93AF93BF93EF93FF9380916001A6
:100CE000882309F453C0815080936001823001F55C
:100CF0002091630130E0F901EE0FFF1FEE0FFF1F9F
:100D0000E65AFE4F80915C0190915D01A0915E01D9
:100D1000B0915F0183879487A587B687F901E65A6A
:100D2000FE4F8091610190916201891B83A38BC06A
:100D3000813099F410925C0110925D0110925E0175
:100D400010925F01109261018FEF80936201809198
:100D50007C008F708093630176C0811174C0809194
:100D6000630181110EC084E080935B018091640176
:100D700090E0019666E070E00E94E12980936401B2
:100D800062C080915A0180935B015DC080915B01DC
:100D9000882371F1815080935B012091780030911C
:100DA000790080915C0190915D01A0915E01B0910C
:100DB0005F01820F931FA11DB11D80935C01909371
:100DC0005D01A0935E01B0935F01C901969587957F
:100DD00096958795282F30916101381710F48093EC
:100DE000610130916201231770F5809362012BC07D
:100DF00080917C008F70873048F0809178009091CE
:100E0000790090938A018093890105C0811103C004
:100E10008091640101C080E0E82FF0E0E65AFE4FC7
:100E200091A5992311F090EC01C090E420917C00F1
:100E3000207C291711F020E301C023E020936001FA
:100E4000892B80937C00FF91EF91BF91AF919F918F
:100E50008F917F916F915F913F912F910F900FBE76
:100E60000F901F901895CF93DF93C62FF89464E0EE
:100E7000869FF0011124E65AFE4F4385548565850F
:100E800076857894D0E081110DC02CE030E02C1BE9
:100E90003D0B04C076956795579547952A95D2F7EF
:100EA000CA011BC0CB01BA01E4E0660F771F881F9F
:100EB000991FEA95D1F720915A0130E040E050E0C7
:100EC0000E94F5298EE090E08C1B9D0BB90102C0B9
:100ED000769567958A95E2F7CB01DF91CF910895DA
:100EE000E82FF0E0E65AFE4F83A10895FC018081CF
:100EF00091811816190664F4861797071CF481E08F
:100F0000868306C0681779071CF4868181111DC08D
:100F100082819381181619067CF49C0121503109B5
:100F2000621773071CF481E0878306C0681779078E
:100F30001CF0878181110CC0809172029091730224
:100F4000892B49F015821482089581E08483E0CFD3
:100F500081E08583F1CF0895FC0117821582611528
:100F6000710511F0738362830895FC011682148267
:100F70006115710511F0718360830895E62FF0E02B
:100F8000DC01AE0FBF1F16961C92169714961C928A
:100F90004115510531F0EE0FFF1FE80FF91F518386
:100FA00040830895FC01608325E5228308950F9313
:100FB0001F93CF93DF93EB012D85FC0121832E85B9
:100FC0002483DC011596FB01759620E101900D92BA
:100FD0002A95E1F78C01035E1F4F6F857889C80160
:100FE0000E94B50769897A89C801DF91CF911F9165
:100FF0000F910C94AC07CF92DF92EF92FF92CF93B8
:10100000DF93EC018A818F34D1F58B8181110BC084
:101010004D895E896F89788D498F5A8F6B8F7C8F50
:1010200081E08B831CC0C98CDA8CEB8CFC8CA70113
:1010300096016D897E898F89988D0E942A272AE8DA
:101040003BE446E05DE30E9427299B01AC01C70118
:10105000B6010E942B27698F7A8F8B8F9C8F6D89A9
:101060007E898F89988D0E94FB27CE014D96DF9156
:10107000CF91FF90EF90DF90CF900C9476071BA25A
:1010800019A21CA21AA2DF91CF91FF90EF90DF90DE
:10109000CF900895CF92DF92EF92FF92CF93DF939C
:1010A000EC016A017B0120E030E040EA51ECC7012D
:1010B000B6010E948F27181614F08CE43CC020E083
:1010C00030E04AEF53E4C701B6010E94DE2887FDF5
:1010D00002C088E430C080914302863499F426E649
:1010E00036E646EE5FE3C701B6010E94272920E0FD
:1010F00030E040E052E40E942B276D8B7E8B8F8B7B
:10110000988F04C0CD8ADE8AEF8AF88E6C817727AB
:1011100067FD7095872F972F0E942E289B01AC01A9
:101120006D897E898F89988D0E942B276D8B7E8B90
:101130008F8B988F8FE48A83DF91CF91FF90EF9010
:10114000DF90CF9008958F929F92AF92BF92CF92EF
:10115000DF92EF92FF920F931F93CF93DF93EC01F7
:101160008B01F090430280E090E021E4F21203C092
:101170000E942C2886C00E942C284B015C0120E094
:1011800030E84FE756E40E94DE2818161CF00115DF
:10119000110511F485E57AC08981833009F051C0C9
:1011A000C988DA88EB88FC8820E030E048EC52E41B
:1011B000C701B6010E948F2787FF0AC0A7019601C9
:1011C00060E070E48EE495E40E9493276B017C015B
:1011D000E881F0E0E65AFE4F81A58823F9F081E02E
:1011E00000381E4308F080E081A76091890170916A
:1011F0008A0180E090E00E942C289B01AC0160E015
:1012000070EC8FE794E40E9493279B01AC01C70127
:10121000B6010E9493276B017C0106C081E0003C6F
:10122000124108F080E081A720E030EC4FE756E45F
:10123000C501B4010E949327A70196010E942729A6
:101240005FC0A501940160E070EC8FE796E40E9416
:10125000932720E030E040E85FE30E942A279B01CB
:10126000AC0169897A898B899C890E94932722E540
:10127000F2121AC020915B0230915C02C217D307B0
:1012800099F06D8B7E8B8F8B988F8FE48A83DF91A3
:10129000CF911F910F91FF90EF90DF90CF90BF9073
:1012A000AF909F908F9008950E94E7286B017C017A
:1012B0002D853E854F8558890E942729A7019601D3
:1012C0000E94272929853A854B855C850E942B271A
:1012D000A70196010E9427292D813E814F815885C3
:1012E0000E942B279B01AC0160E070E080E89FE347
:1012F0000E94932723E333E948E853E40E942A2716
:10130000AB01BC01CE01DF91CF911F910F91FF90F6
:10131000EF90DF90CF90BF90AF909F908F900C9404
:101320004A08FC0185A596A596AB85AB20E030E088
:10133000DF01A20FB31F9D960D90BC91A02D1196B9
:101340008C911197882319F0B6ABA5AB08952E5F49
:101350003F4F2830310561F70895209A20E43CE999
:101360003093870020938600109280002AE120931A
:10137000810024E220936F002EE420937C0020E47F
:1013800020937B002FEE20937A000C949109FC01AE
:10139000E60FF11DE60FF11D05A4F6A5E02D418332
:1013A00025E5228313820C949109CF93DF931F923A
:1013B000CDB7DEB76983FC0165A3898185FD05C0D2
:1013C000898186FF04C080EA03C080EC01C08FEFF2
:1013D000F89480935A0183E080936001789480931D
:1013E000B000898184FF02C081E001C085E0809364
:1013F000B1000F90DF91CF910895FC0163A32AE023
:1014000024A70895FC0162A32AE024A7089520E000
:1014100030E040E0FC01E20FF31F05A4F6A5E02D4B
:101420005181561301C04F5F2E5F3F4F2830310569
:1014300089F7842F90E00895CF93DF93EC0188A57E
:10144000882319F09DA194FD08C08FA36FA170E0BF
:1014500083E0DF91CF910C94492268E081E00E9403
:1014600033074FA150E028A530E0281B310937FF92
:1014700002C02F5F3F4F35952795240F351F121659
:10148000130644F42F3F310519F014F02FEF30E02C
:101490002FA3DCCF21E0FCCFFC0143A54436C8F4E8
:1014A00081A592A59C01225E3F4F261B370B2D3351
:1014B000310518F06115710519F44F5F43A70895C0
:1014C0006817790718F4CB014E960895CB014E9713
:1014D000089580E090E008951F920F920FB60F924A
:1014E00011242F933F934F935F936F937F938F9329
:1014F0009F93AF93BF93EF93FF9360918A00709196
:101500008B0086E292E00E944C0A009759F0289ADC
:101510002091840030918500280F391F30938B0073
:1015200020938A00FF91EF91BF91AF919F918F918E
:101530007F916F915F914F913F912F910F900FBECF
:101540000F901F901895BF92CF92DF92EF92FF926B
:101550000F931F93CF93DF93EC01B8808C01085B4E
:101560001F4FF801C080D180E280F3806B2D70E0C6
:1015700080E090E00E942C28A70196010E942A2773
:1015800021E837EF47E05CE30E9427299B01AC018B
:10159000C701B6010E942B27F80160837183828303
:1015A000938349A1B41610F41EA215C08D81811138
:1015B00002C05F8D01C05E8D2B2D30E0241B3109F0
:1015C000529FC001539F900D112464E6641B70E08C
:1015D0000E94CD296EA38EA128A18217B0F43A856E
:1015E000FAE08F9FC0011124622F70E00E94CD2984
:1015F000832F90E08617970710F42EA301C01EA238
:101600003F5F3A3010F43A8701C01A868DA180FFFF
:1016100004C08E8D9EA1891B8EA38EA1811102C054
:1016200018A621C028A59DA194FF0AC037E8839F72
:10163000C001112464E670E00E94CD29625A08C0FE
:101640004FEF849FC001112464E670E00E94CD2911
:1016500068A7211108C06FEF70E083E00E94492263
:1016600080E88FA303C0CE010E941C0A88816CA170
:10167000861748F4E4E68E9FC001112470E00E94B2
:10168000CD29462F01C044E68DA181FF03C084E629
:10169000841B482FEBA12AA130E02E1B3109429F69
:1016A000C001439F900D112464E670E00E94CD2993
:1016B000E60FF4E1EF9FB00111248CA58F3F11F0EC
:1016C0008F5F8CA789A59AA58617970781F08C59FB
:1016D0009F4F861B970B893C910518F48CA58B3086
:1016E00030F0F8941BA67AA769A778941CA6DF911E
:1016F000CF911F910F91FF90EF90DF90CF90BF900F
:10170000089520E030E0FC01E20FF31F07A4F0A9E8
:10171000E02D42814F3439F02E5F3F4F26303105A6
:1017200091F780E0089581E00895FC01E45BFF4FAC
:10173000DC011B962D913C911C973183208321E085
:1017400015962C930895FC01778366831582108685
:10175000E45BFF4F11821082089521E0FC01208795
:1017600077FD06C06536710524F064E670E001C0BF
:1017700060E0FC016083E45BFF4F118210820895FA
:10178000CF93DF93EC01A62FCA01B901FE0124E03B
:10179000A29FE00DF11D112460AF71AF82AF93AF36
:1017A000A23059F420E030E0A9010E948F27811176
:1017B00004C01D8A1E8A1F8A188EDF91CF9108955A
:1017C0006E31710510F46EE170E0FC01748763877F
:1017D00008952F923F924F925F926F927F928F92D5
:1017E0009F92AF92BF92CF92DF92EF92FF920F93B0
:1017F0001F93CF93DF9300D000D01F92CDB7DEB7F9
:101800009D838C830E94F721AC81BD8111962D911F
:101810003C911297621B730B6D34714008F456C1F2
:101820000E94F721EC81FD8161837283838394831D
:101830008185823030F48F5F8187CF010E941C0A3E
:1018400045C1AC81BD8119961C9219978D01F12C6F
:10185000D8019D96ED91FC919E9781818D7F81307D
:1018600009F436C1F80185A596A50E94FB07F394FB
:101870000E5F1F4FF4E0FF12EBCFAC81BD811896D5
:101880008C91189781111CC1BC91BB83EC81FD81A7
:10189000108285A996A99A838983DC0112968C917E
:1018A00012978F01045B1F4F268037808F3409F019
:1018B000A8C0F80180819181892B09F0A2C05596BA
:1018C0004D905D906D907C905897B101882777FD81
:1018D0008095982F0E942E28A30192010E942A270A
:1018E0006B017C01AC81BD81DC962D913D914D91C8
:1018F0005C91DF970E9427294B015C01EC81FD81FF
:10190000618B728B838B948B20E030E0A901C7013F
:10191000B6010E94DE2818161CF4FB81F43660F034
:1019200020E030E0A901C701B6010E948F2787FFA0
:101930002EC08B81882359F1EC81FD81E05CFF4F43
:101940002081318142815381C701B6010E9427293C
:10195000AC81BD8155962D913D914D915C915897EB
:101960000E942B27EC81FD81658B768B878B908F76
:1019700020E030E0A9010E948F2787FF08C0AC81DA
:10198000BD8155961D921D921D921C925897A301E0
:101990009201E981FA81618D728D838D948D0E940F
:1019A0002A27EC81FD81EC5BFF4F20813181428150
:1019B00053810E9427296B017C01AC81BD8159961E
:1019C0006D937D938D939C935C9755962D913D914E
:1019D0004D915C915897C501B4010E942B27A70136
:1019E00096010E942B270E94FB2777FD06C06536D3
:1019F000710524F064E670E001C060E0EC81FD81D7
:101A00006083A981BA8155966D917D918D919C914C
:101A100058970E94FB279101261B370B12161306BD
:101A20003CF1EC81FD8183859485D8014D915C91D9
:101A3000841B950B4F97E0F08581811110C020E049
:101A400030E040E05FE3658976898789908D0E9468
:101A50002729EC81FD81658B768B878B908F82E0C7
:101A6000AC81BD8115968C93F8011182108228C03B
:101A7000D8018D919C911197009721F001978D933A
:101A80009C931EC0EC81FD8185818230C9F444E6BF
:101A9000429FC001439F900D1124B1010E94E12992
:101AA00087A990E0681779075CF0E85BFF4F6081D9
:101AB0007181828193810E94FB276A357105ACF0A8
:101AC0008C819D810E94A30A81E019C080E017C02B
:101AD0006EE080810E943307BC01D8019D968D91F4
:101AE0009C919E970E94A308BDCEEC81FD818385C9
:101AF0009485D8018D939C9381E08583E1CF0F90ED
:101B00000F900F900F900F90DF91CF911F910F9139
:101B1000FF90EF90DF90CF90BF90AF909F908F900D
:101B20007F906F905F904F903F902F900895633417
:101B300041F01CF4613439F404C0663411F06235AC
:101B400011F4FC01658F0895CF93C82F8091500345
:101B500081110BC081E0809350031092510364E225
:101B600070E08DE593E00E944C06909151039C2714
:101B7000909351036C2F8DE593E0CF910C94D92372
:101B80008CE20C94A40D0F931F93CF93DF93EC0181
:101B90006E817F814AE050E08CE493E00E941B2636
:101BA0000E94C00D00E010E0FE01E00FF11F05A44F
:101BB000F6A5E02D82818F3459F4458956896789CD
:101BC000708D21E030E08CE493E00E94282703C070
:101BD00085E50E94A40D0E94C00D0E5F1F4F0830C6
:101BE000110511F74AE050E068818CE493E00E940F
:101BF00030260E94C00DFE01E85BFF4F60817181BD
:101C0000828193810E94FB274AE050E08CE493E0BC
:101C10000E941B260E94C00DFE01E45BFF4F608105
:101C200071814AE050E08CE493E00E9437260E94E4
:101C3000C00D4AE050E06EA18CE493E0DF91CF91BB
:101C40001F910F910C943026EF92FF920F931F93E8
:101C5000CF93DF937C01FC0105A916A9F8018281CD
:101C60008F3409F05AC0E2EDF0E08491EF01219643
:101C7000882321F00E94A40DFE01F7CFC0E0D0E040
:101C8000F701EC0FFD1F458556856785708922E0B9
:101C900030E08CE493E00E9428270E94C00D249637
:101CA000C031D10569F7F801218D328D438D548DF6
:101CB000658976898789908D0E942A27AB01BC01AE
:101CC00022E030E08CE493E00E9428276AE270E092
:101CD0008DE593E00E944C066091510362956F7010
:101CE0006A3010F4605D01C0695C8DE593E00E948C
:101CF000D923609151036F706A3010F4605D01C0A8
:101D0000695C8DE593E00E94D9236AE070E08DE57F
:101D100093E00E944C0610925003DF91CF911F91E7
:101D20000F91FF90EF900895811102C0609392018E
:101D30000895CF93DF93EB0177FF02C0C0E0D0E0BE
:101D4000813069F018F08230B1F021C0C0935D029B
:101D50006C2F84E090E0DF91CF910C943C06BE01A3
:101D600086E292E00E94E00BBE0185E090E0DF9108
:101D7000CF910C942A06CD2B31F086E292E0DF91D0
:101D8000CF910C94950B1092730210927202DF9116
:101D9000CF910895CF93C62F90E08830910508F039
:101DA00047C0FC01EC5CFF4F0C94172A653608F025
:101DB00064E6609346028EE190E037C0653608F035
:101DC00064E6609344028FE190E02FC086E292E0E7
:101DD0000E94FD096C2F87E290E027C086E292E026
:101DE0000E94020A6C2F88E290E01FC086E292E017
:101DF0000E94D5096C2F80E290E017C0653608F08C
:101E000064E66093450282E290E00FC0643608F019
:101E100060E06093470289E290E007C0653608F011
:101E200064E660934A028AE290E0CF910C943C060B
:101E3000CF91089562E086E292E00E94070A892B22
:101E400029F063E08DEA91E00C94481F0895462F35
:101E5000811103C089E00C940A236FEF680F8AE1B7
:101E600092E00C945104FF920F931F93CF93DF9352
:101E70008C01F12CC2EED1E088818823A1F08C3254
:101E800019F4F3942196F8CFCE010E94302ABC01B8
:101E90008F2DF8010995DE01ED018D91882361F305
:101EA0008C32D1F7E9CFDF91CF911F910F91FF9045
:101EB0000895843090F4E82FF0E0EE0FFF1FEA5D04
:101EC000FD4F05A4F6A5E02D648395E2899F802D42
:101ED0001124825B90E00C943C0608950F931F93AD
:101EE000CF93DF9300D0CDB7DEB7AB017A836983A0
:101EF000182F1695082F0170E12FF0E0EE0FFF1F4D
:101F0000EA5DFD4F85A596A5602F4D960E94BE0700
:101F1000143090F485E2189F102D1124115B298153
:101F20003A81232B49F0602F660F610F70E042E089
:101F3000CE0101960E9408060F900F90DF91CF917D
:101F40001F910F910895CF93DF93C82FD62F843020
:101F500088F4462F682F86E292E00E94C70985E246
:101F6000C89F802D1124835B6D2F90E0DF91CF916E
:101F70000C943C06DF91CF910895BF92CF92DF92EF
:101F8000EF92FF920F931F93CF93DF936C01B62EC6
:101F900003E512E049EAE42E41E0F42EF801C19194
:101FA000D1918F018981823001F5F70180818F37CE
:101FB00099F1F6019281891318C02EC0F60187812C
:101FC0006081718182FF2EC0882777FD8095982FD0
:101FD0000E942E2820E030E040E251E40E94932746
:101FE000AB01BC01CE010E944A08FFEFEF1AFF0AC5
:101FF00082E00B35180791F68B2D8570D9F08DEAAC
:1020000091E0DF91CF911F910F91FF90EF90DF90C2
:10201000CF90BF900C945920E4E0BE12CFCF60E087
:1020200070E004C0660F771F660F771FCE010E9415
:10203000A308DBCFDF91CF911F910F91FF90EF901D
:10204000DF90CF90BF90089587FF809391018F77A5
:102050002FEF829FC001112464E670E00E94CD2919
:1020600085E00C944922843058F465E2869F602D07
:102070001124605C70E04DE089E393E00C94E70587
:102080000895CF93DF93EC011816190664F4BC0190
:1020900082E090E00E942A06BE0186E292E00E9461
:1020A000A30B60E009C066277727681B790B86E2DF
:1020B00092E00E94AD0B61E087E190E0DF91CF916B
:1020C0000C943C06CF93DF931F92CDB7DEB7682FF9
:1020D000853608F064E6862F69830E9424106981A2
:1020E00088E190E00F90DF91CF910C943C06CF9364
:1020F000DF93D82FC62F813049F018F0863020F5B5
:1021000014C0862FDF91CF910C94621060939301DD
:1021100081E290E00E943C0680911003825085305D
:1021200020F48AE192E00E949E04D2504C2F6D2F41
:1021300085E991E00E94E81D8D2F90E06C2F839639
:10214000DF91CF910C943C06DF91CF910895CF930E
:10215000DF93D82FC92F662321F08AE192E00E94F5
:102160009E04ED2FFC2F6491EF012196662361F010
:10217000E0911A02F0911B020190F081E02D8AE1BA
:1021800092E00995FE01EFCFDF91CF9108956F9214
:102190007F928F929F92AF92BF92CF92DF92EF92F7
:1021A000FF920F931F93CF93DF93CDB7DEB7629764
:1021B0000FB6F894DEBF0FBECDBFF09010038EEFC8
:1021C0008F0D853008F0A9C140E060E08AE192E01F
:1021D0000E94AC0486E0F8121FC0809190018F3FEE
:1021E00059F410928C0110928D0110928E01109270
:1021F0008F0185E0809390018091940160E080FDE3
:1022000003C084ED91E002C083EC91E00E94A7102E
:10221000809194018695D8C08FEF809390010E94A1
:10222000D520809191010E942410E0919301E43027
:1022300008F09DC0F0E0EE0FFF1FEA5DFD4F05A422
:10224000F6A5E02D82818F3409F091C020E030E0C6
:1022500040E251E4658976898789908D0E9427291B
:102260000E94FB2777FF07C000271127061B170BCB
:10227000BB24B39402C08B01B12CA0E1DA2EBAE0EA
:10228000EB2EF12C86E0C82E0115110519F498E00B
:102290009D155CF5C801B7010E94CD29962EA72E89
:1022A000C89E8001C99E100D1124055C1D4FADEF25
:1022B000DA0E40E06D2D8AE192E00E94AC0443E02A
:1022C000B8018AE192E00E94700441E06D2D8AE13C
:1022D00092E00E94AC04B8016D5F7F4F43E08AE159
:1022E00092E00E947004092D1A2DDA9440E06D2DC1
:1022F0008AE192E00E94AC04E0911A02F0911B0284
:102300000190F081E02D60E28AE192E0099541E0E0
:102310006D2D8AE192E00E94AC04E0911A02F091E6
:102320001B02BCE0DB1208C00190F081E02D6EE2E0
:102330008AE192E00995A8CF0115110571F488E0B2
:102340008D155CF0BB2049F00190F081E02D61E03B
:102350008AE192E00995B12C07C00190F081E02D4F
:1023600060E28AE192E00995D1108ECFD6C0E0916B
:102370005B02F0915C0222812F3449F465897689F1
:102380008789908D2A8B0E94FB272A8902C060E0F2
:1023900070E080912E028E010F5F1F4F81116DC082
:1023A0002F3409F46AC041E150E067EB72E0C801E4
:1023B0000E944E2AB8018AE192E00E94792580911C
:1023C00093018F3F19F48F0D882E03C0F3E08F2EF9
:1023D00081E0982EDE0111967D0169E3C62E63E04F
:1023E000D62E72E9A72E71E0B72EE1E16E2E77248A
:1023F0007394781A891408F490C0B3E0B91508F4FE
:1024000083C0092D10E0000F111F0A5D1D4FD80178
:102410009D96ED91FC919E9782818F3409F074C056
:10242000892D0E943310D8019D96ED91FC919E97C5
:10243000658976898789908D0E94FB277F936F93AA
:10244000DF92CF92BF92AF921F926F92FF92EF9264
:102450000E947D2A0FB6F894DEBF0FBECDBF472D78
:10246000490D60E08AE192E00E94AC04B7018AE184
:1024700092E00E9479259394BDCF20917202309111
:1024800073024091430221153105B1F03F932F9320
:10249000842F992787FD90959F934F937F936F93F8
:1024A00021EB31E03F932F931F9281E18F931F9394
:1024B0000F930E947D2A22C0882319F09EE58EE5A5
:1024C00002C09DE58BE51F929F93909126021F927B
:1024D0009F931F928F93842F992787FD90959F93A9
:1024E0004F937F936F932CE931E03F932F931F928B
:1024F00081E18F931F930F930E947D2A0FB6F8946A
:10250000DEBF0FBECDBF56CF41E150E060E270E0CC
:10251000C7010E946E2A198AA2CF62960FB6F8945C
:10252000DEBF0FBECDBFDF91CF911F910F91FF9006
:10253000EF90DF90CF90BF90AF909F908F907F9063
:102540006F900895CF92DF92EF92FF920F931F93B7
:10255000CF93DF93CDB7DEB7AB970FB6F894DEBF5E
:102560000FBECDBFD82E4BE260E070E0CE010196E9
:102570000E94E705D110D2C089819A818E30904F98
:1025800009F0CCC06B817C8186E292E00E94A30BB3
:102590008D8180935D026E817F8186E292E00E9450
:1025A000E00B80E1FE013896AEE5B2E001900D92BD
:1025B0008A95E1F7888D882331F060E070E086E24B
:1025C00092E00E94AD0B898D0E9424104A8D5B8D94
:1025D0006C8D7D8D4093A9015093AA016093AB014E
:1025E0007093AC018E8D833411F463E401C066E412
:1025F00086E292E00E94970D8F8D853608F084E682
:102600008093460288A1853608F084E680934402D0
:102610008AA5843608F080E0809347028BA1853636
:1026200008F084E68093450269A186E292E00E9468
:10263000D5098AA18093930168A586E292E00E9461
:10264000FD0969A586E292E00E94020A8BA5853603
:1026500008F084E680934A028E010C5D1F4FF12C36
:10266000F80141918F016F2D85E991E00E94E81DED
:10267000F394F4E0FF12F4CF42E06EE370E0CE0199
:1026800001960E94E70529813A812E30304F41F0B2
:102690006EE070EF8EE390E00E942A06DD24D39472
:1026A00023E5E22E22E0F22E30E3C32E00E410E018
:1026B000DD2081F045E250E06BEE71E0CE01019645
:1026C0000E944E2ACF8245E2B801CE0101960E94B7
:1026D000080606C045E2B801CE0101960E94E70552
:1026E000BE016F5F7F4FF701819191917F010E9441
:1026F000D7070B5D1F4FC394F4E3CF12D9CFAB962E
:102700000FB6F894DEBF0FBECDBFDF91CF911F9102
:102710000F91FF90EF90DF90CF9008954BE250E043
:1027200060E172E0CE0101960E944E2A4BE260E029
:1027300070E0CE0101960E94080624CFCF9365E099
:1027400083EE92E00E94D20764E08EEB92E00E945A
:10275000D20763E089E992E00E94D20762E084E751
:1027600092E00E94D207C0E8C0932F0286E48093D3
:10277000430242E064E08AE192E00E9468058DEB4A
:102780009FE09093B3018093B201C093B4018FEFA7
:102790008093B7018093C0018093C9018093D201D7
:1027A00087E29FE09093A8018093A701CF910895BD
:1027B0001F93CF93DF93EC01162F8C81811109C0F9
:1027C00081E08C831D8264E270E08DE593E00E94DD
:1027D0004C068D8181278D83612F8DE593E0DF91FC
:1027E000CF911F910C94D923CF93DF93FC01649177
:1027F000EC012196662331F08CE493E00E94D8131B
:10280000CE01F4CFDF91CF9108956AE270E08DE5BB
:1028100093E00E944C066091510362956F706A309C
:1028200010F4605D01C0695C8DE593E00E94D923DE
:10283000609151036F706A3010F4605D01C0695C93
:102840008DE593E00E94D9236AE070E08DE593E086
:102850000E944C06109250030895CF93DF938DE8A9
:1028600091E00E94F413C3E5D2E00E94C00DE9910B
:10287000F9916481772767FD70954AE050E08CE418
:1028800093E00E941B2682E0CB35D80771F7DF91D9
:10289000CF910C9405140E94590F0C942D14CF93D2
:1028A00088E891E00E94F413C0E08C2F0E9433105E
:1028B0000E94C00D69E373E08CE493E00E947925E7
:1028C000CF5FC43091F7CF910C9405149B018430F5
:1028D00050F465E2869F602D1124605C70E04DE04D
:1028E000C9010E9408060C944F14CF93DF9382E82D
:1028F00091E00E94F4134AE050E0609191018CE471
:1029000093E00E9430260E94C00D4AE050E06091A2
:1029100093018CE493E00E943026C5E9D1E00E9447
:10292000C00D4AE050E068818CE493E00E943026BC
:10293000239681E0C13AD80791F7DF91CF910C94AB
:102940000514CF93DF938CE791E00E94F413C6E265
:10295000D2E04AE050E068A18CE493E00E94302687
:102960000E94C00D4AE050E06E8D8CE493E00E941E
:1029700030260E94C00D4AE050E06BA18CE493E049
:102980000E9430260E94C00D4AE050E06AA18CE40B
:1029900093E00E9430260E94C00D4AE050E06DA1F5
:1029A0008CE493E00E9430260E94C00D4AE050E083
:1029B0006F8D8CE493E00E9430260E94C00D4AE0A7
:1029C00050E069A18CE493E00E9430260E94C00D83
:1029D0004AE050E06CA18CE493E00E943026DF9145
:1029E000CF910C940514853608F084E68093440258
:1029F000682F8FE190E00E943C060C94A1140F9385
:102A00001F93CF93DF9387E791E00E94F41303E5D0
:102A100012E0F801C191D1918F010E94C00D6D8D1E
:102A20007E8D4AE050E08CE493E00E941B2689A151
:102A3000882329F06CE48CE493E00E94D8130E9470
:102A4000C00D6F8D78A14AE050E08CE493E00E94C5
:102A50001B268AA1882329F068E48CE493E00E9475
:102A6000D813F2E00B351F07A1F6DF91CF911F912C
:102A70000F910C94051460E070E0809194010E9425
:102A80006E0F0C94FF148DE591E00E94F41362E444
:102A90008CE493E00E947B250C9405141F93CF9344
:102AA000DF93219A42E060E085E991E00E94511DA8
:102AB00085E991E00E94931D26E040E056E960E040
:102AC00070E08DE593E00E943E246AE070E08DE5C1
:102AD00093E00E944C060E94431580E880BF8FE37C
:102AE00080937E00809164008068809364005F9A88
:102AF000579A0E94D32083EE92E0909354028093E1
:102B000053028EEB92E0909356028093550289E92E
:102B100092E0909358028093570284E792E090935A
:102B20005A028093590280E00E94A21286E292E04B
:102B30000E94AD09C7E7D2E010E0AE01612F8AE143
:102B400092E00E942C051F5F28961830B1F70E9472
:102B50001A0F65E088E093E0DF91CF911F910C940C
:102B6000061E83EF90E00E94F4134AE050E060916B
:102B70005D028CE493E00E9430260E94C00D6091BB
:102B80003102709132024AE050E08CE493E00E94FE
:102B900037260C940514CF93DF938EEE90E00E94BD
:102BA000F413CEE5D2E00E94C00D4991599169918C
:102BB000799128E030E08CE493E00E94282782E0BD
:102BC000CE36D80781F7DF91CF910C9405140F937F
:102BD0001F93CF93DF9389EE90E00E94F413C3E537
:102BE000D2E009EA11E00E94C00DE991F9918181DA
:102BF000823041F44AE050E0F80160818CE493E0D7
:102C00000E9430260F5F1F4FF2E0CB35DF0759F7E8
:102C1000DF91CF911F910F910C940514AF92BF9249
:102C2000CF92DF92EF92FF920F931F93CF93DF9398
:102C3000C82F83EE90E00E94F4134AE050E06C2F1E
:102C40008CE493E00E9430260E94C00DEC2FF0E04F
:102C5000EE0FFF1FEA5DFD4F05A516A5C0E0D0E011
:102C6000F801EC0FFD1FC580D680E780F084AA2410
:102C7000A39420E030E0A901C701B6010E948F278C
:102C800087FD02C0A12C04C0F7FAF094F7F8F09485
:102C9000B12C20E030E040E85FE3C701B6010E94BC
:102CA0008F2787FF15C020E030E0A901C701B601DA
:102CB0000E948F27882361F0BA9420E030E040E240
:102CC00051E4C701B6010E9427296B017C01E1CFC5
:102CD00020E030E040E251E4C701B6010E94DE2866
:102CE00087FD0CC0B39420E030E040E251E4C7011E
:102CF000B6010E9493276B017C01EACFAA2021F044
:102D0000F7FAF094F7F8F09427E030E0B701A60165
:102D10008CE493E00E94282765E68CE493E00E940F
:102D2000D8136B2D772767FD70954AE050E08CE44F
:102D300093E00E941B260E94C00D2496C031D1054D
:102D400009F08ECF4AE050E0F80161818CE493E015
:102D50000E943026DF91CF911F910F91FF90EF904D
:102D6000DF90CF90BF90AF900C9405142F923F92BC
:102D70004F925F926F927F928F929F92AF92BF928B
:102D8000CF92DF92EF92FF920F931F93CF93DF9337
:102D90001F92CDB7DEB7EAEDF1E001900020E9F730
:102DA0003197EA5DF1401E2F0BEDE02E01E0F02E91
:102DB00085E2782E9FE7692E8DE593E00E946923D6
:102DC000892B09F490C08DE593E00E9482238A301C
:102DD00019F08D3009F076C0112309F403C28091F7
:102DE000DA018F3209F0FEC1D7010D900020E9F71A
:102DF0008D010C5D114047E050E065E571E08BED21
:102E000091E00E94572A892BD9F482EE91E00E942A
:102E1000302A0E944110F801FF27E652FE4F108130
:102E2000612F86E292E00E94970D133419F0163458
:102E300009F0D8C1612F8DE190E00E943C06D2C11B
:102E400047E050E06DE471E08BED91E00E94572A7D
:102E5000892B39F487E790E10E94330F0E947514A3
:102E6000C1C147E050E065E471E08BED91E00E9464
:102E7000572A892B39F489E99EE00E94330F0E947A
:102E8000B115B0C147E050E06DE371E08BED91E02A
:102E90000E94572A892B39F489E59FE00E94330F5D
:102EA0000E942D149FC147E050E065E371E08BED77
:102EB00091E00E94572A892B09F081C10A3008F05D
:102EC0004BC17DC191E0910FE12FF0E0E652FE4F42
:102ED0008083903408F086C1E92FF0E0E652FE4F7F
:102EE0001082192F69CF8DEA91E00E94DD1F88239F
:102EF00031F042E069E085E991E00E94511D88E0EF
:102F000093E00E94671E86E292E00E94E90B88230C
:102F100009F4C9C00E94C71080918B018F5F809314
:102F20008B018F7121F48DEA91E00E9459208DED83
:102F300090E00E94F41386E292E00E94C30D0E948A
:102F4000051403E512E0F12CE12CA12CB12CDD24B9
:102F5000D394DF0CD801ED91FC91EA0DFB1D41A14A
:102F60006A2D8A2D8F0D442321F080939401EE2445
:102F7000E3946D0D85E991E00E94511DBFEFAB1AFE
:102F8000BB0AE2E0AE16B10429F7F394F3940E5FA6
:102F90001F4FF8E0FF12D9CF4E2D6EE085E991E08A
:102FA0000E94511DEE2021F00E94FF1466E005C032
:102FB00080911003863029F462E088E093E00E945B
:102FC000061E80919201882321F086E292E00E9401
:102FD000240E80918B0183708130B1F488ED90E0F4
:102FE0000E94F41310E00E94C00D812F0E94700710
:102FF0004AE050E0682F8CE493E00E9430261F5F87
:10300000163089F70E94051440E060E085E991E000
:103010000E94511D41E08091720290917302892BB0
:1030200009F440E06AE085E991E00E94511D41E029
:1030300080912602811101C040E06BE085E991E0BA
:103040000E94511D41E080912602843608F440E040
:103050006DE085E991E00E94511D41E080912B02D5
:10306000823009F040E06CE085E991E00E94511D5A
:1030700041E080912B02811140E06FE085E991E011
:103080000E94511D41E080912B02813009F040E007
:1030900060E185E991E00E94511D609126028DEA70
:1030A00091E00E94BA1F809190018F3F09F43DC0CA
:1030B0000E94F721E0919001F0E0EB51FE4FE49186
:1030C00020918C0130918D01621B730B8AE0E89F87
:1030D000F0011124E617F70740F50E94F7216093ED
:1030E0008C0170938D0180938E0190938F0180915C
:1030F000900190E0019666E070E00E94CD298093F7
:10310000900180FD0DC0FC01EB51FE4F84919AE0CF
:10311000899FB001112486E00E94242180E803C029
:103120008091910180680E94241085E991E00F90C0
:10313000DF91CF911F910F91FF90EF90DF90CF9093
:10314000BF90AF909F908F907F906F905F904F90C7
:103150003F902F900C94931D84EE91E00E942C2AB6
:103160009B01AC018091E201843611F413E005C0AB
:103170008536ECF08936F9F412E0612F86E292E0B0
:103180000E94C00B812F90E0BC01660F771F660F75
:10319000771F695F7F4F880F991F880F991F44E041
:1031A000825A9D4F0E9408060E94CB151BC0823692
:1031B000D9F710E0E2CF8037B9F711E0DECF46E073
:1031C00050E06EE271E08BED91E00E94572A892B6E
:1031D00059F4093048F08091E10163EE71E08053C9
:1031E0000E94661490E078CE46E050E067E271E01D
:1031F0008BED91E00E94572A892B09F068C00930B5
:1032000008F465C05090E101A0ED5A0EB3E0B51589
:1032100048F3579C202D11242B5A412CE3EE2E2EDF
:10322000E1E03E2E052D10E0000F111F0D5A1D4F3D
:10323000D1018C91882309F446C0B3E0B41580F124
:103240008C3231F44394EFEF2E1A3E0A2C5FF0CF0C
:10325000D8018D909C90B4E04B9E500111246501E3
:10326000E5E0CE0ED11CC80CD91CC10129830E94F7
:103270002C2AF401EA0DFB1D6583768387839087F2
:103280002981622F70E044E0C6010E940806F10126
:1032900029811F018191882359F28C32D1F7C8CF3F
:1032A000C1010E94302A682FC52CD12C87FD9AC0FD
:1032B000F601EE0FFF1FEA5DFD4F05A4F6A5E02D18
:1032C0001181161383C0852D0E940E168BCF47E007
:1032D00050E06FE171E08BED91E00E94572A892B5D
:1032E00039F48EE69FE00E94330F0E94FF147ACFDC
:1032F00047E050E067E171E08BED91E00E94572AD2
:10330000892B39F48AEC9EE00E94330F0E94A114AD
:1033100069CF47E050E06FE071E08BED91E00E94F3
:10332000572A892B39F462EE71E088E093E00E941D
:10333000D11C58CF47E050E067E071E08BED91E0A1
:103340000E94572A892B29F484E99EE00E94330FBA
:1033500049CF46E050E060E071E08BED91E00E94E3
:10336000572A892BF9F40E9443150E94CB150E941D
:10337000A1140E944F1480E00E940E1681E00E946A
:103380000E1682E00E940E1683E00E940E160E9426
:103390002D140E94B1150E9475140E94FF140E9402
:1033A000E71520CF45E050E069EF70E08BED91E04C
:1033B0000E94572A892B09F015CF5F98F89488E16D
:1033C0008093600089E080936000FFCF852D0E948C
:1033D000A30F123009F077CFF601E755FE4F608258
:1033E0006FE718C010E8160FF601EE0FFF1FEA5D39
:1033F000FD4F05A4F6A5E02D81818230A1F4F601F0
:10340000E755FE4F808181130EC0F601E755FE4F50
:103410001083612FC60149960E943C060E94E71561
:103420000E941A0F50CF62E0852D0E94A30FEDCFAE
:1034300068E080E00E9433078823B9F09BEE980F84
:10344000973268F093EC980F973258F097E8980FFE
:10345000973248F0815A873240F482E0089581E043
:10346000089588E0089584E0089580E008950F931A
:103470001F93CF93DF93CDB7DEB761970FB6F89464
:10348000DEBF0FBECDBF909113039B3018F0660FC7
:10349000660F03C0963008F0660FE0914A03F09182
:1034A0004B03843019F4E60FF11D04C0883031F469
:1034B000E61BF109F0934B03E0934A0380914A0322
:1034C00090914B038417950724F450934B0340933A
:1034D0004A0380914A0390914B032817390724F43B
:1034E00030934B0320934A0341E060E08AE192E08D
:1034F0000E94AC0420914302822F992787FD90956A
:103500009F932F9380914B038F9380914A038F93C6
:103510001F930F931F9281E18F938E010F5F1F4FB7
:103520001F930F930E947D2AB8018AE192E00E94C6
:1035300079250FB6F894DEBF0FBECDBF61960FB6EA
:10354000F894DEBF0FBECDBFDF91CF911F910F91D9
:1035500008950F931F93CF93C82F803869F461E0CB
:103560008CE793E00E94A7102091910130E0309306
:103570004B0320934A0310C0803471F480914A03B6
:1035800090914B034091910150E08417950721F0F1
:103590000E9462100E94751406E713E024E630E0F2
:1035A00040E050E06AE08C2F0E94371A80914A0375
:1035B00080680E94241081E0CF911F910F9108959F
:1035C0000F931F93CF93C82F803869F461E085E68D
:1035D00093E00E94A7102091440230E030934B0307
:1035E00020934A030EC0803461F480914A03909185
:1035F0004B034091440250E08417950711F00E945C
:10360000F31409E513E024E630E040E050E065E023
:103610008C2F0E94371A81E0CF911F910F9108954E
:103620000F931F93CF93C82F803871F461E08AE223
:1036300093E00E94A7102091310230913202309322
:103640004B0320934A0309C0803439F460914A0344
:1036500070914B0381E00E94990E0EE113E028EE79
:1036600033E040E050E06AE08C2F0E94371A81E09E
:10367000CF911F910F9108950F931F93CF93C82F50
:10368000803869F461E08EE093E00E94A7102091F9
:103690005D0230E030934B0320934A0309C080342D
:1036A00039F460914A0370914B0380E00E94990EB7
:1036B0000EEF12E024E630E040E050E061E08C2FB5
:1036C0000E94371A81E0CF911F910F9108950F93B7
:1036D0001F93CF93DF93D82FC0911003CD50803824
:1036E000F9F48C2F0E9433108AE192E00E949E042C
:1036F00069E373E08AE192E00E947925EC2FF0E023
:10370000EE0FFF1FEA5DFD4F05A4F6A5E02D248115
:10371000332727FD309530934B0320934A0309C08C
:10372000803439F460914A0370914B038C2F0E94CE
:103730004B1400EF12E024E630E04CE95FEF61E06B
:103740008D2F0E94371A81E0DF91CF911F910F9149
:1037500008950F931F93CF93C82F803871F461E0C1
:103760008FEC92E00E94A71020912C0230912D0244
:1037700030934B0320934A030FC0803469F4809147
:103780004A0390914B0340912C0250912D028417D3
:10379000950711F00E94411008EC12E028EE33E08A
:1037A00040E050E065E08C2F0E94371A81E0CF9115
:1037B0001F910F910895803819F40E94C71006C018
:1037C0008F7121F00E943B1582E0089581E00895F9
:1037D000803861F4809110038530B9F186E292E07F
:1037E0000E94810B811131C085E0089590912E02D5
:1037F0009923D9F0843039F0883039F0813009F0DC
:1038000049C06FEF03C065E001C06BEF80912602F5
:10381000772767FD7095680F711D86E292E00E9420
:10382000AD0B0E94C71080E00895813099F561E0EA
:1038300070E08091720290917302892B11F060E028
:1038400070E082E00E94990E23C0809110038230C4
:1038500049F4E0915502F091560282818F34C1F013
:1038600083E00895833049F4E0915702F0915802C3
:1038700082818F3469F084E00895843049F4E091C6
:103880005902F0915A0282818F3411F082E008953A
:103890000E94C71081E008958AE192E00E94A50489
:1038A000E0911A02F0911B020280F381E02D40E1C9
:1038B00050E068E173E08AE192E0099541E060E060
:1038C0008AE192E00E94AC04E0911A02F0911B029E
:1038D0000280F381E02D40E150E068E273E08AE18C
:1038E00092E0099581E00895803811F40C944C1C05
:1038F000809111030895843011F0883071F481E0D3
:1039000090E020914A0330914B03232B11F080E08B
:1039100090E090934B0380934A0341E060E08AE19A
:1039200092E00E94AC0480914A0390914B03892B52
:1039300019F08DE393E002C089E393E060E00C941A
:10394000A710CF93C82F803869F461E080EE92E031
:103950000E94A71020912E0230E030934B03209359
:103960004A0319C08034B9F481E020914A033091B0
:103970004B03232B09F480E090912E02891759F014
:10398000811105C080912C0290912D0202C080E02F
:1039900090E00E9441108C2F0E947B1C81E0CF910F
:1039A000089520E040E2FB013191BF01311102C0D6
:1039B00030E212C02132E0F73C3231F0FC01E20F7C
:1039C000F11D308B2F5FEFCF203168F7FC01E20F44
:1039D000F11D408B2F5FF8CFFC01213228F4E20F5C
:1039E000F11D308B2F5FF8CF2085283119F068E169
:1039F0000C94061E0C944C1C28E13AE14BE853E071
:103A000064EF73E088E093E00C94FE1DFF920F9347
:103A10001F93CF93DF93182F803851F461E08BE42C
:103A200093E00E94A71010924B0310924A032FC0FC
:103A3000803469F520914A0330914B03232B39F1EF
:103A400081E00E94A212C1E4D3E0FF24F394FE01BE
:103A500004910023D1F08091500381110AC0F092AB
:103A600050031092510364E270E08DE593E00E94F0
:103A70004C0680915103802780935103602F8DE580
:103A800093E00E94D9232196E2CF0E940514812F52
:103A90000E947B1C81E0DF91CF911F910F91FF90DD
:103AA0000895CF92DF92EF92FF920F931F93CF93DF
:103AB000DF931F92CDB7DEB78C01E62E6C01F12C9F
:103AC000D6019C91892F8F778E111CC011964C9333
:103AD000119712968C9112978230A1F0423091F09A
:103AE000692F661F6627661F6427681759F01296AC
:103AF0006C93D8015296ED91FC9153978F2D498389
:103B000009954981F394B3E0CB0ED11CE4E0FE1299
:103B1000D7CF0F90DF91CF911F910F91FF90EF9032
:103B2000DF90CF900895CF92DF92EF92FF920F93A4
:103B30001F93CF93DF93EC010E94F721CC84DD84A7
:103B4000EE84FF842989222331F08B010C191D0991
:103B5000043F1140A0F10E94F7216C877D878E877A
:103B60009F8781E0898B88898F5F888B00E010E0D8
:103B7000F12C8889DE01A00FB11F80FF0CC01196C7
:103B80008C9111978230A9F412968C93129711960A
:103B90001C92119708C012968C911297823049F4AA
:103BA00012961C921297EA89FB8912966C918F2DBE
:103BB0000995F3940D5F1F4F84E0F812DACFDF917F
:103BC000CF911F910F91FF90EF90DF90CF900895CC
:103BD000DC01862F262F30E0F901EE0FFF1FE20FE8
:103BE000F31FEA0FFB1F40839281913031F452960C
:103BF000ED91FC91539760E009940895FC01718365
:103C00006083538342833783268308950F931F93E2
:103C1000CF93DF931F92CDB7DEB78C01DC011896EE
:103C20008C91189719968C93623008F443C0D80190
:103C300018968C91681709F43DC0D8011496ED913F
:103C4000FC911597309759F03196259134912115B3
:103C5000310529F080E46983F90109956981D8016A
:103C600018966C9318972D913C91119715963C934B
:103C70002E931497D8011496ED91FC911597849189
:103C8000882311F0861303C03097A1F007C0349643
:103C9000D8011596FC93EE931497ECCF31962591AD
:103CA00034912115310509F4BFCF80E8F901099558
:103CB000682FBACF0E94F721F8016487758786873D
:103CC00097870F90DF91CF911F910F910895CF9219
:103CD000DF92EF92FF921F93CF93DF93EC010E944C
:103CE000F7216B017C014C855D856E857F85C41A4B
:103CF000D50AE60AF70A8AEFC816D104E104F104EE
:103D000008F466C0EE81FF810995182F811117C054
:103D1000EC81FD813097A9F03396E4912E2F30E0AD
:103D2000A8EEB3E00E941D2A611571058105910579
:103D300041F06C157D058E059F0590F002C0803224
:103D400081F08A85181306C08B858F3F29F08F5F1D
:103D50008B8702C01A871B86112309F439C001C062
:103D600010E20E94F7216C877D878E879F87EC8108
:103D7000FD81309719F42A813B8110C0319625913D
:103D8000349121153105B9F3812FF901099581305D
:103D9000A1F4F1CF981741F02D5F3F4FF9019491B5
:103DA00088859111F7CF09C0F9013196E491E1239B
:103DB000E113F2CFF90132968491682FCE01DF91A1
:103DC000CF911F91FF90EF90DF90CF900C94061E43
:103DD000DF91CF911F91FF90EF90DF90CF900895EA
:103DE000FC018281861719F0628311821082089586
:103DF0000F931F93CF93DF93EC018B010E94F72168
:103E00006B837C838D839E83F801818185FD02C055
:103E100080E001C082E0F801938197FD81609F7787
:103E20009F3709F084608F830E94420488878F81C6
:103E3000F801428182FF1CC04A3A21F151815F7032
:103E4000242F30E084E0359527958A95E1F76AE0E4
:103E5000629FC001639F900D1124F4E65F9F800D67
:103E6000911D11244F70840F911D8059914006C0FF
:103E7000F80121812F70842F90E0922B9983888301
:103E800081E001C080E0DF91CF911F910F910895F3
:103E9000CF93DF93EC01862F9881911104C00E948B
:103EA000DD0381E08883DF91CF9108958F929F9207
:103EB000AF92BF92EF92FF920F931F93CF93DF9336
:103EC0008C01EC0128967C012CE2E20EF11C8A8127
:103ED0008F3FE9F00E94F7218B809C80AD80BE80EF
:103EE000681979098A099B0961327F4B82409105E3
:103EF00070F0D8011596ED91FC911697309719F056
:103F000064E0CE0109956FEFCE010E94F01E299664
:103F1000CE15DF05E1F6DF91CF911F910F91FF9054
:103F2000EF90BF90AF909F908F90089520E030E089
:103F300040E0FC01E20FF31F52855F3F39F04F5F15
:103F4000275F3F4F4430A9F78FEF0895842F0895DE
:103F500020E030E040E0FC01E20FF31F52855617ED
:103F600039F04F5F275F3F4F4430A9F78FEF089537
:103F7000842F0895CF93DF9300D000D0CDB7DEB764
:103F8000FC018081882391F084A58F5F84A7853010
:103F900068F014A68FE9898380EC8A836B838FE7AE
:103FA0008C8364E0CE0101960E94D2030F900F90A3
:103FB0000F900F90DF91CF910895CF92DF92EF9203
:103FC000FF920F931F93CF93DF931F92CDB7DEB76E
:103FD0006C01DC018C91882309F460C010E029E0B9
:103FE000E22E0E949A03882309F453C00E94F7210D
:103FF000F601618372838383948390915701878153
:10400000911140C08F3F11F08F5F878380914D01E8
:104010008F70F4E08F9FC0011124F0904E01F29454
:10402000F694F69493E0F922F82A6F2DC6010E94C7
:10403000A81F8F3F39F4C6010E94961F8F3F39F1A8
:1040400023E001C022E08601E89E000D111D11242D
:10405000085F1F4F6F2DC80129830E94F01E6DE479
:1040600071E0C8010E94F81E2981882381F0D601E1
:104070001596ED91FC911697309749F0622FC80183
:10408000099505C0882319F08150F601878311E056
:10409000A8CFC6010E94561F812F01C080E00F905B
:1040A000DF91CF911F910F91FF90EF90DF90CF9014
:1040B00008950F931F93CF93DF93EC01888188239A
:1040C00009F461C0ECE3F4E084918F010F5F1F4FAE
:1040D000882321F00E94A40DF801F6CF4AE050E0B9
:1040E0006F818CE493E00E9430262A9610E088814C
:1040F0008F3FF1F08CE20E94A40D4AE050E068810D
:104100008CE493E00E9430268CE20E94A40D4AE0E9
:1041100050E06D818CE493E00E9430268CE20E9496
:10412000A40D4AE050E06E818CE493E00E943026BA
:104130001F5F29961430D9F66AE270E08DE593E0AE
:104140000E944C066091510362956F706A3010F4C2
:10415000605D01C0695C8DE593E00E94D9236091A8
:1041600051036F706A3010F4605D01C0695C8DE5C9
:1041700093E00E94D9236AE070E08DE593E00E940D
:104180004C0610925003DF91CF911F910F9108952B
:1041900010924F0310924E0382E291E090934D03F0
:1041A00080934C030895569A0895EFE6F0E08081DD
:1041B0008D7F80835E9808951F920F920FB60F92A5
:1041C00011242F933F934F935F936F937F938F931C
:1041D0009F93AF93BF93EF93FF938091520390917E
:1041E0005303892BF1F080918800909189008650CB
:1041F0009F4F80342CE9920710F080E090E090937C
:104200008900809388008091520390915303019715
:1042100090935303809352038BB190E489278BB919
:1042200002C00E94D520FF91EF91BF91AF919F9165
:104230008F917F916F915F914F913F912F910F904F
:104240000FBE0F901F901895CF93DF931F92CDB79D
:10425000DEB769830E94D520698188E0689FB0013C
:1042600011247093530360935203EFE6F0E08081D2
:10427000826080830F90DF91CF91089508958230FE
:10428000E8F4E82FF0E0EE0FFF1FE050FF4F7183DE
:104290006083813041F0809169008C7F842B809312
:1042A0006900E89A089580916900440F551F440FF2
:1042B000551F837F842B80936900E99A08951F928C
:1042C0000F920FB60F9211242F933F934F935F934A
:1042D0006F937F938F939F93AF93BF93EF93FF93CE
:1042E000E0910001F09101010995FF91EF91BF91DB
:1042F000AF919F918F917F916F915F914F913F917E
:104300002F910F900FBE0F901F9018951F920F9234
:104310000FB60F9211242F933F934F935F936F9398
:104320007F938F939F93AF93BF93EF93FF93E0910E
:104330000201F09103010995FF91EF91BF91AF91B7
:104340009F918F917F916F915F914F913F912F91AD
:104350000F900FBE0F901F9018951F920F920FB6DF
:104360000F9211242F933F938F939F93AF93BF93FB
:104370008091550390915603A0915703B091580333
:104380003091540323E0230F2D3720F40196A11D13
:10439000B11D05C026E8230F0296A11DB11D209373
:1043A00054038093550390935603A0935703B093FF
:1043B00058038091590390915A03A0915B03B091E7
:1043C0005C030196A11DB11D8093590390935A037C
:1043D000A0935B03B0935C03BF91AF919F918F91CA
:1043E0003F912F910F900FBE0F901F9018952FB7F0
:1043F000F894609155037091560380915703909102
:1044000058032FBF08958230910538F0880F991F07
:10441000880F991F05970197F1F70895789484B54F
:10442000826084BD84B5816084BD85B5826085BDB0
:1044300085B5816085BDEEE6F0E080818160808396
:10444000E1E8F0E010828081826080838081816079
:104450008083E0E8F0E0808181608083E1EBF0E040
:10446000808184608083E0EBF0E0808181608083E4
:10447000EAE7F0E0808184608083808182608083CD
:104480008081816080838081806880831092C100F8
:1044900008951F93CF93DF93182FEB0161E00E94E3
:1044A000D122209711F460E004C0CF3FD10539F448
:1044B00061E0812FDF91CF911F910C940A23E12FAE
:1044C000F0E0E85BFB4FE491E330F9F048F4E130D1
:1044D000B9F0E230A1F584B5806284BDC8BD34C0B6
:1044E000E730E9F0E83019F1E43049F580918000D7
:1044F000806280938000D0938B00C0938A0024C098
:1045000084B5806884BDC7BD1FC08091800080686D
:1045100080938000D0938900C093880015C080915B
:10452000B00080688093B000C093B3000DC080914C
:10453000B00080628093B000C093B40005C0C03862
:10454000D1050CF0B5CFAFCFDF91CF911F9108957A
:10455000833081F028F4813099F08230A1F0089501
:104560008730A9F08830B9F08430D1F48091800090
:104570008F7D03C0809180008F77809380000895A5
:1045800084B58F7702C084B58F7D84BD08958091F6
:10459000B0008F7703C08091B0008F7D8093B00012
:1045A0000895CF93DF9390E0FC01E45AFB4F2491F0
:1045B000FC01E059FB4F8491882349F190E0880F7A
:1045C000991FFC01E856FB4FA591B49182579B4F70
:1045D000FC01C591D4919FB7611108C0F8948C91EA
:1045E000209582238C93888182230AC0623051F403
:1045F000F8948C91322F309583238C938881822B71
:10460000888304C0F8948C91822B8C939FBFDF9198
:10461000CF9108950F931F93CF93DF931F92CDB740
:10462000DEB7282F30E0F901E85BFB4F8491F901F8
:10463000E45AFB4F1491F901E059FB4F0491002318
:10464000C9F0882321F069830E94A8226981E02FA4
:10465000F0E0EE0FFF1FE257FB4FA591B4919FB71B
:10466000F8948C91611103C01095812301C0812BB6
:104670008C939FBF0F90DF91CF911F910F91089561
:10468000CF93DF93282F30E0F901E85BFB4F849153
:10469000F901E45AFB4FD491F901E059FB4FC49161
:1046A000CC2391F081110E94A822EC2FF0E0EE0FB4
:1046B000FF1FEC57FB4FA591B4912C912D2381E066
:1046C00090E021F480E002C080E090E0DF91CF91A3
:1046D0000895FC01818D228D90E0805C9F4F821BAC
:1046E00091098F7399270895FC01918D828D9817F8
:1046F00031F0828DE80FF11D858D90E008958FEFE8
:104700009FEF0895FC01918D828D981761F0828D45
:10471000DF01A80FB11D5D968C91928D9F5F9F73F5
:10472000928F90E008958FEF9FEF0895FC01848DA4
:10473000DF01A80FB11DA35ABF4F2C91848D90E0CB
:1047400001968F739927848FA689B7892C93A089A6
:10475000B1898C9180648C93938D848D981306C05D
:104760000288F389E02D80818F7D80830895CF9327
:10477000DF93EC01888D8823C9F0EA89FB89808169
:1047800085FD05C0A889B9898C9186FD0FC00FB63B
:1047900007FCF5CF808185FFF2CFA889B9898C917C
:1047A00085FFEDCFCE010E949623E7CFDF91CF9119
:1047B0000895CF92DF92FF920F931F93CF93DF93D1
:1047C0001F92CDB7DEB76C0181E0D60158968C936D
:1047D00058975B969C915B975C968C915C9798132D
:1047E00007C05096ED91FC915197808185FD2EC0B8
:1047F000F601038D10E00F5F1F4F0F731127F02E8E
:10480000F601848DF81211C00FB607FCF9CFD6015E
:104810005096ED91FC915197808185FFF1CFC601B3
:1048200069830E9496236981EBCF838DE80FF11D88
:10483000E35AFF4F6083D6015B960C935B975296C9
:10484000ED91FC915397808180620CC0D601569601
:10485000ED91FC91579760835096ED91FC915197A3
:1048600080818064808381E090E00F90DF91CF9120
:104870001F910F91FF90DF90CF900895BF92CF923C
:10488000DF92EF92FF92CF93DF93EC016A017B01FD
:10489000B22EE889F98982E08083411581EE5807BC
:1048A00061057105A1F060E079E08DE390E0A7017A
:1048B00096010E94F5292150310941095109569567
:1048C000479537952795211580E1380798F0E889B5
:1048D000F989108260E874E88EE190E0A701960102
:1048E0000E94F529215031094109510956954795F2
:1048F00037952795EC85FD853083EE85FF852083F0
:10490000188EEC89FD89B082EA89FB8980818061FB
:104910008083EA89FB89808188608083EA89FB89BA
:10492000808180688083EA89FB8980818F7D808394
:10493000DF91CF91FF90EF90DF90CF90BF900895DF
:104940001F920F920FB60F9211242F938F939F9364
:10495000EF93FF93E0916D03F0916E038081E091FE
:104960007303F091740382FD12C0908180917603ED
:104970008F5F8F7320917703821751F0E091760358
:10498000F0E0E35AFC4F958F8093760301C080815D
:10499000FF91EF919F918F912F910F900FBE0F90EC
:1049A0001F9018951F920F920FB60F9211242F93FC
:1049B0003F934F935F936F937F938F939F93AF93A7
:1049C000BF93EF93FF938DE593E00E949623FF91B1
:1049D000EF91BF91AF919F918F917F916F915F9177
:1049E0004F913F912F910F900FBE0F901F901895F0
:1049F0001092600310925F0388EE93E0A0E0B0E0B5
:104A00008093610390936203A0936303B093640364
:104A10008AE291E090935E0380935D0385EC90E0E1
:104A200090936A038093690384EC90E090936C0305
:104A300080936B0380EC90E090936E0380936D0302
:104A400081EC90E09093700380936F0382EC90E090
:104A5000909372038093710386EC90E090937403BB
:104A60008093730310927603109277031092780369
:104A7000109279030895CF92DF92EF92FF920F93F5
:104A80001F93CF93DF937C016A01EB0100E010E0FC
:104A90000C151D0571F06991D701ED91FC91019004
:104AA000F081E02DC7010995892B19F00F5F1F4F89
:104AB000EFCFC801DF91CF911F910F91FF90EF9041
:104AC000DF90CF9008956115710581F0DB010D90A5
:104AD0000020E9F7AD0141505109461B570BDC019D
:104AE000ED91FC910280F381E02D099480E090E04B
:104AF00008950C946325DC01ED91FC910190F08107
:104B0000E02D09948F929F92AF92BF92DF92EF9225
:104B1000FF920F931F93CF93DF93CDB7DEB7A1978B
:104B20000FB6F894DEBF0FBECDBF7C01F42FD52E9B
:104B3000CB0119A2223008F42AE08E010F5D1F4F2D
:104B4000822E912CA12CB12C6F2F7D2DA5019401CB
:104B50000E94F529F22FD32ECA01015011096A30A3
:104B600014F4E0E301C0E7E3E60FD801EC93232B54
:104B7000242B252B49F7B801C7010E946325A19674
:104B80000FB6F894DEBF0FBECDBFDF91CF911F915E
:104B90000F91FF90EF90DF90BF90AF909F908F901C
:104BA0000895CF92DF92EF92FF920F931F93CF93CE
:104BB000DF93EC016A017B012115310579F4E8816D
:104BC000F9810190F081E02D642FDF91CF911F9149
:104BD0000F91FF90EF90DF90CF9009942A3031052C
:104BE000E9F477FF1AC06DE20E947B258C0144270F
:104BF0005527BA014C195D096E097F092AE0CE01DB
:104C00000E948225800F911FDF91CF911F910F91FC
:104C1000FF90EF90DF90CF9008952AE0B701A601B2
:104C2000CE01DF91CF911F910F91FF90EF90DF9018
:104C3000CF900C9482259A01AB01662757FD6095B1
:104C4000762F0C94D1252115310541F4DC01ED912D
:104C5000FC910190F081E02D642F09940C94822541
:104C60009A01462F50E060E070E00C9423269A01F0
:104C7000AB0160E070E00C9423264F925F926F923C
:104C80007F928F929F92AF92BF92CF92DF92EF92DC
:104C9000FF920F931F93CF93DF93EC016A017B0187
:104CA000B22E9A01AB01C701B6010E948A2988235E
:104CB00019F069E371E027C026013701E89477F81D
:104CC0002FEF3FEF4FE75FE7C301B2010E948A2950
:104CD00081110DC02FEF3FEF4FE75FE7C301B20136
:104CE0000E948F2718161CF46DE371E00CC02FEFA3
:104CF0003FEF4FE75FE4C701B6010E94DE281816B8
:104D0000ACF461E471E0CE01DF91CF911F910F917E
:104D1000FF90EF90DF90CF90BF90AF909F908F90DB
:104D20007F906F905F904F900C9463252FEF3FEF33
:104D30004FE75FECC701B6010E948F2787FDE1CFE7
:104D400020E030E0A901C701B6010E948F2787FF4C
:104D50000AC06DE2CE010E947B258C01F7FAF09427
:104D6000F7F8F09402C000E010E0A12C60E070E0E1
:104D700080E09FE3AB1441F020E030E040E251E4FA
:104D80000E949327A394F6CF9B01AC01C701B60103
:104D90000E942B276B017C010E9400282B013C0103
:104DA0000E942C289B01AC01C701B6010E942A2752
:104DB0006B017C012AE0B301A201CE010E94822591
:104DC000080F191FBB2039F065E471E0CE010E9485
:104DD0006325080F191F7B2C772041F120E030E07C
:104DE00040E251E4C701B6010E9427296B017C0112
:104DF0000E94FB274B01AA2497FCA094BA2C2AE01E
:104E000030E0B501A401CE010E94D125080F191F81
:104E1000C501B4010E942E289B01AC01C701B60157
:104E20000E942A276B017C017A94D6CFC801DF91BA
:104E3000CF911F910F91FF90EF90DF90CF90BF9097
:104E4000AF909F908F907F906F905F904F9008955C
:104E50000C943D265058BB27AA270ED075C166D1A9
:104E600030F06BD120F031F49F3F11F41EF45BC1A0
:104E70000EF4E095E7FB51C1E92F77D180F3BA1723
:104E8000620773078407950718F071F49EF58FC1C8
:104E90000EF4E0950B2EBA2FA02D0B01B901900155
:104EA0000C01CA01A0011124FF27591B99F0593F99
:104EB00050F4503E68F11A16F040A22F232F342FE1
:104EC0004427585FF3CF469537952795A795F0402F
:104ED0005395C9F77EF41F16BA0B620B730B840B44
:104EE000BAF09150A1F0FF0FBB1F661F771F881FFC
:104EF000C2F70EC0BA0F621F731F841F48F4879554
:104F000077956795B795F7959E3F08F0B3CF939542
:104F1000880F08F09927EE0F979587950895D9D0B7
:104F200008F481E008950CD00FC107D140F0FED005
:104F300030F021F45F3F19F0F0C0511139C1F3C0D6
:104F400014D198F39923C9F35523B1F3951B550B4D
:104F5000BB27AA2762177307840738F09F5F5F4F4C
:104F6000220F331F441FAA1FA9F333D00E2E3AF08D
:104F7000E0E830D091505040E695001CCAF729D0A7
:104F8000FE2F27D0660F771F881FBB1F26173707F6
:104F90004807AB07B0E809F0BB0B802DBF01FF2726
:104FA00093585F4F2AF09E3F510568F0B6C000C18C
:104FB0005F3FECF3983EDCF3869577956795B79560
:104FC000F7959F5FC9F7880F911D9695879597F97B
:104FD0000895E1E0660F771F881FBB1F62177307F4
:104FE0008407BA0720F0621B730B840BBA0BEE1F09
:104FF00088F7E095089504D06894B111D9C0089558
:10500000BCD088F09F5790F0B92F9927B751A0F0E6
:10501000D1F0660F771F881F991F1AF0BA95C9F74C
:1050200012C0B13081F0C3D0B1E00895C0C0672F85
:10503000782F8827B85F39F0B93FCCF386957795FC
:105040006795B395D9F73EF49095809570956195E5
:105050007F4F8F4F9F4F0895E89409C097FB3EF410
:1050600090958095709561957F4F8F4F9F4F9923B5
:10507000A9F0F92F96E9BB279395F6958795779533
:105080006795B795F111F8CFFAF4BB0F11F460FFF3
:105090001BC06F5F7F4F8F4F9F4F16C0882311F04B
:1050A00096E911C0772321F09EE8872F762F05C05F
:1050B000662371F096E8862F70E060E02AF09A95FA
:1050C000660F771F881FDAF7880F9695879597F9EF
:1050D0000895990F0008550FAA0BE0E8FEEF161689
:1050E0001706E807F907C0F012161306E407F507DC
:1050F00098F0621B730B840B950B39F40A2661F050
:10510000232B242B252B21F408950A2609F4A140F2
:10511000A6958FEF811D811D089597F99F6780E8FF
:1051200070E060E008959FEF80EC089500240A94F9
:105130001616170618060906089500240A94121672
:105140001306140605060895092E0394000C11F4A5
:10515000882352F0BB0F40F4BF2B11F460FF04C052
:105160006F5F7F4F8F4F9F4F089557FD9058440FAB
:10517000551F59F05F3F71F04795880F97FB991FB6
:1051800061F09F3F79F08795089512161306140673
:10519000551FF2CF4695F1DF08C016161706180600
:1051A000991FF1CF86957105610508940895E894DB
:1051B000BB2766277727CB0197F908958ADF08F484
:1051C0008FEF08950EF0AAC0AECF6894A6CFD5DFBA
:1051D000C8F39923D1F3C6F3DF93CF931F930F93B3
:1051E000FF92C92FDD2788232AF02197660F771FAA
:1051F000881FDAF720E030E040E85FEB9FE3883972
:1052000020F0803E30F021968F7725DEE8E7F0E051
:1052100003C021DEE5EAF0E08FD08B01BE01EC0196
:10522000FB2E6F5771097595771F880B990B16DF49
:1052300028E132E741E35FE316D0AF2D9801AE01DC
:10524000FF900F911F91CF91DF9116DE7DCF0BD094
:105250007BCF6CDF28F071DF18F0952309F05DCF6C
:1052600062CF1124A5CF81DFA0F3959FD1F3950FD5
:1052700050E0551F629FF001729FBB27F00DB11DDA
:10528000639FAA27F00DB11DAA1F649F6627B00D6A
:10529000A11D661F829F2227B00DA11D621F739F53
:1052A000B00DA11D621F839FA00D611D221F749F61
:1052B0003327A00D611D231F849F600D211D822FA8
:1052C000762F6A2F11249F5750408AF0E1F08823EF
:1052D0004AF0EE0FFF1FBB1F661F771F881F9150FC
:1052E0005040A9F79E3F510570F017CF61CF5F3F47
:1052F000ECF3983EDCF3869577956795B795F7952F
:10530000E7959F5FC1F7FE2B880F911D96958795B6
:1053100097F90895DEDE880B990B08959F3F31F0D1
:10532000915020F4879577956795B795880F911DD3
:105330009695879597F90895DF93CF931F930F93D1
:10534000FF92EF92DF927B018C01689405C0DA2E08
:10535000EF0189DFFE01E894A591259135914591F2
:105360005591AEF3EF0188DDFE019701A801DA94B3
:1053700079F7DF90EF90FF900F911F91CF91DF9120
:105380000895991B79E004C0991F961708F0961BA1
:10539000881F7A95C9F780950895AA1BBB1B51E118
:1053A00007C0AA1FBB1FA617B70710F0A61BB70B95
:1053B000881F991F5A95A9F780959095BC01CD013A
:1053C000089597FB072E16F4009407D077FD09D0B7
:1053D0000E94CD2907FC05D03EF4909581959F4F02
:1053E0000895709561957F4F0895A1E21A2EAA1B2A
:1053F000BB1BFD010DC0AA1FBB1FEE1FFF1FA21785
:10540000B307E407F50720F0A21BB30BE40BF50B81
:10541000661F771F881F991F1A9469F7609570950A
:10542000809590959B01AC01BD01CF010895EE0FD1
:10543000FF1F0590F491E02D0994A29FB001B39F46
:10544000C001A39F700D811D1124911DB29F700D8D
:10545000811D1124911D0895662777270C94952CA2
:10546000FC0188279927E89421912032E9F329301B
:1054700010F02E30C8F32B3241F02D3239F46894FD
:1054800004C00E94752A820F911D219120532A3059
:10549000C0F31EF4909581959F4F0895FB01DC01A8
:1054A00002C005900D9241505040D8F70895FB017D
:1054B000DC014150504030F08D910590801919F475
:1054C0000020B9F7881B990B0895FB01DC0102C08D
:1054D00001900D9241505040D8F70895DC0101C071
:1054E0006D9341505040E0F708957AE0979F902DDA
:1054F000879F802D910D11240895AEE0B0E0E3E880
:10550000FAE20C94DA2E0D891E898F89988D2EE08F
:105510002C831A83098397FF02C080E090E80197EB
:105520009E838D83AE01455E5F4F698D7A8DCE017E
:1055300001960E94AD2A4D815E8157FD0AC02F81E0
:105540003885421753070CF49A01F801E20FF31F54
:1055500010822E96E4E00C94F62EACE0B0E0E3EB83
:10556000FAE20C94CC2E7C016B018A01FC011782BB
:105570001682838181FFBDC1CE0101964C01F701E6
:105580009381F60193FD859193FF81916F018823AB
:1055900009F4ABC1853239F493FD859193FF819174
:1055A0006F01853229F4B70190E00E942E2EE7CFDB
:1055B000512C312C20E02032A0F48B3269F030F4F1
:1055C000803259F0833269F420612CC08D3239F079
:1055D000803339F4216026C02260246023C0286013
:1055E00021C027FD27C030ED380F3A3078F426FF70
:1055F00006C0FAE05F9E300D1124532E13C08AE0DE
:10560000389E300D1124332E20620CC08E3221F4CE
:1056100026FD6BC1206406C08C3611F4206802C0E0
:10562000883641F4F60193FD859193FF81916F01D6
:105630008111C1CF982F9F7D9554933028F40C5F32
:105640001F4FFFE3F9830DC0833631F0833771F0CC
:10565000833509F05BC022C0F801808189830E5F29
:105660001F4F44244394512C540115C03801F2E0DB
:105670006F0E711CF801A080B18026FF03C0652D5C
:1056800070E002C06FEF7FEFC5012C870E94232ED0
:105690002C0183012C852F77222E17C03801F2E0D0
:1056A0006F0E711CF801A080B18026FF03C0652D2C
:1056B00070E002C06FEF7FEFC5012C870E94182EAB
:1056C0002C012C852068222E830123FC1BC0832DF6
:1056D00090E048165906B0F4B70180E290E00E94CD
:1056E0002E2E3A94F4CFF50127FC859127FE819167
:1056F0005F01B70190E00E942E2E31103A94F1E044
:105700004F1A51084114510471F7E5C0843611F065
:10571000893639F5F80127FF07C0608171818281E0
:1057200093810C5F1F4F08C060817181882777FDCE
:105730008095982F0E5F1F4F2F76B22E97FF09C0CE
:1057400090958095709561957F4F8F4F9F4F206802
:10575000B22E2AE030E0A4010E94602EA82EA818E4
:1057600044C0853729F42F7EB22E2AE030E025C0D0
:10577000F22FF97FBF2E8F36C1F018F4883579F0FB
:10578000B4C0803719F0883721F0AFC02F2F2061C7
:10579000B22EB4FE0DC08B2D8460B82E09C024FF3C
:1057A0000AC09F2F9660B92E06C028E030E005C0E1
:1057B00020E130E002C020E132E0F801B7FE07C08E
:1057C00060817181828193810C5F1F4F06C060816F
:1057D000718180E090E00E5F1F4FA4010E94602E57
:1057E000A82EA818FB2DFF77BF2EB6FE0BC02B2DC1
:1057F0002E7FA51450F4B4FE0AC0B2FC08C02B2DB5
:105800002E7E05C07A2C2B2D03C07A2C01C0752C5E
:1058100024FF0DC0FE01EA0DF11D8081803311F4DB
:10582000297E09C022FF06C07394739404C0822F9E
:10583000867809F0739423FD13C020FF06C05A2C0C
:10584000731418F4530C5718732C731468F4B701BD
:1058500080E290E02C870E942E2E73942C85F5CF49
:10586000731410F4371801C0312C24FF12C0B70193
:1058700080E390E02C870E942E2E2C8522FF17C0FB
:1058800021FF03C088E590E002C088E790E0B701FF
:105890000CC0822F867859F021FD02C080E201C041
:1058A0008BE227FD8DE2B70190E00E942E2EA51419
:1058B00038F4B70180E390E00E942E2E5A94F7CF7F
:1058C000AA94F401EA0DF11D8081B70190E00E94D5
:1058D0002E2EA110F5CF332009F451CEB70180E26E
:1058E00090E00E942E2E3A94F6CFF70186819781A0
:1058F00002C08FEF9FEF2C96E2E10C94E82EF9990D
:10590000FECF92BD81BDF89A992780B50895262FC4
:10591000F999FECF1FBA92BD81BD20BD0FB6F89494
:10592000FA9AF99A0FBE01960895A0E0B0E0EBE96B
:10593000FCE20C94D22E8B016115710521F0DB0184
:105940008C9311969C93EC015E01BFEFAB1ABB0ADE
:105950007501C8808C2D90E00E94F82D892B11F0E4
:10596000E501F2CFEDE2CE1208C07E01F2E0EF0ECB
:10597000F11CC980DD24D39409C02BE2C21205C0FA
:105980007E0142E0E40EF11CC980D12CE701219791
:1059900043E050E06AEA74E0CE010E94002E892BB9
:1059A000C1F4239645E050E065EA74E0CE010E9420
:1059B000002E892B09F425960115110519F0D8013F
:1059C000CD93DC93D11006C160E070E080E89FE7E2
:1059D0000AC143E050E062EA74E0CE010E94002E6A
:1059E000892B59F40115110509F4F9C0B2E0EB0E49
:1059F000F11CF801F182E082F2C0F70160E070E092
:105A0000CB01C0E0D0E07F01A0EDAA2EAC0C29E0D4
:105A10002A1530F14D2D4260B42E2D2D2870D2FE66
:105A200004C0211125C0219623C021112197A5E092
:105A3000B0E09B01AC010E94C12E660F771F881F4A
:105A4000991F6A0D711D811D911D6839A9E97A0799
:105A50008A07A9E19A0760F0BD2DB660BB2E08C089
:105A60002EEFA2120AC0D3FC50C04D2D4860B42EB8
:105A70003196D701CC90DB2CC6CF2C2D2F7D253431
:105A800009F043C0A081AD3241F4BD2DB061DB2EE1
:105A90007F0122E0E20EF11C0CC07F01AB3231F03D
:105AA0004FEFE41AF40A21E030E006C0A2E0EA0E6B
:105AB000F11CA18122E030E0A053AA3018F0E21AD4
:105AC000F30A23C0F70120E030E02038BCE03B07B8
:105AD0005CF4A901440F551F440F551F240F351FB7
